:100000000C945E110C9486110C9486110C9486113C
:100010000C9486110C9486110C9486110C94861104
:100020000C9486110C9486110C9486110C948611F4
:100030000C9486110C9486110C9486110C948611E4
:100040000C94702A0C9486110C9486110C948611D1
:100050000C9486110C9486110C9486110C948611C4
:100060000C94BA2A0C9486110000000010000000C5
:100070000200100200000100100100000300100344
:100080000400000410000400020410020400010433
:1000900010010400030410031000001010001000F1
:1000A00002101002100001101001100003101003C4
:1000B00014000014100014000214100214000114A3
:1000C00010011400031410030000800010800000D1
:1000D00082001082000081001081000083001083E4
:1000E0000400800410800400820410820400810453
:1000F0001081040083041083100080101080100011
:100100008210108210008110108110008310108363
:1001100014008014108014008214108214008114C2
:1001200010811400831410830100000110000100ED
:10013000020110020100010110010100030110037E
:10014000050000051000050002051002050001056C
:10015000100105000305100311000011100011002B
:1001600002111002110001111001110003111003FE
:1001700015000015100015000215100215000115DC
:10018000100115000315100301008001108001000B
:10019000820110820100810110810100830110831E
:1001A000050080051080050082051082050081058C
:1001B000108105008305108311008011108011004B
:1001C000821110821100811110811100831110839E
:1001D00015008015108015008215108215008115FC
:1001E00010811500831510830000400010400000AE
:1001F0004200104200004100104100004300104343
:100200000400400410400400420410420400410471
:10021000104104004304104310004010104010002F
:1002200042101042100041101041100043101043C2
:1002300014004014104014004214104214004114E1
:1002400010411400431410430000C00010C000000F
:10025000C20010C20000C10010C10000C30010C3E2
:100260000400C00410C00400C20410C20400C10491
:1002700010C10400C30410C31000C01010C010004F
:10028000C21010C21000C11010C11000C31010C362
:100290001400C01410C01400C21410C21400C11401
:1002A00010C11400C31410C301004001104001002C
:1002B000420110420100410110410100430110437D
:1002C00005004005104005004205104205004105AB
:1002D000104105004305104311004011104011006A
:1002E00042111042110041111041110043111043FD
:1002F000150040151040150042151042150041151B
:1003000010411500431510430100C00110C0010049
:10031000C20110C20100C10110C10100C30110C31C
:100320000500C00510C00500C20510C20500C105CA
:1003300010C10500C30510C31100C01110C0110089
:10034000C21110C21100C11110C11100C31110C39C
:100350001500C01510C01500C21510C21500C1153A
:1003600010C11500C31510C30001000011000001E9
:10037000020011020001010011010001030011033C
:10038000040100041100040102041102040101042B
:1003900011010401030411031001001011001001E8
:1003A00002101102100101101101100103101103BC
:1003B000140100141100140102141102140101149B
:1003C00011011401031411030001800011800001C8
:1003D00082001182000181001181000183001183DC
:1003E000040180041180040182041182040181044B
:1003F0001181040183041183100180101180100108
:10040000821011821001811011811001831011835B
:1004100014018014118014018214118214018114BA
:1004200011811401831411830101000111000101E4
:100430000201110201010101110101010301110376
:100440000501000511000501020511020501010564
:100450001101050103051103110100111100110122
:1004600002111102110101111101110103111103F6
:1004700015010015110015010215110215010115D4
:100480001101150103151103010180011180010102
:100490008201118201018101118101018301118316
:1004A0000501800511800501820511820501810584
:1004B0001181050183051183110180111180110142
:1004C0008211118211018111118111018311118396
:1004D00015018015118015018215118215018115F4
:1004E00011811501831511830001400011400001A5
:1004F000420011420001410011410001430011433B
:100500000401400411400401420411420401410469
:100510001141040143041143100140101140100126
:1005200042101142100141101141100143101143BA
:1005300014014014114014014214114214014114D9
:1005400011411401431411430001C00011C0000106
:10055000C20011C20001C10011C10001C30011C3DA
:100560000401C00411C00401C20411C20401C10489
:1005700011C10401C30411C31001C01011C0100146
:10058000C21011C21001C11011C11001C31011C35A
:100590001401C01411C01401C21411C21401C114F9
:1005A00011C11401C31411C3010140011140010123
:1005B0004201114201014101114101014301114375
:1005C00005014005114005014205114205014105A3
:1005D0001141050143051143110140111140110161
:1005E00042111142110141111141110143111143F5
:1005F0001501401511401501421511421501411513
:1006000011411501431511430101C00111C0010140
:10061000C20111C20101C10111C10101C30111C314
:100620000501C00511C00501C20511C20501C105C2
:1006300011C10501C30511C31101C01111C0110180
:10064000C21111C21101C11111C11101C31111C394
:100650001501C01511C01501C21511C21501C11532
:1006600011C11501C31511C30000000000010001F4
:10067000000200020003000300040004000500055E
:1006800000060006000700070020002000210021CE
:10069000002200220023002300240024002500253E
:1006A00000260026002700270040004000410041AE
:1006B000004200420043004300440044004500451E
:1006C000004600460047004700600060006100618E
:1006D00000620062006300630064006400650065FE
:1006E000006600660067006700800080008100816E
:1006F00000820082008300830084008400850085DE
:10070000008600860087008700A000A000A100A14D
:1007100000A200A200A300A300A400A400A500A5BD
:1007200000A600A600A700A700C000C000C100C12D
:1007300000C200C200C300C300C400C400C500C59D
:1007400000C600C600C700C700E000E000E100E10D
:1007500000E200E200E300E300E400E400E500E57D
:1007600000E600E600E700E71000100010011001AD
:1007700010021002100310031004100410051005DD
:10078000100610061007100710201020102110214D
:1007900010221022102310231024102410251025BD
:1007A000102610261027102710401040104110412D
:1007B000104210421043104310441044104510459D
:1007C000104610461047104710601060106110610D
:1007D000106210621063106310641064106510657D
:1007E00010661066106710671080108010811081ED
:1007F000108210821083108310841084108510855D
:10080000108610861087108710A010A010A110A1CC
:1008100010A210A210A310A310A410A410A510A53C
:1008200010A610A610A710A710C010C010C110C1AC
:1008300010C210C210C310C310C410C410C510C51C
:1008400010C610C610C710C710E010E010E110E18C
:1008500010E210E210E310E310E410E410E510E5FC
:1008600010E610E610E710E704000400040104019C
:10087000040204020403040304040404040504053C
:1008800004060406040704070420042004210421AC
:10089000042204220423042304240424042504251C
:1008A000042604260427042704400440044104418C
:1008B00004420442044304430444044404450445FC
:1008C000044604460447044704600460046104616C
:1008D00004620462046304630464046404650465DC
:1008E000046604660467046704800480048104814C
:1008F00004820482048304830484048404850485BC
:10090000048604860487048704A004A004A104A12B
:1009100004A204A204A304A304A404A404A504A59B
:1009200004A604A604A704A704C004C004C104C10B
:1009300004C204C204C304C304C404C404C504C57B
:1009400004C604C604C704C704E004E004E104E1EB
:1009500004E204E204E304E304E404E404E504E55B
:1009600004E604E604E704E714001400140114018B
:1009700014021402140314031404140414051405BB
:10098000140614061407140714201420142114212B
:10099000142214221423142314241424142514259B
:1009A000142614261427142714401440144114410B
:1009B000144214421443144314441444144514457B
:1009C00014461446144714471460146014611461EB
:1009D000146214621463146314641464146514655B
:1009E00014661466146714671480148014811481CB
:1009F000148214821483148314841484148514853B
:100A0000148614861487148714A014A014A114A1AA
:100A100014A214A214A314A314A414A414A514A51A
:100A200014A614A614A714A714C014C014C114C18A
:100A300014C214C214C314C314C414C414C514C5FA
:100A400014C614C614C714C714E014E014E114E16A
:100A500014E214E214E314E314E414E414E514E5DA
:100A600014E614E614E714E7010001000101010196
:100A70000102010201030103010401040105010552
:100A800001060106010701070120012001210121C2
:100A90000122012201230123012401240125012532
:100AA00001260126012701270140014001410141A2
:100AB0000142014201430143014401440145014512
:100AC0000146014601470147016001600161016182
:100AD00001620162016301630164016401650165F2
:100AE0000166016601670167018001800181018162
:100AF00001820182018301830184018401850185D2
:100B0000018601860187018701A001A001A101A141
:100B100001A201A201A301A301A401A401A501A5B1
:100B200001A601A601A701A701C001C001C101C121
:100B300001C201C201C301C301C401C401C501C591
:100B400001C601C601C701C701E001E001E101E101
:100B500001E201E201E301E301E401E401E501E571
:100B600001E601E601E701E71100110011011101A1
:100B700011021102110311031104110411051105D1
:100B80001106110611071107112011201121112141
:100B900011221122112311231124112411251125B1
:100BA0001126112611271127114011401141114121
:100BB0001142114211431143114411441145114591
:100BC0001146114611471147116011601161116101
:100BD0001162116211631163116411641165116571
:100BE00011661166116711671180118011811181E1
:100BF0001182118211831183118411841185118551
:100C0000118611861187118711A011A011A111A1C0
:100C100011A211A211A311A311A411A411A511A530
:100C200011A611A611A711A711C011C011C111C1A0
:100C300011C211C211C311C311C411C411C511C510
:100C400011C611C611C711C711E011E011E111E180
:100C500011E211E211E311E311E411E411E511E5F0
:100C600011E611E611E711E7050005000501050190
:100C70000502050205030503050405040505050530
:100C800005060506050705070520052005210521A0
:100C90000522052205230523052405240525052510
:100CA0000526052605270527054005400541054180
:100CB00005420542054305430544054405450545F0
:100CC0000546054605470547056005600561056160
:100CD00005620562056305630564056405650565D0
:100CE0000566056605670567058005800581058140
:100CF00005820582058305830584058405850585B0
:100D0000058605860587058705A005A005A105A11F
:100D100005A205A205A305A305A405A405A505A58F
:100D200005A605A605A705A705C005C005C105C1FF
:100D300005C205C205C305C305C405C405C505C56F
:100D400005C605C605C705C705E005E005E105E1DF
:100D500005E205E205E305E305E405E405E505E54F
:100D600005E605E605E705E715001500150115017F
:100D700015021502150315031504150415051505AF
:100D8000150615061507150715201520152115211F
:100D9000152215221523152315241524152515258F
:100DA00015261526152715271540154015411541FF
:100DB000154215421543154315441544154515456F
:100DC00015461546154715471560156015611561DF
:100DD000156215621563156315641564156515654F
:100DE00015661566156715671580158015811581BF
:100DF000158215821583158315841584158515852F
:100E0000158615861587158715A015A015A115A19E
:100E100015A215A215A315A315A415A415A515A50E
:100E200015A615A615A715A715C015C015C115C17E
:100E300015C215C215C315C315C415C415C515C5EE
:100E400015C615C615C715C715E015E015E115E15E
:100E500015E215E215E315E315E415E415E515E5CE
:100E600015E615E615E715E7000000002400270049
:100E70002A0000000000250028002B0000000000D0
:100E800023002600290004040404040404040202CC
:100E900002020202030303030303010204081020F9
:100EA0004080010204081020010204081020000004
:100EB0000008000201000003040700000000000019
:100EC0000000207E01010000000000000000000082
:100ED0005E0000000000000E000E00000000287CF4
:100EE000287C2800000008547C54200000002610B4
:100EF00008640000000028542840000000000000A2
:100F00000E0000000000003C420000000000004213
:100F10003C00000000000054385400000000101095
:100F20007C10100000000080602000000000101005
:100F300010100000000000606000000000002010A1
:100F4000080400000000003C423C00000000004497
:100F50007E40000000004462524C00000000224A23
:100F60004A360000000018147E10000000002E4ACF
:100F70004A32000000003C4A4A3000000000026291
:100F80001A0600000000344A4A34000000000C52E7
:100F9000523C00000000006C6C0000000000806CFF
:100FA0002C00000000000010284400000000282849
:100FB0002828000000000044281000000000000461
:100FC000520C000000003C425A1C000000007C1241
:100FD000127C000000007E4A4A34000000003C42BF
:100FE0004224000000007E42423C000000007E4A95
:100FF0004A42000000007E0A0A02000000003C4253
:101000005274000000007E08087E000000000042CC
:101010007E42000000002040403E000000007E189C
:101020002442000000007E404040000000007E0C92
:101030000C7E000000007E0C307E000000003C4270
:10104000423C000000007E12120C000000003C62D6
:1010500042BC000000007E12324C00000000244A16
:1010600052240000000000027E02000000003E400A
:10107000403E000000001E60601E000000007E3048
:10108000307E000000006618186600000000000EA8
:10109000700E0000000062524A4600000000007E10
:1010A000424200000000040810200000000000423E
:1010B000427E0000000000040204000000004040E6
:1010C0004040000000000002040000000000304822
:1010D0002878000000007E484830000000003048BA
:1010E0004800000000003048487E000000003068E2
:1010F000581000000000107C12040000000050A8EE
:10110000A898000000007E08087000000000004859
:101110007A40000000000040807A000000007E104D
:1011200028400000000000427E40000000007810CF
:1011300018700000000078080870000000003048B7
:10114000483000000000F8484830000000003048F7
:1011500048F800000000780808100000000050580F
:10116000682800000000083E4840000000003840A9
:10117000407800000000003840380000000078602F
:10118000607800000000483030480000000018A0DF
:10119000403800000000486858480000000000087F
:1011A0003C420000000000007E0000000000004201
:1011B0003C08000000000402040200000000207E41
:1011C000010200000000000000000000000000001C
:1011D0000000000000F8F80000000000001B1B00E9
:1011E000000000003C3C003C3C000000000000000F
:1011F00000000040F8F8F8F8400000021F1F1F1F11
:101200000200006090F8F8106000000C103F3F11E1
:101210000E0000307848F038180000181C0F121E1D
:101220000C00000070F888F87000000E1F110E1FEF
:1012300013000000003C3C00000000000000000023
:1012400000000000C0F0380C04000000071F3860E8
:1012500040000000040C38F0C00000004060381F5F
:1012600007000018A0F8F8A018000003000303000E
:101270000300000000E0E00000000001010F0F018A
:101280000100000000000000000000000048783865
:101290000000000000000000000000010101010149
:1012A000010000000000000000000000001818000D
:1012B000000000000080E07C1C0000707C0F030038
:1012C000000000F0F80808F8F000000F1F10101FD1
:1012D0000F00002030F8F80000000010101F1F1051
:1012E00010000030380888F8700000181C16131120
:1012F00010000030388888F87000000C1C10101F97
:101300000F00000080C0F0F80000000707041F1F56
:10131000040000F8F84848C88800000C1C10101F92
:101320000F0000E0F09888B83000000F1F10101F69
:101330000F0000383888E87818000000001F1F00F0
:1013400000000070F88888F87000000E1F11111F4F
:101350000E0000F0F80808F8F000000C1D11190F3D
:10136000070000000060600000000000000C0C009E
:1013700000000000000060600000000000243C1C31
:101380000000000080C060301000000103060C184F
:101390001000008080808080800000040404040429
:1013A000040000103060C08000000010180C06031C
:1013B000010000303888C87830000000001B1B0096
:1013C000000000E0F0D8E838F00000070F1B171409
:1013D000170000F0F81818F8F000001F1F02021F95
:1013E0001F0000F8F88888F83000001F1F10101F39
:1013F0000F0000F0F80808383000000F1F10101C14
:101400000C0000F8F80818F0E000001F1F10180F7B
:10141000070000F8F88888880800001F1F101010C7
:10142000100000F8F88888880800001F1F000000DE
:10143000000000F0F80808383000000F1F10111FDE
:101440000F0000F8F88080F8F800001F1F00001F50
:101450001F00000808F8F80808000010101F1F10EF
:1014600010000000000000F8F800000C1C10180F1D
:10147000070000F8F8E030180800001F1F03071CE1
:10148000180000F8F80000000000001F1F101010E6
:10149000100000F8F0C0C0F0F800001F1F00001F8F
:1014A0001F0000F8F8E000F8F800001F1F00071FF9
:1014B0001F0000F0F80808F8F000000F1F10101FC0
:1014C0000F0000F8F80808F8F000001F1F010101E4
:1014D000000000F0F80808F8F000000F1F12143F99
:1014E0006F0000F8F88888F87000001F1F00011FC7
:1014F0001E00003078C888383000000C1C11131E04
:101500000C00000808F8F80808000000001F1F0081
:10151000000000F8F80000F8F800000F1F10101F7E
:101520000F0000F8F80000F8F80000030F1C1C0F73
:10153000030000F8F80000F8F800000F1F0F0F1F5D
:101540000F00001878E0E078180000181E07071E4A
:1015500018000038F8C0C0F838000000001F1F0055
:10156000000000080888E878180000181E171110FD
:1015700010000000FCFC0404040000007F7F4040D9
:101580004000001C7CE080000000000000030F7C95
:1015900070000000040404FCFC0000004040407F98
:1015A0007F0000080C06060C080000000000000088
:1015B000000000000000000000000060606060604B
:1015C00060000000040C1810000000000000000083
:1015D00000000080C04040C08000000C1E12111F9F
:1015E0001F0000F8F84040C08000001F1F10101FAF
:1015F0000F000080C04040C08000000F1F10101876
:1016000008000080C04040F8F800000F1F10101FB5
:101610001F000080C04040C08000000F1F12121B3E
:101620000B00008080F0F89890000000001F1F0061
:1016300000000080C040C080C00000337F5457735A
:10164000200000F8F84040C08000001F1F00001F6D
:101650001F00000000D8D80000000000001F1F007D
:1016600000000000000000D8D80000002060407F8B
:101670003F0000F8F80080C00000001F1F03070CA7
:101680001800000000F8F80000000000001F1F0014
:10169000000000C0C080C0C08000001F1F0F0F1FCF
:1016A0001F0000C0C04040C08000001F1F00001F7E
:1016B0001F000080C04040C08000000F1F10101F9E
:1016C0000F0000C0C04040C08000007F7F10101F8E
:1016D0000F000080C04040C0C000000F1F10107FEE
:1016E0007F0000C0C04040C08000001F1F000001FC
:1016F00001000080C04040C0800000081913161C83
:101700000800004040F8F84040000000000F1F10A3
:10171000100000C0C00000C0C000000F1F10101F4C
:101720001F0000C0C00000C0C0000001071E1E074F
:10173000010000C0C00000C0C000000F1F0F0F1F3D
:101740000F0000C0C00000C0C00000181D07071D2A
:10175000180000C0C00000C0C0000020634F7C3FE4
:1017600003000040404040C0C00000181C16131188
:101770001000000000F8FC0404000000013F7E405F
:101780004000000000FCFC0000000000007F7F0023
:10179000000000000404FCF80000000040407E3F10
:1017A000010000380C1818301C0000000000000078
:1017B000000040500404F0F0F0F0F0F0F0F0F0F031
:1017C000F0F0F0F0F0F0F0F0F0F0F0F0F0F0F0F019
:1017D000F0F000000000FFFFFFFF0000000000002D
:1017E0000000000000000000000000000000FFFFFB
:1017F000FFFFF0F0F0F0FFFFFFFF0000000000002F
:101800000000000000000000000000000000FFFFDA
:10181000FFFF0F0F0F0F0F0F0F0F0F0F0F0F0F0FF8
:101820000F0F0F0F0F0F0F0F0F0F0F0F0F0F0F0FC8
:101830000F0F000000000000000000000000E0F8B2
:10184000FCFEFEFFFFFFFFFFFFFEFEFCF8E00000D6
:10185000000000000000000000000000C0F8FFFFD2
:10186000FFFFFFFFFFFFFFFFFFFFFFFFFFFFF8C0CE
:10187000000000000000C0F0F8FCFEFFFFFFFFFFCB
:10188000FFFFFFFFFFFFFFFFFFFFFFFFFFFFFFFF68
:10189000FFFEFCF8F0C000000000000000000000A7
:1018A00000003070F0F0F0F0703000000000000038
:1018B00000000000000000000040E0F0F8F0F0E060
:1018C000E0E0F0FEFFFFFFFFFEF0E0E0E0F0F0F808
:1018D000F0E040000000C0E0E0E0F1FFFFFFFFFFAC
:1018E0003F0F07070303030307070F3FFFFFFFFF38
:1018F000FFF1E0E0E0C00307070F8FFFFFFFFFFFEE
:10190000FCF0E0E0C0C0C0C0E0E0F0FCFFFFFFFF83
:10191000FF8F0F07070300000002070F1F0F0F07BD
:1019200007070F7FFFFFFFFF7F0F0707070F0F1F3F
:101930000F0702000000000000000000000000008F
:1019400080E0F8FEFFFF7F1F07010000000000009D
:101950000000000000000000000000000000080E71
:101960000F0F0F0F0FCFFFFFFFFF7F1F07010000BB
:10197000000000000000000000000000000030F047
:10198000F0F0F0F0FEFFFFFFF7F170301000000004
:101990000000000000000000000000000000000146
:1019A0000F7F7F3F1F0F07030100000000000000B2
:1019B00000000000000000000000000080C0C0E047
:1019C000F0F8F8FCFEFFFFFEFCF8F8F0E0C0C08085
:1019D00000000000000000080C0EFEFFFFFFFFFFEC
:1019E000FFFFFFFFFFFFFFFFFFFFFFFFFFFFFFFF07
:1019F000FFFE0E0C080000000000FFFFFFFFFFFFCE
:101A0000FFFF0F0F0F0F0F0F0F0FFFFFFFFFFFFF66
:101A1000FFFF00000000000000000F0F0F0F0F0F6E
:101A20000F0F00000000000000000F0F0F0F0F0F3E
:101A30000F0F000000000000000000000000000088
:101A40000000000000000000000000183C7EFEFCCA
:101A5000F8F0E0C0800000000000000000000080FE
:101A6000C0E0F0F8FCFEFEFCF8F0E0C080000001F1
:101A70000307070301000080C0E0F0F8FCFEFFFF51
:101A8000FFFFFFFFFFFF7F3F1F0F07030100000065
:101A9000000000000000FFFFFFFFFFFFFFFF7F3F90
:101AA0001F0F0703010000000000000000000000FD
:101AB0000000000000000000000000000000000026
:101AC00000E0FCFCE000000000000000000000005E
:101AD000000000000000808080808080808080F88E
:101AE000FFFF7F7FFFFFF8C000C0F8FEFEF8E08038
:101AF00080808080808007070707071FFFFFFFFFA8
:101B00001F030000031FFFFFFFFF3F0F030707072F
:101B1000070707070707000000000000000F0F017C
:101B2000000000000000000F07000000000000009F
:101B3000000000000000000000000000000000C0E5
:101B4000F8FEFFFFFFFFFEF0C000000000000000F5
:101B5000000000000000000000000080E0FCFFFF2B
:101B6000FFFF0F0F0F0FFFFFFFFFF8E080000000E7
:101B70000000000000000000C0F0FEFFFFFFFFFFBC
:101B8000FFFFF0F0F0F0FFFFFFFFFFFFFFFCF0C0F2
:101B9000000000000000F8FFFFFFFFFFFFFFFFFF56
:101BA000FFFFF0F0F0F0FFFFFFFFFFFFFFFFFFFF81
:101BB000FEF800000000000000000000000000002F
:101BC000000080E0F8FCFCFEFEFF0F0703000000B1
:101BD0000000000000000000000000000000000005
:101BE0000080DFFFFFFFFFFFFFFFF0F0F0F0F0F0FD
:101BF000F0F0F0F87C1E00000080C0E0F0F8FCFE81
:101C0000FFFFFFFF7F3F1F0F070F0F0F0F0F0F0784
:101C10000703030100003C7EE7C3C3E77F3F1F0FBC
:101C200007030100000000000000000000000000A9
:101C3000000000000000F0F0F0F0F0F0F0F0F0F044
:101C4000F0F0F0F0F0F0F0F0F0F0F0F0F0F0F0F094
:101C5000F0F000000000FFFFFFFFFFFFFFFFFFFFAE
:101C6000FFFFFFFFFFFFFFFFFFFFFFFFFFFFFFFF84
:101C7000FFFFF0F0F0F0FFFFFFFFFFFFFFFFFFFFB0
:101C8000FFFFFFFFFFFFFFFFFFFFFFFFFFFFFFFF64
:101C9000FFFF0F0F0F0F0F0F0F0F0F0F0F0F0F0F74
:101CA0000F0F0F0F0F0F0F0F0F0F0F0F0F0F0F0F44
:101CB0000F0F000000000000000000000000000006
:101CC000FFFFFFFE3C78F8F0E0E0C080000000007D
:101CD0000000000000000000000000060F1F3E7C16
:101CE000FFFFFFFFC0E0F0F0793F3F1F0F0F06003E
:101CF000000000000000000000000060F0F87C3EE2
:101D0000FFFFFFFF03070F0F9EFCFCF8F0F06000E1
:101D100000000000000000000000000000000000C3
:101D2000FFFFFF7F3C1E1F0F07070301000000009D
:101D3000000000000000000080C0E0F0F8FCFCFEA5
:101D4000FEFEFFFFFFFF0F0F0F1F1E1E3E7CFCF865
:101D5000F0E0C0800000F0FEFFFFFFFFFFFFFFFF8D
:101D6000FFFFFFFFFFFF0000000000000000000178
:101D7000031FFFFFFEF00F7FFFFFFFFFFFFFFFFFCF
:101D8000FFFFFFFFFFFF00000000000000000080D9
:101D9000C0F8FFFF7F0F00000103070F1F3F3F7FC9
:101DA0007F7FFFFFFFFFF0F0F0F878787C3E3F1F69
:101DB0000F0703010000FFFFFFFFFFFFFFFFFFFF13
:101DC000FFFFFFFFFFFFFFFFFFFFFFFFFFFFFFFF23
:101DD000FFFF000000007FFFFFFFFFFFFFFFFFFF8F
:101DE000FFFFFFFFFFFFFFFFFFFFFFFFFFFFFFFF03
:101DF000FF7F00000000F0F0F0F0F0F0F0F0F0F005
:101E0000F0F0F0F0F0F0F0F0F0F0F0F0F0F0F0F0D2
:101E1000F0F000000000FFFFFFFFFFFFFFFFFFFFEC
:101E2000FFFFFFFFFFFFFFFFFFFFF9F0F0F9FFFFEC
:101E3000FFFF000000000000000080C0C0E0E0F0F4
:101E4000F078783C3C1E1E0F0F8680C0C0800000DA
:101E50000000000000000000000083C3C3E1E1F0C7
:101E6000F078783C3C1E1E0F0F8787C3C3810000AB
:101E7000000000000000000000000303030161F007
:101E8000F0F8F8FCFCFEFEFFFFFF07030301000073
:101E90000000000000000000000000000000000042
:101EA000F0F0F0F0F0F0F060000000000000000042
:101EB000000000000000000000000080C080000062
:101EC0000000FFFFFFFF0000000080C08000000056
:101ED000000000000000C0F0FCFE7F1F07030300AD
:101EE0000000FFFFFFFF0000000303071F7FFEFC51
:101EF000F0C0000000003FFFFFFFE0800000000096
:101F000000000000000000000000000080E0FFFF73
:101F1000FF3F00000000000003070F1F3E3C7C78DD
:101F2000F8F0F0F0F0F0F0F8787C3C3E1F0F07037B
:101F3000000000000000000080C0E0F0F87C7C3E63
:101F40001E1E0F0F0F0F0F0F0F1F1E1E3E7CF8F8E7
:101F5000F0F0F8FCFEFEF0FEFFFF0F0301000000B2
:101F600000000000000000000000080C0E0F0F0F22
:101F70000F0F0F0F0F0F0F7FFFFFF0C0800000004B
:101F80000000000000000000000000000000000051
:101F900000000000000000000103070F1F3E3E7C10
:101FA0007878F8F0F0F0F0F0F0F878787C3E3E1CAD
:101FB0000800000000001078787C3C3C1E1E1E1EAD
:101FC0000F0F0F0F0F0F0F0F0F0F1E1E1E1E3C3C8B
:101FD0007C787810000000000000000000C0E0E005
:101FE000E0F0F0F0F0F0F0F0F0E0E0E0C000000031
:101FF00000000000000000000000000000000301DD
:1020000001010000000000000101010300000000C8
:1020100000000000000000000000000000000000C0
:10202000003C7EFFFFFFFF7E3C0000000000000040
:102030000000000000004044040400000000000014
:102040000000000000000000000000000000000090
:1020500080C0E0F0E0C080000000000080C0E0F040
:10206000E0C080000000000080C0E0F0F8FCFEFF4F
:10207000FFFFFFFF7F3F1F0F060002070F1F3F7F7D
:10208000FFFFFFFFFEFCFEFFFFFFFFFF7F3F1F0F75
:102090000703010000000000000000000000000035
:1020A000000103070F1F1F0F0703010000000000BE
:1020B00000000000000000000000000080C0E0F010
:1020C000F8FCFCFEFEFEFFFFFFFFFFFFFFFFFEFE32
:1020D000FEFCFCF8F0E0C0800000F0FEFFFFFFFF18
:1020E000FFFF7F3F3F7FFFFFFFFF7F3F1F0F078304
:1020F000C1E0F0F9FFFFFFFFFEF00F7FFFFFFFFFE2
:10210000FFFFFEFCF8F0E0C1C1E0F0F8FCFEFFFFCD
:10211000FFFFFFFFFFFFFFFF7F0F00000103070F1F
:102120001F3F3F7F7F7FFFFFFFFFFFFFFFFF7F7F9F
:102130007F3F3F1F0F0703010000000080C0E0F059
:10214000F8FCFCFEFEFEFFFFFFFFFFFFFFFFFEFEB1
:10215000FEFCFCF8F0E0C0800000F0FEFFFFFFFF97
:10216000FFFFF9F0E0C183070F1F1F0F0783C1E0D6
:10217000F0F9FFFFFFFFFFFFFEF00F7FFFFFFFFF04
:10218000FFFF9F0F0783C1E0F0F8F8F0E0C183077D
:102190000F9FFFFFFFFFFFFF7F0F00000103070FEF
:1021A0001F3F3F7F7F7FFFFFFFFFFFFFFFFF7F7F1F
:1021B0007F3F3F1F0F0703010000FFFFFFFF0F0FCF
:1021C0000F0F0F0F0F0F0F0F0F0F0F0F0F070381C1
:1021D000C0E0F0F8FCFE7E3C1800FFFFFFFF0000AF
:1021E000000000183C7EFEFCF8F0F0F8FCFE7F3F9B
:1021F0001F0F070381C000000000FFFFFFFF00006A
:1022000000000000000000010307070301000000B8
:102210000000FEFFFFFF000000000F0F0F0F0F0F69
:102220000F0F0F0F0F0F0F0F0F0F0F0F0F0F0F0FBE
:102230000F0F0F0F0F0F000000002070F8FCFEFFC3
:10224000FEFCF8F0E0C080000000000080C0E0F07C
:10225000F8FCFEFFFEFCF8F0600000000001030740
:102260000F1F3F7FFFFFFFFFFEFCFEFFFFFFFFFF93
:102270007F3F1F0F070301000000000080C0E0F057
:10228000F8FCFEFFFFFFFFFF7F3F3F7FFFFFFFFFE9
:10229000FEFCF8F0E0C08000000002070F1F3F7F47
:1022A0007F3F1F0F0703010000000000000103072C
:1022B0000F1F3F7F7F3F1F0F0600EE2C11241FBE14
:1022C000CFEFD8E0DEBFCDBF26E0ACE9B5E001C07E
:1022D0001D92AA37B207E1F715E0A0E0B1E0E0EE09
:1022E000F7E702C005900D92AC39B107D9F711E1BB
:1022F000CEE5D1E104C02197FE010E94F639CD352B
:10230000D107C9F70E94452D0C94EE3B0C940000B8
:1023100080E008959B01DC011896ED91FC9141E06D
:1023200067E10994833081F028F4813099F082309C
:10233000A9F008958730A9F08830C9F08430B1F44D
:10234000809180008F7D03C0809180008F77809383
:102350008000089584B58F7784BD089584B58F7DFE
:10236000FBCF8091B0008F778093B000089580916B
:10237000B0008F7DF9CFCF93DF93282F30E0F901A4
:10238000E255F14F8491F901E656F14FD491F901EC
:10239000EA57F14FC491CC23A1F081110E94921110
:1023A000EC2FF0E0EE0FFF1FE458F14FA591B49130
:1023B000EC91ED2381E090E009F480E0DF91CF9192
:1023C000089580E090E0FACF1F93CF93DF93282FFA
:1023D00030E0F901E255F14F8491F901E656F14FF1
:1023E000D491F901EA57F14FC491CC23A9F0162FEB
:1023F00081110E949211EC2FF0E0EE0FFF1FEE58BA
:10240000F14FA591B4918FB7F894EC91111108C0D8
:10241000D095DE23DC938FBFDF91CF911F9108957C
:10242000DE2BF8CFCF93DF9390E0FC01E656F14F1F
:1024300024918A57914FFC0184918823D1F090E038
:10244000880F991FFC01E859F14FA591B491FC0147
:10245000EE58F14FC591D491623071F49FB7F89462
:102460003C91822F809583238C93E8812E2B2883A7
:102470009FBFDF91CF9108958FB7F894EC912E2BE9
:102480002C938FBFF6CF8230910538F0880F991FBB
:10249000880F991F05970197F1F708953FB7F894B2
:1024A0008091380690913906A0913A06B0913B068A
:1024B00026B5A89B05C02F3F19F00196A11DB11D9F
:1024C0003FBFBA2FA92F982F8827BC01CD01620FDB
:1024D000711D811D911D42E0660F771F881F991F96
:1024E0004A95D1F708958F929F92AF92BF92CF9263
:1024F000DF92EF92FF926B017C010E944E124B0122
:102500005C01C114D104E104F104B9F00E944E123F
:10251000681979098A099B09683E7340810591050C
:1025200080F321E0C21AD108E108F10888EE880E94
:1025300083E0981EA11CB11CE4CFFF90EF90DF90C8
:10254000CF90BF90AF909F908F9008952091E80515
:10255000260F3327331F21323105ECF420910C066E
:10256000FC0190E080E0243069F082E00895A091C1
:10257000E8052191AC0148535A4FA40FB52FB11D66
:102580002C930196861798F38091E805680F609365
:10259000E80580E0089581E0089508958FEF9FEFAA
:1025A00008958FEF9FEF08958091C10590E0919578
:1025B000819591090895CF93DF93CB01EA01642FB0
:1025C0000E94A612CE01DF91CF910895CF93DF93A1
:1025D0001F92CDB7DEB7698361E0CE0101960E94FC
:1025E000A61281E090E00F90DF91CF910895DC0179
:1025F0001A96ED91FC9130E020E00994CF92DF92A1
:10260000FF920F931F93CF93DF9300D000D01F92C0
:10261000CDB7DEB78C011C8281E08B837A8369831E
:10262000D801ED91FC91F1881D82F801A081B18162
:10263000C480D5809E012F5F3F4F50964C916FE034
:10264000C801F60109958D818F5F8D838F1568F321
:102650000F900F900F900F900F90DF91CF911F91DF
:102660000F91FF90DF90CF900895CF93DF93CDB778
:10267000DEB728970FB6F894DEBF0FBECDBFBE0100
:102680006F5F7F4F28E0FB0111922A95E9F70E94C6
:10269000FE1228960FB6F894DEBF0FBECDBFDF91B5
:1026A000CF910895DC011696ED91FC9130E020E089
:1026B00040E069E10994DC011696ED91FC9130E06F
:1026C00020E040E068E109949A01DC011696ED9162
:1026D000FC91462F67E10994EF92FF920F931F93AD
:1026E000CF93DF931F92CDB7DEB77C018B01D8016A
:1026F0006C91673129F150F46531A0F40F90DF91AE
:10270000CF911F910F91FF90EF9008956A3118F1CA
:102710006E3FA1F7F8014181498369E2C7010E9438
:10272000F7120BC0F80141814983D7011696ED914C
:10273000FC9130E020E0C70109950E5F1F4FD7CF15
:10274000F80181818983AE014F5F5F4F61E0C7016E
:102750000E946413F2CF0F5F1F4FD7011696ED91C1
:10276000FC9130E020E040E0C7010995C0CF462F42
:10277000DC011696ED91FC9130E020E066E10994D1
:10278000462FDC011696ED91FC9130E020E065E1EA
:102790000994EF92FF920F931F93CF93DF93EC0175
:1027A000042F79016D3009F446C050F46B30C9F143
:1027B000693009F49FC06A3009F465C080E046C002
:1027C0006E3009F452C06F3099F70E945B13F70125
:1027D0001381110F110F110F6C89160F60E4CE01D8
:1027E0000E94C013612F62956F706061CE010E94DC
:1027F000C013612F6F70CE010E94B713F70164817F
:10280000606BCE010E94B713F70140815181628154
:10281000660F660F660FCE010E9464130150A1F788
:102820002EC06BE074E0442311F066E074E0CE014A
:102830000E946C130AC0411110C06FEF73E00E9438
:102840006C13E881F98182898C8B81E0DF91CF91D3
:102850001F910F91FF90EF90089568EF73E00E9431
:102860006C13E881F9818389EFCF0E945B1361E8E3
:10287000CE010E94C013602FCE010E94B713CE017B
:102880000E945213E2CFEA85FB8530E020E040E071
:1028900068E2CE010995EE81FF8130E020E040E062
:1028A00064E1CE01099541E06BE4CE010E94F7128C
:1028B000E881F981448169E2CE010E94F71240E08B
:1028C0006BE4CE010E94F712E881F981448169E24C
:1028D000CE010E94F71241E06BE4CE010E94F71294
:1028E000E881F981458169E2CE010E94F71260E139
:1028F00074E09DCF85E494E0998388831C8AA5CFFA
:1029000041E06DE40C94F712DC01ED91FC914585FA
:102910006DE20C94F712CF93DF93EC0141E06CE48D
:102920000E94F712CE01DF91CF910C948414CF93C3
:10293000DF93EC01662379F00E948014CE010E949F
:102940008414CE010E948B1440E06CE4CE01DF9130
:10295000CF910C94F71240E06DE40E94F712EECF95
:102960001F93CF93DF93EC01162F60780E9497148A
:10297000612F6074CE010E949714612F6072CE01A6
:102980000E949714612F6071CE010E949714612FED
:102990006870CE010E949714612F6470CE010E946E
:1029A0009714612F6270CE010E949714612F61709D
:1029B000CE010E949714CE010E948014CE010E9485
:1029C0008414CE010E948B14CE010E948014CE018B
:1029D0000E94841440E06CE4CE01DF91CF911F91FE
:1029E0000C94F712DC011896ED91FC9130E020E098
:1029F00040E069E10994DC011896ED91FC9130E02A
:102A000020E040E068E10994CF93DF931F92CDB7B7
:102A1000DEB76983BE016F5F7F4F0E948A110F90FE
:102A2000DF91CF910895EF92FF921F93CF93DF93A1
:102A3000EC01162F7A010E94FB1460E4CE010E9483
:102A40000415E885F9859701412F67E1CE010995C5
:102A5000CE01DF91CF911F91FF90EF900C94F21473
:102A6000EF92FF921F93CF93DF93EC01142F790124
:102A7000663181F138F4643109F44BC0653179F085
:102A800080E022C06831C9F150F16931C9F7809105
:102A9000C005882391F1CE010E94F2142EC08091CE
:102AA000C005882319F0CE010E94F214CE010E94C5
:102AB000FB1460E0CE010E940415612FCE010E943C
:102AC000041581E08093C005DF91CF911F91FF90A5
:102AD000EF900895642F0E94041581E0F5CF809156
:102AE000C005882319F0CE010E94F214A701193104
:102AF00038F4612FCE010E9413151092C005EDCF5E
:102B000068E1CE010E941315185188E1E80EF11C0E
:102B1000EDCF8E898F3F11F488E78E8BE885F9859C
:102B20009701412F64E1CE01DF91CF911F91FF907A
:102B3000EF900994662329F06A3019F0862F90E00F
:102B400008958FEF9FEF0895CF93DF93EC01A8894D
:102B5000B989FD01349131969491319684911396FF
:102B6000FD01A4916317A8F1961798F1631B770BE9
:102B70008A9FE02D1124E69FC001E79F900D11244C
:102B8000280F392F311D83E0220F331F8A95E1F77B
:102B9000C9010496DA01245F3F4FE889F989E80FFB
:102BA000F91FE491ED93019682179307B1F78D8990
:102BB000882361F0FA019A01285F3F4F8191DF017C
:102BC000119780958C932E173F07C1F7DF91CF9116
:102BD0000895FA01CA0108961192E817F907E1F77A
:102BE000E6CF4F925F926F927F928F929F92AF92B9
:102BF000BF92CF92DF92EF92FF920F931F93CF93EA
:102C0000DF93CDB7DEB72D970FB6F894DEBF0FBEBA
:102C1000CDBF7C01C62ED42EB22EDC0150968D91F4
:102C20009C91FC013296149131960491512E560ECE
:102C3000040F81E0860F581608F411E0712CFE0194
:102C400031964F0144244394672CAC2C262DA401CB
:102C50006B2DC7010E94A415AC86DD864B869A8633
:102C60008986D7011496ED91FC919E01275F3F4F15
:102C700041E06FE0C70109956394A394A51430F374
:102C8000D394710ED01600F32D960FB6F894DEBFD4
:102C90000FBECDBFDF91CF911F910F91FF90EF90AD
:102CA000DF90CF90BF90AF909F908F907F906F906C
:102CB0005F904F900895CF92DF92EF92FF920F9323
:102CC0001F93CF93DF938C01D62EC42EDC01509638
:102CD000ED91FC913296C491FC01108E7901D0E007
:102CE000D7016D917D01D8011296ED91FC91C8013B
:102CF00009958F3F980769F08E3FEFEF9E0781F3AC
:102D0000282F4C2D6D2DC8010E94F115DC0EDF5FC0
:102D1000E7CF8D2FDF91CF911F910F91FF90EF9013
:102D2000DF90CF900895EAE9F5E1DC011396FC937A
:102D3000EE9312970C945B16EF92FF921F93CF9332
:102D4000DF93EC01142F7901683151F130F46431D3
:102D5000D1F06731A9F080E006C0693109F443C0C1
:102D60006032C9F781E0DF91CF911F91FF90EF9022
:102D70000895F70161917F01CE010E94B0141150B6
:102D80001111F7CFEFCF41E06CE40E94F71241E060
:102D90006DE4CE010E94F712CE010E948414E2CFAE
:102DA0008F89882349F0CE010E948014CE010E94B1
:102DB0008414CE010E948B14CE010E94801440E046
:102DC0006DE4CE010E94F712CE010E94841440E00F
:102DD0006CE4CE010E94F71281E08F8B6E89CE01E8
:102DE0000E94B014BFCF40E06DE40E94F712CE0104
:102DF0000E948414CE010E948B14CE010E94801484
:102E0000CE010E9484141F8AADCF0F931F93CF93DE
:102E1000DF938C01C62F642FCC32E8F4CA3208F05D
:102E200041C0C83271F1C93209F442C080E0C034F7
:102E3000D0F1CF73F801EC0FF11D868D8F3F91F12A
:102E4000C031E0F00E94BB1121E0892B09F420E0A1
:102E5000F801218F27C0CD3289F140F384EB8C0F2C
:102E6000823020F7CF73C00FD12FD11D8E8D41112D
:102E70002EC061E00E94121260E08E8D0E94E4116B
:102E800011C0025E1F4FD0E0F80181918F018F3F8A
:102E900031F061E0D03108F062E00E941212DF5F91
:102EA000D63191F781E0DF91CF911F910F91089575
:102EB00070E090E080E00E947312F4CF85E090E033
:102EC000433010F082E090E00E944312EBCF62E0CA
:102ED0000E941212E7CF1F93CF93DF93EC01EC898E
:102EE000FD8949AD6A3059F43396E491E40FE9AFB6
:102EF00018AE81E090E0DF91CF911F910895262FC9
:102F00003296149168AD04960E94F115E8ADE10F78
:102F1000E8AFEFCF60E08DE00E94E41160E08CE06C
:102F20000C94E411789415B888B1807F88B98CE14D
:102F30008BB914B887B1807C87B91AB81BB861E027
:102F40008DE00E94121261E08CE00E94121260E09B
:102F50008DE00E94E41160E08CE00C94E41182307A
:102F6000910551F061E0039741F08DE00E94E4117A
:102F700060E08CE00C94E41160E08DE00E94E411CC
:102F800061E0F7CFCF92DF92EF92FF920F931F9302
:102F9000CF93DF937C01062F10E0D0E0C0E0680102
:102FA00081E0C81AD108C017D107B1F0C7010E944B
:102FB000AF1764EF71E080E090E00E9473120E940E
:102FC0008A17CC15DD0534F464EF71E080E090E001
:102FD0000E9473122196E7CFDF91CF911F910F913D
:102FE000FF90EF90DF90CF9008950E94921781E0BC
:102FF00090E00E94AF1768EC70E080E090E00E94E3
:1030000073120E948A1768EC70E080E090E00E94E2
:103010007312EDCF2FEF34E044E060E080E496E0FF
:103020000E9493168091D4039091D50347E2489F64
:103030009001499F300D112420503E4F46E060E042
:1030400080E496E00E94931629E035E042E060E0DB
:1030500080E496E00C9493160F931F93CF93C82FA0
:10306000162F83EE93E00197F1F761E08C2F0E9419
:10307000121261E0812F0E94121261E08C2F0E94D7
:10308000E41161E0812F0E94E41108E010E060E0AB
:103090008C2F0E94E41161E08C2F0E94E4110150FA
:1030A0001109A9F7CF911F910F91089590917C007C
:1030B000907F892B80937C0080917A00806480933C
:1030C0007A0080917A0086FDFCCF80917800909103
:1030D00079000895E0E0F1E08191DF01119780959A
:1030E0008F708C9382E0E030F807B1F70895CF92AB
:1030F000DF92EF92FF920F931F93CF93DF936C01B8
:10310000EB017B01E40EF51E10E000E0CE15DF05BB
:1031100061F06991D601ED91FC910190F081E02D73
:10312000C6010995080F191FF1CFC801DF91CF9192
:103130001F910F91FF90EF90DF90CF900895089529
:1031400090E080E008950F931F93299A05B10F7EB8
:1031500018B11F7E90FD006191FD106105B918B98D
:103160008BB929981F910F9108958FE385B980E855
:1031700088B91BB88FE184B987B98FEF8AB90895F0
:10318000299A000000008F778BB900000000299871
:1031900008952B9AFC01EE0FFF1FE859F94F249177
:1031A00031964491319755B15A7E522B55B938B169
:1031B0003F7E80FB34F938B95BB15871542B5BB951
:1031C0002B9808950F931F93449A05B10B7E182FE7
:1031D0001170110F110F012B182F1270110F110FF9
:1031E000110F012B05B90027182F14701295110F1C
:1031F000012B182F187012951695012B182F107887
:1032000016951695012B182F107212951F70012B11
:10321000182F1074129516951695012B182F1071F2
:1032200016951695012B0BB944981F910F9108958F
:1032300084B1867F84B987B1857F87B985B189607C
:1032400085B988B18A6088B9089584B1896084B9E4
:1032500087B18A6087B90895299A25B1AC0156953E
:1032600047952A7E382F3071232B342F3470232B2F
:1032700086FB332730F9232B25B938B1282F229527
:1032800020719170292B387E232B28B9982F990F04
:10329000990F90784074942B282F2270922B82FBE8
:1032A000882780F9892B8BB929980895FC018081A2
:1032B0009181009711F00C94983A0895EF92FF9243
:1032C0000F931F93CF93DF93EC017B018A018881D9
:1032D0009981009729F02A813B812417350788F4CA
:1032E000B8016F5F7F4F0E94213B009791F0998357
:1032F00088831B830A832C813D81232B11F4FC01DD
:1033000010821D830C83B701888199810E94E73B5D
:103310000CC088819981009711F00E94983A198217
:1033200018821D821C821B821A82CE01DF91CF91EE
:103330001F910F91FF90EF900895EF92FF920F93DE
:103340001F93CF93DF93CDB7DEB729970FB6F894CD
:10335000DEBF0FBECDBF8C01862FF8011182108217
:1033600013821282158214824AE09E012F5F3F4F22
:103370007901B90190E00E946C38F70101900020BA
:10338000E9F73197AF014E195F09B701C8010E94F3
:103390005E1929960FB6F894DEBF0FBECDBFDF9140
:1033A000CF911F910F91FF90EF9008951F93CF93AE
:1033B000DF9385ED8093BC008091C4059091C50595
:1033C000A091C605B091C7050796A11DB11D23E0C8
:1033D000B695A795979587952A95D1F72091BC002A
:1033E00024FD03C010920C0652C04091C4055091B8
:1033F000C5056091C6057091C705452B462B472B27
:1034000069F30097A105B10541F02AE22A95F1F789
:1034100000C00197A109B109E1CF8091C305C1E0C6
:10342000C093C205882399F1D091B8001091BA00D9
:103430008091BC008A7B8093BC0060E082E10E94A6
:10344000E41160E083E10E94E41110920C06C09345
:103450000E0610920D0661E082E10E94E41161E027
:1034600083E10E94E4118091B9008E7F8093B900BE
:103470008091B9008D7F8093B90088E48093B80073
:1034800085E48093BC001093BA00D093B800DF911C
:10349000CF911F910895FF920F931F93CF93DF93C6
:1034A000CDB7DEB7A0970FB6F894DEBF0FBECDBF85
:1034B000F82EE0914006F09141060089FB01019051
:1034C0000020E9F73197E61BF70B802F90E08E176D
:1034D0009F07B8F08E1B9F0B969587959B014F2DEC
:1034E000682F80E496E00E949316A0960FB6F89499
:1034F000DEBF0FBECDBFDF91CF911F910F91FF9027
:103500000895003208F00FE110E0A801CE01019605
:103510000E94DE3BE1E0F0E0EC0FFD1FE00FF11F49
:1035200010829E012F5F3F4F4F2D60E0DACFCF9387
:10353000DF93CDB7DEB768970FB6F894DEBF0FBE46
:10354000CDBF182F062F80E496E00E94351386E346
:1035500090E29093510680935006043008F048C0E2
:10356000023008F0DDC0013009F46BC082EB97E156
:10357000909351068093500625E135E040E066E0E7
:1035800080E496E00E9493168EEB91E190935106B1
:103590008093500667E175E085E00E944B1A0E9417
:1035A0009217043008F0E1C0FF24F394F10E0230CA
:1035B00008F00BC1013009F0F5C00FEF010F61E019
:1035C00081E090E00E94C2176CE271E080E090E040
:1035D0000E947312043128F4612F83E090E00E946E
:1035E000C2176CED75E080E090E00E947312E7CFA7
:1035F000043009F0BBCF82EB97E1909351068093A2
:10360000500627E635E040E066E080E496E00E9460
:1036100093168EEB91E1909351068093500629E624
:1036200035E045E062E080E496E00E949316612F69
:10363000CE0101960E949D1929813A8145E06EE0F4
:1036400026C025E235E040E066E080E496E00E9496
:1036500093168EEB91E190935106809350061031B2
:10366000E8F467E275E084E00E944B1A23E335E05A
:1036700046E064E080E496E00E949316612FCE015C
:1036800001960E949D1929813A8146E06AE080E412
:1036900096E00E949316CE0101963BC01132E0F5F0
:1036A0006AE375E084E00E944B1A23E335E046E0CC
:1036B00064E080E496E00E9493161C8A1B8A1E8AAE
:1036C0001D8A188E1F8A812F90E04AE09E012F5F8D
:1036D0003F4F7901B90124E0969587952A95E1F746
:1036E0000E946138F70101900020E9F73197AF019E
:1036F0004E195F09B701CE0143960E945E192B89CE
:103700003C8946E06AE080E496E00E949316CE0190
:1037100043960E94561943CF66E475E086E03DCF9C
:1037200025E235E040E066E080E496E00E949316F2
:103730008EEB91E1909351068093500662E575E01F
:1037400084E00E944B1A2EE535E046E063E080E419
:1037500096E00E949316612FCE0101960E949D195A
:1037600029813A8146E06BE092CF0430D9F40FEF23
:10377000010F63E081E090E00E94C2176CE271E00B
:1037800080E090E00E947312043128F4612F83E0FE
:1037900090E00E94C2176CED75E080E090E00E941E
:1037A0007312E7CF81E090E00E94AF1768EE73E0FC
:1037B00080E090E00E9473120E948A1768EE73E026
:1037C00080E090E00E947312EDCF62E081E090E033
:1037D0000E94C2176CE271E080E090E00E947312D8
:1037E00067E0033021F06F2D153008F066E083E0CC
:1037F00090E00E94C2176CED75E080E090E00E94BE
:103800007312E3CFEF92FF920F931F93CF93DF9347
:10381000EC01FA01DB0170E060E0EE24E394F12CAE
:10382000A701062E01C0440F0A94EAF789919991E5
:103830009C012E5F31092230310568F023B130E060
:10384000042F042E000C110B20233123232B19F4F9
:1038500064E00E94971A8D919D919C012E5F310921
:103860002230310550F026B130E0042F042E000C38
:10387000110B20233123232B59F301911191C801FE
:103880008E5F9109029768F099B1292F30E0042EDC
:10389000000C550B24233523232B19F464E0802FCF
:1038A000D8CF6F5F7F4F6830710509F0B9CFDF91D6
:1038B000CF911F910F91FF90EF9008950F931F9359
:1038C000CF93DF93082FC62FD42FE62FF0E0E351DC
:1038D000FB4F10810E94C018F894C43008F43CC01B
:1038E00080E1089F8001112470E060E0603871057C
:1038F00009F44EC06BB900000000000028980000D9
:10390000000000000000A801460F571FFA01F695BD
:10391000E795F695E795FF27E050FF4F208143702C
:1039200055274230510509F43EC04330510509F492
:103930003CC04130510509F434C0247036B16F5F8A
:103940007F4F41E0211101C040E03170431312C0AC
:10395000289A00000000CACF80E08BB90000000068
:1039600000002898000000000000000096B1912798
:1039700090FF06C078946D2F81E08C0F0E94971AFB
:10398000289A00000000110F111D8F5F803829F761
:103990007894299A00000000DF91CF911F910F9138
:1039A00008952695CACF220FC8CF84E0289F9001A2
:1039B0001124C3CFDF92EF92FF920F931F93CF9307
:1039C000DF93EC01162FF42ED22EE02E0E94181950
:1039D000EF2DF0E0E351FB4F60814098F89483E0D5
:1039E0008F1508F45BC081E001C0880FDA94EAF714
:1039F00090E050E040E06F704C175D0709F4BAC0EA
:103A000005B10B7E192F1170110F110F012B192FFA
:103A10001270110F110F110F012B05B90027192F6B
:103A200014701295110F012B192F187012951695FD
:103A3000012B192F107816951695012B192F10723E
:103A400012951F70012B192F10741295169516954B
:103A5000012B192F107116951695012B0BB9429851
:103A60000000429A06B113B12227302F32703695EA
:103A7000230F312F387036953695230F312F317043
:103A8000330F330F230F0870200F722F980F671713
:103A900009F46DC06E2D8F2D0E94971A612F70E072
:103AA000CB0124E0969587952A95E1F7680F791F59
:103AB00041E001C0440FDA94EAF750E0B0E0A0E042
:103AC000AC17BD0709F456C005B10B7E152F117058
:103AD000110F110F012B152F1270110F110F110F54
:103AE000012B05B90027152F14701295110F012B0A
:103AF000152F187012951695012B152F1078169505
:103B00001695012B152F107212951F70012B152F72
:103B10001074129516951695012B152F1071169588
:103B20001695012B0BB94298429A06B113B1222780
:103B3000302F32703695230F312F387036953695E9
:103B4000230F312F3170330F330F230F0870200FE5
:103B5000D22E540FCD01862797278927E82FF0E032
:103B6000E050FF4F80818D1195CF1196A9CF4F5F07
:103B70005F4F42CF7894409A449ADF91CF911F9142
:103B80000F91FF90EF90DF9008955F926F927F9278
:103B90008F929F92AF92BF92CF92DF92EF92FF925D
:103BA0000F931F93CF93DF934091D4035091D5038C
:103BB00087E2849FF001859FF00D1124E050FE4FB5
:103BC000C189D289838994899E0121503109612C50
:103BD0002115310521F0639436952795F9CF01978A
:103BE000912C009721F0939496958795FACF88248D
:103BF0008394E2E07E2E4330510511F0812C712C2C
:103C0000D695C7950E9425192998F12CE12C65E0DD
:103C1000B62ECC24C3947AE0D72EE61408F0A5C0C3
:103C200080E00E94E21805B1067F1B2D1270110F73
:103C3000110F012B1B2D147016951695012B05B92C
:103C400048B1457F1B2D1170110F412B1B2D187092
:103C5000412B48B905B10B7E172D1170110F110FB3
:103C6000012B172D1270110F110F110F012B05B918
:103C70000027172D14701295110F012B172D187096
:103C800012951695012B172D107816951695012B68
:103C9000172D107212951F70012B172D107412958D
:103CA00016951695012B172D107116951695012B4B
:103CB0000BB942980000429A449A00008C2D0E2CB9
:103CC00001C0880F0A94EAF70E94E21805B1067F46
:103CD0001D2D1270110F110F012B1D2D1470169533
:103CE0001695012B05B948B1457F1D2D1170110F97
:103CF000412B1D2D1870412B48B905B10B7E172D96
:103D00001170110F110F012B172D1270110F110FC0
:103D1000110F012B05B90027172D14701295110FE3
:103D2000012B172D187012951695012B172D107851
:103D300016951695012B172D107212951F70012BD9
:103D4000172D1074129516951695012B172D1071BD
:103D500016951695012B0BB942980000429A449A89
:103D600000008FEFE81AF80A58CF299A0E94181914
:103D70004098F12CE12CCC24C394D12C5E2CE61479
:103D800008F0ADC056010E2C01C0AA0C0A94EAF747
:103D900080E00E94E21805B10B7E172D1170110F03
:103DA000110F012B172D1270110F110F110F012B75
:103DB00005B90027172D14701295110F012B172D1F
:103DC000187012951695012B172D107816951695CB
:103DD000012B172D107212951F70012B172D1074C7
:103DE000129516951695012B172D1071169516958F
:103DF000012B0BB942980000000006B113B1222735
:103E0000302F32703695230F312F38703695369516
:103E1000230F312F3170330F330F230F0870200F12
:103E2000822F429A8F70449A853021F061E08E2D66
:103E30000E94971A8A2D0E94E21805B10B7E172D59
:103E40001170110F110F012B172D1270110F110F7F
:103E5000110F012B05B90027172D14701295110FA2
:103E6000012B172D187012951695012B172D107810
:103E700016951695012B172D107212951F70012B98
:103E8000172D1074129516951695012B172D10717C
:103E900016951695012B0BB942980000000006B14B
:103EA00013B12227302F32703695230F312F3870FF
:103EB00036953695230F312F3170330F330F230F83
:103EC0000870200F822F429A9FEFE91AF90A8F702B
:103ED000449A8A3009F452CF61E0852DA9CF409AE7
:103EE0000E9425192998F12CE12C95E0792EA12C1E
:103EF0002AE0B22ECC24C394D12CE91408F0A9C036
:103F00008C2F0E94E21805B1067F172D1270110F39
:103F1000110F012B172D147016951695012B05B94D
:103F200048B1457F172D1170110F412B172D1870B7
:103F3000412B48B905B10B7E1A2D1170110F110FCD
:103F4000012B1A2D1270110F110F110F012B05B932
:103F500000271A2D14701295110F012B1A2D1870AD
:103F600012951695012B1A2D107816951695012B82
:103F70001A2D107212951F70012B1A2D10741295A4
:103F800016951695012B1A2D107116951695012B65
:103F90000BB942980000429A000005B1067F1B2D24
:103FA0001270110F110F012B1B2D14701695169501
:103FB000012B05B948B1457F1B2D1170110F412B05
:103FC0001B2D1870412B48B9C6010E2C02C0880F5A
:103FD000991F0A94E2F79927082C01C0880F0A94C8
:103FE000EAF705B10B7E182F1170110F110F012B7D
:103FF000182F1270110F110F110F012B05B9002787
:10400000182F14701295110F012B182F187012957C
:104010001695012B182F107816951695012B182F31
:10402000107212951F70012B182F1074129516958F
:104030001695012B182F107116951695012B0BB99B
:1040400042980000429A449A00008FEFE81AF80A5A
:1040500054CF299A0E9418194098D12CC12CAA2417
:10406000A394B12C612C7C2CC91408F0B0C075014C
:104070000C2C02C0EE0CFF1C0A94E2F78C2F0E945D
:10408000E21805B10B7E162D1170110F110F012BC7
:10409000162D1270110F110F110F012B05B90027EA
:1040A000162D14701295110F012B162D18701295E4
:1040B0001695012B162D107816951695012B162D99
:1040C000107212951F70012B162D107412951695F3
:1040D0001695012B162D107116951695012B0BB9FF
:1040E00042980000000006B113B12227302F327031
:1040F0003695230F312F387036953695230F312F93
:104100003170330F330F230F0870200F822F429A24
:104110008F70853029F0449A61E080E1870D88CE68
:104120000000FF24082C01C0EE0C0A94EAF705B148
:104130000B7E1E2D1170110F110F012B1E2D1270F1
:10414000110F110F110F012B05B900271E2D14702F
:104150001295110F012B1E2D187012951695012B1B
:104160001E2D107816951695012B1E2D1072129586
:104170001F70012B1E2D1074129516951695012B8C
:104180001E2D107116951695012B0BB94298000043
:10419000000006B113B12227302F32703695230F5D
:1041A000312F387036953695230F312F3170330FFC
:1041B000330F230F0870200F822F429A9FEFC91AE6
:1041C000D90A8F70449A8A3009F44DCFA5CF409A0E
:1041D000DF91CF911F910F91FF90EF90DF90CF90E3
:1041E000BF90AF909F908F907F906F905F90089559
:1041F000DF92EF92FF920F931F93CF93DF93EC0127
:10420000042FD22EE42FF0E0E351FB4F1081F894FD
:10421000443008F04DC07C018CEFE822EC16FD061E
:1042200008F037C060E0CE0101970E94D52B439A79
:1042300086B1812782FF06C078946D2D81E0800FC2
:104240000E94971A110F111D60E0CE0102970E9483
:10425000D52B439A86B1812782FDEECF110F111D18
:1042600060E0CE0103970E94D52B439A86B1812747
:1042700082FDE2CF110F111D249760E0CE010E9454
:10428000D52B439A86B1812782FDD6CF110F111D00
:10429000C5CF209751F1219760E0CE010E94D52B28
:1042A000439A86B1812782FDC7CF110F111DF1CF2F
:1042B0007B0184E0F694E7948A95E1F7E60EF71E19
:1042C000219760E0CE010E94D52B439A26B1CE0102
:1042D0008E259F258927E82FF0E0E050FF4F808151
:1042E000822782FDA9CF209759F77894299ADF91E8
:1042F000CF911F910F91FF90EF90DF90089580E490
:1043000096E00E9435138EEB91E1909351068093D5
:1043100050068091D4039091D50327E2289FB001E5
:10432000299F700D112460507E4F85E00E944B1A2A
:1043300086E390E2909351068093500628E335E09F
:1043400040E066E080E496E00E9493160E94921797
:10435000C091D403D091D503CC30D105E0F4CC0F7B
:10436000DD1FC052DC4F1991612F82E090E00E9466
:10437000C2176CE271E080E090E00E9473126881E5
:1043800083E090E00E94C21760ED77E080E090E06B
:104390000E947312E9CF82E090E00E94AF1768EEAE
:1043A00073E080E090E00E9473120E948A1768EE2A
:1043B00073E080E090E00E947312EDCF4FE344B9C8
:1043C00032E235B92FE127B995E198B987EE8AB97C
:1043D000A4B0B5B0C7B0D8B0EAB0FBB044B935B9F5
:1043E00027B998B98AB980E00E94E2180E9425197D
:1043F000299885E005B1067F182F1270110F110F53
:10440000012B182F147016951695012B05B948B17C
:10441000457F182F1170110F412B182F1870412B49
:1044200048B9C0E005B10B7E1C2F1170110F110FA0
:10443000012B1C2F1270110F110F110F012B05B939
:1044400000271C2F14701295110F012B1C2F1870B0
:1044500012951695012B1C2F107816951695012B89
:104460001C2F107212951F70012B1C2F10741295A7
:1044700016951695012B1C2F107116951695012B6C
:104480000BB942980000429A299A449A0E9418193E
:10449000409880E00E94E21805B10B7E1C2F11703D
:1044A000110F110F012B1C2F1270110F110F110F73
:1044B000012B05B900271C2F14701295110F012B29
:1044C0001C2F187012951695012B1C2F107816951D
:1044D0001695012B1C2F107212951F70012B1C2F8B
:1044E0001074129516951695012B1C2F10711695A8
:1044F0001695012B0BB942980000000006B113B1CC
:104500002227302F32703695230F312F3870369591
:104510003695230F312F3170330F330F230F08706F
:10452000200FD22F429A409A449AA4B8B5B8C7B87F
:10453000D8B8EAB8FBB8DF70D53009F0A1C080E088
:104540000E94E2180E942519299805B1067F1D2FA7
:104550001270110F110F012B1D2F14701695169547
:10456000012B05B948B1457F1D2F1170110F412B4B
:104570001D2F1870412B48B905B10B7E1C2F1170EF
:10458000110F110F012B1C2F1270110F110F110F92
:10459000012B05B900271C2F14701295110F012B48
:1045A0001C2F187012951695012B1C2F107816953C
:1045B0001695012B1C2F107212951F70012B1C2FAA
:1045C0001074129516951695012B1C2F10711695C7
:1045D0001695012B0BB942980000429A299A449AE9
:1045E0000E941819409880E00E94E21805B10B7EE5
:1045F0001C2F1170110F110F012B1C2F1270110F96
:10460000110F110F012B05B900271C2F14701295E3
:10461000110F012B1C2F187012951695012B1C2FB2
:10462000107816951695012B1C2F107212951F707D
:10463000012B1C2F1074129516951695012B1C2F0B
:10464000107116951695012B0BB9429800000000C9
:1046500006B113B12227302F32703695230F312F38
:10466000387036953695230F312F3170330F330F55
:10467000230F0870200F822F8F708F3009F02EC10A
:104680008FEF9FEF9093D5038093D4038091D40351
:104690009091D503019609F0F2C004B115B1D7B1DC
:1046A000C8B1BAB1ABB184B1807E8D6184B987B134
:1046B000807E876187B98AB1876E8AB92B9A429AC0
:1046C000419A90E080E068E676E0FB012491319623
:1046D0004491319755B15A7E522B55B938B13F7E2E
:1046E00080FB34F938B95BB15871542B5BB92B9806
:1046F0004098419842980000429A419A2B9A2491FE
:1047000031964491319755B15A7E522B55B938B1F3
:104710003F7E80FB34F938B95BB15871542B5BB9DB
:104720002B9842980000000026B1429A2B9A04B9B7
:1047300015B9D7B9C8B9BAB9ABB923FD99C024B175
:10474000207E2D6124B927B1207E276127B92AB1A7
:10475000276E2AB92B9A429A419A24913196449114
:10476000319755B15A7E522B55B938B13F7E80FBF7
:1047700034F938B95BB15871542B5BB92B98409818
:10478000419842980000429A419A2B9A249131967E
:104790004491319755B15A7E522B55B938B13F7E6D
:1047A00080FB34F938B95BB15871542B5BB92B9845
:1047B000429800000000C6B1429A2B9AA1E0B0E0F6
:1047C000EAE6F6E0249131964491319755B15A7E4C
:1047D000522B55B938B13F7EA0FB34F938B95BB1E3
:1047E0005871542B5BB92B98409A4198429800001D
:1047F000429A419A2B9A249131964491319755B11E
:104800005A7E522B55B938B13F7EA0FB34F938B9E6
:104810005BB15871542B5BB92B9842980000000093
:10482000A6B1429A2B9AFB0124913196449131977B
:1048300055B15A7E522B55B938B13F7E80FB34F9C1
:1048400038B95BB15871542B5BB92B984298000072
:10485000000086B1429A2B9AC3FDD1C1A3FFCFC1FC
:1048600083FDCDC189E090E09093D5038093D4037C
:104870008091D4039091D503019609F4C0C10E94A0
:104880000A188091D4039091D503099709F093C435
:1048900084B1807E8D6184B987B1807E876187B95C
:1048A0008AB1876E8AB98091D4039091D50327E2AB
:1048B000289FF001299FF00D1124E050FE4F8389BD
:1048C00094892189328921503109E12C2115310542
:1048D00009F499C1E39436952795F8CF429A409A06
:1048E00080E00E94E2180E942519299805B1067FF0
:1048F0001C2F1270110F110F012B1C2F1470169505
:104900001695012B05B948B1457F1C2F1170110F69
:10491000412B1C2F1870412B48B905B10B7E1C2F61
:104920001170110F110F012B1C2F1270110F110F8D
:10493000110F012B05B900271C2F14701295110FB0
:10494000012B1C2F187012951695012B1C2F107817
:1049500016951695012B1C2F107212951F70012BA6
:104960001C2F1074129516951695012B1C2F107183
:1049700016951695012B0BB942980000429ADFE07C
:1049800005B1067F1D2F1270110F110F012B1D2F66
:10499000147016951695012B05B948B1457F1D2F4A
:1049A0001170110F412B1D2F1870412B48B981E058
:1049B00005B10B7E182F1170110F110F012B182F3D
:1049C0001270110F110F110F012B05B90027182FAD
:1049D00014701295110F012B182F1870129516953F
:1049E000012B182F107816951695012B182F107281
:1049F00012951F70012B182F10741295169516958D
:104A0000012B182F107116951695012B0BB9429892
:104A10000000429A05B10B7E1C2F1170110F110F6F
:104A2000012B1C2F1270110F110F110F012B05B943
:104A300000271C2F14701295110F012B1C2F1870BA
:104A400012951695012B1C2F107816951695012B93
:104A50001C2F107212951F70012B1C2F10741295B1
:104A600016951695012B1C2F107116951695012B76
:104A70000BB9299A0E94181940984298000000002A
:104A800006B113B12227302F32703695230F312F04
:104A9000387036953695230F312F3170330F330F21
:104AA000230F0870200FC22F429A409ACF7041F016
:104AB00083E090E09093D5038093D403449AE6CDAD
:104AC0000E942519299805B1067F1D2F1270110F1C
:104AD000110F012B1D2F147016951695012B05B97A
:104AE00048B1457F1D2F1170110F412B1D2F1870DC
:104AF000412B48B980E805B10B7E182F1170110FBA
:104B0000110F012B182F1270110F110F110F012B04
:104B100005B90027182F14701295110F012B182FAB
:104B2000187012951695012B182F1078169516955A
:104B3000012B182F107212951F70012B182F107453
:104B4000129516951695012B182F1071169516951E
:104B5000012B0BB942980000429A05B10B7E1C2F25
:104B60001170110F110F012B1C2F1270110F110F4B
:104B7000110F012B05B900271C2F14701295110F6E
:104B8000012B1C2F187012951695012B1C2F1078D5
:104B900016951695012B1C2F107212951F70012B64
:104BA0001C2F1074129516951695012B1C2F107141
:104BB00016951695012B0BB9299A0E941819409841
:104BC00042980000000006B113B12227302F327046
:104BD0003695230F312F387036953695230F312FA8
:104BE0003170330F330F230F0870200F822F429A3A
:104BF000409A8F7009F05CCF84E090E05BCF60E07A
:104C000080E00E94971A0197F12C009721F0F3940D
:104C100096958795FACFB0E0A0E0AA24A394B12C92
:104C200070E060E0C8E6D6E052E0852E912C8A2F35
:104C3000AE1508F0C1C065010A2E02C0CC0CDD1C07
:104C40000A94E2F7FE01249131964491319755B1CF
:104C50005A7E522B55B938B13F7E60FB34F938B9D2
:104C60005BB15871542B5BB92B98409824913196C5
:104C70004491319755B15A7E522B55B938B13F7E88
:104C800060FB34F938B95BB15871542B5BB941986A
:104C900042980000429A419A2B9A84010A2E02C03F
:104CA000000F111F0A94E2F70859194FF8012491D7
:104CB00031964491319755B15A7E522B55B938B13E
:104CC0003F7EC0FA34F938B95BB15871542B5BB9E7
:104CD0002B98409AFE01249131964491319755B119
:104CE0005A7E522B55B938B13F7E60FB34F938B942
:104CF0005BB15871542B5BB9419842980000429ABD
:104D0000419A2B9A249131964491319755B15A7E0C
:104D1000522B55B938B13F7E60FB34F938B95BB1DD
:104D20005871542B5BB92B9824913196449131974B
:104D300055B15A7E522B55B938B13F7E60FB34F9DC
:104D400038B95BB15871542B5BB942980000000030
:104D5000339B02C061E055CF429A2B9AF80124910F
:104D600031964491319755B15A7E522B55B938B18D
:104D70003F7EC0FA34F938B95BB15871542B5BB936
:104D80002B98FE01249131964491319755B15A7E6A
:104D9000522B55B938B13F7E60FB34F938B95BB15D
:104DA0005871542B5BB94298000000001196339B58
:104DB000D1CF429A2B9A3BCF70E060E0AA24A39413
:104DC000B12CB0E0A0E0C8E6D6E032E0832E912C12
:104DD000862F6F1508F44DC08DEEE82E84E0F82E76
:104DE000512C97E2492E08E6C02E06E0D02ED0E0E6
:104DF000C0E02B9AF601249131964491319755B138
:104E00005A7E522B55B938B13F7EC0FB34F938B9C0
:104E10005BB15871542B5BB92B984198D7018C9199
:104E2000F894B1E0B51508F4E2C083FFC6C0409A1B
:104E3000E8E6F6E070E060E0249131964491319725
:104E400055B15A7E522B55B938B13F7E60FB34F9CB
:104E500038B95BB15871542B5BB94298429A419A68
:104E60004298429A96B1982793FFA9C062E0852D97
:104E7000C8CE6501062E02C0CC0CDD1C0A94E2F7F8
:104E8000FE01249131964491319755B15A7E522BAF
:104E900055B938B13F7EA0FB34F938B95BB15871D0
:104EA000542B5BB92B9840982491319644913197BB
:104EB00055B15A7E522B55B938B13F7EA0FB34F91B
:104EC00038B95BB15871542B5BB9419842980000D6
:104ED000429A409A8401062E02C0000F111F0A94C4
:104EE000E2F70859194FF80124913196449131970E
:104EF00055B15A7E522B55B938B13F7EC0FA34F9BC
:104F000038B95BB15871542B5BB941984298000095
:104F1000429A419A2B9AFE012491319644913197FD
:104F200055B15A7E522B55B938B13F7EA0FB34F9AA
:104F300038B95BB15871542B5BB92B9824913196D9
:104F40004491319755B15A7E522B55B938B13F7EB5
:104F5000A0FB34F938B95BB15871542B5BB9429856
:104F600000000000339B03C061E0805F4ACE429A9C
:104F7000F801249131964491319755B15A7E522BC4
:104F800055B938B13F7EC0FA34F938B95BB15871C0
:104F9000542B5BB94298000000006F5F7F4F339B3A
:104FA000E3CF429A2B9A14CFF5E05F1202C00E9421
:104FB0006A182FEFE21AF20A16CF409839CF4198BB
:104FC0006F5F7F4F3296611524E0720709F034CF8E
:104FD0002196F2E0CF0ED11CC11524E0D20709F0D2
:104FE00008CF539436E05312DFCF0E947F2133E085
:104FF000351508F432C0E8E6F6E070E060E083FFC3
:105000002AC0409A249131964491319755B15A7EE5
:10501000522B55B938B13F7E60FB34F938B95BB1DA
:105020005871542B5BB94298880F811D429A6F5F6B
:105030007F4F3296611594E0790709F77894419A89
:105040002B9AE3E0E51508F43EC042E0652DCE0161
:105050000E94772CBDCF4098D5CFDE0114E0B695E5
:10506000A7951A95E1F78D010C0F1D1FE8E6F6E0F4
:1050700070E060E0C80186279727892790E080507C
:105080009F4FDC018C9183FF1CC0409A2491319684
:105090004491319755B15A7E522B55B938B13F7E64
:1050A00060FB34F938B95BB15871542B5BB9429845
:1050B000429A6F5F7F4F32966115B4E07B07D1F65D
:1050C000BDCF4098E3CFCE010E94C9182B9A8091A2
:1050D000D4039091D503489E9001499E300D112430
:1050E000D901A050BE4F51968D919C915297019736
:1050F0008C179D07C1F550963C9010E000E03E01F2
:105100006318710837FC7394832D801B87FD60CF73
:1051100043E0652DC301800F911F0E94772C809181
:10512000D4039091D503489E5001499EB00C1124A0
:10513000950120503E4F4901D90195968D919C9142
:105140000E944312D4015096EC91F0E0EE0FFF1F45
:10515000EA0DFB1DE050FE4F818D928D0E9443129F
:105160000F5F1F4FD1CF50968C9190E0FE01C81772
:10517000D907B0F043E0652DE81BF90BCF010E9481
:10518000772C8091D4039091D503489E9001499E3D
:10519000300D1124F901E050FE4F8089E82FF0E036
:1051A000EE0FFF1FE20FF31FE050FE4F818D928D37
:1051B0000E9443120DCF8FE384B982E285B90E9429
:1051C000C51D5DEEA52E54E0B52EC0E067E2662E4B
:1051D00055245394F12CE12C8091D4039091D50364
:1051E000689EF001699EF00D1124E050FE4F218968
:1051F0003289E216F30608F067C1C388D488DE2D31
:1052000077247394039709F0712C8D2F0E94E21874
:1052100029980E942519D5018C9105B1067F182F78
:105220001270110F110F012B182F1470169516956F
:10523000012B05B948B1457F182F1170110F412B73
:10524000182F1870412B48B9F894C43008F044C0A6
:10525000452D072C01C0440F0A94EAF780E030E0A6
:1052600020E0982F940FC216D30609F4A3C0429AE7
:1052700005B10B7E182F1170110F110F012B182F74
:105280001270110F110F110F012B05B90027182FE4
:1052900014701295110F012B182F18701295169576
:1052A000012B182F107816951695012B182F1072B8
:1052B00012951F70012B182F1074129516951695C4
:1052C000012B182F107116951695012B0BB94298CA
:1052D0002F5F3F4F892FC5CF970144E03695279523
:1052E0004A95E1F72F7033272E0D311DB52D072C70
:1052F00001C0BB0F0A94EAF750E070E060E0A52F10
:10530000AB0FC616D70609F455C0429ACB018227C7
:1053100093278927E82FF0E0E050FF4F808105B107
:10532000067F182F1270110F110F012B182F1470F8
:1053300016951695012B05B948B1457F182F1170A8
:10534000110F412B182F1870412B48B905B10B7E56
:10535000152F1170110F110F012B152F1270110F36
:10536000110F110F012B05B90027152F147012957D
:10537000110F012B152F187012951695012B152F53
:10538000107816951695012B152F107212951F7017
:10539000012B152F1074129516951695012B152FAC
:1053A000107116951695012B0BB942986F5F7F4FC0
:1053B0005A2FA5CF7894299A429AC43058F402E023
:1053C000272D4C2F6D2FC6010E94DA1CBFEFEB1A60
:1053D000FB0A02CF8D2F0E94E2180000449A470179
:1053E00099248091D4039091D503689E8001699E91
:1053F000100D112400501E4FF801818992890197E8
:105400008816990689F5408847FCE0CF1D2F1419AE
:10541000812F0E94E21803E0272D4C2F612FC60137
:105420000E94DA1C8091D4039091D503689E4001BC
:10543000699E900C1124840100501E4FD80195964E
:105440008D919C910E944312D8015096EC91F0E00E
:10545000EE0FFF1FE80DF91DE050FE4F818D928D7C
:105460000E9443124A94D0CF8089D81780F0FD2F34
:10547000F81B8F2F0E94E218D80150968C916D2F47
:10548000681B03E0272D4C2FC6010E94DA1C809177
:10549000D4039091D503689E9001699E300D11242C
:1054A000F901E050FE4F8089F401D81710F0E82F81
:1054B000F0E0EE0FFF1FE20FF31FE050FE4F818D73
:1054C000928D0E94431282CFCF5FC63009F48DCDFA
:1054D000C53011F40E946A188FEFA81AB80A7ACE64
:1054E0001F920F920FB60F9211242F933F938F9319
:1054F0009F93AF93BF938091340690913506A0910E
:105500003606B09137063091330623E0230F2D374E
:1055100058F50196A11DB11D2093330680933406E2
:1055200090933506A0933606B093370680913806DF
:1055300090913906A0913A06B0913B060196A11DC3
:10554000B11D8093380690933906A0933A06B09324
:105550003B06BF91AF919F918F913F912F910F90FB
:105560000FBE0F901F90189526E8230F0296A11DDD
:10557000B11DD2CF1F920F920FB60F9211242F930D
:105580003F934F935F936F937F938F939F93AF93CB
:10559000BF93EF93FF938091B900887F803609F421
:1055A0004AC0F0F5883209F4A5C018F5803109F435
:1055B00099C0B8F4882309F4F5C0883009F492C082
:1055C000FF91EF91BF91AF919F918F917F916F91DB
:1055D0005F914F913F912F910F900FBE0F901F90B1
:1055E0001895883109F486C0803251F780930B06F4
:1055F00014C0803409F49BC040F48033B9F388337D
:10560000F9F680930B0685ECAEC0803509F483C0B3
:10561000883509F494C0883499F60E94D619D0CF01
:10562000883909F48AC038F5883729F050F488366B
:1056300011F0803729F683E080930C0610920A0659
:1056400055C0883809F479C0803919F0803809F0DC
:10565000B7CF80910A06803208F06FC0E0910A0649
:1056600081E08E0F80930A068091BB00F0E0E65146
:10567000FA4F80833BC0803B39F0D0F4803A09F484
:1056800077C0883A09F09CCF84E080930C06109292
:10569000E9051092E805F0E0E0E009958091E80561
:1056A00081110FC081E08093E8051092C80509C000
:1056B000803C09F4A8CF883C09F4A5CF883B09F0C9
:1056C0007FCFE091E90581E08E0F8093E905F0E05E
:1056D000E853FA4F80818093BB009091E905809157
:1056E000E80529C0809131068093BB0085EC80934A
:1056F000BC0066CF9091300680912F06981758F520
:10570000E091300681E08E0F80933006F0E0E15F9B
:10571000F94F8081E9CFE091300681E08E0F8093D0
:1057200030068091BB00F0E0E15FF94F80839091FB
:10573000300680912F069817C8F285E8D8CFE091FF
:10574000300681E08E0F809330068091BB00F0E040
:10575000E15FF94F808380910E0681115ECF81E079
:1057600080930D0684EA8093BC0010920C0628CF2B
:1057700085EC8093BC0010920C0680910A06803262
:1057800030F4E0910A06F0E0E651FA4F10826091A1
:105790000A0670E08AEE95E0F0E0E0E009951092EC
:1057A0000A060ECF10920B0638CFFC01EE0FFF1F3A
:1057B000E80FF91FE859FF4F25913591459155B1F3
:1057C0005A7E522B55B94BB958B1507E532B62FFBC
:1057D00001C0526058B908950F931F93CF93E82FDB
:1057E000F0E0E351FB4F90819F70A091D403B09102
:1057F000D50337E23A9FF0013B9FF00D1124ED5E97
:10580000FD4F51812A98F894FB0134E0F695E79515
:105810003A95E1F76E0F7F1F30E0351708F060C052
:1058200005B10F7E18B11F7E30FD006131FD1061A2
:1058300005B918B9211137C0C0E8A0E0ABB9289864
:10584000289AB6B1BF70843071F400000000FB01EB
:10585000EA27EF27F0E0E050FF4FE081EB1729F057
:10586000642F0E94971A9B13FBCFE1E0EA0FEBB97C
:105870002898289AB6B1BF70843091F400000000D7
:105880008B010E27F801EF27F0E0E050FF4FE08199
:10589000EB13E6CFAE5FC15009F0D0CF3F5FBDCF75
:1058A0009B13DECFF7CF2898A0E0ABB90000000033
:1058B000B6B1BF70843089F400000000FB01EA2714
:1058C000EF27F0E0E050FF4FE081EB13C9CFE1E0BC
:1058D000EA0FAF3F19F3AE2FE8CF9B13C1CFF7CF3D
:1058E0007894289A2A9ACF911F910F910895FF9248
:1058F0000F931F93CF93DF938C01C62FD42FE62FE6
:10590000F0E0E351FB4FF0800E94C918F894C430D6
:1059100008F030C0E8E6F6E090E080E024913196AF
:105920004491319755B15A7E522B55B938B13F7ECB
:1059300080FB34F938B95BB15871542B5BB942988C
:10594000429A26B12F2523FF05C06D2F81E08C0FD1
:105950000E94971AFF0CF11C01963296811524E0E3
:105960009207E1F678942B9ADF91CF911F910F91D6
:10597000FF900895C80124E0969587952A95E1F750
:10598000800F911FE8E6F6E070E060E02491319628
:105990004491319755B15A7E522B55B938B13F7E5B
:1059A00060FB34F938B95BB15871542B5BB942983C
:1059B000429A46B19C01262737272327A22FB0E021
:1059C000A050BF4F2C91242723FDBFCF6F5F7F4F87
:1059D0003296611524E07207C9F6C4CFCF931092B6
:1059E0003F0610923E06109274061092750687EFDD
:1059F00094E090933D0680933C06109241061092ED
:105A00004006109255061092580610924C061092BD
:105A10004D0610924E0610924F068FEF8093560659
:105A200080935A06EEE5F6E084E796E0CFEFC19367
:105A30008E179F07E1F789EC93E1909345068093D9
:105A4000440680E395E190934706809346068CE9EF
:105A500096E1909349068093480685E097E19093FC
:105A60004B0680934A0630E020E040E069E080E4A5
:105A700096E00E94C9138DE080936A068CE08093C3
:105A80006B06C0936906CF910895CF93DF93CDB78E
:105A9000DEB728970FB6F894DEBF0FBECDBF78945F
:105AA00084B5826084BD84B5816084BD85B5826023
:105AB00085BD85B5816085BD80916E0081608093D4
:105AC0006E0010928100809181008260809381003D
:105AD000809181008160809381008091800081604D
