:100000000C9437060C945F060C945F060C945F0604
:100010000C945F060C945F060C945F060C945F06CC
:100020000C945F060C945F060C945F060C945F06BC
:100030000C945F060C945F060C945F060C945F06AC
:100040000C9408280C945F060C945F060C945F06D1
:100050000C945F060C945F060C945F060C945F068C
:100060000C9452280C945F06343136342036344BCD
:10007000783120326D73003430323720344B783190
:1000800000343831362031364B7831003431313656
:100090002031364B78310034313130303020314D21
:1000A00078310035313434303220314D78342D53AD
:1000B000430035313434303020314D78340035311F
:1000C00034323538203235364B78342D53430035B1
:1000D0003134323536203235364B783400343436CC
:1000E000342036344B783400343431362031364BBA
:1000F0007834003431323537203235364B78312D73
:100100004E4D003431323536203235364B783100A1
:10011000343136342036344B783120346D7300005E
:10012000100414011105150000010102020303046B
:100130000405050606070720202121222223232467
:100140002425252626272740404141424243434457
:100150004445454646474760606161626263636447
:100160006465656666676780808181828283838437
:1001700084858586868787A0A0A1A1A2A2A3A3A427
:10018000A4A5A5A6A6A7A7C0C0C1C1C2C2C3C3C417
:10019000C4C5C5C6C6C7C7E0E0E1E1E2E2E3E3E407
:1001A000E4E5E5E6E6E7E7436865636B696E672EBD
:1001B0002E2E0044657465637465643A0052414DA7
:1001C0002D544553544552004342522054696D65A5
:1001D00072206661756C7400420053686F727420FF
:1001E00050696E200043004661696C65642050616F
:1001F000747465726E2000420053686F72742041FF
:100200006464726573736C696E65210043003F001E
:10021000416464726573736C696E652041004200CD
:10022000446566656374206F72206E6F2052414D85
:10023000210047004100203332005665722E3A00FB
:100240004800FF3F30FCFFF3FF03FF3F30FCFFF3AC
:10025000FF030330CF03F03300030330CF03F03349
:100260000003F333CCF0CC303F03F333CCF0CC308D
:100270003F03F333C3F0C3333F03F333C3F0C3335C
:100280003F03F333CFCF30303F03F333CFCF3030A2
:100290003F030330F330303000030330F3303030AD
:1002A0000003FF3F333333F3FF03FF3F333333F3B5
:1002B000FF030000C00CFC0300000000C00CFC03A6
:1002C0000000CCF3FF33C0CCCF00CCF3FF33C0CC65
:1002D000CF003F00CCCC03300F003F00CCCC03302C
:1002E0000F000FF3C0FFC0C303030FF3C0FFC0C371
:1002F0000303F0C30F33FCC0C300F0C30F33FCC0D3
:10030000C300033CF333CF0CC000033CF333CF0CEA
:10031000C00030CF00FFF30C3C0330CF00FFF30CE4
:100320003C033FFC3F0C30FF3F003FFC3F0C30FFE5
:100330003F00FCC3FC0030FFC000FCC3FC0030FFEA
:10034000C000F3300C3F0F003F00F3300C3F0F00B4
:100350003F00CC0FCCFC0FF33300CC0FCCFC0FF3E1
:1003600033000F3FF3C0FC3CF3030F3FF3C0FC3CF2
:10037000F303C3C3033300F00300C3C3033300F02C
:100380000300FC300F0C3FFFF303FC300F0C3FFF6A
:10039000F30300003FF3C303F30000003FF3C30384
:1003A000F300FF3F33CFC0330303FF3F33CFC033EE
:1003B000030303300C30F3033F0303300C30F3032B
:1003C0003F03F333CFCC0CFFF303F333CFCC0CFF5D
:1003D000F303F333FFF033CC3000F333FFF033CCCF
:1003E0003000F33300CCC03FCC00F33300CCC03F2F
:1003F000CC0003300F0303C33F0003300F0303C3DC
:100400003F00FF3FC0FC3300F300FF3FC0FC330060
:10041000F30053656C662054657374204661696C03
:1004200021004200576972652050696E32302D3EBE
:10043000616C6C004E6F2053686F72747320666F2E
:10044000756E6400436865636B696E672053686FFF
:10045000727473005265736973746F7273204F4BBB
:1004600000333733322D4C2F343533322D33203394
:10047000324B00333733322D482F343533322D335E
:100480002033324B00333733322D4C2F3435333257
:100490002D342033324B00333733322D482F34354F
:1004A00033322D342033324B00333733322D4C204E
:1004B00033324B00333733322D482033324B003444
:1004C0003533322D332033324B00343533322D3433
:1004D0002033324B0034313634206F722033324BAC
:1004E00078310000000000240027002A00000000EE
:1004F00000250028002B0000000000230026002912
:1005000000040404040404040402020202020203BC
:1005100003030303030202030102040810204080C6
:10052000010204081020010204081020408040004D
:10053000000009000302000004050800000000009C
:100540000000000000000000000200010003800025
:1005500080028001800300010405101114150000C1
:100560000202010103030000020201010303000073
:100570000202010103030000020201010303001053
:1005800000100010001000100010001000100010EB
:1005900000100010001000100010001000100000EB
:1005A000000000000000040404040404040410100B
:1005B00010101010101014141414141414140080BB
:1005C000008040C040C00080008040C040C00000AB
:1005D0000000000000000101010101010101000013
:1005E00001010000010100000101000001011400EF
:1005F000020203030204040406000006FF06FF00D3
:1006000000000000AC200580DE002E06D2D88C0051
:100610003007F3D855AE0A3107F3D825D91A320A74
:10062000B4D8A998412C4700330BB4D88C0C92460F
:10063000322900340AB4D846558D984102350AB49F
:10064000D80C0D36924901360AB4D8A90C569449F3
:1006500001370BB4D88C0C6206318308380AB4D841
:10066000A99854944901390AB4D8A928D306490154
:100670003A07EAD88C38025608B4D84467920A651B
:1006800009A4D8A9343250006908F3D86524AB0115
:100690006E07A4D8AC68066F08A4D8A92893027284
:1006A00008A4D8ACA841067308A4D80D8D86020012
:1006B000000004FFFF000003000505060605020711
:1006C00020200000200020000000000000A643328F
:1006D000D087071B2319CA48863292A18C64282729
:1006E00038C2098E3254A10C55AC4215AB588479EE
:1006F000823318B214E520E848C622D8D084050019
:10070000473E1C080533E21AD6A84745283215A9EA
:10071000440632AF798E2B48D10C62308318EB201F
:10072000873AC89110722484200821C8B18C5530B2
:10073000828D852863218B58C81218F2813F483476
:100740002008054F421BF8948D7CC2682B608812EC
:100750001892064635A94D6C62D4A2D6C49660B4F0
:1007600085AE4707615481105620C31DC4908D4D3E
:10077000680000000004FFFF0000020004050606F8
:1007800001010720200000200020000000000000E0
:100790008D41402038989107CC7920A4A6D64AEC08
:1007A000B4E2A892622A2A84AA42A632622AAD241E
:1007B000314A22A2A612AAD20B337B62A14718812A
:1007C000C41B8EB8D20E4B6BA9961E08E7014318C6
:1007D00000424B2038989107CC7920A4A6D64AEC49
:1007E000B4E2E810458E3908A1438E32EA10A4889D
:1007F000424229A12ABD3033CD32BCB42AA1944053
:100800008A28448E32EA9083103AE610450EE24A76
:100810003B2CADA55A7A209C070C61000000000417
:10082000FFFF00005F0003030304030504060E003E
:10083000FE0AFE0BFE017002DC0428200500F20710
:10084000210752C3C713012208A5DE87848B00232A
:100850000D56C20F89C542A258482C0024115EBE15
:10086000978C12D11219CE24BA4468220025105652
:10087000C28F8452114D83D191A4429100260E560D
:10088000C2D748A2A7918452D12411270722DFC7DB
:100890002100280CEDBA9F484D24D3512654290D30
:1008A000EDBA87504D28D3492652032A0D3ECE4734
:1008B000444B8426A344B4042B0A3EC69750C92453
:1008C00054022C0823BBC74442012D060ED28701D7
:1008D0002E0612C307012F0E6EBAA736A14CA8260A
:1008E00094091501300B56C20F45C49F24140031E2
:1008F0000A56C2976C44D42703320D56C20F4544A2
:1009000012CA84328D06330F56C20F4544128AA68E
:100910004212494201340D56C267506D44D1C5267A
:100920009400350F56C2C72128AC88844212494230
:1009300001360E56C2D748422256449C2414003732
:100940000C56C2C7214411CA847A02380F56C20F0E
:1009500045C4242151444C120A00390E56C20F4599
:10096000C4495224514423003A073AC70799003B2F
:100970000A4BBF8F3A6822A1003C084EC2A74C57D1
:100980001D3D0726CA871D6A3E094EC28754371D82
:10099000013F0E56C20F45449229AAC3842200404B
:1009A0000C56C2D74842B974599112410C56C20F25
:1009B000E510E274183109420D56C24745C414A926
:1009C00088385D00430C56C20F45C4A81349420144
:1009D000440C56C20749A2C42F121200450B56C23E
:1009E000C721A858116A34460B56C2C721A858110E
:1009F000EA08470D56C20F45C4A8526292500048FB
:100A00000B56C28788D361C49300490956C28749EF
:100A1000A89F0C4A0B56C2A73E9228A211004B0F6A
:100A200056C287882221CD6624924489244C0856D8
:100A3000C287507F344D0C56C24770443A1C443C28
:100A4000094E0C56C287885469A17422094F0B566F
:100A5000C20F45C49F241400500B56C24745C4E939
:100A600022D408510E66BA0F45C45385529250A540
:100A700001520C56C24745C474D1C44900531056A4
:100A8000C20F454492488552898824A100540956D2
:100A9000C28749A83F01550A56C287887F925000F5
:100AA000560C56C287889F24249A0800570C56C2B9
:100AB0008788A7C343251401580F56C2878824216D
:100AC000D1843212454412590C56C287884942A239
:100AD0000975025A0E56C28751269409654299D06B
:100AE000005B09EDBAC74DFFAD005C0E6EBA8750D2
:100AF000552815AA0AA542055D09EDBA474DFFED37
:100B0000005E081EE6978C22125F0716BAC7A10086
:100B100060079CE2874C01610D3EC20F45249B4853
:100B200048244901620B56C28750B122E2E90263B0
:100B30000B3EC20F4544D424A100640A56C2A796B6
:100B4000134F9202650D3EC20F45443A0C45120AFE
:100B500000660C56C29F8C241499843A01670E4E8D
:100B6000BACF4A45D32C5811492800680B56C28782
:100B700050B122E29300690752C307E9706A0CE59D
:100B8000BA9F3A44A6378A64026B0E56C287505306
:100B90004485449228D1026C0752C3C783016D0A71
:100BA0003EC2874472F840126E093EC24745C427D0
:100BB000016F0A3EC20F45C4938402700B4EBA47C0
:100BC00045C4D3452804710A4EBACF89274951013B
:100BD000720A3EC24745C4A81100730D3EC20F45BC
:100BE0002491AA88241400740B56C29750C924D4A7
:100BF000750075093EC287884F9202760C3EC28707
:100C0000884942A2094500770C3EC287887478A8BB
:100C1000842200780D3EC2878824A1C92822920030
:100C2000790E4EBA878824D1693694288D007A09C6
:100C30003EC28751A6A3017B0CEDBAD744A69350C0
:100C4000A6E3007C076ABBC787027D0DEDBAC750DB
:100C5000A6A348A6CB08007E0A26DE4FAC22A945F3
:100C60000000000004FFFF000000D12BBD2B112469
:100C70001FBECFEFD8E0DEBFCDBF26E0A4E2B3E0D9
:100C800001C01D92A636B207E1F713E0A0E0B1E083
:100C9000E0E8FBE702C005900D92A432B107D9F756
:100CA00016E0C6E3D6E004C02197FE010E94B43BE3
:100CB000C533D107C9F70E949D2C0C94B33D0C9409
:100CC0000000662329F06A3019F0862F90E008951D
:100CD0008FEF9FEF0895AF92BF92CF92DF92EF9286
:100CE000FF920F93CF93DF93EC01DA017901942FF8
:100CF0009770E1E0F0E09F01092E01C0220F0A94F5
:100D0000EAF7522F6E018AE8C80ED11CF6018081E5
:100D100040E0823018F4422F813049F15D01F8EF54
:100D2000AF22E8ADF9AD28813981D90150968C9177
:100D30008A9D90018B9D300D1124620F731FDF017E
:100D4000A60FB71F01111AC0EA0EFB1E8C91842B4F
:100D500085278D93AE15BF05C9F7DF91CF910F9110
:100D6000FF90EF90DF90CF90BF90AF90089550E04C
:100D7000D5CF440F550FE114F10479F33C91342B96
:100D800035273C939F5F9770E1E0EE1AF1089111CF
:100D9000F0CF2CAD3DADA20FB31FF60180818230A4
:100DA00028F4813009F051E041E0E5CF51E0E3CF94
:100DB00080E0089590E080E0089580933C060895D7
:100DC0009B01DC011896ED91FC9141E067E10994EB
:100DD000843081F028F48230E9F08330F9F008950E
:100DE000883071F0893091F08530B9F480918000BD
:100DF0008F7D03C0809180008F778093800008955D
:100E00008091B0008F778093B00008958091B000FA
:100E10008F7DF9CF84B58F7784BD089584B58F7D9C
:100E2000FBCFCF93DF93282F30E0F901E15DFA4F3C
:100E30008491F901E85EFA4FD491F901EF5FFA4F1E
:100E4000C491CC23A1F081110E94E806EC2FF0E0C0
:100E5000EE0FFF1FE950FB4FA591B491EC91ED23EC
:100E600081E090E009F480E0DF91CF91089580E087
:100E700090E0FACF1F93CF93DF93282F30E0F90152
:100E8000E15DFA4F8491F901E85EFA4FD491F901DE
:100E9000EF5FFA4FC491CC23A9F0162F81110E9465
:100EA000E806EC2FF0E0EE0FFF1FE351FB4FA5919A
:100EB000B4918FB7F894EC91111108C0D095DE234E
:100EC000DC938FBFDF91CF911F910895DE2BF8CF78
:100ED000CF93DF9390E0FC01E85EFA4F24918F5F9F
:100EE0009A4FFC0184918823C9F090E0880F991FE4
:100EF000FC01ED51FB4FA591B491FC01E351FB4F77
:100F0000C591D49161110DC09FB7F8948C91209533
:100F100082238C938881282328839FBFDF91CF91E0
:100F20000895623051F49FB7F8943C91822F8095D8
:100F300083238C93E8812E2BEFCF8FB7F894EC911D
:100F40002E2B2C938FBFEACF8230910538F0880F7B
:100F5000991F880F991F05970197F1F708953FB7DB
:100F6000F8948091A8039091A903A091AA03B0914D
:100F7000AB0326B5A89B05C02F3F19F00196A11D14
:100F8000B11D3FBFBA2FA92F982F8827BC01CD01D3
:100F9000620F711D811D911D42E0660F771F881F32
:100FA000991F4A95D1F708958F929F92AF92BF9261
:100FB000CF92DF92EF92FF926B017C010E94AF070C
:100FC0004B015C01C114D104E104F104B9F00E94A9
:100FD000AF07681979098A099B09683E7340810542
:100FE000910580F321E0C21AD108E108F10888EEEA
:100FF000880E83E0981EA11CB11CE4CFFF90EF90F7
:10100000DF90CF90BF90AF909F908F9008950F93F7
:101010001F93CF93DF938C01C62F642FCC32E8F45B
:10102000CA3208F041C0C83271F1C93209F442C075
:1010300080E0C034D0F1CF73F801EC0FF11D868D44
:101040008F3F91F1C031E0F00E94110721E0892B20
:1010500009F420E0F801218F27C0CD3289F140F357
:1010600084EB8C0F823020F7CF73C00FD12FD11DAE
:101070008E8D41112CC061E00E94680760E08E8D6A
:101080000E943A0711C0025E1F4FD0E0F801819123
:101090008F018F3F31F061E0D03108F062E00E94B3
:1010A0006807DF5FD63191F781E0DF91CF911F9123
:1010B0000F91089570E090E080E00E94D407F4CF93
:1010C000433090F785E090E00E94A407EDCF62E006
:1010D0000E946807E9CFCF92DF92EF92FF920F93C1
:1010E0001F93CF93DF937C01062F10E0D0E0C0E088
:1010F000680181E0C81AD108C017D10711F182E058
:10110000E816F104C9F083E0E816F104C1F02D9A65
:101110002C9864EF71E080E090E00E94D4072D9855
:101120002C98CC15DD0534F464EF71E080E090E09C
:101130000E94D4072196E0CF2D982C9AEACF2D9AC1
:10114000FCCFDF91CF911F910F91FF90EF90DF9037
:10115000CF90089585ED8093BC008091BC0084FD04
:10116000FCCF10929403089520917003260F33272B
:10117000331F21323105ECF420919403FC0190E0FF
:1011800080E0243069F082E00895A09170032191FD
:10119000AC01405B5C4FA40FB52FB11D2C930196A1
:1011A000861798F380917003680F6093700380E056
:1011B000089581E0089508958FEF9FEF08958FEFD0
:1011C0009FEF089580914F0390E09195819591094B
:1011D0000895CF93DF93CB01EA01642F0E94B408F6
:1011E000CE01DF91CF910895CF93DF931F92CDB7BA
:1011F000DEB7698361E0CE0101960E94B40881E008
:1012000090E00F90DF91CF910895DC011A96ED9157
:10121000FC9130E020E00994DC011696ED91FC9100
:1012200030E020E040E069E10994DC011696ED91A0
:10123000FC9130E020E040E068E109949A01DC0193
:101240001696ED91FC91462F67E10994EF92FF927B
:101250000F931F93CF93DF931F92CDB7DEB77C011F
:101260008B01D8016C91673129F150F46531A0F4FC
:101270000F90DF91CF911F910F91FF90EF90089504
:101280006A3118F16E3FA1F7F8014181498369E2A3
:10129000C7010E9405090BC0F80141814983D701AC
:1012A0001696ED91FC9130E020E0C70109950E5FA4
:1012B0001F4FD7CFF80181818983AE014F5F5F4F08
:1012C00061E0C7010E941E09F2CF0F5F1F4FD701D7
:1012D0001696ED91FC9130E020E040E0C7010995C1
:1012E000C0CF462FDC011696ED91FC9130E020E056
:1012F00066E10994462FDC011696ED91FC9130E0F1
:1013000020E065E10994EF92FF920F931F93CF9332
:10131000DF93EC01042F79016D3009F446C050F4DD
:101320006B30C9F1693009F49FC06A3009F465C0B7
:1013300080E046C06E3009F452C06F3099F70E94C9
:101340001509F7011381110F110F110F6C89160F79
:1013500060E4CE010E947A09612F62956F7060612E
:10136000CE010E947A09612F6F70CE010E9471092F
:10137000F7016481606BCE010E947109F701408121
:1013800051816281660F660F660FCE010E941E09B1
:101390000150A1F72EC06BE371E0442311F066E326
:1013A00071E0CE010E9426090AC0411110C06FE20F
:1013B00071E00E942609E881F98182898C8B81E0A5
:1013C000DF91CF911F910F91FF90EF90089568E208
:1013D00071E00E942609E881F9818389EFCF0E949C
:1013E000150961E8CE010E947A09602FCE010E94A2
:1013F0007109CE010E940C09E2CFEA85FB8530E03D
:1014000020E040E068E2CE010995EE81FF8130E006
:1014100020E040E064E1CE01099541E06BE4CE01BB
:101420000E940509E881F981448169E2CE010E94A8
:10143000050940E06BE4CE010E940509E881F981CD
:10144000448169E2CE010E94050941E06BE4CE01CE
:101450000E940509E881F981458169E2CE010E9477
:10146000050960E471E09DCF85E791E09983888369
:101470001C8AA5CF41E06DE40C940509DC01ED91D7
:10148000FC9145856DE20C940509CF93DF93EC0147
:1014900041E06CE40E940509CE01DF91CF910C94EC
:1014A0003E0ACF93DF93EC01662379F00E943A0A5B
:1014B000CE010E943E0ACE010E94450A40E06CE443
:1014C000CE01DF91CF910C94050940E06DE40E94BC
:1014D0000509EECF1F93CF93DF93EC01162F6078B1
:1014E0000E94510A612F6074CE010E94510A612F3F
:1014F0006072CE010E94510A612F6071CE010E947C
:10150000510A612F6870CE010E94510A612F6470E8
:10151000CE010E94510A612F6270CE010E94510AD1
:10152000612F6170CE010E94510ACE010E943A0AD9
:10153000CE010E943E0ACE010E94450ACE010E94C1
:101540003A0ACE010E943E0A40E06CE4CE01DF91EF
:10155000CF911F910C940509DC011896ED91FC9137
:1015600030E020E040E069E10994DC011896ED915B
:10157000FC9130E020E040E068E10994CF93DF93F4
:101580001F92CDB7DEB76983BE016F5F7F4F0E94A8
:10159000E0060F90DF91CF910895EF92FF921F9395
:1015A000CF93DF93EC01162F7A010E94B50A60E415
:1015B000CE010E94BE0AE885F9859701412F67E1B7
:1015C000CE010995CE01DF91CF911F91FF90EF9051
:1015D0000C94AC0AEF92FF921F93CF93DF93EC0130
:1015E000142F7901663181F138F4643109F44BC06C
:1015F000653179F080E022C06831C9F150F169317C
:10160000C9F780914E03882391F1CE010E94AC0A64
:101610002EC080914E03882319F0CE010E94AC0A9F
:10162000CE010E94B50A60E0CE010E94BE0A612F81
:10163000CE010E94BE0A81E080934E03DF91CF91DC
:101640001F91FF90EF900895642F0E94BE0A81E0E1
:10165000F5CF80914E03882319F0CE010E94AC0A89
:10166000A701193138F4612FCE010E94CD0A1092E2
:101670004E03EDCF68E1CE010E94CD0A185188E1FA
:10168000E80EF11CEDCF8E898F3F11F488E78E8B29
:10169000E885F9859701412F64E1CE01DF91CF9173
:1016A0001F91FF90EF9009940F93FC01E05CFF4FB6
:1016B0000190F081E02D4E1B5F0BDC01D496ED9183
:1016C000FC9109950F910895CF93DF93FC01A081C0
:1016D000B18182AD90E09C0143E0220F331F4A9517
:1016E000E1F737AF26AF50962C91509748E0249FF2
:1016F0009001112435AF24AF23AD30E0B90153E0A0
:10170000660F771F5A95E1F7EF01C05CDF4F7983D1
:10171000688351964C915197E901C80FD91F50E049
:101720004C175D0718F4CA01821B930BEF01CE5BC7
:10173000DF4F79836883229623E0880F991F2A95CB
:10174000E1F7860F971F99838883229654968D918F
:101750009C91559799838883E85BFF4F56968D91AE
:101760009C9191838083DF91CF9108950F931F9374
:10177000FC01E25BFF4F0190F081E02DDC01A05BFA
:10178000BF4F0D90BC91A02D4A175B0740F4E017A6
:10179000F10748F00417150730F080E019C0E01792
:1017A000F107C0F3FACFFC01E65BFF4F40815181A6
:1017B000845B9F4FFC01808191816817790758F401
:1017C00081E04217530720F081E02617370728F7FA
:1017D0001F910F91089542175307B0F3DECF2F9258
:1017E0003F924F925F926F927F928F929F92AF92B1
:1017F000BF92CF92DF92EF92FF920F931F93CF93FE
:10180000DF93CDB7DEB72A970FB6F894DEBF0FBED1
:10181000CDBF9A878987865B9F4F9A838983FC0116
:1018200011821082E985FA85EA5BFF4F4080518082
:1018300029853A85245B3F4F3C832B83F9015182F4
:101840004082E985FA85EE5BFF4F20803180298553
:101850003A85225B3F4F3E832D83F90131822082FE
:10186000E985FA85EC5BFF4F6080718029853A85B8
:10187000205B3F4F38872F83F90171826082E985B1
:10188000FA85E85AFF4FE080F180E985FA85EC5A45
:10189000FF4FA080B180E985FA85EA5AFF4FC080EA
:1018A000D180E985FA85EE5AFF4F808091808701CB
:1018B0009501A601B40189859A850E94B60B2985F8
:1018C0003A852C573F4F3A87298781111BC0F90170
:1018D00010822A960FB6F894DEBF0FBECDBFDF91FF
:1018E000CF911F910F91FF90EF90DF90CF90BF901D
:1018F000AF909F908F907F906F905F904F903F90B0
:101900002F90089581E0E985FA8580838114910400
:1019100021F0E981FA8191828082A414B50420F437
:10192000EB81FC81B182A0822C143D0420F4ED8176
:10193000FE81D182C082E614F70458F6EF81F88563
:10194000F182E082C6CF0F93CF93DF93E02FDC01CB
:10195000AC57BF4FFC91FF2309F460C0211531053E
:1019600009F45CC02230310538F0023009F04AC079
:101970006F5F7F4F621B730B0E2F0170E0FD52C033
:10198000FC01E25BFF4F0190F081E02D4E175F07F5
:1019900008F444C0FC01E05BFF4F0190F081E02DB2
:1019A0004E175F07D8F5FC01E45BFF4F0190F08113
:1019B000E02DDC01A65BBF4F0D90BC91A02D260F42
:1019C000371F2617370738F56E177F0718F59F0161
:1019D00021503109A217B30708F56A177B0708F4ED
:1019E000BD012E173F0708F4F901E61BF70BEC01C8
:1019F000AEA9BFA914960D90BC91A02D9F01FD0129
:101A000009950CC0033009F0B7CF4F5F5F4F421B01
:101A1000530BB2CFBD016E177F07E0F2DF91CF917C
:101A20000F910895FC01E65BFF4F0190F081E02DDE
:101A30006E177F0798F3FC01E45BFF4F0190F08184
:101A4000E02D6E177F0750F7FC01E05BFF4F019020
:101A5000F081E02DDC01A25BBF4F0D90BC91A02D69
:101A6000240F351F24173507A8F44E175F0788F495
:101A70009F0121503109A217B30780F64A175B076F
:101A800008F4AD012E173F0708F4F901E41BF50B2C
:101A9000AECFAD014E175F0708F6EDCF213069F0EC
:101AA00038F0223079F0840F911D47FD9A95089502
:101AB000860F911D67FD9A950895841B910947FD36
:101AC00093950895861B910967FD9395089521309C
:101AD00069F038F0223079F0861B910967FD939503
:101AE0000895840F911D47FD9A950895860F911DC5
:101AF00067FD9A950895841B910947FD9395089574
:101B00003F924F925F926F927F928F929F92AF928D
:101B1000BF92CF92DF92EF92FF920F931F93CF93DA
:101B2000DF937C01162F442EEC01C25ADF4F5E80FA
:101B30006F806C018AE8C80ED11C78847518312E2C
:101B4000711608F4372C8C809D800E85202F462D31
:101B5000652D8A819B810E944E0D5C01202F462DB0
:101B6000652DC4010E94670DAC01442079F08C857D
:101B7000F6018083232D30E0B501C7010E94A30C3C
:101B8000171548F017196394512CD7CF8B85811105
:101B9000F7CF8D85EDCF150D1E836F82DF91CF912D
:101BA0001F910F91FF90EF90DF90CF90BF90AF907B
:101BB0009F908F907F906F905F904F903F9008958F
:101BC000DC011A964C911A97ED91FC911197249192
:101BD00030E0042E02C0359527950A94E2F7842F51
:101BE000860F883068F031961196FC93EE93E4915D
:101BF00098E0941B01C0EE0F9A95EAF72E2B8850BF
:101C00001A968C938FEF9FEF01C0880F6A95EAF7C1
:101C1000809582230895FC01E60FF11D849190E0E8
:101C2000982F88273196E4918E0F911D0895CF93B8
:101C3000DF9320910C0630910D062817390709F41F
:101C400090C0EC0190930D0680930C06FC018491EA
:101C500080931F063196E491E0932006FE013296B0
:101C6000E491E0932106FE013396E491E09322068D
:101C7000FE013496E491E0932306FE013596E4914B
:101C8000E0932406FE013696E491E0932506FE01DA
:101C90003796E491E0932606FE013896E491E093AE
:101CA0002706FE013996E491E0932806FE013A9654
:101CB000E491E0932906FE013B96E491E0932A0625
:101CC000FE013C96E491E0932B06FE013D96E491E3
:101CD000E0932C06FE013E96E491E0932D06FE0172
:101CE0003F96E491E0932E06FE017096E491E09316
:101CF0002F0661E1CE010E940B0E90933106809376
:101D0000300663E1CE010E940B0E90933306809360
:101D1000320665E1CE010E940B0E9093350680934A
:101D2000340680910C0690910D06892BD1F080919C
:101D30002C068093380640912D06409339069091E9
:101D40003706992371F0913079F490912E06891716
:101D500014F49093380680912F06841714F480931E
:101D60003906DF91CF9108953091290620912B06F5
:101D7000082E000C990B622F022E000C770B630FBC
:101D8000711D37FD7A95861797071CF4320F309333
:101D90003806241734F720933906E3CFCF93DF9327
:101DA000EC016BAFEEA9FFA90190F081E02D099540
:101DB000EEA9FFA90280F381E02DCE01DF91CF9142
:101DC0000994AF92BF92CF92DF92EF92FF920F935E
:101DD0001F93CF93DF9300D000D01F92CDB7DEB713
:101DE0008C01DC01DA96AC90DA97DB96EC90DB970D
:101DF000ED91FC91B188FE2CD12CC12CD801ED9134
:101E0000FC9111978089D8962D913C911C82FD827E
:101E10008B83B8E08B9FC00111248C9DA0018D9D08
:101E2000500D9C9D500D1124240F351F3A8329839A
:101E3000D8011496ED91FC919E012F5F3F4F41E038
:101E40006FE0C8010995F3948F2D8E198A1528F437
:101E5000BFEFCB1ADB0AFB1488F20F900F900F90A4
:101E60000F900F90DF91CF911F910F91FF90EF9006
:101E7000DF90CF90BF90AF900895EF92FF921F93A5
:101E8000CF93DF93EC01142F7901683151F130F4D5
:101E90006431D1F06731A9F080E006C0693109F4FE
:101EA00043C06032C9F781E0DF91CF911F91FF906D
:101EB000EF900895F70161917F01CE010E946A0AB7
:101EC00011501111F7CFEFCF41E06CE40E940509EA
:101ED00041E06DE4CE010E940509CE010E943E0A58
:101EE000E2CF8F89882349F0CE010E943A0ACE01C1
:101EF0000E943E0ACE010E94450ACE010E943A0A83
:101F000040E06DE4CE010E940509CE010E943E0A28
:101F100040E06CE4CE010E94050981E08F8B6E8960
:101F2000CE010E946A0ABFCF40E06DE40E9405091D
:101F3000CE010E943E0ACE010E94450ACE010E94B7
:101F40003A0ACE010E943E0A1F8AADCF789415B896
:101F500088B1807F88B98CE18BB914B887B1807C57
:101F600087B91AB81BB884B1806384B985B18F7CF6
:101F700085B908950E94A60F2D9A2C9868EC70E000
:101F800080E090E00E94D4072D982C9868EC70E0D7
:101F900080E090E00E94D407EFCFCF93DF93C82F6B
:101FA000D62F84E690E00E94A40761E08C2F0E9467
:101FB0003A0761E08D2F0E943A0761E08C2F0E9462
:101FC000680761E08D2F0E94680784E690E00E9418
:101FD000A407D8E060E08C2F0E943A0761E08C2FC4
:101FE0000E943A07D150B1F7DF91CF9108959091B7
:101FF0007C00907F892B80937C0080917A008064A4
:1020000080937A0080917A0086FDFCCF80917800E1
:10201000909179000895EEEAF3E08191DF01119744
:1020200080958F708C9384E0EE3AF807B1F70895AD
:10203000EEEAF3E030E020E0C90141EE84274CEA0B
:10204000942748E0BC017695679581709927919512
:10205000819591098827947B86279727415091F78E
:1020600089278F708193235C3F4F21158DE33807BB
:1020700019F70895CF92DF92EF92FF920F931F937B
:10208000CF93DF936C01EB017B01E40EF51E10E0B2
:1020900000E0CE15DF0561F06991D601ED91FC916C
:1020A0000190F081E02DC6010995080F191FF1CFAD
:1020B000C801DF91CF911F910F91FF90EF90DF90BA
:1020C000CF900895FC0144815581608171818EEA31
:1020D00095E00C943A102F923F924F925F926F923C
:1020E0007F928F929F92AF92BF92CF92DF92EF92A8
:1020F000FF920F931F93CF93DF93CDB7DEB728974F
:102100000FB6F894DEBF0FBECDBF7C016C0124E09A
:10211000C20ED11CFC01E057FF4F0190F081E02D71
:10212000C60109958C018E3F9F4F08F061C03701B1
:1021300084E9680E711CF3010190F081E02DFD83AC
:10214000EC835701F2E9AF0EB11CF501808091805C
:10215000970120593F4F3B832A83F90180818130C9
:1021600009F470C008F45FC0823009F476C083308F
:1021700009F482C0F701EC59FF4F918280823296B8
:102180002C813D81318320833897808191814796CE
:102190009D838C830F3F110511F008F020C1B69686
:1021A0000136110530F40134110558F0F701EE57EE
:1021B000FF4F808191812C813D81280F391F3D8304
:1021C0002C838C819D810196FC01249121115FC09B
:1021D00090E080E0EA81FB812081213009F4C1C1D7
:1021E00008F4B7C1223009F4BEC1233009F4C3C1D9
:1021F00081E090E028960FB6F894DEBF0FBECDBF09
:10220000DF91CF911F910F91FF90EF90DF90CF90D2
:10221000BF90AF909F908F907F906F905F904F9006
:102220003F902F900895F701E05AFF4F0190F08101
:10223000E02DC60109952C813D81280F391F3D8372
:102240002C8398CFF701E05AFF4F0190F081E02DE9
:10225000C6010995881A990A8DCFF701E05AFF4FF8
:102260000190F081E02DC6010995EC81FD81E81B0C
:10227000F90BFD83EC837ECFF701E05AFF4F01900D
:10228000F081E02DC6010995880E991E73CFEC816F
:10229000FD8124912017110609F09AC0CF01029602
:1022A000009709F495CFF701EE59FF4FF887EF83B8
:1022B000918380831286739660818F8198850E94B6
:1022C000E00DEF81F8858087F701EA58FF4F6081C4
:1022D0008F8198850E94E00D582EEF81F8858187C7
:1022E000970122573F4F3D832C83F9019081EF8165
:1022F000F885948781E0911180E0EF81F8858587EA
:10230000F701E958FF4F8080682D8F8198850E94E2
:10231000E00D382EF701E858FF4F2080622D8F81A5
:1023200098850E94E00D982EF701E758FF4F108125
:10233000612F8F8198850E94E00D9FEF910F01E042
:1023400010E0980101C0220F9A95EAF7821B8E8354
:10235000EF81F885408414140CF0C4C08A94C8013D
:1023600001C0880F8A94EAF7381AF685F983950C2C
:102370002A94C80101C0880F2A94EAF7282E291848
:102380002F2F422D632DEF81F885828193810E944A
:102390004E0D4C01EF81F885938382832981422D74
:1023A000632D848195810E94670DEF81F885958367
:1023B0008483F981F13009F49AC008F44EC0F230F8
:1023C00009F4A4C0F33009F4B5C0BC0194014FC0B6
:1023D000FC0184912C813D81280F311DF0CEF70145
:1023E000EA57FF4F80819181EC81FD81E80FF91F51
:1023F000FD83EC834F0160E0C4010E940B0E2C8131
:102400003D81280F391F3D832C8362E0C4010E9467
:102410000B0E34E0830E911C8017910760F3EC8162
:10242000FD81849190E0982F88273196E4918E2B3E
:10243000009709F4CDCE0817190721F48C819D81EE
:1024400003962ECFEC81FD813296E4912C813D8163
:102450002E0F311D3D832C83E2CF9401240D311DBD
:1024600047FC3A95BC01650D711D57FC7A958B01AF
:10247000AC01B401C6010E94B60B882399F1EF812B
:10248000F885168217824701F3E78F0E911C24E727
:10249000E20EF11CF40160818F8198850E94E00DAD
:1024A000082FF70160818F8198850E94E00D182F19
:1024B00040E0602FC6010E94800D41E0612FC601FF
:1024C0000E94800D61E08F8198850E94E00D81114E
:1024D000EFCFEF81F88587818515E4F28485EC8163
:1024E000FD818083FE818F2FFF0F990B73CE05191D
:1024F000110957FC139594012F5F3F4FBC01640DE8
:10250000711D47FC7A95800E911EB1CFA801441928
:10251000510947FC539594012F5F3F4F051911094D
:1025200057FC1395BC016F5F7F4F800F911F840E86
:10253000951E9DCF9401250D311D57FC3A95041928
:10254000110947FC1395BC016F5F7F4F800F911FEE
:102550008ECFF50120813181820F931F918380837B
:1025600047CEF301F7CFF50120813181281B390BCC
:10257000318320833DCEF301F7CF0F931F93CF9389
:10258000DF938C01D0E0C0E0F801EC0FFD1F6491F7
:10259000662341F08EEA95E00E946B10892B11F0C2
:1025A0002196F2CFCE01DF91CF911F910F91089527
:1025B000089590E080E00895299A289829980000CD
:1025C0000000299A289A08950F931F93299A05B11C
:1025D0000F7E18B11F7E90FD006191FD106105B95D
:1025E00018B98BB929981F910F9108950F931F93D4
:1025F000CF93DF93EB010E94E41205B10F7E18B177
:102600001F7ED0FD0061D1FD106105B918B9CBB9AD
:102610000000000028980000000086B1289A299A3E
:102620008F70DF91CF911F910F910895FF920F93BB
:102630001F93CF93DF93D62FF72EC42F0E94E4125F
:1026400005B10F7E18B11F7EF0FC0061F1FC106136
:1026500005B918B9DBB948B1407F4C2B48B9000027
:1026600028980000289A299ADF91CF911F910F9105
:10267000FF9008958FE385B980E888B91BB88FE192
:1026800084B987B98FEF8AB908958F778BB9000025
:102690000000289800000000289A86B181700895F3
:1026A0008F778BB9662341F0419A0000000028988B
:1026B00000000000289A08954198F7CF299A000059
:1026C00000008F778BB9299808952B9A42982B9800
:1026D000000000002B9A429A0895449A4298449828
:1026E00000000000449A429A08954BB14871FC01E1
:1026F00090E0292F2770242B392F330F330F307E92
:10270000232B21939F5F9034A1F708950F931F937C
:10271000449A05B10B7E182F1170110F110F012B68
:10272000182F1270110F110F110F012B05B900276F
:10273000182F14701295110F012B182F1870129565
:102740001695012B182F107816951695012B182F1A
:10275000107212951F70012B182F10741295169578
:102760001695012B182F107116951695012B0BB984
:1027700044981F910F91089584B1867F84B987B1E1
:10278000857F87B985B1896085B988B18A6088B944
:10279000089584B1896084B987B18A6087B9089542
:1027A0000F931F93CF93C82F80E00E9486130E943F
:1027B000C91329988FE005B1067F182F1270110FE9
:1027C000110F012B182F147016951695012B05B9B2
:1027D00048B1457F182F1170110F412B182F187019
:1027E000412B48B905B10B7E1C2F1170110F110F31
:1027F000012B1C2F1270110F110F110F012B05B996
:1028000000271C2F14701295110F012B1C2F18700C
:1028100012951695012B1C2F107816951695012BE5
:102820001C2F107212951F70012B1C2F1074129503
:1028300016951695012B1C2F107116951695012BC8
:102840000BB942980000429A80E005B10B7E182F28
:102850001170110F110F012B182F1270110F110F82
:10286000110F012B05B90027182F14701295110FA5
:10287000012B182F187012951695012B182F107810
:1028800016951695012B182F107212951F70012B9B
:10289000182F1074129516951695012B182F10717C
:1028A00016951695012B0BB9299A0E94BC134098D6
:1028B00042980000000006B113B12227302F327079
:1028C0003695230F312F387036953695230F312FDB
:1028D0003170330F330F230F0870200F822F429A6D
:1028E000409A8F70CF911F910F9108950F931F936E
:1028F000CF93C62F0E94861305B10B7E1C2F11703B
:10290000110F110F012B1C2F1270110F110F110F2E
:10291000012B05B900271C2F14701295110F012BE4
:102920001C2F187012951695012B1C2F10781695D8
:102930001695012B1C2F107212951F70012B1C2F46
:102940001074129516951695012B1C2F1071169563
:102950001695012B0BB942980000000006B113B187
:102960002227302F32703695230F312F387036954D
:102970003695230F312F3170330F330F230F08702B
:10298000200F822F429A449A8F70CF911F910F91FE
:1029900008950F931F93CF93DF93C62FD42F0E94D8
:1029A000861305B1067F1D2F1270110F110F012B19
:1029B0001D2F147016951695012B05B948B1457F4A
:1029C0001D2F1170110F412B1D2F1870412B48B96D
:1029D00005B10B7E1C2F1170110F110F012B1C2F35
:1029E0001270110F110F110F012B05B900271C2FA9
:1029F00014701295110F012B1C2F1870129516953B
:102A0000012B1C2F107816951695012B1C2F107278
:102A100012951F70012B1C2F107412951695169588
:102A2000012B1C2F107116951695012B0BB942988E
:102A30000000429A449ADF91CF911F910F9108951F
:102A400080FF19C0449AFC01EF77FF27E95DFE4F34
:102A50002491EBB1E871E22BEBB9880F892F881F25
:102A6000990B9195FC01E15EFE4FE49185B18A7E60
:102A7000E82BE5B908954498E6CF0E9420152B98DD
:102A800090E080E00E94201542980000000086B18E
:102A9000429A2B9A83FB882780F908951F93CF933E
:102AA000DF93162FC82FD0E0CE010E9420152B985F
:102AB0001123C1F0409A419842980000429A419AED
:102AC0002B9ACE010E9420152B98429800000000FE
:102AD00086B1429A2B9A83FB882780F9DF91CF91A8
:102AE0001F9108954098E7CF299A439829980000AC
:102AF0000000299A439A0895282F2F7130E0F90198
:102B0000E256FA4F5491F901E258FA4F4491225A91
:102B10003A4FF901249135E0969587953A95E1F77A
:102B20009927FC01E252FA4F6491FC01E253FA4FFB
:102B3000349182549A4FFC018491E5B1EA7E562B80
:102B4000E52BE5B9E8B1EE7E432BE42BE8B99BB168
:102B50009C73E22FE82BE92BEBB90895299A0E9488
:102B60007C1529980895CF93DF93EB01419839980C
:102B70000E947C152998CE010E947C1541984398AB
:102B80000000000086B1439A299A82FB882780F9C9
:102B9000DF91CF9108950F931F93CF938B01C42F93
:102BA000399A0E947C1529982B98C111C4E0C8015C
:102BB0000E947C15CC2351F0419A43980000439A1F
:102BC0002B9A299ACF911F910F9108954198F5CF93
:102BD0008F929F92AF92BF920F931F93CF93DF93E9
:102BE000CDB7DEB7A1970FB6F894DEBF0FBECDBF4D
:102BF00019A2423008F44AE08E010F5D1F4F842E67
:102C0000912CB12CA12CA50194010E94923BE62F9E
:102C1000B901CA01EA3044F5E05DD801EE938D01B7
:102C2000232B242B252B79F790E080E0109769F077
:102C3000FD0101900020E9F73197AF014A1B5B0BC2
:102C4000BD018EEA95E00E943A10A1960FB6F89465
:102C5000DEBF0FBECDBFDF91CF911F910F91BF900F
:102C6000AF909F908F900895E95CD7CF0F931F93FB
:102C7000CF93DF93EC0188819981009759F02A81E5
:102C80003B812617370730F081E0DF91CF911F910C
:102C90000F9108958B016F5F7F4F0E94DF3C00977B
:102CA00059F0998388831B830A832C813D81232BD0
:102CB00059F7FC011082E8CF80E0E7CFCF93DF9394
:102CC000EC0188819981009711F00E94563C19828D
:102CD00018821D821C821B821A82DF91CF91089577
:102CE000EF92FF920F931F93CF93DF93EC018B0131
:102CF0006115710551F0CB010E94523B7C01BC0172
:102D0000CE010E94361681110BC0CE010E945E16C4
:102D1000CE01DF91CF911F910F91FF90EF90089519
:102D2000FD82EC82B801888199810E944B3BF0CFF3
:102D3000FC0180819181009711F00C94563C08951C
:102D4000EF92FF920F931F93CF93DF93EC017B01E0
:102D5000198218821B821A821D821C82FB0101903B
:102D60000020E9F731978F01061B170BB8010E946D
:102D70003616811109C0CE01DF91CF911F910F91BD
:102D8000FF90EF900C945E161D830C83B701888131
:102D90009981DF91CF911F910F91FF90EF900C944B
:102DA000AC3DFC01A081B18150962C9182AD38E000
:102DB000839FC0011124289FA001299F500D112439
:102DC00070E060E080AD91AD0C94A53D1F93CF9372
:102DD000DF93EC010E94E10E1BAD8AAD180FE88174
:102DE000F9818189181768F0EC81FD8130E020E0DD
:102DF00040E060E1CE01099580E0DF91CF911F9125
:102E00000895FE01E557FF4F8081882319F0CE0118
:102E10000E94D116612FCE010E94CE0E81E0EDCF2F
:102E2000CF93DF93EC01FC01E557FF4F80818823AE
:102E300019F0CE010E94D11660E0CE01DF91CF9152
:102E40000C94CE0E6F927F928F929F92AF92BF9210
:102E5000CF92DF92EF92FF920F931F93CF93DF9366
:102E6000EC016091A0037091A1036115710511F04F
:102E70000E9470162C813D8147E0429FC001439F14
:102E8000900D11249695879520E430E07901E81A99
:102E9000F90A82EB95E00E94101732E3A32EB12CC1
:102EA00041E2842E912C56E3C52ED12C8AE797E07F
:102EB0000E94170EB0924106A092400690924306DF
:102EC0008092420684E392E00E94BD1284E298E080
:102ED0000E94170E8091A0039091A103892B29F1E4
:102EE0000AE310E020E830E04AE250E070E060E001
:102EF00082EB95E00E94B60B8823A1F08AE2682E4F
:102F0000712C00E020E830E0A30170E060E082EB8B
:102F100095E00E94A30C8FEF681A780A8AE368167E
:102F2000710479F780E00E94DD06F0924106E0929C
:102F30004006D0924306C0924206CE010E94621023
:102F400081E00E94DD0682EB95E00E94E616811189
:102F5000ADCFDF91CF911F910F91FF90EF90DF9058
:102F6000CF90BF90AF909F908F907F906F9008957B
:102F7000CF93DF9300D000D000D0CDB7DEB7E09183
:102F80000001F091010194E0EE0FFF1F9A95E1F727
:102F9000E551FE4F608171811A8219821C821B8269
:102FA0001E821D82CE0101960E947016CE010196EE
:102FB0000E942217CE0101960E9498160E94A60F29
:102FC000E0910001F0910101EE30F10588F02D98BB
:102FD0002C9A68EE73E080E090E00E94D4072D9870
:102FE0002C9868EE73E080E090E00E94D407EFCF69
:102FF000EE0FFF1FE45FFE4FF080018110919F03F1
:10300000112341F006E010FD05E0133091F516E0C4
:10301000FF24F3946F2D82E090E00E946B086CE235
:1030200071E080E090E00E94D407602F83E090E0A0
:103030000E946B081123B1F060ED77E080E090E032
:103040000E94D40761E082E090E00E946B086CE28D
:1030500071E080E090E00E94D407612F83E090E06F
:103060000E946B0860ED77E080E090E00E94D4075A
:10307000D1CF10E0CDCF382E262E23E0261708F42E
:1030800051C032E0631708F0DFC081E0681709F42F
:1030900088C082EB95E00E94101792E3C92ED12CD4
:1030A00021E2E22EF12C04E010E0C6E3D0E087EB51
:1030B00096E00E94170ED0924106C0924006F09210
:1030C0004306E092420682E392E00E94BD1284E24F
:1030D00098E00E94170E1093410600934006D0938B
:1030E0004306C093420680E292E00E94BD1282EB4A
:1030F00095E00E94E6168111DACF0E94A60F23E028
:10310000221609F45DC1221508F44FC131E02316DF
:1031100009F45CC182E0281609F471C1C1E0312CC8
:10312000212C5AC125E0621709F40AC1621708F47C
:10313000C9C036E06313ADCF82EB95E00E94101753
:10314000A2E3CA2ED12CB1E2EB2EF12C03E010E069
:10315000C6E3D0E087EB96E00E94170ED0924106BE
:10316000C0924006F0924306E09242068CE092E064
:103170000E94BD1284E298E00E94170E109341064F
:1031800000934006D0934306C093420689EF91E036
:103190000E94BD1282EB95E00E94E6168111DACF03
:1031A000ACCF82EB95E00E941017C2E38C2E912CDD
:1031B000C1E2D0E00FE010E086E3A82EB12C232D71
:1031C0002051330B6901330FEE08FF08432C512CBB
:1031D000712C612C8AE797E00E94170E90924106AD
:1031E00080924006D0934306C09342068EE192E05F
:1031F0000E94BD1284E298E00E94170E10934106CF
:1032000000934006B0924306A092420680E192E00D
:103210000E94BD123FE04AE0C301B201331530F411
:1032200080E2831560F04AE0C701B6010E94E8150C
:1032300082EB95E00E94E6168111CCCF5ECF8EE046
:1032400092E00E94BD12F4CF82EB95E00E9410172D
:10325000E2E3CE2ED12CF1E2EF2EF12C08E010E0CB
:10326000C6E3D0E0832C912CB12CA12C8AE797E007
:103270000E94170ED0924106C0924006F09243067B
:10328000E092420687EF91E00E94BD1284E298E04E
:103290000E94170E1093410600934006D0934306F8
:1032A000C093420687EE91E00E94BD124AE0C5013C
:1032B000B4010E94E81582EB95E00E94E6168111A8
:1032C000D5CF1BCF82EB95E00E94101762E3C62E8C
:1032D000D12C71E2E72EF12C08E110E0C6E3D0E03A
:1032E000832C912CB12CA12C87EB96E00E94170E19
:1032F000D0924106C0924006F0924306E092420608
:1033000085EE91E00E94BD1284E298E00E94170EC3
:103310001093410600934006D0934306C0934206A3
:103320008AED91E00E94BD124AE0C501B4010E94FD
:10333000E81582EB95E00E94E6168111D5CFDDCE2F
:1033400082EB95E00E94101742E3C42ED12C51E28B
:10335000E52EF12C0BE010E0C6E3D0E08AE797E021
:103360000E94170ED0924106C0924006F09243068A
:10337000E092420688ED91E00E94BD1284E298E05E
:103380000E94170E1093410600934006D093430607
:10339000C093420688EC91E00E94BD1282EB95E05A
:1033A0000E94E6168111DACFA8CE25E02216C1F1DF
:1033B000221670F136E0C0E02312B0CE312C2DC0C1
:1033C000C0E037E0332E92E0292E06C08FEF830D48
:1033D000C0E0843108F0312CCC2331F12D9A2C98A7
:1033E00068EE73E080E090E00E94D4072D982C985E
:1033F00068EE73E080E090E00E94D407EDCF832D6B
:10340000863008F085E033243394380EC0E0E4CFF2
:103410008FEF830DC0E0843188F683E0282EDCCF67
:10342000C0E028E0322ECFCF622D81E090E00E94F4
:103430006B086CE271E080E090E00E94D4073320DA
:1034400029F0632D83E090E00E946B086CED75E03D
:1034500080E090E00E94D407E7CF6F927F928F9236
:103460009F92AF92BF92CF92DF92EF92FF920F9313
:103470001F93CF93DF93CDB7DEB7C254D1090FB6F8
:10348000F894DEBF0FBECDBF8C01F62ECE010196A3
:103490000E94751388B1807E982F966022969FAF08
:1034A0002297866123968FAF2397480184E09694F4
:1034B00087948A95E1F7800E911E2B9AC8010E948D
:1034C00020152B98F894DE01AF5BBF4F70E060E0F1
:1034D00096E5C92E95E0D92E8D9188B985B18A7E61
:1034E000E82E06E515E026E435E0F80184918E2902
:1034F00085B9F901859194913C01662A772ACE011C
:1035000001965C0150E040E0C301842B952B882597
:103510009925892790E082559C4FFC018081F50117
:1035200091915F019BB94298000096B1892783FF72
:103530000BC0429A78942B9A63E081E08F0D0E9431
:103540003B1861E070E0C8CF429A4E5F5F4F403851
:103550005105D1F60F5F1F4F2E5F3F4FC216D306A6
:1035600009F0C3CF6130710561F778942B9ACE5B77
:10357000DF4F0FB6F894DEBF0FBECDBFDF91CF9106
:103580001F910F91FF90EF90DF90CF90BF90AF9081
:103590009F908F907F906F9008950F931F93E0916D
:1035A0000001F091010124E0EE0FFF1F2A95E1F7E1
:1035B000EF50FE4F51819C0144E0369527954A9586
:1035C000E1F7820F931F2A98F89470E0751708F0BE
:1035D00050C005B10F7E18B11F7E70FD006171FDF6
:1035E000106105B918B961112DC0A0E840E04BB9D0
:1035F0002898289AB6B1BF709C0124272327E22F70
:10360000F0E0E255FC4F2081B21729F0789463E096
:1036100084E00E943B1821E0240F2BB92898289AB7
:10362000B6B1FC01E2279F01BF702327E22FF0E033
:10363000E255FC4F2081B213E9CF4E5FA150B9F69D
:103640007F5FC4CF289840E04BB900000000A6B1CE
:10365000AF709C0124272327E22FF0E0E255FC4FB6
:103660002081A213D3CF21E0240F4F3F49F3422FF3
:10367000EBCF7894289A2A9A1F910F9108959F92E0
:10368000AF92BF92CF92DF92EF92FF920F931F9370
:10369000CF93DF93082FF62EE42E94B180958923E3
:1036A00084B997B1862F8095892387B99AB1842FE1
:1036B000809589238AB985B1802B85B988B1862BFD
:1036C00088B98BB1842B8BB985E090E00E94A40768
:1036D0009E2C10E0C9E2D0E088E0A82EB12CDD24B9
:1036E000D394892D8D2161F189818D2989838A81E6
:1036F000CD2CC0948C218A8382E090E00E94A407A4
:103700008E2D8C219F2D112341F0202F2C21C701BC
:10371000113021F09F2D9C218E2D202F33B132238B
:1037200032132CC026B12923291328C099B198231C
:10373000981324C08981C822C9828A818D298A83ED
:10374000DD0C81E0A81AB10861F61F5F133061F447
:10375000DF91CF911F910F91FF90EF90DF90CF906D
:10376000BF90AF909F9008959F2CC6E2D0E011309B
:1037700009F0B2CF902EC3E2D0E0AECF66E080E099
:103780000E943B18CF93DF93EC01FA01DB0130E09C
:1037900020E061E070E0AB01022E01C0440F0A940A
:1037A000EAF7899192E0980F923030F093B1942328
:1037B00019F464E00E943B188D9192E0980F9230CA
:1037C00018F096B19423A9F381918E3F40F02F5FBA
:1037D0003F4F28303105F9F6DF91CF91089599B127
:1037E0009423A9F7E6CF1F93CF93DF93162FD42FFF
:1037F000C22F0E945E13812F0E9445138D1741F046
:10380000289A299A0000000061E08C2F0E943B1842
:10381000299A00000000DF91CF911F910895FF9237
:103820000F931F93CF93DF93C82FD62FF22E162F0F
:1038300000E0411104C0182FC62F0D2FD0E02B98A7
:10384000802F0E945E1360E08D2F0E945013299AF2
:10385000000000008C2F0E945E1361E0812F0E9407
:103860005013299A000000002B9A2F2D40E06D2F55
:10387000802F0E94F31B2F2D41E0612F8C2FDF91B1
:10388000CF911F910F91FF900C94F31BFF920F9318
:103890001F93CF93DF93F82EC62F042FE62FF0E06F
:1038A000E553FD4FD081E0910001F091010134E03A
:1038B000EE0FFF1F3A95E1F7E551FE4F16810E948A
:1038C0005E13F89420E1F29EC001112470E060E0E4
:1038D000A62F611708F040C03D2F3170C430D8F0DA
:1038E000AC01460F571FFA01F695E795F695E79557
:1038F000FF27E255FC4F2081437055274230510588
:10390000E9F043305105E1F041305105A9F0247050
:1039100031E009F430E0AF77ABB90000289800003F
:103920000000289A26B12170321779F07894602F20
:1039300081E08C0F0E943B182695E9CF220FE7CF3C
:1039400044E0249F90011124E2CFC43010F4DD0F35
:10395000D11D6F5F7F4FBCCF299A7894DF91CF91B3
:103960001F910F91FF900895DF92EF92FF920F93B6
:103970001F93CF93DF93EC01162FF42ED22EE02E5F
:103980000E94BC13EF2DF0E0E553FD4F608140989D
:10399000F89483E08F1508F45CC081E001C0880FC3
:1039A000DA94EAF790E050E040E06F704C175D0762
:1039B00009F4BBC005B10B7E192F1170110F110F47
:1039C000012B192F1270110F110F110F012B05B9B7
:1039D0000027192F14701295110F012B192F187031
:1039E00012951695012B192F107816951695012B07
:1039F000192F107212951F70012B192F1074129528
:103A000016951695012B192F107116951695012BE9
:103A10000BB942980000429A06B113B12227302F09
:103A200032703695230F312F387036953695230F27
:103A3000312F3170330F330F230F0870200F722F87
:103A4000980F671709F46EC078946E2D8F2D0E9421
:103A50003B18612F70E0CB0124E0969587952A955D
:103A6000E1F7680F791F41E001C0440FDA94EAF7EB
:103A700050E0B0E0A0E0AC17BD0709F456C005B1B6
:103A80000B7E152F1170110F110F012B152F1270B6
:103A9000110F110F110F012B05B90027152F1470ED
:103AA0001295110F012B152F187012951695012BD9
:103AB000152F107816951695012B152F107212954B
:103AC0001F70012B152F1074129516951695012B4A
:103AD000152F107116951695012B0BB94298429A25
:103AE00006B113B12227302F32703695230F312FB4
:103AF000387036953695230F312F3170330F330FD1
:103B0000230F0870200FD22E540FCD018627972740
:103B10008927E82FF0E0E255FC4F80818D1194CF8A
:103B20001196A9CF4F5F5F4F41CF7894409A449A46
:103B3000DF91CF911F910F91FF90EF90DF9008954B
:103B40006F927F928F929F92AF92BF92CF92DF92AD
:103B5000EF92FF920F931F93CF93DF938C0182EB31
:103B600095E00E9410178EE1A82EB12C90E1C92E8D
:103B7000D12CC4E0D0E02FE1E22EF12C3EE2832EE6
:103B8000912C4DE3642E712C84E298E00E94170E74
:103B9000B0924106A0924006D0924306C0924206DF
:103BA0008DEB91E00E94BD12D0934106C093400678
:103BB000F0924306E092420683EB91E00E94BD1230
:103BC000D0934106C09340069092430680924206ED
:103BD000C8010E94BD12D0934106C0934006709266
:103BE00043066092420687EA91E00E94BD1282EB92
:103BF00095E00E94E6168111C7CFDF91CF911F910A
:103C00000F91FF90EF90DF90CF90BF90AF909F907B
:103C10008F907F906F900895CF93DF93CDB7DEB7ED
:103C2000CA54D1090FB6F894DEBF0FBECDBF4FE323
:103C300044B932E235B92FE127B995E198B987EE59
:103C40008AB944B935B927B998B98AB980E00E94D0
:103C500086130E94C913299885E005B1067F182FA5
:103C60001270110F110F012B182F14701695169545
:103C7000012B05B948B1457F182F1170110F412B49
:103C8000182F1870412B48B9F12C05B10B7E1F2D50
:103C90001170110F110F012B1F2D1270110F110F29
:103CA000110F012B05B900271F2D14701295110F4C
:103CB000012B1F2D187012951695012B1F2D1078B2
:103CC00016951695012B1F2D107212951F70012B42
:103CD0001F2D1074129516951695012B1F2D10711E
:103CE00016951695012B0BB942980000429A299A15
:103CF000449A0E94BC13409880E00E94861305B14C
:103D00000B7E1F2D1170110F110F012B1F2D127023
:103D1000110F110F110F012B05B900271F2D147062
:103D20001295110F012B1F2D187012951695012B4E
:103D30001F2D107816951695012B1F2D10721295B8
:103D40001F70012B1F2D1074129516951695012BBF
:103D50001F2D107116951695012B0BB94298000076
:103D6000000006B113B12227302F32703695230F91
:103D7000312F387036953695230F312F3170330F30
:103D8000330F230F0870200F822F429A409A449AD3
:103D90008F70E82E25E08213A1C080E00E94861378
:103DA0000E94C913299805B1067F1E2D1270110FAC
:103DB000110F012B1E2D147016951695012B05B9A8
:103DC00048B1457F1E2D1170110F412B1E2D18700B
:103DD000412B48B905B10B7E1F2D1170110F110F2A
:103DE000012B1F2D1270110F110F110F012B05B98F
:103DF00000271F2D14701295110F012B1F2D187005
:103E000012951695012B1F2D107816951695012BDE
:103E10001F2D107212951F70012B1F2D10741295FB
:103E200016951695012B1F2D107116951695012BC1
:103E30000BB942980000429A299A449A0E94BC13F6
:103E4000409880E00E94861305B10B7E1F2D1170F3
:103E5000110F110F012B1F2D1270110F110F110FC8
:103E6000012B05B900271F2D14701295110F012B7E
:103E70001F2D187012951695012B1F2D1078169571
:103E80001695012B1F2D107212951F70012B1F2DDF
:103E90001074129516951695012B1F2D10711695FD
:103EA0001695012B0BB942980000000006B113B122
:103EB0002227302F32703695230F312F38703695E8
:103EC0003695230F312F3170330F330F230F0870C6
:103ED000200F822F8F708F3009F072C08FEF9FEF0D
:103EE0009093010180930001809100019091010164
:103EF0008F3F980709F0CCC084B1807E8D6184B972
:103F000087B1807E876187B98AB1876E8AB92B9A1B
:103F1000429A419A90E080E00E9420152B984098A8
:103F2000419842980000429A419A2B9A90E080E092
:103F30000E9420152B9842980000000086B1429AFA
:103F40002B9A83FD32C084B1807E8D6184B987B1A4
:103F5000807E876187B98AB1876E8AB92B9A429A27
:103F6000419A60E080E00E944E15082F61E081E0F8
:103F70000E944E15182F90E080E00E9420152B988B
:103F800042980000000086B183FB882780F9429A9E
:103F90002B9A01110AC0112341F0811106C089E05A
:103FA00090E0909301018093000180910001909135
:103FB00001018F3F980709F06BC060E080E0EFC01F
:103FC000429A409A80E00E9486130E94C913299861
:103FD00005B1067F1F2D1270110F110F012B1F2D20
:103FE000147016951695012B05B948B1457F1F2D04
:103FF0001170110F412B1F2D1870412B48B905B1BD
:104000000B7E1F2D1170110F110F012B1F2D127020
:10401000110F110F110F012B05B900271F2D14705F
:104020001295110F012B1F2D187012951695012B4B
:104030001F2D107816951695012B1F2D10721295B5
:104040001F70012B1F2D1074129516951695012BBC
:104050001F2D107116951695012B0BB94298000073
:10406000429A299A449A81E00E94D013882341F011
:1040700083E090E09093010180930001449A34CF53
:1040800080E80E94D0138111F3CF84E090E0F2CF5A
:1040900004E0880F991F0A95E1F7FC01E551FE4FF6
:1040A000808191810E94A01D809100019091010169
:1040B000099709F097C384B1807E8D6184B987B177
:1040C000807E876187B98AB1876E8AB94FE760E0E1
:1040D00085E10E943F1B84B1807E8D6184B987B1E8
:1040E000807E876187B98AB1876E8AB91BB8E091F3
:1040F0000001F091010114E0EE0FFF1F1A95E1F7A6
:10410000E551FE4F86819781248135812150310907
:10411000E12C2115310521F0E39436952795F9CF4F
:104120000197F12C009721F0F39496958795FACF9B
:1041300010E000E088248394912CD02E0E1508F016
:104140003BC090E080E00E9420152B98409890E0C2
:1041500080E00E942015419842980000429A419ABE
:104160002B9A5401002E02C0AA0CBB1C0A94E2F741
:10417000C5010E9420152B98409A90E080E00E9493
:104180002015419842980000429A419A2B9A90E05B
:1041900080E00E943D15882321F061E0802F0E947D
:1041A0003B18C5010E943D150F5F1F4F813009F478
:1041B000C4CF61E08D2DF3CF10E000E0AA24A394DA
:1041C000B12CE02E0F1508F03FC090E080E00E9477
:1041D00020152B98409890E080E00E94201541988F
:1041E00042980000429A409A6501002E02C0CC0C11
:1041F000DD1C0A94E2F7C6010E94201541984298FE
:104200000000429A419A2B9A90E080E00E9420158B
:104210002B9890E080E00E9420154298000000005A
:10422000339B04C061E080E18E0DB9CF429AC60194
:104230000E9420154298000000000F5F1F4F339B23
:10424000F1CF429A2B9ABDCF5BEC252E52E0352E52
:10425000F12C68E0E62E6E0171E4C70ED11C73E408
:10426000472E512C4C0E5D1E82E0480E511C46011B
:1042700092E0890E911CD1018D911D0183FB1127C4
:1042800010F9B1E0BF1510F00C940028880F811DC3
:10429000887090E0111198E026969FAF269700E075
:1042A000882311F001E088E027968FAF2797CE0191
:1042B00001960E94751388B1807E982F9460192B07
:1042C00024961FAF2497982F9461092B25960FAF42
:1042D0002597982F9660F601908386618183F894E4
:1042E000B12CA12C2B9AC5010E9420152B9885B1C9
:1042F0008A7EDE01AD5BBF4F9D9198B906E515E062
:10430000F8019491982B95B99E012F5F3F4F390189
:10431000F30191913F019BB94298429AEC15FD053A
:10432000B9F70F5F1F4F2EE535E02017310741F732
:10433000A415B50509F7419A2B9A3FEFA31AB30AC2
:10434000A11464E0B60671F67894F894B12CA12C0F
:104350002B9AC5010E9420152B9845B14A7E2996BB
:10436000DFAECEAE2997CE018B5B9F4F2996AEADC7
:10437000BFAD29972D912996BFAFAEAF299728B928
:10438000FC015191CF01E6E5F5E02491242B25B9FC
:104390009E012F5F3F4FD9016D919D016BB94298EE
:1043A000429A66B1652763FF07C0429A78942B9AB8
:1043B00062E081E08F0DF3CE6A167B0661F7429AC8
:1043C00031960E171F0709F729962EAD3FAD299795
:1043D0008216930659F62B9A3FEFA31AB30AA1143B
:1043E00064E0B60609F0B4CF7894F39474E0F71261
:1043F00042CF36E5432E35E0532E44E1E42E10E063
:1044000000E0CE0101960E94751388B1807E982F3E
:104410009460D6019C93846111968C93380194E04A
:10442000769467949A95E1F7600E711E2B9AC801F5
:104430000E9420152B984198F89485B18A7E289681
:104440008FAF2897560170E060E0F50181915F0120
:1044500026E435E0A6E5B5E0282EE89420F8382ECD
:10446000689430F8FD01849128969FAD2897892B98
:1044700085B9F90185909490862A972AFE01319694
:104480002B96FFAFEEAF2B9750E040E0C401842B9A
:10449000952B86259725892790E082559C4FFC0116
:1044A000808183FF74C038B82B96EEADFFAD2B979B
:1044B00081912B96FFAFEEAF2B978BB94298429A22
:1044C0004E5F5F4F4038510509F711962E5F3F4F01
:1044D0004216530609F0C6CF6130710509F054C089
:1044E0007894419A2B9A2B9AC8010E9420152B98F8
:1044F0002B9AE0910001F091010184E0EE0FFF1F83
:104500008A95E1F7E551FE4F8481958101978017E7
:10451000910709F03EC03380B12CA12C3F012FE060
:10452000620E711CE30DF11DBF01675F7F4F29967D
:104530007FAF6EAF299748018318910837FC939499
:10454000832D8A1987FD39C0D3018C918E9DC001BE
:1045500011240E94A4072996EEADFFAD2997808112
:104560008E9DC00111240E94A4076F2DC4018A0DE5
:104570009B1D0E942D1AFFEFAF1ABF0AE1CF0E94C8
:104580000B1025E0F22E3BCF61E070E05ECF28B843
:104590008BCFA380B12C0A151B0508F41AC1EA0DB4
:1045A000FB1D81858E9DC00111240E94A4076F2DE3
:1045B000C8018A199B090E942D1A0F5F1F4F011510
:1045C00024E0120709F01DCF35E0F312D8CF809117
:1045D0000001909101018430910509F071C40E949D
:1045E000C913429AF12CE12CF701E255FC4F1081DE
:1045F0001F708E2D0E948613299830E020E0812FB5
:1046000090E0A901440F551FFC0102C0F595E79504
:104610004A95E2F75E2F537005B1067F152F127091
:10462000110F110F012B152F147016951695012BD4
:1046300005B948B1457F152F1170110F412B152F6A
:104640001870412B48B905B10B7E122F1170110F54
:10465000110F012B122F1270110F110F110F012BBF
:1046600005B90027122F14701295110F012B122F6C
:10467000187012951695012B122F10781695169515
:10468000012B122F107212951F70012B122F107414
:10469000129516951695012B122F107116951695D9
:1046A000012B0BB942980000429A2130310509F0E4
:1046B0008CC4299A0E946D13FFEFEF1AFF0AE114D0
:1046C00021E0F20609F090CF299A1AE0E12CFF24AC
:1046D000F3940E946D138FE090E00E94A407000005
:1046E00000000000000000000000000000000000CA
:1046F000000031E0E31AF10861F7115039F70E9428
:10470000BC13F12CE12CF701E255FC4F10811F7016
:104710008E2D0E948613409850E040E0812F90E05B
:1047200005B10B7E142F1170110F110F012B142FD7
:104730001270110F110F110F012B05B90027142F43
:1047400014701295110F012B142F187012951695D5
:10475000012B142F107816951695012B142F10721B
:1047600012951F70012B142F107412951695169523
:10477000012B142F107116951695012B0BB9429829
:104780000000000006B113B12227302F3270369599
:10479000230F312F387036953695230F312F317016
:1047A000330F330F230F0870200F622F429A63706C
:1047B0009A01220F331FDC0102C0B595A7952A95F7
:1047C000E2F79D012370621709F405C4449A409AE8
:1047D000E5C3E00FF11F81858E9DC00111240E9469
:1047E000A407EBCE0FE304B912E215B94CEF60E079
:1047F00084E10E943F1B04B915B987EE8AB91BB842
:104800004091000150910101FA0114E0EE0FFF1FE9
:104810001A95E1F7E551FE4FE480F5808681978196
:10482000970121503109B12C2115310521F0B394A4
:1048300036952795F9CF0197C12C009721F0C394A5
:1048400096958795FACFA12CD12C4330510521F4B0
:10485000AA24A394F2E0DF2EF694E7940E94C913F1
:10486000299810E000E088248394912C0B15B0F473
:1048700045E06D2D90E080E00E94C91400004AE000
:104880006D2DC401002E02C0880F991F0A94E2F713
:104890000E94C91400000F5F1F4FE8CF299A0E94A1
:1048A000BC13409810E000E088248394912C702E73
:1048B0000B15C8F46D2D90E080E00E9476148530D1
:1048C00009F06BCC6D2DC401002E02C0880F991F1A
:1048D0000A94E2F70E9476140F5F1F4F8A3039F373
:1048E00061E0872D5CCC409A0E94C9132998912CD5
:1048F000812C35E0532EB12C4AE0D42E66246394EB
:10490000712C8C1408F0A8C08E2D0E94861305B15E
:10491000067F152D1270110F110F012B152D14701C
:1049200016951695012B05B948B1457F152D1170C7
:10493000110F412B152D1870412B48B905B10B7E75
:104940001B2D1170110F110F012B1B2D1270110F48
:10495000110F110F012B05B900271B2D1470129593
:10496000110F012B1B2D187012951695012B1B2D65
:10497000107816951695012B1B2D107212951F702D
:10498000012B1B2D1074129516951695012B1B2DBE
:10499000107116951695012B0BB942980000429A9A
:1049A000000005B1067F1D2D1270110F110F012B94
:1049B0001D2D147016951695012B05B948B1457F2C
:1049C0001D2D1170110F412B1D2D1870412B48B951
:1049D000C301082C02C0880F991F0A94E2F70A2C21
:1049E00001C0880F0A94EAF705B10B7E182F1170E9
:1049F000110F110F012B182F1270110F110F110F22
:104A0000012B05B90027182F14701295110F012BD7
:104A1000182F187012951695012B182F10781695CF
:104A20001695012B182F107212951F70012B182F3D
:104A30001074129516951695012B182F1071169556
:104A40001695012B0BB942980000429A449A000037
:104A50006FEF861A960A55CF299A0E94BC13409888
:104A6000912C812CB12C66246394712CD82C8C143D
:104A700008F0AFC08E2D0E94861305B10B7E1B2D52
:104A80001170110F110F012B1B2D1270110F110F2F
:104A9000110F012B05B900271B2D14701295110F52
:104AA000012B1B2D187012951695012B1B2D1078BC
:104AB00016951695012B1B2D107212951F70012B48
:104AC0001B2D1074129516951695012B1B2D107128
:104AD00016951695012B0BB942980000000006B1FF
:104AE00013B12227302F32703695230F312F3870B3
:104AF00036953695230F312F3170330F330F230F37
:104B00000870200F822F429A8F70853029F0449AC6
:104B100061E080E18D0D43CB0000C301082C02C091
:104B2000880F991F0A94E2F70A2C01C0880F0A9493
:104B3000EAF705B10B7E182F1170110F110F012B21
:104B4000182F1270110F110F110F012B05B900272B
:104B5000182F14701295110F012B182F1870129521
:104B60001695012B182F107816951695012B182FD6
:104B7000107212951F70012B182F10741295169534
:104B80001695012B182F107116951695012B0BB940
:104B900042980000000006B113B12227302F327076
:104BA0003695230F312F387036953695230F312FD8
:104BB0003170330F330F230F0870200F822F429A6A
:104BC0007FEF871A970A8F70449A8A3009F44ECF84
:104BD0009FCF409A8BEC882E82E0982EF12C2224D5
:104BE000239494E1492ED12CC12C80910001909105
:104BF0000101FC0104E0EE0FFF1F0A95E1F7E5510A
:104C0000FE4F24813581C216D30608F04BC1A68021
:104C1000B780EC2C55245394039709F0512C8E2D1A
:104C20000E94861329980E94C913D4018C9105B162
:104C3000067F182F1270110F110F012B182F1470EF
:104C400016951695012B05B948B1457F182F11709F
:104C5000110F412B182F1870412B48B9F894B3E06D
:104C6000BF1508F444C0422D052C01C0440F0A941E
:104C7000EAF730E020E080E0982F940FA216B30608
:104C800009F4A3C0429A05B10B7E182F1170110FC1
:104C9000110F012B182F1270110F110F110F012B73
:104CA00005B90027182F14701295110F012B182F1A
:104CB000187012951695012B182F107816951695C9
:104CC000012B182F107212951F70012B182F1074C2
:104CD000129516951695012B182F1071169516958D
:104CE000012B0BB942982F5F3F4F892FC5CF9601FB
:104CF00014E0369527951A95E1F72F7033272C0D80
:104D0000311DB22D052C01C0BB0F0A94EAF770E0EB
:104D100060E050E0AB2FA50FA616B70609F455C00A
:104D2000429ACB01822793278927E82FF0E0E255AA
:104D3000FC4F808105B1067F182F1270110F110FE3
:104D4000012B182F147016951695012B05B948B133
:104D5000457F182F1170110F412B182F1870412B00
:104D600048B905B10B7E152F1170110F110F012BD2
:104D7000152F1270110F110F110F012B05B90027FC
:104D8000152F14701295110F012B152F18701295F5
:104D90001695012B152F107816951695012B152FAA
:104DA000107212951F70012B152F10741295169505
:104DB0001695012B152F107116951695012B0BB911
:104DC00042986F5F7F4F5A2FA5CF7894299A429AC5
:104DD000E3E002E0EF1508F052C08E2D0E9486132A
:104DE0000000449A96013327E0910001F0910101FF
:104DF000B4E0EE0FFF1FBA95E1F7E551FE4F848155
:104E00009581019713818217930761F53F012FE088
:104E1000620E711CBF01625F7F4F29967FAF6EAF3C
:104E2000299717FD32C0D3018C91849DC0011124B4
:104E30000E94A4072996EEADFFAD29978081849D3D
:104E4000C00111240E94A4073E2C311A832D0E9418
:104E5000861303E0252D4F2D632DC5010E94B41C40
:104E60001150DFCFE116A8F08685849DC001112482
:104E70000E94A407E11A8E2D0E94861303E0252DBF
:104E80004F2D6E2DC5010E94B41CFFEFCF1ADF0A13
:104E9000ACCEE20FF31F8185849DC00111240E94D6
:104EA000A407F3CFF39426E0F21609F490CB85E043
:104EB000F81202C00E940B109FEF891A990A93CE34
:104EC000099709F080C0429A10E000E0F801FF273E
:104ED000E255FC4FC080C8010E9420152B984198D4
:104EE000F12CE12CD12CC6010E2C02C09595879592
:104EF0000A94E2F780FF55C0409AC7010E9420152E
:104F000042980000429A3FEFE31AF30A68E0E6167F
:104F1000F10449F7419A0E9465130F5F1F4F011575
:104F200074E0170799F6419A1AE0E12CA2E0FA2EF4
:104F30000E9465138FE090E00E94A407000000002B
:104F4000000000000000000081E0E81AF10881F78D
:104F5000115059F710E000E0F801FF27E255FC4F2F
:104F6000C080C8010E9420152B98F12CE12CD12C77
:104F7000C7010E94201542980000000086B1429AA5
:104F800083FB882780F996010E2C02C03595279562
:104F90000A94E2F72170281731F02B9A65E00C94FF
:104FA000DE1F4098AACF9FEFE91AF90AA8E0EA1697
:104FB000F104F1F60E9465130F5F1F4F0115B4E075
:104FC0001B0709F0C9CF0E94B81721E030E019CBC8
:104FD00041E050E0A5CB41305105D1F7409A0E9405
:104FE0006D13BFEFEB1AFB0AE114E1E0FE0659F383
:104FF0008ACB26961FAE269700E080E00C945421C1
:105000001123B9F32696EFAE2697012F0C94532166
:105010001F920F920FB60F9211242F933F938F93ED
:105020009F93AF93BF938091A4039091A503A09108
:10503000A603B091A7033091A30323E0230F2D37DC
:1050400068F126E8230F0296A11DB11D2093A3034A
:105050008093A4039093A503A093A603B093A70302
:105060008091A8039091A903A091AA03B091AB03EA
:105070000196A11DB11D8093A8039093A903A0934D
:10508000AA03B093AB03BF91AF919F918F913F91D2
:105090002F910F900FBE0F901F9018950196A11D94
:1050A000B11DD4CF1F920F920FB60F9211242F93E0
:1050B0003F934F935F936F937F938F939F93AF93A0
:1050C000BF93EF93FF938091B900887F803609F4F6
:1050D0004AC0F0F5883209F4A5C018F5803109F40A
:1050E00099C0B8F4882309F4EFC0883009F492C05D
:1050F000FF91EF91BF91AF919F918F917F916F91B0
:105100005F914F913F912F910F900FBE0F901F9085
:105110001895883109F486C0803251F78093930343
:1051200014C0803409F497C040F48033B9F3883355
:10513000F9F68093930385ECA8C0803509F481C00B
:10514000883509F490C0883499F60E94AA08D0CF17
:10515000883909F486C038F5883729F050F4883644
:1051600011F0803729F683E0809394031092920324
:1051700055C0883809F475C0803919F0803809F0B5
:10518000B7CF80919203803208F06BC0E091920318
:1051900081E08E0F809392038091BB00F0E0EE5887
:1051A000FC4F80833BC0803B39F0D0F4803A09F457
:1051B00071C0883A09F09CCF84E0809394031092E8
:1051C000710310927003F0E0E0E0099580917003A4
:1051D00081110FC081E0809370031092500309C0C9
:1051E000803C09F4A8CF883C09F4A5CF883B09F09E
:1051F0007FCFE091710381E08E0F80937103F0E027
:10520000E05BFC4F80818093BB00909171038091A3
:10521000700325C0809199038093BB0085EC809337
:10522000BC0066CF9091980380919703981728F55A
:10523000E091980381E08E0F80939803F0E08081E5
:10524000EBCFE091980381E08E0F809398038091DB
:10525000BB00F0E0808390919803809197039817AA
:10526000E8F285E8DCCFE091980381E08E0F80932F
:1052700098038091BB00F0E08083809196038111B8
:1052800064CF81E08093950384EA8093BC00109200
:1052900094032ECF85EC8093BC00109294038091F0
:1052A0009203803230F4E0919203F0E0EE58FC4F2C
:1052B00010826091920370E082E793E0F0E0E0E01A
:1052C00009951092920314CF109293033ECFEC01F4
:1052D00082EB95E00E94101732E3A32EB12C41E23D
:1052E000C42ED12C5AE0E52EF12C60E3862E912CB1
:1052F00077E0772E00E410E08AE797E00E94170E2F
:10530000B0924106A0924006D0924306C092420657
:1053100082E294E00E94BD1284E298E00E94170E9F
:10532000F0924106E0924006909243068092420637
:1053300082E194E00E94BD122C813D81729EC001E9
:10534000739E900D1124969587959801281B390B13
:105350003093410620934006109343060093420683
:10536000CE010E94621082EB95E00E94E616811148
:10537000C3CF84B1806384B92D9A2C98FFCF3F921C
:105380004F925F926F927F928F929F92AF92BF9255
:10539000CF92DF92EF92FF920F931F93CF93DF9301
:1053A0004C0182EB95E00E9410170DE310E02DE711
:1053B00030E043E050E063E470E082EB95E00E946F
:1053C000B60B882309F464C022E4A22E22E0B22E98
:1053D000C3E0D0E02E018FEF481A580A82012DE772
:1053E00030E0AE0163E470E082EB95E00E94B60B22
:1053F000882309F445C030903C06750183E4682E8B
:10540000712C9AE3C92ED12C11E0F70184918123EC
:1054100030E020E0F70181111FC09491912351F0F9
:1054200080913B06811126C081E0311080E080939D
:105430003C0617C02F5F3F4FFFEF6F1A7F0A110F17
:1054400021F49FEFE91AF90A11E0E1E0CE1AD10840
:1054500009F7882329F303C09491912359F73092D7
:105460003C06B301621B730B00E0AE0182EB95E0DA
:105470000E94A30CC114D10409F0C7CF30923C069E
:10548000F8E0AF0EB11CE201CD33D10509F0A2CF97
:1054900087EB96E00E94170E82E190E09093410620
:1054A00080934006E2E2F0E0F0934306E093420688
:1054B00080E492E00E94BD1284E298E00E94170E00
:1054C000109241061092400684E390E090934306C8
:1054D00080934206C4010E9462108EEE95E00E9405
:1054E000170E00E410E020E430E048E350E070E004
:1054F00060E082EB95E00E94B60B882381F0C8E360
:10550000D0E000E020E430E0AE0170E060E082EB4B
:1055100095E00E94A30C2196C034D10591F780E05C
:105520000E94DD061092410610924006EFE3F0E083
:10553000F0934306E09342068AE392E00E94BD1294
:105540008CE596E00E94621086E392E00E94BD1214
:1055500081E00E94DD0682EB95E00E94E616811153
:1055600024CFDF91CF911F910F91FF90EF90DF90AB
:10557000CF90BF90AF909F908F907F906F905F90F3
:105580004F903F9008957F928F929F92AF92BF92DB
:10559000CF92DF92EF92FF920F931F93CF93DF93FF
:1055A0008C017B01D42FE0910001F091010154E0C6
:1055B000EE0FFF1F5A95E1F7E551FE4F80854198A8
:1055C00039986B0164E0D694C7946A95E1F7CE0CE4
:1055D000DF1C81FF3FC016950795912C812C081583
:1055E000190509F4C1C0C4018C259D258927E82F20
:1055F000F0E0E255FC4F7080A72CB12CB594A79435
:10560000C72DCC0FB72CBB0CBB0CC7010E947C155F
:105610002998C4010E947C154398439A96B14398F7
:10562000439A86B14398439A36B14398439A26B138
:10563000C327B226CB297926C729A826AC2AA2FEE1
:105640008EC0439A299A80E88816910408F485C090
:1056500082E05BC0C7010E94AE15F89435E0169554
:1056600007953A95E1F790E080E0901708F04AC07E
:10567000692F70E0FB01E252FA4F4491FB01E253C3
:10568000FA4F3491FB01E254FA4F2491A5B1AA7E5E
:10569000A42BB8B1BC7EB32BCBB1CC73C22B25E00D
:1056A000660F771F2A95E1F712E0943008F411E0B5
:1056B0004FE150E0FA01E256FA4FE491EA2BE5B9E6
:1056C000FA01E258FA4FE491EB2BE8B9FA01E25AF9
:1056D000FA4FE491EC2BEBB943989B01242B352B2B
:1056E0002C253D25B6B02327E22FF0E0E255FC4FF4
:1056F00020812B2522FD812B439A41505109D0F660
:105700009F5FB3CF439A7894299A399A8823B9F046
:1057100020E8E216F10450F122E001C0880F2A953A
:10572000EAF79091AD03892B8093AD038F3039F464
:105730008091AC038823E1F082E08093AC03DF9199
:10574000CF911F910F91FF90EF90DF90CF90BF907E
:10575000AF909F908F907F90089581E0D6CF299A47
:105760002FEF821A920A3BCF80E0CFCF20E0D5CF37
:1057700063E081E08D0F0E943B1884E496E00E9474
:1057800098168AE496E00E94981680E596E00E94BA
:10579000981686E596E00E9498168CE596E00C94A3
:1057A0009816CF9363EE72E08CE596E00E94A01607
:1057B0001092B1051092B00581E696E090933F06F5
:1057C00080933E06109241061092400610924306C6
:1057D000109242061092CA0585ED92E09093AF05B3
:1057E0008093AE051092B3051092B2051092C705D2
:1057F0001092BE051092BF051092C0051092C1050F
:105800008FEF8093C8058093CC05E0EDF5E086EE40
:1058100095E0CFEFC1938E179F07E1F783E899E0FA
:105820009093B7058093B6058AEE9AE09093B905F8
:105830008093B8058DE39FE09093BB058093BA05F4
:1058400087E098E09093BD058093BC0530E020E0B0
:1058500040E069E082EB95E00E94830910920D061A
:1058600010920C068BE696E09093E7058093E60590
:105870008EEA94E09093EB058093EA0582E08093B2
:10588000EC051092ED0510921B0610923B0610924B
:10589000370681E080933C0680933D068DED92E0D3
:1058A0009093E9058093E80582EB95E00E94640BF4
:1058B000109205061092040610920906109208062E
:1058C0008FEF9FEF909307068093060690930B0649
:1058D00080930A06E091E805F091E9050280F381E2
:1058E000E02D82EB95E009958AED96E090930F0606
:1058F00080930E0610921E068DE08093DC058CE0EE
:105900008093DD05C093DB0563EE72E086E596E0EB
:105910000E94A01663EE72E080E596E00E94A01659
:1059200063EE72E08AE496E00E94A01663EE72E0F5
:1059300084E496E0CF910C94A016CF93DF93CDB77B
:10594000DEB7EA970FB6F894DEBF0FBECDBF7894EE
:1059500084B5836084BD85B5836085BD80916E000C
:10596000816080936E0082E080938100809181004D
:1059700081608093810080918000816080938000AD
:105980008091B10084608093B1008091B00081600B
:105990008093B00087E880937A001092C100E09174
:1059A000B605F091B70530E020E040E06AE082EB18
:1059B00095E0099582EB95E00E94101782EB95E047
:1059C0000E94E616182F8111F9CF60E082EB95E076
:1059D0000E94CE0EE091B605F091B70530E020E0D0
:1059E00040E06BE082EB95E00995E091B605F0911F
:1059F000B70530E020E040E06BE082EB95E00995F0
:105A000084B1807E84B987B1807C87B91AB883E17C
:105A10000E941107019729F48091A2038B5F809364
:105A2000A20383E00E941107019729F48091A20349
:105A30008C5F8093A20382E00E941107019729F4F2
:105A40008091A2038E5F8093A2038091A2039EEFB8
:105A5000980F943008F4E6C1823008F0D3C161E0B9
:105A60008DE00E94680761E08CE00E94680769EEA3
:105A700072E0CE0101960E94A016CE0101960E940E
:105A8000BF29CE0101960E94981610FD65C12D9A7E
:105A90002C986AEF70E080E090E00E94D4071F5FCE
:105AA0001A3099F72D982C9884E298E00E94170EEE
:105AB0002D982C9AEDE8EE2EE1E0FE2EF0E9CF2EA7
:105AC000F1E0DF2E01E0F70111917F0161E0812F0C
:105AD0000E94680761E0812F0E943A078AE090E007
