:100000000C9484040C94AC040C94AC040C94AC04D8
:100010000C94AC040C94AC040C94AC040C94AC04A0
:100020000C94AC040C94AC040C94AC040C94AC0490
:100030000C94AC040C94AC040C94AC040C94AC0480
:100040000C94FC250C94AC040C94AC040C94AC04FF
:100050000C94AC040C94AC040C94AC040C94AC0460
:100060000C94AC040C94AC043231313420314B7814
:100070003400343136342036344B783120326D73CD
:10008000003430323720344B783100343831362068
:1000900031364B783100343131362031364B7831BE
:1000A0000034313130303020314D78310035313449
:1000B00034303220314D78342D53430035313434CF
:1000C000303020314D7834003531343235382032FB
:1000D00035364B78342D53430035313432353620A4
:1000E0003235364B783400343436342036344B785D
:1000F0003400343431362031364B783400343132E8
:100100003537203235364B78312D4E4D0034313273
:100110003536203235364B7831003431363420369E
:10012000344B783120346D73002D3330002D323054
:10013000002D3435000001040510111415001004C1
:100140001401110515436865636B696E672E2E2EC9
:100150000044657465637465643A0052414D2D54E2
:100160004553544552005352414D204572726F72AF
:10017000004342522054696D6572206661756C744B
:100180000053686F72742050696E20004572726F60
:10019000722052616E646F6D4461746100457272C9
:1001A0006F7220436865636B6572626F6172640091
:1001B00053686F727420416464726573736C696E06
:1001C0006521003F00416464726573736C696E65FC
:1001D0002041004200446566656374206F72206EA2
:1001E0006F2052414D21002033324B0052756E205A
:1001F0004E722E0041004342523A00111213212246
:10020000313332342341144211247FF8CF1F417619
:1002100056105D515B175D944D175D6F4517413565
:100220005C107F55D51F003A0F005255B505A95BEC
:100230009A1DD6033517BCDAAE1BC92B8A101701DD
:100240004315F8D075119F96A10A55E021190F6D3D
:10025000F413FCBF861210951709C319F31300C9D4
:1002600011157F805B1941521E035DB5FC015D5283
:1002700081085D503D1E4105D21A7FD2360B2033D6
:100280003200352E302E35005665722E3A00480069
:100290004F4646004F4E003A200044495000546FEC
:1002A00067676C65202D3E205245534554004469D4
:1002B00073702E44696D004C6F6F700033324B20A9
:1002C000456E612E0053656C66205465737420463C
:1002D00061696C2100420053657475700053686F4A
:1002E000727473205A49462F5A49500053656C6600
:1002F0002054657374204F4B005769726520506914
:100300006E32302D3E616C6C004E6F2053686F7200
:10031000747320666F756E6400436865636B696E05
:10032000672053686F727473005265736973746FDA
:100330007273204F4B005265736973746F72730050
:1003400053656C662054657374000080008040C063
:1003500040C00080008040C040C00000000000009D
:100360000000010101010101010100000101000083
:1003700001010000010100000101333733322D4C2F
:100380002F343533322D3300333733322D482F3469
:100390003533322D3300333733322D4C2F34353350
:1003A000322D3400333733322D482F343533322D4C
:1003B0003400333733322D4C00333733322D48007D
:1003C000343533322D3300343533322D340034316B
:1003D0003634206F722033324B78310043686563C6
:1003E0006B20444950001400020203030204040479
:1003F00006000006FF06FF0000000000AC2005809C
:10040000DE002E06D2D88C003007F3D855AE0A3164
:1004100007F3D825D91A320AB4D8A998412C470035
:10042000330BB4D88C0C9246322900340AB4D84627
:10043000558D984102350AB4D80C0D3692490136D3
:100440000AB4D8A90C56944901370BB4D88C0C6265
:1004500006318308380AB4D8A99854944901390A56
:10046000B4D8A928D30649013A07EAD88C380256ED
:1004700008B4D84467920A6509A4D8A93432500058
:100480006908F3D86524AB016E07A4D8AC68066F81
:1004900008A4D8A92893027208A4D8ACA84106736E
:1004A00008A4D80D8D860200000004FFFF000003A1
:1004B0000005050606050207202000002000200098
:1004C0000000000000A64332D087071B2319CA484A
:1004D000863292A18C64282738C2098E3254A10C2E
:1004E00055AC4215AB588479823318B214E520E834
:1004F00048C622D8D0840500473E1C080533E21ABE
:10050000D6A84745283215A9440632AF798E2B4824
:10051000D10C62308318EB20873AC8911072248482
:10052000200821C8B18C5530828D852863218B58D5
:10053000C81218F2813F48342008054F421BF89436
:100540008D7CC2682B6088121892064635A94D6CC6
:1005500062D4A2D6C49660B485AE470761548110B8
:100560005620C31DC4908D4D680000000004FFFF9D
:1005700000000200040506060101072020000020FB
:1005800000200000000000008D41402038989107B5
:10059000CC7920A4A6D64AECB4E2A892622A2A8496
:1005A000AA42A632622AAD24314A22A2A612AAD2B7
:1005B0000B337B62A1471881C41B8EB8D20E4B6BE4
:1005C000A9961E08E701431800424B20389891076E
:1005D000CC7920A4A6D64AECB4E2E810458E3908BE
:1005E000A1438E32EA10A488424229A12ABD3033A9
:1005F000CD32BCB42AA194408A28448E32EA90833A
:10060000103AE610450EE24A3B2CADA55A7A209CE2
:10061000070C610000000004FFFF0000400003031E
:100620000304030504060E00FE0AFE0BFE00000094
:10063000000000200500F207210752C3C713012D57
:10064000060ED287012E0612C307012F0E6EBAA71F
:1006500036A14CA82694091501300B56C20F45C48B
:100660009F241400310A56C2976C44D42703320DDC
:1006700056C20F454412CA84328D06330F56C20F3C
:100680004544128AA64212494201340D56C26750AF
:100690006D44D1C5269400350F56C2C72128AC88B9
:1006A000844212494201360E56C2D748422256446D
:1006B0009C241400370C56C2C7214411CA847A0204
:1006C000380F56C20F45C4242151444C120A003938
:1006D0000E56C20F45C4495224514423003A073AEA
:1006E000C70799003D0726CA871D6A3E094EC28783
:1006F00054371D013F0E56C20F45449229AAC384A8
:100700002200410C56C20FE510E274183109420D67
:1007100056C24745C414A988385D00430C56C20F21
:1007200045C4A813494201440C56C20749A2C42F2C
:10073000121200450B56C2C721A858116A34460B45
:1007400056C2C721A85811EA08470D56C20F45C422
:10075000A85262925000480B56C28788D361C49356
:1007600000490956C28749A89F0C4A0B56C2A73EAA
:100770009228A211004B0F56C287882221CD6624F1
:10078000924489244C0856C287507F344D0C56C27F
:100790004770443A1C443C094E0C56C28788546941
:1007A000A17422094F0B56C20F45C49F2414005058
:1007B0000B56C24745C4E922D408520C56C24745DD
:1007C000C474D1C44900531056C20F4544924885A1
:1007D00052898824A100540956C28749A83F01556F
:1007E0000A56C287887F925000560C56C287889F4F
:1007F00024249A0800570C56C28788A7C34325149F
:10080000015A0E56C28751269409654299D000615B
:100810000D3EC20F45249B4848244901620B56C235
:100820008750B122E2E902630B3EC20F4544D42453
:10083000A100640A56C2A796134F9202650D3EC2EC
:100840000F45443A0C45120A00660C56C29F8C2490
:100850001499843A01670E4EBACF4A45D32C5811E9
:10086000492800680B56C28750B122E293006907FD
:1008700052C307E9706B0E56C287505344854492A9
:1008800028D1026C0752C3C783016D0A3EC2874458
:1008900072F840126E093EC24745C427016F0A3EF6
:1008A000C20F45C4938402700B4EBA4745C4D3456A
:1008B0002804720A3EC24745C4A81100730D3EC207
:1008C0000F452491AA88241400740B56C29750C96E
:1008D00024D4750075093EC287884F9202770C3E7A
:1008E000C287887478A8842200780D3EC287882445
:1008F000A1C928229200790E4EBA878824D1693680
:1009000094288D000000A93B11241FBECFEFD8E032
:10091000DEBFCDBF13E0A0E0B1E0E8E5F9E702C03B
:1009200005900D92A632B107D9F725E0A6E2B3E013
:1009300001C01D92A73FB207E1F714E0C4E8D4E07C
:1009400004C02197FE010E949D3CC338D107C9F71E
:100950000E94332E0C94AA3C0C9400008093EF0567
:1009600008959B01DC011896ED91FC9141E067E14F
:1009700009948230910538F0880F991F880F991FCC
:1009800005970197F1F708953FB7F89480915D04BA
:1009900090915E04A0915F04B091600426B5A89B7D
:1009A00005C02F3F19F00196A11DB11D3FBFBA2F01
:1009B000A92F982F8827BC01CD01620F711D811DC1
:1009C000911D42E0660F771F881F991F4A95D1F746
:1009D00008958F929F92AF92BF92CF92DF92EF9243
:1009E000FF926B017C010E94C4044B015C01C114A5
:1009F000D104E104F104B9F00E94C4046819790932
:100A00008A099B09683E73408105910580F321E0C6
:100A1000C21AD108E108F10888EE880E83E0981E1A
:100A2000A11CB11CE4CFFF90EF90DF90CF90BF905E
:100A3000AF909F908F900895982F883028F098EF6E
:100A40008E3008F092EF980F21E030E001C0220FC5
:100A50009A95EAF7662371F0EBE2F0E0883030F027
:100A6000E8E2F0E08E3010F4E5E2F0E08081282B3F
:100A700020830895EBE2F0E0883030F0E8E2F0E027
:100A80008E3010F4E5E2F0E0808120952823F0CF4D
:100A9000982F883028F098EF8E3008F092EF980F5A
:100AA00021E030E001C0220F9A95EAF7613071F43D
:100AB000EAE2F0E0883030F0E7E2F0E08E3010F467
:100AC000E4E2F0E08081282B20830895EAE2F0E060
:100AD000883030F0E7E2F0E08E3010F4E4E2F0E04D
:100AE0009081422F409594239083623059F4EBE239
:100AF000F0E0883038F3E8E2F0E08E3018F7E5E215
:100B0000F0E0E0CFEBE2F0E0883030F0E8E2F0E057
:100B10008E3010F4E5E2F0E0808184238083089534
:100B200080E00895DC011A96ED91FC9130E020E020
:100B300009940F931F93CF93DF9300D000D01F929F
:100B4000CDB7DEB76C834D832B831A830983DC0119
:100B50001496ED91FC919E012F5F3F4F41E06FE0B5
:100B600009950F900F900F900F900F90DF91CF91FC
:100B70001F910F910895DC011696ED91FC9130E0E4
:100B800020E040E069E10994DC011696ED91FC91CA
:100B900030E020E040E068E109949A01DC0116961B
:100BA000ED91FC91462F67E10994EF92FF920F932C
:100BB0001F93CF93DF931F92CDB7DEB77C018B01DC
:100BC000D8016C91673129F150F46531A0F40F9090
:100BD000DF91CF911F910F91FF90EF9008956A31AF
:100BE00018F16E3FA1F7F8014181498369E2C7011D
:100BF0000E9492050BC0F80141814983D7011696E6
:100C0000ED91FC9130E020E0C70109950E5F1F4F88
:100C1000D7CFF80181818983AE014F5F5F4F61E0DB
:100C2000C7010E94CD05F2CF0F5F1F4FD701169667
:100C3000ED91FC9130E020E040E0C7010995C0CF84
:100C4000462FDC011696ED91FC9130E020E066E144
:100C50000994462FDC011696ED91FC9130E020E0DE
:100C600065E10994EF92FF920F931F93CF93DF9367
:100C7000EC01042F79016D3009F446C050F46B305B
:100C8000C9F1693009F49FC06A3009F465C080E099
:100C900046C06E3009F452C06F3099F70E94C40507
:100CA000F7011381110F110F110F6C89160F60E4FA
:100CB000CE010E942906612F62956F706061CE019E
:100CC0000E942906612F6F70CE010E942006F70155
:100CD0006481606BCE010E942006F7014081518142
:100CE0006281660F660F660FCE010E94CD0501502E
:100CF000A1F72EC069E371E0442311F064E371E0D1
:100D0000CE010E94D5050AC0411110C06DE271E00C
:100D10000E94D505E881F98182898C8B81E0DF9181
:100D2000CF911F910F91FF90EF90089566E271E0CF
:100D30000E94D505E881F9818389EFCF0E94C4051F
:100D400061E8CE010E942906602FCE010E94200694
:100D5000CE010E94BB05E2CFEA85FB8530E020E0B2
:100D600040E068E2CE010995EE81FF8130E020E0AD
:100D700040E064E1CE01099541E06BE4CE010E94C0
:100D80009205E881F981448169E2CE010E949205D1
:100D900040E06BE4CE010E949205E881F981448134
:100DA00069E2CE010E94920541E06BE4CE010E940F
:100DB0009205E881F981458169E2CE010E949205A0
:100DC0006EE371E09DCF83E791E0998388831C8A6D
:100DD000A5CFDC011896ED91FC9130E020E040E0D9
:100DE00069E10994DC011896ED91FC9130E020E076
:100DF00040E068E10994CF93DF931F92CDB7DEB74F
:100E00006983BE016F5F7F4F0E94B1040F90DF9135
:100E1000CF910895EF92FF921F93CF93DF93EC0150
:100E2000162F7A010E94F20660E4CE010E94FB06B2
:100E3000E885F9859701412F67E1CE010995CE013B
:100E4000DF91CF911F91FF90EF900C94E906EF9204
:100E5000FF921F93CF93DF93EC01142F790166313A
:100E600081F138F4643109F44BC0653179F080E0E8
:100E700022C06831C9F150F16931C9F780914C0441
:100E8000882391F1CE010E94E9062EC080914C0486
:100E9000882319F0CE010E94E906CE010E94F206D5
:100EA00060E0CE010E94FB06612FCE010E94FB068E
:100EB00081E080934C04DF91CF911F91FF90EF90E0
:100EC0000895642F0E94FB0681E0F5CF80914C04C9
:100ED000882319F0CE010E94E906A701193138F4E0
:100EE000612FCE010E940A0710924C04EDCF68E1F9
:100EF000CE010E940A07185188E1E80EF11CEDCFDF
:100F00008E898F3F11F488E78E8BE885F9859701EC
:100F1000412F64E1CE01DF91CF911F91FF90EF90BF
:100F20000994662329F06A3019F0862F90E008951D
:100F30008FEF9FEF08950F93FC01E05CFF4F01904E
:100F4000F081E02D4E1B5F0BDC01D496ED91FC91FE
:100F500009950F910895CF93DF93FC01A081B18192
:100F600082AD90E09C0143E0220F331F4A95E1F7E8
:100F700037AF26AF50962C91509748E0249F9001B0
:100F8000112435AF24AF23AD30E0B90153E0660F33
:100F9000771F5A95E1F7EF01C05CDF4F79836883D3
:100FA00051964C915197E901C80FD91F50E04C1749
:100FB0005D0718F4CA01821B930BEF01CE5BDF4F74
:100FC00079836883229623E0880F991F2A95E1F799
:100FD000860F971F99838883229654968D919C91B2
:100FE000559799838883E85BFF4F56968D919C9126
:100FF00091838083DF91CF910895AF92BF92CF927A
:10100000DF92EF92FF920F93CF93DF93EC01DA011F
:101010007901942F9770E1E0F0E09F01092E01C063
:10102000220F0A94EAF7522F6E018AE8C80ED11CEB
:10103000F601808140E0823018F4422F813049F17E
:101040005D01F8EFAF22E8ADF9AD28813981D90112
:1010500050968C918A9D90018B9D300D1124620FCA
:10106000731FDF01A60FB71F01111AC0EA0EFB1E86
:101070008C91842B85278D93AE15BF05C9F7DF9121
:10108000CF910F91FF90EF90DF90CF90BF90AF90F6
:10109000089550E0D5CF440F550FE114F10479F3D2
:1010A0003C91342B35273C939F5F9770E1E0EE1A1B
:1010B000F1089111F0CF2CAD3DADA20FB31FF60199
:1010C0008081823028F4813009F051E041E0E5CFA1
:1010D00051E0E3CF0F931F93FC01E25BFF4F0190C0
:1010E000F081E02DDC01A05BBF4F0D90BC91A02DE5
:1010F0004A175B0740F4E017F10748F0041715079B
:1011000030F080E019C0E017F107C0F3FACFFC011E
:10111000E65BFF4F40815181845B9F4FFC018081E2
:1011200091816817790758F481E04217530720F03E
:1011300081E02617370728F71F910F91089542176E
:101140005307B0F3DECF2F923F924F925F926F9290
:101150007F928F929F92AF92BF92CF92DF92EF9247
:10116000FF920F931F93CF93DF93CDB7DEB72A97EC
:101170000FB6F894DEBF0FBECDBF9A878987865B16
:101180009F4F9A838983FC0111821082E985FA8539
:10119000EA5BFF4F4080518029853A85245B3F4FB1
:1011A0003C832B83F90151824082E985FA85EE5B0D
:1011B000FF4F2080318029853A85225B3F4F3E8357
:1011C0002D83F90131822082E985FA85EC5BFF4F9E
:1011D0006080718029853A85205B3F4F38872F8357
:1011E000F90171826082E985FA85E85AFF4FE08053
:1011F000F180E985FA85EC5AFF4FA080B180E9853E
:10120000FA85EA5AFF4FC080D180E985FA85EE5A07
:10121000FF4F8080918087019501A601B4018985E7
:101220009A850E946A0829853A852C573F4F3A874C
:10123000298781111BC0F90110822A960FB6F894F4
:10124000DEBF0FBECDBFDF91CF911F910F91FF90F9
:10125000EF90DF90CF90BF90AF909F908F907F9056
:101260006F905F904F903F902F90089581E0E985B7
:10127000FA8580838114910421F0E981FA819182B9
:101280008082A414B50420F4EB81FC81B182A08299
:101290002C143D0420F4ED81FE81D182C082E6143D
:1012A000F70458F6EF81F885F182E082C6CF0F93FC
:1012B000CF93DF93E02FDC01AC57BF4FFC91FF23AE
:1012C00009F460C02115310509F45CC022303105F4
:1012D00038F0023009F04AC06F5F7F4F621B730B1A
:1012E0000E2F0170E0FD52C0FC01E25BFF4F019048
:1012F000F081E02D4E175F0708F444C0FC01E05B6D
:10130000FF4F0190F081E02D4E175F07D8F5FC01EB
:10131000E45BFF4F0190F081E02DDC01A65BBF4F45
:101320000D90BC91A02D260F371F2617370738F5D3
:101330006E177F0718F59F0121503109A217B307D7
:1013400008F56A177B0708F4BD012E173F0708F45C
:10135000F901E61BF70BEC01AEA9BFA914960D909D
:10136000BC91A02D9F01FD0109950CC0033009F02F
:10137000B7CF4F5F5F4F421B530BB2CFBD016E170C
:101380007F07E0F2DF91CF910F910895FC01E65BBA
:10139000FF4F0190F081E02D6E177F0798F3FC015D
:1013A000E45BFF4F0190F081E02D6E177F0750F74F
:1013B000FC01E05BFF4F0190F081E02DDC01A25BBE
:1013C000BF4F0D90BC91A02D240F351F241735075A
:1013D000A8F44E175F0788F49F0121503109A21726
:1013E000B30780F64A175B0708F4AD012E173F07D5
:1013F00008F4F901E41BF50BAECFAD014E175F0702
:1014000008F6EDCFAF92BF92CF92DF92EF92FF92AC
:101410000F931F93CF93DF936C01EB015A017B0174
:10142000E20EF31E9C01240F351F8701AB01BC01A6
:1014300085E695E00E946A08882361F000E0950146
:10144000AE01B60185E695E00E9457092196EC169B
:10145000FD06A1F7DF91CF911F910F91FF90EF90C3
:10146000DF90CF90BF90AF90089590E080E0089516
:10147000213069F038F0223079F0840F911D47FD5A
:101480009A950895860F911D67FD9A950895841B7E
:10149000910947FD93950895861B910967FD9395E2
:1014A0000895213069F038F0223079F0861B9109D7
:1014B00067FD93950895840F911D47FD9A950895B2
:1014C000860F911D67FD9A950895841B910947FD2C
:1014D000939508953F924F925F926F927F928F9271
:1014E0009F92AF92BF92CF92DF92EF92FF920F93B3
:1014F0001F93CF93DF937C01162F442EEC01C25A29
:10150000DF4F5E806F806C018AE8C80ED11C788442
:101510007518312E711608F4372C8C809D800E853D
:10152000202F462D652D8A819B810E94380A5C01FF
:10153000202F462D652DC4010E94510AAC01442084
:1015400079F08C85F6018083232D30E0B501C70149
:101550000E945709171548F017196394512CD7CFDB
:101560008B858111F7CF8D85EDCF150D1E836F8291
:10157000DF91CF911F910F91FF90EF90DF90CF906F
:10158000BF90AF909F908F907F906F905F904F90A3
:101590003F900895DC011A964C911A97ED91FC91B9
:1015A0001197249130E0042E02C0359527950A94B6
:1015B000E2F7842F860F883068F031961196FC93FD
:1015C000EE93E49198E0941B01C0EE0F9A95EAF730
:1015D0002E2B88501A968C938FEF9FEF01C0880FA7
:1015E0006A95EAF7809582230895FC01E60FF11DC4
:1015F000849190E0982F88273196E4918E0F911D69
:101600000895CF93DF932091BF053091C00528172F
:10161000390709F490C0EC019093C0058093BF0591
:10162000FC0184918093D2053196E491E093D30537
:10163000FE013296E491E093D405FE013396E491E5
:10164000E093D505FE013496E491E093D605FE01C2
:101650003596E491E093D705FE013696E491E09348
:10166000D805FE013796E491E093D905FE0138963E
:10167000E491E093DA05FE013996E491E093DB050D
:10168000FE013A96E491E093DC05FE013B96E4917D
:10169000E093DD05FE013C96E491E093DE05FE015A
:1016A0003D96E491E093DF05FE013E96E491E093E0
:1016B000E005FE013F96E491E093E105FE0170969E
:1016C000E491E093E20561E1CE010E94F50A909376
:1016D000E4058093E30563E1CE010E94F50A90934F
:1016E000E6058093E50565E1CE010E94F50A909339
:1016F000E8058093E7058091BF059091C005892B8F
:10170000D1F08091DF058093EB054091E005409397
:10171000EC059091EA05992371F0913079F490915C
:10172000E105891714F49093EB058091E205841785
:1017300014F48093EC05DF91CF9108953091DC058E
:101740002091DE05082E000C990B622F022E000C52
:10175000770B630F711D37FD7A95861797071CF479
:10176000320F3093EB05241734F72093EC05E3CFC9
:10177000CF93DF93EC016BAFEEA9FFA90190F0814D
:10178000E02D0995EEA9FFA90280F381E02DCE019D
:10179000DF91CF910994AF92BF92CF92DF92EF92F7
:1017A000FF920F931F93CF93DF93EC01AAACEBACA6
:1017B000E881F981B188FE2CD12CC12CE881F98116
:1017C000208908AD19AD88E0289FA00111244C9D07
:1017D000C0014D9D900D5C9D900D1124080F191FA7
:1017E0004F2D60E0CE010E949905F3948F2D8E1944
:1017F0008A1528F48FEFC81AD80AFB14F8F2DF9183
:10180000CF911F910F91FF90EF90DF90CF90BF90FD
:10181000AF900895882361F02C9A2D9A0000000063
:101820000000000000000000000000002D98089556
:101830002C98F3CFCF93C82F80780E940A0C8C2F5E
:1018400080740E940A0C8C2F80720E940A0C8C2FCC
:1018500080710E940A0C8C2F88700E940A0C8C2FB9
:1018600084700E940A0C8C2F82700E940A0C8C2FAC
:1018700081700E940A0C2C9A2D9A00000000000032
:10188000000000000000000000002C9A2D98CF916D
:1018900008950F931F93CF93FC01C42F89016831E2
:1018A00019F148F46431B1F0673159F080E0CF911B
:1018B0001F910F910895693169F16032B9F781E0A4
:1018C000F6CFCC23E1F3F80181918F010E941A0C2D
:1018D000C150F7CF84B1806384B985B1806385B985
:1018E00085B1806385B9EBCF8789882351F02C9A25
:1018F0002D9A000000000000000000000000000021
:1019000000002C9A2C982D9881E0878B86890E9464
:101910001A0CD5CF2C982D9A000000000000000072
:1019200000000000000000002C9A178AC8CF6D321A
:10193000E9F030F4683261F0693289F081E00895AD
:101940006C34D9F06D34D1F74423E9F02C9AF6CFFA
:1019500084B1806384B985B1806385B9EFCF642F8A
:1019600070E090E080E00E94E904E8CF433030F777
:101970008FE090E00197F1F7E1CF442311F02D9A29
:10198000DDCF2D98DBCF2C98D9CF789415B888B1BE
:10199000807F88B98CE18BB914B887B1807C87B916
:1019A0001AB81BB884B1806384B985B18F7C85B9BE
:1019B00080915704853031F484B1807F84B985B13A
:1019C0008F6085B908950E94C50C2D9A2C9868ECFB
:1019D00070E080E090E00E94E9042D982C9868EC7B
:1019E00070E080E090E00E94E904EFCF8230910542
:1019F00029F0039731F02D9A2C9808952D982C9A60
:101A000008952D9AFCCF0F931F93CF938C01C62F6F
:101A1000C150A0F0C8010E94F60C64EF71E080E0B4
:101A200090E00E94E9042D982C98CC2389F364EF70
:101A300071E080E090E00E94E904EACFCF911F912D
:101A40000F910895CF93DF93C82FD62F61E00E94A6
:101A50001C0561E08D2F0E941C0561E08C2F0E9407
:101A6000480561E08D2F0E944805D8E060E08C2F8A
:101A70000E941C0561E08C2F0E941C05D150B1F71B
:101A8000DF91CF91089590917C00907F892B809376
:101A90007C0080917A00806480937A0080917A0043
:101AA00086FDFCCF809178009091790008955F9237
:101AB0006F927F928F929F92AF92BF92CF92DF925E
:101AC000EF92FF920F931F93CF93DF93EC01742E4D
:101AD0007901E0910601F091070124E0EE0FFF1F6C
:101AE0002A95E1F7EA5CFD4F638086179707D1F5E9
:101AF00010E000E0C62C062C000CDD08A62CB12C52
:101B000094E1592ECC19DD09862D801B87FD63C019
:101B1000809006019090070184E0880C991C8A95BA
:101B2000E1F7C601801B910B8A159B054CF4F4016B
:101B3000EA5CFD4F8785859DC00111240E94B90490
:101B4000F401EA5CFD4F8685859DC00111240E9449
:101B5000B904672DCE01800F911FF70109950F5F22
:101B60001F4FD2CF062D10E080179107E0F0868539
:101B7000F4E18F9FC00111240E94B904672DCE01AA
:101B8000801B910BF701DF91CF911F910F91FF9077
:101B9000EF90DF90CF90BF90AF909F908F907F900D
:101BA0006F905F900994E80FF91F8185F4E18F9F92
:101BB000C0011124DF91CF911F910F91FF90EF9001
:101BC000DF90CF90BF90AF909F908F907F906F905D
:101BD0005F900C94B904DF91CF911F910F91FF900A
:101BE000EF90DF90CF90BF90AF909F908F907F90BD
:101BF0006F905F90089580E02FE0E82FF0E0EF59BC
:101C0000FB4F90819227908391E0980F8F3F09F4CA
:101C10000895892FF2CF20E04DE3E22FF0E0249FDA
:101C2000C001112431EE83273CEA932738E0BC0140
:101C30007695679581709927919581959109882767
:101C4000947B86279727315091F7EF59FB4F8927CF
:101C50008F70808381E0820F2F3F09F40895282F31
:101C6000DCCFCF92DF92EF92FF920F931F93CF932F
:101C7000DF936C01EB017B01E40EF51E10E000E048
:101C8000CE15DF0561F06991D601ED91FC910190CF
:101C9000F081E02DC6010995080F191FF1CFC80189
:101CA000DF91CF911F910F91FF90EF90DF90CF9038
:101CB00008952F923F924F925F926F927F928F92F0
:101CC0009F92AF92BF92CF92DF92EF92FF920F93CB
:101CD0001F93CF93DF93CDB7DEB728970FB6F89455
:101CE000DEBF0FBECDBF7C016C0124E0C20ED11C53
:101CF000FC01E057FF4F0190F081E02DC6010995EE
:101D00008C018E3F9F4F08F061C0370184E9680E57
:101D1000711CF3010190F081E02DFD83EC835701EC
:101D2000F2E9AF0EB11CF501808091809701205936
:101D30003F4F3B832A83F9018081813009F470C0D1
:101D400008F45FC0823009F476C0833009F482C0A1
:101D5000F701EC59FF4F9182808232962C813D81B0
:101D60003183208338978081918147969D838C832E
:101D70000F3F110511F008F020C1B696013611058C
:101D800030F40134110558F0F701EE57FF4F808110
:101D900091812C813D81280F391F3D832C838C81BB
:101DA0009D810196FC01249121115FC090E080E0AB
:101DB000EA81FB812081213009F4C1C108F4B7C157
:101DC000223009F4BEC1233009F4C3C181E090E0A0
:101DD00028960FB6F894DEBF0FBECDBFDF91CF912E
:101DE0001F910F91FF90EF90DF90CF90BF90AF9039
:101DF0009F908F907F906F905F904F903F902F902B
:101E00000895F701E05AFF4F0190F081E02DC601DF
:101E100009952C813D81280F391F3D832C8398CF54
:101E2000F701E05AFF4F0190F081E02DC6010995BE
:101E3000881A990A8DCFF701E05AFF4F0190F0817F
:101E4000E02DC6010995EC81FD81E81BF90BFD83AE
:101E5000EC837ECFF701E05AFF4F0190F081E02D37
:101E6000C6010995880E991E73CFEC81FD812491DE
:101E70002017110609F09AC0CF010296009709F4C5
:101E800095CFF701EE59FF4FF887EF839183808359
:101E90001286739660818F8198850E94CA0AEF81AD
:101EA000F8858087F701EA58FF4F60818F81988518
:101EB0000E94CA0A582EEF81F88581879701225720
:101EC0003F4F3D832C83F9019081EF81F885948702
:101ED00081E0911180E0EF81F8858587F701E9586D
:101EE000FF4F8080682D8F8198850E94CA0A382E06
:101EF000F701E858FF4F2080622D8F8198850E945E
:101F0000CA0A982EF701E758FF4F1081612F8F8181
:101F100098850E94CA0A9FEF910F01E010E0980196
:101F200001C0220F9A95EAF7821B8E83EF81F88514
:101F3000408414140CF0C4C08A94C80101C0880FF6
:101F40008A94EAF7381AF685F983950C2A94C80121
:101F500001C0880F2A94EAF7282E29182F2F422D26
:101F6000632DEF81F885828193810E94380A4C01AC
:101F7000EF81F885938382832981422D632D8481AB
:101F800095810E94510AEF81F88595838483F981B8
:101F9000F13009F49AC008F44EC0F23009F4A4C03C
:101FA000F33009F4B5C0BC0194014FC0FC01849129
:101FB0002C813D81280F311DF0CEF701EA57FF4FEC
:101FC00080819181EC81FD81E80FF91FFD83EC8315
:101FD0004F0160E0C4010E94F50A2C813D81280F69
:101FE000391F3D832C8362E0C4010E94F50A34E06E
:101FF000830E911C8017910760F3EC81FD81849121
:1020000090E0982F88273196E4918E2B009709F461
:10201000CDCE0817190721F48C819D8103962ECF10
:10202000EC81FD813296E4912C813D812E0F311D92
:102030003D832C83E2CF9401240D311D47FC3A955A
:10204000BC01650D711D57FC7A958B01AC01B40183
:10205000C6010E946A08882399F1EF81F8851682EB
:1020600017824701F3E78F0E911C24E7E20EF11C63
:10207000F40160818F8198850E94CA0A082FF701B8
:1020800060818F8198850E94CA0A182F40E0602FD6
:10209000C6010E946A0A41E0612FC6010E946A0AD5
:1020A00061E08F8198850E94CA0A8111EFCFEF818C
:1020B000F88587818515E4F28485EC81FD81808334
:1020C000FE818F2FFF0F990B73CE0519110957FC55
:1020D000139594012F5F3F4FBC01640D711D47FCA8
:1020E0007A95800E911EB1CFA8014419510947FC81
:1020F000539594012F5F3F4F0519110957FC139514
:10210000BC016F5F7F4F800F911F840E951E9DCF86
:102110009401250D311D57FC3A950419110947FC0E
:102120001395BC016F5F7F4F800F911F8ECFF5011C
:1021300020813181820F931F9183808347CEF301E9
:10214000F7CFF50120813181281B390B31832083A2
:102150003DCEF301F7CF0F931F93CF93DF938C0105
:10216000D0E0C0E0F801EC0FFD1F6491662341F060
:1021700081E695E00E94590E892B11F02196F2CF4D
:10218000CE01DF91CF911F910F910895089590E0B6
:1021900080E00895299A2898299800000000299A3B
:1021A000289A08950F931F93299A05B10F7E18B1AD
:1021B0001F7E90FD006191FD106105B918B98BB9C2
:1021C00029981F910F9108950F931F93299A28E042
:1021D000000029980000299A2150D1F7289A05B1CA
:1021E0000F7E18B11F7E90FD006191FD106105B951
:1021F00018B98BB9299805B10F7E18B11F7E60FD03
:10220000006161FD106105B918B91F910F91089522
:102210000F931F93CF93DF93EB010E94D21005B170
:102220000F7E18B11F7ED0FD0061D1FD106105B990
:1022300018B9CBB900002898000086B1289A299ACD
:102240008F70DF91CF911F910F910895FF920F939F
:102250001F93CF93DF93D62FF72EC42F0E94D21057
:1022600005B10F7E18B11F7EF0FC0061F1FC10611A
:1022700005B918B9DBB948B1407F4C2B48B900000B
:1022800028980000289A299ADF91CF911F910F91E9
:10229000FF9008958FE385B980E888B91BB88FE176
:1022A00084B987B98FEF8AB908958F778BB9662380
:1022B00041F0419A00000000289800000000289A90
:1022C00008954198F7CF299A000000008F778BB9C5
:1022D000299808952B9A42982B98000000002B9A79
:1022E000429A0895449A4298449800000000449A03
:1022F000429A08954BB14871FC0190E0292F277054
:10230000242B392F330F330F307E232B21939F5FE4
:102310009034A1F708950F931F93449A00004498B6
:1023200000000000449A429A05B10B7E182F1170EC
:10233000110F110F012B182F1270110F110F110F08
:10234000012B05B90027182F14701295110F012BBE
:10235000182F187012951695012B182F10781695B6
:102360001695012B182F107212951F70012B182F24
:102370001074129516951695012B182F107116953D
:102380001695012B0BB944981F910F9108950F9347
:102390001F93449A05B10B7E182F1170110F110F66
:1023A000012B182F1270110F110F110F012B05B9EE
:1023B0000027182F14701295110F012B182F187069
:1023C00012951695012B182F107816951695012B3E
:1023D000182F107212951F70012B182F1074129560
:1023E00016951695012B182F107116951695012B21
:1023F0000BB944981F910F91089584B1867F84B9D9
:1024000087B1857F87B985B1896085B988B18A60D0
:1024100088B9089584B1896084B987B18A6087B921
:1024200008950F931F93CF93C82F80E00E94C71188
:102430000E940A1229988FE005B1067F182F1270AA
:10244000110F110F012B182F147016951695012BD3
:1024500005B948B1457F182F1170110F412B182F66
:102460001870412B48B905B10B7E1C2F1170110F4C
:10247000110F012B1C2F1270110F110F110F012BB7
:1024800005B900271C2F14701295110F012B1C2F5A
:10249000187012951695012B1C2F1078169516950D
:1024A000012B1C2F107212951F70012B1C2F107402
:1024B000129516951695012B1C2F107116951695D1
:1024C000012B0BB942980000429A80E005B10B7EC7
:1024D000182F1170110F110F012B182F1270110FDF
:1024E000110F110F012B05B90027182F1470129529
:1024F000110F012B182F187012951695012B182FFC
:10250000107816951695012B182F107212951F70C2
:10251000012B182F1074129516951695012B182F54
:10252000107116951695012B0BB9299A0E94FD1171
:10253000409842980000000006B113B12227302FC6
:1025400032703695230F312F387036953695230F1C
:10255000312F3170330F330F230F0870200F822F6C
:10256000429A409A8F70CF911F910F9108950F93C7
:102570001F9305B10B7E182F1170110F110F012B36
:10258000182F1270110F110F110F012B05B9002711
:10259000182F14701295110F012B182F1870129507
:1025A0001695012B182F107816951695012B182FBC
:1025B000107212951F70012B182F1074129516951A
:1025C0001695012B182F107116951695012B0BB926
:1025D00042980000000006B113B12227302F32705C
:1025E0003695230F312F387036953695230F312FBE
:1025F0003170330F330F230F0870200F822F429A50
:102600008F701F910F9108950F931F9305B1067F4F
:10261000162F1270110F110F012B162F1470169513
:102620001695012B05B948B1457F162F1170110F72
:10263000412B162F1870412B48B905B10B7E182F6E
:102640001170110F110F012B182F1270110F110F94
:10265000110F012B05B90027182F14701295110FB7
:10266000012B182F187012951695012B182F107822
:1026700016951695012B182F107212951F70012BAD
:10268000182F1074129516951695012B182F10718E
:1026900016951695012B0BB942980000000000001A
:1026A000429A1F910F910895AC0195B1BA017695A8
:1026B0006795842F880F242F220F220F2470362F26
:1026C0003170232B9A7E292B982F9071292B25B9B5
:1026D00028B12B7F942F9470292B28B93BB151FB43
:1026E000222720F9FA01EE0FEF2FEE1FFF0BF195D5
:1026F0009E2F9270922B3871932B9A0155E036954C
:1027000027955A95E1F72470922B6072962B80746E
:10271000982B842F880F880F880F8078892B8BB98E
:10272000089584B18F6184B987B18F6187B98AB107
:10273000876E8AB988B1896088B9089580FF1BC007
:10274000449A4BB19C01369527952770382F330F4B
:10275000307E232B4871242B2BB925B1880F892F6C
:10276000881F990B9195FC01E35CFE4FE4912A7E52
:10277000E22BE5B908954498E4CF0E949E132B986C
:1027800090E080E00E949E1342980000000086B115
:10279000429A2B9A83FB882780F908952B9A0E94EE
:1027A0009E132B980895CF93DF939C01D62FC42FAF
:1027B0002B9A98E000002B98000000002B9A915073
:1027C000C9F7429AC9010E949E132B98D8B9C5B97E
:1027D000DF91CF9108951F93CF93DF93162FC82FCA
:1027E000D0E0CE010E949E132B981123C1F0409A95
:1027F000419842980000429A419A2B9ACE010E9439
:102800009E132B9842980000000086B1429A2B9AA2
:1028100083FB882780F9DF91CF911F91089540981D
:10282000E7CF299A4398299800000000299A439AF3
:102830000895A82FAF71B0E09D01220F331FA20FA2
:10284000B31FAA52BE4F11965C91119712964C91EC
:10285000129765E0969587956A95E1F79927FC01AF
:10286000E659FC4F3491FC01E65AFC4F2491865BFB
:102870009C4FFC018491E5B1EA7E9C91E92BE32B0E
:10288000E5B9E8B1EE7EE52BE22BE8B9EBB1EC73EC
:10289000E42B8E2B8BB90895299A0E94191429983C
:1028A0000895CF93DF93EB01419839980E94191452
:1028B0002998CE010E941914419843980000000005
:1028C00086B1439A299A82FB882780F9DF91CF91BC
:1028D00008950F931F93CF938B01C42F399A0E94B1
:1028E000191429982B98C111C4E0C8010E94191429
:1028F000CC2351F0419A43980000439A2B9A299A8D
:10290000CF911F910F9108954198F5CF299A00001A
:10291000299800000000299A439A0E9419142998C6
:1029200008958F929F92AF92BF920F931F93CF9370
:10293000DF93CDB7DEB7A1970FB6F894DEBF0FBE19
:10294000CDBF19A2423008F44AE08E010F5D1F4F3F
:10295000842E912CB12CA12CA50194010E947B3CCA
:10296000E62FB901CA01EA3044F5E05DD801EE93E3
:102970008D01232B242B252B79F790E080E01097F5
:1029800069F0FD0101900020E9F73197AF014A1B82
:102990005B0BBD0181E695E00E94310EA1960FB65A
:1029A000F894DEBF0FBECDBFDF91CF911F910F9185
:1029B000BF90AF909F908F900895E95CD7CFFC01B6
:1029C000A081B18150962C9182AD38E0839FC001E7
:1029D0001124289FA001299F500D112470E060E070
:1029E00080AD91AD0C94A33C1F93CF93DF93EC018A
:1029F0000E94CB0B1BAD8AAD180FE881F98181894C
:102A0000181768F0EC81FD8130E020E040E060E1E3
:102A1000CE01099580E0DF91CF911F910895FE01CD
:102A2000E557FF4F8081882319F0CE010E94DF1403
:102A3000612FCE010E94B80B81E0EDCFCF93DF93E1
:102A4000EC01FC01E557FF4F8081882319F0CE018E
:102A50000E94DF1460E0CE01DF91CF910C94B80B9F
:102A6000C82FD62FDD24DA94D60E26E02D1568F077
:102A7000ED2DF0E0E25CFA4E0C949D3C5015C01533
:102A8000C015CE15D415B915DA150FEF1FEF25EDCA
:102A900031E044E067E48FEA94E00E94662751C089
:102AA00084B1806384B985B1806385B985E695E09A
:102AB0000E941E1581E2282E312C0FE010E096E3D3
:102AC000E92EF12C2C2F2051330B4901330FAA088A
:102AD000BB084C2E512C712C612C82E795E00E9492
:102AE000010B82E390E09093F4058093F30530921C
:102AF000F6052092F50583ED91E00E94AB108CE184
:102B000096E00E94010B1093F4050093F305F092F8
:102B1000F605E092F50585EC91E00E94AB104AE0E5
:102B2000C301B201C03128F0C132F0F44AE0C5015E
:102B3000B4010E94911485E695E00E94F41481117D
:102B4000CCCF0E94C50C96E09D1508F471C0ED2D08
:102B5000F0E0E355FA4E0C949D3CE415FD15E015AC
:102B600003160D160B16101683EC91E00E94AB10A5
:102B7000E2CF0FEF1FEF20EB31E043E063E48BCFB8
:102B80000FEF1FEF2DE931E041E0823018F02CE823
:102B900031E048E062E482E795E07FCF082F10E063
:102BA00021E831E048E1EACF0FEF1FEF21E731E004
:102BB0004BE0F0CF0FEF1FEF26E631E04DE1EACF1B
:102BC00010E0C7E0D2E006C08FEF8C0F10E0843138
:102BD00008F0C0E0112381F12D9A2C9868EE73E083
:102BE00080E090E00E94E9042D982C9868EE73E054
:102BF00080E090E00E94E904EDCFC63008F0C5E027
:102C0000CF5F10E0E7CF8FEF8C0F10E0843108F03A
:102C1000C0E0D3E0DFCF10E0FBCF10E0C8E0D2CFC0
:102C20008FEF8C0F10E0843108F0C0E0D4E0D2CFF9
:102C300011E0C0E0D0E0CECF6D2F81E090E00E94A7
:102C4000030D6CE271E080E090E00E94E904CC2387
:102C500029F06C2F83E090E00E94030D6CED75E08D
:102C600080E090E00E94E904E7CFDF92EF92FF92CC
:102C70000F931F93CF93DF93F82ED62EE09106018A
:102C8000F091070194E0EE0FFF1F9A95E1F7EA5CDF
:102C9000FD4FE6800E946311F89420E1F29E8001CE
:102CA0001124D0E0C0E05C2FCE1508F03DC08C2F81
:102CB0008F778BB90000289800000000289A46B151
:102CC00041709E01200F311FF901F695E795F695A9
:102CD000E795FF27EF59FB4F808123703327223080
:102CE0003105A1F02330310599F02130310561F033
:102CF000847091E009F490E0491779F0789463E0EA
:102D000081E08D0D0E9430158695F2CF880FF0CFAF
:102D100024E0829FC0011124EBCF50FF03C08F2D10
:102D20000E9463112196BFCF299A7894DF91CF91A9
:102D30001F910F91FF90EF90DF900895DF92EF9237
:102D4000FF920F931F93CF93DF9324B1982F909509
:102D5000922394B927B1962F9095922397B92AB1CF
:102D6000942F909592239AB995B1982B95B998B1D3
:102D7000962B98B99BB1942B9BB9EFE0F0E031977B
:102D8000F1F7D42E90E0E9E2F0E003E010E0C8E0D3
:102D9000D0E021E03D2D322349F13181322B3183C6
:102DA0005281322F309553235283D8011197F1F776
:102DB000542F5323762F992389F17323542F913065
:102DC00069F5A82FA323762FF3B0FA22FA1228C0B0
:102DD000A6B1A723A71324C079B17523751320C00A
:102DE0005181352331833281322B3283220F219757
:102DF00089F69F5F933041F4DF91CF911F910F913E
:102E0000FF90EF90DF900895D62EE6E2F0E091304B
:102E100009F0BDCFD82EE3E2F0E0B9CFA82FD4CF90
:102E200066E080E00E943015CF93DF93EC01FA0159
:102E3000DB0130E020E061E070E0AB01022E01C078
:102E4000440F0A94EAF7899192E0980F923030F09B
:102E500093B1942319F464E00E9430158D9192E0AF
:102E6000980F923018F096B19423A9F381918E3F78
:102E700040F02F5F3F4F28303105F9F6DF91CF91B9
:102E8000089599B19423A9F7E6CF8F929F92AF92BC
:102E9000BF92CF92DF92EF92FF920F931F93CF9347
:102EA000DF937C01C62E0E94D210E0910601F091C2
:102EB000070194E0EE0FFF1F9A95E1F7EA5CFD4FE2
:102EC00080858170B82E9780C70124E096958795FC
:102ED0002A95E1F78E0D9F1DD92ED8262A98F894B1
:102EE000C0E0C91508F072C005B10F7E18B11F7E91
:102EF000C0FD0061C1FD106105B918B9AD2CAC264B
:102F0000D0E0812CBB2009F436C0289884E0882EBC
:102F1000D0E090E49D0FDBB90000000086B18F7017
:102F2000EA2DED27F0E0EF59FB4F2081821332C0EC
:102F3000DF5FD913F0CF289AC7010E94D21005B1E4
:102F40000F7E18B11F7EC0FD0061C1FD106105B983
:102F500018B928988A948110DCCF36C0C7010E9426
:102F6000D21005B10F7E18B11F7EC0FD0061C1FDFA
:102F7000106105B918B990E49D0FDBB92898289A1B
:102F800086B18F70EA2DED27F0E0EF59FB4F2081DD
:102F9000821729F0789463E08C2D0E943015E1E0CF
:102FA000ED0FEBB92898289A86B18F70EA25F0E0EA
:102FB000EF59FB4F20818213EDCFDE5FD913DDCFB8
:102FC000839484E08812CACFCF5F8BCF289A2A9A45
:102FD000299A7894DF91CF911F910F91FF90EF90F4
:102FE000DF90CF90BF90AF909F908F9008951F93E8
:102FF000CF93DF93C62F142FD22F0E946311CF7768
:10300000CBB900000000289800000000289A86B183
:103010008170181741F0289A299A0000000061E099
:103020008D2F0E943015299A00000000DF91CF916A
:103030001F910895FF920F931F93CF93DF93C82F93
:10304000D62FF22E162F00E0411104C0182FC62FE4
:103050000D2FD0E02B98802F0E94631160E08D2F00
:103060000E945511299A000000008C2F0E946311C4
:1030700061E0812F0E945511299A000000002B9ACF
:103080002F2D40E06D2F802F0E94F7172F2D41E04C
:10309000612F8C2FDF91CF911F910F91FF900C9496
:1030A000F7179F92AF92BF92CF92DF92EF92FF926B
:1030B0000F931F93CF93DF93082FE0910601F091B8
:1030C000070184E0EE0FFF1F8A95E1F7EA5CFD4FF0
:1030D00084819581D82EC680F894C0E099277C0120
:1030E0002FEFE21AF20ABB24BA94BD0CAA24A394CF
:1030F000AD0CCE151F0411F00CF05CC0CD1548F5D9
:103100001B2D1C1B011101C01C2F912E9026812FFD
:103110000E9463112B98D0E0DC15C8F48D2F89250F
:1031200080FF13C0419A8D2F8F778BB9000000006C
:10313000289800000000289A8D2F8370833019F49E
:10314000812F0E946311DF5FE7CF4198ECCF2B9A6C
:10315000299AC23068F11EEF1C0F002311F01A2DBE
:103160001C1B912E9026812F0E946311D0E0DC154C
:10317000F0F48D2F8F778BB90000289800000000A5
:10318000289A86B1992D9D2791708170981731F0FA
:103190007894299A62E0802F0E9430158D2F8370D9
:1031A000833019F4812F0E946311DF5FE0CF299AE9
:1031B000CF5F9FCF7894DF91CF911F910F91FF90B8
:1031C000EF90DF90CF90BF90AF909F9008958F9237
:1031D0009F92AF92BF92CF92DF92EF92FF920F93A6
:1031E0001F93CF93DF93EC01A62EE0910601F0919F
:1031F000070164E0EE0FFF1F6A95E1F7E45CFD4F05
:10320000918074E0969587957A95E1F78C0F9D1FD4
:10321000D92ED826419ACE010E94CE13F89410E000
:1032200000E0B12CB91408F04DC08B2C8D24C12CBA
:10323000EC2DE825F0E0EF59FB4F208123FB2227FE
:1032400020F9F801EC29E0FF2CC0449A3BB1CF01F2
:103250009695879587709E2F990F907E892B387150
:10326000832B8BB985B1EE0FEF2FEE1FFF0BF1957E
:10327000E35CFE4FE4918A7EE82BE5B942980000BA
:10328000429A86B183FBEE24E0F8F12C2E151F0440
:1032900051F078942B9A63E08A2D0E943015C82E45
:1032A000C7CF4498D3CF8C2D8F708F3019F4CE01B7
:1032B0000E94CE1381E08C0D9FEFC912F0CFB39422
:1032C0001395B0CF2B9A7894DF91CF911F910F91E6
:1032D000FF90EF90DF90CF90BF90AF909F908F9036
:1032E00008956F927F928F929F92AF92BF92CF92EA
:1032F000DF92EF92FF920F931F93CF93DF93EC0136
:10330000662EC0900601D0900701BB24B39420E440
:10331000E22EF12C83E0C816D10421F0B12CE12C6F
:10332000FF24F3940E94FD1140989C2E8C2F0E9444
:10333000C71185B07BB0F8948E0184E0169507958F
:103340008A95E1F70C0F1D1F81E0A82E01C0AA0C81
:10335000BA94EAF7B12CD0E0C0E08B2D0E94B712EE
:1033600098012C273D272327E22FF0E0EF59FB4F50
:103370009081891739F07894409A449A63E0862DB9
:103380000E94301583E0C816D104D1F4892D0E9423
:10339000C7112196BA0CEC16FD06F9F6409A449A2C
:1033A0007894DF91CF911F910F91FF90EF90DF9074
:1033B000CF90BF90AF909F908F907F906F90089527
:1033C000449A85B87BB84498E4CFCF92DF92EF92CD
:1033D000FF920F931F93CF93DF93082F1EEFD0E040
:1033E000C0E02DEFC22ECF3FD10509F020F5EC2E25
:1033F000002311F0EC2CE11A0E940A128E2D0E947B
:10340000C7112998F894F12C8E2D8F2581706AE0D0
:10341000801365E08F2D880F0E9404138E2D0E946B
:10342000C711F39480E4F812EFCF299A449A789464
:10343000C230D10558F1E12E0111E0940E94FD1136
:1034400040988E2D0E94C711F894F12C8E2D8F2557
:10345000817095E0D92E801302C08AE0D82E8F2D7E
:10346000880F0E94B7128D1539F0409A449A7894CB
:1034700062E0802F0E9430158E2D0E94C711F394B8
:1034800080E4F812E3CF409A449A789421961F5F23
:10349000C23081E0D80709F0A6CFDF91CF911F910C
:1034A0000F91FF90EF90DF90CF9008952F923F9271
:1034B0004F925F926F927F928F929F92AF92BF9244
:1034C000CF92DF92EF92FF920F931F93CF93DF93F0
:1034D00000D000D01F92CDB7DEB79B838A83F62E33
:1034E000E0910601F0910701B4E0EE0FFF1FBA95DD
:1034F000E1F7EA5CFD4FC680D78080854198399816
:103500000A811B8194E0169507959A95E1F72A8127
:103510003B81020F131F81FDA6C02601A5E0569432
:103520004794AA95E1F7F8948A819B810E944C14F4
:1035300095B1E8B0BBB0392F32603983B0E0A0E07C
:1035400050E040E080E09A7E692E9E2D9C7E792E90
:10355000EB2DEC738E2E242D2150330B19014415C5
:1035600008F057C0FA01E659FC4F9490FA01E65A68
:10357000FC4F2491FA01E65BFC4F649196282729C1
:103580002C836829F2E0AF2E443010F4AA24A394CF
:1035900098012A273B27932F92279D837EE192E073
:1035A000970F9150292F30E06901CC0CDD1C2C0DB8
:1035B0003D1D2A523E4FF901D080D928D5B8D1807F
:1035C000FC81DF2AD8B8F9012281262B2BB9439838
:1035D0000000439AD6B02D81292730E02F593B4F68
:1035E000F9012081D226D2FC8A299713DACF9111D2
:1035F00003C0421553054CF4299A298125B9E8B82E
:10360000BBB8299872509111CACF4F5F5F4F909607
:10361000A6CF439A299A7894399A882309F466C0E8
:103620009091050190FF5BC0209106013091070148
:103630002115310521F02D30310509F050C0EA8106
:10364000FB8122E0E038F10508F420E001C0880F9A
:103650002A95EAF790915604892B809356048F306F
:1036600009F044C03CC0F894D694C794912C812CA6
:10367000C814D90409F45CC0C80188259925892794
:10368000E82FF0E0EF59FB4F7080A72CB12CB594D8
:10369000A794E72CEE0CB72CBB0CBB0C8A819B814A
:1036A0000E9419142998C4010E9419144398439A3E
:1036B00096B14398439A86B14398439A36B143985A
:1036C000439A26B1E326B226EB287926E728A826D6
:1036D000AE28A2FE28C07894439A299A399A8091FC
:1036E00051048823D9F082E0809351040F900F9009
:1036F0000F900F900F90DF91CF911F910F91FF903E
:10370000EF90DF90CF90BF90AF909F908F907F9081
:103710006F905F904F903F902F90089563E081E00D
:103720008F0D0E943015299A3FEF831A930AA0CF7C
:10373000789480E071CF6F927F928F929F92AF9238
:10374000BF92CF92DF92EF92FF920F931F93CF938E
:10375000DF938C0184B1806384B985B1806385B9BE
:1037600085E695E00E941E158EE1A82EB12C90E111
:10377000C92ED12CC4E0D0E02FE1E22EF12C3EE2A4
:10378000832E912C4DE3642E712C8CE196E00E94E7
:10379000010BB092F405A092F305D092F605C09209
:1037A000F5058BE591E00E94AB10D093F405C09332
:1037B000F305F092F605E092F50581E591E00E94AF
:1037C000AB10D093F405C093F3059092F605809268
:1037D000F505C8010E94AB10D093F405C093F30522
:1037E0007092F6056092F50585E491E00E94AB10B9
:1037F00085E695E00E94F4148111C7CFDF91CF9147
:103800001F910F91FF90EF90DF90CF90BF90AF90FE
:103810009F908F907F906F9008950F931F93CF93F9
:10382000DF93C82F84B1806384B985B1806385B983
:1038300062E085E695E00E94B80B85E695E00E947F
:10384000DF148CE196E00E94010B81E00E94AE043F
:1038500086E490E09093F4058093F3058EE190E088
:103860009093F6058093F50586EF91E00E94AB10EA
:103870006C2F70E090E080E04AE00E949114C091CB
:103880009D05D0919E058E01005C1F4F27E042E010
:1038900068E085E695E00E94990500581F4F27E0F3
:1038A00043E068E085E695E00E949905DF91CF91BD
:1038B0001F910F9108955F926F927F928F929F92C6
:1038C000AF92BF92CF92DF92EF92FF920F931F932E
:1038D000CF93DF938C0178942D982C988FB7F89420
:1038E000C0905904D0905A04E0905B04F0905C04BE
:1038F0008FBF4601570180E6880E8AEE981EA11CF4
:10390000B11CE8EECE0EE3E0DE1EE11CF11C8CE300
:10391000582E9BE1692E712C2FB7F8948091590491
:1039200090915A04A0915B04B0915C042FBFAC014C
:10393000BD01481959096A097B0977FF1EC08C1916
:103940009D09AE09BF09B7FD12C0F8EECF0EF3E036
:10395000DF1EE11CF11C5A94852D0E940D1C2D9830
:103960002C98C0E0D1E0F80109952197E1F7F80122
:103970000995C3010197F1F7CFCFF894DF91CF916B
:103980001F910F91FF90EF90DF90CF90BF90AF907D
:103990009F908F907F906F905F9008952F923F92AD
:1039A0004F925F926F927F928F929F92AF92BF924F
:1039B000CF92DF92EF92FF920F931F93CF93DF93FB
:1039C000EC018091050180FFA2C080915404909188
:1039D0005504009709F49BC00E94583C14E0180F4E
:1039E00029EF21031001112437FE03C08FEF281A9D
:1039F000380A3594279420E4220E311C84B1806368
:103A000084B985B1806385B985E695E00E941E156D
:103A100099E1692E712C01E210E022E3C22ED12C33
:103A200036E4E32EF12C4FE0A42EB12C5EE1852E7E
:103A3000912C66E3462E512C82E795E00E94010B03
:103A40008091050181FF71C0D092F405C092F30509
:103A50001093F6050093F50584EF91E00E94AB10FA
:103A60008CE196E00E94010B8091050181FD1FC051
:103A7000F092F405E092F305B092F605A092F505F8
:103A80008CEE91E00E94AB10F092F405E092F30509
:103A90009092F6058092F505609100017091010108
:103AA00080910201909103014AE00E94911480915B
:103AB000050180FF13C08091540490915504892B17
:103AC00069F020E130E040E850E06AE270E090E028
:103AD00080E00E94020A80E00E94AE043092F40569
:103AE0002092F3055092F6054092F505809105016C
:103AF00080FF20C080915404909155040097D1F02C
:103B00000E94AB1087EE91E00E94AB101CC0CE016A
:103B10000E94583C182F80914A0390914B030097C4
:103B200009F45ECF0E94583C5ACF7092F40560921F
:103B3000F3058ECFCE010E94AB1080914A03909185
:103B40004B03009709F781E00E94AE0485E695E0FB
:103B50000E94F414811170CFDF91CF911F910F91CA
:103B6000FF90EF90DF90CF90BF90AF909F908F909D
:103B70007F906F905F904F903F902F9008950F939C
:103B80001F93CF93DF938091000190910101A09149
:103B90000201B09103010297A105B10508F467C0C5
:103BA00084B1806384B985B1806385B962E085E6BC
:103BB00095E00E94B80B85E695E00E94DF148CE149
:103BC00096E00E94010B81E00E94AE0486E490E042
:103BD0009093F4058093F3058EE190E09093F605C1
:103BE0008093F505609100017091010180910201BF
:103BF000909103014AE00E949114C0919D05D091DB
:103C00009E058E01005C1F4F27E042E068E085E6DC
:103C100095E00E94990500581F4F27E043E068E0B7
:103C200085E695E00E9499058091050181FD2FC0F0
:103C30008091000190910101A0910201B0910301D6
:103C4000803422E492072FE0A207B10500F5019627
:103C5000A11DB11D8093000190930101A093020169
:103C6000B0930301DF91CF911F910F910895E091DF
:103C70000601F091070184E0EE0FFF1F8A95E1F73E
:103C8000EA5CFD4F808191810E94CE1CCDCF0E94C5
:103C9000C50CE0910601F0910701EE30F10588F0C6
:103CA0002D982C9A68EE73E080E090E00E94E90481
:103CB0002D982C9868EE73E080E090E00E94E90473
:103CC000EFCFE550FE4FC4911C2F12951F70CF709F
:103CD000D0915304DD2339F0C5E0D0FFC6E0D330E6
:103CE00089F1D0E011E0612F82E090E00E94030DA5
:103CF0006CE271E080E090E00E94E9046C2F83E0C8
:103D000090E00E94030DDD23B1F060ED77E080E0EC
:103D100090E00E94E90461E082E090E00E94030DDF
:103D20006CE271E080E090E00E94E9046D2F83E096
:103D300090E00E94030D60ED77E080E090E00E944B
:103D4000E904D1CFD6E0CECF2D982C98E091060192
:103D5000F091070184E0EE0FFF1F8A95E1F7EA5C1E
:103D6000FD4F808191810E94CE1C8CE30E940D1C2E
:103D70002D982C98089524B1257F24B925B12A6067
:103D800025B927B12D7E27B928B1226128B90E9413
:103D90005413439800C000C093B126B1439A30E059
:103DA00024FB882780F9492F46954470842B927014
:103DB000892B220F331F220F331F2870822B089567
:103DC000CF93C62F0E94541384B18A6084B987B1FF
:103DD000826187B965B12C2F30E0657FC2706C2B92
:103DE000C901880F991F8870682B65B948B1C9014E
:103DF0009595879595958795827064E0220F331F7E
:103E00006A95E1F72071822B4D7E842B88B9439807
:103E1000409882E08A95F1F7409A439ACF910895AD
:103E20002F923F924F925F926F927F928F929F92CA
:103E3000AF92BF92CF92DF92EF92FF920F931F93B8
:103E4000CF93DF93CDB7DEB728970FB6F894DEBFD8
:103E50000FBECDBF4FE344B932E235B92FE127B9E8
:103E600095E198B987EE8AB9EE24EA94FE2CF09297
:103E70000701E092060144B935B927B998B98AB962
:103E800080E00E94C7110E940A12299885E005B1BE
:103E9000067F182F1270110F110F012B182F14709D
:103EA00016951695012B05B948B1457F182F11704D
:103EB000110F412B182F1870412B48B920E005B184
:103EC0000B7E122F1170110F110F012B122F127078
:103ED000110F110F110F012B05B90027122F1470AC
:103EE0001295110F012B122F187012951695012B98
:103EF000122F107816951695012B122F107212950D
:103F00001F70012B122F1074129516951695012B08
:103F1000122F107116951695012B0BB942980000BF
:103F2000429A299A449A0E94FD11409880E00E948A
:103F3000C71130E005B10B7E132F1170110F110F57
:103F4000012B132F1270110F110F110F012B05B937
:103F50000027132F14701295110F012B132F1870B7
:103F600012951695012B132F107816951695012B87
:103F7000132F107212951F70012B132F10741295AE
:103F800016951695012B132F107116951695012B6A
:103F90000BB942980000000006B113B12227302F60
:103FA00032703695230F312F387036953695230FA2
:103FB000312F3170330F330F230F0870200F822FF2
:103FC000429A409A449A8F708983853009F0A8C03C
:103FD00080E00E94C7110E940A122998998105B1B8
:103FE000067F192F1270110F110F012B192F14704A
:103FF00016951695012B05B948B1457F192F1170FB
:10400000110F412B192F1870412B48B920E005B131
:104010000B7E122F1170110F110F012B122F127026
:10402000110F110F110F012B05B90027122F14705A
:104030001295110F012B122F187012951695012B46
:10404000122F107816951695012B122F10721295BB
:104050001F70012B122F1074129516951695012BB7
:10406000122F107116951695012B0BB9429800006E
:10407000429A299A449A0E94FD11409880E00E9439
:10408000C71130E005B10B7E132F1170110F110F06
:10409000012B132F1270110F110F110F012B05B9E6
:1040A0000027132F14701295110F012B132F187066
:1040B00012951695012B132F107816951695012B36
:1040C000132F107212951F70012B132F107412955D
:1040D00016951695012B132F107116951695012B19
:1040E0000BB942980000000006B113B12227302F0F
:1040F00032703695230F312F387036953695230F51
:10410000312F3170330F330F230F0870200F822FA0
:104110008F708F3009F0D8C0F0920701E09206014D
:104120008091060190910701019609F05CC084B16D
:10413000807E8D6184B987B1807E876187B98AB1BD
:10414000876E8AB9439A2B9A429A419A90E080E00E
:104150000E949E132B984098419842980000429AE2
:10416000419A2B9A90E080E00E949E132B984298EF
:104170000000000086B1429A2B9A83FD34C084B1BE
:10418000807E8D6184B987B1807E876187B98AB16D
:10419000876E8AB92B9A429A419A60E080E00E9429
:1041A000EB138A8361E081E00E94EB13898390E046
:1041B00080E00E949E132B9842980000000086B178
:1041C00083FB882780F9429A2B9A3A8131110BC0E0
:1041D0009981992341F0811106C089E090E0909384
:1041E00007018093060180910601909107018F3F9E
:1041F000980739F50E94911360E090E080E00E94FA
:10420000E01E90E080E00E94BB1E811111C06FE0B3
:1042100090E080E00E94E01E90E080E00E94BB1EE3
:104220008F3031F48EE090E0909307018093060187
:10423000809106019091070160E08F3F980709F493
:1042400040C014E0880F991F1A95E1F7FC01EA5C61
:10425000FD4F808191810E949B1B0AE0402E512CD2
:10426000612C712C80910601909107018E3091058F
:1042700009F0DDC147EE64E085E10E949E160E94D0
:1042800091136FE090E080E00E94E01E10E000E0FB
:1042900061E0600F81E090E0002E02C0880F991F5E
:1042A0000A94E2F70E94E01E0F5F1F4F0A301105CB
:1042B00079F790E080E00E94BB1E8F3009F4ABC01C
:1042C00061E080E00E943015429A409A80E00E94AE
:1042D000C7110E940A12299880E005B1067F182FA5
:1042E0001270110F110F012B182F147016951695BF
:1042F000012B05B948B1457F182F1170110F412BC3
:10430000182F1870412B48B905B10B7E182F11706A
:10431000110F110F012B182F1270110F110F110F08
:10432000012B05B90027182F14701295110F012BBE
:10433000182F187012951695012B182F10781695B6
:104340001695012B182F107212951F70012B182F24
:104350001074129516951695012B182F107116953D
:104360001695012B0BB942980000429A299A449A5B
:1043700081E00E941112882341F083E090E0909345
:10438000070180930601449ACBCE80E80E94111267
:104390008111F3CF84E090E0F2CF182F8A3009F03A
:1043A0003BC065E083E291E00E94E01E83E291E081
:1043B0000E94541384B1857F84B987B18D7E87B9FB
:1043C00085B18A6085B988B18A6188B98FE090E04B
:1043D0000197F1F733B186B1409800000000409A90
:1043E00095B1957F95B998B19D7E98B990E084FB81
:1043F000222720F9432F46954470242B3270232B1B
:10440000880F991F880F991F8870822B8F30B1F009
:1044100067E081E057CF10E081E090E0012E02C01C
:10442000880F991F0A94E2F70E94BB1E91E0910F3A
:10443000891709F4B2CF61E0812F44CF83E291E084
:104440000E94BB1E853019F067E082E03BCFE12C73
:10445000AFE0BA2EF12CAF2CAB2410E000E06F2DB2
:10446000C8010E94E01E0F5F1F4F011584E018076E
:10447000B1F710E000E0C8010E94BB1EF81641F041
:1044800067E083E01FCFEE24E394F5E0FF2EE3CF57
:104490006A2DC8010E94E01E0F5F1F4F011594E0B6
:1044A000190749F710E000E0C8010E94BB1EA816DA
:1044B00019F067E084E006CF6F2DC8010E94E01E6E
:1044C0000F5F1F4F011524E0120771F7C12CE4E0C4
:1044D000DE2E31E0C31AD10888F0C6010E94BB1E4F
:1044E000F81619F067E085E0EDCE6A2DC6010E944E
:1044F000E01EEFCF6F2DC8010E94E01E0150110990
:1045000040F0C8010E94BB1EA816A1F367E086E038
:10451000D9CE10E000E0C8010E94BB1EF81619F0C9
:1045200067E087E0CFCE0F5F1F4F011524E0120731
:1045300091F731E0E312A7CF60E090E080E00E94C5
:10454000E01E61E080E190E00E94E01E84B1857F82
:1045500084B985B18A6085B987B18D7E87B988B104
:10456000826188B990E080E00E9454132BB1322F11
:104570003068439882E08A95F1F700C0F89490E1A2
:1045800081E03BB900C00000349B80E02BB900C043
:104590000000349980E09150A1F7811140C090E172
:1045A00081E03BB900C000C00000349B80E02BB923
:1045B00000C000C00000349980E0915091F788233A
:1045C00081F17894439A8DE291E0EE2029F091E018
:1045D000E9122AC089E291E090934B0380934A0349
:1045E0000E94BF1D8091050181FF3CCE28960FB629
:1045F000F894DEBF0FBECDBFDF91CF911F910F9119
:10460000FF90EF90DF90CF90BF90AF909F908F90F2
:104610007F906F905F904F903F902F900895E12C86
:10462000D0CF72E0E72ECDCF81E391E0D5CF0997CF
:1046300009F056C184B1807E8D6184B987B1807ED6
:10464000876187B98AB1876E8AB947EE60E085E1F4
:104650000E949E1684B1807E8D6184B987B1807E70
:10466000876187B98AB1876E8AB91BB810E000E00C
:10467000F02E2AE0021709F43CC090E080E00E948E
:104680009E132B98409890E080E00E949E134198E2
:1046900042980000429A419A2B9ACC24C394D12C80
:1046A000002E02C0CC0CDD1C0A94E2F7C6010E9469
:1046B0009E132B98409A90E080E00E949E134198B0
:1046C00042980000429A419A2B9A90E080E00E9422
:1046D000BD13882319F061E0802FF4CDC6010E943C
:1046E000BD130F5F1F4F813009F4C2CF61E08F2DE2
:1046F000E9CD10E000E0F02E3AE0031709F441C0E4
:1047000090E080E00E949E132B98409890E080E01B
:104710000E949E13419842980000429A409ACC24ED
:10472000C394D12C002E02C0CC0CDD1C0A94E2F7FD
:10473000C6010E949E13419842980000429A419AF5
:104740002B9A90E080E00E949E132B9890E080E0EE
:104750000E949E13429800000000339B04C061E059
:1047600080E18F0DAFCD429AC6010E949E13429800
:10477000000000000F5F1F4F339BF1CF429A2B9A2E
:10478000BACF60E080E00E94EC2960E081E00E9406
:10479000EC2944E0842E10E000E0E0910601F09165
:1047A000070184E0EE0FFF1F8A95E1F7EA5CFD4FF9
:1047B0003780C480D58081E0C81AD108C80124E0C0
:1047C000969587952A95E1F7800F911FB92EB82607
:1047D000C8010E94CE134198F894F12CE12C912C41
:1047E000931408F047C02B2C2924A12CE22DEA2594
:1047F000F0E0EF59FB4F20812870F701EA29E0FF34
:1048000035C0449A3BB1CF019695879587709E2F0E
:10481000990F907E892B3871832B8BB985B1EE0F60
:10482000EF2FEE1FFF0BF195E35CFE4FE4918A7EC4
:10483000E82BE5B92223E1F0409A42980000429A21
:104840008A2D8F708F3019F4C8010E94CE1381E039
:104850008A0D9FEFA91208C09394F394C1CF0E94D0
:10486000FB0D35E0832E97CFA82EC0CF4498CACF3A
:104870004098E3CF419A2B9A7894C8010E94CE13B6
:1048800000002B9A27EE38E1482DB601C8010E949E
:10489000570D0F5F1F4F011534E0130709F07DCF4F
:1048A00085E08812DCCF8091050181FD99CE609171
:1048B0000001709101018091020190910301A30117
:1048C00092010E947B3C613071058105910509F0E0
:1048D00087CE0E94A41E61E080E00E94EC2980CE79
:1048E0000FE304B912E215B947EE60E084E10E94DB
:1048F0009E1604B915B987EE8AB91BB82091060136
:104900003091070180E490E02330310511F080E020
:1049100091E00197E12CE394969587950097D9F75C
:10492000DD24D39462E0F62E2330310511F0D12C32
:10493000F12C0E940A12299810E000E080E00E9409
:10494000C71165E08F2D0E940413449A000081E096
:10495000002E01C0880F0A94EAF70E94C7116AE08E
:104960008F2D0E940413449A00000F5F1F4F0830E0
:10497000110521F7299A0E94FD11409810E000E0EE
:10498000C02E08301105E9F080E00E94C7118F2D7C
:104990000E94B712449A853009F09DCE81E0002E26
:1049A00001C0880F0A94EAF70E94C7118F2D0E9458
:1049B000B712449A0F5F1F4F8A3011F361E08C2DBC
:1049C00081CC409A0E940A12299810E000E00E154E
:1049D000E0F480E80E94C71165E080E00E940413C3
:1049E000000081E090E0002E01C0880F0A94EAF7F1
:1049F0006AE00D2C01C0880F0A94EAF70E940413A4
:104A0000449A00000F5F1F4FE2CF299A0E94FD11C8
:104A1000409810E000E0F02E0E15F8F480E80E94B7
:104A2000C71180E00E94B712853011F0449A97CEEA
:104A3000000081E090E0002E01C0880F0A94EAF7A0
:104A40000D2C01C0880F0A94EAF70E94B7120F5F7D
:104A50001F4F449A8A30F9F282CE409A8091060123
:104A600090910701039709F08BC080E00E94E5193F
:104A700081E00E94E519E0910601F091070154E000
:104A8000EE0FFF1F5A95E1F7EA5CFD4F2481358157
:104A90003B832A8334E0398310E000E02A813B81A4
:104AA0000217130709F481C0C0900601D0900701D6
:104AB000FF24F39440E4A42EB12C33E0C316D104B8
:104AC00021F0F12CA12CBB24B394F60184E0EE0F6D
:104AD000FF1F8A95E1F7EA5CFD4F8480958081E0B5
:104AE000881A9108302E802F0E94C71129980E94A1
:104AF0000A1295B19D832BB12E83F894C80124E04E
:104B0000969587952A95E1F79C01200F311F3887EC
:104B10002F8331E001C0330FFA94EAF73C83F12C84
:104B2000E12C212C8F8198858E259F258927E82FC0
:104B3000F0E0EF59FB4F6081822D0E94041383E067
:104B4000C816D10459F5832D0E94C7113FEFE31A0F
:104B5000F30A8C81280EAE14BF0421F7299A449AD7
:104B60007894832D0E94C7110000449A21E739E10F
:104B70004981B401C8010E94570D0F5F1F4F8ECFAE
:104B800060E080E00E94E22A60E081E00E94E22A88
:104B900072CF0E94FB0D85E089837ECF449A9D8170
:104BA00095B92E812BB94498D1CF9981953089F749
:104BB0008091050181FD14CD60910001709101018A
:104BC0008091020190910301A30192010E947B3C1C
:104BD000613071058105910509F002CD80910601D2
:104BE00090910701049709F0FBCC0E94A41E61E09C
:104BF00080E00E94E22AF4CC1F920F920FB60F922F
:104C000011242F933F938F939F93AF93BF938091E2
:104C1000590490915A04A0915B04B0915C043091C6
:104C2000580423E0230F2D3758F50196A11DB11D1F
:104C3000209358048093590490935A04A0935B04E2
:104C4000B0935C0480915D0490915E04A0915F0438
:104C5000B09160040196A11DB11D80935D049093F5
:104C60005E04A0935F04B0936004BF91AF919F91E5
:104C70008F913F912F910F900FBE0F901F9018951D
:104C800026E8230F0296A11DB11DD2CF86B185FB68
:104C9000882780F94B9982604A9984600895E9E2F7
:104CA000F0E0883030F0E6E2F0E08E3010F4E3E23D
:104CB000F0E0208130E0883018F08E3050F48850D9
:104CC000A90102C0559547958A95E2F7CA018170FE
:104CD00008958E50F5CFEF92FF920F931F93CF93CD
:104CE000DF93062F7A01122FC82FD0E01092F4051F
:104CF0001092F305D093F605C093F5058AE992E08A
:104D00000E94AB10602F81E695E00E94590E87E962
:104D100092E00E94AB10C7010E94AB1089E690E0C0
:104D20009093F4058093F305D093F605C093F505B1
:104D300080E992E0112311F084E992E0DF91CF91B4
:104D40001F910F91FF90EF900C94AB10CF92DF92D8
:104D5000EF92FF92CF93DF936B017C016DE281E6CE
:104D600095E00E94590EEC0166277727CB016C195C
:104D70007D098E099F094AE00E9491148C0F9D1FA6
:104D8000DF91CF91FF90EF90DF90CF9008958F92B9
:104D90009F92AF92BF92CF92DF92EF92FF920F93CA
:104DA0001F93CF93DF93C82F6B014A0184B18063B7
:104DB00084B985B1806385B985E695E00E941E15AA
:104DC000D0E089E1A82EB12C9CE0E92EF12C0AE27A
:104DD00010E0D093F405C093F305B092F605A092CD
:104DE000F505C6010E94AB10F092F405E092F305C0
:104DF0001093F6050093F505C4010E94AB1085E6FB
:104E000095E00E94F4148111E4CFDF91CF911F91BE
:104E10000F91FF90EF90DF90CF90BF90AF909F9059
:104E20008F900895FF920F931F93CF93DF9384B1D8
:104E3000806384B985B1806385B985E695E00E9479
:104E40001E150BE010E0CEE3D0E08CE196E00E946E
:104E5000010B81E00E94AE042091050121704CEB12
:104E600052E061E38EE00E946B2620910501FF2451
:104E7000F394269521702F2547EB52E062E38CE1F5
:104E80000E946B262091050122FB222720F92F2565
:104E90004EEA52E063E38AE20E946B261093F40527
:104EA0000093F305D093F605C093F5058EE992E0E3
:104EB0000E94AB1085E695E00E94F4148111C5CFE5
:104EC000DF91CF911F910F91FF9008952F923F9204
:104ED0004F925F926F927F928F929F92AF92BF920A
:104EE000CF92DF92EF92FF920F931F93CF93DF93B6
:104EF00000D000D0CDB7DEB77C0169834A83490179
:104F000084B1806384B985B1806385B985E695E015
:104F10000E941E1582E3282E312C91E2C92ED12C3D
:104F20009A81892F90E09C838B8326E3A22EB12C5B
:104F30002801012E000C66087708C7010E94010BAA
:104F40003092F4052092F305D092F605C092F50553
:104F5000698181E695E00E94590E8CE196E00E94FD
:104F6000010B8B819C819093F4058093F305B092A3
:104F7000F605A092F505C4010E94AB100F3F100783
:104F800029F04AE0C301B2010E94911485E695E040
:104F90000E94F4148111D1CF0F900F900F900F90B9
:104FA000DF91CF911F910F91FF90EF90DF90CF9005
:104FB000BF90AF909F908F907F906F905F904F9039
:104FC0003F902F900895EC0184B1806384B985B13E
:104FD000806385B985E695E00E941E1532E3A32E15
:104FE000B12C41E2C42ED12C5AE0E52EF12C60E325
:104FF000862E912C77E0772E00E410E082E795E092
:105000000E94010BB092F405A092F305D092F60530
:10501000C092F50585ED92E00E94AB108CE196E020
:105020000E94010BF092F405E092F3059092F605D0
:105030008092F50585EC92E00E94AB10CE010E94B3
:10504000583C9C01729EC001739E900D1124969550
:1050500087959801281B390B3093F4052093F305AD
:105060001093F6050093F505CE010E94AB1085E67E
:1050700095E00E94F4148111C1CF84B1806384B99A
:105080002D9A2C98FFCF2F923F924F925F926F9262
:105090007F928F929F92AF92BF92CF92DF92EF92C8
:1050A000FF920F931F93CF93DF936C0184B18063C2
:1050B00084B985B1806385B985E695E00E941E15A7
:1050C000B2E12B2E312CC2E24C2E512CD4E36D2EAA
:1050D000712C17E0812E912C0FE3A02EB12C03E050
:1050E00010E0F12CE12CD0E0C0E0FE01A3E0F5954A
:1050F000E795AA95E1F7EE0DFF1DE65FFD4FE49100
:10510000F0E08C2F877002C0F595E7958A95E2F75D
:10511000E0FF0CC022E030E042E050E0B801CE01F8
:10512000880F991F8D5B9F4F0E94020A2196CD31F7
:10513000D105D9F684E0E80EF11C0E5F1F4F0D3348
:10514000110589F68FEA94E00E94010B3092F40574
:105150002092F3055092F6054092F5058EE892E014
:105160000E94AB108CE196E00E94010BC6010E94E8
:10517000583C9C0143E0220F331F4A95E1F7821B04
:10518000930B805C9F4F97FD01969595879597FFB0
:1051900002C090E080E09093F4058093F305709254
:1051A000F6056092F505C6010E94AB1086EE93E00D
:1051B0000E94010B8091050180FF41C028E030E092
:1051C00040E450E068E370E090E080E00E94020A72
:1051D00080E00E94AE041092F4051092F305B092A4
:1051E000F605A092F50588E892E00E94AB1082E8EF
:1051F00092E00E94AB108091050180FF07C08EE70E
:1052000092E00E94AB1081E00E94AE0485E695E03A
:105210000E94F414811163CFDF91CF911F910F9100
:10522000FF90EF90DF90CF90BF90AF909F908F90C6
:105230007F906F905F904F903F902F900895909245
:10524000F4058092F305CBCF9F92AF92BF92CF929D
:10525000DF92EF92FF920F931F93CF93DF93D82E9D
:10526000C62EE0910601F091070184E0EE0FFF1FCA
:105270008A95E1F7EA5CFD4FB780E480F580D0E0E5
:10528000C0E0CE15DF0509F444C08C2F8D25817058
:10529000982ECE010E94D21088B1807F88B987B144
:1052A0008F6087B92A9A2B98F894A12CAB1458F5E3
:1052B00005B10F7E18B11F7EA0FC0061A1FC10613A
:1052C00005B918B988B1807F04E010E020E4210F0F
:1052D000912F9170991115C09AE0289A982B98B93E
:1052E0001BB928981F5F2113F3CF2B9A6A2DCE018B
:1052F0000E94E4102B9888B1807F015039F7A39465
:10530000D5CF95E0EACF289A2B9A299A78942196BE
:10531000B8CFCC2021F08AEC90E10E945B1CF12CEC
:10532000E12CCE15DF0509F44BC08D2D8E25817043
:10533000982EC7010E94D21088B1807F88B987B1AA
:10534000807F87B92A98F894A12CAB1408F031C05B
:1053500005B10F7E18B11F7EA0FC0061A1FC106199
:1053600005B918B904E010E020E4210F1BB9289812
:10537000289A86B18F70912F917099110CC09AE084
:10538000981759F078942A9A299A62E0C11065E03A
:105390008D2D0E94301595E0F3CF1F5F2113E6CFCE
:1053A00028986A2DC7010E94E4100150E9F6A394E1
:1053B000CCCF2A9A299A78948FEFE81AF80AB1CFBD
:1053C000DF91CF911F910F91FF90EF90DF90CF90E1
:1053D000BF90AF909F9008952F923F924F925F920F
:1053E0006F927F928F929F92AF92BF92CF92DF92F5
:1053F000EF92FF920F931F93CF93DF93CDB7DEB75A
:10540000C254D1090FB6F894DEBF0FBECDBF782EBF
:10541000362ECE0101960E947A1118B1107E812F8E
:10542000846022968FAF2297912F946123969FAF2D
:105430002397F894F12CE12C4E01E1E48E0E911C9F
:10544000872D8E258170582E2B9AC7010E949E139E
:105450002B98419885B18A7E482E22960FAD2297CF
:10546000612C202E561071C025E3A22E21E0B22E11
:10547000F5014491442945B9CE0101966C01429A47
:10548000F60181916F018BB928B842988E169F065C
:10549000B1F7419A602FC7010E94D313FFEFAF1AF3
:1054A000BF0A8DE3A81681E0B80611F723960FAD69
:1054B000239791E0691246C0419A2B9AEFEFEE1ABA
:1054C000FE0AE114F4E0FF0609F0BACF332021F020
:1054D0008AE691E10E945B1C812F8660582E16613E
:1054E000412E10E000E0872D80278170982E2B9AA6
:1054F000C8010E949E132B9885B18A7E882EA52C08
:10550000B12C612C9B1411F098E0692E85E3E82EF4
:1055100081E0F82EF7014491482945B9A8B8FE0169
:10552000319681918BB942980000429A86B18625C6
:1055300083FF11C078942B9A62E0311065E0872DCB
:105540000E943015662463948CCF689420F88CCF29
:10555000BB24B394D6CFCE16DF0619F742986A2D36
:10556000C8010E94D313FFEFEF1AFF0A8DE3E8167C
:1055700081E0F80679F6A42C91E0B912E9CF2B9AD4
:105580000F5F1F4F0115E4E01E0709F0ACCF7894C0
:10559000CE5BDF4F0FB6F894DEBF0FBECDBFDF91FD
:1055A000CF911F910F91FF90EF90DF90CF90BF9020
:1055B000AF909F908F907F906F905F904F903F90B3
:1055C0002F9008959F92AF92BF92CF92DF92EF9269
:1055D000FF920F931F93CF93DF93B82EA62E0E94B6
:1055E0000A12F894D0E0C0E0CB2CD12C9C2E8C2F4A
:1055F0000E94C7112998F12CE12CCE018E259F2500
:10560000817099278C159D0509F4CAC085E0429ADE
:1056100005B1067F182F1270110F110F012B182FD3
:10562000147016951695012B05B948B1457F182FB2
:105630001170110F412B182F1870412B48B905B16B
:105640000B7E1E2D1170110F110F012B1E2D1270CC
:10565000110F110F110F012B05B900271E2D14700A
:105660001295110F012B1E2D187012951695012BF6
:105670001E2D107816951695012B1E2D1072129561
:105680001F70012B1E2D1074129516951695012B67
:105690001E2D107116951695012B0BB94298299A5B
:1056A000892D0E948B1129988FEFE81AF80AE114CE
:1056B00081E0F80609F0A1CF299A449A2196C115F4
:1056C00081E0D80709F092CFAA2021F082E791E18A
:1056D0000E945B1C0E94FD11D0E0C0E09C2E8C2F2C
:1056E0000E94C7114098F12CE12CCE018E259F25F8
:1056F00081709927C816D90609F054C08AE005B10F
:105700000B7E1E2D1170110F110F012B1E2D12700B
:10571000110F110F110F012B05B900271E2D147049
:105720001295110F012B1E2D187012951695012B35
:105730001E2D107816951695012B1E2D10721295A0
:105740001F70012B1E2D1074129516951695012BA6
:105750001E2D107116951695012B0BB9429800005D
:10576000429A06B113B12227302F32703695230F9B
:10577000312F387036953695230F312F3170330F16
:10578000330F230F0870200F922F891769F0789438
:10579000409A449A62E0A11065E08B2D0E9430157A
:1057A0008AE035CF85E0ABCF4298892D0E948B11DE
:1057B0008FEFE81AF80AE11481E0F80609F095CFB6
:1057C000409A449A2196C11581E0D80709F086CF06
:1057D0007894DF91CF911F910F91FF90EF90DF9020
:1057E000CF90BF90AF909F9008954F925F926F922D
:1057F0007F928F929F92AF92BF92CF92DF92EF9261
:10580000FF920F931F93CF93DF93782E662EE09134
:105810000601F091070184E0EE0FFF1F8A95E1F782
:10582000EA5CFD4FC480D580D694C794E680F780AB
:10583000F694E794439A399AF894D0E0C0E0460190
:1058400081E0881A9108CC15DD0509F431C05401B6
:10585000AC1ABD0A711001C05E0110E000E0572CC7
:105860005A240E151F0511F1C5010E94191429981B
:10587000C8010E941914852D802780FF15C0419A08
:105880002B9843980000439A43980000439A43980A
:105890000000439A43980000439A2B9A299A0E9449
:1058A00011140F5F1F4FDDCF4198EACF2196CBCF68
:1058B000662021F081E194E10E945B1C41983998B7
:1058C00010E000E04E0181E0881A9108C017D1076E
:1058D00009F447C05401A01AB10A711001C058015F
:1058E000D12CC12C472C4A24CE14DF0409F436C035
:1058F000542C5C24550C550C852D8470582EC501F4
:105900000E9419142998C6010E9419144398000096
:10591000439A86B143980000439A26B14398000009
:10592000439A96B143980000439A36B1299A852547
:105930002525822B9525892B5326582A52FE08C0EF
:105940007894399A62E0611065E0872D0E943015E5
:105950000E9411148FEFC81AD80AC6CF0F5F1F4FCD
:10596000B5CF7894399ADF91CF911F910F91FF9025
:10597000EF90DF90CF90BF90AF909F908F907F90EF
:105980006F905F904F9008952F923F924F925F9249
:105990006F927F928F929F92AF92BF92CF92DF923F
:1059A000EF92FF920F931F93CF93DF93CDB7DEB7A4
:1059B000AD970FB6F894DEBF0FBECDBF582E6BA7C4
:1059C000E0910601F091070134E0EE0FFF1F3A95D8
:1059D000E1F7EA5CFD4F64807580868197818130B4
:1059E000914008F096C032E038A73BB13C73FE010D
:1059F000319620E090E0892F8370832B422F407CEA
:105A0000842B81939F5F205F9031A9F788E0E8E0C5
:105A1000F1E0DE01519601900D928A95E1F788E060
:105A2000898F88E18A8F89E08B8F89E18C8F439AF7
:105A3000F894399A10E000E0F3013197FAA7E9A74A
:105A40001E01FDE12F0E311C0615170509F464C077
:105A50006801552021F0C9A4DAA4C01AD10A952DF5
:105A60009C25892F817090FD82E022E02827998D66
:105A7000982B9D8F9A8D922B9E8F9B8D892B8F8F2C
:105A80008C8D822B88A3C6010E944C142B9885B163
:105A90008A7E7101F701908198B94E01F1E18F0E74
:105AA000911C28E02FA3FE0131965F0124E0422ED5
:105AB000F4019081892B85B9C5010496439AF501BB
:105AC00021915F012BB943988E179F07B9F72B9A45
:105AD000C6010E9486142B9885B18A7EF7019081B9
