:100000000C94AF040C94D7040C94D7040C94D7042C
:100010000C94D7040C94D7040C94D7040C94D704F4
:100020000C94D7040C94D7040C94D7040C94D704E4
:100030000C94D7040C94D7040C94D7040C94D704D4
:100040000C9436270C94D7040C94D7040C94D70442
:100050000C94D7040C94D7040C94D7040C94D704B4
:100060000C94D7040C94D7043231313420314B78BE
:100070003400343136342036344B783120326D73CD
:10008000003430323720344B783100343831362068
:1000900031364B783100343131362031364B7831BE
:1000A0000034313130303020314D78310035313449
:1000B00034303220314D78342D53430035313434CF
:1000C000303020314D7834003531343235382032FB
:1000D00035364B78342D53430035313432353620A4
:1000E0003235364B783400343436342036344B785D
:1000F0003400343431362031364B783400343132E8
:100100003537203235364B78312D4E4D0034313273
:100110003536203235364B7831003431363420369E
:10012000344B783120346D73002D3330002D323054
:10013000002D3435000001040510111415001004C1
:100140001401110515436865636B696E672E2E2EC9
:100150000044657465637465643A0052414D2D54E2
:100160004553544552005352414D204572726F72AF
:10017000004342522054696D6572206661756C744B
:100180000053686F72742050696E2000474E4420FF
:1001900053686F727420004572726F722052616EE4
:1001A000646F6D44617461004572726F72204368C0
:1001B00065636B6572626F6172640053686F72741D
:1001C00020416464726573736C696E6521003F0041
:1001D000416464726573736C696E6520410042000E
:1001E000446566656374206F72206E6F2052414DC6
:1001F00021002033324B0052756E204E722E00418A
:10020000004342523A001112132122313332342377
:1002100041144211247FF8CF1F417656105D515B87
:10022000175D944D175D6F451741355C107F55D5AF
:100230001F003A0F005255B505A95B9A1DD603352C
:1002400017BCDAAE1BC92B8A1017014315F8D075FD
:10025000119F96A10A55E021190F6DF413FCBF867A
:100260001210951709C319F31300C911157F805B8C
:100270001941521E035DB5FC015D5281085D503D80
:100280001E4105D21A7FD2360B20333200352E3074
:100290002E36005665722E3A0048004F4646004FF3
:1002A0004E003A200044495000546F67676C652047
:1002B0002D3E20524553455400446973702E4469C5
:1002C0006D004C6F6F700033324B20456E612E0015
:1002D00053656C662054657374204661696C210017
:1002E000420053657475700053686F727473205ABE
:1002F00049462F5A49500053656C66205465737403
:10030000204F4B00576972652050696E32302D3E88
:10031000616C6C004E6F2053686F72747320666F4F
:10032000756E6400436865636B696E672053686F20
:10033000727473005265736973746F7273204F4BDC
:10034000005265736973746F72730053656C662035
:1003500054657374001011121314151617212223FB
:1003600024190000000201040318000000101112FB
:10037000131415160006050000000000000201001D
:1003800003000000001211000000001715180506F8
:10039000021000000016011303000000000000001E
:1003A00000000000000080008040C040C0008000CD
:1003B0008040C040C00000000000000000010101BA
:1003C0000101010101000001010000010100000123
:1003D0000100000101333733322D4C2F34353332D5
:1003E0002D3300333733322D482F343533322D330C
:1003F00000333733322D4C2F343533322D34003324
:100400003733322D482F343533322D3400333733E0
:10041000322D4C00333733322D4800343533322DF2
:100420003300343533322D340034313634206F729A
:100430002033324B783100436865636B2044495068
:1004400000435300446F75740044696E004F4500CB
:10045000574500434153005241530010000202032C
:10046000030204040406000006FF06FF000000006B
:10047000008D200580DE002E06D2D88C003007F3D8
:10048000D855AE0A3107F3D825D91A320AB4D8A9FB
:1004900098412C4700330BB4D88C0C92463229007B
:1004A000340AB4D846558D984102350AB4D80C0D9B
:1004B00036924901360AB4D8A90C56944901370B33
:1004C000B4D88C0C6206318308380AB4D8A9985481
:1004D000944901390AB4D8A928D30649013A07EA50
:1004E000D88C38025608B4D84467920A6509A4D853
:1004F000A9343250007208A4D8ACA841060000000C
:1005000004FFFF0000030005050606050207202082
:100510000000200020000000000000A64332D08729
:10052000071B2319CA48863292A18C64282738C237
:10053000098E3254A10C55AC4215AB5884798233E4
:1005400018B214E520E848C622D8D0840500473EFA
:100550001C080533E21AD6A84745283215A94406D7
:1005600032AF798E2B48D10C62308318EB20873A5A
:10057000C89110722484200821C8B18C5530828D16
:10058000852863218B58C81218F2813F483420080F
:10059000054F421BF8948D7CC2682B60881218921C
:1005A000064635A94D6C62D4A2D6C49660B485AE19
:1005B0004707615481105620C31DC4908D4D6800BB
:1005C00000000004FFFF0000020004050606010110
:1005D00007202000002000200000000000008D41C6
:1005E000402038989107CC7920A4A6D64AECB4E2F2
:1005F000A892622A2A84AA42A632622AAD24314AEB
:1006000022A2A612AAD20B337B62A1471881C41B77
:100610008EB8D20E4B6BA9961E08E7014318004214
:100620004B2038989107CC7920A4A6D64AECB4E2A6
:10063000E810458E3908A1438E32EA10A488424260
:1006400029A12ABD3033CD32BCB42AA194408A28D6
:10065000448E32EA9083103AE610450EE24A3B2C73
:10066000ADA55A7A209C070C610000000004FFFF32
:100670000000400003030304030504060E00FE0A05
:10068000FE0BFE000000000000200500F20721071D
:1006900052C3C713012D060ED287012E0612C307BF
:1006A000012F0E6EBAA736A14CA826940915013069
:1006B0000B56C20F45C49F241400310A56C2976CD2
:1006C00044D42703320D56C20F454412CA84328DDA
:1006D00006330F56C20F4544128AA6421249420100
:1006E000340D56C267506D44D1C5269400350F565F
:1006F000C2C72128AC88844212494201360E56C234
:10070000D748422256449C241400370C56C2C721B5
:100710004411CA847A02380F56C20F45C4242151AD
:10072000444C120A00390E56C20F45C44952245196
:100730004423003A073AC70799003D0726CA871D98
:100740006A3E094EC28754371D013F0E56C20F45FF
:10075000449229AAC3842200410C56C20FE510E23C
:1007600074183109420D56C24745C414A988385D32
:1007700000430C56C20F45C4A813494201440C560D
:10078000C20749A2C42F121200450B56C2C721A8A6
:1007900058116A34460B56C2C721A85811EA0847B7
:1007A0000D56C20F45C4A85262925000480B56C263
:1007B0008788D361C49300490956C28749A89F0C12
:1007C0004A0B56C2A73E9228A211004B0F56C28771
:1007D000882221CD6624924489244C0856C2875031
:1007E0007F344D0C56C24770443A1C443C094E0CB1
:1007F00056C287885469A17422094F0B56C20F450F
:10080000C49F241400500B56C24745C4E922D408A3
:10081000520C56C24745C474D1C44900531056C245
:100820000F454492488552898824A100540956C234
:100830008749A83F01550A56C287887F92500056C3
:100840000C56C287889F24249A0800570C56C287EA
:1008500088A7C3432514015A0E56C287512694090E
:10086000654299D000610D3EC20F45249B48482443
:100870004901620B56C28750B122E2E902630B3E86
:10088000C20F4544D424A100640A56C2A796134F50
:100890009202650D3EC20F45443A0C45120A0066AD
:1008A0000C56C29F8C241499843A01670E4EBACF1D
:1008B0004A45D32C5811492800680B56C28750B1BD
:1008C00022E29300690752C307E9706B0E56C28794
:1008D00050534485449228D1026C0752C3C7830108
:1008E0006D0A3EC2874472F840126E093EC2474507
:1008F000C427016F0A3EC20F45C4938402700B4E99
:10090000BA4745C4D3452804720A3EC24745C4A825
:100910001100730D3EC20F452491AA88241400745F
:100920000B56C29750C924D4750075093EC28788FA
:100930004F9202770C3EC287887478A88422007890
:100940000D3EC2878824A1C928229200790E4EBA92
:10095000878824D1693694288D000000E03C11245A
:100960001FBECFEFD8E0DEBFCDBF13E0A0E0B1E007
:10097000E4EDFBE702C005900D92A632B107D9F76E
:1009800025E0A6E2B3E001C01D92AD3FB207E1F75A
:1009900014E0CFEAD4E004C02197FE010E94DB3DC1
:1009A000CE3AD107C9F70E944D2F0C94E83D0C9424
:1009B00000008093F50508959B01DC011896ED91E8
:1009C000FC9141E067E109948230910538F0880F8D
:1009D000991F880F991F05970197F1F708953FB761
:1009E000F89480915D0490915E04A0915F04B091B1
:1009F000600426B5A89B05C02F3F19F00196A11DE4
:100A0000B11D3FBFBA2FA92F982F8827BC01CD0158
:100A1000620F711D811D911D42E0660F771F881FB7
:100A2000991F4A95D1F708958F929F92AF92BF92E6
:100A3000CF92DF92EF92FF926B017C010E94EF0454
:100A40004B015C01C114D104E104F104B9F00E942E
:100A5000EF04681979098A099B09683E734081058A
:100A6000910580F321E0C21AD108E108F10888EE6F
:100A7000880E83E0981EA11CB11CE4CFFF90EF907C
:100A8000DF90CF90BF90AF909F908F900895982F58
:100A9000883028F098EF8E3008F092EF980F21E020
:100AA00030E001C0220F9A95EAF7662371F0EBE27D
:100AB000F0E0883030F0E8E2F0E08E3010F4E5E26B
:100AC000F0E08081282B20830895EBE2F0E088306D
:100AD00030F0E8E2F0E08E3010F4E5E2F0E0808102
:100AE00020952823F0CF982F883028F098EF8E306B
:100AF00008F092EF980F21E030E001C0220F9A95A4
:100B0000EAF7613071F4EAE2F0E0883030F0E7E2D1
:100B1000F0E08E3010F4E4E2F0E08081282B2083B6
:100B20000895EAE2F0E0883030F0E7E2F0E08E305D
:100B300010F4E4E2F0E09081422F409594239083FA
:100B4000623059F4EBE2F0E0883038F3E8E2F0E0AC
:100B50008E3018F7E5E2F0E0E0CFEBE2F0E088302D
:100B600030F0E8E2F0E08E3010F4E5E2F0E0808171
:100B700084238083089580E00895DC011A96ED9126
:100B8000FC9130E020E009940F931F93CF93DF9303
:100B900000D000D01F92CDB7DEB76C834D832B837E
:100BA0001A830983DC011496ED91FC919E012F5F5D
:100BB0003F4F41E06FE009950F900F900F900F901D
:100BC0000F90DF91CF911F910F910895DC01169640
:100BD000ED91FC9130E020E040E069E10994DC0116
:100BE0001696ED91FC9130E020E040E068E1099438
:100BF0009A01DC011696ED91FC91462F67E109946C
:100C0000EF92FF920F931F93CF93DF931F92CDB775
:100C1000DEB77C018B01D8016C91673129F150F46A
:100C20006531A0F40F90DF91CF911F910F91FF904C
:100C3000EF9008956A3118F16E3FA1F7F8014181F4
:100C4000498369E2C7010E94BD050BC0F8014181DB
:100C50004983D7011696ED91FC9130E020E0C70161
:100C600009950E5F1F4FD7CFF80181818983AE01AF
:100C70004F5F5F4F61E0C7010E94F805F2CF0F5F41
:100C80001F4FD7011696ED91FC9130E020E040E037
:100C9000C7010995C0CF462FDC011696ED91FC9156
:100CA00030E020E066E10994462FDC011696ED91D4
:100CB000FC9130E020E065E10994EF92FF920F9300
:100CC0001F93CF93DF93EC01042F79016D3009F46A
:100CD00046C050F46B30C9F1693009F49FC06A30E6
:100CE00009F465C080E046C06E3009F452C06F3030
:100CF00099F70E94EF05F7011381110F110F110FE2
:100D00006C89160F60E4CE010E945406612F629533
:100D10006F706061CE010E945406612F6F70CE012A
:100D20000E944B06F7016481606BCE010E944B0666
:100D3000F701408151816281660F660F660FCE0117
:100D40000E94F8050150A1F72EC069E371E0442329
:100D500011F064E371E0CE010E9400060AC0411167
:100D600010C06DE271E00E940006E881F98182897D
:100D70008C8B81E0DF91CF911F910F91FF90EF90CD
:100D8000089566E271E00E940006E881F981838996
:100D9000EFCF0E94EF0561E8CE010E945406602F5C
:100DA000CE010E944B06CE010E94E605E2CFEA8505
:100DB000FB8530E020E040E068E2CE010995EE815D
:100DC000FF8130E020E040E064E1CE01099541E0A0
:100DD0006BE4CE010E94BD05E881F981448169E29E
:100DE000CE010E94BD0540E06BE4CE010E94BD052E
:100DF000E881F981448169E2CE010E94BD0541E0AC
:100E00006BE4CE010E94BD05E881F981458169E26C
:100E1000CE010E94BD056EE371E09DCF83E791E0B6
:100E2000998388831C8AA5CFDC011896ED91FC91EB
:100E300030E020E040E069E10994DC011896ED9192
:100E4000FC9130E020E040E068E10994CF93DF932B
:100E50001F92CDB7DEB76983BE016F5F7F4F0E94DF
:100E6000DC040F90DF91CF910895EF92FF921F93D2
:100E7000CF93DF93EC01162F7A010E941D0760E4E7
:100E8000CE010E942607E885F9859701412F67E189
:100E9000CE010995CE01DF91CF911F91FF90EF9088
:100EA0000C941407EF92FF921F93CF93DF93EC0102
:100EB000142F7901663181F138F4643109F44BC0A3
:100EC000653179F080E022C06831C9F150F16931B3
:100ED000C9F780914C04882391F1CE010E94140738
:100EE0002EC080914C04882319F0CE010E94140773
:100EF000CE010E941D0760E0CE010E942607612FEF
:100F0000CE010E94260781E080934C04DF91CF91AF
:100F10001F91FF90EF900895642F0E94260781E0B3
:100F2000F5CF80914C04882319F0CE010E9414075C
:100F3000A701193138F4612FCE010E9435071092B4
:100F40004C04EDCF68E1CE010E943507185188E1CD
:100F5000E80EF11CEDCF8E898F3F11F488E78E8B60
:100F6000E885F9859701412F64E1CE01DF91CF91AA
:100F70001F91FF90EF900994662329F06A3019F0D1
:100F8000862F90E008958FEF9FEF08950F93FC0157
:100F9000E05CFF4F0190F081E02D4E1B5F0BDC0108
:100FA000D496ED91FC9109950F910895CF93DF931D
:100FB000FC01A081B18182AD90E09C0143E0220F51
:100FC000331F4A95E1F737AF26AF50962C915097D3
:100FD00048E0249F9001112435AF24AF23AD30E0C9
:100FE000B90153E0660F771F5A95E1F7EF01C05C36
:100FF000DF4F7983688351964C915197E901C80F6F
:10100000D91F50E04C175D0718F4CA01821B930BDF
:10101000EF01CE5BDF4F79836883229623E0880F50
:10102000991F2A95E1F7860F971F99838883229647
:1010300054968D919C91559799838883E85BFF4FD7
:1010400056968D919C9191838083DF91CF910895E5
:10105000AF92BF92CF92DF92EF92FF920F93CF9316
:10106000DF93EC01DA017901942F9770E1E0F0E071
:101070009F01092E01C0220F0A94EAF7522F6E0138
:101080008AE8C80ED11CF601808140E0823018F455
:10109000422F813049F15D01F8EFAF22E8ADF9ADA3
:1010A00028813981D90150968C918A9D90018B9D20
:1010B000300D1124620F731FDF01A60FB71F01113E
:1010C0001AC0EA0EFB1E8C91842B85278D93AE15DA
:1010D000BF05C9F7DF91CF910F91FF90EF90DF909F
:1010E000CF90BF90AF90089550E0D5CF440F550FEB
:1010F000E114F10479F33C91342B35273C939F5F45
:101100009770E1E0EE1AF1089111F0CF2CAD3DADF2
:10111000A20FB31FF6018081823028F4813009F0DC
:1011200051E041E0E5CF51E0E3CF0F931F93FC0185
:10113000E25BFF4F0190F081E02DDC01A05BBF4F2F
:101140000D90BC91A02D4A175B0740F4E017F10702
:1011500048F00417150730F080E019C0E017F107D8
:10116000C0F3FACFFC01E65BFF4F40815181845B05
:101170009F4FFC01808191816817790758F481E0C5
:101180004217530720F081E02617370728F71F91F1
:101190000F91089542175307B0F3DECF2F923F927D
:1011A0004F925F926F927F928F929F92AF92BF9277
:1011B000CF92DF92EF92FF920F931F93CF93DF9323
:1011C000CDB7DEB72A970FB6F894DEBF0FBECDBFFE
:1011D0009A878987865B9F4F9A838983FC01118256
:1011E0001082E985FA85EA5BFF4F408051802985AE
:1011F0003A85245B3F4F3C832B83F9015182408227
:10120000E985FA85EE5BFF4F2080318029853A859C
:10121000225B3F4F3E832D83F90131822082E98595
:10122000FA85EC5BFF4F6080718029853A85205BF1
:101230003F4F38872F83F90171826082E985FA85F3
:10124000E85AFF4FE080F180E985FA85EC5AFF4FBC
:10125000A080B180E985FA85EA5AFF4FC080D1802D
:10126000E985FA85EE5AFF4F8080918087019501CC
:10127000A601B40189859A850E94950829853A8539
:101280002C573F4F3A87298781111BC0F9011082E3
:101290002A960FB6F894DEBF0FBECDBFDF91CF9177
:1012A0001F910F91FF90EF90DF90CF90BF90AF9084
:1012B0009F908F907F906F905F904F903F902F9076
:1012C000089581E0E985FA8580838114910421F0F5
:1012D000E981FA8191828082A414B50420F4EB8123
:1012E000FC81B182A0822C143D0420F4ED81FE81AA
:1012F000D182C082E614F70458F6EF81F885F182B6
:10130000E082C6CF0F93CF93DF93E02FDC01AC5781
:10131000BF4FFC91FF2309F460C02115310509F48A
:101320005CC02230310538F0023009F04AC06F5FEE
:101330007F4F621B730B0E2F0170E0FD52C0FC014A
:10134000E25BFF4F0190F081E02D4E175F0708F43C
:1013500044C0FC01E05BFF4F0190F081E02D4E178F
:101360005F07D8F5FC01E45BFF4F0190F081E02DB1
:10137000DC01A65BBF4F0D90BC91A02D260F371F3F
:101380002617370738F56E177F0718F59F0121508C
:101390003109A217B30708F56A177B0708F4BD01E6
:1013A0002E173F0708F4F901E61BF70BEC01AEA975
:1013B000BFA914960D90BC91A02D9F01FD01099528
:1013C0000CC0033009F0B7CF4F5F5F4F421B530B88
:1013D000B2CFBD016E177F07E0F2DF91CF910F9181
:1013E0000895FC01E65BFF4F0190F081E02D6E1740
:1013F0007F0798F3FC01E45BFF4F0190F081E02D43
:101400006E177F0750F7FC01E05BFF4F0190F08102
:10141000E02DDC01A25BBF4F0D90BC91A02D240FED
:10142000351F24173507A8F44E175F0788F49F016E
:1014300021503109A217B30780F64A175B0708F459
:10144000AD012E173F0708F4F901E41BF50BAECFF1
:10145000AD014E175F0708F6EDCFAF92BF92CF9266
:10146000DF92EF92FF920F931F93CF93DF936C0164
:10147000EB015A017B01E20EF31E9C01240F351F84
:101480008701AB01BC018BE695E00E94950888239B
:1014900061F000E09501AE01B6018BE695E00E9497
:1014A00082092196EC16FD06A1F7DF91CF911F91DD
:1014B0000F91FF90EF90DF90CF90BF90AF90089585
:1014C00090E080E00895213069F038F0223079F022
:1014D000840F911D47FD9A950895860F911D67FD14
:1014E0009A950895841B910947FD93950895861B4D
:1014F000910967FD93950895213069F038F0223005
:1015000079F0861B910967FD93950895840F911DCD
:1015100047FD9A950895860F911D67FD9A95089548
:10152000841B910947FD939508953F924F925F92D6
:101530006F927F928F929F92AF92BF92CF92DF92E3
:10154000EF92FF920F931F93CF93DF937C01162F9F
:10155000442EEC01C25ADF4F5E806F806C018AE836
:10156000C80ED11C78847518312E711608F4372CEA
:101570008C809D800E85202F462D652D8A819B8134
:101580000E94630A5C01202F462D652DC4010E9434
:101590007C0AAC01442079F08C85F6018083232DF0
:1015A00030E0B501C7010E948209171548F01719EC
:1015B0006394512CD7CF8B858111F7CF8D85EDCFDB
:1015C000150D1E836F82DF91CF911F910F91FF90B8
:1015D000EF90DF90CF90BF90AF909F908F907F90D3
:1015E0006F905F904F903F900895DC011A964C9158
:1015F0001A97ED91FC911197249130E0042E02C0CE
:10160000359527950A94E2F7842F860F883068F085
:1016100031961196FC93EE93E49198E0941B01C0EF
:10162000EE0F9A95EAF72E2B88501A968C938FEF2F
:101630009FEF01C0880F6A95EAF78095822308958D
:10164000FC01E60FF11D849190E0982F88273196D8
:10165000E4918E0F911D0895CF93DF932091C505DE
:101660003091C6052817390709F490C0EC01909312
:10167000C6058093C505FC0184918093D8053196F9
:10168000E491E093D905FE013296E491E093DA0506
:10169000FE013396E491E093DB05FE013496E4917C
:1016A000E093DC05FE013596E491E093DD05FE0153
:1016B0003696E491E093DE05FE013796E491E093DF
:1016C000DF05FE013896E491E093E005FE013996CE
:1016D000E491E093E105FE013A96E491E093E2059E
:1016E000FE013B96E491E093E305FE013C96E49114
:1016F000E093E405FE013D96E491E093E505FE01EB
:101700003E96E491E093E605FE013F96E491E09376
:10171000E705FE017096E491E093E80561E1CE01F2
:101720000E94200B9093EA058093E90563E1CE01C6
:101730000E94200B9093EC058093EB0565E1CE01B0
:101740000E94200B9093EE058093ED058091C505D6
:101750009091C605892BD1F08091E5058093F10524
:101760004091E6054093F2059091F005992371F0C0
:10177000913079F49091E705891714F49093F1056D
:101780008091E805841714F48093F205DF91CF91DE
:1017900008953091E2052091E405082E000C990B84
:1017A000622F022E000C770B630F711D37FD7A95A7
:1017B000861797071CF4320F3093F105241734F77E
:1017C0002093F205E3CFCF93DF93EC016BAFEEA94B
:1017D000FFA90190F081E02D0995EEA9FFA90280F3
:1017E000F381E02DCE01DF91CF910994AF92BF92AA
:1017F000CF92DF92EF92FF920F931F93CF93DF93DD
:10180000EC01AAACEBACE881F981B188FE2CD12CBB
:10181000C12CE881F981208908AD19AD88E0289FA5
:10182000A00111244C9DC0014D9D900D5C9D900D1B
:101830001124080F191F4F2D60E0CE010E94C4052E
:10184000F3948F2D8E198A1528F48FEFC81AD80AB1
:10185000FB14F8F2DF91CF911F910F91FF90EF9061
:10186000DF90CF90BF90AF900895882361F02C9ABD
:101870002D9A0000000000000000000000000000A1
:1018800000002D9808952C98F3CFCF93C82F80781F
:101890000E94350C8C2F80740E94350C8C2F807226
:1018A0000E94350C8C2F80710E94350C8C2F887013
:1018B0000E94350C8C2F84700E94350C8C2F827006
:1018C0000E94350C8C2F81700E94350C2C9A2D9A19
:1018D0000000000000000000000000000000000008
:1018E0002C9A2D98CF9108950F931F93CF93FC01BD
:1018F000C42F8901683119F148F46431B1F06731BE
:1019000059F080E0CF911F910F910895693169F1ED
:101910006032B9F781E0F6CFCC23E1F3F801819191
:101920008F010E94450CC150F7CF84B1806384B908
:1019300085B1806385B985B1806385B9EBCF87892F
:10194000882351F02C9A2D9A00000000000000001E
:1019500000000000000000002C9A2C982D9881E0D7
:10196000878B86890E94450CD5CF2C982D9A000034
:1019700000000000000000000000000000002C9AA1
:10198000178AC8CF6D32E9F030F4683261F06932FD
:1019900089F081E008956C34D9F06D34D1F7442397
:1019A000E9F02C9AF6CF84B1806384B985B1806365
:1019B00085B9EFCF642F70E090E080E00E941405BD
:1019C000E8CF433030F78FE090E00197F1F7E1CFB7
:1019D000442311F02D9ADDCF2D98DBCF2C98D9CF51
:1019E000789415B888B1807F88B98CE18BB914B828
:1019F00087B1807C87B91AB81BB884B1806384B979
:101A000085B18F7C85B980915704853031F484B1DC
:101A1000807F84B985B18F6085B908950E94F00CEC
:101A20002D9A2C9868EC70E080E090E00E941405FC
:101A30002D982C9868EC70E080E090E00E941405EE
:101A4000EFCF8230910529F0039731F02D9A2C9831
:101A500008952D982C9A08952D9AFCCF0F931F93DB
:101A6000CF938C01C62FC150A0F0C8010E94210D58
:101A700064EF71E080E090E00E9414052D982C98AE
:101A8000CC2389F364EF71E080E090E00E941405BC
:101A9000EACFCF911F910F910895CF93DF93C82F75
:101AA000D62F61E00E94470561E08D2F0E94470517
:101AB00061E08C2F0E94730561E08D2F0E947305F9
:101AC000D8E060E08C2F0E94470561E08C2F0E94D7
:101AD0004705D150B1F7DF91CF91089590917C00E7
:101AE000907F892B80937C0080917A008064809322
:101AF0007A0080917A0086FDFCCF809178009091E9
:101B0000790008955F926F927F928F929F92AF9229
:101B1000BF92CF92DF92EF92FF920F931F93CF93DA
:101B2000DF93EC01742E7901E0910601F091070139
:101B300024E0EE0FFF1F2A95E1F7EA5CFD4F63807A
:101B400086179707D1F510E000E0C62C062C000C94
:101B5000DD08A62CB12C94E1592ECC19DD09862D77
:101B6000801B87FD63C0809006019090070184E090
:101B7000880C991C8A95E1F7C601801B910B8A1588
:101B80009B054CF4F401EA5CFD4F8785859DC001FF
:101B900011240E94E404F401EA5CFD4F8685859DD2
:101BA000C00111240E94E404672DCE01800F911F13
:101BB000F70109950F5F1F4FD2CF062D10E0801758
:101BC0009107E0F08685F4E18F9FC00111240E9407
:101BD000E404672DCE01801B910BF701DF91CF91BB
:101BE0001F910F91FF90EF90DF90CF90BF90AF903B
:101BF0009F908F907F906F905F900994E80FF91FEE
:101C00008185F4E18F9FC0011124DF91CF911F9155
:101C10000F91FF90EF90DF90CF90BF90AF909F908B
:101C20008F907F906F905F900C94E404DF91CF9140
:101C30001F910F91FF90EF90DF90CF90BF90AF90EA
:101C40009F908F907F906F905F90089580E02FE03D
:101C5000E82FF0E0E959FB4F90819227908391E0C3
:101C6000980F8F3F09F40895892FF2CF20E04DE3BC
:101C7000E22FF0E0249FC001112431EE83273CEADB
:101C8000932738E0BC0176956795817099279195E7
:101C9000819591098827947B86279727315091F762
:101CA000E959FB4F89278F70808381E0820F2F3F96
:101CB00009F40895282FDCCFCF92DF92EF92FF92A4
:101CC0000F931F93CF93DF936C01EB017B01E40E25
:101CD000F51E10E000E0CE15DF0561F06991D60138
:101CE000ED91FC910190F081E02DC6010995080F5E
:101CF000191FF1CFC801DF91CF911F910F91FF9074
:101D0000EF90DF90CF9008952F923F924F925F9285
:101D10006F927F928F929F92AF92BF92CF92DF92FB
:101D2000EF92FF920F931F93CF93DF93CDB7DEB760
:101D300028970FB6F894DEBF0FBECDBF7C016C01B3
:101D400024E0C20ED11CFC01E057FF4F0190F0814E
:101D5000E02DC60109958C018E3F9F4F08F061C0B0
:101D6000370184E9680E711CF3010190F081E02DC8
:101D7000FD83EC835701F2E9AF0EB11CF5018080C1
:101D80009180970120593F4F3B832A83F90180813D
:101D9000813009F470C008F45FC0823009F476C065
:101DA000833009F482C0F701EC59FF4F91828082A1
:101DB00032962C813D8131832083389780819181B7
:101DC00047969D838C830F3F110511F008F020C1C9
:101DD000B6960136110530F40134110558F0F701BB
:101DE000EE57FF4F808191812C813D81280F391F53
:101DF0003D832C838C819D810196FC0124912111CE
:101E00005FC090E080E0EA81FB812081213009F40D
:101E1000C1C108F4B7C1223009F4BEC1233009F4AE
:101E2000C3C181E090E028960FB6F894DEBF0FBEE4
:101E3000CDBFDF91CF911F910F91FF90EF90DF9079
:101E4000CF90BF90AF909F908F907F906F905F905A
:101E50004F903F902F900895F701E05AFF4F019067
:101E6000F081E02DC60109952C813D81280F391F95
:101E70003D832C8398CFF701E05AFF4F0190F0810A
:101E8000E02DC6010995881A990A8DCFF701E05A0D
:101E9000FF4F0190F081E02DC6010995EC81FD8195
:101EA000E81BF90BFD83EC837ECFF701E05AFF4F6F
:101EB0000190F081E02DC6010995880E991E73CF1F
:101EC000EC81FD8124912017110609F09AC0CF0101
:101ED0000296009709F495CFF701EE59FF4FF88766
:101EE000EF83918380831286739660818F819885BA
:101EF0000E94F50AEF81F8858087F701EA58FF4FC5
:101F000060818F8198850E94F50A582EEF81F885AF
:101F10008187970122573F4F3D832C83F9019081A0
:101F2000EF81F885948781E0911180E0EF81F88559
:101F30008587F701E958FF4F8080682D8F8198854C
:101F40000E94F50A382EF701E858FF4F2080622DD5
:101F50008F8198850E94F50A982EF701E758FF4F68
:101F60001081612F8F8198850E94F50A9FEF910F54
:101F700001E010E0980101C0220F9A95EAF7821B58
:101F80008E83EF81F885408414140CF0C4C08A94C9
:101F9000C80101C0880F8A94EAF7381AF685F983D8
:101FA000950C2A94C80101C0880F2A94EAF7282EBC
:101FB00029182F2F422D632DEF81F885828193817F
:101FC0000E94630A4C01EF81F88593838283298103
:101FD000422D632D848195810E947C0AEF81F885D2
:101FE00095838483F981F13009F49AC008F44EC0D6
:101FF000F23009F4A4C0F33009F4B5C0BC01940177
:102000004FC0FC0184912C813D81280F311DF0CE01
:10201000F701EA57FF4F80819181EC81FD81E80F44
:10202000F91FFD83EC834F0160E0C4010E94200B87
:102030002C813D81280F391F3D832C8362E0C40130
:102040000E94200B34E0830E911C8017910760F3EF
:10205000EC81FD81849190E0982F88273196E4915E
:102060008E2B009709F4CDCE0817190721F48C8127
:102070009D8103962ECFEC81FD813296E4912C81D7
:102080003D812E0F311D3D832C83E2CF9401240D21
:10209000311D47FC3A95BC01650D711D57FC7A95C1
:1020A0008B01AC01B401C6010E949508882399F107
:1020B000EF81F885168217824701F3E78F0E911C96
:1020C00024E7E20EF11CF40160818F8198850E9463
:1020D000F50A082FF70160818F8198850E94F50A23
:1020E000182F40E0602FC6010E94950A41E0612F41
:1020F000C6010E94950A61E08F8198850E94F50AC9
:102100008111EFCFEF81F88587818515E4F2848511
:10211000EC81FD818083FE818F2FFF0F990B73CEA1
:102120000519110957FC139594012F5F3F4FBC010E
:10213000640D711D47FC7A95800E911EB1CFA801E8
:102140004419510947FC539594012F5F3F4F0519DE
:10215000110957FC1395BC016F5F7F4F800F911FD2
:10216000840E951E9DCF9401250D311D57FC3A9587
:102170000419110947FC1395BC016F5F7F4F800F55
:10218000911F8ECFF50120813181820F931F9183A2
:10219000808347CEF301F7CFF50120813181281BE1
:1021A000390B318320833DCEF301F7CF0F931F937B
:1021B000CF93DF938C01D0E0C0E0F801EC0FFD1F5E
:1021C0006491662341F087E695E00E94840E892B96
:1021D00011F02196F2CFCE01DF91CF911F910F9197
:1021E0000895089590E080E00895299A2898299804
:1021F00000000000299A289A08950F931F93299AA6
:1022000005B10F7E18B11F7E90FD006191FD106138
:1022100005B918B98BB929981F910F9108950F939B
:102220001F93299A28E0000029980000299A21503C
:10223000D1F7289A05B10F7E18B11F7E90FD00617D
:1022400091FD106105B918B98BB9299805B10F7EB8
:1022500018B11F7E60FD006161FD106105B918B9FC
:102260001F910F9108950F931F93CF93DF93EB016D
:102270000E94FD1005B10F7E18B11F7ED0FD0061D8
:10228000D1FD106105B918B9CBB90000289800003C
:1022900086B1289A299A8F70DF91CF911F910F9163
:1022A0000895FF920F931F93CF93DF93D62FF72EAE
:1022B000C42F0E94FD1005B10F7E18B11F7EF0FCE7
:1022C0000061F1FC106105B918B9DBB948B1407F74
:1022D0004C2B48B9000028980000289A299ADF91D1
:1022E000CF911F910F91FF9008958FE385B980E8FA
:1022F00088B91BB88FE184B987B98FEF8AB908957F
:102300008F778BB9662341F0419A0000000028982E
:1023100000000000289A08954198F7CF299A0000FC
:1023200000008F778BB92998089580E480937C0012
:1023300087E880937A0084B18B7E84B985B18B7EE7
:1023400085B987B1837F87B988B1837F88B98FE0EA
:1023500090E00197F1F71C9902C080E014C01A9B2D
:10236000FCCF82E00E946E0D87529140823491052D
:10237000A0F783E00E946E0D9C012752314081E05E
:102380002234310550F708952B9A42982B9800007B
:1023900000002B9A429A0895449A4298449800006B
:1023A0000000449A429A08954BB14871FC0190E0B4
:1023B000292F2770242B392F330F330F307E232BF7
:1023C00021939F5F9034A1F708950F931F93449A30
:1023D0000000449800000000449A429A05B10B7E28
:1023E000182F1170110F110F012B182F1270110FD0
:1023F000110F110F012B05B90027182F147012951A
:10240000110F012B182F187012951695012B182FEC
:10241000107816951695012B182F107212951F70B3
:10242000012B182F1074129516951695012B182F45
:10243000107116951695012B0BB944981F910F91A9
:1024400008950F931F93449A05B10B7E182F1170B6
:10245000110F110F012B182F1270110F110F110FE7
:10246000012B05B90027182F14701295110F012B9D
:10247000182F187012951695012B182F1078169595
:102480001695012B182F107212951F70012B182F03
:102490001074129516951695012B182F107116951C
:1024A0001695012B0BB944981F910F91089584B193
:1024B000867F84B987B1857F87B985B1896085B901
:1024C00088B18A6088B9089584B1896084B987B178
:1024D0008A6087B908950F931F93CF93C82F80E028
:1024E0000E9421120E94641229988FE005B1067F94
:1024F000182F1270110F110F012B182F1470169531
:102500001695012B05B948B1457F182F1170110F91
:10251000412B182F1870412B48B905B10B7E1C2F89
:102520001170110F110F012B1C2F1270110F110FB1
:10253000110F012B05B900271C2F14701295110FD4
:10254000012B1C2F187012951695012B1C2F10783B
:1025500016951695012B1C2F107212951F70012BCA
:102560001C2F1074129516951695012B1C2F1071A7
:1025700016951695012B0BB942980000429A80E0FF
:1025800005B10B7E182F1170110F110F012B182F91
:102590001270110F110F110F012B05B90027182F01
:1025A00014701295110F012B182F18701295169593
:1025B000012B182F107816951695012B182F1072D5
:1025C00012951F70012B182F1074129516951695E1
:1025D000012B182F107116951695012B0BB9299AFE
:1025E0000E945712409842980000000006B113B1B3
:1025F0002227302F32703695230F312F38703695C1
:102600003695230F312F3170330F330F230F08709E
:10261000200F822F429A409A8F70CF911F910F9175
:1026200008950F931F9305B10B7E182F1170110F92
:10263000110F012B182F1270110F110F110F012BF9
:1026400005B90027182F14701295110F012B182FA0
:10265000187012951695012B182F1078169516954F
:10266000012B182F107212951F70012B182F107448
:10267000129516951695012B182F10711695169513
:10268000012B0BB942980000000006B113B12227BC
:10269000302F32703695230F312F3870369536959E
:1026A000230F312F3170330F330F230F0870200F9A
:1026B000822F429A8F701F910F9108950F931F934D
:1026C00005B1067F162F1270110F110F012B162F57
:1026D000147016951695012B05B948B1457F162F34
:1026E0001170110F412B162F1870412B48B905B1ED
:1026F0000B7E182F1170110F110F012B182F127054
:10270000110F110F110F012B05B90027182F14708D
:102710001295110F012B182F187012951695012B79
:10272000182F107816951695012B182F10721295E8
:102730001F70012B182F1074129516951695012BEA
:10274000182F107116951695012B0BB942980000A1
:1027500000000000429A1F910F910895AC0195B1BD
:10276000BA0176956795842F880F242F220F220FA8
:102770002470362F3170232B9A7E292B982F90713D
:10278000292B25B928B12B7F942F9470292B28B998
:102790003BB151FB222720F9FA01EE0FEF2FEE1F7C
:1027A000FF0BF1959E2F9270922B3871932B9A010B
:1027B00055E0369527955A95E1F72470922B607273
:1027C000962B8074982B842F880F880F880F807821
:1027D000892B8BB9089584B18F6184B987B18F61DA
:1027E00087B98AB1876E8AB988B1896088B9089536
:1027F00080FF1BC0449A4BB19C01369527952770EA
:10280000382F330F307E232B4871242B2BB925B161
:10281000880F892F881F990B9195FC01E35CFE4F6F
:10282000E4912A7EE22BE5B908954498E4CF0E9412
:10283000F8132B9890E080E00E94F8134298000073
:10284000000086B1429A2B9A83FB882780F908956D
:102850002B9A0E94F8132B980895CF93DF939C0135
:10286000D62FC42F2B9A98E000002B980000000070
:102870002B9A9150C9F7429AC9010E94F8132B98DC
:10288000D8B9C5B9DF91CF9108951F93CF93DF9346
:10289000162FC82FD0E0CE010E94F8132B981123D9
:1028A000C1F0409A419842980000429A419A2B9A6E
:1028B000CE010E94F8132B9842980000000086B1C8
:1028C000429A2B9A83FB882780F9DF91CF911F9141
:1028D00008954098E7CF299A43982998000000006E
:1028E000299A439A0895A82FAF71B0E09D01220F55
:1028F000331FA20FB31FAA52BE4F11965C911197BE
:1029000012964C91129765E0969587956A95E1F736
:102910009927FC01EB53FC4F3491FC01EB54FC4F25
:1029200024918B559C4FFC018491E5B1EA7E9C91EA
:10293000E92BE32BE5B9E8B1EE7EE52BE22BE8B914
:10294000EBB1EC73E42B8E2B8BB90895299A0E947E
:10295000731429980895CF93DF93EB014198399828
:102960000E9473142998CE010E94731441984398D1
:102970000000000086B1439A299A82FB882780F9DB
:10298000DF91CF9108950F931F93CF938B01C42FA5
:10299000399A0E94731429982B98C111C4E0C80178
:1029A0000E947314CC2351F0419A43980000439A3B
:1029B0002B9A299ACF911F910F9108954198F5CFA5
:1029C000299A0000299800000000299A439A0E9441
:1029D0007314299808958F929F92AF92BF920F938C
:1029E0001F93CF93DF93CDB7DEB7A1970FB6F894BF
:1029F000DEBF0FBECDBF19A2423008F44AE08E01FF
:102A00000F5D1F4F842E912CB12CA12CA501940198
:102A10000E94B93DE62FB901CA01EA3044F5E05DF4
:102A2000D801EE938D01232B242B252B79F790E0F1
:102A300080E0109769F0FD0101900020E9F73197DF
:102A4000AF014A1B5B0BBD0187E695E00E945C0E5F
:102A5000A1960FB6F894DEBF0FBECDBFDF91CF9128
:102A60001F910F91BF90AF909F908F900895E95C58
:102A7000D7CF982F907F903151F491E490936104D7
:102A80008F70805D80936204109263040895903289
:102A900069F499E4909361049FE4909362048F70C9
:102AA000805D8093630410926404089581508730A0
:102AB000F8F4E82FF0E0E15AFA4E0C94DB3D7B1578
:102AC00066157E156C156F157215751563E574E046
:102AD00081E694E00C948F3D6DE474E0F9CF69E4F5
:102AE00074E0F6CF64E474E0F3CF61E474E0F0CF17
:102AF00010926104089567E574E0EACF60E574E040
:102B0000E7CFFC01A081B18150962C9182AD38E0D5
:102B1000839FC0011124289FA001299F500D1124DB
:102B200070E060E080AD91AD0C94E13D1F93CF93D8
:102B3000DF93EC010E94F60B1BAD8AAD180FE88104
:102B4000F9818189181768F0EC81FD8130E020E07F
:102B500040E060E1CE01099580E0DF91CF911F91C7
:102B60000895FE01E557FF4F8081882319F0CE01BB
:102B70000E948115612FCE010E94E30B81E0EDCF11
:102B8000CF93DF93EC01FC01E557FF4F8081882351
:102B900019F0CE010E94811560E0CE01DF91CF9146
:102BA0000C94E30B982EC62FDFEFD60FD73068F4C6
:102BB000ED2FF0E0E252FA4E0C94DB3D01166A165E
:102BC0006A167916F1166316F7160FEF1FEF20EE4F
:102BD00031E044E067E485E095E00E9482280E94AD
:102BE000F00CD73008F037C1ED2FF0E0E650FA4E88
:102BF0000C94DB3D56160217FD16E3161F171D1722
:102C0000231784B1806384B985B1806385B98BE66D
:102C100095E00E94C01562E3262E312CC1E2D0E07F
:102C20000FE010E076E3A72EB12C292D2051330BB5
:102C30006901330FEE08FF08492C512C712C612CCF
:102C400088EC95E00E942C0B3092FA052092F90551
:102C5000D093FC05C093FB058EED91E00E94D61049
:102C600082E796E00E942C0B1093FA050093F90579
:102C7000B092FC05A092FB0580ED91E00E94D61079
:102C80003FE04AE0C301B201391530F480E2891512
:102C9000A8F04AE0C701B6010E94EB148BE695E06C
:102CA0000E9496158111CCCF0E94F00C8FEF890DF8
:102CB000D0E0843108F0912CC1E0ACC08EEC91E002
:102CC0000E94D610EBCF0FEF1FEF2BEB31E043E06C
:102CD00063E481CFE1E00FEF1FEF28EA31E041E04C
:102CE000E81718F427E931E048E062E488EC95E061
:102CF00074CF80916104882309F46DC084B180632E
:102D000084B985B1806385B98BE695E00E94C015D2
:102D100032E3E32EF12C41E2C42ED12CC1E6D4E003
:102D200057E0B52E06E310E085E095E00E942C0BFD
:102D3000F092FA05E092F905D092FC05C092FB05ED
:102D400083E40E94A52782E796E00E942C0BFE01F7
:102D500001900020E9F79F0122563440B29EC00145
:102D6000B39E900D11248A5B9F4F97FD0196959518
:102D70008795919581959109805C9F4F97FF02C03F
:102D800090E080E09093FA058093F9051093FC059C
:102D90000093FB058CE891E00E94D610FE010190A3
:102DA0000020E9F7AF014256544061E674E087E63F
:102DB00095E00E945C0E8BE695E00E9496158111CD
:102DC000B3CF0E94F00C8FEF890DD0E0843108F072
:102DD000912CC3E01FC0092D10E021E831E048E14B
:102DE00077CF0FEF1FEF21E731E04BE07ECF0FEF02
:102DF0001FEF26E631E04DE178CFD0E097E0992E45
:102E0000C2E008C0892D863008F085E099249394AB
:102E1000980ED0E0DD2319F12D9A2C9868EE73E01E
:102E200080E090E00E9414052D982C9868EE73E0E5
:102E300080E090E00E941405EDCFD0E0C9CFD0E053
:102E400088E0982EDDCF8FEF890DD0E0843108F037
:102E5000912CC4E0DFCFD1E0912CC0E0DBCF6C2F10
:102E600081E090E00E942E0D6CE271E080E090E045
:102E70000E941405992029F0692D83E090E00E94BA
:102E80002E0D6CED75E080E090E00E941405E7CF18
:102E9000DF92EF92FF920F931F93CF93DF93F82E61
:102EA000D62EE0910601F091070194E0EE0FFF1F8E
:102EB0009A95E1F7EA5CFD4FE6800E948E11F89446
:102EC00020E1F29E80011124D0E0C0E05C2FCE15FD
:102ED00008F03DC08C2F8F778BB900002898000038
:102EE0000000289A46B141709E01200F311FF90160
:102EF000F695E795F695E795FF27E959FB4F808111
:102F00002370332722303105A1F02330310599F0A9
:102F10002130310561F0847091E009F490E04917A7
:102F200079F0789463E081E08D0D0E94D21586954A
:102F3000F2CF880FF0CF24E0829FC0011124EBCFA5
:102F400050FF03C08F2D0E948E112196BFCF299A6A
:102F50007894DF91CF911F910F91FF90EF90DF90C8
:102F60000895DF92EF92FF920F931F93CF93DF9319
:102F700024B1982F9095922394B927B1962F9095CC
:102F8000922397B92AB1942F909592239AB995B12B
:102F9000982B95B998B1962B98B99BB1942B9BB966
:102FA000EFE0F0E03197F1F7D42E90E0E9E2F0E0C5
:102FB00003E010E0C8E0D0E021E03D2D322349F1EC
:102FC0003181322B31835281322F309553235283FA
:102FD000D8011197F1F7542F5323762F992389F1B4
:102FE0007323542F913069F5A82FA323762FF3B0C4
:102FF000FA22FA1228C0A6B1A723A71324C079B1D8
:103000007523751320C05181352331833281322BD2
:103010003283220F219789F69F5F933041F4DF912D
:10302000CF911F910F91FF90EF90DF900895D62ED2
:10303000E6E2F0E0913009F0BDCFD82EE3E2F0E017
:10304000B9CFA82FD4CF66E080E00E94D215AF920E
:10305000BF92CF92DF92EF92FF920F931F93CF9385
:10306000DF93DA01AB01F0E0E0E0CC24C394D12C93
:10307000B6010E2E01C0660F0A94EAF7EC01019624
:10308000B880B394B394AA24A394AB1460F4B3B0FF
:10309000B62249F4E20FF31F84910E94391564E0CF
:1030A00088810E94D215EA014F5F5F4FB880B394C8
:1030B000B394AA24A394AB1418F4B6B0B622B1F01A
:1030C000ED011196B8807EEFA72EBA1490F03196DC
:1030D000E830F10569F6DF91CF911F910F91FF90D4
:1030E000EF90DF90CF90BF90AF900895E00FF11F69
:1030F000D3CF79B1672359F7EE0DFF1DCDCF8F9256
:103100009F92AF92BF92CF92DF92EF92FF920F9376
:103110001F93CF93DF937C01C62E0E94FD10E09198
:103120000601F091070194E0EE0FFF1F9A95E1F779
:10313000EA5CFD4F80858170B82E9780C70124E03E
:10314000969587952A95E1F78E0D9F1DD92ED82645
:103150002A98F894C0E0C91508F072C005B10F7E36
:1031600018B11F7EC0FD0061C1FD106105B918B91D
:10317000AD2CAC26D0E0812CBB2009F436C02898B9
:1031800084E0882ED0E090E49D0FDBB900000000C1
:1031900086B18F70EA2DED27F0E0E959FB4F2081D1
:1031A000821332C0DF5FD913F0CF289AC7010E9483
:1031B000FD1005B10F7E18B11F7EC0FD0061C1FD7D
:1031C000106105B918B928988A948110DCCF36C0EF
:1031D000C7010E94FD1005B10F7E18B11F7EC0FD12
:1031E0000061C1FD106105B918B990E49D0FDBB90C
:1031F0002898289A86B18F70EA2DED27F0E0E959DA
:10320000FB4F2081821729F0789463E08C2D0E9477
:10321000D215E1E0ED0FEBB92898289A86B18F70AE
:10322000EA25F0E0E959FB4F20818213EDCFDE5F04
:10323000D913DDCF839484E08812CACFCF5F8BCFC0
:10324000289A2A9A299A7894DF91CF911F910F9109
:10325000FF90EF90DF90CF90BF90AF909F908F90B6
:1032600008951F93CF93DF93C62F142FD22F0E9460
:103270008E11CF77CBB90000000028980000000025
:10328000289A86B18170181741F0289A299A00006F
:10329000000061E08D2F0E94D215299A00000000E5
:1032A000DF91CF911F910895FF920F931F93CF93BA
:1032B000DF93C82FD62FF22E162F00E0411104C045
:1032C000182FC62F0D2FD0E02B98802F0E948E1123
:1032D00060E08D2F0E948011299A000000008C2F41
:1032E0000E948E1161E0812F0E948011299A0000B6
:1032F00000002B9A2F2D40E06D2F802F0E94311956
:103300002F2D41E0612F8C2FDF91CF911F910F91D5
:10331000FF900C9431199F92AF92BF92CF92DF929F
:10332000EF92FF920F931F93CF93DF93082FE091BB
:103330000601F091070184E0EE0FFF1F8A95E1F787
:10334000EA5CFD4F84819581D82EC680F894C0E058
:1033500099277C012FEFE21AF20ABB24BA94BD0C24
:10336000AA24A394AD0CCE151F0411F00CF05CC080
:10337000CD1548F51B2D1C1B011101C01C2F912ED2
:103380009026812F0E948E112B98D0E0DC15C8F476
:103390008D2F892580FF13C0419A8D2F8F778BB990
:1033A00000000000289800000000289A8D2F8370EC
:1033B000833019F4812F0E948E11DF5FE7CF41988F
:1033C000ECCF2B9A299AC23068F11EEF1C0F002314
:1033D00011F01A2D1C1B912E9026812F0E948E1108
:1033E000D0E0DC15F0F48D2F8F778BB90000289892
:1033F00000000000289A86B1992D9D279170817058
:10340000981731F07894299A62E0802F0E94D215A3
:103410008D2F8370833019F4812F0E948E11DF5F0E
:10342000E0CF299ACF5F9FCF7894DF91CF911F9102
:103430000F91FF90EF90DF90CF90BF90AF909F9053
:1034400008958F929F92AF92BF92CF92DF92EF92A8
:10345000FF920F931F93CF93DF93EC01A62EE09181
:103460000601F091070164E0EE0FFF1F6A95E1F796
:10347000E45CFD4F918074E0969587957A95E1F72D
:103480008C0F9D1FD92ED826419ACE010E94281458
:10349000F89410E000E0B12CB91408F04DC08B2C6A
:1034A0008D24C12CEC2DE825F0E0E959FB4F20815B
:1034B00023FB222720F9F801EC29E0FF2CC0449AD5
:1034C0003BB1CF019695879587709E2F990F907E7F
:1034D000892B3871832B8BB985B1EE0FEF2FEE1F3F
:1034E000FF0BF195E35CFE4FE4918A7EE82BE5B992
:1034F00042980000429A86B183FBEE24E0F8F12C5A
:103500002E151F0451F078942B9A63E08A2D0E94A7
:10351000D215C82EC7CF4498D3CF8C2D8F708F3043
:1035200019F4CE010E94281481E08C0D9FEFC9127E
:10353000F0CFB3941395B0CF2B9A7894DF91CF91BD
:103540001F910F91FF90EF90DF90CF90BF90AF90C1
:103550009F908F9008956F927F928F929F92AF92DB
:10356000BF92CF92DF92EF92FF920F931F93CF9370
:10357000DF93EC01662EC0900601D0900701BB24BA
:10358000B39420E4E22EF12C83E0C816D10421F09C
:10359000B12CE12CFF24F3940E94571240989C2EEA
:1035A0008C2F0E94211285B07BB0F8948E0184E0AC
:1035B000169507958A95E1F70C0F1D1F81E0A82E3F
:1035C00001C0AA0CBA94EAF7B12CD0E0C0E08B2D70
:1035D0000E94111398012C273D272327E22FF0E0AA
:1035E000E959FB4F9081891739F07894409A449AB1
:1035F00063E0862D0E94D21583E0C816D104D1F471
:10360000892D0E9421122196BA0CEC16FD06F9F6BE
:10361000409A449A7894DF91CF911F910F91FF9037
:10362000EF90DF90CF90BF90AF909F908F907F9062
:103630006F900895449A85B87BB84498E4CFCF92B0
:10364000DF92EF92FF920F931F93CF93DF93082F98
:103650001EEFD0E0C0E02DEFC22ECF3FD10509F024
:1036600020F5EC2E002311F0EC2CE11A0E946412DC
:103670008E2D0E9421122998F894F12C8E2D8F25E1
:1036800081706AE0801365E08F2D880F0E945E13C1
:103690008E2D0E942112F39480E4F812EFCF299A24
:1036A000449A7894C230D10558F1E12E0111E0948A
:1036B0000E94571240988E2D0E942112F894F12CEE
:1036C0008E2D8F25817095E0D92E801302C08AE05F
:1036D000D82E8F2D880F0E9411138D1539F0409A26
:1036E000449A789462E0802F0E94D2158E2D0E9419
:1036F0002112F39480E4F812E3CF409A449A78942C
:1037000021961F5FC23081E0D80709F0A6CFDF9174
:10371000CF911F910F91FF90EF90DF90CF90089580
:103720002F923F924F925F926F927F928F929F92D1
:10373000AF92BF92CF92DF92EF92FF920F931F93BF
:10374000CF93DF9300D000D01F92CDB7DEB79B831D
:103750008A83F62EE0910601F0910701B4E0EE0FA6
:10376000FF1FBA95E1F7EA5CFD4FC680D7808085E0
:10377000419839980A811B8194E0169507959A958E
:10378000E1F72A813B81020F131F81FDA6C02601AC
:10379000A5E056944794AA95E1F7F8948A819B8115
:1037A0000E94A61495B1E8B0BBB0392F32603983BE
:1037B000B0E0A0E050E040E080E09A7E692E9E2DCF
:1037C0009C7E792EEB2DEC738E2E242D2150330B05
:1037D0001901441508F057C0FA01EB53FC4F9490BF
:1037E000FA01EB54FC4F2491FA01EB55FC4F649124
:1037F000962827292C836829F2E0AF2E443010F454
:10380000AA24A39498012A273B27932F92279D83CC
:103810007EE192E0970F9150292F30E06901CC0CA6
:10382000DD1C2C0D3D1D2A523E4FF901D080D928B8
:10383000D5B8D180FC81DF2AD8B8F9012281262BA6
:103840002BB943980000439AD6B02D81292730E048
:1038500029593B4FF9012081D226D2FC8A2997139E
:10386000DACF911103C0421553054CF4299A2981EE
:1038700025B9E8B8BBB8299872509111CACF4F5FEB
:103880005F4F9096A6CF439A299A7894399A8823C5
:1038900009F466C09091050190FF5BC0209106017C
:1038A000309107012115310521F02D30310509F046
:1038B00050C0EA81FB8122E0E038F10508F420E005
:1038C00001C0880F2A95EAF790915604892B8093BE
:1038D00056048F3009F044C03CC0F894D694C79485
:1038E000912C812CC814D90409F45CC0C801882526
:1038F00099258927E82FF0E0E959FB4F7080A72C24
:10390000B12CB594A794E72CEE0CB72CBB0CBB0CD8
:103910008A819B810E9473142998C4010E947314A8
:103920004398439A96B14398439A86B14398439AF1
:1039300036B14398439A26B1E326B226EB2879267E
:10394000E728A826AE28A2FE28C07894439A299A90
:10395000399A809151048823D9F082E080935104F0
:103960000F900F900F900F900F90DF91CF911F91BC
:103970000F91FF90EF90DF90CF90BF90AF909F900E
:103980008F907F906F905F904F903F902F90089511
:1039900063E081E08F0D0E94D215299A3FEF831AD0
:1039A000930AA0CF789480E071CF6F927F928F922C
:1039B0009F92AF92BF92CF92DF92EF92FF920F93BE
:1039C0001F93CF93DF938C0184B1806384B985B159
:1039D000806385B98BE695E00E94C0158EE1A82E24
:1039E000B12C90E1C92ED12CC4E0D0E02FE1E22E21
:1039F000F12C3EE2832E912C4DE3642E712C82E754
:103A000096E00E942C0BB092FA05A092F905D09294
:103A1000FC05C092FB058BE591E00E94D610D09387
:103A2000FA05C093F905F092FC05E092FB0581E5EB
:103A300091E00E94D610D093FA05C093F9059092B8
:103A4000FC058092FB05C8010E94D610D093FA05B0
:103A5000C093F9057092FC056092FB0585E491E046
:103A60000E94D6108BE695E00E9496158111C7CF73
:103A7000DF91CF911F910F91FF90EF90DF90CF904A
:103A8000BF90AF909F908F907F906F9008950F930D
:103A90001F93CF93DF93C82F84B1806384B985B11E
:103AA000806385B962E08BE695E00E94E30B8BE6CC
:103AB00095E00E94811582E796E00E942C0B81E040
:103AC0000E94D90486E490E09093FA058093F9056A
:103AD0008EE190E09093FC058093FB0581E092E0FD
:103AE0000E94D6106C2F70E090E080E04AE00E94C7
:103AF000EB14C091A305D091A4058E01005C1F4F6B
:103B000027E042E068E08BE695E00E94C40500589B
:103B10001F4F27E043E068E08BE695E00E94C40574
:103B2000DF91CF911F910F9108955F926F927F92D5
:103B30008F929F92AF92BF92CF92DF92EF92FF92BD
:103B40000F931F93CF93DF938C0178942D982C982B
:103B50008FB7F894C0905904D0905A04E0905B0459
:103B6000F0905C048FBF4601570180E6880E8AEE14
:103B7000981EA11CB11CE8EECE0EE3E0DE1EE11C97
:103B8000F11C8CE3582E9BE1692E712C2FB7F89411
:103B90008091590490915A04A0915B04B0915C0407
:103BA0002FBFAC01BD01481959096A097B0977FF8C
:103BB0001EC08C199D09AE09BF09B7FD12C0F8EEF1
:103BC000CF0EF3E0DF1EE11CF11C5A94852D0E94FC
:103BD000471D2D982C98C0E0D1E0F8010995219758
:103BE000E1F7F8010995C3010197F1F7CFCFF894F8
:103BF000DF91CF911F910F91FF90EF90DF90CF90C9
:103C0000BF90AF909F908F907F906F905F9008953E
:103C10002F923F924F925F926F927F928F929F92DC
:103C2000AF92BF92CF92DF92EF92FF920F931F93CA
:103C3000CF93DF93EC018091050180FFA2C08091BA
:103C4000540490915504009709F49BC00E94963D3E
:103C500014E0180F29EF21031001112437FE03C0CF
:103C60008FEF281A380A3594279420E4220E311C4D
:103C700084B1806384B985B1806385B98BE695E0B2
:103C80000E94C01599E1692E712C01E210E022E337
:103C9000C22ED12C36E4E32EF12C4FE0A42EB12C11
:103CA0005EE1852E912C66E3462E512C88EC95E042
:103CB0000E942C0B8091050181FF71C0D092FA0502
:103CC000C092F9051093FC050093FB058FEF91E07E
:103CD0000E94D61082E796E00E942C0B809105018D
:103CE00081FD1FC0F092FA05E092F905B092FC0543
:103CF000A092FB0587EF91E00E94D610F092FA05A2
:103D0000E092F9059092FC058092FB05609100011C
:103D10007091010180910201909103014AE00E949B
:103D2000EB148091050180FF13C0809154049091A1
:103D30005504892B69F020E130E040E850E06AE268
:103D400070E090E080E00E942D0A80E00E94D9049B
:103D50003092FA052092F9055092FC054092FB053D
:103D60008091050180FF20C08091540490915504FA
:103D70000097D1F00E94D61082EF91E00E94D610F9
:103D80001CC0CE010E94963D182F80914A0390914D
:103D90004B03009709F45ECF0E94963D5ACF709274
:103DA000FA056092F9058ECFCE010E94D61080915F
:103DB0004A0390914B03009709F781E00E94D904D0
:103DC0008BE695E00E949615811170CFDF91CF911F
:103DD0001F910F91FF90EF90DF90CF90BF90AF9029
:103DE0009F908F907F906F905F904F903F902F901B
:103DF00008950F931F93CF93DF93809100019091CB
:103E00000101A0910201B09103010297A105B10542
:103E100008F467C084B1806384B985B1806385B9D3
:103E200062E08BE695E00E94E30B8BE695E00E9452
:103E3000811582E796E00E942C0B81E00E94D90454
:103E400086E490E09093FA058093F9058EE190E086
:103E50009093FC058093FB05609100017091010136
:103E600080910201909103014AE00E94EB14C091FD
:103E7000A305D091A4058E01005C1F4F27E042E00E
:103E800068E08BE695E00E94C40500581F4F27E0CC
:103E900043E068E08BE695E00E94C405809105014F
:103EA00081FD2FC08091000190910101A09102013C
:103EB000B0910301803422E492072FE0A207B105FC
:103EC00000F50196A11DB11D8093000190930101A1
:103ED000A0930201B0930301DF91CF911F910F9145
:103EE0000895E0910601F091070184E0EE0FFF1FB5
:103EF0008A95E1F7EA5CFD4F808191810E94081E5E
:103F0000CDCF0E94F00CE0910601F0910701EE3058
:103F1000F10588F02D982C9A68EE73E080E090E02F
:103F20000E9414052D982C9868EE73E080E090E0D4
:103F30000E941405EFCFEA5FFD4FC4911C2F12952C
:103F40001F70CF70D0915304DD2339F0C5E0D0FF4E
:103F5000C6E0D33089F1D0E011E0612F82E090E03B
:103F60000E942E0D6CE271E080E090E00E9414054A
:103F70006C2F83E090E00E942E0DDD23B1F060ED08
:103F800077E080E090E00E94140561E082E090E03C
:103F90000E942E0D6CE271E080E090E00E9414051A
:103FA0006D2F83E090E00E942E0D60ED77E080E0C1
:103FB00090E00E941405D1CFD6E0CECF2D982C985A
:103FC000E0910601F091070184E0EE0FFF1F8A9552
:103FD000E1F7EA5CFD4F808191810E94081E8CE32D
:103FE0000E94471D2D982C98089524B1257F24B94F
:103FF00025B12A6025B927B12D7E27B928B12261C4
:1040000028B90E94AE13439800C000C093B126B1F6
:10401000439A30E024FB882780F9492F4695447065
:10402000842B9270892B220F331F220F331F28708D
:10403000822B0895CF93C62F0E94AE1384B18A605D
:1040400084B987B1826187B965B12C2F30E0657F73
:10405000C2706C2BC901880F991F8870682B65B9D5
:1040600048B1C9019595879595958795827064E0CB
:10407000220F331F6A95E1F72071822B4D7E842B2E
:1040800088B94398409882E08A95F1F7409A439A1C
:10409000CF9108952F923F924F925F926F927F92AD
:1040A0008F929F92AF92BF92CF92DF92EF92FF9248
:1040B0000F931F93CF93DF93CDB7DEB728970FB63B
:1040C000F894DEBF0FBECDBF4FE344B932E235B93D
:1040D0002FE127B995E198B987EE8AB9EE24EA94E1
:1040E000FE2CF0920701E092060144B935B927B9D8
:1040F00098B98AB980E00E9421120E94641229981E
:1041000085E005B1067F182F1270110F110F012BDA
:10411000182F147016951695012B05B948B1457FD7
:10412000182F1170110F412B182F1870412B48B9FF
:1041300020E005B10B7E122F1170110F110F012B12
:10414000122F1270110F110F110F012B05B900273B
:10415000122F14701295110F012B122F1870129537
:104160001695012B122F107816951695012B122FEC
:10417000107212951F70012B122F10741295169544
:104180001695012B122F107116951695012B0BB950
:1041900042980000429A299A449A0E9457124098E5
:1041A00080E00E94211230E005B10B7E132F1170C8
:1041B000110F110F012B132F1270110F110F110F6F
:1041C000012B05B90027132F14701295110F012B25
:1041D000132F187012951695012B132F1078169522
:1041E0001695012B132F107212951F70012B132F90
:1041F0001074129516951695012B132F10711695A4
:104200001695012B0BB942980000000006B113B1BE
:104210002227302F32703695230F312F3870369584
:104220003695230F312F3170330F330F230F087062
:10423000200F822F429A409A449A8F70898385304A
:1042400009F0A8C080E00E9421120E9464122998FF
:10425000998105B1067F192F1270110F110F012BD3
:10426000192F147016951695012B05B948B1457F85
:10427000192F1170110F412B192F1870412B48B9AC
:1042800020E005B10B7E122F1170110F110F012BC1
:10429000122F1270110F110F110F012B05B90027EA
:1042A000122F14701295110F012B122F18701295E6
:1042B0001695012B122F107816951695012B122F9B
:1042C000107212951F70012B122F107412951695F3
:1042D0001695012B122F107116951695012B0BB9FF
:1042E00042980000429A299A449A0E945712409894
:1042F00080E00E94211230E005B10B7E132F117077
:10430000110F110F012B132F1270110F110F110F1D
:10431000012B05B90027132F14701295110F012BD3
:10432000132F187012951695012B132F10781695D0
:104330001695012B132F107212951F70012B132F3E
:104340001074129516951695012B132F1071169552
:104350001695012B0BB942980000000006B113B16D
:104360002227302F32703695230F312F3870369533
:104370003695230F312F3170330F330F230F087011
:10438000200F822F8F708F3009F0D8C0F092070174
:10439000E09206018091060190910701019609F0D3
:1043A0005CC084B1807E8D6184B987B1807E876175
:1043B00087B98AB1876E8AB9439A2B9A429A419AF1
:1043C00090E080E00E94F8132B9840984198429822
:1043D0000000429A419A2B9A90E080E00E94F813E4
:1043E0002B9842980000000086B1429A2B9A83FDD8
:1043F00034C084B1807E8D6184B987B1807E87614D
:1044000087B98AB1876E8AB92B9A429A419A60E03D
:1044100080E00E9445148A8361E081E00E94451497
:10442000898390E080E00E94F8132B984298000066
:10443000000086B183FB882780F9429A2B9A3A8143
:1044400031110BC09981992341F0811106C089E097
:1044500090E090930701809306018091060190916E
:1044600007018F3F980739F50E94EB1360E090E059
:1044700080E00E941A2090E080E00E94F51F8111E8
:1044800011C06FE090E080E00E941A2090E080E090
:104490000E94F51F8F3031F48EE090E09093070179
:1044A00080930601809106019091070160E08F3FA3
:1044B000980709F440C014E0880F991F1A95E1F796
:1044C000FC01EA5CFD4F808191810E94D51C0AE0CD
:1044D000402E512C612C712C809106019091070186
:1044E0008E30910509F0DDC147EE64E085E10E9460
:1044F000B1170E94EB136FE090E080E00E941A2059
:1045000010E000E061E0600F81E090E0002E02C06A
:10451000880F991F0A94E2F70E941A200F5F1F4F1D
:104520000A30110579F790E080E00E94F51F8F3086
:1045300009F4ABC061E080E00E94D215429A409A33
:1045400080E00E9421120E946412299880E005B147
:10455000067F182F1270110F110F012B182F1470D6
:1045600016951695012B05B948B1457F182F117086
:10457000110F412B182F1870412B48B905B10B7E34
:10458000182F1170110F110F012B182F1270110F0E
:10459000110F110F012B05B90027182F1470129558
:1045A000110F012B182F187012951695012B182F2B
:1045B000107816951695012B182F107212951F70F2
:1045C000012B182F1074129516951695012B182F84
:1045D000107116951695012B0BB942980000429A5E
:1045E000299A449A81E00E946B12882341F083E06B
:1045F00090E09093070180930601449ACBCE80E827
:104600000E946B128111F3CF84E090E0F2CF182F5B
:104610008A3009F03BC065E083E291E00E941A20F5
:1046200083E291E00E94AE1384B1857F84B987B1A3
:104630008D7E87B985B18A6085B988B18A6188B96C
:104640008FE090E00197F1F733B186B14098000018
:104650000000409A95B1957F95B998B19D7E98B923
:1046600090E084FB222720F9432F46954470242BA9
:104670003270232B880F991F880F991F8870822B07
:104680008F30B1F067E081E057CF10E081E090E03B
:10469000012E02C0880F991F0A94E2F70E94F51FAD
:1046A00091E0910F891709F4B2CF61E0812F44CFD7
:1046B00083E291E00E94F51F853019F067E082E007
:1046C0003BCFE12CAFE0BA2EF12CAF2CAB2410E0A5
:1046D00000E06F2DC8010E941A200F5F1F4F0115C7
:1046E00084E01807B1F710E000E0C8010E94F51F50
:1046F000F81641F067E083E01FCFEE24E394F5E085
:10470000FF2EE3CF6A2DC8010E941A200F5F1F4FB2
:10471000011594E0190749F710E000E0C8010E9474
:10472000F51FA81619F067E084E006CF6F2DC801C9
:104730000E941A200F5F1F4F011524E0120771F726
:10474000C12CE4E0DE2E31E0C31AD10888F0C601A6
:104750000E94F51FF81619F067E085E0EDCE6A2D8E
:10476000C6010E941A20EFCF6F2DC8010E941A20A7
:104770000150110940F0C8010E94F51FA816A1F3CD
:1047800067E086E0D9CE10E000E0C8010E94F51F86
:10479000F81619F067E087E0CFCE0F5F1F4F0115C5
:1047A00024E0120791F731E0E312A7CF60E090E038
:1047B00080E00E941A2061E080E190E00E941A20CF
:1047C00084B1857F84B985B18A6085B987B18D7ED2
:1047D00087B988B1826188B990E080E00E94AE1309
:1047E0002BB1322F3068439882E08A95F1F700C0F0
:1047F000F89490E181E03BB900C00000349B80E078
:104800002BB900C00000349980E09150A1F78111CC
:1048100040C090E181E03BB900C000C00000349B83
:1048200080E02BB900C000C00000349980E09150B6
:1048300091F7882381F17894439A8DE291E0EE20FC
:1048400029F091E0E9122AC089E291E090934B03AC
:1048500080934A030E94F91E8091050181FF3CCE9E
:1048600028960FB6F894DEBF0FBECDBFDF91CF9173
:104870001F910F91FF90EF90DF90CF90BF90AF907E
:104880009F908F907F906F905F904F903F902F9070
:104890000895E12CD0CF72E0E72ECDCF81E391E0F7
:1048A000D5CF099709F056C184B1807E8D6184B956
:1048B00087B1807E876187B98AB1876E8AB947EEF2
:1048C00060E085E10E94B11784B1807E8D6184B97A
:1048D00087B1807E876187B98AB1876E8AB91BB834
:1048E00010E000E0F02E2AE0021709F43CC090E04E
:1048F00080E00E94F8132B98409890E080E00E949E
:10490000F813419842980000429A419A2B9ACC247D
:10491000C394D12C002E02C0CC0CDD1C0A94E2F70B
:10492000C6010E94F8132B98409A90E080E00E9404
:10493000F813419842980000429A419A2B9A90E0CD
:1049400080E00E941714882319F061E0802FF4CDD5
:10495000C6010E9417140F5F1F4F813009F4C2CFA8
:1049600061E08F2DE9CD10E000E0F02E3AE0031772
:1049700009F441C090E080E00E94F8132B98409821
:1049800090E080E00E94F813419842980000429A1B
:10499000409ACC24C394D12C002E02C0CC0CDD1C38
:1049A0000A94E2F7C6010E94F81341984298000069
:1049B000429A419A2B9A90E080E00E94F8132B983B
:1049C00090E080E00E94F813429800000000339BC2
:1049D00004C061E080E18F0DAFCD429AC6010E9414
:1049E000F8134298000000000F5F1F4F339BF1CF78
:1049F000429A2B9ABACF60E080E00E94062B60E0DA
:104A000081E00E94062B44E0842E10E000E0E0915B
:104A10000601F091070184E0EE0FFF1F8A95E1F790
:104A2000EA5CFD4F3780C480D58081E0C81AD10888
:104A3000C80124E0969587952A95E1F7800F911F8C
:104A4000B92EB826C8010E9428144198F894F12C78
:104A5000E12C912C931408F047C02B2C2924A12C75
:104A6000E22DEA25F0E0E959FB4F20812870F7019B
:104A7000EA29E0FF35C0449A3BB1CF01969587956E
:104A800087709E2F990F907E892B3871832B8BB95D
:104A900085B1EE0FEF2FEE1FFF0BF195E35CFE4F9C
:104AA000E4918A7EE82BE5B92223E1F0409A42980E
:104AB0000000429A8A2D8F708F3019F4C8010E942D
:104AC000281481E08A0D9FEFA91208C09394F394F3
:104AD000C1CF0E94260E35E0832E97CFA82EC0CFDF
:104AE0004498CACF4098E3CF419A2B9A7894C80152
:104AF0000E94281400002B9A21E23AE1482DB601C9
:104B0000C8010E94820D0F5F1F4F011534E013078B
:104B100009F07DCF85E08812DCCF8091050181FD11
:104B200099CE6091000170910101809102019091F4
:104B30000301A30192010E94B93D61307105810515
:104B4000910509F087CE0E94DE1F61E080E00E949F
:104B5000062B80CE0FE304B912E215B947EE60E0F0
:104B600084E10E94B11704B915B987EE8AB91BB860
:104B7000209106013091070180E490E02330310557
:104B800011F080E091E00197E12CE39496958795F0
:104B90000097D9F7DD24D39462E0F62E2330310557
:104BA00011F0D12CF12C0E946412299810E000E041
:104BB00080E00E94211265E08F2D0E945E13449ACE
:104BC000000081E0002E01C0880F0A94EAF70E94DD
:104BD00021126AE08F2D0E945E13449A00000F5F3D
:104BE0001F4F0830110521F7299A0E94571240984B
:104BF00010E000E0C02E08301105E9F080E00E94CE
:104C000021128F2D0E941113449A853009F09DCEF8
:104C100081E0002E01C0880F0A94EAF70E94211259
:104C20008F2D0E941113449A0F5F1F4F8A3011F38A
:104C300061E08C2D81CC409A0E946412299810E08A
:104C400000E00E15E0F480E80E94211265E080E0AB
:104C50000E945E13000081E090E0002E01C0880FEA
:104C60000A94EAF76AE00D2C01C0880F0A94EAF76B
:104C70000E945E13449A00000F5F1F4FE2CF299AF3
:104C80000E945712409810E000E0F02E0E15F8F444
:104C900080E80E94211280E00E941113853011F0FB
:104CA000449A97CE000081E090E0002E01C0880F6A
:104CB0000A94EAF70D2C01C0880F0A94EAF70E94C3
:104CC00011130F5F1F4F449A8A30F9F282CE409A37
:104CD0008091060190910701039709F08BC080E055
:104CE0000E941F1B81E00E941F1BE0910601F091B2
:104CF000070154E0EE0FFF1F5A95E1F7EA5CFD4F04
:104D0000248135813B832A8334E0398310E000E03D
:104D10002A813B810217130709F481C0C090060164
:104D2000D0900701FF24F39440E4A42EB12C33E08B
:104D3000C316D10421F0F12CA12CBB24B394F601AD
:104D400084E0EE0FFF1F8A95E1F7EA5CFD4F848057
:104D5000958081E0881A9108302E802F0E942112C0
:104D600029980E94641295B19D832BB12E83F894EB
:104D7000C80124E0969587952A95E1F79C01200FBC
:104D8000311F38872F8331E001C0330FFA94EAF7DF
:104D90003C83F12CE12C212C8F8198858E259F2539
:104DA0008927E82FF0E0E959FB4F6081822D0E94AE
:104DB0005E1383E0C816D10459F5832D0E94211299
:104DC0003FEFE31AF30A8C81280EAE14BF0421F7DB
:104DD000299A449A7894832D0E9421120000449AC3
:104DE0002BEA3AE14981B401C8010E94820D0F5FAC
:104DF0001F4F8ECF60E080E00E94FC2B60E081E0DE
:104E00000E94FC2B72CF0E94260E85E089837ECF04
:104E1000449A9D8195B92E812BB94498D1CF99811F
:104E2000953089F78091050181FD14CD60910001D5
:104E3000709101018091020190910301A3019201FF
:104E40000E94B93D613071058105910509F002CDDF
:104E50008091060190910701049709F0FBCC0E9414
:104E6000DE1F61E080E00E94FC2BF4CC1F920F92C9
:104E70000FB60F9211242F933F938F939F93AF936D
:104E8000BF938091590490915A04A0915B04B09112
:104E90005C043091580423E0230F2D3758F5019618
:104EA000A11DB11D209358048093590490935A0476
:104EB000A0935B04B0935C0480915D0490915E04C8
:104EC000A0915F04B09160040196A11DB11D809373
:104ED0005D0490935E04A0935F04B0936004BF915F
:104EE000AF919F918F913F912F910F900FBE0F9097
:104EF0001F90189526E8230F0296A11DB11DD2CF51
:104F000086B185FB882780F94B9982604A99846035
:104F10000895E9E2F0E0883030F0E6E2F0E08E302B
:104F200010F4E3E2F0E0208130E0883018F08E30B9
:104F300050F48850A90102C0559547958A95E2F72B
:104F4000CA01817008958E50F5CF682F87E695E0ED
:104F50000C94840EEF92FF920F931F93CF93DF93E5
:104F6000062F7A01122FC82FD0E01092FA05109266
:104F7000F905D093FC05C093FB0585EA92E00E94F9
:104F8000D610802F0E94A52782EA92E00E94D610B8
:104F9000C7010E94D61089E690E09093FA058093AD
:104FA000F905D093FC05C093FB058BE992E0112332
:104FB00011F08FE992E0DF91CF911F910F91FF9057
:104FC000EF900C94D6108F929F92AF92BF92CF9297
:104FD000DF92EF92FF920F931F93CF93DF93C82F2F
:104FE0006B014A0184B1806384B985B1806385B95E
:104FF0008BE695E00E94C015D0E089E1A82EB12C87
:105000009CE0E92EF12C0AE210E0D093FA05C0935F
:10501000F905B092FC05A092FB05C6010E94D610CE
:10502000F092FA05E092F9051093FC050093FB0558
:10503000C4010E94D6108BE695E00E94961581115E
:10504000E4CFDF91CF911F910F91FF90EF90DF9010
:10505000CF90BF90AF909F908F900895FF920F9345
:105060001F93CF93DF9384B1806384B985B180634C
:1050700085B98BE695E00E94C0150BE010E0CEE309
:10508000D0E082E796E00E942C0B81E00E94D904D8
:1050900020910501217047EC52E061E38EE00E940F
:1050A000AA2720910501FF24F394269521702F252E
:1050B00042EC52E062E38CE10E94AA2720910501B4
:1050C00022FB222720F92F2549EB52E063E38AE2F5
:1050D0000E94AA271093FA050093F905D093FC05C6
:1050E000C093FB0589EA92E00E94D6108BE695E01A
:1050F0000E9496158111C5CFDF91CF911F910F911D
:10510000FF9008952F923F924F925F926F927F92FD
:105110008F929F92AF92BF92CF92DF92EF92FF92C7
:105120000F931F93CF93DF9300D000D0CDB7DEB79E
:105130007C0169834A83190184B1806384B985B194
:10514000806385B98BE695E00E94C01582E3882EC6
:10515000912C91E2C92ED12C9A81892F90E09C83C9
:105160008B8326E3A22EB12C2801012E000C6608A9
:105170007708C7010E942C0B9092FA058092F905DE
:10518000D092FC05C092FB0589810E94A52782E789
:1051900096E00E942C0B8B819C819093FA05809362
:1051A000F905B092FC05A092FB05C1010E94D61042
:1051B0000F3F100729F04AE0C301B2010E94EB142F
:1051C0008BE695E00E9496158111D3CF0F900F903A
:1051D0000F900F90DF91CF911F910F91FF90EF9063
:1051E000DF90CF90BF90AF909F908F907F906F9007
:1051F0005F904F903F902F900895EC0184B18063B1
:1052000084B985B1806385B98BE695E00E94C015AD
:1052100032E3A32EB12C41E2C42ED12C5AE0E52E6C
:10522000F12C60E3862E912C77E0772E00E410E0DD
:1052300088EC95E00E942C0BB092FA05A092F9053B
:10524000D092FC05C092FB0580EE92E00E94D61041
:1052500082E796E00E942C0BF092FA05E092F905A5
:105260009092FC058092FB0580ED92E00E94D610A2
:10527000CE010E94963D9C01729EC001739E900DCE
:105280001124969587959801281B390B3093FA05C0
:105290002093F9051093FC050093FB05CE010E94B5
:1052A000D6108BE695E00E9496158111C1CF84B18E
:1052B000806384B92D9A2C98FFCF2F923F924F9202
:1052C0005F926F927F928F929F92AF92BF92CF9296
:1052D000DF92EF92FF920F931F93CF93DF936C01B6
:1052E00084B1806384B985B1806385B98BE695E02C
:1052F0000E94C015B2E12B2E312CC2E24C2E512C53
:10530000D4E36D2E712C17E0812E912C0FE3A02E8B
:10531000B12C03E010E0F12CE12CD0E0C0E0FE0164
:10532000A3E0F595E795AA95E1F7EE0DFF1DEB5E7D
:10533000FD4FE491F0E08C2F877002C0F595E79562
:105340008A95E2F7E0FF0CC022E030E042E050E056
:10535000B801CE01880F991F8D5B9F4F0E942D0AC7
:105360002196CD31D105D9F684E0E80EF11C0E5F0F
:105370001F4F0D33110589F685E095E00E942C0B37
:105380003092FA052092F9055092FC054092FB05F7
:1053900089E992E00E94D61082E796E00E942C0BE9
:1053A000C6010E94963D9C0143E0220F331F4A959F
:1053B000E1F7821B930B805C9F4F97FD01969595BB
:1053C000879597FF02C090E080E09093FA05809364
:1053D000F9057092FC056092FB05C6010E94D6108B
:1053E0008BE594E00E942C0B8091050180FF41C069
:1053F00028E030E040E450E068E370E090E080E0D6
:105400000E942D0A80E00E94D9041092FA051092A1
:10541000F905B092FC05A092FB0583E992E00E9499
:10542000D6108DE892E00E94D6108091050180FF91
:1054300007C089E892E00E94D61081E00E94D9045A
:105440008BE695E00E949615811163CFDF91CF9195
:105450001F910F91FF90EF90DF90CF90BF90AF9092
:105460009F908F907F906F905F904F903F902F9084
:1054700008959092FA058092F905CBCF9F92AF9252
:10548000BF92CF92DF92EF92FF920F931F93CF9331
:10549000DF93D82EC62EE0910601F091070184E03B
:1054A000EE0FFF1F8A95E1F7EA5CFD4FB780E480BD
:1054B000F580D0E0C0E0CE15DF0509F444C08C2FA4
:1054C0008D258170982ECE010E94FD1088B1807FBD
:1054D00088B987B18F6087B92A9A2B98F894A12C44
:1054E000AB1458F505B10F7E18B11F7EA0FC00610A
:1054F000A1FC106105B918B988B1807F04E010E003
:1055000020E4210F912F9170991115C09AE0289AEB
:10551000982B98B91BB928981F5F2113F3CF2B9AAA
:105520006A2DCE010E940F112B9888B1807F015007
:1055300039F7A394D5CF95E0EACF289A2B9A299AE8
:1055400078942196B8CFCC2021F085EF90E10E948D
:10555000951DF12CE12CCE15DF0509F44BC08D2DE6
:105560008E258170982EC7010E94FD1088B1807F22
:1055700088B987B1807F87B92A98F894A12CAB1499
:1055800008F031C005B10F7E18B11F7EA0FC00618C
:10559000A1FC106105B918B904E010E020E4210F66
:1055A0001BB92898289A86B18F70912F9170991104
:1055B0000CC09AE0981759F078942A9A299A62E0D8
:1055C000C11065E08D2D0E94D21595E0F3CF1F5FCD
:1055D0002113E6CF28986A2DC7010E940F110150B0
:1055E000E9F6A394CCCF2A9A299A78948FEFE81AF7
:1055F000F80AB1CFDF91CF911F910F91FF90EF90FB
:10560000DF90CF90BF90AF909F9008952F923F92E0
:105610004F925F926F927F928F929F92AF92BF92C2
:10562000CF92DF92EF92FF920F931F93CF93DF936E
:10563000CDB7DEB7C254D1090FB6F894DEBF0FBEA6
:10564000CDBF782E362ECE0101960E94D41118B10E
:10565000107E812F846022968FAF2297912F9461C4
:1056600023969FAF2397F894F12CE12C4E01E1E4AF
:105670008E0E911C872D8E258170582E2B9AC70176
:105680000E94F8132B98419885B18A7E482E229665
:105690000FAD2297612C202E561071C025E3A22E4B
:1056A00021E0B22EF5014491442945B9CE0101967D
:1056B0006C01429AF60181916F018BB928B842982A
:1056C0008E169F06B1F7419A602FC7010E942D14D4
:1056D000FFEFAF1ABF0A8DE3A81681E0B80611F7F5
:1056E00023960FAD239791E0691246C0419A2B9AF9
:1056F000EFEFEE1AFE0AE114F4E0FF0609F0BACF6C
:10570000332021F084EC91E10E94951D812F866069
:10571000582E1661412E10E000E0872D8027817001
:10572000982E2B9AC8010E94F8132B9885B18A7E77
:10573000882EA52CB12C612C9B1411F098E0692EB9
:1057400085E3E82E81E0F82EF7014491482945B918
:10575000A8B8FE01319681918BB942980000429A17
:1057600086B1862583FF11C078942B9A62E03110B0
:1057700065E0872D0E94D215662463948CCF6894CF
:1057800020F88CCFBB24B394D6CFCE16DF0619F702
:1057900042986A2DC8010E942D14FFEFEF1AFF0AEC
:1057A0008DE3E81681E0F80679F6A42C91E0B912B1
:1057B000E9CF2B9A0F5F1F4F0115E4E01E0709F098
:1057C000ACCF7894CE5BDF4F0FB6F894DEBF0FBE40
:1057D000CDBFDF91CF911F910F91FF90EF90DF90A0
:1057E000CF90BF90AF909F908F907F906F905F9081
:1057F0004F903F902F9008959F92AF92BF92CF927B
:10580000DF92EF92FF920F931F93CF93DF93B82E07
:10581000A62E0E946412F894D0E0C0E0CB2CD12CCC
:105820009C2E8C2F0E9421122998F12CE12CCE0164
:105830008E259F25817099278C159D0509F4CAC076
:1058400085E0429A05B1067F182F1270110F110FD3
:10585000012B182F147016951695012B05B948B118
:10586000457F182F1170110F412B182F1870412BE5
:1058700048B905B10B7E1E2D1170110F110F012BB0
:105880001E2D1270110F110F110F012B05B90027DA
:105890001E2D14701295110F012B1E2D18701295CC
:1058A0001695012B1E2D107816951695012B1E2D81
:1058B000107212951F70012B1E2D107412951695E3
:1058C0001695012B1E2D107116951695012B0BB9EF
:1058D0004298299A892D0E94E51129988FEFE81A9C
:1058E000F80AE11481E0F80609F0A1CF299A449A58
:1058F0002196C11581E0D80709F092CFAA2021F0A6
:105900008CEC91E10E94951D0E945712D0E0C0E0FE
:105910009C2E8C2F0E9421124098F12CE12CCE015C
:105920008E259F2581709927C816D90609F054C085
:105930008AE005B10B7E1E2D1170110F110F012B86
:105940001E2D1270110F110F110F012B05B9002719
:105950001E2D14701295110F012B1E2D187012950B
:105960001695012B1E2D107816951695012B1E2DC0
:10597000107212951F70012B1E2D10741295169522
:105980001695012B1E2D107116951695012B0BB92E
:1059900042980000429A06B113B12227302F32708C
:1059A0003695230F312F387036953695230F312FCA
:1059B0003170330F330F230F0870200F922F891788
:1059C00069F07894409A449A62E0A11065E08B2DCA
:1059D0000E94D2158AE035CF85E0ABCF4298892D61
:1059E0000E94E5118FEFE81AF80AE11481E0F80649
:1059F00009F095CF409A449A2196C11581E0D807C5
:105A000009F086CF7894DF91CF911F910F91FF908D
:105A1000EF90DF90CF90BF90AF909F9008954F92FE
:105A20005F926F927F928F929F92AF92BF92CF922E
:105A3000DF92EF92FF920F931F93CF93DF93782E15
:105A4000662EE0910601F091070184E0EE0FFF1F42
:105A50008A95E1F7EA5CFD4FC480D580D694C7945F
:105A6000E680F780F694E794439A399AF894D0E068
:105A7000C0E0460181E0881A9108CC15DD0509F4E3
:105A800031C05401AC1ABD0A711001C05E0110E0B2
:105A900000E0572C5A240E151F0511F1C5010E9474
:105AA00073142998C8010E947314852D802780FFE4
:105AB00015C0419A2B9843980000439A43980000E0
:105AC000439A43980000439A43980000439A2B9AC4
:105AD000299A0E946B140F5F1F4FDDCF4198EACFC8
