:100000000C94AF040C94D7040C94D7040C94D7042C
:100010000C94D7040C94D7040C94D7040C94D704F4
:100020000C94D7040C94D7040C94D7040C94D704E4
:100030000C94D7040C94D7040C94D7040C94D704D4
:100040000C9444270C94D7040C94D7040C94D70434
:100050000C94D7040C94D7040C94D7040C94D704B4
:100060000C94D7040C94D7043231313420314B78BE
:100070003400343136342036344B783120326D73CD
:10008000003430323720344B783100343831362068
:1000900031364B783100343131362031364B7831BE
:1000A0000034313130303020314D78310035313449
:1000B00034303220314D78342D53430035313434CF
:1000C000303020314D7834003531343235382032FB
:1000D00035364B78342D53430035313432353620A4
:1000E0003235364B783400343436342036344B785D
:1000F0003400343431362031364B783400343132E8
:100100003537203235364B78312D4E4D0034313273
:100110003536203235364B7831003431363420369E
:10012000344B783120346D73002D3330002D323054
:10013000002D3435000001040510111415001004C1
:100140001401110515436865636B696E672E2E2EC9
:100150000044657465637465643A0052414D2D54E2
:100160004553544552005352414D204572726F72AF
:10017000004342522054696D6572206661756C744B
:100180000053686F72742050696E2000474E4420FF
:1001900053686F727420004572726F722052616EE4
:1001A000646F6D44617461004572726F72204368C0
:1001B00065636B6572626F6172640053686F72741D
:1001C00020416464726573736C696E6521003F0041
:1001D000416464726573736C696E6520410042000E
:1001E000446566656374206F72206E6F2052414DC6
:1001F00021002033324B0052756E204E722E00418A
:10020000004342523A001112132122313332342377
:1002100041144211247FF8CF1F417656105D515B87
:10022000175D944D175D6F451741355C107F55D5AF
:100230001F003A0F005255B505A95B9A1DD603352C
:1002400017BCDAAE1BC92B8A1017014315F8D075FD
:10025000119F96A10A55E021190F6DF413FCBF867A
:100260001210951709C319F31300C911157F805B8C
:100270001941521E035DB5FC015D5281085D503D80
:100280001E4105D21A7FD2360B20333200352E3074
:100290002E39005665722E3A0048004F4646004FF0
:1002A0004E003A200044495000546F67676C652047
:1002B0002D3E20524553455400446973702E4469C5
:1002C0006D004C6F6F700033324B20456E612E0015
:1002D00053656C662054657374204661696C210017
:1002E000420053657475700053686F727473205ABE
:1002F00049462F5A49500053656C66205465737403
:10030000204F4B00576972652050696E32302D3E88
:10031000616C6C004E6F2053686F72747320666F4F
:10032000756E6400436865636B696E672053686F20
:10033000727473005265736973746F7273204F4BDC
:10034000005265736973746F72730053656C662035
:1003500054657374001011121314151617212223FB
:1003600024190000000201040318000000101112FB
:10037000131415160006050000000000000201001D
:1003800003000000001211000000001715180506F8
:10039000021000000016011303140000000000000A
:1003A00000000000000080008040C040C0008000CD
:1003B0008040C040C00000000000000000010101BA
:1003C0000101010101000001010000010100000123
:1003D0000100000101333733322D4C2F34353332D5
:1003E0002D3300333733322D482F343533322D330C
:1003F00000333733322D4C2F343533322D34003324
:100400003733322D482F343533322D3400333733E0
:10041000322D4C00333733322D4800343533322DF2
:100420003300343533322D340034313634206F729A
:100430002033324B783100436865636B2044495068
:1004400000435300446F75740044696E004F4500CB
:10045000574500434153005241530010000202032C
:10046000030204040406000006FF06FF000000006B
:10047000008D200580DE002E06D2D88C003007F3D8
:10048000D855AE0A3107F3D825D91A320AB4D8A9FB
:1004900098412C4700330BB4D88C0C92463229007B
:1004A000340AB4D846558D984102350AB4D80C0D9B
:1004B00036924901360AB4D8A90C56944901370B33
:1004C000B4D88C0C6206318308380AB4D8A9985481
:1004D000944901390AB4D8A928D30649013A07EA50
:1004E000D88C38025608B4D84467920A6509A4D853
:1004F000A9343250007208A4D8ACA841060000000C
:1005000004FFFF0000030005050606050207202082
:100510000000200020000000000000A64332D08729
:10052000071B2319CA48863292A18C64282738C237
:10053000098E3254A10C55AC4215AB5884798233E4
:1005400018B214E520E848C622D8D0840500473EFA
:100550001C080533E21AD6A84745283215A94406D7
:1005600032AF798E2B48D10C62308318EB20873A5A
:10057000C89110722484200821C8B18C5530828D16
:10058000852863218B58C81218F2813F483420080F
:10059000054F421BF8948D7CC2682B60881218921C
:1005A000064635A94D6C62D4A2D6C49660B485AE19
:1005B0004707615481105620C31DC4908D4D6800BB
:1005C00000000004FFFF0000020004050606010110
:1005D00007202000002000200000000000008D41C6
:1005E000402038989107CC7920A4A6D64AECB4E2F2
:1005F000A892622A2A84AA42A632622AAD24314AEB
:1006000022A2A612AAD20B337B62A1471881C41B77
:100610008EB8D20E4B6BA9961E08E7014318004214
:100620004B2038989107CC7920A4A6D64AECB4E2A6
:10063000E810458E3908A1438E32EA10A488424260
:1006400029A12ABD3033CD32BCB42AA194408A28D6
:10065000448E32EA9083103AE610450EE24A3B2C73
:10066000ADA55A7A209C070C610000000004FFFF32
:100670000000400003030304030504060E00FE0A05
:10068000FE0BFE000000000000200500F20721071D
:1006900052C3C713012D060ED287012E0612C307BF
:1006A000012F0E6EBAA736A14CA826940915013069
:1006B0000B56C20F45C49F241400310A56C2976CD2
:1006C00044D42703320D56C20F454412CA84328DDA
:1006D00006330F56C20F4544128AA6421249420100
:1006E000340D56C267506D44D1C5269400350F565F
:1006F000C2C72128AC88844212494201360E56C234
:10070000D748422256449C241400370C56C2C721B5
:100710004411CA847A02380F56C20F45C4242151AD
:10072000444C120A00390E56C20F45C44952245196
:100730004423003A073AC70799003D0726CA871D98
:100740006A3E094EC28754371D013F0E56C20F45FF
:10075000449229AAC3842200410C56C20FE510E23C
:1007600074183109420D56C24745C414A988385D32
:1007700000430C56C20F45C4A813494201440C560D
:10078000C20749A2C42F121200450B56C2C721A8A6
:1007900058116A34460B56C2C721A85811EA0847B7
:1007A0000D56C20F45C4A85262925000480B56C263
:1007B0008788D361C49300490956C28749A89F0C12
:1007C0004A0B56C2A73E9228A211004B0F56C28771
:1007D000882221CD6624924489244C0856C2875031
:1007E0007F344D0C56C24770443A1C443C094E0CB1
:1007F00056C287885469A17422094F0B56C20F450F
:10080000C49F241400500B56C24745C4E922D408A3
:10081000520C56C24745C474D1C44900531056C245
:100820000F454492488552898824A100540956C234
:100830008749A83F01550A56C287887F92500056C3
:100840000C56C287889F24249A0800570C56C287EA
:1008500088A7C3432514015A0E56C287512694090E
:10086000654299D000610D3EC20F45249B48482443
:100870004901620B56C28750B122E2E902630B3E86
:10088000C20F4544D424A100640A56C2A796134F50
:100890009202650D3EC20F45443A0C45120A0066AD
:1008A0000C56C29F8C241499843A01670E4EBACF1D
:1008B0004A45D32C5811492800680B56C28750B1BD
:1008C00022E29300690752C307E9706B0E56C28794
:1008D00050534485449228D1026C0752C3C7830108
:1008E0006D0A3EC2874472F840126E093EC2474507
:1008F000C427016F0A3EC20F45C4938402700B4E99
:10090000BA4745C4D3452804720A3EC24745C4A825
:100910001100730D3EC20F452491AA88241400745F
:100920000B56C29750C924D4750075093EC28788FA
:100930004F9202770C3EC287887478A88422007890
:100940000D3EC2878824A1C928229200790E4EBA92
:10095000878824D1693694288D000000E13C112459
:100960001FBECFEFD8E0DEBFCDBF13E0A0E0B1E007
:10097000E6EDFBE702C005900D92A431B107D9F76F
:1009800025E0A4E1B3E001C01D92AB3EB207E1F760
:1009900014E0CFEAD4E004C02197FE010E94DC3DC0
:1009A000CE3AD107C9F70E945E2F0C94E93D0C9412
:1009B00000008093E30508959B01DC011896ED91FA
:1009C000FC9141E067E109948230910538F0880F8D
:1009D000991F880F991F05970197F1F708953FB761
:1009E000F89480914B0490914C04A0914D04B091E7
:1009F0004E0426B5A89B05C02F3F19F00196A11DF6
:100A0000B11D3FBFBA2FA92F982F8827BC01CD0158
:100A1000620F711D811D911D42E0660F771F881FB7
:100A2000991F4A95D1F708958F929F92AF92BF92E6
:100A3000CF92DF92EF92FF926B017C010E94EF0454
:100A40004B015C01C114D104E104F104B9F00E942E
:100A5000EF04681979098A099B09683E734081058A
:100A6000910580F321E0C21AD108E108F10888EE6F
:100A7000880E83E0981EA11CB11CE4CFFF90EF907C
:100A8000DF90CF90BF90AF909F908F900895982F58
:100A9000883028F098EF8E3008F092EF980F21E020
:100AA00030E001C0220F9A95EAF7662371F0EBE27D
:100AB000F0E0883030F0E8E2F0E08E3010F4E5E26B
:100AC000F0E08081282B20830895EBE2F0E088306D
:100AD00030F0E8E2F0E08E3010F4E5E2F0E0808102
:100AE00020952823F0CF982F883028F098EF8E306B
:100AF00008F092EF980F21E030E001C0220F9A95A4
:100B0000EAF7613071F4EAE2F0E0883030F0E7E2D1
:100B1000F0E08E3010F4E4E2F0E08081282B2083B6
:100B20000895EAE2F0E0883030F0E7E2F0E08E305D
:100B300010F4E4E2F0E09081422F409594239083FA
:100B4000623059F4EBE2F0E0883038F3E8E2F0E0AC
:100B50008E3018F7E5E2F0E0E0CFEBE2F0E088302D
:100B600030F0E8E2F0E08E3010F4E5E2F0E0808171
:100B700084238083089580E00895DC011A96ED9126
:100B8000FC9130E020E009940F931F93CF93DF9303
:100B900000D000D01F92CDB7DEB76C834D832B837E
:100BA0001A830983DC011496ED91FC919E012F5F5D
:100BB0003F4F41E06FE009950F900F900F900F901D
:100BC0000F90DF91CF911F910F910895DC01169640
:100BD000ED91FC9130E020E040E069E10994DC0116
:100BE0001696ED91FC9130E020E040E068E1099438
:100BF0009A01DC011696ED91FC91462F67E109946C
:100C0000EF92FF920F931F93CF93DF931F92CDB775
:100C1000DEB77C018B01D8016C91673129F150F46A
:100C20006531A0F40F90DF91CF911F910F91FF904C
:100C3000EF9008956A3118F16E3FA1F7F8014181F4
:100C4000498369E2C7010E94BD050BC0F8014181DB
:100C50004983D7011696ED91FC9130E020E0C70161
:100C600009950E5F1F4FD7CFF80181818983AE01AF
:100C70004F5F5F4F61E0C7010E94F805F2CF0F5F41
:100C80001F4FD7011696ED91FC9130E020E040E037
:100C9000C7010995C0CF462FDC011696ED91FC9156
:100CA00030E020E066E10994462FDC011696ED91D4
:100CB000FC9130E020E065E10994EF92FF920F9300
:100CC0001F93CF93DF93EC01042F79016D3009F46A
:100CD00046C050F46B30C9F1693009F49FC06A30E6
:100CE00009F465C080E046C06E3009F452C06F3030
:100CF00099F70E94EF05F7011381110F110F110FE2
:100D00006C89160F60E4CE010E945406612F629533
:100D10006F706061CE010E945406612F6F70CE012A
:100D20000E944B06F7016481606BCE010E944B0666
:100D3000F701408151816281660F660F660FCE0117
:100D40000E94F8050150A1F72EC065E371E044232D
:100D500011F060E371E0CE010E9400060AC041116B
:100D600010C069E271E00E940006E881F981828981
:100D70008C8B81E0DF91CF911F910F91FF90EF90CD
:100D8000089562E271E00E940006E881F98183899A
:100D9000EFCF0E94EF0561E8CE010E945406602F5C
:100DA000CE010E944B06CE010E94E605E2CFEA8505
:100DB000FB8530E020E040E068E2CE010995EE815D
:100DC000FF8130E020E040E064E1CE01099541E0A0
:100DD0006BE4CE010E94BD05E881F981448169E29E
:100DE000CE010E94BD0540E06BE4CE010E94BD052E
:100DF000E881F981448169E2CE010E94BD0541E0AC
:100E00006BE4CE010E94BD05E881F981458169E26C
:100E1000CE010E94BD056AE371E09DCF8FE691E0AF
:100E2000998388831C8AA5CFDC011896ED91FC91EB
:100E300030E020E040E069E10994DC011896ED9192
:100E4000FC9130E020E040E068E10994CF93DF932B
:100E50001F92CDB7DEB76983BE016F5F7F4F0E94DF
:100E6000DC040F90DF91CF910895EF92FF921F93D2
:100E7000CF93DF93EC01162F7A010E941D0760E4E7
:100E8000CE010E942607E885F9859701412F67E189
:100E9000CE010995CE01DF91CF911F91FF90EF9088
:100EA0000C941407EF92FF921F93CF93DF93EC0102
:100EB000142F7901663181F138F4643109F44BC0A3
:100EC000653179F080E022C06831C9F150F16931B3
:100ED000C9F780913A04882391F1CE010E9414074A
:100EE0002EC080913A04882319F0CE010E94140785
:100EF000CE010E941D0760E0CE010E942607612FEF
:100F0000CE010E94260781E080933A04DF91CF91C1
:100F10001F91FF90EF900895642F0E94260781E0B3
:100F2000F5CF80913A04882319F0CE010E9414076E
:100F3000A701193138F4612FCE010E9435071092B4
:100F40003A04EDCF68E1CE010E943507185188E1DF
:100F5000E80EF11CEDCF8E898F3F11F488E78E8B60
:100F6000E885F9859701412F64E1CE01DF91CF91AA
:100F70001F91FF90EF900994662329F06A3019F0D1
:100F8000862F90E008958FEF9FEF08950F93FC0157
:100F9000E05CFF4F0190F081E02D4E1B5F0BDC0108
:100FA000D496ED91FC9109950F910895CF93DF931D
:100FB000FC01A081B18182AD90E09C0143E0220F51
:100FC000331F4A95E1F737AF26AF50962C915097D3
:100FD00048E0249F9001112435AF24AF23AD30E0C9
:100FE000B90153E0660F771F5A95E1F7EF01C05C36
:100FF000DF4F7983688351964C915197E901C80F6F
:10100000D91F50E04C175D0718F4CA01821B930BDF
:10101000EF01CE5BDF4F79836883229623E0880F50
:10102000991F2A95E1F7860F971F99838883229647
:1010300054968D919C91559799838883E85BFF4FD7
:1010400056968D919C9191838083DF91CF910895E5
:10105000AF92BF92CF92DF92EF92FF920F93CF9316
:10106000DF93EC01DA017901942F9770E1E0F0E071
:101070009F01092E01C0220F0A94EAF7522F6E0138
:101080008AE8C80ED11CF601808140E0823018F455
:10109000422F813049F15D01F8EFAF22E8ADF9ADA3
:1010A00028813981D90150968C918A9D90018B9D20
:1010B000300D1124620F731FDF01A60FB71F01113E
:1010C0001AC0EA0EFB1E8C91842B85278D93AE15DA
:1010D000BF05C9F7DF91CF910F91FF90EF90DF909F
:1010E000CF90BF90AF90089550E0D5CF440F550FEB
:1010F000E114F10479F33C91342B35273C939F5F45
:101100009770E1E0EE1AF1089111F0CF2CAD3DADF2
:10111000A20FB31FF6018081823028F4813009F0DC
:1011200051E041E0E5CF51E0E3CF0F931F93FC0185
:10113000E25BFF4F0190F081E02DDC01A05BBF4F2F
:101140000D90BC91A02D4A175B0740F4E017F10702
:1011500048F00417150730F080E019C0E017F107D8
:10116000C0F3FACFFC01E65BFF4F40815181845B05
:101170009F4FFC01808191816817790758F481E0C5
:101180004217530720F081E02617370728F71F91F1
:101190000F91089542175307B0F3DECF2F923F927D
:1011A0004F925F926F927F928F929F92AF92BF9277
:1011B000CF92DF92EF92FF920F931F93CF93DF9323
:1011C000CDB7DEB72A970FB6F894DEBF0FBECDBFFE
:1011D0009A878987865B9F4F9A838983FC01118256
:1011E0001082E985FA85EA5BFF4F408051802985AE
:1011F0003A85245B3F4F3C832B83F9015182408227
:10120000E985FA85EE5BFF4F2080318029853A859C
:10121000225B3F4F3E832D83F90131822082E98595
:10122000FA85EC5BFF4F6080718029853A85205BF1
:101230003F4F38872F83F90171826082E985FA85F3
:10124000E85AFF4FE080F180E985FA85EC5AFF4FBC
:10125000A080B180E985FA85EA5AFF4FC080D1802D
:10126000E985FA85EE5AFF4F8080918087019501CC
:10127000A601B40189859A850E94950829853A8539
:101280002C573F4F3A87298781111BC0F9011082E3
:101290002A960FB6F894DEBF0FBECDBFDF91CF9177
:1012A0001F910F91FF90EF90DF90CF90BF90AF9084
:1012B0009F908F907F906F905F904F903F902F9076
:1012C000089581E0E985FA8580838114910421F0F5
:1012D000E981FA8191828082A414B50420F4EB8123
:1012E000FC81B182A0822C143D0420F4ED81FE81AA
:1012F000D182C082E614F70458F6EF81F885F182B6
:10130000E082C6CF0F93CF93DF93E02FDC01AC5781
:10131000BF4FFC91FF2309F460C02115310509F48A
:101320005CC02230310538F0023009F04AC06F5FEE
:101330007F4F621B730B0E2F0170E0FD52C0FC014A
:10134000E25BFF4F0190F081E02D4E175F0708F43C
:1013500044C0FC01E05BFF4F0190F081E02D4E178F
:101360005F07D8F5FC01E45BFF4F0190F081E02DB1
:10137000DC01A65BBF4F0D90BC91A02D260F371F3F
:101380002617370738F56E177F0718F59F0121508C
:101390003109A217B30708F56A177B0708F4BD01E6
:1013A0002E173F0708F4F901E61BF70BEC01AEA975
:1013B000BFA914960D90BC91A02D9F01FD01099528
:1013C0000CC0033009F0B7CF4F5F5F4F421B530B88
:1013D000B2CFBD016E177F07E0F2DF91CF910F9181
:1013E0000895FC01E65BFF4F0190F081E02D6E1740
:1013F0007F0798F3FC01E45BFF4F0190F081E02D43
:101400006E177F0750F7FC01E05BFF4F0190F08102
:10141000E02DDC01A25BBF4F0D90BC91A02D240FED
:10142000351F24173507A8F44E175F0788F49F016E
:1014300021503109A217B30780F64A175B0708F459
:10144000AD012E173F0708F4F901E41BF50BAECFF1
:10145000AD014E175F0708F6EDCFAF92BF92CF9266
:10146000DF92EF92FF920F931F93CF93DF936C0164
:10147000EB015A017B01E20EF31E9C01240F351F84
:101480008701AB01BC0189E595E00E94950888239E
:1014900061F000E09501AE01B60189E595E00E949A
:1014A00082092196EC16FD06A1F7DF91CF911F91DD
:1014B0000F91FF90EF90DF90CF90BF90AF90089585
:1014C00090E080E00895213069F038F0223079F022
:1014D000840F911D47FD9A950895860F911D67FD14
:1014E0009A950895841B910947FD93950895861B4D
:1014F000910967FD93950895213069F038F0223005
:1015000079F0861B910967FD93950895840F911DCD
:1015100047FD9A950895860F911D67FD9A95089548
:10152000841B910947FD939508953F924F925F92D6
:101530006F927F928F929F92AF92BF92CF92DF92E3
:10154000EF92FF920F931F93CF93DF937C01162F9F
:10155000442EEC01C25ADF4F5E806F806C018AE836
:10156000C80ED11C78847518312E711608F4372CEA
:101570008C809D800E85202F462D652D8A819B8134
:101580000E94630A5C01202F462D652DC4010E9434
:101590007C0AAC01442079F08C85F6018083232DF0
:1015A00030E0B501C7010E948209171548F01719EC
:1015B0006394512CD7CF8B858111F7CF8D85EDCFDB
:1015C000150D1E836F82DF91CF911F910F91FF90B8
:1015D000EF90DF90CF90BF90AF909F908F907F90D3
:1015E0006F905F904F903F900895DC011A964C9158
:1015F0001A97ED91FC911197249130E0042E02C0CE
:10160000359527950A94E2F7842F860F883068F085
:1016100031961196FC93EE93E49198E0941B01C0EF
:10162000EE0F9A95EAF72E2B88501A968C938FEF2F
:101630009FEF01C0880F6A95EAF78095822308958D
:10164000FC01E60FF11D849190E0982F88273196D8
:10165000E4918E0F911D0895CF93DF932091B305F0
:101660003091B4052817390709F490C0EC01909324
:10167000B4058093B305FC0184918093C60531962F
:10168000E491E093C705FE013296E491E093C8052A
:10169000FE013396E491E093C905FE013496E4918E
:1016A000E093CA05FE013596E491E093CB05FE0177
:1016B0003696E491E093CC05FE013796E491E093F1
:1016C000CD05FE013896E491E093CE05FE013996F2
:1016D000E491E093CF05FE013A96E491E093D005C2
:1016E000FE013B96E491E093D105FE013C96E49126
:1016F000E093D205FE013D96E491E093D305FE010F
:101700003E96E491E093D405FE013F96E491E09388
:10171000D505FE017096E491E093D60561E1CE0116
:101720000E94200B9093D8058093D70563E1CE01EA
:101730000E94200B9093DA058093D90565E1CE01D4
:101740000E94200B9093DC058093DB058091B3050C
:101750009091B405892BD1F08091D3058093DF055A
:101760004091D4054093E0059091DE05992371F0F6
:10177000913079F49091D505891714F49093DF0591
:101780008091D605841714F48093E005DF91CF9102
:1017900008953091D0052091D205082E000C990BA8
:1017A000622F022E000C770B630F711D37FD7A95A7
:1017B000861797071CF4320F3093DF05241734F790
:1017C0002093E005E3CFCF93DF93EC016BAFEEA95D
:1017D000FFA90190F081E02D0995EEA9FFA90280F3
:1017E000F381E02DCE01DF91CF910994AF92BF92AA
:1017F000CF92DF92EF92FF920F931F93CF93DF93DD
:10180000EC01AAACEBACE881F981B188FE2CD12CBB
:10181000C12CE881F981208908AD19AD88E0289FA5
:10182000A00111244C9DC0014D9D900D5C9D900D1B
:101830001124080F191F4F2D60E0CE010E94C4052E
:10184000F3948F2D8E198A1528F48FEFC81AD80AB1
:10185000FB14F8F2DF91CF911F910F91FF90EF9061
:10186000DF90CF90BF90AF9008956D32F1F030F4DB
:10187000683269F0693291F081E008956C34E1F0EA
:101880006D34D1F7442301F124982C9AF5CF84B11B
:101890008F7C84B985B1806385B9EECF642F70E009
:1018A00090E080E00E941405E7CF433028F78FE0F6
:1018B00090E00197F1F7E0CF442319F025982D9A95
:1018C000DBCF2D98259AD8CF2C98249AD5CF0F937B
:1018D0001F93CF93DF93C0919105D09192058E0114
:1018E000005C1F4F27E042E068E089E595E00E9438
:1018F000C40500581F4F27E043E068E089E595E004
:101900000E94C405DF91CF911F910F9108957894A3
:1019100015B888B1807F88B98CE18BB914B887B1CC
:10192000807C87B91AB81BB884B1806384B985B14B
:101930008F7C85B980914504853031F484B1807FF6
:1019400084B985B18F6085B908950E94870C2D9A5E
:101950002C9868EC70E080E090E00E9414052D98CF
:101960002C9868EC70E080E090E00E941405EFCFC6
:101970008230910529F0039731F02D9A2C98089523
:101980002D982C9A08952D9AFCCF0F931F93CF93E7
:101990008C01C62FC150A0F0C8010E94B80C64EFA2
:1019A00071E080E090E00E9414052D982C98CC23E3
:1019B00089F364EF71E080E090E00E941405EACFC3
:1019C000CF911F910F910895CF93DF93C82FD62FFA
:1019D00061E00E94470561E08D2F0E94470561E0AC
:1019E0008C2F0E94730561E08D2F0E947305D8E053
:1019F00060E08C2F0E94470561E08C2F0E94470514
:101A0000D150B1F7DF91CF91089590917C00907FF4
:101A1000892B80937C0080917A00806480937A0087
:101A200080917A0086FDFCCF8091780090917900BA
:101A300008954F925F926F927F928F929F92AF9292
:101A4000BF92CF92DF92EF92FF920F931F93CF93AB
:101A5000DF93EC01742E79018091060190910701CA
:101A60002FE0289FF001299FF00D1124EE5CFD4F1F
:101A70006280C617D70709F03FC010E000E0C62C0F
:101A8000062C000CDD08A62CB12C8FE0482E94E12A
:101A9000592ECC19DD09862D801B87FD68C08090EA
:101AA000060190900701C601801B910B8A159B05CA
:101AB0006CF4489CF001499CF00D1124EE5CFD4F44
:101AC0008685859DC00111240E94E404489CF00194
:101AD000499CF00D1124EE5CFD4F8585859DC0016C
:101AE00011240E94E404672DCE01800F911FF7019D
:101AF00009950F5F1F4FCFCF062D10E0C017D107FC
:101B0000E8F08585F4E18F9FC00111240E94E40470
:101B1000672DCE01801B910BF701DF91CF911F91B3
:101B20000F91FF90EF90DF90CF90BF90AF909F907C
:101B30008F907F906F905F904F900994EC0FFD1FF6
:101B40008085F4E18F9FC0011124DF91CF911F9117
:101B50000F91FF90EF90DF90CF90BF90AF909F904C
:101B60008F907F906F905F904F900C94E404DF9182
:101B7000CF911F910F91FF90EF90DF90CF90BF908A
:101B8000AF909F908F907F906F905F904F9008954F
:101B900080E02FE0E82FF0E0EB5AFB4F9081922796
:101BA000908391E0980F8F3F09F40895892FF2CF29
:101BB00020E04DE3E22FF0E0249FC001112431EE3C
:101BC00083273CEA932738E0BC01769567958170BE
:101BD00099279195819591098827947B8627972746
:101BE000315091F7EB5AFB4F89278F70808381E04A
:101BF000820F2F3F09F40895282FDCCFCF92DF9278
:101C0000EF92FF920F931F93CF93DF936C01EB0141
:101C10007B01E40EF51E10E000E0CE15DF0561F05B
:101C20006991D601ED91FC910190F081E02DC60102
:101C30000995080F191FF1CFC801DF91CF911F91AE
:101C40000F91FF90EF90DF90CF9008952F923F92E9
:101C50004F925F926F927F928F929F92AF92BF92BC
:101C6000CF92DF92EF92FF920F931F93CF93DF9368
:101C7000CDB7DEB728970FB6F894DEBF0FBECDBF45
:101C80007C016C0124E0C20ED11CFC01E057FF4F27
:101C90000190F081E02DC60109958C018E3F9F4F88
:101CA00008F061C0370184E9680E711CF3010190EE
:101CB000F081E02DFD83EC835701F2E9AF0EB11CFA
:101CC000F50180809180970120593F4F3B832A8303
:101CD000F9018081813009F470C008F45FC082305E
:101CE00009F476C0833009F482C0F701EC59FF4F44
:101CF0009182808232962C813D8131832083389776
:101D00008081918147969D838C830F3F110511F04F
:101D100008F020C1B6960136110530F401341105E2
:101D200058F0F701EE57FF4F808191812C813D8162
:101D3000280F391F3D832C838C819D810196FC01E6
:101D4000249121115FC090E080E0EA81FB81208135
:101D5000213009F4C1C108F4B7C1223009F4BEC171
:101D6000233009F4C3C181E090E028960FB6F894BF
:101D7000DEBF0FBECDBFDF91CF911F910F91FF90BE
:101D8000EF90DF90CF90BF90AF909F908F907F901B
:101D90006F905F904F903F902F900895F701E05A19
:101DA000FF4F0190F081E02DC60109952C813D8106
:101DB000280F391F3D832C8398CFF701E05AFF4F3E
:101DC0000190F081E02DC6010995881A990A8DCFFE
:101DD000F701E05AFF4F0190F081E02DC60109950F
:101DE000EC81FD81E81BF90BFD83EC837ECFF701CD
:101DF000E05AFF4F0190F081E02DC6010995880E51
:101E0000991E73CFEC81FD8124912017110609F0F2
:101E10009AC0CF010296009709F495CFF701EE59C9
:101E2000FF4FF887EF8391838083128673966081DA
:101E30008F8198850E94F50AEF81F8858087F701E8
:101E4000EA58FF4F60818F8198850E94F50A582ECD
:101E5000EF81F8858187970122573F4F3D832C837F
:101E6000F9019081EF81F885948781E0911180E0FC
:101E7000EF81F8858587F701E958FF4F8080682D4D
:101E80008F8198850E94F50A382EF701E858FF4F98
:101E90002080622D8F8198850E94F50A982EF70187
:101EA000E758FF4F1081612F8F8198850E94F50AB6
:101EB0009FEF910F01E010E0980101C0220F9A9569
:101EC000EAF7821B8E83EF81F885408414140CF0AE
:101ED000C4C08A94C80101C0880F8A94EAF7381AEE
:101EE000F685F983950C2A94C80101C0880F2A94BD
:101EF000EAF7282E29182F2F422D632DEF81F88520
:101F0000828193810E94630A4C01EF81F88593835B
:101F100082832981422D632D848195810E947C0AD0
:101F2000EF81F88595838483F981F13009F49AC0B3
:101F300008F44EC0F23009F4A4C0F33009F4B5C07F
:101F4000BC0194014FC0FC0184912C813D81280F7C
:101F5000311DF0CEF701EA57FF4F80819181EC816E
:101F6000FD81E80FF91FFD83EC834F0160E0C401A0
:101F70000E94200B2C813D81280F391F3D832C832B
:101F800062E0C4010E94200B34E0830E911C801794
:101F9000910760F3EC81FD81849190E0982F882770
:101FA0003196E4918E2B009709F4CDCE08171907CE
:101FB00021F48C819D8103962ECFEC81FD81329698
:101FC000E4912C813D812E0F311D3D832C83E2CF86
:101FD0009401240D311D47FC3A95BC01650D711D1E
:101FE00057FC7A958B01AC01B401C6010E9495089B
:101FF000882399F1EF81F885168217824701F3E76C
:102000008F0E911C24E7E20EF11CF40160818F8198
:1020100098850E94F50A082FF70160818F819885C5
:102020000E94F50A182F40E0602FC6010E94950A11
:1020300041E0612FC6010E94950A61E08F81988579
:102040000E94F50A8111EFCFEF81F8858781851510
:10205000E4F28485EC81FD818083FE818F2FFF0F68
:10206000990B73CE0519110957FC139594012F5F35
:102070003F4FBC01640D711D47FC7A95800E911E87
:10208000B1CFA8014419510947FC539594012F5F22
:102090003F4F0519110957FC1395BC016F5F7F4F26
:1020A000800F911F840E951E9DCF9401250D311D2B
:1020B00057FC3A950419110947FC1395BC016F5F51
:1020C0007F4F800F911F8ECFF50120813181820FCC
:1020D000931F9183808347CEF301F7CFF5012081D1
:1020E0003181281B390B318320833DCEF301F7CF9B
:1020F0000F931F93CF93DF938C01D0E0C0E0F801E2
:10210000EC0FFD1F6491662341F085E595E00E9488
:10211000260E892B11F02196F2CFCE01DF91CF91BF
:102120001F910F910895089590E080E00895299AF5
:102130002898299800000000299A289A08950F935A
:102140001F93299A05B10F7E18B11F7E90FD006183
:1021500091FD106105B918B98BB929981F910F919C
:1021600008950F931F93299A28E0000029980000F2
:10217000299A2150D1F7289A05B10F7E18B11F7EF8
:1021800090FD006191FD106105B918B98BB92998CE
:1021900005B10F7E18B11F7E60FD006161FD106109
:1021A00005B918B91F910F9108950F931F93CF93FD
:1021B000DF93EB010E949F1005B10F7E18B11F7EC7
:1021C000D0FD0061D1FD106105B918B9CBB900008F
:1021D0002898000086B1289A299A8F70DF91CF91B4
:1021E0001F910F910895FF920F931F93CF93DF9349
:1021F000D62FF72EC42F0E949F102B9805B10F7E6B
:1022000018B11F7EF0FC0061F1FC106105B918B92E
:10221000DBB948B1407F4C2B48B90000289800003A
:10222000289A2B9A299ADF91CF911F910F91FF90B5
:1022300008958FE385B980E888B91BB88FE184B928
:1022400087B98FEF8AB908958F778BB9662341F0EC
:10225000419A00000000289800000000289A089584
:102260004198F7CF299A000000008F778BB9299801
:10227000089580E480937C0087E880937A0084B19D
:102280008B7E84B985B18B7E85B987B1837F87B911
:1022900088B1837F88B98FE090E00197F1F71C99AE
:1022A00002C080E014C01A9BFCCF82E00E94050DA2
:1022B0008752914082349105A0F783E00E94050D7A
:1022C0009C012752314081E02234310550F70895B6
:1022D0002B9A42982B98000000002B9A429A08955E
:1022E000449A4298449800000000449A429A089503
:1022F0004BB14871FC0190E0292F2770242B392F16
:10230000330F330F307E232B21939F5F9034A1F73F
:1023100008950F931F93449A000044980000000012
:10232000449A429A05B10B7E182F1170110F110FAC
:10233000012B182F1270110F110F110F012B05B95E
:102340000027182F14701295110F012B182F1870D9
:1023500012951695012B182F107816951695012BAE
:10236000182F107212951F70012B182F10741295D0
:1023700016951695012B182F107116951695012B91
:102380000BB944981F910F9108950F931F93449A8E
:1023900005B10B7E182F1170110F110F012B182F83
:1023A0001270110F110F110F012B05B90027182FF3
:1023B00014701295110F012B182F18701295169585
:1023C000012B182F107816951695012B182F1072C7
:1023D00012951F70012B182F1074129516951695D3
:1023E000012B182F107116951695012B0BB94498D7
:1023F0001F910F91089584B1867F84B987B1857F3D
:1024000087B985B1896085B988B18A6088B908952E
:1024100084B1896084B987B18A6087B908950F93C0
:102420001F93CF93C82F80E00E94C5110E9408120D
:1024300029988FE005B1067F182F1270110F110F28
:10244000012B182F147016951695012B05B948B15C
:10245000457F182F1170110F412B182F1870412B29
:1024600048B905B10B7E1C2F1170110F110F012BF4
:102470001C2F1270110F110F110F012B05B900271E
:102480001C2F14701295110F012B1C2F1870129510
:102490001695012B1C2F107816951695012B1C2FC5
:1024A000107212951F70012B1C2F10741295169527
:1024B0001695012B1C2F107116951695012B0BB933
:1024C00042980000429A80E005B10B7E182F1170EF
:1024D000110F110F012B182F1270110F110F110F67
:1024E000012B05B90027182F14701295110F012B1D
:1024F000182F187012951695012B182F1078169515
:102500001695012B182F107212951F70012B182F82
:102510001074129516951695012B182F107116959B
:102520001695012B0BB9299A0E94FB1140984298ED
:102530000000000006B113B12227302F327036950B
:10254000230F312F387036953695230F312F317088
:10255000330F330F230F0870200F822F429A409AB7
:102560008F70CF911F910F9108950F931F9305B115
:102570000B7E182F1170110F110F012B182F1270D5
:10258000110F110F110F012B05B90027182F14700F
:102590001295110F012B182F187012951695012BFB
:1025A000182F107816951695012B182F107212956A
:1025B0001F70012B182F1074129516951695012B6C
:1025C000182F107116951695012B0BB94298000023
:1025D000000006B113B12227302F32703695230F39
:1025E000312F387036953695230F312F3170330FD8
:1025F000330F230F0870200F822F429A8F701F9184
:102600000F9108950F931F9305B1067F162F127037
:10261000110F110F012B162F147016951695012B03
:1026200005B948B1457F162F1170110F412B162F98
:102630001870412B48B905B10B7E182F1170110F7E
:10264000110F012B182F1270110F110F110F012BE9
:1026500005B90027182F14701295110F012B182F90
:10266000187012951695012B182F1078169516953F
:10267000012B182F107212951F70012B182F107438
:10268000129516951695012B182F10711695169503
:10269000012B0BB94298000000000000429A1F91E4
:1026A0000F910895AC0195B1BA0176956795842F85
:1026B000880F242F220F220F2470362F3170232BE6
:1026C0009A7E292B982F9071292B25B928B12B7F21
:1026D000942F9470292B28B93BB151FB222720F964
:1026E000FA01EE0FEF2FEE1FFF0BF1959E2F927068
:1026F000922B3871932B9A0155E0369527955A9570
:10270000E1F72470922B6072962B8074982B842FA3
:10271000880F880F880F8078892B8BB9089584B132
:102720008F6184B987B18F6187B98AB1876E8AB9A1
:1027300088B1896088B9089580FF1BC0449A4BB165
:102740009C01369527952770382F330F307E232B29
:102750004871242B2BB925B1880F892F881F990B1D
:102760009195FC01E35CFE4FE4912A7EE22BE5B9F2
:1027700008954498E4CF0E949C132B9890E080E049
:102780000E949C1342980000000086B1429A2B9A46
:1027900083FB882780F908952B9A0E949C132B981D
:1027A0000895CF93DF939C01D62FC42F2B9A98E0E6
:1027B00000002B98000000002B9A9150C9F7429A14
:1027C000C9010E949C132B98D8B9C5B9DF91CF914C
:1027D00008951F93CF93DF93162FC82FD0E0CE011B
:1027E0000E949C132B981123C1F0409A4198429863
:1027F0000000429A419A2B9ACE010E949C132B987A
:1028000042980000000086B1429A2B9A83FB8827E9
:1028100080F9DF91CF911F9108954098E7CF299AD1
:102820004398299800000000299A439A0895A82FF8
:10283000AF71B0E09D01220F331FA20FB31FAE5244
:10284000BE4F11965C91119712964C91129765E0CC
:10285000969587956A95E1F79927FC01EB53FC4F14
:102860003491FC01EB54FC4F24918B559C4FFC019F
:102870008491E5B1EA7E9C91E92BE32BE5B9E8B1BF
:10288000EE7EE52BE22BE8B9EBB1EC73E42B8E2B5B
:102890008BB90895299A0E94171429980895CF9307
:1028A000DF93EB01419839980E9417142998CE01C3
:1028B0000E941714419843980000000086B1439A83
:1028C000299A82FB882780F9DF91CF9108950F9391
:1028D0001F93CF938B01C42F399A0E941714299804
:1028E0002B98C111C4E0C8010E941714CC2351F0E9
:1028F000419A43980000439A2B9A299ACF911F91AD
:102900000F9108954198F5CF299A00002998000069
:102910000000299A439A0E941714299808958F92CB
:102920009F92AF92BF920F931F93CF93DF93CDB738
:10293000DEB7A1970FB6F894DEBF0FBECDBF19A2C8
:10294000423008F44AE08E010F5D1F4F842E912C17
:10295000B12CA12CA50194010E94BA3DE62FB9012A
:10296000CA01EA3044F5E05DD801EE938D01232BD6
:10297000242B252B79F790E080E0109769F0FD017A
:1029800001900020E9F73197AF014A1B5B0BBD01B5
:1029900085E595E00E94FE0DA1960FB6F894DEBF86
:1029A0000FBECDBFDF91CF911F910F91BF90AF9020
:1029B0009F908F900895E95CD7CF982F907F9031AA
:1029C00051F491E490934F048F70805D8093500494
:1029D000109251040895903269F499E490934F0451
:1029E0009FE4909350048F70805D80935104109207
:1029F0005204089581508730F8F4E82FF0E0ED5F3D
:102A0000FA4E0C94DC3D1F150A15221510151315EE
:102A10001615191563E574E08FE494E00C94903D6D
:102A20006DE474E0F9CF69E474E0F6CF64E474E037
:102A3000F3CF61E474E0F0CF10924F04089567E59E
:102A400074E0EACF60E574E0E7CFFC01A081B181DA
:102A500050962C9182AD38E0839FC0011124289FAD
:102A6000A001299F500D112470E060E080AD91AD70
:102A70000C94E23D1F93CF93DF93EC010E94F60B81
:102A80001BAD8AAD180FE881F9818189181768F0AC
:102A9000EC81FD8130E020E040E060E1CE0109956D
:102AA00080E0DF91CF911F910895FE01E557FF4F20
:102AB0008081882319F0CE010E942515612FCE0157
:102AC0000E94E30B81E0EDCFCF93DF93EC01FC019B
:102AD000E557FF4F8081882319F0CE010E9425150C
:102AE00060E0CE01DF91CF910C94E30B982EC62FBE
:102AF000DFEFD60FD73068F4ED2FF0E0EE57FA4E47
:102B00000C94DC3DA5150E160E161D16951607160F
:102B10009B160FEF1FEF20EE31E044E067E485E005
:102B200095E00E9490280E94870CD73008F037C1AA
:102B3000ED2FF0E0E256FA4E0C94DC3DFA15A616A5
:102B4000A1168716C316C116C71684B18F7C84B927
:102B500085B1806385B989E595E00E94641562E3DB
:102B6000262E312CC1E2D0E00FE010E076E3A72E54
:102B7000B12C292D2051330B6901330FEE08FF08CA
:102B8000492C512C712C612C88EC95E00E942C0B67
:102B90003092E8052092E705D093EA05C093E90555
:102BA0008EED91E00E94781082E796E00E942C0B57
:102BB0001093E8050093E705B092EA05A092E905B5
:102BC00080ED91E00E9478103FE04AE0C301B2013D
:102BD000391530F480E28915A8F04AE0C701B60142
:102BE0000E948F1489E595E00E943A158111CCCF9F
:102BF0000E94870C8FEF890DD0E0843108F0912C72
:102C0000C1E0ACC08EEC91E00E947810EBCF0FEFEA
:102C10001FEF2BEB31E043E063E481CFE1E00FEF06
:102C20001FEF28EA31E041E0E81718F427E931E026
:102C300048E062E488EC95E074CF80914F048823EB
:102C400009F46DC084B18F7C84B985B1806385B986
:102C500089E595E00E94641532E3E32EF12C41E210
:102C6000C42ED12CCFE4D4E057E0B52E06E310E01B
:102C700085E095E00E942C0BF092E805E092E705D4
:102C8000D092EA05C092E90583E40E94B32782E767
:102C900096E00E942C0BFE0101900020E9F79F01B5
:102CA00020553440B29EC001B39E900D11248A5B22
:102CB0009F4F97FD019695958795919581959109DF
:102CC000805C9F4F97FF02C090E080E09093E80502
:102CD0008093E7051093EA050093E9058CE891E0FD
:102CE0000E947810FE0101900020E9F7AF014055E5
:102CF00054406FE474E085E595E00E94FE0D89E59F
:102D000095E00E943A158111B3CF0E94870C8FEF96
:102D1000890DD0E0843108F0912CC3E01FC0092D4B
:102D200010E021E831E048E177CF0FEF1FEF21E716
:102D300031E04BE07ECF0FEF1FEF26E631E04DE1B3
:102D400078CFD0E097E0992EC2E008C0892D863078
:102D500008F085E099249394980ED0E0DD2319F1D2
:102D60002D9A2C9868EE73E080E090E00E941405A4
:102D70002D982C9868EE73E080E090E00E94140596
:102D8000EDCFD0E0C9CFD0E088E0982EDDCF8FEF37
:102D9000890DD0E0843108F0912CC4E0DFCFD1E080
:102DA000912CC0E0DBCF6C2F81E090E00E94C50C3D
:102DB0006CE271E080E090E00E941405992029F017
:102DC000692D83E090E00E94C50C6CED75E080E019
:102DD00090E00E941405E7CFDF92EF92FF920F93ED
:102DE0001F93CF93DF93F82ED62E809106019091FA
:102DF00007012FE0289FF001299FF00D1124EE5CC0
:102E0000FD4FE5808F2D0E943211F89420E1F29E53
:102E100080011124D0E0C0E05C2FCE1508F03DC049
:102E20008C2F8F778BB90000289800000000289A1B
:102E300046B141709E01200F311FF901F695E795CB
:102E4000F695E795FF27EB5AFB4F808123703327D8
:102E500022303105A1F02330310599F021303105C0
:102E600061F0847091E009F490E0491779F078946A
:102E700063E081E08D0D0E9476158695F2CF880F74
:102E8000F0CF24E0829FC0011124EBCF50FF03C09C
:102E90008F2D0E9432112196BFCF299A7894DF910D
:102EA000CF911F910F91FF90EF90DF900895DF92E7
:102EB000EF92FF920F931F93CF93DF9324B1982F3C
:102EC0009095922394B927B1962F9095922397B914
:102ED0002AB1942F909592239AB995B1982B95B9D0
:102EE00098B1962B98B99BB1942B9BB9EFE0F0E089
:102EF0003197F1F7D42E90E0E9E2F0E003E010E042
:102F0000C8E0D0E021E03D2D322349F13181322B60
:102F100031835281322F309553235283D801119738
:102F2000F1F7542F5323762F992389F17323542FCC
:102F3000913069F5A82FA323762FF3B0FA22FA1265
:102F400028C0A6B1A723A71324C079B17523751390
:102F500020C05181352331833281322B3283220FBD
:102F6000219789F69F5F933041F4DF91CF911F91B4
:102F70000F91FF90EF90DF900895D62EE6E2F0E0FB
:102F8000913009F0BDCFD82EE3E2F0E0B9CFA82F01
:102F9000D4CF66E080E00E947615AF92BF92CF92C8
:102FA000DF92EF92FF920F931F93CF93DF93DA019B
:102FB000AB01F0E0E0E0CC24C394D12CB6010E2E9E
:102FC00001C0660F0A94EAF7EC010196B880B39449
:102FD000B394AA24A394AB1460F4B3B0B62249F41A
:102FE000E20FF31F84910E94DD1464E088810E9447
:102FF0007615EA014F5F5F4FB880B394B394AA246B
:10300000A394AB1418F4B6B0B622B1F0ED0111964A
:10301000B8807EEFA72EBA1490F03196E830F10513
:1030200069F6DF91CF911F910F91FF90EF90DF90A4
:10303000CF90BF90AF900895E00FF11FD3CF79B13B
:10304000672359F7EE0DFF1DCDCF8F929F92AF9260
:10305000BF92CF92DF92EF92FF920F931F93CF9385
:10306000DF937C01B62E0E949F1080910601909103
:1030700007012FE0289FF001299FF00D1124EE5C3D
:10308000FD4F87818170C82E9680C70124E09695F8
:1030900087952A95E1F78E0D9F1DD92ED8262A985F
:1030A000F894C0E0C91508F072C005B10F7E18B1E0
:1030B0001F7EC0FD0061C1FD106105B918B9AD2CBE
:1030C000AC26D0E0812CCC2009F436C0289884E0CE
:1030D000882ED0E090E49D0FDBB90000000086B19F
:1030E0008F70EA2DED27F0E0EB5AFB4F2081821321
:1030F00032C0DF5FD913F0CF289AC7010E949F101A
:1031000005B10F7E18B11F7EC0FD0061C1FD1061C9
:1031100005B918B928988A948110DCCF36C0C70148
:103120000E949F1005B10F7E18B11F7EC0FD006187
:10313000C1FD106105B918B990E49D0FDBB928985D
:10314000289A86B18F70EA2DED27F0E0EB5AFB4FFD
:103150002081821729F0789463E08B2D0E947615E8
:10316000E1E0ED0FEBB92898289A86B18F70EA2537
:10317000F0E0EB5AFB4F20818213EDCFDE5FD913D5
:10318000DDCF839484E08812CACFCF5F8BCF289A9B
:103190002A9A299A7894DF91CF911F910F91FF90ED
:1031A000EF90DF90CF90BF90AF909F908F90089559
:1031B0001F93CF93DF93C62F142FD22F0E9432116B
:1031C000CF77CBB900000000289800000000289AB3
:1031D00086B18170181741F0289A299A00000000E2
:1031E00061E08D2F0E947615299A00000000DF9182
:1031F000CF911F910895FF920F931F93CF93DF9369
:10320000C82FD62FF22E162F00E0411104C0182F20
:10321000C62F0D2FD0E02B98802F0E94321160E036
:103220008D2F0E942411299A000000008C2F0E94EB
:10323000321161E0812F0E942411299A00000000C0
:103240002B9A2F2D40E06D2F802F0E94D8182F2D04
:1032500041E0612F8C2FDF91CF911F910F91FF9053
:103260000C94D8189F92AF92BF92CF92DF92EF92B8
:10327000FF920F931F93CF93DF93182F8091060136
:10328000909107012FE0289FF001299FF00D112454
:10329000EE5CFD4F83819481D82EC580F894C0E008
:1032A00099277C012FEFE21AF20ABB24BA94BD0CD5
:1032B000AA24A394AD0CCE151F0411F00CF05CC031
:1032C000CD1548F50B2D0C1B111101C00C2F902EA4
:1032D0009126802F0E9432112B98D0E0DC15C8F483
:1032E0008D2F892580FF13C0419A8D2F8F778BB941
:1032F00000000000289800000000289A8D2F83709D
:10330000833019F4802F0E943211DF5FE7CF41989C
:10331000ECCF2B9A299AC23068F10EEF0C0F1123D3
:1033200011F00A2D0C1B902E9126802F0E94321135
:10333000D0E0DC15F0F48D2F8F778BB90000289842
:1033400000000000289A86B1992D9D279170817008
:10335000981731F07894299A62E0812F0E947615AF
:103360008D2F8370833019F4802F0E943211DF5F1C
:10337000E0CF299ACF5F9FCF7894DF91CF911F91B3
:103380000F91FF90EF90DF90CF90BF90AF909F9004
:1033900008958F929F92AF92BF92CF92DF92EF9259
:1033A000FF920F931F93CF93DF93EC01A62E809192
:1033B0000601909107012FE0289FF001299FF00D51
:1033C0001124E95CFD4F9180CE0164E096958795CC
:1033D0006A95E1F78C0F9D1FD92ED826419ACE0110
:1033E0000E94CC13F89410E000E0B12CB91408F05E
:1033F0004DC08B2C8D24C12CEC2DE825F0E0EB5A30
:10340000FB4F208123FB222720F9F801EC29E0FF64
:103410002CC0449A3BB1CF019695879587709E2F1B
:10342000990F907E892B3871832B8BB985B1EE0F64
:10343000EF2FEE1FFF0BF195E35CFE4FE4918A7EC8
:10344000E82BE5B942980000429A86B183FBEE244E
:10345000E0F8F12C2E151F0451F078942B9A63E0BC
:103460008A2D0E947615C82EC7CF4498D3CF8C2DB5
:103470008F708F3019F4CE010E94CC1381E08C0D37
:103480009FEFC912F0CFB3941395B0CF2B9A7894D5
:10349000DF91CF911F910F91FF90EF90DF90CF9030
:1034A000BF90AF909F908F9008956F927F928F9270
:1034B0009F92AF92BF92CF92DF92EF92FF920F93C3
:1034C0001F93CF93DF93EC01662EC0900601D0903E
:1034D0000701BB24B39420E4E22EF12C83E0C8164C
:1034E000D10421F0B12CE12CFF24F3940E94FB11B4
:1034F00040989C2E8C2F0E94C51185B07BB0F8940B
:103500008E0184E0169507958A95E1F70C0F1D1F33
:1035100081E0A82E01C0AA0CBA94EAF7B12CD0E041
:10352000C0E08B2D0E94B51298012C273D27232740
:10353000E22FF0E0EB5AFB4F9081891739F0789435
:10354000409A449A63E0862D0E94761583E0C8165F
:10355000D104D1F4892D0E94C5112196BA0CEC1624
:10356000FD06F9F6409A449A7894DF91CF911F9125
:103570000F91FF90EF90DF90CF90BF90AF909F9012
:103580008F907F906F900895449A85B87BB8449847
:10359000E4CFCF92DF92EF92FF920F931F93CF93DE
:1035A000DF93082F1EEFD0E0C0E02DEFC22ECF3FFB
:1035B000D10509F020F5EC2E002311F0EC2CE11AD6
:1035C0000E9408128E2D0E94C5112998F894F12CA2
:1035D0008E2D8F2581706AE0801365E08F2D880F16
:1035E0000E9402138E2D0E94C511F39480E4F812FC
:1035F000EFCF299A449A7894C230D10558F1E12E40
:103600000111E0940E94FB1140988E2D0E94C5117B
:10361000F894F12C8E2D8F25817095E0D92E801392
:1036200002C08AE0D82E8F2D880F0E94B5128D150A
:1036300039F0409A449A789462E0802F0E9476157F
:103640008E2D0E94C511F39480E4F812E3CF409AC6
:10365000449A789421961F5FC23081E0D80709F020
:10366000A6CFDF91CF911F910F91FF90EF90DF9048
:10367000CF9008952F923F924F925F926F927F92D8
:103680008F929F92AF92BF92CF92DF92EF92FF9272
:103690000F931F93CF93DF9300D000D01F92CDB72D
:1036A000DEB79B838A83F62E8091060190910701F5
:1036B0002FE0289FF001299FF00D1124EE5CFD4FB3
:1036C000C580D6808781419839980A811B81B4E0F2
:1036D00016950795BA95E1F72A813B81020F131FD2
:1036E00081FD90C02601A5E056944794AA95E1F784
:1036F000F8948A819B810E944A1495B1E8B0BBB0CE
:10370000392F32603983B0E0A0E050E040E080E043
:103710009A7E692E9E2D9C7E792EEB2DEC738E2E3B
:10372000242D2150330B1901441508F057C0FA011C
:10373000EB53FC4F9490FA01EB54FC4F2491FA01A7
:10374000EB55FC4F6491962827292C836829F2E0D9
:10375000AF2E443010F4AA24A39498012A273B27C3
:10376000932F92279D837EE192E0970F9150292F0E
:1037700030E06901CC0CDD1C2C0D3D1D2E523E4F5E
:10378000F901D080D928D5B8D180FC81DF2AD8B8FA
:10379000F9012281262B2BB943980000439AD6B019
:1037A0002D81292730E02B5A3B4FF9012081D22669
:1037B000D2FC8A299713DACF911103C04215530521
:1037C0004CF4299A298125B9E8B8BBB829987250D8
:1037D0009111CACF4F5F5F4F9096A6CF439A299A17
:1037E0007894399A882309F451C090910501509139
:1037F000440490FD6BC0511146C063E081E08F0D21
:103800000E947615F894D694C794912C812CC814F4
:10381000D90409F458C0C401802791278927E82FCB
:10382000F0E0EB5AFB4F7080A72CB12CB594A79415
:10383000E72CEE0CB72CBB0CBB0C8A819B810E9441
:1038400017142998C4010E9417144398439A96B1FB
:103850004398439A86B14398439A36B14398439A22
:1038600026B1E326B226EB287926E728A826AE283B
:10387000A2FE24C07894439A299A399A80914404EC
:10388000882309F4BACF82E0809344040F900F900C
:103890000F900F900F90DF91CF911F910F91FF909C
:1038A000EF90DF90CF90BF90AF909F908F907F90E0
:1038B0006F905F904F903F902F900895299A3FEF1F
:1038C000831A930AA4CF789480E08BCF20910601CD
:1038D000309107012115310521F02D30310509F016
:1038E0008ACF90E0EA81FB8122E0E038F10508F41C
:1038F00020E002C0880F991F2A95E2F74091430407
:10390000482B40934304552369F020913F042095B0
:1039100030E082239323892B09F06DCF4F3009F4D7
:10392000B2CFB4CF4F3009F0B1CF67CF6F927F9253
:103930008F929F92AF92BF92CF92DF92EF92FF92BF
:103940000F931F93CF93DF938C0184B18F7C84B945
:1039500085B1806385B989E595E00E9464158EE1A3
:10396000A82EB12C90E1C92ED12CC4E0D0E02FE1DB
:10397000E22EF12C3EE2832E912C4DE3642E712C2D
:1039800082E796E00E942C0BB092E805A092E70532
:10399000D092EA05C092E9058BE591E00E9478108B
:1039A000D093E805C093E705F092EA05E092E905B7
:1039B00081E591E00E947810D093E805C093E70577
:1039C0009092EA058092E905C8010E947810D09390
:1039D000E805C093E7057092EA056092E90585E481
:1039E00091E00E94781089E595E00E943A158111D6
:1039F000C7CFDF91CF911F910F91FF90EF90DF9094
:103A0000CF90BF90AF909F908F907F906F900895D0
:103A100084B18F7C84B985B1806385B962E089E522
:103A200095E00E94E30B89E595E00E94251582E769
:103A300096E00E942C0B81E00E94D90486E490E07D
:103A40009093E8058093E7058EE190E09093EA0576
:103A50008093E9050895CF93C82F0E94081D81E047
:103A600092E00E9478106C2F70E090E080E04AE0D5
:103A70000E948F14CF910C94670C5F926F927F928B
:103A80008F929F92AF92BF92CF92DF92EF92FF926E
:103A90000F931F93CF93DF938C0178942D982C98DC
:103AA0008FB7F894C0904704D0904804E090490440
:103AB000F0904A048FBF4601570180E6880E8AEED7
:103AC000981EA11CB11CE8EECE0EE3E0DE1EE11C48
:103AD000F11C8CE3582E9BE1692E712C2FB7F894C2
:103AE0008091470490914804A0914904B0914A0400
:103AF0002FBFAC01BD01481959096A097B0977FF3D
:103B00001EC08C199D09AE09BF09B7FD12C0F8EEA1
:103B1000CF0EF3E0DF1EE11CF11C5A94852D0E94AC
:103B20002B1D2D982C98C0E0D1E0F8010995219724
:103B3000E1F7F8010995C3010197F1F7CFCFF894A8
:103B4000DF91CF911F910F91FF90EF90DF90CF9079
:103B5000BF90AF909F908F907F906F905F900895EF
:103B6000882389F024982C9A8AE08A95F1F700C07E
:103B700025982D9A80E28A95F1F72D98259A88E06C
:103B80008A95F1F708952C98249AEECF80E18A95D2
:103B9000F1F70895CF93C82F80780E94B01D8C2F25
:103BA00080740E94B01D8C2F80720E94B01D8C2FDB
:103BB00080710E94B01D8C2F88700E94B01D8C2FC8
:103BC00084700E94B01D8C2F82700E94B01D8C2FBB
:103BD00081700E94B01D24982C9A0E94C61D2598C1
:103BE0002D9A80E28A95F1F724982C9A0E94C61D9E
:103BF0002D98259ACF910895EF92FF921F93CF931E
:103C0000DF93EC01142F7901683121F158F464310C
:103C1000C1F0673169F080E0DF91CF911F91FF9093
:103C2000EF900895693181F16032A9F781E0F4CF16
:103C30001123E1F3F70181917F010E94CA1D115008
:103C4000F7CF84B18F7C84B985B1806385B90E9438
:103C5000C61DECCF8F89882349F024982C9A0E94A6
:103C6000C61D25982D9AF0E2FA95F1F724982C9A22
:103C70002C98249A0E94C61D2D98259A81E08F8B3E
:103C80008E890E94CA1DD2CF2C98249A0E94C61DEC
:103C900025982D9A80E28A95F1F724982C9A0E9413
:103CA000C61D1F8A84B1806384B9C0CF24B1257F2B
:103CB00024B925B12A6025B927B12D7E27B928B1AD
:103CC000226128B90E945213439800C000C093B1EA
:103CD00026B1439A30E024FB882780F9492F469586
:103CE0004470842B9270892B220F331F220F331FB5
:103CF0002870822B0895CF93C62F0E94521384B14F
:103D00008A6084B987B1826187B965B12C2F30E0B0
:103D1000657FC2706C2BC901880F991F8870682B52
:103D200065B948B1C9019595879595958795827034
:103D300064E0220F331F6A95E1F72071822B4D7EDC
:103D4000842B88B94398409882E08A95F1F7409A8D
:103D5000439ACF9108952F923F924F925F926F9224
:103D60007F928F929F92AF92BF92DF92EF92FF92DB
:103D70000F931F93CF93DF93EC018091050180FF98
:103D800097C08091410490914204009709F490C03B
:103D90000E94973D14E0180FDD24D39429EF2103EE
:103DA0001001112437FE03C08FEF281A380A35940A
:103DB000279490E4290E311C84B18F7C84B985B19D
:103DC000806385B989E595E00E94641599E1692EC3
:103DD000712C01E210E026E4E22EF12C3FE0A32E4C
:103DE000B12C4EE1842E912C56E3452E512C88ECBB
:103DF00095E00E942C0B8091050181FF68C082E351
:103E000090E09093E8058093E7051093EA0500930E
:103E1000E9058FEF91E00E94781082E796E00E941A
:103E20002C0B8091050181FD1FC0F092E805E09206
:103E3000E705B092EA05A092E90587EF91E00E94BC
:103E40007810F092E805E092E7059092EA058092FA
:103E5000E90560910001709101018091020190914A
:103E600003014AE00E948F14DD2069F020E130E078
:103E700040E850E06AE270E090E080E00E942D0AA5
:103E800080E00E94D9043092E8052092E705509224
:103E9000EA054092E905DD20F9F080914104909116
:103EA00042040E94781082EF91E00E9478101DC0B9
:103EB000CE010E94973D182F8091380390913903CD
:103EC000009719F00E94973D180FD12C67CF709280
:103ED000E8056092E70599CFCE010E9478108091A5
:103EE000380390913903009701F781E00E94D904CB
:103EF00089E595E00E943A15811179CFDF91CF9144
:103F00001F910F91FF90EF90DF90BF90AF909F9027
:103F10008F907F906F905F904F903F902F9008957B
:103F20001F93CF93DF938091000190910101A091A5
:103F30000201B09103010297A105B10588F10E9429
:103F4000081D609100017091010180910201909122
:103F500003014AE00E948F140E94670C80910501C2
:103F600081FD2FC08091000190910101A09102017B
:103F7000B0910301803422E492072FE0A207B1053B
:103F800000F50196A11DB11D8093000190930101E0
:103F9000A0930201B0930301DF91CF911F91089587
:103FA00080910601909107012FE0289FF001299F41
:103FB000F00D1124EE5CFD4F808191810E94AB1EBB
:103FC000CDCF0E94870CE0910601F0910701EE3001
:103FD000F10588F02D982C9A68EE73E080E090E06F
:103FE0000E9414052D982C9868EE73E080E090E014
:103FF0000E941405EFCFEA5FFD4FC4911C2F12956C
:104000001F70CF70D0914004DD2339F0C5E0D0FFA0
:10401000C6E0D33089F1D0E011E0612F82E090E07A
:104020000E94C50C6CE271E080E090E00E941405F3
:104030006C2F83E090E00E94C50CDD23B1F060EDB1
:1040400077E080E090E00E94140561E082E090E07B
:104050000E94C50C6CE271E080E090E00E941405C3
:104060006D2F83E090E00E94C50C60ED77E080E06A
:1040700090E00E941405D1CFD6E0CECF2D982C9899
:1040800080910601909107012FE0289FF001299F60
:10409000F00D1124EE5CFD4F808191810E94AB1EDA
:1040A0008CE30E942B1D2D982C9808952F923F92FF
:1040B0004F925F926F927F928F929F92AF92BF9238
:1040C000CF92DF92EF92FF920F931F93CF93DF93E4
:1040D000CDB7DEB729970FB6F894DEBF0FBECDBFC0
:1040E0004FE344B932E235B92FE127B995E198B9E8
:1040F00087EE8AB9EE24EA94FE2CF0920701E09252
:10410000060144B935B927B998B98AB980E00E9447
:10411000C5110E940812299885E005B1067F182F65
:104120001270110F110F012B182F14701695169580
:10413000012B05B948B1457F182F1170110F412B84
:10414000182F1870412B48B920E005B10B7E122FB3
:104150001170110F110F012B122F1270110F110F6F
:10416000110F012B05B90027122F14701295110F92
:10417000012B122F187012951695012B122F107803
:1041800016951695012B122F107212951F70012B88
:10419000122F1074129516951695012B122F10716F
:1041A00016951695012B0BB942980000429A299A50
:1041B000449A0E94FB11409880E00E94C51130E0B3
:1041C00005B10B7E132F1170110F110F012B132F3F
:1041D0001270110F110F110F012B05B90027132FAA
:1041E00014701295110F012B132F1870129516953C
:1041F000012B132F107816951695012B132F107283
:1042000012951F70012B132F107412951695169589
:10421000012B132F107116951695012B0BB942988F
:104220000000000006B113B12227302F32703695FE
:10423000230F312F387036953695230F312F31707B
:10424000330F330F230F0870200F822F429A409AAA
:10425000449A8F708983853009F0A8C080E00E945D
:10426000C5110E9408122998998105B1067F192F5E
:104270001270110F110F012B192F1470169516952E
:10428000012B05B948B1457F192F1170110F412B32
:10429000192F1870412B48B920E005B10B7E122F61
:1042A0001170110F110F012B122F1270110F110F1E
:1042B000110F012B05B90027122F14701295110F41
:1042C000012B122F187012951695012B122F1078B2
:1042D00016951695012B122F107212951F70012B37
:1042E000122F1074129516951695012B122F10711E
:1042F00016951695012B0BB942980000429A299AFF
:10430000449A0E94FB11409880E00E94C51130E061
:1043100005B10B7E132F1170110F110F012B132FED
:104320001270110F110F110F012B05B90027132F58
:1043300014701295110F012B132F187012951695EA
:10434000012B132F107816951695012B132F107231
:1043500012951F70012B132F107412951695169538
:10436000012B132F107116951695012B0BB942983E
:104370000000000006B113B12227302F32703695AD
:10438000230F312F387036953695230F312F31702A
:10439000330F330F230F0870200F822F8F708F3051
:1043A00009F0DAC0F0920701E0920601809106015F
:1043B00090910701019609F05CC084B1807E8D6107
:1043C00084B987B1807E876187B98AB1876E8AB9DF
:1043D000439A2B9A429A419A90E080E00E949C1363
:1043E0002B984098419842980000429A419A2B9A03
:1043F00090E080E00E949C132B98429800000000FF
:1044000086B1429A2B9A83FD34C084B1807E8D613F
:1044100084B987B1807E876187B98AB1876E8AB98E
:104420002B9A429A419A60E080E00E94E9138A83C5
:1044300061E081E00E94E913898390E080E00E94BE
:104440009C132B9842980000000086B183FB8827BC
:1044500080F9429A2B9A3A8131110BC099819923A4
:1044600041F0811106C089E090E0909307018093AC
:10447000060180910601909107018F3F980739F559
:104480000E948F1360E090E080E00E947B1E90E02D
:1044900080E00E94561E811111C06FE090E080E024
:1044A0000E947B1E90E080E00E94561E8F3031F407
:1044B0008EE090E0909307018093060180910601C1
:1044C0009091070160E08F3F980709F442C02FE008
:1044D000289FF001299FF00D1124EE5CFD4F808193
:1044E00091810E94961C6FE0362E7AE0472E512C67
:1044F000612C712C80910601909107018E309105FD
:1045000009F0DBC147EE64E085E10E9457170E9485
:104510008F136FE090E080E00E947B1E10E000E0CF
:1045200061E0600F81E090E0002E02C0880F991FCB
:104530000A94E2F70E947B1E0F5F1F4F0A3011059D
:1045400079F790E080E00E94561E8F3009F4ABC0EE
:1045500061E080E00E947615429A409A80E00E94D5
:10456000C5110E940812299880E005B1067F182F16
:104570001270110F110F012B182F1470169516952C
:10458000012B05B948B1457F182F1170110F412B30
:10459000182F1870412B48B905B10B7E182F1170D8
:1045A000110F110F012B182F1270110F110F110F76
:1045B000012B05B90027182F14701295110F012B2C
:1045C000182F187012951695012B182F1078169524
:1045D0001695012B182F107212951F70012B182F92
:1045E0001074129516951695012B182F10711695AB
:1045F0001695012B0BB942980000429A299A449AC9
:1046000081E00E940F12882341F083E090E09093B4
:10461000070180930601449AC9CE80E80E940F12D8
:104620008111F3CF84E090E0F2CF182F8A3009F0A7
:104630003BC065E083E291E00E947B1E83E291E053
:104640000E94521384B1857F84B987B18D7E87B96A
:1046500085B18A6085B988B18A6188B98FE090E0B8
:104660000197F1F733B186B1409800000000409AFD
:1046700095B1957F95B998B19D7E98B990E084FBEE
:10468000222720F9432F46954470242B3270232B88
:10469000880F991F880F991F8870822B8F30B1F077
:1046A00067E081E057CF10E081E090E0012E02C08A
:1046B000880F991F0A94E2F70E94561E91E0910F0D
:1046C000891709F4B2CF61E0812F44CF83E291E0F2
:1046D0000E94561E853019F067E082E03BCFE12C46
:1046E000F12CBF2CB32410E000E06F2DC8010E9414
:1046F0007B1E0F5F1F4F011584E01807B1F710E014
:1047000000E0C8010E94561EF81641F067E083E001
:1047100021CFEE24E39445E0F42EE3CF6B2DC801C6
:104720000E947B1E0F5F1F4F011594E0190749F788
:1047300010E000E0C8010E94561EB81619F067E0AC
:1047400084E008CF6F2DC8010E947B1E0F5F1F4FB2
:10475000011524E0120771F7C12C34E0D32E31E0AB
:10476000C31AD10888F0C6010E94561EF81619F027
:1047700067E085E0EFCE6B2DC6010E947B1EEFCF78
:104780006F2DC8010E947B1E0150110940F0C80125
:104790000E94561EB816A1F367E086E0DBCE10E05B
:1047A00000E0C8010E94561EF81619F067E087E085
:1047B000D1CE0F5F1F4F011524E0120791F731E0B2
:1047C000E312A7CF60E090E080E00E947B1E61E0F2
:1047D00080E190E00E947B1E84B1857F84B985B121
:1047E0008A6085B987B18D7E87B988B1826188B9C1
:1047F00090E080E00E9452132BB1322F3068439832
:1048000082E08A95F1F700C0F89490E181E03BB92D
:1048100000C00000349B80E02BB900C00000349938
:1048200080E09150A1F7811140C090E181E03BB957
:1048300000C000C00000349B80E02BB900C000C065
:104840000000349980E0915091F7882381F17894A9
:10485000439A8DE291E0EE2029F091E0E9122AC01E
:1048600089E291E090933903809338030E94901F6E
:104870008091050181FF3ECE29960FB6F894DEBFE8
:104880000FBECDBFDF91CF911F910F91FF90EF90A1
:10489000DF90CF90BF90AF909F908F907F906F9060
:1048A0005F904F903F902F900895E12CD0CF22E061
:1048B000E22ECDCF81E391E0D5CF099709F056C123
:1048C00084B1807E8D6184B987B1807E876187B92C
:1048D0008AB1876E8AB947EE60E085E10E9457177A
:1048E00084B1807E8D6184B987B1807E876187B90C
:1048F0008AB1876E8AB91BB810E000E0D02E2AE09A
:10490000021709F43CC090E080E00E949C132B98B1
:10491000409890E080E00E949C13419842980000EB
:10492000429A419A2B9AEE24E394F12C002E02C075
:10493000EE0CFF1C0A94E2F7C7010E949C132B980F
:10494000409A90E080E00E949C13419842980000B9
:10495000429A419A2B9A90E080E00E94BB138823F0
:1049600019F061E0802FF6CDC7010E94BB130F5FE5
:104970001F4F813009F4C2CF61E08D2DEBCD10E0E7
:1049800000E0D02E3AE0031709F441C090E080E047
:104990000E949C132B98409890E080E00E949C130A
:1049A000419842980000429A409AEE24E394F12CF8
:1049B000002E02C0EE0CFF1C0A94E2F7C7010E9411
:1049C0009C13419842980000429A419A2B9A90E099
:1049D00080E00E949C132B9890E080E00E949C1342
:1049E000429800000000339B04C061E080E18D0D1F
:1049F000B1CD429AC7010E949C134298000000006A
:104A00000F5F1F4F339BF1CF429A2B9ABACF60E0D2
:104A100080E00E94152B60E081E00E94152B84E06D
:104A2000898310E000E08091060190910701389E93
:104A3000F001399EF00D1124EE5CFD4F8680C3809D
:104A4000D48021E0C21AD108C801B4E096958795B8
:104A5000BA95E1F7800F911F992E9826C8010E9400
:104A6000CC134198F894F12CE12CA12CA81408F057
:104A700047C0292C2A24B12CE22DEB25F0E0EB5A7B
:104A8000FB4F20812870F701EB29E0FF35C0449AE5
:104A90003BB1CF019695879587709E2F990F907E99
:104AA000892B3871832B8BB985B1EE0FEF2FEE1F59
:104AB000FF0BF195E35CFE4FE4918A7EE82BE5B9AC
:104AC0002223E1F0409A42980000429A8B2D8F7089
:104AD0008F3019F4C8010E94CC1381E08B0D3FEF99
:104AE000B31208C0A394F394C1CF0E94C80D95E0FF
:104AF000998397CFB82EC0CF4498CACF4098E3CFC0
:104B0000419A2B9A7894C8010E94CC1300002B9AEA
:104B100029EC39E14981B601C8010E94190D0F5FE6
:104B20001F4F011594E0190709F07DCF2981253029
:104B3000E1F68091050181FD99CE609100017091AF
:104B400001018091020190910301A30192010E9451
:104B5000BA3D613071058105910509F087CE0E944B
:104B60003E2061E080E00E94152B80CE0FE304B967
:104B700012E215B947EE60E084E10E94571704B9CC
:104B800015B987EE8AB91BB820910601309107014B
:104B900080E490E02330310511F080E091E001974E
:104BA000F12CF394969587950097D9F7DD24D3944B
:104BB00052E0E52E2330310511F0D12CE12C0E947A
:104BC0000812299810E000E080E00E94C51165E01D
:104BD0008E2D0E940213449A000081E0002E01C035
:104BE000880F0A94EAF70E94C5116AE08E2D0E9490
:104BF0000213449A00000F5F1F4F0830110521F780
:104C0000299A0E94FB11409810E000E0C02E083065
:104C10001105E9F080E00E94C5118E2D0E94B512A9
:104C2000449A853009F09DCE81E0002E01C0880FA6
:104C30000A94EAF70E94C5118E2D0E94B512449A7B
:104C40000F5F1F4F8A3011F361E08C2D83CC409AA7
:104C50000E940812299810E000E00F15E0F480E8A7
:104C60000E94C51165E080E00E940213000081E00F
:104C700090E0002E01C0880F0A94EAF76AE00D2C3C
:104C800001C0880F0A94EAF70E940213449A0000B8
:104C90000F5F1F4FE2CF299A0E94FB11409810E04E
:104CA00000E0E02E0F1510F580E80E94C51180E0AD
:104CB0000E94B512853029F0449A61E080E18E0DA2
:104CC00049CC000081E090E0002E01C0880F0A94DA
:104CD000EAF70D2C01C0880F0A94EAF70E94B5127A
:104CE0000F5F1F4F449A8A30E1F2E7CF409A8091DC
:104CF000060190910701039709F08AC080E00E94A5
:104D0000C91A81E00E94C91A809106019091070199
:104D1000389EF001399EF00D1124EE5CFD4F838129
:104D200094819C838B8394E0998310E000E08B81D5
:104D30009C810817190709F480C0C0900601D09023
:104D40000701FF24F39440E4A42EB12C93E0C9168C
:104D5000D10421F0F12CA12CBB24B3943C9CF00194
:104D60003D9CF00D1124EE5CFD4F8380948021E08A
:104D7000821A91080A83802F0E94C51129980E94E7
:104D8000081235B13E838BB18F83F894C80124E0BB
:104D9000969587952A95E1F79C01200F311F398759
:104DA000288731E001C0330FFA94EAF73D83F12CF4
:104DB000E12C212C888599858E259F258927E82F30
:104DC000F0E0EB5AFB4F6081822D0E94021383E0DA
:104DD000C816D10459F58A810E94C5113FEFE31A24
:104DE000F30A8D81280EAE14BF0421F7299A449A44
:104DF00078948A810E94C5110000449A25E53AE121
:104E00004981B401C8010E94190D0F5F1F4F8FCF58
:104E100060E080E00E940B2C60E081E00E940B2C9F
:104E200073CF0E94C80D25E029837FCF449A9E81CD
:104E300095B92F812BB94498D1CF9981953089F7B5
:104E40008091050181FD12CD6091000170910101F9
:104E50008091020190910301A30192010E94BA3D49
:104E6000613071058105910509F000CD8091060141
:104E700090910701049709F0F9CC0E943E2061E06F
:104E800080E00E940B2CF2CC1F920F920FB60F9273
:104E900011242F933F938F939F93AF93BF93809150
:104EA000470490914804A0914904B0914A0430917C
:104EB000460423E0230F2D3758F50196A11DB11D9F
:104EC000209346048093470490934804A093490498
:104ED000B0934A0480914B0490914C04A0914D04EE
:104EE000B0914E040196A11DB11D80934B04909387
:104EF0004C04A0934D04B0934E04BF91AF919F9189
:104F00008F913F912F910F900FBE0F901F9018958A
:104F100026E8230F0296A11DB11DD2CF86B185FBD5
:104F2000882780F94B9982604A9984600895E9E264
:104F3000F0E0883030F0E6E2F0E08E3010F4E3E2AA
:104F4000F0E0208130E0883018F08E3050F4885046
:104F5000A90102C0559547958A95E2F7CA0181706B
:104F600008958E50F5CF682F85E595E00C94260EB8
:104F7000EF92FF920F931F93CF93DF93062F7A0147
:104F8000122FC82FD0E01092E8051092E705D093B9
:104F9000EA05C093E90585EA92E00E947810802F27
:104FA0000E94B32782EA92E00E947810C7010E9413
:104FB000781089E690E09093E8058093E705D09318
:104FC000EA05C093E9058BE992E0112311F08FE91E
:104FD00092E0DF91CF911F910F91FF90EF900C9491
:104FE00078108F929F92AF92BF92CF92DF92EF9202
:104FF000FF920F931F93CF93DF93C82F6B014A014A
:1050000084B18F7C84B985B1806385B989E595E0E9
:105010000E946415D0E089E1A82EB12C9CE0E92E15
:10502000F12C0AE210E0D093E805C093E705B092B6
:10503000EA05A092E905C6010E947810F092E80501
:10504000E092E7051093EA050093E905C4010E9488
:10505000781089E595E00E943A158111E4CFDF913F
:10506000CF911F910F91FF90EF90DF90CF90BF9065
:10507000AF909F908F900895FF920F931F93CF93BF
:10508000DF9384B18F7C84B985B1806385B989E56C
:1050900095E00E9464150BE010E0CEE3D0E082E7DB
:1050A00096E00E942C0B81E00E94D904209105011A
:1050B000217047EC52E061E38EE00E94B827209116
:1050C0000501FF24F394269521702F2542EC52E030
:1050D00062E38CE10E94B8272091050122FB222780
:1050E00020F92F2549EB52E063E38AE20E94B827BA
:1050F0001093E8050093E705D093EA05C093E9050E
:1051000089EA92E00E94781089E595E00E943A15BC
:105110008111C5CFDF91CF911F910F91FF9008951D
:105120002F923F924F925F926F927F928F929F92B7
:10513000AF92BF92CF92DF92EF92FF920F931F93A5
:10514000CF93DF9300D000D0CDB7DEB77C01698369
:105150004A83190184B18F7C84B985B1806385B994
:1051600089E595E00E94641582E3882E912C91E2F6
:10517000C92ED12C9A81892F90E09C838B8326E3C2
:10518000A22EB12C2801012E000C66087708C70159
:105190000E942C0B9092E8058092E705D092EA05D8
:1051A000C092E90589810E94B32782E796E00E94B8
:1051B0002C0B8B819C819093E8058093E705B0923E
:1051C000EA05A092E905C1010E9478100F3F10077F
:1051D00029F04AE0C301B2010E948F1489E595E0ED
:1051E0000E943A158111D3CF0F900F900F900F901E
:1051F000DF91CF911F910F91FF90EF90DF90CF90B3
:10520000BF90AF909F908F907F906F905F904F90E6
:105210003F902F900895EC0184B18F7C84B985B1C3
:10522000806385B989E595E00E94641532E3A32E79
:10523000B12C41E2C42ED12C5AE0E52EF12C60E3D2
:10524000862E912C77E0772E00E410E088EC95E034
:105250000E942C0BB092E805A092E705D092EA05D7
:10526000C092E90580EE92E00E94781082E796E015
:105270000E942C0BF092E805E092E7059092EA0577
:105280008092E90580ED92E00E947810CE010E94A4
:10529000973D9C01729EC001739E900D11249695BE
:1052A00087959801281B390B3093E8052093E70573
:1052B0001093EA050093E905CE010E94781089E574
:1052C00095E00E943A158111C1CF84B1806384B901
:1052D0002D9A2C98FFCF2F923F924F925F926F9210
:1052E0007F928F929F92AF92BF92CF92DF92EF9276
:1052F000FF920F931F93CF93DF936C0184B18F7C48
:1053000084B985B1806385B989E595E00E9464150B
:10531000B2E12B2E312CC2E24C2E512CD4E36D2E57
:10532000712C17E0812E912C0FE3A02EB12C03E0FD
:1053300010E0F12CE12CD0E0C0E0FE01A3E0F595F7
:10534000E795AA95E1F7EE0DFF1DEB5EFD4FE491A9
:10535000F0E08C2F877002C0F595E7958A95E2F70B
:10536000E0FF0CC022E030E042E050E0B801CE01A6
:10537000880F991F8D5B9F4F0E942D0A2196CD317A
:10538000D105D9F684E0E80EF11C0E5F1F4F0D33F6
:10539000110589F685E095E00E942C0B3092E80516
:1053A0002092E7055092EA054092E90589E992E0EA
:1053B0000E94781082E796E00E942C0BC6010E94A2
:1053C000973D9C0143E0220F331F4A95E1F7821B72
:1053D000930B805C9F4F97FD01969595879597FF5E
:1053E00002C090E080E09093E8058093E70570921A
:1053F000EA056092E905C6010E9478108BE594E009
:105400000E942C0B8091050180FF41C028E030E014
:1054100040E450E068E370E090E080E00E942D0AF4
:1054200080E00E94D9041092E8051092E705B0923E
:10543000EA05A092E90583E992E00E9478108DE8E0
:1054400092E00E9478108091050180FF07C089E8F2
:1054500092E00E94781081E00E94D90489E595E0ED
:105460000E943A15811163CFDF91CF911F910F9167
:10547000FF90EF90DF90CF90BF90AF909F908F9074
:105480007F906F905F904F903F902F9008959092F3
:10549000E8058092E705CBCF9F92AF92BF92CF9263
:1054A000DF92EF92FF920F931F93CF93DF93B82E6B
:1054B000A62E80910601909107012FE0289FF00110
:1054C000299FF00D1124EE5CFD4F9680C380D4809F
:1054D000D0E0C0E0CC15DD0509F444C08C2F8B254D
:1054E0008170E82ECE010E949F1088B1807F88B91C
:1054F00087B18F6087B92A9A2B98F894F12CF91408
:1055000058F505B10F7E18B11F7EF0FC0061F1FC6B
:10551000106105B918B988B1807F04E010E020E47B
:10552000210F912F91709E1115C09AE0289A982B07
:1055300098B91BB928981F5F2113F3CF2B9A6F2DB1
:10554000CE010E94B1102B9888B1807F015039F7AD
:10555000F394D5CF95E0EACF289A2B9A299A78949C
:105560002196B8CFAA2021F087E990E10E943D1D45
:10557000F12CE12CCE15DF0509F44BC08B2D8E25C7
:105580008170C82EC7010E949F1088B1807F88B9A2
:1055900087B1807F87B92A98F894D12CD91408F064
:1055A00031C005B10F7E18B11F7ED0FC0061D1FC67
:1055B000106105B918B904E010E020E4210F1BB90F
:1055C0002898289A86B18F70912F91709C110CC0E9
:1055D0009AE0981759F078942A9A299A62E0A110D3
:1055E00065E08B2D0E94761595E0F3CF1F5F2113A8
:1055F000E6CF28986D2DC7010E94B1100150E9F641
:10560000D394CCCF2A9A299A78948FEFE81AF80A83
:10561000B1CFDF91CF911F910F91FF90EF90DF906D
:10562000CF90BF90AF909F9008952F923F924F924E
:105630005F926F927F928F929F92AF92BF92CF9222
:10564000DF92EF92FF920F931F93CF93DF93CDB72B
:10565000DEB7C254D1090FB6F894DEBF0FBECDBF7E
:10566000782E362ECE0101960E94781118B1107E48
:10567000812F846022968FAF2297912F9461239679
:105680009FAF2397F894F12CE12C4E01E1E48E0EAC
:10569000911C872D8E258170582E2B9AC7010E9450
:1056A0009C132B98419885B18A7E482E22960FAD87
:1056B0002297612C202E561071C025E3A22E21E0E6
:1056C000B22EF5014491442945B9CE0101966C01F1
:1056D000429AF60181916F018BB928B842988E16D3
:1056E0009F06B1F7419A602FC7010E94D113FFEFC7
:1056F000AF1ABF0A8DE3A81681E0B80611F723960A
:105700000FAD239791E0691246C0419A2B9AEFEFB3
:10571000EE1AFE0AE114F4E0FF0609F0BACF3320D6
:1057200021F088E691E10E943D1D812F8660582E70
:105730001661412E10E000E0872D80278170982EA1
:105740002B9AC8010E949C132B9885B18A7E882EC3
:10575000A52CB12C612C9B1411F098E0692E85E3E7
:10576000E82E81E0F82EF7014491482945B9A8B800
:10577000FE01319681918BB942980000429A86B120
:10578000862583FF11C078942B9A62E0311065E082
:10579000872D0E947615662463948CCF689420F838
:1057A0008CCFBB24B394D6CFCE16DF0619F7429820
:1057B0006A2DC8010E94D113FFEFEF1AFF0A8DE393
:1057C000E81681E0F80679F6A42C91E0B912E9CF49
:1057D0002B9A0F5F1F4F0115E4E01E0709F0ACCFB5
:1057E0007894CE5BDF4F0FB6F894DEBF0FBECDBF0F
:1057F000DF91CF911F910F91FF90EF90DF90CF90AD
:10580000BF90AF909F908F907F906F905F904F90E0
:105810003F902F9008959F92AF92BF92CF92DF92C8
:10582000EF92FF920F931F93CF93DF93B82EA62E84
:105830000E940812F894D0E0C0E0CB2CD12C9C2E12
:105840008C2F0E94C5112998F12CE12CCE018E25B8
:105850009F25817099278C159D0509F4CAC085E0A4
:10586000429A05B1067F182F1270110F110F012BEC
:10587000182F147016951695012B05B948B1457F60
:10588000182F1170110F412B182F1870412B48B988
:1058900005B10B7E1E2D1170110F110F012B1E2D46
:1058A0001270110F110F110F012B05B900271E2DBA
:1058B00014701295110F012B1E2D1870129516954C
:1058C000012B1E2D107816951695012B1E2D10728A
:1058D00012951F70012B1E2D10741295169516959A
:1058E000012B1E2D107116951695012B0BB94298A0
:1058F000299A892D0E94891129988FEFE81AF80AB0
:10590000E11481E0F80609F0A1CF299A449A219682
:10591000C11581E0D80709F092CFAA2021F080E7D5
:1059200091E10E943D1D0E94FB11D0E0C0E09C2E41
:105930008C2F0E94C5114098F12CE12CCE018E25B0
:105940009F2581709927C816D90609F054C08AE0AE
:1059500005B10B7E1E2D1170110F110F012B1E2D85
:105960001270110F110F110F012B05B900271E2DF9
:1059700014701295110F012B1E2D1870129516958B
:10598000012B1E2D107816951695012B1E2D1072C9
:1059900012951F70012B1E2D1074129516951695D9
:1059A000012B1E2D107116951695012B0BB94298DF
:1059B0000000429A06B113B12227302F327036957B
:1059C000230F312F387036953695230F312F3170D4
:1059D000330F330F230F0870200F922F891769F0B0
:1059E0007894409A449A62E0A11065E08B2D0E9461
:1059F00076158AE035CF85E0ABCF4298892D0E949D
:105A000089118FEFE81AF80AE11481E0F80609F02D
:105A100095CF409A449A2196C11581E0D80709F0A4
:105A200086CF7894DF91CF911F910F91FF90EF90E7
:105A3000DF90CF90BF90AF909F9008954F925F926C
:105A40006F927F928F929F92AF92BF92CF92DF928E
:105A5000EF92FF920F931F93CF93DF93782E662ED2
:105A600080910601909107012FE0289FF001299F66
:105A7000F00D1124EE5CFD4FC380D480D694C79402
:105A8000E580F680F694E794439A399AF894D0E04A
:105A9000C0E0460181E0881A9108CC15DD0509F4C3
:105AA00031C05401AC1ABD0A711001C05E0110E092
:105AB00000E0572C5A240E151F0511F1C5010E9454
:105AC00017142998C8010E941714852D802780FF7C
:105AD00015C0419A2B9843980000439A43980000C0
