:020000040000FA
:100000000C9460180C9488180C9488180C94881818
:100010000C9488180C9488180C9488180C948818E0
:100020000C9488180C9488180C9488180C948818D0
:100030000C9488180C9488180C9488180C948818C0
:100040000C9404220C9488180C9488180C9488182A
:100050000C9488180C9488180C9488180C948818A0
:100060000C944E220C948818000000001000000030
:100070000200100200000100100100000300100344
:100080000400000410000400020410020400010433
:1000900010010400030410031000001010001000F1
:1000A00002101002100001101001100003101003C4
:1000B00014000014100014000214100214000114A3
:1000C00010011400031410030000800010800000D1
:1000D00082001082000081001081000083001083E4
:1000E0000400800410800400820410820400810453
:1000F0001081040083041083100080101080100011
:100100008210108210008110108110008310108363
:1001100014008014108014008214108214008114C2
:1001200010811400831410830100000110000100ED
:10013000020110020100010110010100030110037E
:10014000050000051000050002051002050001056C
:10015000100105000305100311000011100011002B
:1001600002111002110001111001110003111003FE
:1001700015000015100015000215100215000115DC
:10018000100115000315100301008001108001000B
:10019000820110820100810110810100830110831E
:1001A000050080051080050082051082050081058C
:1001B000108105008305108311008011108011004B
:1001C000821110821100811110811100831110839E
:1001D00015008015108015008215108215008115FC
:1001E00010811500831510830000400010400000AE
:1001F0004200104200004100104100004300104343
:100200000400400410400400420410420400410471
:10021000104104004304104310004010104010002F
:1002200042101042100041101041100043101043C2
:1002300014004014104014004214104214004114E1
:1002400010411400431410430000C00010C000000F
:10025000C20010C20000C10010C10000C30010C3E2
:100260000400C00410C00400C20410C20400C10491
:1002700010C10400C30410C31000C01010C010004F
:10028000C21010C21000C11010C11000C31010C362
:100290001400C01410C01400C21410C21400C11401
:1002A00010C11400C31410C301004001104001002C
:1002B000420110420100410110410100430110437D
:1002C00005004005104005004205104205004105AB
:1002D000104105004305104311004011104011006A
:1002E00042111042110041111041110043111043FD
:1002F000150040151040150042151042150041151B
:1003000010411500431510430100C00110C0010049
:10031000C20110C20100C10110C10100C30110C31C
:100320000500C00510C00500C20510C20500C105CA
:1003300010C10500C30510C31100C01110C0110089
:10034000C21110C21100C11110C11100C31110C39C
:100350001500C01510C01500C21510C21500C1153A
:1003600010C11500C31510C30001000011000001E9
:10037000020011020001010011010001030011033C
:10038000040100041100040102041102040101042B
:1003900011010401030411031001001011001001E8
:1003A00002101102100101101101100103101103BC
:1003B000140100141100140102141102140101149B
:1003C00011011401031411030001800011800001C8
:1003D00082001182000181001181000183001183DC
:1003E000040180041180040182041182040181044B
:1003F0001181040183041183100180101180100108
:10040000821011821001811011811001831011835B
:1004100014018014118014018214118214018114BA
:1004200011811401831411830101000111000101E4
:100430000201110201010101110101010301110376
:100440000501000511000501020511020501010564
:100450001101050103051103110100111100110122
:1004600002111102110101111101110103111103F6
:1004700015010015110015010215110215010115D4
:100480001101150103151103010180011180010102
:100490008201118201018101118101018301118316
:1004A0000501800511800501820511820501810584
:1004B0001181050183051183110180111180110142
:1004C0008211118211018111118111018311118396
:1004D00015018015118015018215118215018115F4
:1004E00011811501831511830001400011400001A5
:1004F000420011420001410011410001430011433B
:100500000401400411400401420411420401410469
:100510001141040143041143100140101140100126
:1005200042101142100141101141100143101143BA
:1005300014014014114014014214114214014114D9
:1005400011411401431411430001C00011C0000106
:10055000C20011C20001C10011C10001C30011C3DA
:100560000401C00411C00401C20411C20401C10489
:1005700011C10401C30411C31001C01011C0100146
:10058000C21011C21001C11011C11001C31011C35A
:100590001401C01411C01401C21411C21401C114F9
:1005A00011C11401C31411C3010140011140010123
:1005B0004201114201014101114101014301114375
:1005C00005014005114005014205114205014105A3
:1005D0001141050143051143110140111140110161
:1005E00042111142110141111141110143111143F5
:1005F0001501401511401501421511421501411513
:1006000011411501431511430101C00111C0010140
:10061000C20111C20101C10111C10101C30111C314
:100620000501C00511C00501C20511C20501C105C2
:1006300011C10501C30511C31101C01111C0110180
:10064000C21111C21101C11111C11101C31111C394
:100650001501C01511C01501C21511C21501C11532
:1006600011C11501C31511C30000000000010001F4
:10067000000200020003000300040004000500055E
:1006800000060006000700070020002000210021CE
:10069000002200220023002300240024002500253E
:1006A00000260026002700270040004000410041AE
:1006B000004200420043004300440044004500451E
:1006C000004600460047004700600060006100618E
:1006D00000620062006300630064006400650065FE
:1006E000006600660067006700800080008100816E
:1006F00000820082008300830084008400850085DE
:10070000008600860087008700A000A000A100A14D
:1007100000A200A200A300A300A400A400A500A5BD
:1007200000A600A600A700A700C000C000C100C12D
:1007300000C200C200C300C300C400C400C500C59D
:1007400000C600C600C700C700E000E000E100E10D
:1007500000E200E200E300E300E400E400E500E57D
:1007600000E600E600E700E71000100010011001AD
:1007700010021002100310031004100410051005DD
:10078000100610061007100710201020102110214D
:1007900010221022102310231024102410251025BD
:1007A000102610261027102710401040104110412D
:1007B000104210421043104310441044104510459D
:1007C000104610461047104710601060106110610D
:1007D000106210621063106310641064106510657D
:1007E00010661066106710671080108010811081ED
:1007F000108210821083108310841084108510855D
:10080000108610861087108710A010A010A110A1CC
:1008100010A210A210A310A310A410A410A510A53C
:1008200010A610A610A710A710C010C010C110C1AC
:1008300010C210C210C310C310C410C410C510C51C
:1008400010C610C610C710C710E010E010E110E18C
:1008500010E210E210E310E310E410E410E510E5FC
:1008600010E610E610E710E704000400040104019C
:10087000040204020403040304040404040504053C
:1008800004060406040704070420042004210421AC
:10089000042204220423042304240424042504251C
:1008A000042604260427042704400440044104418C
:1008B00004420442044304430444044404450445FC
:1008C000044604460447044704600460046104616C
:1008D00004620462046304630464046404650465DC
:1008E000046604660467046704800480048104814C
:1008F00004820482048304830484048404850485BC
:10090000048604860487048704A004A004A104A12B
:1009100004A204A204A304A304A404A404A504A59B
:1009200004A604A604A704A704C004C004C104C10B
:1009300004C204C204C304C304C404C404C504C57B
:1009400004C604C604C704C704E004E004E104E1EB
:1009500004E204E204E304E304E404E404E504E55B
:1009600004E604E604E704E714001400140114018B
:1009700014021402140314031404140414051405BB
:10098000140614061407140714201420142114212B
:10099000142214221423142314241424142514259B
:1009A000142614261427142714401440144114410B
:1009B000144214421443144314441444144514457B
:1009C00014461446144714471460146014611461EB
:1009D000146214621463146314641464146514655B
:1009E00014661466146714671480148014811481CB
:1009F000148214821483148314841484148514853B
:100A0000148614861487148714A014A014A114A1AA
:100A100014A214A214A314A314A414A414A514A51A
:100A200014A614A614A714A714C014C014C114C18A
:100A300014C214C214C314C314C414C414C514C5FA
:100A400014C614C614C714C714E014E014E114E16A
:100A500014E214E214E314E314E414E414E514E5DA
:100A600014E614E614E714E7010001000101010196
:100A70000102010201030103010401040105010552
:100A800001060106010701070120012001210121C2
:100A90000122012201230123012401240125012532
:100AA00001260126012701270140014001410141A2
:100AB0000142014201430143014401440145014512
:100AC0000146014601470147016001600161016182
:100AD00001620162016301630164016401650165F2
:100AE0000166016601670167018001800181018162
:100AF00001820182018301830184018401850185D2
:100B0000018601860187018701A001A001A101A141
:100B100001A201A201A301A301A401A401A501A5B1
:100B200001A601A601A701A701C001C001C101C121
:100B300001C201C201C301C301C401C401C501C591
:100B400001C601C601C701C701E001E001E101E101
:100B500001E201E201E301E301E401E401E501E571
:100B600001E601E601E701E71100110011011101A1
:100B700011021102110311031104110411051105D1
:100B80001106110611071107112011201121112141
:100B900011221122112311231124112411251125B1
:100BA0001126112611271127114011401141114121
:100BB0001142114211431143114411441145114591
:100BC0001146114611471147116011601161116101
:100BD0001162116211631163116411641165116571
:100BE00011661166116711671180118011811181E1
:100BF0001182118211831183118411841185118551
:100C0000118611861187118711A011A011A111A1C0
:100C100011A211A211A311A311A411A411A511A530
:100C200011A611A611A711A711C011C011C111C1A0
:100C300011C211C211C311C311C411C411C511C510
:100C400011C611C611C711C711E011E011E111E180
:100C500011E211E211E311E311E411E411E511E5F0
:100C600011E611E611E711E7050005000501050190
:100C70000502050205030503050405040505050530
:100C800005060506050705070520052005210521A0
:100C90000522052205230523052405240525052510
:100CA0000526052605270527054005400541054180
:100CB00005420542054305430544054405450545F0
:100CC0000546054605470547056005600561056160
:100CD00005620562056305630564056405650565D0
:100CE0000566056605670567058005800581058140
:100CF00005820582058305830584058405850585B0
:100D0000058605860587058705A005A005A105A11F
:100D100005A205A205A305A305A405A405A505A58F
:100D200005A605A605A705A705C005C005C105C1FF
:100D300005C205C205C305C305C405C405C505C56F
:100D400005C605C605C705C705E005E005E105E1DF
:100D500005E205E205E305E305E405E405E505E54F
:100D600005E605E605E705E715001500150115017F
:100D700015021502150315031504150415051505AF
:100D8000150615061507150715201520152115211F
:100D9000152215221523152315241524152515258F
:100DA00015261526152715271540154015411541FF
:100DB000154215421543154315441544154515456F
:100DC00015461546154715471560156015611561DF
:100DD000156215621563156315641564156515654F
:100DE00015661566156715671580158015811581BF
:100DF000158215821583158315841584158515852F
:100E0000158615861587158715A015A015A115A19E
:100E100015A215A215A315A315A415A415A515A50E
:100E200015A615A615A715A715C015C015C115C17E
:100E300015C215C215C315C315C415C415C515C5EE
:100E400015C615C615C715C715E015E015E115E15E
:100E500015E215E215E315E315E415E415E515E5CE
:100E600015E615E615E715E7000000002400270049
:100E70002A0000000000250028002B0000000000D0
:100E800023002600290004040404040404040202CC
:100E900002020202030303030303010204081020F9
:100EA0004080010204081020010204081020000004
:100EB0000008000201000003040700000000000019
:100EC0000000404404040000000000000000000096
:100ED00000000000000000000000000080C0E0F002
:100EE000E0C080000000000080C0E0F0E0C08000B2
:100EF0000000000080C0E0F0F8FCFEFFFFFFFFFFF5
:100F00007F3F1F0F060002070F1F3F7FFFFFFFFFFE
:100F1000FEFCFEFFFFFFFFFF7F3F1F0F07030100E7
:100F200000000000000000000000000000010307B6
:100F30000F1F1F0F0703010000000000000000004A
:100F4000000000000000000080C0E0F0F8FCFCFEA3
:100F5000FEFEFFFFFFFFFFFFFFFFFEFEFEFCFCF8B3
:100F6000F0E0C0800000F0FEFFFFFFFFFFFF7F3FCB
:100F70003F7FFFFFFFFF7F3F1F0F0783C1E0F0F9B7
:100F8000FFFFFFFFFEF00F7FFFFFFFFFFFFFFEFCF5
:100F9000F8F0E0C1C1E0F0F8FCFEFFFFFFFFFFFF4B
:100FA000FFFFFFFF7F0F00000103070F1F3F3F7F81
:100FB0007F7FFFFFFFFFFFFFFFFF7F7F7F3F3F1F21
:100FC0000F0703010000000080C0E0F0F8FCFCFE09
:100FD000FEFEFFFFFFFFFFFFFFFFFEFEFEFCFCF833
:100FE000F0E0C0800000F0FEFFFFFFFFFFFFF9F020
:100FF000E0C183070F1F1F0F0783C1E0F0F9FFFF58
:10100000FFFFFFFFFEF00F7FFFFFFFFFFFFF9F0FC0
:101010000783C1E0F0F8F8F0E0C183070F9FFFFFFE
:10102000FFFFFFFF7F0F00000103070F1F3F3F7F00
:101030007F7FFFFFFFFFFFFFFFFF7F7F7F3F3F1FA0
:101040000F0703010000FFFFFFFF0F0F0F0F0F0F30
:101050000F0F0F0F0F0F0F0F0F070381C0E0F0F8F6
:10106000FCFE7E3C1800FFFFFFFF000000000018A0
:101070003C7EFEFCF8F0F0F8FCFE7F3F1F0F0703FC
:1010800081C000000000FFFFFFFF00000000000023
:101090000000000103070703010000000000FEFF3D
:1010A000FFFF000000000F0F0F0F0F0F0F0F0F0FAC
:1010B0000F0F0F0F0F0F0F0F0F0F0F0F0F0F0F0F40
:1010C0000F0F000000002070F8FCFEFFFEFCF8F09F
:1010D000E0C080000000000080C0E0F0F8FCFEFFEF
:1010E000FEFCF8F060000000000103070F1F3F7FC7
:1010F000FFFFFFFFFEFCFEFFFFFFFFFF7F3F1F0F15
:10110000070301000000000080C0E0F0F8FCFEFFD3
:10111000FFFFFFFF7F3F3F7FFFFFFFFFFEFCF8F079
:10112000E0C08000000002070F1F3F7F7F3F1F0FBE
:101130000703010000000000000103070F1F3F7FAD
:101140007F3F1F0F0600207E01010000000000000D
:10115000000000005E0000000000000E000E000015
:101160000000287C287C2800000008547C542000C3
:1011700000002610086400000000285428400000E9
:10118000000000000E0000000000003C42000000D3
:10119000000000423C0000000000005438540000F1
:1011A000000010107C101000000000806020000083
:1011B000000010101010000000000060600000002F
:1011C00000002010080400000000003C423C000029
:1011D000000000447E40000000004462524C0000C9
:1011E0000000224A4A360000000018147E10000059
:1011F00000002E4A4A32000000003C4A4A300000FB
:10120000000002621A0600000000344A4A3400005E
:1012100000000C52523C00000000006C6C0000000A
:101220000000806C2C00000000000010284400002A
:101230000000282828280000000000442810000092
:1012400000000004520C000000003C425A1C000048
:1012500000007C12127C000000007E4A4A3400002C
:1012600000003C424224000000007E42423C00005C
:1012700000007E4A4A42000000007E0A0A02000086
:1012800000003C425274000000007E08087E00000E
:10129000000000427E42000000002040403E00006E
:1012A00000007E182442000000007E404040000004
:1012B00000007E0C0C7E000000007E0C307E0000E2
:1012C00000003C42423C000000007E12120C000074
:1012D00000003C6242BC000000007E12324C000064
:1012E0000000244A52240000000000027E02000098
:1012F00000003E40403E000000001E60601E0000F6
:1013000000007E30307E0000000066181866000085
:101310000000000E700E0000000062524A460000FD
:101320000000007E4242000000000408102000007F
:1013300000000042427E00000000000402040000A1
:101340000000404040400000000000020400000097
:10135000000030482878000000007E484830000037
:10136000000030484800000000003048487E00007F
:1013700000003068581000000000107C12040000CB
:10138000000050A8A898000000007E080870000027
:10139000000000487A40000000000040807A000011
:1013A00000007E1028400000000000427E40000047
:1013B0000000781018700000000078080870000025
:1013C00000003048483000000000F8484830000075
:1013D0000000304848F800000000780808100000BD
:1013E00000005058682800000000083E48400000F7
:1013F000000038404078000000000038403800000D
:10140000000078606078000000004830304800003C
:10141000000018A04038000000004868584800004C
:10142000000000083C420000000000007E000000B8
:10143000000000423C08000000000402040200001A
:101440000000207E010200000000000000000000FB
:10145000000000000000000000F8F800000000009C
:10146000001B1B00000000003C3C003C3C00000056
:101470000000000000000040F8F8F8F8400000020A
:101480001F1F1F1F0200006090F8F8106000000C82
:10149000103F3F110E0000307848F0381800001857
:1014A0001C0F121E0C00000070F888F87000000E6F
:1014B0001F110E1F13000000003C3C000000000044
:1014C0000000000000000000C0F0380C0400000024
:1014D000071F386040000000040C38F0C000000016
:1014E0004060381F07000018A0F8F8A0180000039B
:1014F000000303000300000000E0E0000000000122
:10150000010F0F01010000000000000000000000BA
:1015100000487838000000000000000000000001D2
:1015200001010101010000000000000000000000B6
:1015300000181800000000000080E07C1C00007013
:101540007C0F0300000000F0F80808F8F000000F1E
:101550001F10101F0F00002030F8F80000000010CE
:10156000101F1F1010000030380888F87000001895
:101570001C16131110000030388888F87000000C19
:101580001C10101F0F00000080C0F0F800000007C2
:1015900007041F1F040000F8F84848C88800000C22
:1015A0001C10101F0F0000E0F09888B83000000FEA
:1015B0001F10101F0F0000383888E878180000004E
:1015C000001F1F0000000070F88888F87000000EEF
:1015D0001F11111F0E0000F0F80808F8F000000CB1
:1015E0001D11190F070000000060600000000000DE
:1015F000000C0C0000000000000060600000000013
:1016000000243C1C0000000080C06030100000017D
:1016100003060C1810000080808080808000000489
:1016200004040404040000103060C08000000010B6
:10163000180C0603010000303888C878300000001C
:10164000001B1B00000000E0F0D8E838F0000007A5
:101650000F1B1714170000F0F81818F8F000001FFF
:101660001F02021F1F0000F8F88888F83000001FD2
:101670001F10101F0F0000F0F80808383000000F8E
:101680001F10101C0C0000F8F80818F0E000001FF4
:101690001F10180F070000F8F88888880800001F3E
:1016A0001F101010100000F8F88888880800001F2C
:1016B0001F000000000000F0F80808383000000F9C
:1016C0001F10111F0F0000F8F88080F8F800001FAD
:1016D0001F00001F1F00000808F8F808080000108D
:1016E000101F1F1010000000000000F8F800000C90
:1016F0001C10180F070000F8F8E030180800001F51
:101700001F03071C180000F8F80000000000001F6D
:101710001F101010100000F8F0C0C0F0F800001FFB
:101720001F00001F1F0000F8F8E000F8F800001F7D
:101730001F00071F1F0000F0F80808F8F000000F56
:101740001F10101F0F0000F8F80808F8F000001F25
:101750001F010101000000F0F80808F8F000000F78
:101760001F12143F6F0000F8F88888F87000001FFF
:101770001F00011F1E00003078C888383000000CA0
:101780001C11131E0C00000808F8F80808000000DF
:10179000001F1F00000000F8F80000F8F800000F1C
:1017A0001F10101F0F0000F8F80000F8F8000003E9
:1017B0000F1C1C0F030000F8F80000F8F800000FE1
:1017C0001F0F0F1F0F00001878E0E07818000018B6
:1017D0001E07071E18000038F8C0C0F838000000C7
:1017E000001F1F00000000080888E8781800001893
:1017F0001E17111010000000FCFC0404040000007F
:101800007F7F40404000001C7CE080000000000022
:1018100000030F7C70000000040404FCFC000000C6
:101820004040407F7F0000080C06060C08000000C6
:101830000000000000000000000000000000006048
:101840006060606060000000040C18100000000080
:101850000000000000000080C04040C08000000C7C
:101860001E12111F1F0000F8F84040C08000001F2A
:101870001F10101F0F000080C04040C08000000FEC
:101880001F10101808000080C04040F8F800000F3A
:101890001F10101F1F000080C04040C08000000FBC
:1018A0001F12121B0B00008080F0F89890000000BF
:1018B000001F1F0000000080C040C080C000003337
:1018C0007F545773200000F8F84040C08000001F8C
:1018D0001F00001F1F00000000D8D80000000000FB
:1018E000001F1F0000000000000000D8D80000000A
:1018F0002060407F3F0000F8F80080C00000001F1B
:101900001F03070C1800000000F8F800000000009A
:10191000001F1F00000000C0C080C0C08000001F6A
:101920001F0F0F1F1F0000C0C04040C08000001FDD
:101930001F00001F1F000080C04040C08000000F3B
:101940001F10101F0F0000C0C04040C08000007F6B
:101950007F10101F0F000080C04040C0C000000F6B
:101960001F10107F7F0000C0C04040C08000001FDB
:101970001F00000101000080C04040C0800000083E
:101980001913161C0800004040F8F8404000000001
:10199000000F1F10100000C0C00000C0C000000FEA
:1019A0001F10101F1F0000C0C00000C0C0000001B9
:1019B000071E1E07010000C0C00000C0C000000FCD
:1019C0001F0F0F1F0F0000C0C00000C0C000001894
:1019D0001D07071D180000C0C00000C0C000002087
:1019E000634F7C3F03000040404040C0C0000018EF
:1019F0001C1613111000000000F8FC040400000085
:101A0000013F7E404000000000FCFC0000000000A0
:101A1000007F7F00000000000404FCF800000000CC
:101A200040407E3F010000380C1818301C000000B8
:101A300000000000000040500404F0F0F0F0F0F06E
:101A4000F0F0F0F0F0F0F0F0F0F0F0F0F0F0F0F096
:101A5000F0F0F0F0F0F000000000FFFFFFFF0000EA
:101A60000000000000000000000000000000000076
:101A70000000FFFFFFFFF0F0F0F0FFFFFFFF0000AE
:101A80000000000000000000000000000000000056
:101A90000000FFFFFFFF0F0F0F0F0F0F0F0F0F0FB4
:101AA0000F0F0F0F0F0F0F0F0F0F0F0F0F0F0F0F46
:101AB0000F0F0F0F0F0F00000000000000000000CC
:101AC0000000E0F8FCFEFEFFFFFFFFFFFFFEFEFC54
:101AD000F8E000000000000000000000000000002E
:101AE000C0F8FFFFFFFFFFFFFFFFFFFFFFFFFFFF4C
:101AF000FFFFF8C0000000000000C0F0F8FCFEFF8F
:101B0000FFFFFFFFFFFFFFFFFFFFFFFFFFFFFFFFE5
:101B1000FFFFFFFFFFFEFCF8F0C000000000000028
:101B20000000000000003070F0F0F0F070300000B5
:101B30000000000000000000000000000040E0F095
:101B4000F8F0F0E0E0E0F0FEFFFFFFFFFEF0E0E085
:101B5000E0F0F0F8F0E040000000C0E0E0E0F1FF6D
:101B6000FFFFFFFF3F0F07070303030307070F3FB5
:101B7000FFFFFFFFFFF1E0E0E0C00307070F8FFF6B
:101B8000FFFFFFFFFCF0E0E0C0C0C0C0E0E0F0FC01
:101B9000FFFFFFFFFF8F0F07070300000002070F83
:101BA0001F0F0F0707070F7FFFFFFFFF7F0F0707BD
:101BB000070F0F1F0F0702000000000000000000C9
:101BC0000000000080E0F8FEFFFF7F1F070100001B
:101BD0000000000000000000000000000000000005
:101BE0000000080E0F0F0F0F0FCFFFFFFFFF7F1F2B
:101BF00007010000000000000000000000000000DD
:101C0000000030F0F0F0F0F0FEFFFFFFF7F1703071
:101C100010000000000000000000000000000000B4
:101C2000000000010F7F7F3F1F0F0703010000002E
:101C300000000000000000000000000000000000A4
:101C400080C0C0E0F0F8F8FCFEFFFFFEFCF8F8F002
:101C5000E0C0C08000000000000000080C0EFEFF85
:101C6000FFFFFFFFFFFFFFFFFFFFFFFFFFFFFFFF84
:101C7000FFFFFFFFFFFE0E0C080000000000FFFF4B
:101C8000FFFFFFFFFFFF0F0F0F0F0F0F0F0FFFFFE4
:101C9000FFFFFFFFFFFF00000000000000000F0F2C
:101CA0000F0F0F0F0F0F00000000000000000F0FBC
:101CB0000F0F0F0F0F0F00000000000000000000CA
:101CC00000000000000000000000000000000018FC
:101CD0003C7EFEFCF8F0E0C0800000000000000048
:101CE00000000080C0E0F0F8FCFEFEFCF8F0E0C070
:101CF000800000010307070301000080C0E0F0F846
:101D0000FCFEFFFFFFFFFFFFFFFF7F3F1F0F0703EB
:101D100001000000000000000000FFFFFFFFFFFFC8
:101D2000FFFF7F3F1F0F07030100000000000000BE
:101D300000000000000000000000000000000000A3
:101D40000000000000E0FCFCE000000000000000DB
:101D50000000000000000000000080808080808083
:101D6000808080F8FFFF7F7FFFFFF8C000C0F8FE93
:101D7000FEF8E08080808080808007070707071FCB
:101D8000FFFFFFFF1F030000031FFFFFFFFF3F0FC9
:101D90000307070707070707070700000000000001
:101DA000000F0F01000000000000000F07000000FE
:101DB0000000000000000000000000000000000023
:101DC000000000C0F8FEFFFFFFFFFEF0C0000000B3
:101DD0000000000000000000000000000000008083
:101DE000E0FCFFFFFFFF0F0F0F0FFFFFFFFFF8E00B
:101DF000800000000000000000000000C0F0FEFFB6
:101E0000FFFFFFFFFFFFF0F0F0F0FFFFFFFFFFFF1E
:101E1000FFFCF0C0000000000000F8FFFFFFFFFF24
:101E2000FFFFFFFFFFFFF0F0F0F0FFFFFFFFFFFFFE
:101E3000FFFFFFFFFEF800000000000000000000B0
:101E400000000000000080E0F8FCFCFEFEFF0F0731
:101E5000030000000000000000000000000000007F
:101E6000000000000080DFFFFFFFFFFFFFFFF0F03A
:101E7000F0F0F0F0F0F0F0F87C1E00000080C0E020
:101E8000F0F8FCFEFFFFFFFF7F3F1F0F070F0F0F54
:101E90000F0F0F070703030100003C7EE7C3C3E7F2
:101EA0007F3F1F0F0703010000000000000000003B
:101EB00000000000000000000000F0F0F0F0F0F082
:101EC000F0F0F0F0F0F0F0F0F0F0F0F0F0F0F0F012
:101ED000F0F0F0F0F0F000000000FFFFFFFFFFFF68
:101EE000FFFFFFFFFFFFFFFFFFFFFFFFFFFFFFFF02
:101EF000FFFFFFFFFFFFF0F0F0F0FFFFFFFFFFFF2E
:101F0000FFFFFFFFFFFFFFFFFFFFFFFFFFFFFFFFE1
:101F1000FFFFFFFFFFFF0F0F0F0F0F0F0F0F0F0F31
:101F20000F0F0F0F0F0F0F0F0F0F0F0F0F0F0F0FC1
:101F30000F0F0F0F0F0F0000000000000000000047
:101F400000000000FFFFFFFE3C78F8F0E0E0C080FA
:101F5000000000000000000000000000000000067B
:101F60000F1F3E7CFFFFFFFFC0E0F0F0793F3F1FF7
:101F70000F0F0600000000000000000000000060DD
:101F8000F0F87C3EFFFFFFFF03070F0F9EFCFCF8FD
:101F9000F0F0600000000000000000000000000001
:101FA00000000000FFFFFF7F3C1E1F0F070703011B
:101FB00000000000000000000000000080C0E0F011
:101FC000F8FCFCFEFEFEFFFFFFFF0F0F0F1F1E1EA3
:101FD0003E7CFCF8F0E0C0800000F0FEFFFFFFFF59
:101FE000FFFFFFFFFFFFFFFFFFFF000000000000FB
:101FF00000000001031FFFFFFEF00F7FFFFFFFFF48
:10200000FFFFFFFFFFFFFFFFFFFF000000000000DA
:1020100000000080C0F8FFFF7F0F00000103070FE2
:102020001F3F3F7F7F7FFFFFFFFFF0F0F0F87878E2
:102030007C3E3F1F0F0703010000FFFFFFFFFFFF74
:10204000FFFFFFFFFFFFFFFFFFFFFFFFFFFFFFFFA0
:10205000FFFFFFFFFFFF000000007FFFFFFFFFFF0C
:10206000FFFFFFFFFFFFFFFFFFFFFFFFFFFFFFFF80
:10207000FFFFFFFFFF7F00000000F0F0F0F0F0F046
:10208000F0F0F0F0F0F0F0F0F0F0F0F0F0F0F0F050
:10209000F0F0F0F0F0F000000000FFFFFFFFFFFFA6
:1020A000FFFFFFFFFFFFFFFFFFFFFFFFFFFFF9F055
:1020B000F0F9FFFFFFFF000000000000000080C0FB
:1020C000C0E0E0F0F078783C3C1E1E0F0F8680C028
:1020D000C08000000000000000000000000083C37A
:1020E000C3E1E1F0F078783C3C1E1E0F0F8787C3F8
:1020F000C381000000000000000000000000030396
:10210000030161F0F0F8F8FCFCFEFEFFFFFF07039F
:1021100003010000000000000000000000000000BB
:1021200000000000F0F0F0F0F0F0F06000000000BF
:10213000000000000000000000000000000000801F
:10214000C08000000000FFFFFFFF0000000080C013
:1021500080000000000000000000C0F0FCFE7F1FB7
:10216000070303000000FFFFFFFF00000003030759
:102170001F7FFEFCF0C0000000003FFFFFFFE0807B
:10218000000000000000000000000000000000004F
:1021900080E0FFFFFF3F00000000000003070F1F6B
:1021A0003E3C7C78F8F0F0F0F0F0F0F8787C3C3EC3
:1021B0001F0F0703000000000000000080C0E0F0D7
:1021C000F87C7C3E1E1E0F0F0F0F0F0F0F1F1E1EE1
:1021D0003E7CF8F8F0F0F8FCFEFEF0FEFFFF0F0387
:1021E0000100000000000000000000000000080CDA
:1021F0000E0F0F0F0F0F0F0F0F0F0F7FFFFFF0C00E
:10220000800000000000000000000000000000004E
:102210000000000000000000000000000103070FA4
:102220001F3E3E7C7878F8F0F0F0F0F0F0F8787827
:102230007C3E3E1C0800000000001078787C3C3C8E
:102240001E1E1E1E0F0F0F0F0F0F0F0F0F0F1E1E44
:102250001E1E3C3C7C78781000000000000000004E
:1022600000C0E0E0E0F0F0F0F0F0F0F0F0E0E0E0EE
:10227000C00000000000000000000000000000009E
:102280000000030101010000000000000101010342
:10229000000000000000000000000000000000003E
:1022A00000000000003C7EFFFFFFFF7E3C000000BE
:1022B0000000000000000000000020FF01020000FC
:1022C000000000000000000000000000000000000E
:1022D00000F8F80000000000001B1B0000000000D8
:1022E0003C3C003C3C0000000000000000000040BE
:1022F000F8F8F8F8400000021F1F1F1F02000060DE
:1023000090F8F8106000000C103F3F110E000030F4
:102310007848F038180000181C0F121E0C0000003E
:1023200070F888F87000000E1F110E1F13000000D7
:10233000003C3C0000000000000000000000000025
:10234000C0F0380C04000000071F38604000000097
:10235000040C38F0C00000004060381F070000186F
:10236000A0F8F8A018000003000303000300000019
:1023700000E0E00000000001010F0F01010000007B
:102380000000000000000000004878380000000055
:102390000000000000000001010101010100000037
:1023A00000000000000000000018180000000000FD
:1023B0000080E07C1C0000707C0F0300000000F037
:1023C000F80808F8F000000F1F10101F0F00002081
:1023D00030F8F80000000010101F1F10100000302F
:1023E000380888F8700000181C161311100000300F
:1023F000388888F87000000C1C10101F0F000000B7
:1024000080C0F0F80000000707041F1F040000F858
:10241000F84848C88800000C1C10101F0F0000E08E
:10242000F09888B83000000F1F10101F0F00003800
:102430003888E87818000000001F1F0000000070B6
:10244000F88888F87000000E1F11111F0E0000F0B0
:10245000F80808F8F000000C1D11190F0700000023
:102460000060600000000000000C0C000000000094
:10247000000060600000000000243C1C0000000020
:1024800080C060301000000103060C1810000080AE
:102490008080808080000004040404040400001094
:1024A0003060C08000000010180C060301000030EE
:1024B0003888C87830000000001B1B00000000E0D6
:1024C000F0D8E838F00000070F1B1714170000F0D1
:1024D000F81818F8F000001F1F02021F1F0000F874
:1024E000F88888F83000001F1F10101F0F0000F040
:1024F000F80808383000000F1F10101C0C0000F8FE
:10250000F80818F0E000001F1F10180F070000F86F
:10251000F88888880800001F1F101010100000F8AD
:10252000F88888880800001F1F000000000000F0E5
:10253000F80808383000000F1F10111F0F0000F8B6
:10254000F88080F8F800001F1F00001F1F0000081F
:1025500008F8F80808000010101F1F1010000000F5
:10256000000000F8F800000C1C10180F070000F81D
:10257000F8E030180800001F1F03071C180000F8BF
:10258000F80000000000001F1F101010100000F8DD
:10259000F0C0C0F0F800001F1F00001F1F0000F86F
:1025A000F8E000F8F800001F1F00071F1F0000F0F0
:1025B000F80808F8F000000F1F10101F0F0000F8B7
:1025C000F80808F8F000001F1F010101000000F0EA
:1025D000F80808F8F000000F1F12143F6F0000F811
:1025E000F88888F87000001F1F00011F1E000030CF
:1025F00078C888383000000C1C11131E0C0000082D
:1026000008F8F80808000000001F1F00000000F88C
:10261000F80000F8F800000F1F10101F0F0000F85E
:10262000F80000F8F80000030F1C1C0F030000F86E
:10263000F80000F8F800000F1F0F0F1F0F00001820
:1026400078E0E078180000181E07071E1800003810
:10265000F8C0C0F838000000001F1F00000000088C
:102660000888E878180000181E17111010000000E4
:10267000FCFC0404040000007F7F40404000001C7C
:102680007CE080000000000000030F7C7000000070
:10269000040404FCFC0000004040407F7F00000870
:1026A0000C06060C080000000000000000000000FE
:1026B00000000000000000606060606060000000DA
:1026C000040C181000000000000000000000008052
:1026D000C04040C08000000C1E12111F1F0000F8F7
:1026E000F84040C08000001F1F10101F0F00008026
:1026F000C04040C08000000F1F101018080000806C
:10270000C04040F8F800000F1F10101F1F0000808D
:10271000C04040C08000000F1F12121B0B00008041
:1027200080F0F89890000000001F1F00000000805B
:10273000C040C080C00000337F545773200000F8B1
:10274000F84040C08000001F1F00001F1F00000055
:1027500000D8D80000000000001F1F00000000008B
:10276000000000D8D80000002060407F3F0000F843
:10277000F80080C00000001F1F03070C18000000B5
:1027800000F8F80000000000001F1F00000000C05B
:10279000C080C0C08000001F1F0F0F1F1F0000C09F
:1027A000C04040C08000001F1F00001F1F000080AD
:1027B000C04040C08000000F1F10101F0F0000C05D
:1027C000C04040C08000007F7F10101F0F000080BD
:1027D000C04040C0C000000F1F10107F7F0000C02D
:1027E000C04040C08000001F1F00000101000080A9
:1027F000C04040C0800000081913161C08000040AB
:1028000040F8F84040000000000F1F10100000C00A
:10281000C00000C0C000000F1F10101F1F0000C02C
:10282000C00000C0C0000001071E1E07010000C05C
:10283000C00000C0C000000F1F0F0F1F0F0000C01E
:10284000C00000C0C00000181D07071D180000C010
:10285000C00000C0C0000020634F7C3F0300004068
:10286000404040C0C00000181C16131110000000AA
:1028700000F8FC0404000000013F7E40400000001E
:1028800000FCFC0000000000007F7F000000000052
:102890000404FCF80000000040407E3F01000038C6
:1028A0000C1818301C0000000000000000000000A0
:1028B0000000000000000000000000000000000018
:1028C0000000000000000000000000000000000008
:1028D00000000000000000000000000000000000F8
:1028E00000000000000000000000000000000000E8
:102AD00000D8D80000000000001F1F000000008088
:102AE00040E0E040C000000F103F3F101800000021
:102AF000E0F01030200000091F1F0918100000200E
:102B0000E0C040E020000004070203070400005872
:102B100070E0E07058000002021F1F020200000077
:102B20000078780000000000001E1E0000000088F1
:102B3000DC7464CC880000081913171D080000001D
:102B40000C0C000C0C00000000000000000000F85D
:102B5000FCF414FCF800000F1F17141F0F000000F6
:102B600068FC94FCF800000002020202020000006F
:102B70000080C0C0C0000002070F1F1D1800000029
:102B800000000000000000030303031F1F000000FB
:102B9000000000000000000001010101000000F839
:102BA000FCF494FCF800000F1F17101F0F0000002A
:102BB0000404040404000000000000000000000001
:102BC000183C243C18000000000000000000000039
:102BD0000080800000000012121F1F12120000006F
:102BE00088CC643C180000000101010101000000D4
:102BF00088AC24FCD80000000001010100000000A6
:102C000010180C040000000000000000000000800C
:102C1000800000808000007F7F10181F1F0000F0E0
:102C2000F8F808F8F8000000017F407F7F000000FE
:102C300000C0C00000000000000000000000000014
:102C400000000000000000000040703000000000A4
:102C500010F8F80000000000000101000000000072
:102C60003078487830000000010101010100004087
:102C7000C0C0800000000010181D0F0702000010E7
:102C8000F8F8C0F0180000180E030D1E1F00001009
:102C9000F8F8C0F0180000180E031B1D160000A85D
:102CA000F8F0C0701800000C06030D1F1F00000094
:102CB000B0B00000000000307F4F4070300000E0F6
:102CC000F23634F0E000001F1F02021F1F0000E078
:102CD000F03436F2E000001F1F02021F1F0000E068
:102CE000F43636F4E000001F1F02021F1F0000E44C
:102CF000F23634F2E000001F1F02021F1F0000E640
:102D0000F63030F6E600001F1F02021F1F0000C051
:102D1000E46A6AE4C000001F1F02021F1F0000F0E7
:102D2000F808F8F88808001F1F011F1F101000F096
:102D3000F80808383000000F5F70301C0C0000F0FD
:102D4000F21614101000001F1F111111100000F0D6
:102D5000F01416121000001F1F111111100000F0C6
:102D6000F41616141000001F1F111111100000F6A8
:102D7000F61010161600001F1F1111111000001080
:102D800012F6F41010000010101F1F101000001099
:102D900010F4F61210000010101F1F101000001089
:102DA00014F6F61410000010101F1F10100000166B
:102DB00016F0F01616000010101F1F1010000080F3
:102DC000F8F88898F0E000001F1F10180F0700F4B3
:102DD000F2E604F2F000001F1F00071F1F0000E0D2
:102DE000F21614F0E000000F1F10101F0F0000E09B
:102DF000F01416F2E000000F1F10101F0F0000E08B
:102E0000F41616F4E000000F1F10101F0F0000E46E
:102E1000F21614F2E000000F1F10101F0F0000E662
:102E2000F61010F6E600000F1F10101F0F000040F4
:102E3000C0800080C04000180C0703070C1800F089
:102E4000F808F8F8F600006F1F1F101F0F0000F0C1
:102E5000F20604F0F000000F1F10101F0F0000F02A
:102E6000F00406F2F000000F1F10101F0F0000F01A
:102E7000F40606F4F000000F1F10101F0F0000F6FC
:102E8000F60000F6F600000F1F10101F0F00007074
:102E9000F08486F270000000031F1F03000000F89A
:102EA000F82020E0C000001F1F04040703000000FA
:102EB000F0F888F8700000101F1F101F0F0000802E
:102EC000C85850C08000000C1E13111F1F00008046
:102ED000C05058C88000000C1E13111F1F00008036
:102EE000D05858D08000000C1E13111F1F000090F6
:102EF000C85850C88000000C1E13111F1F000098F6
:102F0000D84040D89800000C1E13111F1F000080ED
:102F1000C85454C88000000C1E13111F1F000080ED
:102F2000C040C0C04080000C1E111F1F1A0B008043
:102F3000C04040C08000000F5F7030180800008063
:102F4000C85850C08000000F1F12121B0B000080D9
:102F5000C05058C88000000F1F12121B0B000080C9
:102F6000D05858D08000000F1F12121B0B00009881
:102F7000D84040D89800000F1F12121B0B00000011
:102F80000008D8D00000000000001F1F0000000053
:102F900000D0D80800000000001F1F000000000043
:102FA00010D8D81000000000001F1F0000000018FB
:102FB00018C0C01818000000001F1F0000000034D7
:102FC0009C98BCE4C000000F1F10101F0F0000D021
:102FD000C85850C88000001F1F00001F1F0000803D
:102FE000C85850C08000000F1F10101F0F00008035
:102FF000C05058C88000000F1F10101F0F00008025
:10300000D05858D08000000F1F10101F0F000090E4
:10301000C85850C88000000F1F10101F0F000098E4
:10302000D84040D89800000F1F10101F0F0000005C
:103030000060600000000003031B1B03030000800E
:10304000C040C0E09000006F1F16111F0F0000C0AD
:10305000C81810C0C000000F1F10101F1F0000C0B4
:10306000C01018C8C000000F1F10101F1F0000C0A4
:10307000D01818D0C000000F1F10101F1F0000D85C
:10308000D80000D8D800000F1F10101F1F0000C06C
:10309000C01018C8C0000021637E3E0F010000F878
:1030A000F84040C08000007F7F10101F0F0000D844
:1030B000D80000D8D8000021637E3E0F01003729D8
:1030C00011241FBECFEFD8E0DEBFCDBF26E0A2E6C1
:1030D000B5E001C01D92A034B207E1F715E0A0E011
:1030E000B1E0E4EBF2E702C005900D92A236B10721
:1030F000D9F718E1C0E6D8E104C02197FE010E948B
:103100006037CF35D107C9F70E948E290C94583902
:103110000C94000080E00895662329F06A3019F0CD
:10312000862F90E008958FEF9FEF08959B01DC01BB
:103130001896ED91FC9141E067E10994833081F0AC
:1031400028F4813099F08230A9F008958730A9F0F1
:103150008830C9F08430B1F4809180008F7D03C045
:10316000809180008F7780938000089584B58F7759
:1031700084BD089584B58F7DFBCF8091B0008F779B
:103180008093B00008958091B0008F7DF9CFCF93E8
:10319000DF93282F30E0F901E255F14F8491F901D6
:1031A000E656F14FD491F901EA57F14FC491CC237F
:1031B000A1F081110E949E18EC2FF0E0EE0FFF1F8E
:1031C000E458F14FA591B491EC91ED2381E090E0AA
:1031D00009F480E0DF91CF91089580E090E0FACF8C
:1031E0001F93CF93DF93282F30E0F901E255F14F81
:1031F0008491F901E656F14FD491F901EA57F14F64
:10320000C491CC23A9F0162F81110E949E18EC2F97
:10321000F0E0EE0FFF1FEE58F14FA591B4918FB77C
:10322000F894EC91111108C0D095DE23DC938FBF88
:10323000DF91CF911F910895DE2BF8CFCF93DF93CD
:1032400090E0FC01E656F14F24918A57914FFC0122
:1032500084918823D1F090E0880F991FFC01E859F0
:10326000F14FA591B491FC01EE58F14FC591D49165
:10327000623071F49FB7F8943C91822F809583233C
:103280008C93E8812E2B28839FBFDF91CF910895E7
:103290008FB7F894EC912E2B2C938FBFF6CF823002
:1032A000910538F0880F991F880F991F059701978E
:1032B000F1F708953FB7F8948091FE059091FF05CE
:1032C000A0910006B091010626B5A89B05C02F3F2E
:1032D00019F00196A11DB11D3FBFBA2FA92F982F3C
:1032E0008827BC01CD01620F711D811D911D42E037
:1032F000660F771F881F991F4A95D1F708958F92FF
:103300009F92AF92BF92CF92DF92EF92FF926B01AA
:103310007C010E945A194B015C01C114D104E104E3
:10332000F104B9F00E945A19681979098A099B09B0
:10333000683E73408105910580F321E0C21AD108EF
:10334000E108F10888EE880E83E0981EA11CB11CEC
:10335000E4CFFF90EF90DF90CF90BF90AF909F9021
:103360008F9008950F931F93CF93DF938C01C62FF7
:10337000642FCC32E8F4CA3208F041C0C83271F18F
:10338000C93209F442C080E0C034D0F1CF73F801F3
:10339000EC0FF11D868D8F3F91F1C031E0F00E945E
:1033A000C71821E0892B09F420E0F801218F27C0FC
:1033B000CD3289F140F384EB8C0F823020F7CF734C
:1033C000C00FD12FD11D8E8D41112EC061E00E9402
:1033D0001E1960E08E8D0E94F01811C0025E1F4F12
:1033E000D0E0F80181918F018F3F31F061E0D03161
:1033F00008F062E00E941E19DF5FD63191F781E08C
:10340000DF91CF911F910F91089570E090E080E0DF
:103410000E947F19F4CF85E090E0433010F082E005
:1034200090E00E944F19EBCF62E00E941E19E7CF97
:103430002091AE05260F3327331F21323105ECF4DE
:103440002091D205FC0190E080E0243069F082E018
:103450000895A091AE052191AC0142575A4FA40F97
:10346000B52FB11D2C930196861798F38091AE0568
:10347000680F6093AE0580E0089581E00895089597
:103480008FEF9FEF08958FEF9FEF0895809187054D
:1034900090E09195819591090895CF93DF93CB01A9
:1034A000EA01642F0E94181ACE01DF91CF9108958E
:1034B000CF93DF931F92CDB7DEB7698361E0CE0172
:1034C00001960E94181A81E090E00F90DF91CF9151
:1034D0000895DC011A96ED91FC9130E020E009940A
:1034E000CF92DF92FF920F931F93CF93DF9300D081
:1034F00000D01F92CDB7DEB78C011C8281E08B8398
:103500007A836983D801ED91FC91F1881D82F801DD
:10351000A081B181C480D5809E012F5F3F4F50961E
:103520004C916FE0C801F60109958D818F5F8D8305
:103530008F1568F30F900F900F900F900F90DF9101
:10354000CF911F910F91FF90DF90CF900895CF936F
:10355000DF93CDB7DEB728970FB6F894DEBF0FBE66
:10356000CDBFBE016F5F7F4F28E0FB0111922A950E
:10357000E9F70E94701A28960FB6F894DEBF0FBEC6
:10358000CDBFDF91CF910895DC011696ED91FC91AE
:1035900030E020E040E069E10994DC011696ED910D
:1035A000FC9130E020E040E068E109949A01DC0100
:1035B0001696ED91FC91462F67E10994EF92FF92E8
:1035C0000F931F93CF93DF931F92CDB7DEB77C018C
:1035D0008B01D8016C91673129F150F46531A0F469
:1035E0000F90DF91CF911F910F91FF90EF90089571
:1035F0006A3118F16E3FA1F7F8014181498369E210
:10360000C7010E94691A0BC0F80141814983D701A3
:103610001696ED91FC9130E020E0C70109950E5F10
:103620001F4FD7CFF80181818983AE014F5F5F4F74
:1036300061E0C7010E94D61AF2CF0F5F1F4FD7017A
:103640001696ED91FC9130E020E040E0C70109952D
:10365000C0CF462FDC011696ED91FC9130E020E0C2
:1036600066E10994462FDC011696ED91FC9130E05D
:1036700020E065E10994EF92FF920F931F93CF939F
:10368000DF93EC01042F79016D3009F446C050F44A
:103690006B30C9F1693009F49FC06A3009F465C024
:1036A00080E046C06E3009F452C06F3099F70E9436
:1036B000CD1AF7011381110F110F110F6C89160F1D
:1036C00060E4CE010E94321B612F62956F706061D1
:1036D000CE010E94321B612F6F70CE010E94291B08
:1036E000F7016481606BCE010E94291BF7014081C4
:1036F00051816281660F660F660FCE010E94D61A55
:103700000150A1F72EC065EB73E0442311F060EB8C
:1037100073E0CE010E94DE1A0AC0411110C069EAAE
:1037200073E00E94DE1AE881F98182898C8B81E046
:10373000DF91CF911F910F91FF90EF90089562EA72
:1037400073E00E94DE1AE881F9818389EFCF0E943D
:10375000CD1A61E8CE010E94321B602FCE010E947B
:10376000291BCE010E94C41AE2CFEA85FB8530E016
:1037700020E040E068E2CE010995EE81FF8130E073
:1037800020E040E064E1CE01099541E06BE4CE0128
:103790000E94691AE881F981448169E2CE010E94A0
:1037A000691A40E06BE4CE010E94691AE881F98150
:1037B000448169E2CE010E94691A41E06BE4CE01C6
:1037C0000E94691AE881F981458169E2CE010E946F
:1037D000691A6AEB73E09DCF8FEE93E0998388833B
:1037E0001C8AA5CF41E06DE40C94691ADC01ED91CF
:1037F000FC9145856DE20C94691ACF93DF93EC013F
:1038000041E06CE40E94691ACE01DF91CF910C94E3
:10381000F61BCF93DF93EC01662379F00E94F21B35
:10382000CE010E94F61BCE010E94FD1B40E06CE41D
:10383000CE01DF91CF910C94691A40E06DE40E94B3
:10384000691AEECF1F93CF93DF93EC01162F6078A8
:103850000E94091C612F6074CE010E94091C612F17
:103860006072CE010E94091C612F6071CE010E941E
:10387000091C612F6870CE010E94091C612F6470C1
:10388000CE010E94091C612F6270CE010E94091CAA
:10389000612F6170CE010E94091CCE010E94F21BB3
:1038A000CE010E94F61BCE010E94FD1BCE010E949C
:1038B000F21BCE010E94F61B40E06CE4CE01DF91CA
:1038C000CF911F910C94691ADC011896ED91FC912F
:1038D00030E020E040E069E10994DC011896ED91C8
:1038E000FC9130E020E040E068E10994CF93DF9361
:1038F0001F92CDB7DEB76983BE016F5F7F4F0E9415
:1039000096180F90DF91CF910895EF92FF921F9339
:10391000CF93DF93EC01162F7A010E946D1C60E4B7
:10392000CE010E94761CE885F9859701412F67E159
:10393000CE010995CE01DF91CF911F91FF90EF90BD
:103940000C94641CEF92FF921F93CF93DF93EC01D2
:10395000142F7901663181F138F4643109F44BC0D8
:10396000653179F080E022C06831C9F150F16931E8
:10397000C9F780918605882391F1CE010E94641CCD
:103980002EC080918605882319F0CE010E94641C08
:10399000CE010E946D1C60E0CE010E94761C612F5A
:1039A000CE010E94761C81E080938605DF91CF9145
:1039B0001F91FF90EF900895642F0E94761C81E084
:1039C000F5CF80918605882319F0CE010E94641CF2
:1039D000A701193138F4612FCE010E94851C109285
:1039E0008605EDCF68E1CE010E94851C185188E163
:1039F000E80EF11CEDCF8E898F3F11F488E78E8B96
:103A0000E885F9859701412F64E1CE01DF91CF91DF
:103A10001F91FF90EF900994CF93DF93EC01A88959
:103A2000B989FD0134913196949131968491139620
:103A3000FD01A4916317A8F1961798F1631B770B0A
:103A40008A9FE02D1124E69FC001E79F900D11246D
:103A5000280F392F311D83E0220F331F8A95E1F79C
:103A6000C9010496DA01245F3F4FE889F989E80F1C
:103A7000F91FE491ED93019682179307B1F78D89B1
:103A8000882361F0FA019A01285F3F4F8191DF019D
:103A9000119780958C932E173F07C1F7DF91CF9137
:103AA0000895FA01CA0108961192E817F907E1F79B
:103AB000E6CF4F925F926F927F928F929F92AF92DA
:103AC000BF92CF92DF92EF92FF920F931F93CF930B
:103AD000DF93CDB7DEB72D970FB6F894DEBF0FBEDC
:103AE000CDBF7C01C62ED42EB22EDC0150968D9116
:103AF0009C91FC013296149131960491512E560EF0
:103B0000040F81E0860F581608F411E0712CFE01B5
:103B100031964F0144244394672CAC2C262DA401EC
:103B20006B2DC7010E940C1DAC86DD864B869A86E4
:103B30008986D7011496ED91FC919E01275F3F4F36
:103B400041E06FE0C70109956394A394A51430F395
:103B5000D394710ED01600F32D960FB6F894DEBFF5
:103B60000FBECDBFDF91CF911F910F91FF90EF90CE
:103B7000DF90CF90BF90AF909F908F907F906F908D
:103B80005F904F900895EF92FF920F931F93CF9302
:103B9000DF93F82EE62EE0911606F0911706329686
:103BA000C49110921E068A01D0E0F80161918F0144
:103BB000E0910806F091090686E096E009958F3FAE
:103BC000980771F08E3F2FEF920779F3282F4E2D33
:103BD0006F2D86E096E00E94591DFC0EDF5FE5CF59
:103BE0008D2FDF91CF911F910F91FF90EF9008954E
:103BF0002CE838E130930906209308060C94C31D85
:103C0000EF92FF921F93CF93DF93EC01142F790172
:103C1000683151F130F46431D1F06731A9F080E0BE
:103C200006C0693109F443C06032C9F781E0DF9111
:103C3000CF911F91FF90EF900895F70161917F015F
:103C4000CE010E94221C11501111F7CFEFCF41E09D
:103C50006CE40E94691A41E06DE4CE010E94691A89
:103C6000CE010E94F61BE2CF8F89882349F0CE0156
:103C70000E94F21BCE010E94F61BCE010E94FD1B8A
:103C8000CE010E94F21B40E06DE4CE010E94691A51
:103C9000CE010E94F61B40E06CE4CE010E94691A3E
:103CA00081E08F8B6E89CE010E94221CBFCF40E045
:103CB0006DE40E94691ACE010E94F61BCE010E949B
:103CC000FD1BCE010E94F21BCE010E94F61B1F8A33
:103CD000ADCF1F93CF93DF93EC01EC89FD8949AD04
:103CE0006A3059F43396E491E40FE9AF18AE81E0FD
:103CF00090E0DF91CF911F910895262F3296149175
:103D000068AD04960E94591DE8ADE10FE8AFEFCF12
:103D1000789415B888B1807F88B98CE18BB914B8D4
:103D200087B1807C87B91AB81BB861E08DE00E942A
:103D30001E1961E08CE00E941E1960E08DE00E9477
:103D4000F01860E08CE00C94F0180E94881E61E08E
:103D50008DE00E94F0186AEF70E080E090E00E9431
:103D60007F1960E08DE00E94F0186AEF70E080E05B
:103D700090E00E947F19EBCF86E096E00E94A71AA0
:103D800082E494E1909317068093160680919A033B
:103D900090919B0329E2289FA001299F500D112497
:103DA00040505E4F65E080E00E94F81D82EC9EE08E
:103DB00090931706809316064CEC54E060E086E082
:103DC0000E94F81D0E94881EC9E260E08DE00E94FA
:103DD000F01861E08CE00E94F01862E573E080E08A
:103DE00090E00E947F1900919A0310919B03C09F5D
:103DF000F001C19FF00D1124E050FE4F808D88230B
:103E000051F061E08DE00E94F0186AEF70E080E010
:103E100090E00E947F1960E08CE00E94F018C09F43
:103E2000F001C19FF00D1124E050FE4F828D61E042
:103E3000811101C060E08DE00E94F0186AEF70E02F
:103E400080E090E00E947F19C0CF0F931F93299AC2
:103E500005B10F7E18B11F7E90FD006191FD1061CC
:103E600005B918B98BB929981F910F9108952B9A0C
:103E7000FC01EE0FFF1FE859F94F24913196449150
:103E8000319755B15A7E522B55B938B13F7E80FBE0
:103E900034F938B95BB15871542B5BB92B9808953C
:103EA000CF92DF92EF92FF920F931F93CF93DF9306
:103EB0006C01EB017B01E40EF51E10E000E0CE1575
:103EC000DF0561F06991D601ED91FC910190F081DF
:103ED000E02DC6010995080F191FF1CFC801DF9128
:103EE000CF911F910F91FF90EF90DF90CF900895A9
:103EF000089590E080E00895FC0180819181009711
:103F000011F00C9402380895EF92FF920F931F93D3
:103F1000CF93DF93EC017B018A018881998100971F
:103F200029F02A813B812417350788F4B8016F5F97
:103F30007F4F0E948B38009791F0998388831B8371
:103F40000A832C813D81232B11F4FC0110821D83F7
:103F50000C83B701888199810E9451390CC08881F6
:103F60009981009711F00E940238198218821D82EF
:103F70001C821B821A82CE01DF91CF911F910F917B
:103F8000FF90EF900895EF92FF920F931F93CF93BE
:103F9000DF93CDB7DEB729970FB6F894DEBF0FBE1B
:103FA000CDBF8C01862FF8011182108213821282FC
:103FB000158214824AE09E012F5F3F4F7901B901BB
:103FC00090E00E94E936F70101900020E9F731976F
:103FD000AF014E195F09B701C8010E94841F2996DD
:103FE0000FB6F894DEBF0FBECDBFDF91CF911F910A
:103FF0000F91FF90EF9008951F93CF93DF9385ED7E
:104000008093BC0080918A0590918B05A0918C05CE
:10401000B0918D050796A11DB11D23E0B695A7951A
:10402000979587952A95D1F72091BC0024FD03C070
:104030001092D20552C040918A0550918B05609133
:104040008C0570918D05452B462B472B69F3009706
:10405000A105B10541F02AE22A95F1F700C00197C8
:10406000A109B109E1CF80918905C1E0C09388051C
:10407000882399F1D091B8001091BA008091BC00CA
:104080008A7B8093BC0060E082E10E94F01860E0CF
:1040900083E10E94F0181092D205C093D4051092CB
:1040A000D30561E082E10E94F01861E083E10E94A3
:1040B000F0188091B9008E7F8093B9008091B9008B
:1040C0008D7F8093B90088E48093B80085E4809365
:1040D000BC001093BA00D093B800DF91CF911F912C
:1040E0000895CF93DF93CDB7DEB768970FB6F894F6
:1040F000DEBF0FBECDBF182F062F789486E096E066
:104100000E94A71AC02ED12CE12EF12C023009F406
:10411000CFC0D0F5013009F45EC086E39AE19093F8
:1041200017068093160649EA54E060E086E00E9494
:10413000F81D82E494E190931706809316064BEAEB
:1041400054E065E081E00E94F81D0E94881E10E0A6
:1041500000E00C151D050CF0D7C061E08DE00E9459
:10416000F01864EF71E080E090E00E947F1960E059
:104170008DE00E94F01864EF71E080E090E00E9412
:104180007F190F5F1F4FE5CF033009F4A8C004303B
:1041900021F686E39AE1909317068093160649E08C
:1041A00055E060E086E00E94F81D82E494E190937F
:1041B0001706809316064BE055E065E080E00E940C
:1041C000F81D612FCE0101960E94C31F49815A81BB
:1041D00065E08DE029C082EC9EE090931706809305
:1041E000160649EB54E060E086E00E94F81D82E488
:1041F00094E190931706809316061031D0F44BEBA0
:1042000054E064E082E00E94F81D47EC54E066E070
:1042100084E00E94F81D612FCE0101960E94C31F09
:1042200049815A8166E08AE00E94F81DCE0101961C
:1042300036C01132B8F54EEC54E064E080E00E94E4
:10424000F81D47EC54E066E084E00E94F81D1C8AEB
:104250001B8A1E8A1D8A188E1F8A4AE08E010F5FF4
:104260001F4FB801C70124E0969587952A95E1F77D
:104270000E94DE36F80101900020E9F73197AF0186
:10428000401B510BB801CE0143960E94841F4B89FD
:104290005C8966E08AE00E94F81DCE0143960E9488
:1042A0007C1F53CF103408F050CF4DED54E049CF70
:1042B00082EC9EE0909317068093160649EB54E03B
:1042C00060E086E00E94F81D82E494E19093170676
:1042D000809316064BEE54E065E080E034CF82EC2C
:1042E0009EE0909317068093160649EB54E060E039
:1042F00086E00E94F81D82E494E190931706809373
:10430000160649EF54E0E8CF10E000E00E151F0557
:10431000BCF461E08CE00E94F01866E970E080E097
:1043200090E00E947F1960E08CE00E94F01866E93E
:1043300070E080E090E00E947F190F5F1F4FE6CF92
:1043400068EE73E080E090E00E947F1900CFEF926A
:10435000FF920F931F93CF93DF938C01FA01DB0140
:1043600070E060E0EE24E394F12CA701062E01C07A
:10437000440F0A94EAF7E801899199918E019C0112
:104380002E5F31092230310568F023B130E0C42FAF
:10439000042E000CDD0B2C233D23232B19F464E0A9
:1043A0000E9471208D919D919C012E5F31092230D8
:1043B000310550F026B130E0C42F042E000CDD0B87
:1043C0002C233D23232B59F3C191D191CE018E5F34
:1043D0009109029760F46F5F7F4F6830710529F68D
:1043E000DF91CF911F910F91FF90EF90089599B1B8
:1043F000292F30E0042E000C550B24233523232BCA
:1044000051F764E08C2FCCCF1F920F920FB60F9212
:1044100011242F933F938F939F93AF93BF938091DA
:10442000FA059091FB05A091FC05B091FD05309136
:10443000F90523E0230F2D3758F50196A11DB11D75
:104440002093F9058093FA059093FB05A093FC0552
:10445000B093FD058091FE059091FF05A0910006A7
:10446000B09101060196A11DB11D8093FE059093A8
:10447000FF05A0930006B0930106BF91AF919F91F5
:104480008F913F912F910F900FBE0F901F90189515
:1044900026E8230F0296A11DB11DD2CF1F920F92C5
:1044A0000FB60F9211242F933F934F935F936F9307
:1044B0007F938F939F93AF93BF93EF93FF938091DD
:1044C000B900887F803609F44AC0F0F5883209F4D3
:1044D000A5C018F5803109F499C0B8F4882309F40F
:1044E000F5C0883009F492C0FF91EF91BF91AF9170
:1044F0009F918F917F916F915F914F913F912F91FC
:104500000F900FBE0F901F901895883109F486C048
:10451000803251F78093D10514C0803409F49BC0D8
:1045200040F48033B9F38833F9F68093D10585ECF4
:10453000AEC0803509F483C0883509F494C088344E
:1045400099F60E94FC1FD0CF883909F48AC038F54B
:10455000883729F050F4883611F0803729F683E047
:104560008093D2051092D00555C0883809F479C0DF
:10457000803919F0803809F0B7CF8091D0058032AA
:1045800008F06FC0E091D00581E08E0F8093D005D8
:104590008091BB00F0E0E055FA4F80833BC0803B48
:1045A00039F0D0F4803A09F477C0883A09F09CCF0A
:1045B00084E08093D2051092AF051092AE05F0E032
:1045C000E0E009958091AE0581110FC081E08093F4
:1045D000AE0510928E0509C0803C09F4A8CF883C36
:1045E00009F4A5CF883B09F07FCFE091AF0581E0CA
:1045F0008E0F8093AF05F0E0E257FA4F80818093F1
:10460000BB009091AF058091AE0529C08091F70560
:104610008093BB0085EC8093BC0066CF9091F6053B
:104620008091F505981758F5E091F60581E08E0F19
:104630008093F605F0E0EB52FA4F8081E9CFE091EC
:10464000F60581E08E0F8093F6058091BB00F0E0C7
:10465000EB52FA4F80839091F6058091F5059817FB
:10466000C8F285E8D8CFE091F60581E08E0F8093FF
:10467000F6058091BB00F0E0EB52FA4F8083809109
:10468000D40581115ECF81E08093D30584EA8093C5
:10469000BC001092D20528CF85EC8093BC0010920C
:1046A000D2058091D005803230F4E091D005F0E061
:1046B000E055FA4F10826091D00570E080EB95E0F4
:1046C000F0E0E0E009951092D0050ECF1092D105F0
:1046D00038CF0F931F93449A05B10B7E182F11709A
:1046E000110F110F012B182F1270110F110F110F35
:1046F000012B05B90027182F14701295110F012BEB
:10470000182F187012951695012B182F10781695E2
:104710001695012B182F107212951F70012B182F50
:104720001074129516951695012B182F1071169569
:104730001695012B0BB944981F910F91089584B1E0
:10474000867F84B987B1857F87B985B1896085B94E
:1047500088B18A6088B9089584B1896084B987B1C5
:104760008A6087B90895299A25B1AC015695479575
:104770002A7E382F3071232B342F3470232B86FB65
:10478000332730F9232B25B938B1282F22952071F2
:104790009170292B387E232B28B9982F990F990FC8
:1047A00090784074942B282F2270922B82FB8827BC
:1047B00080F9892B8BB9299808950F931F93CF9374
:1047C000C82F162F83EE93E00197F1F761E08C2F4D
:1047D0000E941E1961E0812F0E941E1961E08C2F3A
:1047E0000E94F01861E0812F0E94F01808E010E0AC
:1047F00060E08C2F0E94F01861E08C2F0E94F0186E
:1048000001501109A9F7CF911F910F910895DF92DF
:10481000EF92FF920F931F93CF93DF93EC01D62E6D
:10482000F42E122FE02E0E949F23EF2DF0E0E95688
:10483000FB4F60814098F89483E08F1508F45BC0CB
:1048400081E001C0880F1A95EAF790E050E040E05F
:104850006F704C175D0709F4B4C005B10B7E192FBA
:104860001170110F110F012B192F1270110F110F51
:10487000110F012B05B90027192F14701295110F74
:10488000012B192F187012951695012B192F1078DE
:1048900016951695012B192F107212951F70012B6A
:1048A000192F1074129516951695012B192F10714A
:1048B00016951695012B0BB942980000429A06B145
:1048C00013B12227302F32703695230F312F3870D5
:1048D00036953695230F312F3170330F330F230F59
:1048E0000870200F722F980F671709F467C06E2D9C
:1048F0008F2D0E9471208FEFD89EB001112441E0CE
:1049000001C0440F1A95EAF750E0B0E0A0E0AC1700
:10491000BD0709F456C005B10B7E152F1170110F9C
:10492000110F012B152F1270110F110F110F012BE9
:1049300005B90027152F14701295110F012B152F93
:10494000187012951695012B152F1078169516953F
:10495000012B152F107212951F70012B152F10743B
:10496000129516951695012B152F10711695169503
:10497000012B0BB94298429A06B113B12227302F6E
:1049800032703695230F312F387036953695230FB8
:10499000312F3170330F330F230F0870200FD22EB9
:1049A000540FCD01862797278927E82FF0E0E050A4
:1049B000FF4F80818D119BCF1196A9CF4F5F5F4F25
:1049C00048CF7894409A449ADF91CF911F910F91EC
:1049D000FF90EF90DF9008953F924F925F926F9219
:1049E0007F928F929F92AF92BF92CF92DF92EF927F
:1049F000FF920F931F93CF93DF9300D000D000D08E
:104A0000CDB7DEB780919A0390919B0329E2289F4E
:104A1000D001299FB00D1124A050BE4F5396ED90A8
:104A2000FC9054975596AD90BC90C70101971D829C
:104A3000009731F0969587952D812F5F2D83F8CFC4
:104A4000850101501109612C0115110521F0169500
:104A500007956394F9CF8FE384B98AE285B98BE136
:104A600087B988E088B983EC8AB91BB8439A299A38
:104A70002B9890E080E060E021E030E075B1AC017F
:104A800056954795572F5A7E782F7071572B742F54
:104A90007470572B86FB772770F9572B55B978B16F
:104AA000582F529550719170952B787E972B98B90D
:104AB000982F990F990F90784074942B482F42703B
:104AC000942B82FB882780F9892B8BB9299888B190
:104AD00041E050E0611102C050E040E0440F551F3A
:104AE0008D7F842B88B92B9843980000439A2B9A8A
:104AF000299A6F5F5D81561740F430E020E070E046
:104B000060E080E0A1E0B0E01AC090E080E06623C1
:104B100009F4B4CF462F4150550BCA01A90102C078
:104B2000440F551F8A95E2F7CA01A8CF9D01062EB2
:104B300002C0220F331F0A94E2F76F5F7F4F95B1D7
:104B4000A901569547959A7E522F5071952B542F57
:104B50005470952B26FB552750F9952B95B958B1D4
:104B6000922F929590713170932B352F387E932B25
:104B700098B9922F990F990F90784074492B922FE2
:104B80009270492B22FB222720F9242B2BB929983C
:104B900043980000000096B192FBEE27E0F9F0E0A8
:104BA00021E030E0811102C030E020E0E217F3079D
:104BB00019F061E00E947120439A299A8F5F9D81CC
:104BC000981708F0B3CF45B1C70196958795582F30
:104BD000507197013695279536952795922F9470A9
:104BE000D52ED92AB701660F672F661F770B7195EF
:104BF000562F5170C52E942F9A7E952B9D2995B9CD
:104C000098B1682F629560716E83F1FA772470F81D
:104C1000987E9729962B98B9E3FA772770F9207434
:104C2000372F322B982F9270392B880F880F80786E
:104C3000382B3D833BB929982B9890E080E0512C8C
:104C400088248394912C54E0559EB0011124647003
:104C50000E942F2843980000439A5394651450F5FE
:104C60002B9A299A85B18A7E8C298D2985B988B19C
:104C7000887E87296E81862B88B97D817BB92998AA
:104C800090E080E0912C812C312C44244394512CD1
:104C900060E00E942F2843980000000096B19470B5
:104CA000832D880F880F84709817F9F061E080E1F8
:104CB000830D80CF852D90E0552049F00197A40108
:104CC00002C0440F551F8A95E2F7CA01BCCF90E09D
:104CD00080E0B9CFC201082C02C0880F991F0A9446
:104CE000E2F72FEF821A920AD3CF439A33946314D8
:104CF00088F7299A2B9830E020E0A70161E0E616BA
:104D0000F60610F040E051E02417350708F03DC0EA
:104D1000C90196958795822793278E159F0590F553
:104D2000AC015695479595B19A7E582F5071952BA9
:104D3000542F5470952B86FB552750F9952B95B918
:104D400058B1982F92959071587E952B98B9982FBD
:104D5000990F990F9078542F5074952B582F5270AB
:104D6000952B82FB552750F9952B9BB929988427C1
:104D700080FD419A80FF41982B9843980000439A08
:104D80002B9A299A2F5F3F4FB8CF90E080E04817C9
:104D9000590709F44CC09C013695279528273927D7
:104DA0002E153F0508F041C0B9017695679535B1DC
:104DB0003A7E722F7071372B762F7470372B26FB4B
:104DC000772770F9372B35B978B1322F329530719A
:104DD000787E372B38B9322F330F330F3078762F58
:104DE0007074372B722F7270372B22FB772770F974
:104DF000372B3BB9299843980000000036B132FBAD
:104E0000332730F939831A82262721702B831C829D
:104E100029813A816B817C812617370721F08F71B8
:104E200061E0805EC7CE439A299A0196B0CF85B1E2
:104E30008A7E8C298D2985B988B1887E87297E81D3
:104E4000872B88B98D818BB929982B98F12CE12C6F
:104E5000450191E0A916B90618F0812C9924939484
:104E6000E814F904D0F4C701969587958E259F25FF
:104E70008A159B0570F4BC017695679576956795C4
:104E80006827660F660F64700E942F284398000001
:104E9000439A2FEFE21AF20ADBCF2B9A299A85B1B7
:104EA0008A7EC82ADC28D5B888B1887E782A3E81D7
:104EB000372938B94D814BB929988016910679F177
:104EC000B80176956795602771277A8369836A159B
:104ED0007B0510F560E089819A810E942F28439814
:104EE0000000000086B1847090E029813A813695F7
:104EF0002795369527957981722730E020E070FF5D
:104F000002C024E030E08217930729F0802F8F71D0
:104F100061E0805C4FCE439A0F5F1F4FCECF299A3E
:104F200026960FB6F894DEBF0FBECDBFDF91CF91AE
:104F30001F910F91FF90EF90DF90CF90BF90AF90B7
:104F40009F908F907F906F905F904F903F900895CB
:104F5000CF92DF92EF92FF920F931F93CF93DF9345
:104F6000EC01F42EE22EE42FF0E0E956FB4F108125
:104F7000F89483E0841708F44CC06E018CEFC822CB
:104F8000CC16DD0608F036C060E0CE0101970E9425
:104F90002F28439A86B1812782FF05C06E2D81E0BC
:104FA0008F0D0E947120110F111D60E0CE0102973C
:104FB0000E942F28439A86B1812782FDEFCF110FDF
:104FC000111D60E0CE0103970E942F28439A86B1FD
:104FD000812782FDE3CF110F111D249760E0CE01E0
:104FE0000E942F28439A86B1812782FDD7CF110FC7
:104FF000111DC6CF209741F1219760E0CE010E949C
:105000002F28439A86B1812782FDC8CF110F111D29
:10501000F1CF8FEF869F8001879F100D112421977C
:1050200060E0CE010E942F28439A26B1CE0180274E
:1050300091278927E82FF0E0E050FF4F80818227F9
:1050400082FDACCF209759F77894299ADF91CF91C0
:105050001F910F91FF90EF90DF90CF900895FC018A
:10506000EE0FFF1FE80FF91FE859FF4F259135910B
:10507000459155B15A7E522B55B94BB958B1507E16
:10508000532B62FF01C0526058B908950F931F93CC
:10509000CF93E82FF0E0E956FB4F90819F70A091ED
:1050A0009A03B0919B0339E23A9FF0013B9FF00DC8
:1050B0001124EB5EFD4F51812A98F8943FEF369F03
:1050C000D001379FB00D112430E0351708F051C0E2
:1050D00005B10F7E18B11F7E30FD006131FD1061FA
:1050E00005B918B921112DC0C0E860E06BB9289846
:1050F000289A76B17F70971761F0FD01E627EF27B8
:10510000F0E0E050FF4FE081E71719F0642F0E94B4
:105110007120E1E0E60FEBB92898289A76B17F700C
:10512000971751F08D010E27F801EF27F0E0E050BE
:10513000FF4FE081E713EACF6E5FC150B9F63F5FE2
:10514000C4CF289860E06BB90000000076B17F7092
:10515000971749F0FD01E627EF27F0E0E050FF4FF9
:10516000E081E713D3CF71E0760F6F3F41F3672FF4
:10517000EACF7894289A2A9ACF911F910F91089597
:10518000EF92FF920F931F93CF93DF937C01C62F73
:10519000D42FE62FF0E0E956FB4F10810E94371F15
:1051A000F894C43008F031C0E8E6F6E090E080E022
:1051B000249131964491319755B15A7E522B55B96D
:1051C00038B13F7E80FB34F938B95BB15871542B4C
:1051D0005BB94298429A26B1212723FF05C06D2F63
:1051E00081E08C0F0E947120110F111D01963296E3
:1051F000811524E09207E1F678942B9ADF91CF9104
:105200001F910F91FF90EF9008958FEF8E9D800179
:105210008F9D100D1124E8E6F6E070E060E0249127
:1052200031964491319755B15A7E522B55B938B1C8
:105230003F7E60FB34F938B95BB15871542B5BB9D0
:105240004298429A26B1C801862797278927A82F16
:10525000B0E0A050BF4F8C91822783FDC0CF6F5F1D
:105260007F4F3296611584E07807C9F6C5CFCF939A
:10527000109205061092040610923A0610923B0610
:1052800081EA94E090930306809302061092070649
:105290001092060610921B0610921E06109212061D
:1052A0001092130610921406109215068FEF809339
:1052B0001C0680932006E4E2F6E08AE396E0CFEF56
:1052C000C1938E179F07E1F78BE39BE190930B0649
:1052D00080930A0682EA9CE190930D0680930C0667
:1052E00080E09EE190930F0680930E0682EB99E199
:1052F000909311068093100630E020E040E069E0D2
:1053000086E096E00E943B1B8DE0809330068CE0A7
:1053100080933106C0932F06CF910895CF93DF93EA
:1053200000D000D0CDB7DEB7789484B5826084BD5C
:1053300084B5816084BD85B5826085BD85B5816099
:1053400085BD80916E00816080936E001092810017
:1053500080918100826080938100809181008160D2
:105360008093810080918000816080938000809193
:10537000B10084608093B1008091B000816080931F
:10538000B00080917A00846080937A0080917A00E6
:10539000826080937A0080917A00816080937A00A5
:1053A00080917A00806880937A001092C100E09129
:1053B0000A06F0910B0630E020E040E06AE086E06B
:1053C00096E0099586E096E00E94A71AE0910A0609
:1053D000F0910B0630E020E040E06BE086E096E0E4
:1053E000099580E896E9A8E9B0E0809312069093C9
:1053F0001306A0931406B0931506E0910A06F091E7
:105400000B0630E020E040E06BE086E096E0099596
:105410008AEB92E2909317068093160649E155E0D5
:1054200060E083E00E94F81D20E130E03A832983A8
:1054300089819A810E9413378F3F99F449815A815B
:105440004F5F5F4F5A8349834115544089F760E0AD
:1054500080E190E00E941B3780E040E150E05A83F9
:105460004983182F117061E0680F6F3F01F5898142
:105470009A8101969A83898360E081159440B9F4FA
:10548000E0E1F0E0FA83E9836FEF89819A810E947D
:105490001B3729813A812F5F3F4F3A83298321159A
:1054A000344091F760E080E190E09A8389838981BC
:1054B0009A810E941B3711111FE0E0E0F1E0819119
:1054C000DF0111978F7081278C9392E0E030F9070C
:1054D000B1F784B1807E84B987B1807C87B91AB86E
:1054E00083E10E94C718019729F48091F8058B5F2A
:1054F0008093F80583E00E94C718019729F48091F2
:10550000F8058C5F8093F80582E00E94C718019728
:1055100029F48091F8058E5F8093F8058091F80555
:105520008250843080F186E096E00E94A71A86E3DC
:105530009AE1909317068093160644E255E060E0E6
:1055400086E00E94F81D82E494E190931706809310
:10555000160646E255E065E082E00E94F81D86E40A
:1055600091E1909317068093160644E355E067E0B7
:1055700082E00E94F81D4DE355E067E08AE00E945A
:10558000F81D0E94A51E85B18F6185B988B18F6312
:1055900088B98FEF8BB961E08DE00E94F018A0917F
:1055A000F805A98347E054E067E174E087E294E0FE
:1055B000A53079F0B98147E654E067E774E087E801
:1055C00094E0B43031F047E354E067E474E087E5F9
:1055D00094E00E94A7218BE193E00197F1F7E98124
:1055E000E53009F0FEC368E070E089E090E00E94D9
:1055F000DD238FE385B980E888B91BB88FE184B9D2
:1056000087B98FEF8AB987B18F6087B9299A88B136
:10561000807E856088B990E080E00E94251F2B98ED
:105620002898289A1A821982DD24D394EE24E394D0
:10563000F12CC12CC701098002C0880F991F0A9460
:10564000E2F70E94251F05B10F7E18B11F7EC0FC36
:105650000061C1FC106105B918B91BB887B18F6032
:1056600087B988B1807E8A6088B92B982898289A53
:105670002B9A90E080E00E94251F1BB82C9888B1DF
:10568000807E88B987B1807F87B92A982898289A20
:1056900086B18F70853041F0F981F93021F060E0FA
:1056A00081E00E947120D12C2A9A29813A812F5FB2
:1056B0003F4F3A8329832A30310509F0BBCF87E079
:1056C00090E0D11002C085E090E090939B0380931E
:1056D0009A031BB82C9888B1807E88B987B18F60F7
:1056E00087B990E080E00E94251F2B9880E098B158
:1056F000907F282F2F70922B98B98BB92898000093
:10570000289A8F5F813199F72B9A90E080E00E9470
:10571000251F87B1807F87B92A98289880E08BB9A8
:105720000000000096B198279F7009F440C0289AA5
:105730002A9A299A43E455E064E080E00E94F81D2B
:1057400080919A0390919B0339E2389FA001399F81
:10575000500D112440505E4F66E080E00E94F81D1D
:1057600042E555E062E080E00E94F81D8FE385B9D4
:105770008FE184B980919A0390919B0349E2489FFD
:10578000F001499FF00D1124E050FE4F63897489A8
:105790007A836983858996899B012150310960E06C
:1057A00021153105D9F0369527956F5FF9CF8F5FB9
:1057B000813109F0B4CF289A2A9A299A80919A03C4
:1057C00090919B03079739F488E090E090939B03B6
:1057D00080939A03AFCF86E090E0F8CF0197F12C49
:1057E000009721F096958795F394FACF87B18F6053
:1057F00087B9299A289A2A9A2B98F0E0E0E020E0CD
:1058000030E041E050E08F2F992780FD2C9A80FFF7
:105810002C9878B103E0880F991F0A95E1F7807101
:10582000707E872B88B9EBB929982C9888B1807E37
:105830003F70832B88B91BB828980000289A000075
:10584000299A2F5F621708F03AC02B9A87B1807FA0
:1058500087B988B1807E88B92A9850E040E0E1E0BD
:10586000F0E0842FB0E0A0E010E0442351F09A0172
:1058700021503109DF0102C0AA0FBB1F2A95E2F7B0
:1058800015E52B2F332720FD2C9A20FF2C9878B17B
:10589000B3E0220F331FBA95E1F720717F7E272BEB
:1058A00028B9ABB929982C9844981BB828980000BF
:1058B000000096B191279F7099F061E0F2CEF0E080
:1058C000E0E030E0222309F49ECFA22FA150BB0BD1
:1058D000FA0102C0EE0FFF1FAA95E2F735E593CF5C
:1058E000289A299A4F5F5F4F641708F0BACF2A9A17
:1058F00087B18F6087B909811A8116950795C8010C
:105900000E94251F2B98F89450E040E020E061E0D1
:1059100070E0EAE020FFE5E0852F992780FD2C9AD2
:1059200080FF2C9838B153E0880F991F5A95E1F702
:105930008071307E832B8E2B88B94BB9289800005C
:10594000289A2F5FF21680F578942B9A299A87B1BE
:10595000807F87B9C8010E94251F2A98F89470E0BB
:1059600060E050E040E080E0E1E0F0E0AAE080FFAD
:10597000A5E0272F332720FD2C9A20FF2C9898B1E3
:1059800013E0220F331F1A95E1F720719F7E292B18
:1059900028B96BB928980000000096B19F709A173B
:1059A000E1F061E0805F7DCE50E040E0222309F429
:1059B000B0CFE22FE150FF0BAB0102C0440F551FE7
:1059C000EA95E2F7A6CFBF01042E02C0660F771F4B
:1059D0000A94E2F74F5F5F4FC9CF289A8F5FF8169E
:1059E00090F778942A9A299A87B18F6087B92B9873
:1059F000F89490E080E065E049815A814130F1E01F
:105A00005F0710F040E051E084179507E0F49C0137
:105A10003695279528273927422F4F704627A98189
:105A2000BA812A173B0768F42C9838B1307E342BA2
:105A300038B92BB92998000028980000289A00004E
:105A4000299A0196D9CF789400002B9A87B1807F4C
:105A500087B92A98F89490E080E065E048175907E4
:105A600001F19C013695279528273927722F7F70E1
:105A7000E981FA812E173F0790F42C9844982BB9AE
:105A8000299828980000000026B126272F70271794
:105A900021F08F7161E0805E04CE289A299A0196E8
:105AA000DDCF78942A9A80919A0390919B0329E202
:105AB000289FF001299FF00D1124E050FE4F8388AC
:105AC0009488208C67E9A62E64E0B62E712C79E2CA
:105AD000372E1C821B82F12CE12C2B813C818216FB
:105AE000930609F475C1289A299A2A9A2B9AC90112
:105AF0000E94251F88B1807F88B987B18F6087B9E0
:105B0000D5012C912F7088B1822B88B92A9A2B98B5
:105B100080919A0390919B03389EF001399EF00D7D
:105B20001124EB5EFD4F7181F89440E0471708F0B7
:105B3000B8C005B10F7E18B11F7E40FD006141FD68
:105B4000106105B918B9B1E0B71508F44BC090E47D
:105B500080E08BB92898289A2B9A2A982898289A16
:105B600036B1322730FF03C062E0872D9ACD2A9AE2
:105B70002B9831E0380F3BB928982B9A2A98289A0D
:105B800036B1322730FDF0CF2A9A2B9832E0380F09
:105B90003BB928982B9A2A98289A36B1322730FD9B
:105BA000E3CF2A9A2B9833E0380F3BB928982B9AE9
:105BB0002A98289A36B1322730FDD6CF2A9A2B98C8
:105BC0008C5F915009F0C5CF289A299A2A9A2B9A6E
:105BD0006B817C816F5F7F4F7C836B837FEFE70EF0
:105BE000F11C7BCFE4E07E16C9F090E480E08BB935
:105BF0002898289A31E0380F3BB92898289A32E043
:105C0000380F3BB92898289A33E0380F3BB92898C9
:105C1000289A8C5F915059F74F5F88CF58B1507FC9
:105C200060E430E0C70183278927E82FF0E0E050E7
:105C3000FF4F8081852B88B93BB92898289AA1E02D
:105C4000A30FC7018A278927E82FF0E0E050FF4F14
:105C50008081852B88B9ABB92898289AA2E0A30F38
:105C6000C7018A278927E82FF0E0E050FF4F8081A5
:105C7000852B88B9ABB92898289AA3E0A30FC70150
:105C80008A278927E82FF0E0E050FF4F8081852B9D
:105C900088B9ABB92898289A3C5F615009F0C2CF07
:105CA000BBCF78942B9A88B1807F88B987B1807FE9
:105CB00087B9F4E07F1641F0222D42E06B817C81B0
