:100000000C94AE040C94D6040C94D6040C94D60430
:100010000C94D6040C94D6040C94D6040C94D604F8
:100020000C94D6040C94D6040C94D6040C94D604E8
:100030000C94D6040C94D6040C94D6040C94D604D8
:100040000C948C270C94D6040C94D6040C94D604EF
:100050000C94D6040C94D6040C94D6040C94D604B8
:100060000C94D6040C94D6043231313420314B78C0
:100070003400343136342036344B783120326D73CD
:10008000003430323720344B783100343831362068
:1000900031364B783100343131362031364B7831BE
:1000A0000034313130303020314D78310035313449
:1000B00034303220314D78342D53430035313434CF
:1000C000303020314D7834003531343235382032FB
:1000D00035364B78342D53430035313432353620A4
:1000E0003235364B783400343436342036344B785D
:1000F0003400343431362031364B783400343132E8
:100100003537203235364B78312D4E4D0034313273
:100110003536203235364B7831003431363420369E
:10012000344B783120346D7300343533322D342F15
:10013000333733322D4C00343533322D332F3337B0
:1001400033322D4800333733322D4C2F3435333290
:100150002D3300333733322D482F343533322D349D
:100160000034313634206F722033324B7831000046
:1001700080008040C040C00080008040C040C0007F
:100180000000000000000001010101010101010067
:100190000001010000010100000101000001010057
:1001A00001040510111415436865636B696E672EB1
:1001B0002E2E0044657465637465643A0052414DA7
:1001C0002D544553544552005352414D20457272AF
:1001D0006F72004342522054696D657220666175EA
:1001E0006C740053686F72742050696E2000457201
:1001F000726F722052616E646F6D4461746100456C
:1002000072726F7220436865636B6572626F6172B0
:100210006400416464722053686F7274205000411E
:100220006464726573736C696E6520410044656334
:100230006F64657220416C696173200042004465FF
:1002400066656374206F72206E6F2052414D2100ED
:100250002033324B0052756E204E722E0041004307
:1002600042523A0011121321223133323423411405
:100270004211247FF8CF1F417656105D515B175D08
:10028000944D175D6F451741355C107F55D51F00A4
:100290003A0F005255B505A95B9A1DD6033517BC18
:1002A000DAAE1BC92B8A1017014315F8D075119FC0
:1002B00096A10A55E021190F6DF413FCBF861210A8
:1002C000951709C319F31300C911157F805B1941F4
:1002D000521E035DB5FC015D5281085D503D1E411B
:1002E00005D21A7FD2360B20333200352E312E3113
:1002F000005665723A0048004F4646004F4E003A9D
:10030000200044495000546F67676C65202D3E20E3
:10031000524553455400446973702E44696D004C36
:100320006F6F700033324B20456E612E0053656C49
:10033000662054657374204661696C210042005345
:10034000657475700053686F727473205A49462F34
:100350005A49500053656C662054657374204F4BA6
:1003600000576972652050696E32302D3E616C6CA9
:10037000004E6F2053686F72747320666F756E64E1
:1003800000436865636B696E672053686F727473AE
:10039000005265736973746F7273204F4B0052651E
:1003A000736973746F72730053656C662054657360
:1003B000740010111213141516172122232419008A
:1003C000000002010403180000001011121314159C
:1003D00016000605000000000000020100030000F6
:1003E0000000121100000000171518050602100089
:1003F00000001601130314000000000000000000BC
:1004000000002D3330002D3230002D343500001027
:100410000414011105151A010D01FD00F200E70099
:10042000D900C800BC00AD00A10096008B0081007F
:1004300072006800436865636B2044495000435371
:1004400000446F75740044696E004F4500574500C5
:1004500043415300524153001000020203030204BF
:10046000040406000006FF06FF00000000008D20C7
:100470000580DE002E06D2D88C003007F3D855AEAA
:100480000A3107F3D825D91A320AB4D8A998412CD1
:100490004700330BB4D88C0C9246322900340AB48E
:1004A000D846558D984102350AB4D80C0D3692497C
:1004B00001360AB4D8A90C56944901370BB4D88C2C
:1004C0000C6206318308380AB4D8A99854944901BB
:1004D000390AB4D8A928D30649013A07EAD88C3892
:1004E000025608B4D84467920A6509A4D8A93432E0
:1004F00050007208A4D8ACA8410600000004FFFF19
:100500000000030005050606050207202000002064
:100510000020000000000000A64332D087071B2304
:1005200019CA48863292A18C64282738C2098E32B3
:1005300054A10C55AC4215AB588479823318B214CF
:10054000E520E848C622D8D0840500473E1C0805AF
:1005500033E21AD6A84745283215A9440632AF79A6
:100560008E2B48D10C62308318EB20873AC891104B
:10057000722484200821C8B18C5530828D8528636F
:10058000218B58C81218F2813F48342008054F4289
:100590001BF8948D7CC2682B608812189206463531
:1005A000A94D6C62D4A2D6C49660B485AE470761EB
:1005B0005481105620C31DC4908D4D68000000006A
:1005C00004FFFF00000200040506060101072020C9
:1005D00000002000200000000000008D4140203875
:1005E000989107CC7920A4A6D64AECB4E2A89262EE
:1005F0002A2A84AA42A632622AAD24314A22A2A61D
:1006000012AAD20B337B62A1471881C41B8EB8D2C9
:100610000E4B6BA9961E08E701431800424B203889
:10062000989107CC7920A4A6D64AECB4E2E810450C
:100630008E3908A1438E32EA10A488424229A12AA9
:10064000BD3033CD32BCB42AA194408A28448E32C6
:10065000EA9083103AE610450EE24A3B2CADA55ACB
:100660007A209C070C610000000004FFFF0000409E
:100670000003030304030504060E00FE0AFE0BFE3E
:10068000000000000000200500F207210752C3C748
:1006900013012D060ED287012E0612C307012F0E5D
:1006A0006EBAA736A14CA82694091501300B56C284
:1006B0000F45C49F241400310A56C2976C44D427B6
:1006C00003320D56C20F454412CA84328D06330FD1
:1006D00056C20F4544128AA64212494201340D56B1
:1006E000C267506D44D1C5269400350F56C2C7214C
:1006F00028AC88844212494201360E56C2D748427D
:100700002256449C241400370C56C2C7214411CAF7
:10071000847A02380F56C20F45C4242151444C122A
:100720000A00390E56C20F45C449522451442300D1
:100730003A073AC70799003D0726CA871D6A3E094E
:100740004EC28754371D013F0E56C20F45449229B1
:10075000AAC3842200410C56C20FE510E27418317E
:1007600009420D56C24745C414A988385D00430CA0
:1007700056C20F45C4A813494201440C56C207494A
:10078000A2C42F121200450B56C2C721A858116AE5
:1007900034460B56C2C721A85811EA08470D56C265
:1007A0000F45C4A85262925000480B56C28788D3A6
:1007B00061C49300490956C28749A89F0C4A0B5649
:1007C000C2A73E9228A211004B0F56C28788222151
:1007D000CD6624924489244C0856C287507F344DFC
:1007E0000C56C24770443A1C443C094E0C56C28712
:1007F000885469A17422094F0B56C20F45C49F2427
:100800001400500B56C24745C4E922D408520C5676
:10081000C24745C474D1C44900531056C20F454461
:1008200092488552898824A100540956C28749A854
:100830003F01550A56C287887F925000560C56C217
:1008400087889F24249A0800570C56C28788A7C31C
:10085000432514015A0E56C28751269409654299C0
:10086000D000610D3EC20F45249B484824490162D7
:100870000B56C28750B122E2E902630B3EC20F451C
:1008800044D424A100640A56C2A796134F9202656D
:100890000D3EC20F45443A0C45120A00660C56C282
:1008A0009F8C241499843A01670E4EBACF4A45D3DF
:1008B0002C5811492800680B56C28750B122E29388
:1008C00000690752C307E9706B0E56C28750534444
:1008D00085449228D1026C0752C3C783016D0A3E3A
:1008E000C2874472F840126E093EC24745C42701D0
:1008F0006F0A3EC20F45C4938402700B4EBA47453F
:10090000C4D3452804720A3EC24745C4A8110073E7
:100910000D3EC20F452491AA88241400740B56C2C0
:100920009750C924D4750075093EC287884F92023A
:10093000770C3EC287887478A8842200780D3EC266
:10094000878824A1C928229200790E4EBA8788246C
:10095000D1693694288D00000000EA3C11241FBEA6
:10096000CFEFD8E0DEBFCDBF12E0A0E0B1E0E8EE0F
:10097000FBE702C005900D92A03BB107D9F725E037
:10098000A0EBB2E001C01D92A739B207E1F714E075
:10099000CEEAD4E004C02197FE010E94E53DCD3AA5
:1009A000D107C9F70E94BB2F0C94F23D0C940000B4
:1009B00080938F0508958230910538F0880F991F34
:1009C000880F991F05970197F1F708959B01DC01A6
:1009D0001896ED91FC9141E067E109943FB7F894D6
:1009E0008091F1039091F203A091F303B091F4038D
:1009F00026B5A89B05C02F3F19F00196A11DB11D7A
:100A00003FBFBA2FA92F982F8827BC01CD01620FB5
:100A1000711D811D911D42E0660F771F881F991F70
:100A20004A95D1F708958F929F92AF92BF92CF923D
:100A3000DF92EF92FF926B017C010E94EE044B016A
:100A40005C01C114D104E104F104B9F00E94EE0488
:100A5000681979098A099B09683E734081059105E7
:100A600080F321E0C21AD108E108F10888EE880E6F
:100A700083E0981EA11CB11CE4CFFF90EF90DF90A3
:100A8000CF90BF90AF909F908F900895982F88300F
:100A900028F098EF8E3008F092EF980F21E030E0C8
:100AA00001C0220F9A95EAF7662371F0EBE2F0E0BD
:100AB000883030F0E8E2F0E08E3010F4E5E2F0E06B
:100AC0008081282B20830895EBE2F0E0883030F01D
:100AD000E8E2F0E08E3010F4E5E2F0E0808120956D
:100AE0002823F0CF982F883028F098EF8E3008F028
:100AF00092EF980F21E030E001C0220F9A95EAF7BB
:100B0000613071F4EAE2F0E0883030F0E7E2F0E0E2
:100B10008E3010F4E4E2F0E08081282B20830895E9
:100B2000EAE2F0E0883030F0E7E2F0E08E3010F4F6
:100B3000E4E2F0E09081422F40959423908362306C
:100B400059F4EBE2F0E0883038F3E8E2F0E08E3080
:100B500018F7E5E2F0E0E0CFEBE2F0E0883030F0CB
:100B6000E8E2F0E08E3010F4E5E2F0E080818423EA
:100B70008083089580E00895DC011A96ED91FC9140
:100B800030E020E009940F931F93CF93DF9300D0C0
:100B900000D01F92CDB7DEB76C834D832B831A83B1
:100BA0000983DC011496ED91FC919E012F5F3F4F6C
:100BB00041E06FE009950F900F900F900F900F900C
:100BC000DF91CF911F910F910895DC011696ED9161
:100BD000FC9130E020E040E069E10994DC011696E8
:100BE000ED91FC9130E020E040E068E109949A0149
:100BF000DC011696ED91FC91462F67E10994EF9286
:100C0000FF920F931F93CF93DF931F92CDB7DEB761
:100C10007C018B01D8016C91673129F150F4653169
:100C2000A0F40F90DF91CF911F910F91FF90EF9063
:100C300008956A3118F16E3FA1F7F80141814983A7
:100C400069E2C7010E94BC050BC0F80141814983DC
:100C5000D7011696ED91FC9130E020E0C70109958F
:100C60000E5F1F4FD7CFF80181818983AE014F5F9F
:100C70005F4F61E0C7010E94F705F2CF0F5F1F4F82
:100C8000D7011696ED91FC9130E020E040E0C701DD
:100C90000995C0CF462FDC011696ED91FC9130E00E
:100CA00020E066E10994462FDC011696ED91FC9157
:100CB00030E020E065E10994EF92FF920F931F93DB
:100CC000CF93DF93EC01042F79016D3009F446C016
:100CD00050F46B30C9F1693009F49FC06A3009F4EF
:100CE00065C080E046C06E3009F452C06F3099F79D
:100CF0000E94EE05F7011381110F110F110F6C897E
:100D0000160F60E4CE010E945306612F62956F704A
:100D10006061CE010E945306612F6F70CE010E9468
:100D20004A06F7016481606BCE010E944A06F70112
:100D3000408151816281660F660F660FCE010E946D
:100D4000F7050150A1F72EC065E971E0442311F0C9
:100D500060E971E0CE010E94FF050AC0411110C098
:100D600069E871E00E94FF05E881F98182898C8B36
:100D700081E0DF91CF911F910F91FF90EF90089547
:100D800062E871E00E94FF05E881F9818389EFCF75
:100D90000E94EE0561E8CE010E945306602FCE014D
:100DA0000E944A06CE010E94E505E2CFEA85FB8556
:100DB00030E020E040E068E2CE010995EE81FF815D
:100DC00030E020E040E064E1CE01099541E06BE4D1
:100DD000CE010E94BC05E881F981448169E2CE011F
:100DE0000E94BC0540E06BE4CE010E94BC05E88196
:100DF000F981448169E2CE010E94BC0541E06BE4C7
:100E0000CE010E94BC05E881F981458169E2CE01ED
:100E10000E94BC056AE971E09DCF8FEC91E0998357
:100E200088831C8AA5CFDC011896ED91FC9130E0F7
:100E300020E040E069E10994DC011896ED91FC9115
:100E400030E020E040E068E10994CF93DF931F9207
:100E5000CDB7DEB76983BE016F5F7F4F0E94E604A6
:100E60000F90DF91CF910895EF92FF921F93CF9350
:100E7000DF93EC01162F7A010E941C0760E4CE017B
:100E80000E942507E885F9859701412F67E1CE018A
:100E90000995CE01DF91CF911F91FF90EF900C94B7
:100EA0001307EF92FF921F93CF93DF93EC01142F60
:100EB0007901663181F138F4643109F44BC0653150
:100EC00079F080E022C06831C9F150F16931C9F789
:100ED0008091E403882391F1CE010E9413072EC074
:100EE0008091E403882319F0CE010E941307CE01FC
:100EF0000E941C0760E0CE010E942507612FCE01F1
:100F00000E94250781E08093E403DF91CF911F9138
:100F1000FF90EF900895642F0E94250781E0F5CFA0
:100F20008091E403882319F0CE010E941307A701E2
:100F3000193138F4612FCE010E9434071092E40376
:100F4000EDCF68E1CE010E943407185188E1E80E28
:100F5000F11CEDCF8E898F3F11F488E78E8BE885E9
:100F6000F9859701412F64E1CE01DF91CF911F9167
:100F7000FF90EF900994662329F06A3019F0862FCC
:100F800090E008958FEF9FEF08950F93FC01E05CD0
:100F9000FF4F0190F081E02D4E1B5F0BDC01D496DA
:100FA000ED91FC9109950F910895CF93DF93FC018A
:100FB000A081B18182AD90E09C0143E0220F331FFC
:100FC0004A95E1F737AF26AF50962C91509748E0FD
:100FD000249F9001112435AF24AF23AD30E0B90137
:100FE00053E0660F771F5A95E1F7EF01C05CDF4FC2
:100FF0007983688351964C915197E901C80FD91FA5
:1010000050E04C175D0718F4CA01821B930BEF01E7
:10101000CE5BDF4F79836883229623E0880F991F88
:101020002A95E1F7860F971F998388832296549615
:101030008D919C91559799838883E85BFF4F5696D5
:101040008D919C9191838083DF91CF910895AF9290
:10105000BF92CF92DF92EF92FF920F93CF93DF93E5
:10106000EC01DA017901942F9770E1E0F0E09F0143
:10107000092E01C0220F0A94EAF7522F6E018AE866
:10108000C80ED11CF601808140E0823018F4422F56
:10109000813049F15D01F8EFAF22E8ADF9AD28816B
:1010A0003981D90150968C918A9D90018B9D300D8C
:1010B0001124620F731FDF01A60FB71F01111AC0A1
:1010C000EA0EFB1E8C91842B85278D93AE15BF05F0
:1010D000C9F7DF91CF910F91FF90EF90DF90CF9004
:1010E000BF90AF90089550E0D5CF440F550FE11455
:1010F000F10479F33C91342B35273C939F5F977033
:10110000E1E0EE1AF1089111F0CF2CAD3DADA20F48
:10111000B31FF6018081823028F4813009F051E05C
:1011200041E0E5CF51E0E3CF0F931F93FC01E25B79
:10113000FF4F0190F081E02DDC01A05BBF4F0D90CF
:10114000BC91A02D4A175B0740F4E017F10748F067
:101150000417150730F080E019C0E017F107C0F35D
:10116000FACFFC01E65BFF4F40815181845B9F4FCA
:10117000FC01808191816817790758F481E042175A
:10118000530720F081E02617370728F71F910F91AA
:10119000089542175307B0F3DECF2F923F924F923C
:1011A0005F926F927F928F929F92AF92BF92CF92F7
:1011B000DF92EF92FF920F931F93CF93DF93CDB700
:1011C000DEB72A970FB6F894DEBF0FBECDBF9A8761
:1011D0008987865B9F4F9A838983FC0111821082E5
:1011E000E985FA85EA5BFF4F4080518029853A8581
:1011F000245B3F4F3C832B83F90151824082E98578
:10120000FA85EE5BFF4F2080318029853A85225B8D
:101210003F4F3E832D83F90131822082E985FA8593
:10122000EC5BFF4F6080718029853A85205B3F4FE2
:1012300038872F83F90171826082E985FA85E85A3F
:10124000FF4FE080F180E985FA85EC5AFF4FA080DE
:10125000B180E985FA85EA5AFF4FC080D180E985DF
:10126000FA85EE5AFF4F8080918087019501A60193
:10127000B40189859A850E94940829853A852C575E
:101280003F4F3A87298781111BC0F90110822A96A6
:101290000FB6F894DEBF0FBECDBFDF91CF911F9187
:1012A0000F91FF90EF90DF90CF90BF90AF909F9005
:1012B0008F907F906F905F904F903F902F90089508
:1012C00081E0E985FA8580838114910421F0E98128
:1012D000FA8191828082A414B50420F4EB81FC8110
:1012E000B182A0822C143D0420F4ED81FE81D182D4
:1012F000C082E614F70458F6EF81F885F182E082A7
:10130000C6CF0F93CF93DF93E02FDC01AC57BF4FD5
:10131000FC91FF2309F460C02115310509F45CC07C
:101320002230310538F0023009F04AC06F5F7F4F3C
:10133000621B730B0E2F0170E0FD52C0FC01E25BDB
:10134000FF4F0190F081E02D4E175F0708F444C075
:10135000FC01E05BFF4F0190F081E02D4E175F072D
:10136000D8F5FC01E45BFF4F0190F081E02DDC013A
:10137000A65BBF4F0D90BC91A02D260F371F2617DF
:10138000370738F56E177F0718F59F01215031098F
:10139000A217B30708F56A177B0708F4BD012E17DB
:1013A0003F0708F4F901E61BF70BEC01AEA9BFA952
:1013B00014960D90BC91A02D9F01FD0109950CC0C4
:1013C000033009F0B7CF4F5F5F4F421B530BB2CFD3
:1013D000BD016E177F07E0F2DF91CF910F91089565
:1013E000FC01E65BFF4F0190F081E02D6E177F0757
:1013F00098F3FC01E45BFF4F0190F081E02D6E1744
:101400007F0750F7FC01E05BFF4F0190F081E02D7A
:10141000DC01A25BBF4F0D90BC91A02D240F351FA6
:1014200024173507A8F44E175F0788F49F01215051
:101430003109A217B30780F64A175B0708F4AD011C
:101440002E173F0708F4F901E41BF50BAECFAD01F1
:101450004E175F0708F6EDCFAF92BF92CF92DF92A3
:10146000EF92FF920F931F93CF93DF936C01EB01E9
:101470005A017B01E20EF31E9C01240F351F8701E8
:10148000AB01BC0185E095E00E949408882361F0DF
:1014900000E09501AE01B60185E095E00E9481096A
:1014A0002196EC16FD06A1F7DF91CF911F910F91C8
:1014B000FF90EF90DF90CF90BF90AF90089590E0B5
:1014C00080E00895213069F038F0223079F0840FFF
:1014D000911D47FD9A950895860F911D67FD9A9578
:1014E0000895841B910947FD93950895861B9109E2
:1014F00067FD93950895213069F038F0223079F036
:10150000861B910967FD93950895840F911D47FDF2
:101510009A950895860F911D67FD9A950895841BED
:10152000910947FD939508953F924F925F926F9274
:101530007F928F929F92AF92BF92CF92DF92EF9263
:10154000FF920F931F93CF93DF937C01162F442EAE
:10155000EC01C25ADF4F5E806F806C018AE8C80ED2
:10156000D11C78847518312E711608F4372C8C80B4
:101570009D800E85202F462D652D8A819B810E949E
:10158000620A5C01202F462D652DC4010E947B0A52
:10159000AC01442079F08C85F6018083232D30E066
:1015A000B501C7010E948109171548F01719639406
:1015B000512CD7CF8B858111F7CF8D85EDCF150DB0
:1015C0001E836F82DF91CF911F910F91FF90EF905B
:1015D000DF90CF90BF90AF909F908F907F906F9053
:1015E0005F904F903F900895DC011A964C911A97A6
:1015F000ED91FC911197249130E0042E02C03595B5
:1016000027950A94E2F7842F860F883068F0319688
:101610001196FC93EE93E49198E0941B01C0EE0FB9
:101620009A95EAF72E2B88501A968C938FEF9FEF9E
:1016300001C0880F6A95EAF7809582230895FC011E
:10164000E60FF11D849190E0982F88273196E49160
:101650008E0F911D0895CF93DF9320915F053091F8
:1016600060052817390709F490C0EC0190936005D4
:1016700080935F05FC018491809372053196E4911B
:10168000E0937305FE013296E491E0937405FE0148
:101690003396E491E0937505FE013496E491E0936E
:1016A0007605FE013596E491E0937705FE013696C6
:1016B000E491E0937805FE013796E491E093790593
:1016C000FE013896E491E0937A05FE013996E491A3
:1016D000E0937B05FE013A96E491E0937C05FE01E0
:1016E0003B96E491E0937D05FE013C96E491E09306
:1016F0007E05FE013D96E491E0937F05FE013E9656
:10170000E491E0938005FE013F96E491E09381052A
:10171000FE017096E491E093820561E1CE010E94A2
:101720001F0B909384058093830563E1CE010E9493
:101730001F0B909386058093850565E1CE010E947D
:101740001F0B909388058093870580915F0590918A
:101750006005892BD1F080917F0580938B054091A6
:10176000800540938C0590918A05992371F0913002
:1017700079F490918105891714F490938B058091E9
:101780008205841714F480938C05DF91CF9108951E
:1017900030917C0520917E05082E000C990B622F5C
:1017A000022E000C770B630F711D37FD7A9586179B
:1017B00097071CF4320F30938B05241734F72093CE
:1017C0008C05E3CFCF93DF93EC016BAFEEA9FFA9BC
:1017D0000190F081E02D0995EEA9FFA90280F38127
:1017E000E02DCE01DF91CF910994AF92BF92CF92BD
:1017F000DF92EF92FF920F931F93CF93DF93EC0151
:10180000AAACEBACE881F981B188FE2CD12CC12CBB
:10181000E881F981208908AD19AD88E0289FA001F1
:1018200011244C9DC0014D9D900D5C9D900D112487
:10183000080F191F4F2D60E0CE010E94C305F394DD
:101840008F2D8E198A1528F48FEFC81AD80AFB1429
:10185000F8F2DF91CF911F910F91FF90EF90DF9001
:10186000CF90BF90AF9008956D32F1F030F46832B0
:1018700069F0693291F081E008956C34E1F06D34E3
:10188000D1F7442301F124982C9AF5CF84B18F7CB1
:1018900084B985B1806385B9EECF642F70E090E0A4
:1018A00080E00E941305E7CF433028F78FE090E0F7
:1018B0000197F1F7E0CF442319F025982D9ADBCF5B
:1018C0002D98259AD8CF2C98249AD5CF0F931F9373
:1018D000CF93DF93C0913D05D0913E058E01005C12
:1018E0001F4F27E042E068E085E095E00E94C305D5
:1018F00000581F4F27E043E068E085E095E00E9434
:10190000C305DF91CF911F910F910895789415B879
:1019100088B1807F88B98CE18BB914B887B1807C9D
:1019200087B91AB81BB884B1806384B985B18F7C3C
:1019300085B98091EB03853031F484B1807F84B91F
:1019400085B18F6085B908950E94860C2D9A2C98D8
:1019500068EC70E080E090E00E9413052D982C98D0
:1019600068EC70E080E090E00E941305EFCF8230D9
:10197000910529F0039731F02D9A2C9808952D9810
:101980002C9A08952D9AFCCF0F931F93CF938C011F
:10199000C62FC150A0F0C8010E94B70C64EF71E0DF
:1019A00080E090E00E9413052D982C98CC2389F3B9
:1019B00064EF71E080E090E00E941305EACFCF91E0
:1019C0001F910F910895CF93DF93C82FD62F61E019
:1019D0000E94460561E08D2F0E94460561E08C2F34
:1019E0000E94720561E08D2F0E947205D8E060E0D0
:1019F0008C2F0E94460561E08C2F0E944605D15035
:101A0000B1F7DF91CF91089590917C00907F892B61
:101A100080937C0080917A00806480937A0080912A
:101A20007A0086FDFCCF809178009091790008952E
:101A3000FC019B016091DE027091DF028091DC026B
:101A40009091DD025091E002552319F0620F731F4F
:101A50000994820F931FFCCF6F927F928F929F9277
:101A6000AF92BF92CF92DF92EF92FF920F931F93AC
:101A7000CF93DF93982E892E762E672E7A011092BF
:101A8000E002D0E0C0E08091E002823008F091C036
:101A9000209709F08EC0072D162D811102C0092D47
:101AA000182DD12CC12C0C151D0549F040E0B601B4
:101AB000C7010E94180D8FEFC81AD80AF4CFB12CB5
:101AC000A12CCA14DB0489F042E0B501C7010E94D1
:101AD000180D85010F5F1F4F811121C041E0B50135
:101AE000C7010E94180D5801ECCF8601680181E002
:101AF000C81AD10842E0B601C7010E94180D882318
:101B000071F040E0B601C7010E94180D8601CD2892
:101B100069F78091E0028F5F8093E002B4CF0115F6
:101B20001105B9F3680181E0C81AD10840E0B60197
:101B3000C7010E94180D42E0B601C7010E94180DAE
:101B4000C82F41E0B601C7010E94180DCC2319F03F
:101B5000C0E0D0E8DECF42E0B601C7010E94180D18
:101B60008823B1F3C114D104D9F002501109C02265
:101B7000D122CD28A9F40115110521F0CF5F1695CA
:101B80000795F9CFD0E08091E002882331F080E121
:101B900090E0C80FD91F2196BCCF90E080E0F9CF2C
:101BA0008091E002C4E4D0E08111B3CFC3E5D0E07E
:101BB000B0CF1092DF021092DE021092DD0210927E
:101BC000DC02CE01DF91CF911F910F91FF90EF903A
:101BD000DF90CF90BF90AF909F908F907F906F904D
:101BE00008954F925F926F927F928F929F92AF92E1
:101BF000BF92CF92DF92EF92FF920F931F93CF93FA
:101C0000DF938C01542E69018091060190910701A8
:101C100029E0289FF001299FF00D1124EE5CFD4F73
:101C2000C0810617170709F03FC0F12CE12CAC2E3C
:101C30000C2E000CBB088C2E912C89E0482ED4E190
:101C40000A191B098C2F8E1987FD66C0609006014A
:101C500070900701C5018E199F09881599056CF4CC
:101C6000469CF001479CF00D1124EE5CFD4F8085F1
:101C70008D9FC00111240E94DB04469CF001479C0B
:101C8000F00D1124EE5CFD4F87818D9FC001112462
:101C90000E94DB04652DC8018E0D9F1DF60109957C
:101CA000FFEFEF1AFF0ACECFD0E00C171D07E8F0C8
:101CB000878124E1829FC00111240E94DB04652DED
:101CC000C8018C1B9D0BF601DF91CF911F910F91E5
:101CD000FF90EF90DF90CF90BF90AF909F908F904C
:101CE0007F906F905F904F9009948681F4E18F9F71
:101CF000C0011124DF91CF911F910F91FF90EF90C0
:101D0000DF90CF90BF90AF909F908F907F906F901B
:101D10005F904F900C94DB04DF91CF911F910F9156
:101D2000FF90EF90DF90CF90BF90AF909F908F90FB
:101D30007F906F905F904F90089580E02FE0E82FA4
:101D4000F0E0EF5FFB4F90819227908391E0980F36
:101D50008F3F09F40895892FF2CF20E04DE3E22F61
:101D6000F0E0249FC001112431EE83273CEA932741
:101D700038E0BC017695679581709927919581959A
:101D800091098827947B86279727315091F7EF5F39
:101D9000FB4F89278F70808381E0820F2F3F09F4EA
:101DA0000895282FDCCFCF92DF92EF92FF920F930E
:101DB0001F93CF93DF936C01EB017B01E40EF51EC3
:101DC00010E000E0CE15DF0561F06991D601ED91DC
:101DD000FC910190F081E02DC6010995080F191FB3
:101DE000F1CFC801DF91CF911F910F91FF90EF903C
:101DF000DF90CF9008952F923F924F925F926F9213
:101E00007F928F929F92AF92BF92CF92DF92EF928A
:101E1000FF920F931F93CF93DF93CDB7DEB7289731
:101E20000FB6F894DEBF0FBECDBF7C016C0124E07D
:101E3000C20ED11CFC01E057FF4F0190F081E02D54
:101E4000C60109958C018E3F9F4F08F061C0370194
:101E500084E9680E711CF3010190F081E02DFD838F
:101E6000EC835701F2E9AF0EB11CF501808091803F
:101E7000970120593F4F3B832A83F90180818130AC
:101E800009F470C008F45FC0823009F476C0833072
:101E900009F482C0F701EC59FF4F9182808232969B
:101EA0002C813D81318320833897808191814796B1
:101EB0009D838C830F3F110511F008F020C1B69669
:101EC0000136110530F40134110558F0F701EE57D1
:101ED000FF4F808191812C813D81280F391F3D83E7
:101EE0002C838C819D810196FC01249121115FC07E
:101EF00090E080E0EA81FB812081213009F4C1C1BA
:101F000008F4B7C1223009F4BEC1233009F4C3C1BB
:101F100081E090E028960FB6F894DEBF0FBECDBFEB
:101F2000DF91CF911F910F91FF90EF90DF90CF90B5
:101F3000BF90AF909F908F907F906F905F904F90E9
:101F40003F902F900895F701E05AFF4F0190F081E4
:101F5000E02DC60109952C813D81280F391F3D8355
:101F60002C8398CFF701E05AFF4F0190F081E02DCC
:101F7000C6010995881A990A8DCFF701E05AFF4FDB
:101F80000190F081E02DC6010995EC81FD81E81BEF
:101F9000F90BFD83EC837ECFF701E05AFF4F0190F0
:101FA000F081E02DC6010995880E991E73CFEC8152
:101FB000FD8124912017110609F09AC0CF010296E5
:101FC000009709F495CFF701EE59FF4FF887EF839B
:101FD000918380831286739660818F8198850E9499
:101FE000F40AEF81F8858087F701EA58FF4F608196
:101FF0008F8198850E94F40A582EEF81F885818799
:10200000970122573F4F3D832C83F9019081EF8147
:10201000F885948781E0911180E0EF81F8858587CC
:10202000F701E958FF4F8080682D8F8198850E94C5
:10203000F40A382EF701E858FF4F2080622D8F8177
:1020400098850E94F40A982EF701E758FF4F1081F7
:10205000612F8F8198850E94F40A9FEF910F01E014
:1020600010E0980101C0220F9A95EAF7821B8E8337
:10207000EF81F885408414140CF0C4C08A94C80120
:1020800001C0880F8A94EAF7381AF685F983950C0F
:102090002A94C80101C0880F2A94EAF7282E29182B
:1020A0002F2F422D632DEF81F885828193810E942D
:1020B000620A4C01EF81F885938382832981422D46
:1020C000632D848195810E947B0AEF81F885958339
:1020D0008483F981F13009F49AC008F44EC0F230DB
:1020E00009F4A4C0F33009F4B5C0BC0194014FC099
:1020F000FC0184912C813D81280F311DF0CEF70128
:10210000EA57FF4F80819181EC81FD81E80FF91F33
:10211000FD83EC834F0160E0C4010E941F0B2C8102
:102120003D81280F391F3D832C8362E0C4010E944A
:102130001F0B34E0830E911C8017910760F3EC8134
:10214000FD81849190E0982F88273196E4918E2B21
:10215000009709F4CDCE0817190721F48C819D81D1
:1021600003962ECFEC81FD813296E4912C813D8146
:102170002E0F311D3D832C83E2CF9401240D311DA0
:1021800047FC3A95BC01650D711D57FC7A958B0192
:10219000AC01B401C6010E949408882399F1EF8133
:1021A000F885168217824701F3E78F0E911C24E70A
:1021B000E20EF11CF40160818F8198850E94F40A7F
:1021C000082FF70160818F8198850E94F40A182FEB
:1021D00040E0602FC6010E94940A41E0612FC601D1
:1021E0000E94940A61E08F8198850E94F40A81110F
:1021F000EFCFEF81F88587818515E4F28485EC8146
:10220000FD818083FE818F2FFF0F990B73CE0519FF
:10221000110957FC139594012F5F3F4FBC01640DCA
:10222000711D47FC7A95800E911EB1CFA80144190B
:10223000510947FC539594012F5F3F4F0519110930
:1022400057FC1395BC016F5F7F4F800F911F840E69
:10225000951E9DCF9401250D311D57FC3A9504190B
:10226000110947FC1395BC016F5F7F4F800F911FD1
:102270008ECFF50120813181820F931F918380835E
:1022800047CEF301F7CFF50120813181281B390BAF
:10229000318320833DCEF301F7CF0F931F93CF936C
:1022A000DF938C01D0E0C0E0F801EC0FFD1F6491DA
:1022B000662341F081E095E00E94FB0E892B11F02E
:1022C0002196F2CFCE01DF91CF911F910F9108950A
:1022D000089590E080E00895299A289829980000B0
:1022E0000000299A289A08950F931F93299A05B1FF
:1022F0000F7E18B11F7E90FD006191FD106105B940
:1023000018B98BB929981F910F9108950F931F93B6
:10231000299A28E0000029980000299A2150D1F735
:10232000289A05B10F7E18B11F7E90FD006191FDC6
:10233000106105B918B98BB9299805B10F7E18B18C
:102340001F7E60FD006161FD106105B918B91F9124
:102350000F910895FF920F931F93CF93DF938C01FA
:10236000D62FF72EC42F0E946C11C23009F025C061
:1023700088B1807F88B987B1807F87B92A98C801E2
:102380000E94741105B10F7E18B11F7EF0FC006130
:10239000F1FC106105B918B9DBB9000028980000FC
:1023A0000000000086B1289A299A81702A9ADF914C
:1023B000CF911F910F91FF90089587B18F6087B9DA
:1023C000C8010E9474112B9805B10F7E18B11F7EB1
:1023D000F0FC0061F1FC106105B918B9DBB948B136
:1023E000407FCF704C2B48B9000028980000289AF5
:1023F0002B9A299A80E0DBCF8FE385B980E888B9F2
:102400001BB88FE184B987B98FEF8AB90895299AEB
:10241000000000008F778BB9299808951F93CF9300
:10242000DF93182FC62FD42F9091DB0281E0890F04
:102430008093DB0220910601309107018FE32C305D
:10244000310509F08FE789230E9407120000299ABD
:102450000000CF77D23099F4812F0E940712CBB9B8
:1024600000000000289800000000289A86B1299AF0
:10247000000000008170DF91CF911F9108952B988B
:10248000812F0E940712CBB9DD2369F0419A000029
:102490000000289800000000289A299A00000000F7
:1024A0002B9A80E0E8CF4198F2CF80E480937C00C3
:1024B00087E880937A0084B18B7E84B985B18B7E66
:1024C00085B987B1837F87B988B1837F88B98FE069
:1024D00090E00197F1F71C9902C080E014C01A9BAC
:1024E000FCCF82E00E94040D875291408234910516
:1024F000A0F783E00E94040D9C012752314081E047
:102500002234310550F708952B9A42982B980000F9
:1025100000002B9A429A0895449A429844980000E9
:102520000000449A429A08954BB14871FC0190E032
:10253000292F2770242B392F330F330F307E232B75
:1025400021939F5F9034A1F708950F931F93449AAE
:102550000000449800000000449A429A05B10B7EA6
:10256000182F1170110F110F012B182F1270110F4E
:10257000110F110F012B05B90027182F1470129598
:10258000110F012B182F187012951695012B182F6B
:10259000107816951695012B182F107212951F7032
:1025A000012B182F1074129516951695012B182FC4
:1025B000107116951695012B0BB944981F910F9128
:1025C00008950F931F93449A05B10B7E182F117035
:1025D000110F110F012B182F1270110F110F110F66
:1025E000012B05B90027182F14701295110F012B1C
:1025F000182F187012951695012B182F1078169514
:102600001695012B182F107212951F70012B182F81
:102610001074129516951695012B182F107116959A
:102620001695012B0BB944981F910F91089584B111
:10263000867F84B987B1857F87B985B1896085B97F
:1026400088B18A6088B9089584B1896084B987B1F6
:102650008A6087B908950F931F93CF93C82F80E0A6
:102660000E94E1120E94241329988FE005B1067F91
:10267000182F1270110F110F012B182F14701695AF
:102680001695012B05B948B1457F182F1170110F10
:10269000412B182F1870412B48B905B10B7E1C2F08
:1026A0001170110F110F012B1C2F1270110F110F30
:1026B000110F012B05B900271C2F14701295110F53
:1026C000012B1C2F187012951695012B1C2F1078BA
:1026D00016951695012B1C2F107212951F70012B49
:1026E0001C2F1074129516951695012B1C2F107126
:1026F00016951695012B0BB942980000429A449A00
:10270000299A0E941713409880E00E94E11280E00D
:1027100005B10B7E182F1170110F110F012B182FFF
:102720001270110F110F110F012B05B90027182F6F
:1027300014701295110F012B182F18701295169501
:10274000012B182F107816951695012B182F107243
:1027500012951F70012B182F10741295169516954F
:10276000012B182F107116951695012B0BB9429855
:10277000000000000000000006B113B12227302F36
:1027800032703695230F312F387036953695230FDA
:10279000312F3170330F330F230F0870200F822F2A
:1027A000429A449A409A8F70CF911F910F91089549
:1027B0000F931F9305B10B7E182F1170110F110F7E
:1027C000012B182F1270110F110F110F012B05B9CA
:1027D0000027182F14701295110F012B182F187045
:1027E00012951695012B182F107816951695012B1A
:1027F000182F107212951F70012B182F107412953C
:1028000016951695012B182F107116951695012BFC
:102810000BB94298000000000000000006B113B19F
:102820002227302F32703695230F312F387036958E
:102830003695230F312F3170330F330F230F08706C
:10284000200F822F429A8F701F910F9108950F933E
:102850001F9305B1067F162F1270110F110F012B58
:10286000162F147016951695012B05B948B1457FA2
:10287000162F1170110F412B162F1870412B48B9CC
:1028800005B10B7E182F1170110F110F012B182F8E
:102890001270110F110F110F012B05B90027182FFE
:1028A00014701295110F012B182F18701295169590
:1028B000012B182F107816951695012B182F1072D2
:1028C00012951F70012B182F1074129516951695DE
:1028D000012B182F107116951695012B0BB94298E4
:1028E000000000000000429A1F910F9108950F937D
:1028F0001F93CF93DF93082FEB01142F8091D90200
:102900009091DA029C012F5F3F4F3093DA022093BF
:10291000D9020E94E1120000449A80910601909130
:102920000701039711F4CC0FDD1F123099F40E94B8
:1029300017134098F894802F0E94E1128C2F0E9468
:10294000D813449A78948170409ADF91CF911F9167
:102950000F9108950E9424132998F894802F0E94C3
:10296000E112612F8C2F0E942714449A7894299A9F
:1029700080E0EBCFAC0195B1BA0176956795842FD5
:10298000880F242F220F220F2470362F3170232B13
:102990009A7E292B982F9071292B25B928B12B7F4E
:1029A000942F9470292B28B93BB151FB222720F991
:1029B000FA01EE0FEF2FEE1FFF0BF1959E2F927095
:1029C000922B3871932B9A0155E0369527955A959D
:1029D000E1F72470922B6072962B8074982B842FD1
:1029E000880F880F880F8078892B8BB9089584B160
:1029F0008F6184B987B18F6187B98AB1876E8AB9CF
:102A000088B1896088B9089580FF1BC0449A4BB192
:102A10009C01369527952770382F330F307E232B56
:102A20004871242B2BB925B1880F892F881F990B4A
:102A30009195FC01E25FFB4FE4912A7EE22BE5B920
:102A400008954498E4CF2B9A0E9404152B9808957A
:102A5000CF93DF939C01D62FC42F2B9A98E00000D0
:102A60002B98000000002B9A9150C9F7429AC90197
:102A70000E9404152B98D8B9C5B9DF91CF9108955C
:102A8000CF93DF93EB01F8940E9404152B98CE01AD
:102A90000E9404154298000000000000000086B16A
:102AA000429A2B9A789483FB882780F9DF91CF9103
:102AB00008951F93CF93DF93EB01142FF8940E9496
:102AC00004152B98112379F0409ACE010E94041529
:102AD000419842980000429A419A2B9A7894DF914B
:102AE000CF911F9108954098F0CFFF920F931F93BD
:102AF000CF93DF93EC018B01F42E0E94841282E0CD
:102B0000F81209C0B801CE01DF91CF911F910F914A
:102B1000FF900C9440154F2DB801CE010E9459151D
:102B200080E0DF91CF911F910F91FF900895299A36
:102B30004398299800000000299A439A0895A82FE5
:102B4000AF71B0E09D01220F331FA20FB31FA05F32
:102B5000BE4F11965C91119712964C91129765E0B9
:102B6000969587956A95E1F79927FC01E157FE4F05
:102B70003491FC01E158FE4F249181599E4FFC0194
:102B80008491E5B1EA7E9C91E92BE32BE5B9E8B1AC
:102B9000EE7EE52BE22BE8B9EBB1EC73E42B8E2B48
:102BA0008BB90895299A0E949F1529980895CF936B
:102BB000DF93EB01419839980E949F15F89429986A
:102BC000CE010E949F15419843980000439A86B118
:102BD000299A789482FB882780F9DF91CF91089514
:102BE0000F931F93CF938B01C42F399A0E949F1587
:102BF000F89429982B98399AC111C4E0C8010E9411
:102C00009F15CC2359F0419A43980000439A2B9A80
:102C1000299A7894CF911F910F9108954198F4CFFC
:102C2000423011F40C94D7150E94F0150E949715AC
:102C300080E00895299A0000299800000000299A50
:102C4000439A0E949F15299808958F929F92AF9260
:102C5000BF920F931F93CF93DF93CDB7DEB7A197AA
:102C60000FB6F894DEBF0FBECDBF19A2423008F4F4
:102C70004AE08E010F5D1F4F842E912CB12CA12CA8
:102C8000A50194010E94C33DE62FB901CA01EA30B3
:102C900044F5E05DD801EE938D01232B242B252BE9
:102CA00079F790E080E0109769F0FD010190002035
:102CB000E9F73197AF014A1B5B0BBD0181E095E05D
:102CC0000E94D30EA1960FB6F894DEBF0FBECDBF03
:102CD000DF91CF911F910F91BF90AF909F908F90F8
:102CE0000895E95CD7CF982F907F903151F491E40B
:102CF0009093FB038F70805D8093FC031092FD0323
:102D00000895903269F499E49093FB039FE49093C3
:102D1000FC038F70805D8093FD031092FE03089585
:102D200081508730F8F4E82FF0E0E756F94E0C9424
:102D3000E53DB516A016B816A616A916AC16AF1620
:102D400060E574E08BEF93E00C94993D6AE474E0E5
:102D5000F9CF66E474E0F6CF61E474E0F3CF6EE39C
:102D600074E0F0CF1092FB03089564E574E0EACFBD
:102D70006DE474E0E7CF882389F024982C9A8AE0E8
:102D80008A95F1F700C025982D9A80E28A95F1F78F
:102D90002D98259A88E08A95F1F708952C98249A21
:102DA000EECF80E18A95F1F70895CF93C82F807810
:102DB0000E94BB168C2F80740E94BB168C2F8072D1
:102DC0000E94BB168C2F80710E94BB168C2F8870BE
:102DD0000E94BB168C2F84700E94BB168C2F8270B1
:102DE0000E94BB168C2F81700E94BB1624982C9ACF
:102DF0000E94D11625982D9A80E28A95F1F72498A1
:102E00002C9A0E94D1162D98259ACF910895EF9271
:102E1000FF921F93CF93DF93EC01142F7901683158
:102E200021F158F46431C1F0673169F080E0DF913D
:102E3000CF911F91FF90EF900895693181F1603239
:102E4000A9F781E0F4CF1123E1F3F70181917F012C
:102E50000E94D5161150F7CF84B18F7C84B985B10B
:102E6000806385B90E94D116ECCF8F89882349F001
:102E700024982C9A0E94D11625982D9AF0E2FA9562
:102E8000F1F724982C9A2C98249A0E94D1162D9808
:102E9000259A81E08F8B8E890E94D516D2CF2C98EF
:102EA000249A0E94D11625982D9A80E28A95F1F7EE
:102EB00024982C9A0E94D1161F8A84B1806384B909
:102EC000C0CF24B1257F24B925B12A6025B927B107
:102ED0002D7E27B928B1226128B90E94BA144398DF
:102EE00000C000C093B126B1439A30E024FB88278C
:102EF00080F9492F46954470842B9270892B220FBC
:102F0000331F220F331F2870822B0895CF93C62FB3
:102F10000E94BA1484B18A6084B987B1826187B98A
:102F200065B12C2F30E0657FC2706C2BC901880F12
:102F3000991F8870682B65B948B1C9019595879527
:102F400095958795827064E0220F331F6A95E1F7AB
:102F50002071822B4D7E842B88B94398409882E063
:102F60008A95F1F7409A439ACF910895FC01A08188
:102F7000B18150962C9182AD38E0839FC00111241D
:102F8000289FA001299F500D112470E060E080ADC2
:102F900091AD0C94EB3D1F93CF93DF93EC010E9416
:102FA000F50B1BAD8AAD180FE881F98181891817DF
:102FB00068F0EC81FD8130E020E040E060E1CE018E
:102FC000099580E0DF91CF911F910895FE01E557AB
:102FD000FF4F8081882319F0CE010E94B617612F20
:102FE000CE010E94E20B81E0EDCFCF93DF93EC01A5
:102FF000FC01E557FF4F8081882319F0CE010E9424
:10300000B61760E0CE01DF91CF910C94E20BC82F90
:10301000F62EDFEFD60FD83070F4ED2FF0E0ED5E36
:10302000F74E0C94E53D261893189318A118A7188D
:103030008C18AD18A1180FEF1FEF2EE332E044E01B
:1030400067E482E095E00E94D82849C084B18F7C73
:1030500084B985B1806385B985E095E00E94F51754
:103060008C2FC03110F080EF8C0F482E512C712C1A
:10307000612C02E310E041E2C42ED12C5FE0A52ECA
:10308000B12C66E3862E912C85EC95E00E942B0BEB
:103090001093940500939305D0929605C0929505E0
:1030A0008CE392E00E944D118FE696E00E942B0B7C
:1030B000B0929405A0929305909296058092950502
:1030C000C13200F18DE292E00E944D118C2F0E94DE
:1030D000FB2785E095E00E94CB178111D5CF0E9498
:1030E000860CD83008F089C0ED2FF0E0E658F74E96
:1030F0000C94E53DB818D818B318DD18E818E61890
:10310000EB18F4188FE192E00E944D114AE0C301E0
:10311000B2010E942516DDCF082F10E022E132E037
:103120004FE063E48ECF0FEF1FEF2FEF31E041E070
:10313000823018F02EEE31E048E062E485EC95E054
:1031400082CF082F10E023EE31E048E1EACF0FEF05
:103150001FEF23ED31E04BE0F0CF0FEF1FEF28EC36
:1031600031E04DE1EACFD0E0C7E032E0F32E07C016
:10317000C132C8F0D0E0C23509F443C0CAE0DD2353
:1031800009F441C02D9A2C9868EE73E080E090E03D
:103190000E9413052D982C9868EE73E080E090E073
:1031A0000E941305ECCFC03108F0C051D0E0E7CF4A
:1031B000C63008F0C5E0CF5FF9CF8FEF8C0FD0E0BD
:1031C000843108F0C0E023E0F22ED9CFD0E0FACF6E
:1031D000D0E0C8E0CACF8FEF8C0FD0E0843108F088
:1031E000C0E094E0F92ECBCF8FEF8C0FD0E084318C
:1031F00008F0C0E085E0F82EC2CFD1E0C0E0F12CAD
:10320000BECFC9E0BCCF6F2D81E090E00E94C40C1E
:103210006CE271E080E090E00E941305CC2329F07D
:103220006C2F83E090E00E94C40C6CED75E080E0B0
:1032300090E00E941305E7CFDF92EF92FF920F9389
:103240001F93CF93DF93F82ED62E80910601909195
:10325000070129E0289FF001299FF00D1124EE5C61
:10326000FD4FE380F8948F2D0E94071220E1F29E1B
:1032700080011124D0E0C0E05C2FCE1508F03DC0E5
:103280008C2F8F778BB90000289800000000289AB7
:1032900046B141709E01200F311FF901F695E79567
:1032A000F695E795FF27EF5FFB4F8081237033276B
:1032B00022303105A1F02330310599F0213031055C
:1032C00061F0847091E009F490E0491779F0789406
:1032D00063E081E08D0D0E9407188695F2CF880F7C
:1032E000F0CF24E0829FC0011124EBCF50FF03C038
:1032F0008F2D0E9407122196BFCF299A7894DF91D3
:10330000CF911F910F91FF90EF90DF9008956F92F2
:103310007F928F929F92AF92BF92CF92DF92EF9265
:10332000FF920F931F93CF93DF93EC01662EC09013
:103330000601D0900701BB24B39420E4E22EF12CC7
:1033400083E0C816D10421F0B12CE12CFF24F394C2
:103350000E94171340989C2E8C2F0E94E11285B07A
:103360007BB08E0184E0169507958A95E1F70C0FE6
:103370001D1FF894449A0000449881E0A82E01C0D3
:10338000AA0CBA94EAF7B12CD0E0C0E08B2D0E94D1
:10339000D81398012C273D272327E22FF0E0EF5F79
:1033A000FB4F9081891739F07894409A449A63E0F2
:1033B000862D0E94071883E0C816D104D1F4892D08
:1033C0000E94E1122196BA0CEC16FD06F9F6409A1D
:1033D000449A7894DF91CF911F910F91FF90EF90D5
:1033E000DF90CF90BF90AF909F908F907F906F9025
:1033F0000895449A85B87BB84498E4CF7F928F9221
:103400009F92AF92BF92CF92DF92EF92FF920F9373
:103410001F93CF93DF938C01962E8091060190919C
:10342000070129E0289FF001299FF00D1124EB5C92
:10343000FD4F8180C80164E0969587956A95E1F714
:10344000800F911FD92ED826419AC8010E942315BA
:10345000F8948BB18871A82EC12CC81408F04DC007
:103460007C2C7D248C2D880FE82FF0E0E25FFB4F51
:10347000B4908160E82FF0E0E25FFB4FD491C0E0B0
:1034800085B18A7E9B2DC7FD9D2F892B85B92C2F59
:10349000220F207E2A2940E14C0FEC2FE725F0E097
:1034A000EF5FFB4F308133FB332730F98C2F90E0F7
:1034B000C0FF17C0449A959587958770822B8BB96A
:1034C00042980000429A86B183FBEE24E0F8F12C8A
:1034D0003E151F0441F078942B9A63E0892D0E94D9
:1034E00007184498E8CFCF5FC413D7CFC8010E9414
:1034F0002315C111C5CFC394B0CF2B9A7894DF9117
:10350000CF911F910F91FF90EF90DF90CF90BF90E0
:10351000AF909F908F907F900895EF92FF920F93BE
:103520001F93CF93DF9324B1982F9095922394B952
:1035300027B1962F9095922397B92AB1942F909501
:1035400092239AB995B1982B95B998B1962B98B9C1
:103550009BB1942B9BB9C42F90E0E9E2F0E003E229
:1035600010E023E0E22EF12C21E050E03C2F32234A
:1035700061F1D8011197F1F73181322B31837281DA
:10358000322F309573237283D7011197F1F7742F7F
:103590007323A62F992389F1A323742F913069F502
:1035A000B82FB323A62FD3B1DB23DB1328C0B6B1CA
:1035B000BA23BA1324C0A9B1A723A71320C07181CD
:1035C000372331833281322B3283220F5F5F5830B1
:1035D00069F69F5F933039F4DF91CF911F910F917E
:1035E000FF90EF900895C62FE6E2F0E0913009F0E9
:1035F000BBCFC82FE3E2F0E0B7CFB82FD4CF809194
:10360000EB03853081F49923F1F09130F9F082EFEA
:1036100091E0850F911DFC0180818E3F08F080E0D4
:1036200066E00E940718843039F4992391F09130B4
:1036300099F082E292E0EDCF992389F0913091F0F8
:103640008AE092E0E6CF8AEE91E0E3CF8AEF91E064
:10365000E0CF8AE192E0DDCF8AE292E0DACF82E049
:1036600092E0D7CF82E192E0D4CFAF92BF92CF92D7
:10367000DF92EF92FF920F931F93CF93DF933093DC
:10368000FA032093F9031093F8030093F703F092E1
:10369000F603E092F503DA01AB01F0E0E0E0CC24C0
:1036A000C394D12CB6010E2E01C0660F0A94EAF71E
:1036B000EC010196B880B394B394AA24A394AB14FC
:1036C00060F4B3B0B62249F4E20FF31F84910E9474
:1036D000731664E088810E940718EA014F5F5F4F0C
:1036E000B880B394B394AA24A394AB1418F4B6B0DE
:1036F000B622B1F0ED011196B8807EEFA72EBA1474
:1037000090F03196E830F10569F6DF91CF911F9185
:103710000F91FF90EF90DF90CF90BF90AF90089502
:10372000E00FF11FD3CF79B1672359F7EE0DFF1DDD
:10373000CDCF0F931F93CF93DF93D0E0C0E090E005
:103740009C010C2E02C0359527950A94E2F720FFC4
:103750000DC08B01FA01EC0FFD1F84910E947316BE
:10376000C00FD11F68E088810E9407182196C830D9
:10377000D10531F7DF91CF911F910F910895EF920D
:10378000FF920F931F93CF93DF937A01890195B135
:10379000907F95B998B1907E98B92BB1382F30951C
:1037A00023232BB924B12F6024B927B12F6127B966
:1037B0002AB1282B2AB9000000000000000024B123
:1037C000207F24B927B1207E27B99AB193239AB9D3
:1037D000E3E0F0E03197F1F723B1D6B1C9B1C823E6
:1037E00095B19F6095B998B19F6198B99BB1892BAC
:1037F0008BB94091F9035091FA03822F8F700E9488
:10380000991B4091F7035091F803B7018D2F8F71E9
:103810000E94991B4091F5035091F603B8018C2F3B
:10382000DF91CF911F910F91FF90EF900C94991B16
:103830000E942C0D97FF04C062E080E00E940718F0
:10384000009719F061E08150F9CF08958F929F920F
:10385000AF92BF92CF92DF92EF92FF920F931F939E
:10386000CF93DF937C01B62E0E94741180910601E4
:103870009091070129E0289FF001299FF00D112464
:10388000EE5CFD4F85818170C82E9480C70124E0D5
:10389000969587952A95E1F78E0D9F1DD92ED826EE
:1038A0002A98F894C0E0C91508F071C005B10F7EE0
:1038B00018B11F7EC0FD0061C1FD106105B918B9C6
:1038C000AD2CAC26C1103AC094E0892ED0E0C701DF
:1038D0000E94741105B10F7E18B11F7EC0FD0061FA
:1038E000C1FD106105B918B990E49D0FDBB92898A6
:1038F000289A86B18F70EA2DED27F0E0EF5FFB4F3D
:103900002081821729F0789463E08B2D0E9407189C
:10391000E1E0ED0FEBB92898289A86B18F70EA257F
:10392000F0E0EF5FFB4F20818213EDCFDE5FD91314
:10393000DDCF8A948110CBCFCF5FB5CF289884E0BC
:10394000882ED0E090E49D0FDBB90000000086B126
:103950008F70EA2DED27F0E0EF5FFB4F208182139F
:10396000D2CFDF5FD913F0CF289AC7010E9474111C
:1039700005B10F7E18B11F7EC0FD0061C1FD106151
:1039800005B918B928988A948110DCCFD5CF289A28
:103990002A9A299A7894DF91CF911F910F91FF90E5
:1039A000EF90DF90CF90BF90AF909F908F90089551
:1039B0009F92AF92BF92CF92DF92EF92FF920F93BE
:1039C0001F93CF93DF93182F8091060190910701E9
:1039D00029E0289FF001299FF00D1124EE5CFD4F96
:1039E00081819281D82EC380F894C0E099277C0110
:1039F0002FEFE21AF20ABB24BA94BD0CAA24A394B6
:103A0000AD0CCE151F0411F00CF05CC0CD1548F5BF
:103A10000B2D0C1B111101C00C2F902E9126802F05
:103A20000E9407122B98D0E0DC15C8F48D2F892551
:103A300080FF13C0419A8D2F8F778BB90000000053
:103A4000289800000000289A8D2F8370833019F485
:103A5000802F0E940712DF5FE7CF4198ECCF2B9AAF
:103A6000299AC23068F10EEF0C0F112311F00A2DC4
:103A70000C1B902E9126802F0E940712D0E0DC159F
:103A8000F0F48D2F8F778BB900002898000000008C
:103A9000289A86B1992D9D2791708170981731F0E1
:103AA0007894299A62E0812F0E9407188D2F8370E5
:103AB000833019F4802F0E940712DF5FE0CF299A2C
:103AC000CF5F9FCF7894DF91CF911F910F91FF909F
:103AD000EF90DF90CF90BF90AF909F900895CF92DE
:103AE000DF92EF92FF920F931F93CF93DF93082FF4
:103AF0001EEFD0E0C0E02DEFC22ECF3FD10509F080
:103B000020F5EC2E002311F0EC2CE11A0E94241376
:103B1000F8948E2D0E94E1122998F12C8E2D8F257C
:103B200081706AE0801365E08F2D880F0E94271452
:103B30008E2D0E94E112F39480E4F812EFCF299ABF
:103B4000449A7894C230D10558F1E12E0111E094E5
:103B50000E9417134098F8948E2D0E94E112F12CC8
:103B60008E2D8F25817095E0D92E801302C08AE0BA
:103B7000D82E8F2D880F0E94D8138D1539F0409ABA
:103B8000449A789462E0802F0E9407188E2D0E943C
:103B9000E112F39480E4F812E3CF409A449A7894C7
:103BA00021961F5FC23081E0D80709F0A6CFDF91D0
:103BB000CF911F910F91FF90EF90DF90CF900895DC
:103BC0002F923F924F925F926F927F928F929F922D
:103BD000AF92BF92CF92DF92EF92FF920F931F931B
:103BE000CF93DF9300D000D01F92CDB7DEB79B8379
:103BF0008A83F62E809106019091070129E0289F83
:103C0000F001299FF00D1124EE5CFD4FC380D4809C
:103C10008581419839980A811B81B4E016950795F2
:103C2000BA95E1F72A813B81020F131F81FDB4C0D1
:103C30002601A5E056944794AA95E1F7F8948A8165
:103C40009B810E94D21595B1E8B0BBB0392F32608C
:103C50003983B0E0A0E050E040E080E09A7E692E39
:103C60009E2D9C7E792EEB2DEC738E2E242D2150D3
:103C7000330B1901441508F05AC0FA01E157FE4F01
:103C80009490FA01E158FE4F2491FA01E159FE4F58
:103C90006491962827292C836829F2E0AF2E4430BE
:103CA00010F4AA24A39498012A273B27932F922744
:103CB0009D83299A000029987EE192E0970F915008
:103CC000292F30E06901CC0CDD1C2C0D3D1D205F3F
:103CD0003E4FF901D080D928D5B8D180FC81DF2AA8
:103CE000D8B8F9012281262B2BB943980000439ABA
:103CF000D6B02D81292730E02F5F3B4FF90120817D
:103D0000D226D2FC8A299713DACF911103C042152B
:103D100053054CF4299A298125B9E8B8BBB82998EC
:103D200072509111CACF4F5F5F4F9096A3CF439AC5
:103D3000299A7894399A882309F471C090910501E1
:103D400090FF66C0209106013091070121153105D1
:103D500021F02D30310509F05BC090E0EA81FB8154
:103D600022E0E038F10508F420E002C0880F991F36
:103D70002A95E2F74091D702482B4093D702209131
:103D8000D602209530E082239323892B09F040C08E
:103D90004F3009F044C03CC0F894D694C794912C9D
:103DA000812CC814D90409F45CC0C4018027912770
:103DB0008927E82FF0E0EF5FFB4F7080A72CB12C34
:103DC000B594A794E72CEE0CB72CBB0CBB0C8A81E6
:103DD0009B810E949F152998C4010E949F154398BA
:103DE000439A96B14398439A86B14398439A36B121
:103DF0004398439A26B1E326B226EB287926E72892
:103E0000A826AE28A2FE28C07894439A299A399A07
:103E10008091D8028823D9F082E08093D8020F9055
:103E20000F900F900F900F90DF91CF911F910F91F6
:103E3000FF90EF90DF90CF90BF90AF909F908F90CA
:103E40007F906F905F904F903F902F90089563E028
:103E500081E08F0D0E940718299A3FEF831A930A79
:103E6000A0CF789480E066CF6F927F928F929F92DE
:103E7000AF92BF92CF92DF92EF92FF920F931F9378
:103E8000CF93DF938C0184B18F7C84B985B180633B
:103E900085B985E095E00E94F5178EE1A82EB12C3A
:103EA00090E1C92ED12CC4E0D0E02FE1E22EF12C1C
:103EB0003EE2832E912C4DE3642E712C8FE696E02A
:103EC0000E942B0BB0929405A0929305D092960578
:103ED000C09295058DEB91E00E944D11D093940511
:103EE000C0939305F0929605E092950583EB91E0DF
:103EF0000E944D11D0939405C0939305909296051E
:103F000080929505C8010E944D11D0939405C093ED
:103F10009305709296056092950587EA91E00E945C
:103F20004D1185E095E00E94CB178111C7CFDF913D
:103F3000CF911F910F91FF90EF90DF90CF90BF90A6
:103F4000AF909F908F907F906F90089584B18F7CF9
:103F500084B985B1806385B962E085E095E00E940F
:103F6000E20B85E095E00E94B6178FE696E00E948E
:103F70002B0B81E00E94D80486E490E09093940596
:103F8000809393058EE190E090939605809395053C
:103F90000895CF93C82F0E94A61F8FE592E00E943C
:103FA0004D116C2F70E090E080E04AE00E942516F1
:103FB000CF910C94660C5F926F927F928F929F923A
:103FC000AF92BF92CF92DF92EF92FF920F931F9327
:103FD000CF93DF938C0178942D982C988FB7F89419
:103FE000C090ED03D090EE03E090EF03F090F0036B
:103FF0008FBF4601570180E6880E8AEE981EA11CED
:10400000B11CE8EECE0EE3E0DE1EE11CF11C8CE3F9
:10401000582E9BE1692E712C2FB7F8948091ED03F7
:104020009091EE03A091EF03B091F0032FBFAC018C
:10403000BD01481959096A097B0977FF1EC08C190F
:104040009D09AE09BF09B7FD12C0F8EECF0EF3E02F
:10405000DF1EE11CF11C5A94852D0E94C91F2D986A
:104060002C98C0E0D1E0F80109952197E1F7F8011B
:104070000995C3010197F1F7CFCFF894DF91CF9164
:104080001F910F91FF90EF90DF90CF90BF90AF9076
:104090009F908F907F906F905F9008952F923F92A6
:1040A0004F925F926F927F928F929F92AF92BF9248
:1040B000DF92EF92FF920F931F93CF93DF93EC0168
:1040C0008091050180FF97C08091E1029091E2020A
:1040D000009709F490C00E94A03D14E0180FDD2461
:1040E000D39429EF21031001112437FE03C08FEF71
:1040F000281A380A3594279490E4290E311C84B18B
:104100008F7C84B985B1806385B985E095E00E9494
:10411000F51799E1692E712C01E210E026E4E22EF8
:10412000F12C3FE0A32EB12C4EE1842E912C56E3CE
:10413000452E512C85EC95E00E942B0B80910501BA
:1041400081FF68C082E390E090939405809393058B
:1041500010939605009395058DE592E00E944D1110
:104160008FE696E00E942B0B8091050181FD1FC018
:10417000F0929405E0929305B0929605A092950571
:1041800085E592E00E944D11F0929405E09293052E
:1041900090929605809295056091010170910201BF
:1041A00080910301909104014AE00E942516DD20D0
:1041B00069F020E130E040E850E06AE270E090E031
:1041C00080E00E942C0A80E00E94D804309294057E
:1041D000209293055092960540929505DD20F9F0C6
:1041E0008091E1029091E2020E944D1180E592E0FF
:1041F0000E944D111DC0CE010E94A03D182F80913C
:10420000E9039091EA03009719F00E94A03D180F6E
:10421000D12C67CF709294056092930599CFCE010F
:104220000E944D118091E9039091EA03009701F7F4
:1042300081E00E94D80485E095E00E94CB178111AF
:1042400079CFDF91CF911F910F91FF90EF90DF9089
:10425000BF90AF909F908F907F906F905F904F90A6
:104260003F902F9008951F93CF93DF93809101018A
:1042700090910201A0910301B09104010297A10560
:10428000B10588F10E94A61F6091010170910201A1
:1042900080910301909104014AE00E9425160E943A
:1042A000660C8091050181FD2BC0809101019091E8
:1042B0000201A0910301B0910401803422E492072D
:1042C0002FE0A207B105E0F40196A11DB11D809376
:1042D000010190930201A0930301B0930401DF91C7
:1042E000CF911F910895E0910601F0910701EE0F23
:1042F000FF1FEA5EFB4F859194910E944E20D1CF23
:104300000E94860CE0910601F0910701EF30F10563
:1043100088F02D982C9A68EE73E080E090E00E947F
:1043200013052D982C9868EE73E080E090E00E94D1
:104330001305EFCFEC59FD4FC4911C2F12951F7040
:10434000CF70D091E302DD2339F0C5E0D0FFC6E0A5
:10435000D33089F1D0E011E0612F82E090E00E943B
:10436000C40C6CE271E080E090E00E9413056C2FB9
:1043700083E090E00E94C40CDD23B1F060ED77E0B3
:1043800080E090E00E94130561E082E090E00E94EE
:10439000C40C6CE271E080E090E00E9413056D2F88
:1043A00083E090E00E94C40C60ED77E080E090E054
:1043B0000E941305D1CFD6E0CECF2D982C98E09156
:1043C0000601F0910701EE0FFF1FEA5EFB4F85919A
:1043D00094910E944E208CE30E94C91F2D982C9826
:1043E00008952F923F924F925F926F927F928F9299
:1043F0009F92AF92BF92CF92DF92EF92FF920F9374
:104400001F93CF93DF93CDB7DEB7AC970FB6F89479
:10441000DEBF0FBECDBF8FE384B98AE285B98BE1E1
:1044200087B988E088B983EC8AB91BB840E070E0AE
:1044300060E090E080E00E94F01541E070E060E014
:1044400081E090E00E94F01570E060E090E080E094
:104450000E94D715F82E70E060E081E090E00E94A5
:10446000D715082F40E060E270E084E090E00E9401
:10447000F01541E060E470E088E090E00E94F01503
:1044800060E270E084E090E00E94D715182F60E4AD
:1044900070E088E090E00E94D715F11002C0013072
:1044A00039F0111102C0813019F060E080E038C1AC
:1044B000439A40E070E060E090E080E00E94F015F8
:1044C00070E060E090E080E00E94D715882379F0EA
:1044D00040E060EC70E090E080E00E94F01560EC5D
:1044E00070E090E080E00E94D7158111DECF40E0BF
:1044F00070E060E090E080E00E94F01541E070E044
:1045000060E080E091E00E94F01570E060E090E0F3
:1045100080E00E94D715811107C081E090E0909360
:1045200007018093060130C040E070E060E090E059
:1045300080E00E94F01541E070E060E080E890E0EB
:104540000E94F01570E060E090E080E00E94D715D6
:104550008823B1F040E070E060E090E080E00E94ED
:10456000F01541E060E870E090E080E00E94F01516
:1045700070E060E090E080E00E94D7158111D2C029
:104580001092070110920601809106019091070197
:10459000019709F067C040E070E060E090E080E0E3
:1045A0000E94F01540E060E071E090E080E00E9441
:1045B000F01540E070E060E080E091E00E94F015CE
:1045C00040E060E071E080E091E00E94F015399AEF
:1045D00090E080E00E949F1529982B98419A000056
:1045E00043980000439A4198000043980000439A82
:1045F000419A000043980000439A41980000439874
:1046000000000000439A00002B9A0000299A41986C
:10461000399890E080E00E949F1529980000439807
:104620000000439A36B1000043980000439A26B137
:10463000000043980000439A96B1000043980000A0
:10464000439A86B1299A399A32FF0CC022FD0AC0DA
:1046500092FF08C082FD06C082E090E090930701BF
:1046600080930601E0910601F09107018091050118
:1046700080FF04C081E691E0309731F0EE0FFF1F1C
:10468000EA5EFB4F859194910E94341F8FE384B9B9
:104690008AE285B98091060190910701892B19F46E
:1046A00081E08093D80280910601909107010197E3
:1046B00061E1029708F060E143EC85E10E948D1A08
:1046C0008FE384B98AE285B98BE187B988E088B93C
:1046D00083EC8AB91BB88091060190910701439A37
:1046E000299A2091050120FF20C00097F1F440E1B4
:1046F00056E160E071E080E091E00E942C0D909323
:10470000D5028093D4029C01277F232BF1F08115E1
:1047100020E89207D1F088319105B9F061E081502D
:104720000E9407188BE090E0FACE29E0289FF00164
:10473000299FF00D1124EE5CFD4F6381748140E1EF
:1047400056E1818192810E94181C8091060190910E
:10475000070129E0289FF001299FF00D1124EE5C4C
:10476000FD4F818192819CA38BA38091050180FDE7
:104770001092D702F12C80910601909107018230AE
:10478000910509F0D7C060E08F2D0E947B2D21E0BC
:10479000F212CDC08091050180FF04C08091D70244
:1047A0008093D602809106019091070129E0289F0D
:1047B000F001299FF00D1124EE5CFD4F858181FFF2
:1047C00006C08BA19CA1969587959CA38BA369E0BD
:1047D000762E54E0E52E10E000E0ABA1BCA10A1754
:1047E0001B0709F472C28091060190910701789E1F
:1047F000F001799EF00D1124EE5CFD4FA380B48092
:1048000041805280858181FF02C056944794B1E077
:104810004B1A5108399A439AC80124E09695879516
:104820002A95E1F7FC01E00FF11FFAA3E9A38091BB
:10483000060190910701789EF001799EF00D1124F8
:10484000EE5CFD4F858181FDE1C1450185E09694D7
:1048500087948A95E1F7F894C8010E94D2152B98A5
:1048600085B1D8B0CBB0282F22602DA3B12CA12CBC
:1048700030E020E08A7E8EA34D2D4C7E4FA38C2D00
:104880008C7388A7A82DA150BB0B1D01281508F01B
:10489000AAC1F901E157FE4F5491F901E158FE4FC9
:1048A0008491F901E159FE4F6491BEA15B2BEFA108
:1048B000E82B48A5642B89A19AA18A259B25F92F6D
:1048C000F827299A000029987EE142E0470F4150DD
:1048D000842F90E0DC01AA0FBB1FA80FB91FA05FB7
:1048E000BE4F9C9112968C91129711966C906E2AE5
:1048F000AF2FA427B0E0AF5FBB4FAC91A2FF02C0C7
:10490000689461F8439A952B95B9862B8BB968B852
:1049100043984713DCCF41115BC1221533050CF4DA
:1049200057C12F5F3F4F80E2A80EB11CAFCFFF24CD
:10493000F39421CF8130910529F460E08F2D0E94FE
:104940004B2E25CF29E0289FF001299FF00D11243F
:10495000EE5CFD4FA180B28023813481F4E07F2E94
:104960002130314010F4E2E07E2E2091050120FF3D
:1049700006C0EE24E394009719F00D9709F0E12C9E
:104980003BB13C73FE01319620E090E0892F8370AB
:10499000832B422F407C842B81939F5F205F90313B
:1049A000A9F788E0E8E0F1E0DE01519601900D9270
:1049B0008A95E1F788E08D8F88E18E8F89E08F8F6F
:1049C00089E188A3439AF89410E000E02501B2E061
:1049D0004B0E511C4E01E9E18E0E911C041515057C
:1049E00008F0F3C00A151B0508F057C0C801FF20E6
:1049F00021F0C5010197801B910B2F2D2827322F05
:104A0000317020FD32E022E023274D8D432B498F6A
:104A10004E8D422B4A8F4F8D342B3B8F38A1232B49
:104A20002C8F399A0E94D2152B9845B178B1DBB002
:104A3000C42E6894C1F84A7E1401D1016D901D0105
:104A4000DE0151966D91642BCE01019650E065B95F
:104A500068B8439AFC0120812BB94398439A252FCB
:104A60002160E1E0F0E0EC0FFD1FE20FF11D20817D
:104A70002BB94398439A299AC5B878B9DBB82998D5
:104A80005E5F0296503119F78A169B06D9F6822D81
:104A90008819871590F22B9A299A0230110508F48B
:104AA00091C06801F2E0CF1AD108FF2031F0650112
:104AB0002FEFC21AD20AC01AD10A8F2D8C25982F37
:104AC000917080FD94E084E089279B8F998F8C8F73
:104AD0008A8F41983998C6010E94D21585B178B164
:104AE0006BB0382F326039A38A7E299A000029984A
:104AF00062E040E8C416D10408F460E06E019DE174
:104B0000C90ED11C1E01A9E12A0E311CDAA6C9A6C4
:104B1000E9A5FAA52191FAA7E9A72DA3D101ED9165
:104B20001D01EEA3DE0151964D91482B90E045B951
:104B3000FDA1F8B950E0E92FE52B21E030E02C0F82
:104B40003D1F2E0F311DF90120812BB94398000024
:104B5000439A26B1FEA12F2722FF1EC0E11008C0F4
:104B60007894299A399A62E08F2DDACD51E0E3CF1B
:104B70002BB126FB222720F9262BE1E0F0E002C032
:104B8000EE0FFF1F2A95E2F79F013091D702232BEA
:104B90002093D7022F3021F3513041F7299AF9A100
:104BA000F5B978B96BB829989E5F903109F0BFCFFD
:104BB0008A169B0609F0B8CF99A59C19971508F499
:104BC000A7CF299A0F5F1F4F09CF7894399ADFCD6D
:104BD000439A299A9DA195B9D8B8CBB82998725013
:104BE000411173CE9ECE439A2B9A299A789420EE47
:104BF0003DE14E2DB201C8010E94F10D8091D80215
:104C0000823009F46AC00F5F1F4FE7CD2B98F894EC
:104C1000B694A794D12CC12CAC14BD0409F43BC0AC
:104C2000C8010E949F15299889A19AA18C259D25CC
:104C30008927E82FF0E0EF5FFB4F6080862C912CF6
:104C400095948794262C220C362C330C330CC601F9
:104C50000E949F1562FE17C0419A4398439A82FEB4
:104C600014C0419A4398439A22FE11C0419A439836
:104C7000439A32FE0EC0419A4398439A299AAFEF65
:104C8000CA1ADA0AC9CF4198E8CF4198EBCF4198C8
:104C9000EECF4198F1CF78942B9A0115110509F4C4
:104CA000ADCF6E2DC80101970E94E01D04151505BA
:104CB00029F46E2DC8010E94E01DA0CFF894C80110
:104CC0000E94D215299A789499CFB5E0EB16C1F0DD
:104CD0000E949D0E45E0E42E7ECD1092D802EDE0BC
:104CE000F0E0F0930701E09306018091050180FF59
:104CF00004C08091D6028093D7020E94AD0E69CD88
:104D00001092D8028091050180FF79C08091060140
:104D100090910701009719F00D9709F070C040912C
:104D200000019091D7024F3F09F0D8C0992309F4B0
:104D3000CAC0492F50E0EFEFE90FEC3008F0CCC0CB
:104D4000F0E0EB55F94D0C94E53D462749275227F5
:104D50004C27B1266C276C274F276C2743276C27DD
:104D600055272EE331E03093E2022093E1029A01CD
:104D700021503109242335232115310509F498C028
:104D8000933019F09C3009F096C0F092E302232B87
:104D900091F181E0933019F09C3009F080E09FE3BD
:104DA00094B99AE295B99BE197B998E098B993ECD8
:104DB0009AB91BB89091D70220E830E0933011F0F7
:104DC00030E020E03093DD022093DC0220E830E088
:104DD000953011F030E020E03093DF022093DE02C6
:104DE000882309F46BC060E071E080E890E040E166
:104DF00056E10E94181C8091D70280930001809197
:104E0000050181FD21C06091010170910201809135
:104E10000301909104012AE030E040E050E00E945C
:104E2000C33D613071058105910571F480910601E2
:104E3000909107018230910509F064C00E94DD2144
:104E400061E080E00E947B2D0E943321809105016A
:104E500081FF29CCAC960FB6F894DEBF0FBECDBF54
:104E6000DF91CF911F910F91FF90EF90DF90CF9046
:104E7000BF90AF909F908F907F906F905F904F907A
:104E80003F902F90089520E331E06DCF23E531E08E
:104E90006ACF29E231E067CF27E331E064CF25E430
:104EA00031E061CF2AE531E05ECF2CE431E05BCF29
:104EB00043E0F42E6ACF82E0F82E67CF60E870E01E
:104EC00080E091E094CF8091D4029091D502009738
:104ED00009F491CF97FF22CC62E0E8CA242F30E09A
:104EE00020953095892F90E082239323892BA1F779
:104EF000411185CF8091D4029091D502009709F499
:104F00007ECFE8CF019709F09FCF0E94DD2161E0BD
:104F100080E00E944B2E98CF1F920F920FB60F92F7
:104F200011242F933F938F939F93AF93BF938091BF
:104F3000ED039091EE03A091EF03B091F003309157
:104F4000EC0323E0230F2D3758F50196A11DB11D69
:104F50002093EC038093ED039093EE03A093EF0373
:104F6000B093F0038091F1039091F203A091F303C9
:104F7000B091F4030196A11DB11D8093F1039093AC
:104F8000F203A093F303B093F403BF91AF919F9109
:104F90008F913F912F910F900FBE0F901F901895FA
:104FA00026E8230F0296A11DB11DD2CF86B185FB45
:104FB000882780F94B9982604A9984600895E9E2D4
:104FC000F0E0883030F0E6E2F0E08E3010F4E3E21A
:104FD000F0E0208130E0883018F08E3050F48850B6
:104FE000A90102C0559547958A95E2F7CA018170DB
:104FF00008958E50F5CF682F81E095E00C94FB0E5C
:10500000EF92FF920F931F93CF93DF93062F7A01B6
:10501000122FC82FD0E01092940510929305D093D0
:105020009605C093950582E093E00E944D11802F74
:105030000E94FB278FEF92E00E944D11C7010E9452
:105040004D1189E690E09093940580939305D09359
:105050009605C093950588EF92E0112311F08CEF2F
:1050600092E0DF91CF911F910F91FF90EF900C9400
:105070004D118F929F92AF92BF92CF92DF92EF929B
:10508000FF920F931F93CF93DF93C82F6B014A01B9
:1050900084B18F7C84B985B1806385B985E095E062
:1050A0000E94F517D0E089E1A82EB12C9CE0E92EF2
:1050B000F12C0AE210E0D0939405C0939305B092CE
:1050C0009605A0929505C6010E944D11F092940597
:1050D000E09293051093960500939505C4010E94F4
:1050E0004D1185E095E00E94CB178111E4CFDF914F
:1050F000CF911F910F91FF90EF90DF90CF90BF90D5
:10510000AF909F908F900895FF920F931F93CF932E
:10511000DF9384B18F7C84B985B1806385B985E0E4
:1051200095E00E94F5170BE010E0CEE3D0E08FE6AB
:1051300096E00E942B0B81E00E94D804209105018B
:10514000217044E253E061E38EE00E940028209148
:105150000501FF24F394269521702F254FE153E09C
:1051600062E38CE10E9400282091050122FB2227A6
:1051700020F92F2546E153E063E38AE20E940028EC
:105180001093940500939305D0939605C0939505CD
:1051900086E093E00E944D1185E095E00E94CB17D8
:1051A0008111C5CFDF91CF911F910F91FF9008958D
:1051B0002F923F924F925F926F927F928F929F9227
:1051C000AF92BF92CF92DF92EF92FF920F931F9315
:1051D000CF93DF9300D000D0CDB7DEB77C016983D9
:1051E0004A83590184B18F7C84B985B1806385B9C4
:1051F00085E095E00E94F51782E3282E312C91E29C
:10520000892E912C9A81892F90E09C838B8326E3B1
:10521000C22ED12C2801012E000C66087708C70188
:105220000E942B0B30929405209293059092960544
:105230008092950589810E94FB278FE696E00E9467
:105240002B0BEB81FC81F0939405E0939305D092B6
:105250009605C0929505C5010E944D118091FB03F2
:10526000882359F1EBEFF3E001900020E9F7AF015B
:105270004C5F53406BEF73E081E095E00E94D30EEA
:1052800085E095E00E94CB178111C9CF0F900F9058
:105290000F900F90DF91CF911F910F91FF90EF90A2
:1052A000DF90CF90BF90AF909F908F907F906F9046
:1052B0005F904F903F902F9008950F3F100701F39C
:1052C0004AE0C301B2010E942516DACFEC0184B195
:1052D0008F7C84B985B1806385B985E095E00E94B3
:1052E000F51732E3A32EB12C41E2C42ED12C5AE0A3
:1052F000E52EF12C60E3862E912C77E0772E00E4EA
:1053000010E085EC95E00E942B0BB0929405A092E2
:105310009305D0929605C09295058DE393E00E9487
:105320004D118FE696E00E942B0BF0929405E092CF
:10533000930590929605809295058DE293E00E94E8
:105340004D11CE010E94A03D9C01729EC001739E32
:10535000900D1124969587959801281B390B309351
:105360009405209393051093960500939505CE011F
:105370000E944D1185E095E00E94CB178111C1CFAD
:1053800084B1806384B92D9A2C98FFCF2F923F92DD
:105390004F925F926F927F928F929F92AF92BF9245
:1053A000CF92DF92EF92FF920F931F93CF93DF93F1
:1053B0006C0184B18F7C84B985B1806385B985E047
:1053C00095E00E94F517B2E12B2E312CC2E24C2E53
:1053D000512CD4E36D2E712C17E0812E912C0FE30C
:1053E000A02EB12C03E010E0F12CE12CD0E0C0E0C5
:1053F000FE01A3E0F595E795AA95E1F7EE0DFF1DF7
:10540000ED58FD4FE491F0E08C2F877002C0F595C8
:10541000E7958A95E2F7E0FF0CC022E030E042E039
:1054200050E0B801CE01880F991F8D5B9F4F0E94FD
:105430002C0A2196CD31D105D9F684E0E80EF11C75
:105440000E5F1F4F0D33110589F682E095E00E9433
:105450002B0B309294052092930550929605409222
:10546000950586EF92E00E944D118FE696E00E942E
:105470002B0BC6010E94A03D9C0143E0220F331F6D
:105480004A95E1F7821B930B805C9F4F97FD019635
:105490009595879597FF02C090E080E090939405E2
:1054A000809393057092960560929505C6010E94BF
:1054B0004D1188E594E00E942B0B8091050180FF3F
:1054C00041C028E030E040E450E068E370E090E064
:1054D00080E00E942C0A80E00E94D804109294057B
:1054E00010929305B0929605A092950581EF92E0F7
:1054F0000E944D118BEE92E00E944D1180910501AA
:1055000080FF07C087EE92E00E944D1181E00E946B
:10551000D80485E095E00E94CB17811163CFDF911D
:10552000CF911F910F91FF90EF90DF90CF90BF90A0
:10553000AF909F908F907F906F905F904F903F9033
:105540002F9008959092940580929305CBCF9F92CF
:10555000AF92BF92CF92DF92EF92FF920F931F9381
:10556000CF93DF93B82EA62E80910601909107016C
:1055700029E0289FF001299FF00D1124EE5CFD4FDA
:105580009480C180D280D0E0C0E0CC15DD0509F464
:1055900044C08C2F8B258170E82ECE010E9474119F
:1055A00088B1807F88B987B18F6087B92A9A2B9894
:1055B000F894F12CF91458F505B10F7E18B11F7E3F
:1055C000F0FC0061F1FC106105B918B988B1807F69
:1055D00004E010E020E4210F912F91709E1115C07E
:1055E0009AE0289A982B98B91BB928981F5F211325
:1055F000F3CF2B9A6F2DCE010E9486112B9888B184
:10560000807F015039F7F394D5CF95E0EACF289AFF
:105610002B9A299A78942196B8CFAA2021F08CE66B
:1056200091E10E94DB1FF12CE12CCE15DF0509F47E
:105630004BC08B2D8E258170C82EC7010E9474111E
:1056400088B1807F88B987B1807F87B92A98F8941C
:10565000D12CD91408F031C005B10F7E18B11F7ECE
:10566000D0FC0061D1FC106105B918B904E010E06C
:1056700020E4210F1BB92898289A86B18F70912FAA
:1056800091709C110CC09AE0981759F078942A9A5E
:10569000299A62E0A11065E08B2D0E94071895E021
:1056A000F3CF1F5F2113E6CF28986D2DC7010E940D
:1056B00086110150E9F6D394CCCF2A9A299A78948E
:1056C0008FEFE81AF80AB1CFDF91CF911F910F91B8
:1056D000FF90EF90DF90CF90BF90AF909F90089594
:1056E0002F923F924F925F926F927F928F929F92F2
:1056F000AF92BF92CF92DF92EF92FF920F931F93E0
:10570000CF93DF93CDB7DEB7C254D1090FB6F8946B
:10571000DEBF0FBECDBF782E362ECE0101960E9481
:10572000941218B1107E812F846022968FAF229739
:10573000912F946123969FAF2397F894F12CE12C3D
:105740004E01E1E48E0E911C872D8E258170582E1E
:105750002B9AC7010E9404152B98419885B18A7E27
:10576000482E22960FAD2297612C202E561071C024
:105770002FE9A22E21E0B22EF5014491442945B92A
:10578000CE0101966C01429AF60181916F018BB9AD
:1057900028B842988E169F06B1F7419A602FC7012C
:1057A0000E942815FFEFAF1ABF0A87EAA81681E00A
:1057B000B80611F723960FAD239791E0691246C002
:1057C000419A2B9AEFEFEE1AFE0AE114F4E0FF067D
:1057D00009F0BACF332021F084E892E10E94DB1F68
:1057E000812F8660582E1661412E10E000E0872D33
:1057F00080278170982E2B9AC8010E9404152B983F
:1058000085B18A7E882EA52CB12C612C9B1411F0B9
:1058100098E0692E8FE9E82E81E0F82EF701449197
:10582000482945B9A8B8FE01319681918BB94298B3
:105830000000429A86B1862583FF11C078942B9A86
:1058400062E0311065E0872D0E940718662463949A
:105850008CCF689420F88CCFBB24B394D6CFCE16CF
:10586000DF0619F742986A2DC8010E942815FFEF3C
:10587000EF1AFF0A87EAE81681E0F80679F6A42C09
:1058800091E0B912E9CF2B9A0F5F1F4F0115E4E0A9
:105890001E0709F0ACCF7894CE5BDF4F0FB6F894BB
:1058A000DEBF0FBECDBFDF91CF911F910F91FF9053
:1058B000EF90DF90CF90BF90AF909F908F907F90B0
:1058C0006F905F904F903F902F9008959F92AF926E
:1058D000BF92CF92DF92EF92FF920F931F93CF93DD
:1058E000DF93B82EA62E0E942413F894D0E0C0E0D7
:1058F000CB2CD12C9C2E8C2F0E94E1122998F12CBC
:10590000E12CCE018E259F25817099278C159D0550
:1059100009F4CCC085E0429A05B1067F182F1270B9
:10592000110F110F012B182F147016951695012BBE
:1059300005B948B1457F182F1170110F412B182F51
:105940001870412B48B905B10B7E1E2D1170110F37
:10595000110F012B1E2D1270110F110F110F012BA2
:1059600005B900271E2D14701295110F012B1E2D45
:10597000187012951695012B1E2D107816951695F8
:10598000012B1E2D107212951F70012B1E2D1074ED
:10599000129516951695012B1E2D107116951695BC
:1059A000012B0BB94298299A892D0E94A51229989A
:1059B0008FEFE81AF80AE11481E0F80609F0A1CFA8
:1059C000299A449A2196C11581E0D80709F092CF0F
:1059D000AA2021F08CE892E10E94DB1F0E9417139D
:1059E000D0E0C0E09C2E8C2F0E94E1124098F12C58
:1059F000E12CCE018E259F2581709927C816D906E6
:105A000009F056C08AE005B10B7E1E2D1170110FF2
:105A1000110F012B1E2D1270110F110F110F012BE1
:105A200005B900271E2D14701295110F012B1E2D84
:105A3000187012951695012B1E2D10781695169537
:105A4000012B1E2D107212951F70012B1E2D10742C
:105A5000129516951695012B1E2D107116951695FB
:105A6000012B0BB9429800000000000006B113B1F1
:105A70002227302F32703695230F312F387036950C
:105A80003695230F312F3170330F330F230F0870EA
:105A9000200F922F429A891769F07894409A449A7D
:105AA00062E0A11065E08B2D0E9407188AE033CFD9
:105AB00085E0A9CF4298892D0E94A5128FEFE81AA0
:105AC000F80AE11481E0F80609F093CF409A449A6D
:105AD0002196C11581E0D80709F084CF7894DF9131
