:100000000C94F9050C9421060C9421060C942106FD
:100010000C9421060C9421060C9421060C942106C4
:100020000C9421060C9421060C9421060C942106B4
:100030000C9421060C9421060C9421060C942106A4
:100040000C9401280C9421060C9421060C94210692
:100050000C9421060C9421060C9421060C94210684
:100060000C944B280C9421064D534D3337333220DA
:1000700033324B783100544D5334353332203332E0
:100080004B7831003430323720344B7831003438FB
:1000900031362031364B783100343131362031362B
:1000A0004B78310034313130303020314D783100EF
:1000B00035313434303220314D78342D53430035CE
:1000C000313434303020314D7834003531343235EC
:1000D00038203235364B78342D53430035313432A5
:1000E0003536203235364B783400343436342036C9
:1000F000344B783400343431362031364B78340088
:100100003431323537203235364B78312D4E4D0073
:100110003431323536203235364B78310034313691
:10012000342036344B7831000010041401110515C9
:100130000000010102020303040405050606070787
:100140002020212122222323242425252626272777
:100150004040414142424343444445454646474767
:100160006060616162626363646465656666676757
:100170008080818182828383848485858686878747
:10018000A0A0A1A1A2A2A3A3A4A4A5A5A6A6A7A737
:10019000C0C0C1C1C2C2C3C3C4C4C5C5C6C6C7C727
:1001A000E0E0E1E1E2E2E3E3E4E4E5E5E6E6E7E717
:1001B000436865636B696E672E2E2E004465746517
:1001C000637465643A0052414D2D54455354455271
:1001D00000410056657273696F6E3A004800FF3F38
:1001E00030FCFFF3FF03FF3F30FCFFF3FF0303305E
:1001F000CF03F03300030330CF03F0330003F333B6
:10020000CCF0CC303F03F333CCF0CC303F03F333AE
:10021000C3F0C3333F03F333C3F0C3333F03F333BC
:10022000CFCF30303F03F333CFCF30303F030330F5
:10023000F330303000030330F33030300003FF3F41
:10024000333333F3FF03FF3F333333F3FF03000054
:10025000C00CFC0300000000C00CFC030000CCF349
:10026000FF33C0CCCF00CCF3FF33C0CCCF003F0076
:10027000CCCC03300F003F00CCCC03300F000FF389
:10028000C0FFC0C303030FF3C0FFC0C30303F0C329
:100290000F33FCC0C300F0C30F33FCC0C300033CEA
:1002A000F333CF0CC000033CF333CF0CC00030CF8E
:1002B00000FFF30C3C0330CF00FFF30C3C033FFC8A
:1002C0003F0C30FF3F003FFC3F0C30FF3F00FCC3C2
:1002D000FC0030FFC000FCC3FC0030FFC000F33066
:1002E0000C3F0F003F00F3300C3F0F003F00CC0FDE
:1002F000CCFC0FF33300CC0FCCFC0FF333000F3FDB
:10030000F3C0FC3CF3030F3FF3C0FC3CF303C3C357
:10031000033300F00300C3C3033300F00300FC30D9
:100320000F0C3FFFF303FC300F0C3FFFF303000003
:100330003FF3C303F30000003FF3C303F300FF3FA9
:1003400033CFC0330303FF3F33CFC0330303033046
:100350000C30F3033F0303300C30F3033F03F3335C
:10036000CFCC0CFFF303F333CFCC0CFFF303F33309
:10037000FFF033CC3000F333FFF033CC3000F333F5
:1003800000CCC03FCC00F33300CCC03FCC000330E6
:100390000F0303C33F0003300F0303C33F00FF3FBE
:1003A000C0FC3300F300FF3FC0FC3300F300536593
:1003B0006C662054657374204661696C21004200AC
:1003C000576972652050696E32302D3E616C6C0049
:1003D0004E6F2053686F72747320666F756E640081
:1003E000436865636B696E672053686F727473004E
:1003F0005265736973746F7273204F4B00284C29D8
:100400000028482900343136342F33373332283F1F
:10041000290000000000240027002A00000000003E
:10042000250028002B0000000000230026002900E2
:10043000040404040404040402020202020203038A
:100440000303030302020301020408102040800199
:10045000020408102001020408102040804000001F
:10046000000900030200000405080000000000006D
:100470000000000000000000020001000380008076
:100480000280018003000104051011141500000210
:100490000201010303000002020101030300000244
:1004A0000201010303000002020101030300100026
:1004B00010001000100010001000100010001000BC
:1004C00010001000100010001000100010000000BC
:1004D00000000000000404040404040404101010CC
:1004E000101010101014141414141414140080009C
:1004F0008040C040C00080008040C040C00000007C
:1005000000000000000101010101010101000001E2
:1005100001000001010000010100000101526566B7
:10052000726573682054696D657200420053686F8C
:1005300072742050696E200043004661696C6564E6
:10054000205061747465726E200042003F00416467
:1005500064726573736C696E652041004200446586
:1005600066656374206F72206E6F2052414D2100CA
:1005700047001400020203030204040406000006FC
:10058000FF06FF0000000000AC200580DE002E0604
:10059000D2D88C003007F3D855AE0A3107F3D825EE
:1005A000D91A320AB4D8A998412C4700330BB4D8D1
:1005B0008C0C9246322900340AB4D846558D9841A5
:1005C00002350AB4D80C0D36924901360AB4D8A9BE
:1005D0000C56944901370BB4D88C0C620631830851
:1005E000380AB4D8A99854944901390AB4D8A9282A
:1005F000D30649013A07EAD88C38025608B4D844E1
:1006000067920A6509A4D8A9343250006908F3D862
:100610006524AB016E07A4D8AC68066F08A4D8A9FE
:100620002893027208A4D8ACA841067308A4D80D78
:100630008D860200000004FFFF0000020004050692
:10064000060101072020000020002000000000001B
:10065000008D41402038989107CC7920A4A6D64A35
:10066000ECB4E2A892622A2A84AA42A632622AAD97
:1006700024314A22A2A612AAD20B337B62A14718C8
:1006800081C41B8EB8D20E4B6BA9961E08E701439E
:100690001800424B2038989107CC7920A4A6D64A5E
:1006A000ECB4E2E810458E3908A1438E32EA10A47A
:1006B00088424229A12ABD3033CD32BCB42AA1944C
:1006C000408A28448E32EA9083103AE610450EE2C2
:1006D0004A3B2CADA55A7A209C070C610000000013
:1006E00004FFFF00005F0003030304030504060E7C
:1006F00000FE0AFE0BFE017002DC0428200500F259
:1007000007210752C3C713012208A5DE87848B0087
:10071000230D56C20F89C542A258482C0024115EF1
:10072000BE978C12D11219CE24BA4468220025102B
:1007300056C28F8452114D83D191A4429100260E4E
:1007400056C2D748A2A7918452D12411270722DF8D
:10075000C72100280CEDBA9F484D24D351265429B7
:100760000DEDBA87504D28D3492652032A0D3ECEAF
:1007700047444B8426A344B4042B0A3EC69750C971
:100780002454022C0823BBC74442012D060ED287F5
:10079000012E0612C307012F0E6EBAA736A14CA870
:1007A0002694091501300B56C20F45C49F2414002E
:1007B000310A56C2976C44D42703320D56C20F45F6
:1007C0004412CA84328D06330F56C20F4544128A32
:1007D000A64212494201340D56C267506D44D1C53C
:1007E000269400350F56C2C72128AC88844212498E
:1007F0004201360E56C2D748422256449C24140069
:10080000370C56C2C7214411CA847A02380F56C227
:100810000F45C4242151444C120A00390E56C20F10
:1008200045C4495224514423003A073AC707990066
:100830003B0A4BBF8F3A6822A1003C084EC2A74C2E
:10084000571D3D0726CA871D6A3E094EC287543789
:100850001D013F0E56C20F45449229AAC3842200AF
:10086000400C56C2D74842B974599112410C56C235
:100870000FE510E274183109420D56C24745C41401
:10088000A988385D00430C56C20F45C4A8134942DD
:1008900001440C56C20749A2C42F121200450B5640
:1008A000C2C721A858116A34460B56C2C721A8589E
:1008B00011EA08470D56C20F45C4A8526292500073
:1008C000480B56C28788D361C49300490956C28732
:1008D00049A89F0C4A0B56C2A73E9228A211004B72
:1008E0000F56C287882221CD6624924489244C0861
:1008F00056C287507F344D0C56C24770443A1C4450
:100900003C094E0C56C287885469A17422094F0BCA
:1009100056C20F45C49F241400500B56C24745C40D
:10092000E922D408510E66BA0F45C453855292503D
:10093000A501520C56C24745C474D1C44900531096
:1009400056C20F454492488552898824A100540913
:1009500056C28749A83F01550A56C287887F9250E0
:1009600000560C56C287889F24249A0800570C56BC
:10097000C28788A7C343251401580F56C28788240D
:1009800021D1843212454412590C56C287884942FB
:10099000A20975025A0E56C28751269409654299DA
:1009A000D0005B09EDBAC74DFFAD005C0E6EBA8793
:1009B00050552815AA0AA542055D09EDBA474DFF15
:1009C000ED005E081EE6978C22125F0716BAC7A1DB
:1009D0000060079CE2874C01610D3EC20F45249BDD
:1009E0004848244901620B56C28750B122E2E9020D
:1009F000630B3EC20F4544D424A100640A56C2A72B
:100A000096134F9202650D3EC20F45443A0C4512B3
:100A10000A00660C56C29F8C241499843A01670E12
:100A20004EBACF4A45D32C5811492800680B56C2FC
:100A30008750B122E29300690752C307E9706A0C3C
:100A4000E5BA9F3A44A6378A64026B0E56C28750B5
:100A5000534485449228D1026C0752C3C783016D69
:100A60000A3EC2874472F840126E093EC24745C42E
:100A700027016F0A3EC20F45C4938402700B4EBA21
:100A80004745C4D3452804710A4EBACF8927495136
:100A900001720A3EC24745C4A81100730D3EC20F41
:100AA000452491AA88241400740B56C29750C92477
:100AB000D4750075093EC287884F9202760C3EC2FB
:100AC00087884942A2094500770C3EC2878874781E
:100AD000A8842200780D3EC2878824A1C9282292CA
:100AE00000790E4EBA878824D1693694288D007A11
:100AF000093EC28751A6A3017B0CEDBAD744A69349
:100B000050A6E3007C076ABBC787027D0DEDBAC71C
:100B100050A6A348A6CB08007E0A26DE4FAC22A929
:100B2000450000000004FFFF000003000505060665
:100B30000502072020000020002000000000000027
:100B4000A64332D087071B2319CA48863292A18C4C
:100B500064282738C2098E3254A10C55AC4215AB1B
:100B6000588479823318B214E520E848C622D8D0D8
:100B7000840500473E1C080533E21AD6A8474528DD
:100B80003215A9440632AF798E2B48D10C623083DE
:100B900018EB20873AC89110722484200821C8B12C
:100BA0008C5530828D852863218B58C81218F281AC
:100BB0003F48342008054F421BF8948D7CC2682BB7
:100BC0006088121892064635A94D6C62D4A2D6C42C
:100BD0009660B485AE4707615481105620C31DC48A
:100BE000908D4D680000000004FFFF0000007F2A88
:100BF0006B2A11241FBECFEFD8E0DEBFCDBF26E0A9
:100C0000A6E3B3E001C01D92A637B207E1F713E0F7
:100C1000A0E0B1E0E8E5FCE702C005900D92A63344
:100C2000B107D9F715E0C8EFD5E004C02197FE0160
:100C30000E94203CC73FD107C9F70E944B2B0C9460
:100C40001F3E0C940000662329F06A3019F0862FAD
:100C500090E008958FEF9FEF0895AF92BF92CF92EB
:100C6000DF92EF92FF920F93CF93DF93EC01DA01C3
:100C70007901942F9770E1E0F0E09F01092E01C007
:100C8000220F0A94EAF7522F6E018AE8C80ED11C8F
:100C9000F601808140E0823018F4422F813049F122
:100CA0005D01F8EFAF22E8ADF9AD28813981D901B6
:100CB00050968C918A9D90018B9D300D1124620F6E
:100CC000731FDF01A60FB71F01111AC0EA0EFB1E2A
:100CD0008C91842B85278D93AE15BF05C9F7DF91C5
:100CE000CF910F91FF90EF90DF90CF90BF90AF909A
:100CF000089550E0D5CF440F550FE114F10479F376
:100D00003C91342B35273C939F5F9770E1E0EE1ABE
:100D1000F1089111F0CF2CAD3DADA20FB31FF6013C
:100D20008081823028F4813009F051E041E0E5CF44
:100D300051E0E3CF80E0089590E080E008959B01CA
:100D4000DC011896ED91FC9141E067E10994843053
:100D500081F028F48230E9F08330F9F0089588308A
:100D600071F0893091F08530B9F4809180008F7DE9
:100D700003C0809180008F778093800008958091D8
:100D8000B0008F778093B00008958091B0008F7D80
:100D9000F9CF84B58F7784BD089584B58F7DFBCF5F
:100DA000CF93DF93282F30E0F901E25AFB4F849173
:100DB000F901E95BFB4FD491F901E05DFB4FC49170
:100DC000CC23A1F081110E94A706EC2FF0E0EE0FDA
:100DD000FF1FEA5DFB4FA591B491EC91ED2381E0FB
:100DE00090E009F480E0DF91CF91089580E090E0F9
:100DF000FACF1F93CF93DF93282F30E0F901E25A07
:100E0000FB4F8491F901E95BFB4FD491F901E05D5F
:100E1000FB4FC491CC23A9F0162F81110E94A70685
:100E2000EC2FF0E0EE0FFF1FE45EFB4FA591B491B5
:100E30008FB7F894EC91111108C0D095DE23DC93A4
:100E40008FBFDF91CF911F910895DE2BF8CFCF9305
:100E5000DF9390E0FC01E95BFB4F2491805D9B4FA9
:100E6000FC0184918823C9F090E0880F991FFC0150
:100E7000EE5EFB4FA591B491FC01E45EFB4FC59182
:100E8000D49161110DC09FB7F8948C912095822365
:100E90008C938881282328839FBFDF91CF91089569
:100EA000623051F49FB7F8943C91822F8095832350
:100EB0008C93E8812E2BEFCF8FB7F894EC912E2BEB
:100EC0002C938FBFEACF8230910538F0880F991F9D
:100ED000880F991F05970197F1F708953FB7F89488
:100EE0008091B8039091B903A091BA03B091BB036C
:100EF00026B5A89B05C02F3F19F00196A11DB11D75
:100F00003FBFBA2FA92F982F8827BC01CD01620FB0
:100F1000711D811D911D42E0660F771F881F991F6B
:100F20004A95D1F708958F929F92AF92BF92CF9238
:100F3000DF92EF92FF926B017C010E946E074B01E2
:100F40005C01C114D104E104F104B9F00E946E0700
:100F5000681979098A099B09683E734081059105E2
:100F600080F321E0C21AD108E108F10888EE880E6A
:100F700083E0981EA11CB11CE4CFFF90EF90DF909E
:100F8000CF90BF90AF909F908F9008950F931F9335
:100F9000CF93DF938C01C62F642FCC32E8F4CA3292
:100FA00008F041C0C83271F1C93209F442C080E092
:100FB000C034D0F1CF73F801EC0FF11D868D8F3F57
:100FC00091F1C031E0F00E94D00621E0892B09F4B4
:100FD00020E0F801218F27C0CD3289F140F384EB66
:100FE0008C0F823020F7CF73C00FD12FD11D8E8D83
:100FF00041112CC061E00E94270760E08E8D0E94A5
:10100000F90611C0025E1F4FD0E0F80181918F01F7
:101010008F3F31F061E0D03108F062E00E94270795
:10102000DF5FD63191F781E0DF91CF911F910F9172
:10103000089570E090E080E00E949307F4CF433081
:1010400090F785E090E00E946307EDCF62E00E9498
:101050002707E9CFCF92DF92EF92FF920F931F9372
:10106000CF93DF937C01062F10E0D0E0C0E0680151
:1010700081E0C81AD108C017D10711F182E0E81643
:10108000F104C9F083E0E816F104C1F02D9A2C9820
:1010900064EF71E080E090E00E9493072D982C9817
:1010A000CC15DD0534F464EF71E080E090E00E943F
:1010B00093072196E0CF2D982C9AEACF2D9AFCCF5A
:1010C000DF91CF911F910F91FF90EF90DF90CF9024
:1010D000089585ED8093BC008091BC0084FDFCCF19
:1010E0001092A603089520918203260F3327331F01
:1010F00021323105ECF42091A603FC0190E080E060
:10110000243069F082E00895A09182032191AC011E
:101110004E595C4FA40FB52FB11D2C930196861725
:1011200098F380918203680F6093820380E00895B2
:1011300081E0089508958FEF9FEF08958FEF9FEF5F
:1011400008958091610390E09195819591090895AA
:10115000CF93DF93CB01EA01642F0E947308CE0185
:10116000DF91CF910895CF93DF931F92CDB7DEB774
:10117000698361E0CE0101960E94730881E090E0EE
:101180000F90DF91CF910895DC011A96ED91FC91BB
:1011900030E020E00994DC011696ED91FC9130E0FE
:1011A00020E040E069E10994DC011696ED91FC91A4
:1011B00030E020E040E068E109949A01DC011696F5
:1011C000ED91FC91462F67E10994EF92FF920F9306
:1011D0001F93CF93DF931F92CDB7DEB77C018B01B6
:1011E000D8016C91673129F150F46531A0F40F906A
:1011F000DF91CF911F910F91FF90EF9008956A3189
:1012000018F16E3FA1F7F8014181498369E2C701F6
:101210000E94C4080BC0F80141814983D70116968A
:10122000ED91FC9130E020E0C70109950E5F1F4F62
:10123000D7CFF80181818983AE014F5F5F4F61E0B5
:10124000C7010E94DD08F2CF0F5F1F4FD70116962E
:10125000ED91FC9130E020E040E0C7010995C0CF5E
:10126000462FDC011696ED91FC9130E020E066E11E
:101270000994462FDC011696ED91FC9130E020E0B8
:1012800065E10994EF92FF920F931F93CF93DF9341
:10129000EC01042F79016D3009F446C050F46B3035
:1012A000C9F1693009F49FC06A3009F465C080E073
:1012B00046C06E3009F452C06F3099F70E94D408CE
:1012C000F7011381110F110F110F6C89160F60E4D4
:1012D000CE010E943909612F62956F706061CE0165
:1012E0000E943909612F6F70CE010E943009F70109
:1012F0006481606BCE010E943009F7014081518109
:101300006281660F660F660FCE010E94DD080150F4
:10131000A1F72EC06DE371E0442311F068E371E0A2
:10132000CE010E94E5080AC0411110C061E371E0DE
:101330000E94E508E881F98182898C8B81E0DF9148
:10134000CF911F910F91FF90EF9008956AE271E0A5
:101350000E94E508E881F9818389EFCF0E94D408D3
:1013600061E8CE010E943909602FCE010E94300948
:10137000CE010E94CB08E2CFEA85FB8530E020E079
:1013800040E068E2CE010995EE81FF8130E020E087
:1013900040E064E1CE01099541E06BE4CE010E949A
:1013A000C408E881F981448169E2CE010E94C40841
:1013B00040E06BE4CE010E94C408E881F9814481D9
:1013C00069E2CE010E94C40841E06BE4CE010E94B4
:1013D000C408E881F981458169E2CE010E94C40810
:1013E00062E471E09DCF87E791E0998388831C8A4E
:1013F000A5CF41E06DE40C94C408DC01ED91FC91B3
:1014000045856DE20C94C408CF93DF93EC0141E075
:101410006CE40E94C408CE01DF91CF910C94FD09C9
:10142000CF93DF93EC01662379F00E94F909CE0196
:101430000E94FD09CE010E94040A40E06CE4CE0146
:10144000DF91CF910C94C40840E06DE40E94C40881
:10145000EECF1F93CF93DF93EC01162F60780E949D
:10146000100A612F6074CE010E94100A612F607211
:10147000CE010E94100A612F6071CE010E94100AF5
:10148000612F6870CE010E94100A612F6470CE0136
:101490000E94100A612F6270CE010E94100A612F13
:1014A0006170CE010E94100ACE010E94F909CE019E
:1014B0000E94FD09CE010E94040ACE010E94F90992
:1014C000CE010E94FD0940E06CE4CE01DF91CF9196
:1014D0001F910C94C408DC011896ED91FC9130E04A
:1014E00020E040E069E10994DC011896ED91FC915F
:1014F00030E020E040E068E10994CF93DF931F9251
:10150000CDB7DEB76983BE016F5F7F4F0E949F0634
:101510000F90DF91CF910895EF92FF921F93CF9399
:10152000DF93EC01162F7A010E94740A60E4CE0169
:101530000E947D0AE885F9859701412F67E1CE0178
:101540000995CE01DF91CF911F91FF90EF900C9400
:101550006B0AEF92FF921F93CF93DF93EC01142F4E
:101560007901663181F138F4643109F44BC0653199
:1015700079F080E022C06831C9F150F16931C9F7D2
:1015800080916003882391F1CE010E946B0A2EC0E6
:1015900080916003882319F0CE010E946B0ACE016E
:1015A0000E94740A60E0CE010E947D0A612FCE0184
:1015B0000E947D0A81E080936003DF91CF911F91AB
:1015C000FF90EF900895642F0E947D0A81E0F5CF8F
:1015D00080916003882319F0CE010E946B0AA70155
:1015E000193138F4612FCE010E948C0A10926003E9
:1015F000EDCF68E1CE010E948C0A185188E1E80E17
:10160000F11CEDCF8E898F3F11F488E78E8BE88532
:10161000F9859701412F64E1CE01DF91CF911F91B0
:10162000FF90EF9009940F93FC01E05CFF4F019055
:10163000F081E02D4E1B5F0BDC01D496ED91FC9107
:1016400009950F910895CF93DF93FC01A081B1819B
:1016500082AD90E09C0143E0220F331F4A95E1F7F1
:1016600037AF26AF50962C91509748E0249F9001B9
:10167000112435AF24AF23AD30E0B90153E0660F3C
:10168000771F5A95E1F7EF01C05CDF4F79836883DC
:1016900051964C915197E901C80FD91F50E04C1752
:1016A0005D0718F4CA01821B930BEF01CE5BDF4F7D
:1016B00079836883229623E0880F991F2A95E1F7A2
:1016C000860F971F99838883229654968D919C91BB
:1016D000559799838883E85BFF4F56968D919C912F
:1016E00091838083DF91CF9108950F931F93FC0125
:1016F000E25BFF4F0190F081E02DDC01A05BBF4F6A
:101700000D90BC91A02D4A175B0740F4E017F1073C
:1017100048F00417150730F080E019C0E017F10712
:10172000C0F3FACFFC01E65BFF4F40815181845B3F
:101730009F4FFC01808191816817790758F481E0FF
:101740004217530720F081E02617370728F71F912B
:101750000F91089542175307B0F3DECF2F923F92B7
:101760004F925F926F927F928F929F92AF92BF92B1
:10177000CF92DF92EF92FF920F931F93CF93DF935D
:10178000CDB7DEB72A970FB6F894DEBF0FBECDBF38
:101790009A878987865B9F4F9A838983FC01118290
:1017A0001082E985FA85EA5BFF4F408051802985E8
:1017B0003A85245B3F4F3C832B83F9015182408261
:1017C000E985FA85EE5BFF4F2080318029853A85D7
:1017D000225B3F4F3E832D83F90131822082E985D0
:1017E000FA85EC5BFF4F6080718029853A85205B2C
:1017F0003F4F38872F83F90171826082E985FA852E
:10180000E85AFF4FE080F180E985FA85EC5AFF4FF6
:10181000A080B180E985FA85EA5AFF4FC080D18067
:10182000E985FA85EE5AFF4F808091808701950106
:10183000A601B40189859A850E94750B29853A8590
:101840002C573F4F3A87298781111BC0F90110821D
:101850002A960FB6F894DEBF0FBECDBFDF91CF91B1
:101860001F910F91FF90EF90DF90CF90BF90AF90BE
:101870009F908F907F906F905F904F903F902F90B0
:10188000089581E0E985FA8580838114910421F02F
:10189000E981FA8191828082A414B50420F4EB815D
:1018A000FC81B182A0822C143D0420F4ED81FE81E4
:1018B000D182C082E614F70458F6EF81F885F182F0
:1018C000E082C6CF0F93CF93DF93E02FDC01AC57BC
:1018D000BF4FFC91FF2309F460C02115310509F4C5
:1018E0005CC02230310538F0023009F04AC06F5F29
:1018F0007F4F621B730B0E2F0170E0FD52C0FC0185
:10190000E25BFF4F0190F081E02D4E175F0708F476
:1019100044C0FC01E05BFF4F0190F081E02D4E17C9
:101920005F07D8F5FC01E45BFF4F0190F081E02DEB
:10193000DC01A65BBF4F0D90BC91A02D260F371F79
:101940002617370738F56E177F0718F59F012150C6
:101950003109A217B30708F56A177B0708F4BD0120
:101960002E173F0708F4F901E61BF70BEC01AEA9AF
:10197000BFA914960D90BC91A02D9F01FD01099562
:101980000CC0033009F0B7CF4F5F5F4F421B530BC2
:10199000B2CFBD016E177F07E0F2DF91CF910F91BB
:1019A0000895FC01E65BFF4F0190F081E02D6E177A
:1019B0007F0798F3FC01E45BFF4F0190F081E02D7D
:1019C0006E177F0750F7FC01E05BFF4F0190F0813D
:1019D000E02DDC01A25BBF4F0D90BC91A02D240F28
:1019E000351F24173507A8F44E175F0788F49F01A9
:1019F00021503109A217B30780F64A175B0708F494
:101A0000AD012E173F0708F4F901E41BF50BAECF2B
:101A1000AD014E175F0708F6EDCF213069F038F0C1
:101A2000223079F0840F911D47FD9A950895860F15
:101A3000911D67FD9A950895841B910947FD939523
:101A40000895861B910967FD93950895213069F0EB
:101A500038F0223079F0861B910967FD939508953F
:101A6000840F911D47FD9A950895860F911D67FD7E
:101A70009A950895841B910947FD939508953F9287
:101A80004F925F926F927F928F929F92AF92BF928E
:101A9000CF92DF92EF92FF920F931F93CF93DF933A
:101AA0007C01162F442EEC01C25ADF4F5E806F80FE
:101AB0006C018AE8C80ED11C78847518312E711615
:101AC00008F4372C8C809D800E85202F462D652DA7
:101AD0008A819B810E940D0D5C01202F462D652D72
:101AE000C4010E94260DAC01442079F08C85F601DA
:101AF0008083232D30E0B501C7010E94620C1715C9
:101B000048F017196394512CD7CF8B858111F7CFEB
:101B10008D85EDCF150D1E836F82DF91CF911F91C3
:101B20000F91FF90EF90DF90CF90BF90AF909F907C
:101B30008F907F906F905F904F903F900895DC0161
:101B40001A964C911A97ED91FC911197249130E0DF
:101B5000042E02C0359527950A94E2F7842F860F4C
:101B6000883068F031961196FC93EE93E49198E0FA
:101B7000941B01C0EE0F9A95EAF72E2B88501A9607
:101B80008C938FEF9FEF01C0880F6A95EAF78095DD
:101B900082230895FC01E60FF11D849190E0982FB7
:101BA00088273196E4918E0F911D0895CF93DF938E
:101BB00020911C0630911D062817390709F490C0A2
:101BC000EC0190931D0680931C06FC018491809388
:101BD0002F063196E491E0933006FE013296E491AF
:101BE000E0933106FE013396E491E0933206FE0164
:101BF0003496E491E0933306FE013596E491E09348
:101C00003406FE013696E491E0933506FE013796E0
:101C1000E491E0933606FE013896E491E0933706AE
:101C2000FE013996E491E0933806FE013A96E4917C
:101C3000E0933906FE013B96E491E0933A06FE01FB
:101C40003C96E491E0933B06FE013D96E491E093DF
:101C50003C06FE013E96E491E0933D06FE013F9670
:101C6000E491E0933E06FE017096E491E0933F0616
:101C700061E1CE010E94CA0D909341068093400617
:101C800063E1CE010E94CA0D909343068093420601
:101C900065E1CE010E94CA0D9093450680934406EB
:101CA00080911C0690911D06892BD1F080913C06F5
:101CB0008093480640913D0640934906909147061F
:101CC000992371F0913079F490913E06891714F4BC
:101CD0009093480680913F06841714F48093490638
:101CE000DF91CF9108953091390620913B06082E5F
:101CF000000C990B622F022E000C770B630F711DE5
:101D000037FD7A95861797071CF4320F30934806F3
:101D1000241734F720934906E3CFCF93DF93EC01E8
:101D20006BAFEEA9FFA90190F081E02D0995EEA916
:101D3000FFA90280F381E02DCE01DF91CF910994BC
:101D4000AF92BF92CF92DF92EF92FF920F931F93C9
:101D5000CF93DF9300D000D01F92CDB7DEB78C01B8
:101D6000DC01DA96AC90DA97DB96EC90DB97ED919C
:101D7000FC91B188FE2CD12CC12CD801ED91FC91A5
:101D800011978089D8962D913C911C82FD828B837E
:101D9000B8E08B9FC00111248C9DA0018D9D500D3A
:101DA0009C9D500D1124240F351F3A832983D8019F
:101DB0001496ED91FC919E012F5F3F4F41E06FE043
:101DC000C8010995F3948F2D8E198A1528F4BFEF59
:101DD000CB1ADB0AFB1488F20F900F900F900F9034
:101DE0000F90DF91CF911F910F91FF90EF90DF90B7
:101DF000CF90BF90AF900895EF92FF921F93CF9333
:101E0000DF93EC01142F7901683151F130F4643122
:101E1000D1F06731A9F080E006C0693109F443C010
:101E20006032C9F781E0DF91CF911F91FF90EF9071
:101E30000895F70161917F01CE010E94290A115096
:101E40001111F7CFEFCF41E06CE40E94C40841E0EC
:101E50006DE4CE010E94C408CE010E94FD09E2CFCC
:101E60008F89882349F0CE010E94F909CE010E9492
:101E7000FD09CE010E94040ACE010E94F90940E04A
:101E80006DE4CE010E94C408CE010E94FD0940E02D
:101E90006CE4CE010E94C40881E08F8B6E89CE0174
:101EA0000E94290ABFCF40E06DE40E94C408CE0121
:101EB0000E94FD09CE010E94040ACE010E94F90988
:101EC000CE010E94FD091F8AADCF789415B888B164
:101ED000807F88B98CE18BB914B887B1807C87B9D1
:101EE0001AB81BB884B1806384B985B18F7C85B979
:101EF00008950E94650F2D9A2C9868EC70E080E0A0
:101F000090E00E9493072D982C9868EC70E080E098
:101F100090E00E949307EFCFCF93DF93C82FD62F87
:101F200084E690E00E94630761E08C2F0E94F9062E
:101F300061E08D2F0E94F90661E08C2F0E94270737
:101F400061E08D2F0E94270784E690E00E946307DE
:101F5000D8E060E08C2F0E94F90661E08C2F0E948F
:101F6000F906D150B1F7DF91CF91089590917C009F
:101F7000907F892B80937C0080917A00806480938D
:101F80007A0080917A0086FDFCCF80917800909154
:101F900079000895EEEBF3E08191DF0111978095D0
:101FA0008F708C9384E0EE3BF807B1F70895CF92E1
:101FB000DF92EF92FF920F931F93CF93DF936C0109
:101FC000EB017B01E40EF51E10E000E0CE15DF050D
:101FD00061F06991D601ED91FC910190F081E02DC5
:101FE000C6010995080F191FF1CFC801DF91CF91E4
:101FF0001F910F91FF90EF90DF90CF900895FC011B
:1020000044815581608171818EEB95E00C94D70FEE
:102010002F923F924F925F926F927F928F929F92F8
:10202000AF92BF92CF92DF92EF92FF920F931F93E6
:10203000CF93DF93CDB7DEB728970FB6F894DEBF06
:102040000FBECDBF7C016C0124E0C20ED11CFC018F
:10205000E057FF4F0190F081E02DC60109958C01FA
:102060008E3F9F4F08F061C0370184E9680E711CF4
:10207000F3010190F081E02DFD83EC835701F2E93B
:10208000AF0EB11CF50180809180970120593F4F20
:102090003B832A83F9018081813009F470C008F400
:1020A0005FC0823009F476C0833009F482C0F70142
:1020B000EC59FF4F9182808232962C813D81318391
:1020C000208338978081918147969D838C830F3F31
:1020D000110511F008F020C1B6960136110530F453
:1020E0000134110558F0F701EE57FF4F80819181BF
:1020F0002C813D81280F391F3D832C838C819D814C
:102100000196FC01249121115FC090E080E0EA81FA
:10211000FB812081213009F4C1C108F4B7C122300C
:1021200009F4BEC1233009F4C3C181E090E02896D0
:102130000FB6F894DEBF0FBECDBFDF91CF911F91D8
:102140000F91FF90EF90DF90CF90BF90AF909F9056
:102150008F907F906F905F904F903F902F90089559
:10216000F701E05AFF4F0190F081E02DC60109957B
:102170002C813D81280F391F3D832C8398CFF70197
:10218000E05AFF4F0190F081E02DC6010995881AB1
:10219000990A8DCFF701E05AFF4F0190F081E02DB1
:1021A000C6010995EC81FD81E81BF90BFD83EC83E9
:1021B0007ECFF701E05AFF4F0190F081E02DC6017C
:1021C0000995880E991E73CFEC81FD81249120170B
:1021D000110609F09AC0CF010296009709F495CF35
:1021E000F701EE59FF4FF887EF83918380831286C2
:1021F000739660818F8198850E949F0DEF81F8858D
:102200008087F701EA58FF4F60818F8198850E948F
:102210009F0D582EEF81F8858187970122573F4FF8
:102220003D832C83F9019081EF81F885948781E0CB
:10223000911180E0EF81F8858587F701E958FF4F1C
:102240008080682D8F8198850E949F0D382EF70120
:10225000E858FF4F2080622D8F8198850E949F0D46
:10226000982EF701E758FF4F1081612F8F819885D5
:102270000E949F0D9FEF910F01E010E0980101C0B7
:10228000220F9A95EAF7821B8E83EF81F8854084AE
:1022900014140CF0C4C08A94C80101C0880F8A9439
:1022A000EAF7381AF685F983950C2A94C80101C01B
:1022B000880F2A94EAF7282E29182F2F422D632DF4
:1022C000EF81F885828193810E940D0D4C01EF8191
:1022D000F885938382832981422D632D84819581A2
:1022E0000E94260DEF81F88595838483F981F13072
:1022F00009F49AC008F44EC0F23009F4A4C0F330D7
:1023000009F4B5C0BC0194014FC0FC0184912C813B
:102310003D81280F311DF0CEF701EA57FF4F808134
:102320009181EC81FD81E80FF91FFD83EC834F0162
:1023300060E0C4010E94CA0D2C813D81280F391F25
:102340003D832C8362E0C4010E94CA0D34E0830EF9
:10235000911C8017910760F3EC81FD81849190E0DE
:10236000982F88273196E4918E2B009709F4CDCED3
:102370000817190721F48C819D8103962ECFEC81DB
:10238000FD813296E4912C813D812E0F311D3D83DC
:102390002C83E2CF9401240D311D47FC3A95BC01FA
:1023A000650D711D57FC7A958B01AC01B401C60116
:1023B0000E94750B882399F1EF81F88516821782A8
:1023C0004701F3E78F0E911C24E7E20EF11CF401A4
:1023D00060818F8198850E949F0D082FF701608191
:1023E0008F8198850E949F0D182F40E0602FC601B5
:1023F0000E943F0D41E0612FC6010E943F0D61E048
:102400008F8198850E949F0D8111EFCFEF81F88514
:1024100087818515E4F28485EC81FD818083FE81CE
:102420008F2FFF0F990B73CE0519110957FC1395C8
:1024300094012F5F3F4FBC01640D711D47FC7A95DD
:10244000800E911EB1CFA8014419510947FC539544
:1024500094012F5F3F4F0519110957FC1395BC01DB
:102460006F5F7F4F800F911F840E951E9DCF94014B
:10247000250D311D57FC3A950419110947FC139598
:10248000BC016F5F7F4F800F911F8ECFF5012081C0
:102490003181820F931F9183808347CEF301F7CF61
:1024A000F50120813181281B390B318320833DCEFA
:1024B000F301F7CF0F931F93CF93DF938C01D0E0FD
:1024C000C0E0F801EC0FFD1F6491662341F08EEB34
:1024D00095E00E940810892B11F02196F2CFCE01D1
:1024E000DF91CF911F910F910895089590E080E0C2
:1024F0000895299A2898299800000000299A289A76
:1025000008950F931F93299A05B10F7E18B11F7E6E
:1025100090FD006191FD106105B918B98BB929983A
:102520001F910F9108950F931F93CF93DF93EB01AA
:102530000E94811205B10F7E18B11F7ED0FD00618F
:10254000D1FD106105B918B9CBB900000000289879
:102550000000000086B1289A299A8F70DF91CF91F0
:102560001F910F910895FF920F931F93CF93DF93C5
:10257000D62FF72EC42F0E94811205B10F7E18B1FD
:102580001F7EF0FC0061F1FC106105B918B9DBB9E0
:1025900048B1407F4C2B48B9000028980000289A89
:1025A000299ADF91CF911F910F91FF9008958FE3AA
:1025B00085B980E888B91BB88FE184B987B98FEFF6
:1025C0008AB908958F778BB9000000002898000021
:1025D0000000289A86B1817008958F778BB96623A1
:1025E00041F0419A00000000289800000000289A5D
:1025F00008954198F7CF299A000000008F778BB992
:10260000299808952B9A42982B98000000002B9A45
:10261000429A0895449A4298449800000000449ACF
:10262000429A089544FB222720F930E080FD226081
:1026300081FD246082FD286085FD206186FD206289
:1026400087FD206464FD206862FD316060FD3260BA
:10265000C90108954BB14871FC0190E0292F277002
:10266000242B392F330F330F307E232B21939F5F81
:102670009034A1F708950F931F93449A05B10B7EF0
:10268000182F1170110F110F012B182F1270110F2D
:10269000110F110F012B05B90027182F1470129577
:1026A000110F012B182F187012951695012B182F4A
:1026B000107816951695012B182F107212951F7011
:1026C000012B182F1074129516951695012B182FA3
:1026D000107116951695012B0BB944981F910F9107
:1026E000089584B1867F84B987B1857F87B985B124
:1026F000896085B988B18A6088B9089584B1896094
:1027000084B987B18A6087B908950F931F93CF93D7
:10271000C82F80E00E943B130E947E1329988FE00F
:1027200005B1067F182F1270110F110F012B182FF2
:10273000147016951695012B05B948B1457F182FD1
:102740001170110F412B182F1870412B48B905B18A
:102750000B7E1C2F1170110F110F012B1C2F1270EB
:10276000110F110F110F012B05B900271C2F147029
:102770001295110F012B1C2F187012951695012B15
:102780001C2F107816951695012B1C2F1072129580
:102790001F70012B1C2F1074129516951695012B86
:1027A0001C2F107116951695012B0BB9429800003D
:1027B000429A80E005B10B7E182F1170110F110F96
:1027C000012B182F1270110F110F110F012B05B9CA
:1027D0000027182F14701295110F012B182F187045
:1027E00012951695012B182F107816951695012B1A
:1027F000182F107212951F70012B182F107412953C
:1028000016951695012B182F107116951695012BFC
:102810000BB9299A0E947113409842980000000059
:1028200006B113B12227302F32703695230F312F86
:10283000387036953695230F312F3170330F330FA3
:10284000230F0870200F822F429A409A8F70CF91E9
:102850001F910F9108950F931F93CF93C62F0E943E
:102860003B1305B10B7E1C2F1170110F110F012BA3
:102870001C2F1270110F110F110F012B05B900271A
:102880001C2F14701295110F012B1C2F187012950C
:102890001695012B1C2F107816951695012B1C2FC1
:1028A000107212951F70012B1C2F10741295169523
:1028B0001695012B1C2F107116951695012B0BB92F
:1028C00042980000000006B113B12227302F327069
:1028D0003695230F312F387036953695230F312FCB
:1028E0003170330F330F230F0870200F822F429A5D
:1028F000449A8F70CF911F910F9108950F931F935A
:10290000CF93DF93C62FD42F0E943B1305B1067FD0
:102910001D2F1270110F110F012B1D2F1470169502
:102920001695012B05B948B1457F1D2F1170110F68
:10293000412B1D2F1870412B48B905B10B7E1C2F60
:102940001170110F110F012B1C2F1270110F110F8D
:10295000110F012B05B900271C2F14701295110FB0
:10296000012B1C2F187012951695012B1C2F107817
:1029700016951695012B1C2F107212951F70012BA6
:102980001C2F1074129516951695012B1C2F107183
:1029900016951695012B0BB942980000429A449A5D
:1029A000DF91CF911F910F91089580FF19C0449A34
:1029B000FC01EF77FF27E05DFE4F2491EBB1E8715A
:1029C000E22BEBB9880F892F881F990B9195FC0199
:1029D000E85DFE4FE49185B18A7EE82BE5B9089564
:1029E0004498E6CF0E94D5142B9890E080E00E9496
:1029F000D51442980000000086B1429A2B9A83FBBE
:102A0000882780F908951F93CF93DF93162FC82F3F
:102A1000D0E0CE010E94D5142B981123C1F0409A2A
:102A2000419842980000429A419A2B9ACE010E9406
:102A3000D5142B9842980000000086B1429A2B9A38
:102A400083FB882780F9DF91CF911F9108954098EB
:102A5000E7CF299A4398299800000000299A439AC1
:102A60000895282F2F7130E0F901E353FB4F549163
:102A7000F901E355FB4F449123573B4FF901249152
:102A800035E0969587953A95E1F79927FC01E35F44
:102A9000FA4F6491FC01E350FB4F349183519B4FFB
:102AA000FC018491E5B1EA7E562BE52BE5B9E8B14E
:102AB000EE7E432BE42BE8B99BB19C73E22FE82B0D
:102AC000E92BEBB90895299A0E94311529980895A8
:102AD000CF93C62F0E943115CC2319F0419ACF9184
:102AE00008954198FCCFCF93DF93EB01419839983B
:102AF0000E943115299860E0CE010E946815439824
:102B00000000000086B1439A299A82FB882780F949
:102B1000DF91CF9108950F931F93CF938B01C42F13
:102B2000399A0E94311529982B98C111C4E06C2F55
:102B3000C8010E94681543980000439A2B9A299A6D
:102B4000CF911F910F9108958F929F92AF92BF9254
:102B50000F931F93CF93DF93CDB7DEB7A1970FB637
:102B6000F894DEBF0FBECDBF19A2423008F44AE090
:102B70008E010F5D1F4F842E912CB12CA12CA5012D
:102B800094010E94FE3BE62FB901CA01EA3044F5E8
:102B9000E05DD801EE938D01232B242B252B79F7B3
:102BA00090E080E0109769F0FD0101900020E9F7C6
:102BB0003197AF014A1B5B0BBD018EEB95E00E9484
:102BC000D70FA1960FB6F894DEBF0FBECDBFDF9131
:102BD000CF911F910F91BF90AF909F908F900895CC
:102BE000E95CD7CF0F931F93CF93DF93EC018881DC
:102BF0009981009759F02A813B812617370730F0D9
:102C000081E0DF91CF911F910F9108958B016F5F4C
:102C10007F4F0E944B3D009759F0998388831B8317
:102C20000A832C813D81232B59F7FC011082E8CFC8
:102C300080E0E7CFFC0180819181009711F00C9436
:102C4000C23C0895EF92FF920F931F93CF93DF93AF
:102C5000EC017B01198218821B821A821D821C8260
:102C6000FB0101900020E9F731978F01061B170B3C
:102C7000B8010E94F21528813981811113C02115F4
:102C8000310519F0C9010E94C23C198218821D82C7
:102C90001C821B821A82DF91CF911F910F91FF90AE
:102CA000EF9008951D830C83B701C901DF91CF9187
:102CB0001F910F91FF90EF900C94183EFC01A081A2
:102CC000B18150962C9182AD38E0839FC0011124D0
:102CD000289FA001299F500D112470E060E080AD75
:102CE00091AD0C94113E1F93CF93DF93EC010E94A2
:102CF000A00E1BAD8AAD180FE881F98181891817E4
:102D000068F0EC81FD8130E020E040E060E1CE0140
:102D1000099580E0DF91CF911F910895FE01E5575D
:102D2000FF4F8081882319F0CE010E945E16612F2B
:102D3000CE010E948D0E81E0EDCFCF93DF93EC01A9
:102D4000FC01E557FF4F8081882319F0CE010E94D6
:102D50005E1660E0CE01DF91CF910C948D0E382E7F
:102D6000262E83E0861708F451C082E0681708F029
:102D7000E1C081E0681709F485C082EC95E00E940B
:102D80009D1692E3C92ED12C21E2E22EF12C04E013
:102D900010E0C6E3D0E08AE29BE00E94D60DD0921C
:102DA0005106C0925006F0925306E092520680E718
:102DB00095E00E945A1285EE96E00E94D60D10937F
:102DC000510600935006D0935306C09352068EE5E9
:102DD00095E00E945A1282EC95E00E9473168111D0
:102DE000DACF0E94650F83E0281609F42BC1821503
:102DF00008F41CC181E0281609F428C182E02816D5
:102E000009F43DC1C1E0312C212C26C184E06817B2
:102E100009F4CEC085E06813B0CF82EC95E00E9443
:102E20009D1642E3C42ED12C51E2E52EF12C0FE089
:102E300010E0C6E3D0E08BE396E00E94D60DD0927E
:102E40005106C0925006F0925306E09252068BE271
:102E500095E00E945A1285EE96E00E94D60D1093DE
:102E6000510600935006D0935306C09352068DE14D
:102E700095E00E945A1282EC95E00E94731681112F
:102E8000DACFAFCF82EC95E00E949D16C32CD12CF7
:102E9000A4E0D594C794AA95E1F70D2C000CEE0898
:102EA000FF08B2E38B2E912CC1E2D0E00FE010E0DE
:102EB00086E3A82EB12C432C512C712C612C8BE372
:102EC00096E00E94D60D9092510680925006D093C3
:102ED0005306C09352068CE595E00E945A1285EE87
:102EE00096E00E94D60D1093510600935006B092C2
:102EF0005306A09252068EE495E00E945A128FE08B
:102F0000831560F04AE0C301B2010E94A41582EC6F
:102F100095E00E9473168111D2CF63CF80E28315B2
:102F200020F04AE0C701B601F0CF8CE495E00E94A2
:102F30005A12EDCF82EC95E00E949D16E2E3CE2E70
:102F4000D12CF1E2EF2EF12C08E010E0C6E3D0E046
:102F5000832C912CB12CA12C8BE396E00E94D60DF2
:102F6000D0925106C0925006F0925306E09252065B
:102F70008AE495E00E945A1285EE96E00E94D60DF2
:102F80001093510600935006D0935306C0935206F7
:102F90008AE395E00E945A124AE0C501B4010E94FA
:102FA000A41582EC95E00E9473168111D5CF19CF3C
:102FB00082EC95E00E949D1662E3C62ED12C71E250
:102FC000E72EF12C08E110E0C6E3D0E0832C912C31
:102FD000B12CA12C8AE29BE00E94D60DD092510622
:102FE000C0925006F0925306E092520688E395E0B4
:102FF0000E945A1285EE96E00E94D60D109351065B
:1030000000935006D0935306C09352068DE295E08C
:103010000E945A124AE0C501B4010E94A41582EC34
:1030200095E00E9473168111D5CFDBCE84E028167F
:1030300079F185E0C0E028E0322E2812E3CE92E05C
:10304000292E0AC0C0E037E0332EF9CF8FEF830D71
:10305000C0E0843108F0312CCC2319F12D9A2C9842
:1030600068EE73E080E090E00E9493072D982C9822
:1030700068EE73E080E090E00E949307EDCF832D2F
:10308000863008F085E033243394380EC0E0E4CF76
:103090008FEF830DC0E0843108F0312C83E0282EBF
:1030A000DBCF622D81E090E00E942A086CE271E0A3
:1030B00080E090E00E949307332029F0632D83E0A5
:1030C00090E00E942A086CED75E080E090E00E949C
:1030D0009307E7CF6F927F929F92AF92BF92CF926A
:1030E000DF92EF92FF920F931F93CF93DF93CDB7B1
:1030F000DEB7C254D1090FB6F894DEBF0FBECDBF04
:103100007C01D62ECE0101960E942A1388B1807EC2
:10311000982F966022969FAF2297866123968FAF55
:103120002397870194E0169507959A95E1F70E0D80
:103130001F1D2B9AC7010E94D5142B98F894DE010D
:10314000AF5BBF4F70E060E085E894E028E0922E2E
:10315000980E8D9188B985B18A7EC82E85E7E82EB4
:1031600084E0F82E25E834E0F90184918C2985B9B2
:10317000F701859194913C01662A772ACE01019648
:103180005C0150E040E0C301842B952B8027912700
:10319000892790E082549C4FFC018081F501919138
:1031A0005F019BB94298000096B1892783FF0BC04D
:1031B000429A78942B9A63E081E08D0D0E94AF16BD
:1031C00061E070E0C6CF429A4E5F5F4F40385105D4
:1031D000D1F62F5F3F4FF2E0EF0EF11C9212C4CFF9
:1031E0006130710569F778942B9ACE5BDF4F0FB68B
:1031F000F894DEBF0FBECDBFDF91CF911F910F912D
:10320000FF90EF90DF90CF90BF90AF909F907F9016
:103210006F9008950F931F93E0910001F0910101C9
:1032200024E0EE0FFF1F2A95E1F7ED50FE4F51818C
:103230009C0144E0369527954A95E1F7820F931F4C
:103240002A98F89470E0751708F050C005B10F7E09
:1032500018B11F7E70FD006171FD106105B918B9CC
:1032600061112DC0A0E840E04BB92898289AB6B16A
:10327000BF709C0124272327E22FF0E0E254FC4F8B
:103280002081B21729F0789463E084E00E94AF16A1
:1032900021E0240F2BB92898289AB6B1FC01E22727
:1032A0009F01BF702327E22FF0E0E254FC4F208102
:1032B000B213E9CF4E5FA150B9F67F5FC4CF289813
:1032C00040E04BB900000000A6B1AF709C0124277C
:1032D0002327E22FF0E0E254FC4F2081A213D3CF4A
:1032E00021E0240F4F3F49F3422FEBCF7894289AE7
:1032F0002A9A1F910F910895CF93DF93EC01FA0161
:10330000DB0130E020E061E070E0AB01022E01C0A3
:10331000440F0A94EAF7899192E0980F923030F0C6
:1033200093B1942319F464E00E94AF168D9192E05A
:10333000980F923018F096B19423A9F381918E3FA3
:1033400040F02F5F3F4F28303105F9F6DF91CF91E4
:10335000089599B19423A9F7E6CF1F93CF93DF93F4
:10336000162FD42FC22F0E94FB12812F0E94E2122F
:103370008D1741F0289A299A0000000061E08C2FF7
:103380000E94AF16299A00000000DF91CF911F9193
:103390000895FF920F931F93CF93DF93C82FD62FDB
:1033A000F22E162F00E0411104C0182FC62F0D2F4A
:1033B000D0E02B98802F0E94FB1260E08D2F0E949E
:1033C000ED12299A000000008C2F0E94FB1261E090
:1033D000812F0E94ED12299A000000002B9A2F2DB8
:1033E00040E06D2F802F0E94AD192F2D41E0612FFD
:1033F0008C2FDF91CF911F910F91FF900C94AD19FD
:10340000FF920F931F93CF93DF93F82EC62F042FB5
:10341000E62FF0E0E352FD4FD081E0910001F09102
:10342000010134E0EE0FFF1F3A95E1F7E351FE4F43
:1034300016810E94FB12F89420E1F29EC001112433
:1034400070E060E0A62F611708F040C03D2F31709A
:10345000C430D8F0AC01460F571FFA01F695E79536
:10346000F695E795FF27E254FC4F208143705527DE
:1034700042305105E9F043305105E1F0413051054A
:10348000A9F0247031E009F430E0AF77ABB9000067
:10349000289800000000289A26B12170321779F090
:1034A0007894602F81E08C0F0E94AF162695E9CFAB
:1034B000220FE7CF44E0249F90011124E2CFC430D3
:1034C00010F4DD0FD11D6F5F7F4FBCCF299A789428
:1034D000DF91CF911F910F91FF900895DF92EF92AE
:1034E000FF920F931F93CF93DF93EC01162FF42ECF
:1034F000D22EE02E0E947113EF2DF0E0E352FD4F2B
:1035000060814098F89483E08F1508F45CC081E0F6
:1035100001C0880FDA94EAF790E050E040E06F7065
:103520004C175D0709F4BBC005B10B7E192F117054
:10353000110F110F012B192F1270110F110F110FF5
:10354000012B05B90027192F14701295110F012BAB
:10355000192F187012951695012B192F10781695A2
:103560001695012B192F107212951F70012B192F10
:103570001074129516951695012B192F107116952A
:103580001695012B0BB942980000429A06B113B16F
:103590002227302F32703695230F312F3870369511
:1035A0003695230F312F3170330F330F230F0870EF
:1035B000200F722F980F671709F46EC078946E2D44
:1035C0008F2D0E94AF16612F70E0CB0124E09695FD
:1035D00087952A95E1F7680F791F41E001C0440FF4
:1035E000DA94EAF750E0B0E0A0E0AC17BD0709F4C8
:1035F00056C005B10B7E152F1170110F110F012B45
:10360000152F1270110F110F110F012B05B9002783
:10361000152F14701295110F012B152F187012957C
:103620001695012B152F107816951695012B152F31
:10363000107212951F70012B152F1074129516958C
:103640001695012B152F107116951695012B0BB998
:103650004298429A06B113B12227302F3270369524
:10366000230F312F387036953695230F312F317057
:10367000330F330F230F0870200FD22E540FCD01BC
:10368000862797278927E82FF0E0E254FC4F8081B6
:103690008D1194CF1196A9CF4F5F5F4F41CF789492
:1036A000409A449ADF91CF911F910F91FF90EF9034
:1036B000DF900895EC0182EC95E00E949D1682E374
:1036C000882E912C91E2A92EB12C2AE0C22ED12C69
:1036D00030E3E32EF12C00E410E08BE396E00E944F
:1036E000D60D9092510680925006B0925306A09249
:1036F00052068EEB93E00E945A1285EE96E00E94ED
:10370000D60DD0925106C0925006F0925306E09228
:1037100052068EEA93E00E945A126C817D8190E0FD
:1037200080E00E94003A20E030E040E650E40E9451
:10373000613A9B01AC0160E070E080E892E40E9495
:10374000563B0E94C33B7093510660935006109302
:10375000530600935206CE010E94FF0F82EC95E0C3
:103760000E9473168111B9CF84B1806384B92D9AF8
:103770002C98FFCF3F924F925F926F927F928F92E1
:103780009F92AF92BF92CF92DF92EF92FF920F93F0
:103790001F93CF93DF9300D000D0CDB7DEB79A83CD
:1037A000898382EC95E00E949D163FE3832E912C45
:1037B0000DE310E02DE730E043E050E063E470E01B
:1037C00082EC95E00E94750B882309F46AC02EED07
:1037D000A22E21E0B22E83E090E09C838B834B806D
:1037E0005C809FEF491A590A82012DE730E04B8136
:1037F0005C8163E470E082EC95E00E94750B8823A5
:1038000009F446C030904C06750183E4682E712C93
:103810009AE3C92ED12C11E0F7018491812330E085
:1038200020E0F70181111FC09491912351F0809104
:103830004B06811127C081E0311080E080934C0657
:1038400017C02F5F3F4FFFEF6F1A7F0A110F21F450
:103850009FEFE91AF90A11E0E1E0CE1AD10809F761
:10386000882329F303C09491912359F730924C0691
:10387000B301621B730B00E04B815C8182EC95E02D
:103880000E94620CC114D10409F0C6CF30924C06DC
:10389000F8E0AF0EB11C5C824B82C201CD9709F0FB
:1038A0009ECF8AE29BE00E94D60DE2E1F0E0F09329
:1038B0005106E093500682E290E090935306809385
:1038C00052068CED91E00E945A1285EE96E00E941D
:1038D000D60D1092510610925006E4E3F0E0F093FA
:1038E0005306E093520689819A810E94FF0F82E776
:1038F00095E00E94D60D10925106109250069092BB
:1039000053068092520683ED91E00E945A1288E29B
:1039100090E09093510680935006909253068092C7
:1039200052068CE696E00E94FF0F82EC95E00E9422
:10393000731681113DCF0F900F900F900F90DF9174
:10394000CF911F910F91FF90EF90DF90CF90BF909C
:10395000AF909F908F907F906F905F904F903F902F
:1039600008956F927F928F929F92AF92BF92CF9263
:10397000DF92EF92FF920F931F93CF93DF938C010F
:1039800082EC95E00E949D168EE1A82EB12C90E16C
:10399000C92ED12CC4E0D0E02FE1E22EF12C3EE282
:1039A000832E912C4DE3642E712C85EE96E00E94BF
:1039B000D60DB0925106A0925006D0925306C092F6
:1039C000520686EC91E00E945A12D0935106C093A1
:1039D0005006F0925306E09252068CEB91E00E9462
:1039E0005A12D0935106C09350069092530680927B
:1039F0005206C8010E945A12D0935106C093500635
:103A0000709253066092520680EB91E00E945A1227
:103A100082EC95E00E9473168111C7CFDF91CF91A0
:103A20001F910F91FF90EF90DF90CF90BF90AF90DC
:103A30009F908F907F906F900895AF92BF92CF929A
:103A4000DF92EF92FF920F931F93CF93DF93EC01DE
:103A5000E090B003F090B103E114F104D1F0C7019C
:103A60000E94F2390097A9F00C811D81080F191FDF
:103A7000B801CE010E94F215882359F028813981BE
:103A80008C819D81B701820F931F0E94EB391D83AA
:103A90000C836C817D8190E080E00E94003A20E000
:103AA00030E040E650E40E94613A9B01AC0160E0E6
:103AB00070E080E892E40E94563B0E94C33B8B0179
:103AC00082EC95E00E949D1686E3A82EB12C92E32D
:103AD000C92ED12C21E2E22EF12C85EE96E00E9437
:103AE000D60D1093510600935006B0925306A09243
:103AF0005206CE010E94FF0F8BE396E00E94D60D86
:103B0000D0925106C0925006F0925306E0925206AF
:103B100081ED91E00E945A1282EC95E00E947316AA
:103B20008111DBCFDF91CF911F910F91FF90EF902B
:103B3000DF90CF90BF90AF900895CF93DF9300D0E8
:103B400000D000D0CDB7DEB7E0910001F0910101C7
:103B500094E0EE0FFF1F9A95E1F7E351FE4F0081CD
:103B600011811A8219821C821B821E821D820115FC
:103B70001105C9F0C8010E94F2397C01BC01CE01D7
:103B800001960E94F21529813A8181113CC02115CC
:103B9000310519F0C9010E94C23C1A8219821E82A5
:103BA0001D821C821B82CE0101960E941D1DCE012A
:103BB00001960E941A160E94650F00910001109153
:103BC00001010F30110530F5000F111F045F1E4F6A
:103BD000F801F1908F016F2D82E090E00E942A0899
:103BE0006CE271E080E090E00E949307F801608150
:103BF00083E090E00E942A0860ED77E080E090E0AA
:103C00000E949307E8CFFE82ED82B801C9010E94AD
:103C1000EB39C9CF2D982C9A68EE73E080E090E0E4
:103C20000E9493072D982C9868EE73E080E090E056
:103C30000E949307EFCFCF93DF93CDB7DEB7C95480
:103C4000D1090FB6F894DEBF0FBECDBF4FE344B924
:103C500032E235B92FE127B995E198B987EE8AB9F3
:103C600044B935B927B998B98AB980E00E943B13A5
:103C70000E947E13299885E005B1067F182F1270E7
:103C8000110F110F012B182F147016951695012B7B
:103C900005B948B1457F182F1170110F412B182F0E
:103CA0001870412B48B9F12C05B10B7E1F2D1170F6
:103CB000110F110F012B1F2D1270110F110F110F6A
:103CC000012B05B900271F2D14701295110F012B20
:103CD0001F2D187012951695012B1F2D1078169513
:103CE0001695012B1F2D107212951F70012B1F2D81
:103CF0001074129516951695012B1F2D107116959F
:103D00001695012B0BB942980000429A299A449AC1
:103D10000E947113409880E00E943B1305B10B7E16
:103D20001F2D1170110F110F012B1F2D1270110F6C
:103D3000110F110F012B05B900271F2D14701295BB
:103D4000110F012B1F2D187012951695012B1F2D89
:103D5000107816951695012B1F2D107212951F7055
:103D6000012B1F2D1074129516951695012B1F2DE2
:103D7000107116951695012B0BB9429800000000A2
:103D800006B113B12227302F32703695230F312F11
:103D9000387036953695230F312F3170330F330F2E
:103DA000230F0870200F822F429A409A449A8F70F6
:103DB000E82E25E08213A1C080E00E943B130E9400
:103DC0007E13299805B1067F1E2D1270110F110F59
:103DD000012B1E2D147016951695012B05B948B1AF
:103DE000457F1E2D1170110F412B1E2D1870412B78
:103DF00048B905B10B7E1F2D1170110F110F012B4A
:103E00001F2D1270110F110F110F012B05B9002773
:103E10001F2D14701295110F012B1F2D1870129564
:103E20001695012B1F2D107816951695012B1F2D19
:103E3000107212951F70012B1F2D1074129516957C
:103E40001695012B1F2D107116951695012B0BB988
:103E500042980000429A299A449A0E94711340980D
:103E600080E00E943B1305B10B7E1F2D1170110FD6
:103E7000110F012B1F2D1270110F110F110F012B9C
:103E800005B900271F2D14701295110F012B1F2D3E
:103E9000187012951695012B1F2D107816951695F2
:103EA000012B1F2D107212951F70012B1F2D1074E6
:103EB000129516951695012B1F2D107116951695B6
:103EC000012B0BB942980000000006B113B1222764
:103ED000302F32703695230F312F38703695369546
:103EE000230F312F3170330F330F230F0870200F42
:103EF000822F8F708F3009F072C08FEF9FEF9093F9
:103F000001018093000180910001909101018F3F98
:103F1000980709F0CCC084B1807E8D6184B987B1E7
:103F2000807E876187B98AB1876E8AB92B9A429A57
:103F3000419A90E080E00E94D5142B9840984198D7
:103F400042980000429A419A2B9A90E080E00E94A9
:103F5000D5142B9842980000000086B1429A2B9A03
:103F600083FD32C084B1807E8D6184B987B1807E4B
:103F7000876187B98AB1876E8AB92B9A429A419A2A
:103F800060E080E00E940315082F61E081E00E945C
:103F90000315182F90E080E00E94D5142B984298CA
:103FA0000000000086B183FB882780F9429A2B9A93
:103FB00001110AC0112341F0811106C089E090E08F
:103FC0009093010180930001809100019091010183
:103FD0008F3F980709F06BC060E080E0DEC0429A36
:103FE000409A80E00E943B130E947E13299805B1FD
:103FF000067F1F2D1270110F110F012B1F2D147032
:1040000016951695012B05B948B1457F1F2D1170E6
:10401000110F412B1F2D1870412B48B905B10B7E94
:104020001F2D1170110F110F012B1F2D1270110F69
:10403000110F110F012B05B900271F2D14701295B8
:10404000110F012B1F2D187012951695012B1F2D86
:10405000107816951695012B1F2D107212951F7052
:10406000012B1F2D1074129516951695012B1F2DDF
:10407000107116951695012B0BB942980000429AC3
:10408000299A449A81E00E948513882341F083E0B5
:1040900090E09093010180930001449A34CF80E82E
:1040A0000E9485138111F3CF84E090E0F2CF14E0F9
:1040B000880F991F1A95E1F7FC01E351FE4F8081AB
:1040C00091810E94B11C809100019091010109979A
:1040D00009F078C384B1807E8D6184B987B1807E18
:1040E000876187B98AB1876E8AB9E0910001F09142
:1040F0000101B4E0EE0FFF1FBA95E1F7E351FE4F67
:10410000868197812481358121503109E12C211547
:10411000310521F0E39436952795F9CF0197F12CDD
:10412000009721F0F39496958795FACF10E000E080
:1041300088248394912CD02E0E1508F03BC090E07B
:1041400080E00E94D5142B98409890E080E00E9477
:10415000D514419842980000429A419A2B9A5401F2
:10416000002E02C0AA0CBB1C0A94E2F7C5010E94F3
:10417000D5142B98409A90E080E00E94D514419885
:1041800042980000429A419A2B9A90E080E00E9467
:10419000F214882321F061E0802F0E94AF16C50140
:1041A0000E94F2140F5F1F4F813009F4C4CF61E009
:1041B0008D2DF3CF10E000E0AA24A394B12CE02EC3
:1041C0000F1508F03FC090E080E00E94D5142B98B6
:1041D000409890E080E00E94D514419842980000F9
:1041E000429A409A6501002E02C0CC0CDD1C0A9454
:1041F000E2F7C6010E94D514419842980000429A05
:10420000419A2B9A90E080E00E94D5142B9890E080
:1042100080E00E94D514429800000000339B04C047
:1042200061E080E18E0DB9CF429AC6010E94D5149B
:104230004298000000000F5F1F4F339BF1CF429A5E
:104240002B9ABDCF4DED242E42E0342EF12C58E0B8
:10425000E52E6E0171E4C70ED11C63E4462E512C8D
:104260004C0E5D1E82E0480E511C460192E0890E04
:10427000911CD1018D911D0183FB112710F9B1E033
:10428000BF1510F00C94F927880F811D887090E0FD
:10429000111198E026969FAF269700E0882311F031
:1042A00001E088E027968FAF2797CE0101960E9404
:1042B0002A1388B1807E982F9460192B24961FAF03
:1042C0002497982F9461092B25960FAF2597982F47
:1042D0009660F601908386618183F894B12CA12CBD
:1042E0002B9AC5010E94D5142B9885B18A7EDE01D8
:1042F000AD5BBF4F9D9198B905E814E0F80194912A
:10430000982B95B99E012F5F3F4F3901F301919191
:104310003F019BB94298429ACE16DF06B9F70F5F6C
:104320001F4F2DE834E02017310741F74A165B068E
:1043300009F7419A2B9A3FEFA31AB30AA11464E03C
:10434000B60671F67894F894B12CA12C2B9AC5017D
:104350000E94D5142B9845B14A7E2A96DFAECEAE88
:104360002A97CE018B5B9F4F2A96AEADBFAD2A97A1
:104370002D912A96BFAFAEAF2A9728B9FC01519173
:10438000CF01E5E8F4E02491242B25B99E012F5FAD
:104390003F4FD9016D919D016BB94298000066B104
:1043A000652763FF07C0429A78942B9A62E081E008
:1043B0008F0DF3CE429AA615B70559F73196E0173F
:1043C000F10709F72A962EAD3FAD2A97821693067C
:1043D00009F0CACF2B9A3FEFA31AB30AA11464E0E5
:1043E000B60609F0B3CF7894F39474E0F71241CF96
:1043F00034E1E32E10E000E0CE0101960E942A1382
:1044000088B1807E982F9460D6019C938461119628
:104410008C93380194E0769467949A95E1F7600E56
:10442000711E2B9AC8010E94D5142B984198F894BC
:1044300085B18A7E382E560170E060E0F5018191E9
:104440005F0125E734E0A5E8B4E0482EE89440F8A1
:10445000582E689450F8FD018491832985B9F9019B
:1044600085909490862A972ACE0101962A969FAF2E
:104470008EAF2A9750E040E0C401842B952B86250F
:104480009725892790E082549C4FFC01808183FF0F
:1044900073C058B82A96EEADFFAD2A9781912A963F
:1044A000FFAFEEAF2A978BB94298429A4E5F5F4FAB
:1044B0004038510509F711962E5F3F4FF4E025383B
:1044C0003F0709F0C8CF6130710509F052C07894F8
:1044D000419A2B9A2B9AC8010E94D5142B982B9A9B
:1044E000A0900001B090010184E0AA0CBB1C8A9549
:1044F000E1F7950123513E4F5901D90114968D9151
:104500009C911597019780179107C1F513963C90E0
:10451000912C812C38016318710837FC73942901A0
:10452000BFE04B0E511CA30CB11CE9E0AE0EB11C58
:10453000832D881987FD3AC06F2DC301880D991D01
:104540000E946A18D2018C918E9DC00111240E9494
:104550006307F50180818E9DC00111240E946307CD
:10456000FFEF8F1A9F0AE4CF0E94CA0F25E0F22EB8
:1045700041CF61E070E062CF48B88CCF13968C9049
:10458000912CF901E00FF11F0815190548F06F2D66
:10459000C801881999090E946A18A80CB91CF5016C
:1045A00081858E9DC00111240E9463070F5F1F4FFC
:1045B0000115F4E01F0709F01FCF25E0F212D4CF58
:1045C00080910001909101018430910509F06AC445
:1045D0000E947E13429AF12CE12CF701E254FC4F29
:1045E00010811F708E2D0E943B13299830E020E02F
:1045F000812F90E0A901440F551FFC0102C0F595E1
:10460000E7954A95E2F75E2F537005B1067F152FA7
:104610001270110F110F012B152F1470169516958E
:10462000012B05B948B1457F152F1170110F412B92
:10463000152F1870412B48B905B10B7E122F117040
:10464000110F110F012B122F1270110F110F110FDB
:10465000012B05B90027122F14701295110F012B91
:10466000122F187012951695012B122F107816958F
:104670001695012B122F107212951F70012B122FFD
:104680001074129516951695012B122F1071169510
:104690001695012B0BB942980000429A2130310542
:1046A00009F085C4299A0E940A13FFEFEF1AFF0A46
:1046B000E11421E0F20609F090CF299A1AE0E12CEA
:1046C000FF24F3940E940A138FE090E00E94630796
:1046D00000000000000000000000000000000000DA
:1046E0000000000031E0E31AF10861F7115039F7DA
:1046F0000E947113F12CE12CF701E254FC4F108160
:104700001F708E2D0E943B13409850E040E0812F97
:1047100090E005B10B7E142F1170110F110F012BBA
:10472000142F1270110F110F110F012B05B9002753
:10473000142F14701295110F012B142F187012954D
:104740001695012B142F107816951695012B142F02
:10475000107212951F70012B142F1074129516955C
:104760001695012B142F107116951695012B0BB968
:1047700042980000000006B113B12227302F32709A
:104780003695230F312F387036953695230F312FFC
:104790003170330F330F230F0870200F622F429AAE
:1047A00063709A01220F331FDC0102C0B595A795F3
:1047B0002A95E2F79D012370621709F4FEC3449A1B
:1047C000409ADEC38FE384B982E285B9409100014B
:1047D00050910101FA0114E0EE0FFF1F1A95E1F765
:1047E000E351FE4F04811581868197819801215004
:1047F0003109B12C2115310521F0B3943695279557
:10480000F9CF0197C12C009721F0C3949695879515
:10481000FACFA12CD12C4330510521F4AA24A39422
:10482000F2E0DF2E0E947E132998F12CE12C8824DF
:104830008394912CEB14B8F445E06D2D90E080E06A
:104840000E947E1400004AE06D2DC4010E2C02C0AF
:10485000880F991F0A94E2F70E947E1400003FEF30
:10486000E31AF30AE7CF299A0E9471134098F12CBA
:10487000E12C88248394912C7E2CEB14E0F46D2D94
:1048800090E080E00E942B14853019F061E08E2DBD
:1048900084CC6D2DC4010E2C02C0880F991F0A9480
:1048A000E2F70E942B146FEFE61AF60A8A3021F322
:1048B00061E0872D72CC480196948794409A0E94BB
:1048C0007E132998F12CE12C45E0542EB12C5AE0AE
:1048D000D52E66246394712CEC1408F0A8C0882DA2
:1048E0000E943B1305B1067F152D1270110F110F99
:1048F000012B152D147016951695012B05B948B18D
:10490000457F152D1170110F412B152D1870412B5E
:1049100048B905B10B7E1B2D1170110F110F012B22
:104920001B2D1270110F110F110F012B05B900274C
:104930001B2D14701295110F012B1B2D1870129541
:104940001695012B1B2D107816951695012B1B2DF6
:10495000107212951F70012B1B2D10741295169555
:104960001695012B1B2D107116951695012B0BB961
:1049700042980000429A000005B1067F1D2D12707A
:10498000110F110F012B1D2D147016951695012B6B
:1049900005B948B1457F1D2D1170110F412B1D2DFB
:1049A0001870412B48B9C3010E2C02C0880F991F03
:1049B0000A94E2F70A2C01C0880F0A94EAF705B1BD
:1049C0000B7E182F1170110F110F012B182F127061
:1049D000110F110F110F012B05B90027182F14709B
:1049E0001295110F012B182F187012951695012B87
:1049F000182F107816951695012B182F10721295F6
:104A00001F70012B182F1074129516951695012BF7
:104A1000182F107116951695012B0BB942980000AE
:104A2000429A449A00007FEFE71AF70A55CF299A75
:104A30000E9471134098F12CE12CB12C66246394F0
:104A4000712CDE2CEC1408F0AFC0882D0E943B13B3
:104A500005B10B7E1B2D1170110F110F012B1B2D9A
:104A60001270110F110F110F012B05B900271B2D0B
:104A700014701295110F012B1B2D1870129516959D
:104A8000012B1B2D107816951695012B1B2D1072DE
:104A900012951F70012B1B2D1074129516951695EB
:104AA000012B1B2D107116951695012B0BB94298F1
:104AB0000000000006B113B12227302F3270369566
:104AC000230F312F387036953695230F312F3170E3
:104AD000330F330F230F0870200F822F429A8F70ED
:104AE000853029F0449A61E080E18D0D56CB0000BD
:104AF000C3010E2C02C0880F991F0A94E2F70A2CFA
:104B000001C0880F0A94EAF705B10B7E182F1170C7
:104B1000110F110F012B182F1270110F110F110F00
:104B2000012B05B90027182F14701295110F012BB6
:104B3000182F187012951695012B182F10781695AE
:104B40001695012B182F107212951F70012B182F1C
:104B50001074129516951695012B182F1071169535
:104B60001695012B0BB942980000000006B113B155
:104B70002227302F32703695230F312F387036951B
:104B80003695230F312F3170330F330F230F0870F9
:104B9000200F822F429A9FEFE91AF90A8F70449AE8
:104BA0008A3009F44ECF9FCF409A8DED882E82E057
:104BB000982E512C94E1292ED12CC12C80910001EA
:104BC00090910101FC0104E0EE0FFF1F0A95E1F74F
:104BD000E351FE4F24813581C216D30608F054C13B
:104BE000A680B7804C2C33243394039709F0312CE2
:104BF000842D0E943B1329980E947E13F40180812A
:104C000005B1067F182F1270110F110F012B182FED
:104C1000147016951695012B05B948B1457F182FCC
:104C20001170110F412B182F1870412B48B9F894AF
:104C3000F3E0F51508F444C041E0032C01C0440F33
:104C40000A94EAF730E020E080E0942F980FA21653
:104C5000B30609F4A3C0429A05B10B7E182F117058
:104C6000110F110F012B182F1270110F110F110FAF
:104C7000012B05B90027182F14701295110F012B65
:104C8000182F187012951695012B182F107816955D
:104C90001695012B182F107212951F70012B182FCB
:104CA0001074129516951695012B182F10711695E4
:104CB0001695012B0BB942982F5F3F4F892FC5CF17
:104CC000960114E0369527951A95E1F72F70332752
:104CD0002C0D311DB1E0032C01C0BB0F0A94EAF783
:104CE00070E060E050E0AB2FA50FA616B70609F400
:104CF00055C0429ACB01822793278927E82FF0E0FD
:104D0000E254FC4F808105B1067F182F1270110FFD
:104D1000110F012B182F147016951695012B05B93C
:104D200048B1457F182F1170110F412B182F1870A3
:104D3000412B48B905B10B7E152F1170110F110FC2
:104D4000012B152F1270110F110F110F012B05B927
:104D50000027152F14701295110F012B152F1870A5
:104D600012951695012B152F107816951695012B77
:104D7000152F107212951F70012B152F107412959C
:104D800016951695012B152F107116951695012B5A
:104D90000BB942986F5F7F4F5A2FA5CF7894299A0D
:104DA000429A23E0251558F002E0232D452D642D6D
:104DB000C5010E946E1AFFEFCF1ADF0AFFCE842DC5
:104DC0000E943B130000449A96013327E0900001B3
:104DD000F0900101B4E0EE0CFF1CBA95E1F7B701C9
:104DE00063517E4F7B01DB0114968D919C91159749
:104DF00001978217930771F513961C913B01BFE051
:104E00006B0E711CE10EF11CE9E0EE0EF11C17FDBA
:104E1000D2CFF42DF11B2896FFAF28978F2F0E9439
:104E20003B1303E0232D452D28966FAD2897C50130
:104E30000E946E1AD3018C91829DC00111240E94A0
:104E40006307F7018081829DC00111240E946307DE
:104E50001150DDCF13961C91411608F4BDC0411AC4
:104E6000842D0E943B1303E0232D452D642DC501A5
:104E70000E946E1AE10EF11CF7018185829DC0012E
:104E800011240E94630797CF539426E0521609F429
:104E900097CBA5E05A1202C00E94CA0FBFEF8B1A2F
:104EA0009B0A8ACE099709F080C0429A10E000E080
:104EB000F801FF27E254FC4FC080C8010E94D514BE
:104EC0002B984198F12CE12CD12CC6010E2C02C05C
:104ED000959587950A94E2F780FF55C0409AC701DF
:104EE0000E94D51442980000429A3FEFE31AF30A59
:104EF00068E0E616F10449F7419A0E9402130F5F39
:104F00001F4F011574E0170799F6419A1AE0E12C3A
:104F1000A2E0FA2E0E9402138FE090E00E94630745
:104F200000000000000000000000000081E0E81A1E
:104F3000F10881F7115059F710E000E0F801FF2760
:104F4000E254FC4FC080C8010E94D5142B98F12C6C
:104F5000E12CD12CC7010E94D5144298000000001A
:104F600086B1429A83FB882780F996010E2C02C0F5
:104F7000359527950A94E2F72170281731F02B9A7E
:104F800065E00C94ED1F4098AACF9FEFE91AF90A4B
:104F9000A8E0EA16F104F1F60E9402130F5F1F4F1A
:104FA0000115B4E01B0709F0C9CF0E949D1D21E047
:104FB00030E020CB41E050E0ACCB41305105D1F79F
:104FC000409A0E940A13BFEFEB1AFB0AE114E1E0DA
:104FD000FE0609F091CBE9CFE20EF31ED701199638
:104FE0008C914CCF26961FAE269700E080E00C9463
:104FF00052211123B9F32696EFAE2697012F0C9478
:1050000051211F920F920FB60F9211242F933F93AD
:105010008F939F93AF93BF938091B4039091B50307
:10502000A091B603B091B7033091B30323E0230FEF
:105030002D3768F126E8230F0296A11DB11D20939C
:10504000B3038093B4039093B503A093B603B093D6
:10505000B7038091B8039091B903A091BA03B091BE
:10506000BB030196A11DB11D8093B8039093B903B2
:10507000A093BA03B093BB03BF91AF919F918F915F
:105080003F912F910F900FBE0F901F901895019692
:10509000A11DB11DD4CF1F920F920FB60F921124F4
:1050A0002F933F934F935F936F937F938F939F9330
:1050B000AF93BF93EF93FF938091B900887F8036C1
:1050C00009F44AC0F0F5883209F4A5C018F580311A
:1050D00009F499C0B8F4882309F4EFC0883009F4C2
:1050E00092C0FF91EF91BF91AF919F918F917F916E
:1050F0006F915F914F913F912F910F900FBE0F9045
:105100001F901895883109F486C0803251F780933A
:10511000A50314C0803409F497C040F48033B9F378
:105120008833F9F68093A50385ECA8C0803509F48F
:1051300081C0883509F490C0883499F60E946908C6
:10514000D0CF883909F486C038F5883729F050F473
:10515000883611F0803729F683E08093A6031092F9
:10516000A40355C0883809F475C0803919F0803817
:1051700009F0B7CF8091A403803208F06BC0E091B2
:10518000A40381E08E0F8093A4038091BB00F0E024
:10519000EC57FC4F80833BC0803B39F0D0F4803A21
:1051A00009F471C0883A09F09CCF84E08093A6038B
:1051B0001092830310928203F0E0E0E00995809161
:1051C000820381110FC081E08093820310926203F9
:1051D00009C0803C09F4A8CF883C09F4A5CF883BDE
:1051E00009F07FCFE091830381E08E0F80938303EA
:1051F000F0E0EE59FC4F80818093BB0090918303D7
:105200008091820325C08091AB038093BB0085EC25
:105210008093BC0066CF9091AA038091A903981750
:1052200028F5E091AA0381E08E0F8093AA03F0E0B5
:105230008081EBCFE091AA0381E08E0F8093AA03D7
:105240008091BB00F0E080839091AA038091A90334
:105250009817E8F285E8DCCFE091AA0381E08E0F91
:105260008093AA038091BB00F0E080838091A80323
:10527000811164CF81E08093A70384EA8093BC000E
:105280001092A6032ECF85EC8093BC001092A6034B
:105290008091A403803230F4E091A403F0E0EC5755
:1052A000FC4F10826091A40370E084E893E0F0E08A
:1052B000E0E009951092A40314CF1092A5033ECF0D
:1052C0007F928F929F92AF92BF92CF92DF92EF9296
:1052D000FF920F931F93CF93DF937C016B01942E6A
:1052E000E0910001F091010154E0EE0FFF1F5A958B
:1052F000E1F7E351FE4F8085419839985B0164E006
:10530000B694A7946A95E1F7AC0CBD1C81FF3AC036
:10531000F694E794D0E0C0E0EC16FD0609F4BDC0B9
:10532000CE018A259B258927E82FF0E0E254FC4F27
:105330008080082D10E015950795182D110F782CF9
:10534000770C770CC6010E9431152998CE010E9476
:1053500031154398439A96B14398439A86B143983E
:10536000439A36B14398439A26B1132772261729D8
:10537000892618290827102B12FF8CC0439A299AD6
:1053800061E05EC0C6010E946315F89435E0F694B2
:10539000E7943A95E1F7F12CD0E0C0E060E0FE142C
:1053A00008F04BC08F2D90E0FC01E35FFA4F449171
:1053B000FC01E350FB4F3491FC01E351FB4F24917E
:1053C00075B17A7E742BA8B1AC7EA32BBBB1BC7334
:1053D000B22B25E0880F991F2A95E1F74FE150E0A5
:1053E000FA01E353FB4FE491E72BE5B9FA01E355EA
:1053F000FB4FE491EA2BE8B9FA01E357FB4FE49144
:10540000EB2BEBB943988C01042B152B98012A2523
:105410003B2586B02327E22FF0E0E254FC4F2081A9
:10542000282522FF04C0611102C0E80161E0439A0F
:1054300041505109A8F6F394B2CF439A7894299A2F
:10544000399A6623D1F180E8C816D10450F18091D1
:10545000BD0381608093BD03C038D10540F18091C8
:10546000BD0382608093BD03809100019091010192
:10547000009719F00D97029740F48091BC0390912A
:10548000BD03892383708330C1F463E081E0890D1B
:105490000E94AF16299A21963FCFD0E0C0E060E08D
:1054A000CFCF8091BC0381608093BC03D5CF809126
:1054B000BC0382608093BC03D7CFDF91CF911F9153
:1054C0000F91FF90EF90DF90CF90BF90AF909F90A3
:1054D0008F907F90089584E596E00E941A168AE5E1
:1054E00096E00E941A1680E696E00E941A1686E65A
:1054F00096E00E941A168CE696E00C941A16CF934A
:1055000065EF72E08CE696E00E9422161092C105CB
:105510001092C00583E296E090934F0680934E066A
:105520001092510610925006109253061092520695
:105530001092DA0587EE92E09093BF058093BE0546
:105540001092C3051092C2051092D7051092CE0595
:105550001092CF051092D0051092D1058FEF809355
:10556000D8058093DC05E0EEF5E086EF95E0CFEF1F
:10557000C1938E179F07E1F782E499E09093C705E6
:105580008093C60589EA9AE09093C9058093C8057F
:105590008CEF9EE09093CB058093CA0586EC97E054
:1055A0009093CD058093CC0530E020E040E069E0A9
:1055B00082EC95E00E94420910921D0610921C0692
:1055C0008DE296E09093F7058093F6058EEB94E0DC
:1055D0009093FB058093FA0582E08093FC0510927E
:1055E000FD0510922B0610924B061092470681E0A3
:1055F00080934C0680934D068FEE92E09093F905D0
:105600008093F80582EC95E00E94230B109215061A
:105610001092140610921906109218068FEF9FEF41
:10562000909317068093160690931B0680931A0694
:10563000E091F805F091F9050280F381E02D82EC0C
:1056400095E009958CE996E090931F0680931E06DD
:1056500010922E068DE08093EC058CE08093ED0592
:10566000C093EB0565EF72E086E696E00E94221695
:1056700065EF72E080E696E00E94221665EF72E028
:105680008AE596E00E94221665EF72E084E596E0D6
:10569000CF910C942216CF93DF93CDB7DEB7E99765
:1056A0000FB6F894DEBF0FBECDBF789484B583608B
:1056B00084BD85B5836085BD80916E0081608093D7
:1056C0006E0082E0809381008091810081608093F0
:1056D0008100809180008160809380008091B10082
:1056E00084608093B1008091B00081608093B000AD
:1056F00087E880937A001092C100E091C605F0918E
:10570000C70530E020E040E06AE082EC95E00995D2
:1057100082EC95E00E949D1682EC95E00E94731643
:10572000182F8111F9CF60E082EC95E00E948D0E78
:10573000E091C605F091C70530E020E040E06BE065
:1057400082EC95E00995E091C605F091C70530E03F
:1057500020E040E06BE082EC95E0099584B1807E2A
:1057600084B987B1807C87B91AB883E10E94D006DA
:10577000019729F48091B2038B5F8093B20383E099
:105780000E94D006019729F48091B2038C5F809328
:10579000B20382E00E94D006019729F48091B203FF
:1057A0008E5F8093B2038091B2039EEF980F943086
:1057B00008F4E6C1823008F0D3C161E08DE00E94B8
:1057C000270761E08CE00E9427076BEF72E0CE01B3
:1057D00001960E942216CE0101960E94BA1BCE01AC
:1057E00001960E941A1610FDADC02D9A2C986AEFF2
:1057F00070E080E090E00E9493071F5F1A3099F7F5
:105800002D982C9885EE96E00E94D60D2D982C9A16
:10581000EFE8EE2EE1E0FE2EF2E9CF2EF1E0DF2EF2
:1058200001E0F70111917F0161E0812F0E942707BC
:1058300061E0812F0E94F9068AE090E00E946307F0
:1058400060E0812F0E94270764EF71E080E090E024
:105850000E949307812F0E94D006892B09F000E057
:1058600062E0812F0E942707CE14DF04D1F665E0A5
:1058700073E0002309F45EC082EC95E00E949D165F
:1058800056E1A52EB12C69E1C62ED12C7CE0E72E85
:10589000F12C0AE210E0B0925106A0925006D0928C
:1058A0005306C092520680EF93E00E945A12F09283
:1058B0005106E0925006109353060093520680EE74
:1058C00093E00E945A1282EC95E00E9473168111B7
:1058D000E2CFF12CE12C61E083E10E94F906FDE0CA
:1058E000EF16F10409F43EC061E08E2D0E942707F7
:1058F00060E08E2D0E94F90668EC70E080E090E098
:105900000E94930710E000E0E016F10631F161E03B
:10591000802F0E94270761E0802F0E94F90662E035
:10592000802F0E942707802F0E94D006019769F0E0
:105930006FE073E0CE0101960E942216CE0101961F
:105940000E945A1B2D982C9A52CF61E0802F0E9402
:10595000270760E0802F0E94F9060F5F1F4F043178
:10596000110591F62FEFE21AF20A34E1E316F10481
:1059700009F0B1CF2D9A2C986AEF70E080E090E0AA
:105980000E9493072D982C9A82EC95E00E949D1618
:105990000CE010E039E1C32ED12C4AE2E42EF12CC8
:1059A0001093510600935006D0925306C0925206AF
:1059B00080ED93E00E945A12109351060093500616
:1059C000F0925306E092520680EC93E00E945A1245
:1059D00082EC95E00E9473168111E2CF61E083E1D1
:1059E0000E94F90664E670E080E090E00E94930770
:1059F0000FE911E025EAE22E21E0F22E62E0F80143
:105A000081918F010E942707E016F106B9F70AE994
:105A100011E09FE9E92E91E0F92E62E0F801819111
:105A20008F010E942707E016F106B9F702E911E09D
:105A30008AE9E82E81E0F82E62E0F80181918F0179
:105A40000E942707E016F106B9F780E090E2A0E097
:105A5000B0E08093AC039093AD03A093AE03B093FA
:105A6000AF03C12CD12C7601C3948091AC039091EB
:105A7000AD03A091AE03B091AF038F3F9F4FAF40F6
:105A8000B10509F456C010E000E02DE0021709F45A
:105A900049C04090AC035090AD036090AE0370904D
:105AA000AF03D301C201002E04C0B695A795979508
:105AB00087950A94D2F780FD35C0802F0E94D006CA
:105AC000892B81F5D701C601002E04C0880F991FCC
:105AD000AA1FBB1F0A94D2F784299529A629B729A2
