:100000000C94E7050C940F060C940F060C940F0645
:100010000C940F060C940F060C940F060C940F060C
:100020000C940F060C940F060C940F060C940F06FC
:100030000C940F060C940F060C940F060C940F06EC
:100040000C94E3270C940F060C940F060C940F06E7
:100050000C940F060C940F060C940F060C940F06CC
:100060000C942D280C940F06343533322F3337334C
:10007000322D482033324B783100343533322F3330
:100080003733322D4C2033324B7831003430323715
:1000900020344B783100343831362031364B7831CA
:1000A00000343131362031364B7831003431313043
:1000B000303020314D783100353134343032203118
:1000C0004D78342D53430035313434303020314DA8
:1000D000783400353134323538203235364B783487
:1000E0002D534300353134323536203235364B7896
:1000F0003400343436342036344B783400343431E0
:10010000362031364B7834003431323537203235B1
:10011000364B78312D4E4D00343132353620323564
:10012000364B783100343136342036344B78310058
:10013000436865636B696E672E2E2E004465746597
:10014000637465643A0052414D2D544553544552F1
:1001500000410056657273696F6E3A004800FF3FB8
:1001600030FCFFF3FF03FF3F30FCFFF3FF030330DE
:10017000CF03F03300030330CF03F0330003F33336
:10018000CCF0CC303F03F333CCF0CC303F03F3332F
:10019000C3F0C3333F03F333C3F0C3333F03F3333D
:1001A000CFCF30303F03F333CFCF30303F03033076
:1001B000F330303000030330F33030300003FF3FC2
:1001C000333333F3FF03FF3F333333F3FF030000D5
:1001D000C00CFC0300000000C00CFC030000CCF3CA
:1001E000FF33C0CCCF00CCF3FF33C0CCCF003F00F7
:1001F000CCCC03300F003F00CCCC03300F000FF30A
:10020000C0FFC0C303030FF3C0FFC0C30303F0C3A9
:100210000F33FCC0C300F0C30F33FCC0C300033C6A
:10022000F333CF0CC000033CF333CF0CC00030CF0E
:1002300000FFF30C3C0330CF00FFF30C3C033FFC0A
:100240003F0C30FF3F003FFC3F0C30FF3F00FCC342
:10025000FC0030FFC000FCC3FC0030FFC000F330E6
:100260000C3F0F003F00F3300C3F0F003F00CC0F5E
:10027000CCFC0FF33300CC0FCCFC0FF333000F3F5B
:10028000F3C0FC3CF3030F3FF3C0FC3CF303C3C3D8
:10029000033300F00300C3C3033300F00300FC305A
:1002A0000F0C3FFFF303FC300F0C3FFFF303000084
:1002B0003FF3C303F30000003FF3C303F300FF3F2A
:1002C00033CFC0330303FF3F33CFC03303030330C7
:1002D0000C30F3033F0303300C30F3033F03F333DD
:1002E000CFCC0CFFF303F333CFCC0CFFF303F3338A
:1002F000FFF033CC3000F333FFF033CC3000F33376
:1003000000CCC03FCC00F33300CCC03FCC00033066
:100310000F0303C33F0003300F0303C33F00FF3F3E
:10032000C0FC3300F300FF3FC0FC3300F300536513
:100330006C662054657374204661696C210042002C
:10034000576972652050696E32302D3E616C6C00C9
:100350004E6F2053686F72747320666F756E640001
:10036000436865636B696E672053686F72747300CE
:100370005265736973746F7273204F4B00000002F3
:100380000201010303000002020101030300000255
:100390000201010303000002020101030300000047
:1003A00000000000000404040404040404101010FD
:1003B000101010101014141414141414140010003D
:1003C00010001000100010001000100010001000AD
:1003D000100010001000100010001000100080002D
:1003E0008040C040C00080008040C040C00000008D
:1003F00000000000000101010101010101000001F4
:10040000010000010100000101000001013431364A
:10041000342F343533323F00000000002400270021
:100420002A0000000000250028002B00000000002A
:100430002300260029000404040404040404020226
:100440000202020203030303030301020408102053
:10045000408001020408102001020408102000005E
:100460000008000201000003040700000000000073
:100470000000001004140111051500000101020222
:100480000303040405050606070720202121222274
:100490002323242425252626272740404141424264
:1004A0004343444445454646474760606161626254
:1004B0006363646465656666676780808181828244
:1004C00083838484858586868787A0A0A1A1A2A234
:1004D000A3A3A4A4A5A5A6A6A7A7C0C0C1C1C2C224
:1004E000C3C3C4C4C5C5C6C6C7C7E0E0E1E1E2E214
:1004F000E3E3E4E4E5E5E6E6E7E7526566726573A3
:10050000682054696D657200420053686F727420F0
:1005100050696E200043004661696C65642050613B
:10052000747465726E200042003F0041646472651D
:1005300073736C696E6520410042004465666563B3
:1005400074206F72206E6F2052414D2100470014BD
:1005500000020203030204040406000006FF06FF73
:100560000000000000AC200580DE002E06D2D88CF2
:10057000003007F3D855AE0A3107F3D825D91A321F
:100580000AB4D8A998412C4700330BB4D88C0C92EC
:1005900046322900340AB4D846558D984102350AAE
:1005A000B4D80C0D36924901360AB4D8A90C569429
:1005B0004901370BB4D88C0C6206318308380AB471
:1005C000D8A99854944901390AB4D8A928D306491E
:1005D000013A07EAD88C38025608B4D84467920A20
:1005E0006509A4D8A9343250006908F3D86524AB52
:1005F000016E07A4D8AC68066F08A4D8A928930296
:100600007208A4D8ACA841067308A4D80D8D860240
:1006100000000004FFFF00000200040506060101BF
:1006200007202000002000200000000000008D4175
:10063000402038989107CC7920A4A6D64AECB4E2A1
:10064000A892622A2A84AA42A632622AAD24314A9A
:1006500022A2A612AAD20B337B62A1471881C41B27
:100660008EB8D20E4B6BA9961E08E70143180042C4
:100670004B2038989107CC7920A4A6D64AECB4E256
:10068000E810458E3908A1438E32EA10A488424210
:1006900029A12ABD3033CD32BCB42AA194408A2886
:1006A000448E32EA9083103AE610450EE24A3B2C23
:1006B000ADA55A7A209C070C610000000004FFFFE2
:1006C00000005F0003030304030504060E00FE0A96
:1006D000FE0BFE017002DC0428200500F207210752
:1006E00052C3C713012208A5DE87848B00230D5651
:1006F000C20F89C542A258482C0024115EBE978CB7
:1007000012D11219CE24BA44682200251056C28F85
:100710008452114D83D191A4429100260E56C2D726
:1007200048A2A7918452D12411270722DFC72100B4
:10073000280CEDBA9F484D24D3512654290DEDBA0B
:1007400087504D28D3492652032A0D3ECE47444BAD
:100750008426A344B4042B0A3EC69750C9245402ED
:100760002C0823BBC74442012D060ED287012E065A
:1007700012C307012F0E6EBAA736A14CA826940902
:100780001501300B56C20F45C49F241400310A5680
:10079000C2976C44D42703320D56C20F454412CA87
:1007A00084328D06330F56C20F4544128AA6421278
:1007B000494201340D56C267506D44D1C52694009C
:1007C000350F56C2C72128AC8884421249420136EF
:1007D0000E56C2D748422256449C241400370C5669
:1007E000C2C7214411CA847A02380F56C20F45C4C9
:1007F000242151444C120A00390E56C20F45C449F7
:100800005224514423003A073AC70799003B0A4B48
:10081000BF8F3A6822A1003C084EC2A74C571D3D2D
:100820000726CA871D6A3E094EC28754371D013FFD
:100830000E56C20F45449229AAC3842200400C568A
:10084000C2D74842B974599112410C56C20FE510F3
:10085000E274183109420D56C24745C414A98838BC
:100860005D00430C56C20F45C4A813494201440C15
:1008700056C20749A2C42F121200450B56C2C72107
:10088000A858116A34460B56C2C721A85811EA0865
:10089000470D56C20F45C4A85262925000480B56ED
:1008A000C28788D361C49300490956C28749A89F6B
:1008B0000C4A0B56C2A73E9228A211004B0F56C2FB
:1008C00087882221CD6624924489244C0856C28709
:1008D000507F344D0C56C24770443A1C443C094E7C
:1008E0000C56C287885469A17422094F0B56C20F57
:1008F00045C49F241400500B56C24745C4E922D476
:1009000008510E66BA0F45C45385529250A5015244
:100910000C56C24745C474D1C44900531056C20F87
:10092000454492488552898824A100540956C287BB
:1009300049A83F01550A56C287887F925000560C3D
:1009400056C287889F24249A0800570C56C287886D
:10095000A7C343251401580F56C287882421D18488
:100960003212454412590C56C287884942A2097571
:10097000025A0E56C28751269409654299D0005BEF
:1009800009EDBAC74DFFAD005C0E6EBA8750552811
:1009900015AA0AA542055D09EDBA474DFFED005EB7
:1009A000081EE6978C22125F0716BAC7A1006007DF
:1009B0009CE2874C01610D3EC20F45249B484824B0
:1009C0004901620B56C28750B122E2E902630B3E35
:1009D000C20F4544D424A100640A56C2A796134FFF
:1009E0009202650D3EC20F45443A0C45120A00665C
:1009F0000C56C29F8C241499843A01670E4EBACFCC
:100A00004A45D32C5811492800680B56C28750B16B
:100A100022E29300690752C307E9706A0CE5BA9FA6
:100A20003A44A6378A64026B0E56C28750534485F7
:100A3000449228D1026C0752C3C783016D0A3EC29B
:100A4000874472F840126E093EC24745C427016FC1
:100A50000A3EC20F45C4938402700B4EBA4745C488
:100A6000D3452804710A4EBACF8927495101720A29
:100A70003EC24745C4A81100730D3EC20F452491E4
:100A8000AA88241400740B56C29750C924D4750048
:100A900075093EC287884F9202760C3EC28788490C
:100AA00042A2094500770C3EC287887478A8842248
:100AB00000780D3EC2878824A1C928229200790EB1
:100AC0004EBA878824D1693694288D007A093EC2AF
:100AD0008751A6A3017B0CEDBAD744A69350A6E399
:100AE000007C076ABBC787027D0DEDBAC750A6A37D
:100AF00048A6CB08007E0A26DE4FAC22A94500009E
:100B0000000004FFFF0000030005050606050207BC
:100B100020200000200020000000000000A643323A
:100B2000D087071B2319CA48863292A18C642827D4
:100B300038C2098E3254A10C55AC4215AB58847999
:100B4000823318B214E520E848C622D8D0840500C4
:100B5000473E1C080533E21AD6A84745283215A996
:100B6000440632AF798E2B48D10C62308318EB20CB
:100B7000873AC89110722484200821C8B18C55305E
:100B8000828D852863218B58C81218F2813F483422
:100B90002008054F421BF8948D7CC2682B60881298
:100BA0001892064635A94D6C62D4A2D6C49660B49C
:100BB00085AE4707615481105620C31DC4908D4DEA
:100BC000680000000004FFFF0000302B1C2B1124E4
:100BD0001FBECFEFD8E0DEBFCDBF26E0A0E4B3E07C
:100BE00001C01D92AD31B207E1F713E0A0E0B1E022
:100BF000E0EDFAE702C005900D92A034B107D9F7F5
:100C000015E0C6EED5E004C02197FE010E945C3BD2
:100C1000C53ED107C9F70E94FB2B0C945B3D0C9499
:100C20000000662329F06A3019F0862F90E00895BD
:100C30008FEF9FEF0895AF92BF92CF92DF92EF9226
:100C4000FF920F93CF93DF93EC01DA017901942F98
:100C50009770E1E0F0E09F01092E01C0220F0A9495
:100C6000EAF7522F6E018AE8C80ED11CF601808186
:100C700040E0823018F4422F813049F15D01F8EFF5
:100C8000AF22E8ADF9AD28813981D90150968C9118
:100C90008A9D90018B9D300D1124620F731FDF011F
:100CA000A60FB71F01111AC0EA0EFB1E8C91842BF0
:100CB00085278D93AE15BF05C9F7DF91CF910F91B1
:100CC000FF90EF90DF90CF90BF90AF90089550E0ED
:100CD000D5CF440F550FE114F10479F33C91342B37
:100CE00035273C939F5F9770E1E0EE1AF108911170
:100CF000F0CF2CAD3DADA20FB31FF6018081823045
:100D000028F4813009F051E041E0E5CF51E0E3CF34
:100D100080E0089590E080E0089580FF32C0449A1A
:100D2000FC01EF77FF27E658FB4F2491EBB1E87108
:100D3000E22BEBB9880F892F881F990B9195FC0145
:100D4000EE58FB4FE49185B18A7EE82BE5B92B98EC
:100D50006623C9F0409A4498EAE7F4E08491EBB145
:100D6000E871E82BEBB9E2E7F4E08491E5B1EA7EC3
:100D7000E82BE5B9419842980000429A419A2B9A93
:100D800008954498CDCF4098E6CF80FF32C0449A72
:100D9000FC01EF77FF27E658FB4F2491EBB1E87198
:100DA000E22BEBB9880F892F881F990B9195FC01D5
:100DB000EE58FB4FE49185B18A7EE82BE5B92B987C
:100DC0004498EAE7F4E08491EBB1E871E82BEBB9E1
:100DD000E2E7F4E08491E5B1EA7EE82BE5B94298D8
:100DE0000000000086B1429A2B9A83FB882780F985
:100DF00008954498CDCF9B01DC011896ED91FC91AC
:100E000041E067E10994833081F028F4813099F062
:100E10008230A9F008958730A9F08830C9F0843075
:100E2000B1F4809180008F7D03C0809180008F7726
:100E300080938000089584B58F7784BD089584B52C
:100E40008F7DFBCF8091B0008F778093B0000895A5
:100E50008091B0008F7DF9CFCF93DF93282F30E0C2
:100E6000F901E25AFB4F8491F901E65BFB4FD49103
:100E7000F901EA5CFB4FC491CC23A1F081110E94DF
:100E80000307EC2FF0E0EE0FFF1FE45DFB4FA59191
:100E9000B491EC91ED2381E090E009F480E0DF91E2
:100EA000CF91089580E090E0FACF1F93CF93DF9326
:100EB000282F30E0F901E25AFB4F8491F901E65BFB
:100EC000FB4FD491F901EA5CFB4FC491CC23A9F00C
:100ED000162F81110E940307EC2FF0E0EE0FFF1F89
:100EE000EE5DFB4FA591B4918FB7F894EC91111181
:100EF00008C0D095DE23DC938FBFDF91CF911F9187
:100F00000895DE2BF8CFCF93DF9390E0FC01E65BF2
:100F1000FB4F24918A5C9B4FFC0184918823C9F08C
:100F200090E0880F991FFC01E85EFB4FA591B491FA
:100F3000FC01EE5DFB4FC591D49161110DC09FB7CF
:100F4000F8948C91209582238C9388812823288380
:100F50009FBFDF91CF910895623051F49FB7F8940D
:100F60003C91822F809583238C93E8812E2BEFCFA9
:100F70008FB7F894EC912E2B2C938FBFEACF823051
:100F8000910538F0880F991F880F991F05970197D1
:100F9000F1F708953FB7F8948091E1049091E2044D
:100FA000A091E304B091E40426B5A89B05C02F3FAF
:100FB00019F00196A11DB11D3FBFBA2FA92F982F7F
:100FC0008827BC01CD01620F711D811D911D42E07A
:100FD000660F771F881F991F4A95D1F708958F9242
:100FE0009F92AF92BF92CF92DF92EF92FF926B01EE
:100FF0007C010E94CA074B015C01C114D104E104C9
:10100000F104B9F00E94CA07681979098A099B0995
:10101000683E73408105910580F321E0C21AD10832
:10102000E108F10888EE880E83E0981EA11CB11C2F
:10103000E4CFFF90EF90DF90CF90BF90AF909F9064
:101040008F90089520918C03260F3327331F213270
:101050003105ECF42091B003FC0190E080E02430F5
:1010600069F082E00895A0918C032191AC0144596C
:101070005C4FA40FB52FB11D2C930196861798F3E2
:1010800080918C03680F60938C0380E0089581E069
:10109000089508958FEF9FEF08958FEF9FEF0895C4
:1010A0008091650390E09195819591090895CF9382
:1010B000DF93CB01EA01642F0E942208CE01DF9169
:1010C000CF910895CF93DF931F92CDB7DEB7698399
:1010D00061E0CE0101960E94220881E090E00F902D
:1010E000DF91CF910895DC011A96ED91FC9130E0EB
:1010F00020E00994DC011696ED91FC9130E020E0AF
:1011000040E069E10994DC011696ED91FC9130E034
:1011100020E040E068E109949A01DC011696ED9127
:10112000FC91462F67E10994EF92FF920F931F9372
:10113000CF93DF931F92CDB7DEB77C018B01D8012F
:101140006C91673129F150F46531A0F40F90DF9173
:10115000CF911F910F91FF90EF9008956A3118F190
:101160006E3FA1F7F8014181498369E2C7010E94FE
:1011700073080BC0F80141814983D7011696ED91A0
:10118000FC9130E020E0C70109950E5F1F4FD7CFDB
:10119000F80181818983AE014F5F5F4F61E0C70134
:1011A0000E948C08F2CF0F5F1F4FD7011696ED916A
:1011B000FC9130E020E040E0C7010995C0CF462F08
:1011C000DC011696ED91FC9130E020E066E1099497
:1011D000462FDC011696ED91FC9130E020E065E1B0
:1011E0000994EF92FF920F931F93CF93DF93EC013B
:1011F000042F79016D3009F446C050F46B30C9F109
:10120000693009F49FC06A3009F465C080E046C0C7
:101210006E3009F452C06F3099F70E948308F701CD
:101220001381110F110F110F6C89160F60E4CE019D
:101230000E94E808612F62956F706061CE010E9484
:10124000E808612F6F70CE010E94DF08F70164810A
:10125000606BCE010E94DF08F701408151816281FD
:10126000660F660F660FCE010E948C080150A1F731
:101270002EC067E471E0442311F062E471E0CE0116
:101280000E9494080AC0411110C06BE371E00E94F3
:101290009408E881F98182898C8B81E0DF91CF917C
:1012A0001F910F91FF90EF90089564E371E00E9409
:1012B0009408E881F9818389EFCF0E94830861E86F
:1012C000CE010E94E808602FCE010E94DF08CE0107
:1012D0000E947A08E2CFEA85FB8530E020E040E01A
:1012E00068E2CE010995EE81FF8130E020E040E028
:1012F00064E1CE01099541E06BE4CE010E947308E0
:10130000E881F981448169E2CE010E94730840E0DE
:101310006BE4CE010E947308E881F981448169E29F
:10132000CE010E94730841E06BE4CE010E94730875
:10133000E881F981458169E2CE010E9473086CE47D
:1013400071E09DCF81E891E0998388831C8AA5CFC5
:1013500041E06DE40C947308DC01ED91FC9145854E
:101360006DE20C947308CF93DF93EC0141E06CE4E1
:101370000E947308CE01DF91CF910C94AC09CF93FA
:10138000DF93EC01662379F00E94A809CE010E9448
:10139000AC09CE010E94B30940E06CE4CE01DF91BC
:1013A000CF910C94730840E06DE40E947308EECF77
:1013B0001F93CF93DF93EC01162F60780E94BF0933
:1013C000612F6074CE010E94BF09612F6072CE014F
:1013D0000E94BF09612F6071CE010E94BF09612F79
:1013E0006870CE010E94BF09612F6470CE010E9417
:1013F000BF09612F6270CE010E94BF09612F617029
:10140000CE010E94BF09CE010E94A809CE010E9410
:10141000AC09CE010E94B309CE010E94A809CE01F9
:101420000E94AC0940E06CE4CE01DF91CF911F91A6
:101430000C947308DC011896ED91FC9130E020E0EB
:1014400040E069E10994DC011896ED91FC9130E0EF
:1014500020E040E068E10994CF93DF931F92CDB77D
:10146000DEB76983BE016F5F7F4F0E94FB060F905E
:10147000DF91CF910895EF92FF921F93CF93DF9367
:10148000EC01162F7A010E94230A60E4CE010E942B
:101490002C0AE885F9859701412F67E1CE0109956E
:1014A000CE01DF91CF911F91FF90EF900C941A0A1B
:1014B000EF92FF921F93CF93DF93EC01142F7901EA
:1014C000663181F138F4643109F44BC0653179F04B
:1014D00080E022C06831C9F150F16931C9F78091CB
:1014E0006403882391F1CE010E941A0A2EC08091D4
:1014F0006403882319F0CE010E941A0ACE010E94CB
:10150000230A60E0CE010E942C0A612FCE010E94C6
:101510002C0A81E080936403DF91CF911F91FF90AB
:10152000EF900895642F0E942C0A81E0F5CF8091FE
:101530006403882319F0CE010E941A0AA701193109
:1015400038F4612FCE010E943B0A10926403EDCF64
:1015500068E1CE010E943B0A185188E1E80EF11CB7
:10156000EDCF8E898F3F11F488E78E8BE885F98562
:101570009701412F64E1CE01DF91CF911F91FF9040
:10158000EF9009940F93FC01E05CFF4F0190F08114
:10159000E02D4E1B5F0BDC01D496ED91FC9109957B
:1015A0000F910895CF93DF93FC01A081B18182ADAB
:1015B00090E09C0143E0220F331F4A95E1F737AFDB
:1015C00026AF50962C91509748E0249F900111240B
:1015D00035AF24AF23AD30E0B90153E0660F771F7C
:1015E0005A95E1F7EF01C05CDF4F7983688351962C
:1015F0004C915197E901C80FD91F50E04C175D0776
:1016000018F4CA01821B930BEF01CE5BDF4F798385
:101610006883229623E0880F991F2A95E1F7860FA9
:10162000971F99838883229654968D919C91559704
:1016300099838883E85BFF4F56968D919C919183A7
:101640008083DF91CF9108950F931F93FC01E25B9C
:10165000FF4F0190F081E02DDC01A05BBF4F0D90AA
:10166000BC91A02D4A175B0740F4E017F10748F042
:101670000417150730F080E019C0E017F107C0F338
:10168000FACFFC01E65BFF4F40815181845B9F4FA5
:10169000FC01808191816817790758F481E0421735
:1016A000530720F081E02617370728F71F910F9185
:1016B000089542175307B0F3DECF2F923F924F9217
:1016C0005F926F927F928F929F92AF92BF92CF92D2
:1016D000DF92EF92FF920F931F93CF93DF93CDB7DB
:1016E000DEB72A970FB6F894DEBF0FBECDBF9A873C
:1016F0008987865B9F4F9A838983FC0111821082C0
:10170000E985FA85EA5BFF4F4080518029853A855B
:10171000245B3F4F3C832B83F90151824082E98552
:10172000FA85EE5BFF4F2080318029853A85225B68
:101730003F4F3E832D83F90131822082E985FA856E
:10174000EC5BFF4F6080718029853A85205B3F4FBD
:1017500038872F83F90171826082E985FA85E85A1A
:10176000FF4FE080F180E985FA85EC5AFF4FA080B9
:10177000B180E985FA85EA5AFF4FC080D180E985BA
:10178000FA85EE5AFF4F8080918087019501A6016E
:10179000B40189859A850E94240B29853A852C57A6
:1017A0003F4F3A87298781111BC0F90110822A9681
:1017B0000FB6F894DEBF0FBECDBFDF91CF911F9162
:1017C0000F91FF90EF90DF90CF90BF90AF909F90E0
:1017D0008F907F906F905F904F903F902F900895E3
:1017E00081E0E985FA8580838114910421F0E98103
:1017F000FA8191828082A414B50420F4EB81FC81EB
:10180000B182A0822C143D0420F4ED81FE81D182AE
:10181000C082E614F70458F6EF81F885F182E08281
:10182000C6CF0F93CF93DF93E02FDC01AC57BF4FB0
:10183000FC91FF2309F460C02115310509F45CC057
:101840002230310538F0023009F04AC06F5F7F4F17
:10185000621B730B0E2F0170E0FD52C0FC01E25BB6
:10186000FF4F0190F081E02D4E175F0708F444C050
:10187000FC01E05BFF4F0190F081E02D4E175F0708
:10188000D8F5FC01E45BFF4F0190F081E02DDC0115
:10189000A65BBF4F0D90BC91A02D260F371F2617BA
:1018A000370738F56E177F0718F59F01215031096A
:1018B000A217B30708F56A177B0708F4BD012E17B6
:1018C0003F0708F4F901E61BF70BEC01AEA9BFA92D
:1018D00014960D90BC91A02D9F01FD0109950CC09F
:1018E000033009F0B7CF4F5F5F4F421B530BB2CFAE
:1018F000BD016E177F07E0F2DF91CF910F91089540
:10190000FC01E65BFF4F0190F081E02D6E177F0731
:1019100098F3FC01E45BFF4F0190F081E02D6E171E
:101920007F0750F7FC01E05BFF4F0190F081E02D55
:10193000DC01A25BBF4F0D90BC91A02D240F351F81
:1019400024173507A8F44E175F0788F49F0121502C
:101950003109A217B30780F64A175B0708F4AD01F7
:101960002E173F0708F4F901E41BF50BAECFAD01CC
:101970004E175F0708F6EDCF213069F038F02230BE
:1019800079F0840F911D47FD9A950895860F911D5A
:1019900067FD9A950895841B910947FD93950895D5
:1019A000861B910967FD93950895213069F038F001
:1019B000223079F0861B910967FD93950895840F75
:1019C000911D47FD9A950895860F911D67FD9A9583
:1019D0000895841B910947FD939508953F924F9276
:1019E0005F926F927F928F929F92AF92BF92CF92AF
:1019F000DF92EF92FF920F931F93CF93DF937C01BF
:101A0000162F442EEC01C25ADF4F5E806F806C01AE
:101A10008AE8C80ED11C78847518312E711608F426
:101A2000372C8C809D800E85202F462D652D8A8138
:101A30009B810E94BC0C5C01202F462D652DC401AA
:101A40000E94D50CAC01442079F08C85F60180838E
:101A5000232D30E0B501C7010E94110C171548F085
:101A600017196394512CD7CF8B858111F7CF8D85B2
:101A7000EDCF150D1E836F82DF91CF911F910F91D6
:101A8000FF90EF90DF90CF90BF90AF909F908F909E
:101A90007F906F905F904F903F900895DC011A9671
:101AA0004C911A97ED91FC911197249130E0042EFE
:101AB00002C0359527950A94E2F7842F860F883067
:101AC00068F031961196FC93EE93E49198E0941BA4
:101AD00001C0EE0F9A95EAF72E2B88501A968C9338
:101AE0008FEF9FEF01C0880F6A95EAF780958223F8
:101AF0000895FC01E60FF11D849190E0982F88274E
:101B00003196E4918E0F911D0895CF93DF9320912C
:101B1000C3053091C4052817390709F490C0EC01BA
:101B20009093C4058093C305FC0184918093D605EE
:101B30003196E491E093D705FE013296E491E0936B
:101B4000D805FE013396E491E093D905FE01349661
:101B5000E491E093DA05FE013596E491E093DB052C
:101B6000FE013696E491E093DC05FE013796E491A0
:101B7000E093DD05FE013896E491E093DE05FE0179
:101B80003996E491E093DF05FE013A96E491E09303
:101B9000E005FE013B96E491E093E105FE013C96F1
:101BA000E491E093E205FE013D96E491E093E305C4
:101BB000FE013E96E491E093E405FE013F96E49138
:101BC000E093E505FE017096E491E093E60561E19E
:101BD000CE010E94790D9093E8058093E70563E1BB
:101BE000CE010E94790D9093EA058093E90565E1A5
:101BF000CE010E94790D9093EC058093EB058091C6
:101C0000C3059091C405892BD1F08091E3058093A1
:101C1000EF054091E4054093F0059091EE0599237E
:101C200071F0913079F49091E505891714F490934F
:101C3000EF058091E605841714F48093F005DF9199
:101C4000CF9108953091E0052091E205082E000C17
:101C5000990B622F022E000C770B630F711D37FD5D
:101C60007A95861797071CF4320F3093EF052417E7
:101C700034F72093F005E3CFCF93DF93EC016BAF04
:101C8000EEA9FFA90190F081E02D0995EEA9FFA929
:101C90000280F381E02DCE01DF91CF910994AF92C4
:101CA000BF92CF92DF92EF92FF920F931F93CF9349
:101CB000DF9300D000D01F92CDB7DEB78C01DC01DE
:101CC000DA96AC90DA97DB96EC90DB97ED91FC918D
:101CD000B188FE2CD12CC12CD801ED91FC9111972B
:101CE0008089D8962D913C911C82FD828B83B8E02F
:101CF0008B9FC00111248C9DA0018D9D500D9C9D3A
:101D0000500D1124240F351F3A832983D8011496CE
:101D1000ED91FC919E012F5F3F4F41E06FE0C801C4
:101D20000995F3948F2D8E198A1528F4BFEFCB1ADD
:101D3000DB0AFB1488F20F900F900F900F900F901A
:101D4000DF91CF911F910F91FF90EF90DF90CF9097
:101D5000BF90AF900895EF92FF921F93CF93DF93C0
:101D6000EC01142F7901683151F130F46431D1F074
:101D70006731A9F080E006C0693109F443C06032E0
:101D8000C9F781E0DF91CF911F91FF90EF90089507
:101D9000F70161917F01CE010E94D8091150111104
:101DA000F7CFEFCF41E06CE40E94730841E06DE4AF
:101DB000CE010E947308CE010E94AC09E2CF8F8948
:101DC000882349F0CE010E94A809CE010E94AC09E7
:101DD000CE010E94B309CE010E94A80940E06DE443
:101DE000CE010E947308CE010E94AC0940E06CE471
:101DF000CE010E94730881E08F8B6E89CE010E9414
:101E0000D809BFCF40E06DE40E947308CE010E9464
:101E1000AC09CE010E94B309CE010E94A809CE01EF
:101E20000E94AC091F8AADCF0F931F93CF93DF930E
:101E30008C01C62F642FCC32E8F4CA3208F041C0BE
:101E4000C83271F1C93209F442C080E0C034D0F127
:101E5000CF73F801EC0FF11D868D8F3F91F1C031EA
:101E6000E0F00E942C0721E0892B09F420E0F80122
:101E7000218F27C0CD3289F140F384EB8C0F823063
:101E800020F7CF73C00FD12FD11D8E8D41112EC0E1
:101E900061E00E94830760E08E8D0E94550711C0AB
:101EA000025E1F4FD0E0F80181918F018F3F31F02A
:101EB00061E0D03108F062E00E948307DF5FD63135
:101EC00091F781E0DF91CF911F910F91089570E01C
:101ED00090E080E00E94EF07F4CF85E090E043308F
:101EE00010F082E090E00E94BF07EBCF62E00E941A
:101EF0008307E7CF60E08DE00E94550760E08CE04B
:101F00000C945507789415B888B1807F88B98CE116
:101F10008BB914B887B1807C87B91AB81BB861E057
:101F20008DE00E94830761E08CE00E94830760E0FF
:101F30008DE00E94550760E08CE00C9455078230DC
:101F4000910551F061E0039741F08DE00E94550743
:101F500060E08CE00C94550760E08DE00E9455072E
:101F600061E0F7CFCF92DF92EF92FF920F931F9332
:101F7000CF93DF937C01062F10E0D0E0C0E0680132
:101F800081E0C81AD108C017D107B1F0C7010E947B
:101F90009F0F64EF71E080E090E00E94EF070E94E5
:101FA0007A0FCC15DD0534F464EF71E080E090E049
:101FB0000E94EF072196E7CFDF91CF911F910F91FC
:101FC000FF90EF90DF90CF9008950E94820F81E004
:101FD00090E00E949F0F68EC70E080E090E00E942B
:101FE000EF070E947A0F68EC70E080E090E00E94BA
:101FF000EF07EDCFCF93DF93C82FD62F83EE93E07B
:102000000197F1F761E08C2F0E94830761E08D2F2B
:102010000E94830761E08C2F0E94550761E08D2F9D
:102020000E945507D8E060E08C2F0E94550761E0C0
:102030008C2F0E945507D150B1F7DF91CF910895B1
:1020400090917C00907F892B80937C0080917A0016
:10205000806480937A0080917A0086FDFCCF809125
:102060007800909179000895EAEDF3E08191DF0125
:10207000119780958F708C9384E0EA3DF807B1F753
:102080000895CF92DF92EF92FF920F931F93CF9319
:10209000DF936C01EB017B01E40EF51E10E000E024
:1020A000CE15DF0561F06991D601ED91FC910190AB
:1020B000F081E02DC6010995080F191FF1CFC80165
:1020C000DF91CF911F910F91FF90EF90DF90CF9014
:1020D0000895FC01448155816081718185E695E018
:1020E0000C9441102F923F924F925F926F927F9289
:1020F0008F929F92AF92BF92CF92DF92EF92FF9218
:102100000F931F93CF93DF93CDB7DEB728970FB60A
:10211000F894DEBF0FBECDBF7C016C0124E0C20E7F
:10212000D11CFC01E057FF4F0190F081E02DC6016A
:1021300009958C018E3F9F4F08F061C0370184E9FB
:10214000680E711CF3010190F081E02DFD83EC839A
:102150005701F2E9AF0EB11CF50180809180970123
:1021600020593F4F3B832A83F9018081813009F454
:1021700070C008F45FC0823009F476C0833009F47F
:1021800082C0F701EC59FF4F9182808232962C81F8
:102190003D813183208338978081918147969D834B
:1021A0008C830F3F110511F008F020C1B69601365F
:1021B000110530F40134110558F0F701EE57FF4FC7
:1021C000808191812C813D81280F391F3D832C8393
:1021D0008C819D810196FC01249121115FC090E0CA
:1021E00080E0EA81FB812081213009F4C1C108F43B
:1021F000B7C1223009F4BEC1233009F4C3C181E064
:1022000090E028960FB6F894DEBF0FBECDBFDF91E9
:10221000CF911F910F91FF90EF90DF90CF90BF90E3
:10222000AF909F908F907F906F905F904F903F9076
:102230002F900895F701E05AFF4F0190F081E02DB3
:10224000C60109952C813D81280F391F3D832C83C0
:1022500098CFF701E05AFF4F0190F081E02DC601C1
:102260000995881A990A8DCFF701E05AFF4F01901E
:10227000F081E02DC6010995EC81FD81E81BF90B89
:10228000FD83EC837ECFF701E05AFF4F0190F08190
:10229000E02DC6010995880E991E73CFEC81FD8152
:1022A00024912017110609F09AC0CF0102960097D9
:1022B00009F495CFF701EE59FF4FF887EF8391832B
:1022C00080831286739660818F8198850E944E0D5F
:1022D000EF81F8858087F701EA58FF4F60818F8191
:1022E00098850E944E0D582EEF81F88581879701C1
:1022F00022573F4F3D832C83F9019081EF81F88570
:10230000948781E0911180E0EF81F8858587F7015E
:10231000E958FF4F8080682D8F8198850E944E0D6F
:10232000382EF701E858FF4F2080622D8F81988565
:102330000E944E0D982EF701E758FF4F1081612F34
:102340008F8198850E944E0D9FEF910F01E010E064
:10235000980101C0220F9A95EAF7821B8E83EF81C4
:10236000F885408414140CF0C4C08A94C80101C0DC
:10237000880F8A94EAF7381AF685F983950C2A941F
:10238000C80101C0880F2A94EAF7282E29182F2F98
:10239000422D632DEF81F885828193810E94BC0CD0
:1023A0004C01EF81F885938382832981422D632D2F
:1023B000848195810E94D50CEF81F8859583848373
:1023C000F981F13009F49AC008F44EC0F23009F4F2
:1023D000A4C0F33009F4B5C0BC0194014FC0FC01A6
:1023E00084912C813D81280F311DF0CEF701EA57F1
:1023F000FF4F80819181EC81FD81E80FF91FFD8302
:10240000EC834F0160E0C4010E94790D2C813D8175
:10241000280F391F3D832C8362E0C4010E94790D8F
:1024200034E0830E911C8017910760F3EC81FD81ED
:10243000849190E0982F88273196E4918E2B009715
:1024400009F4CDCE0817190721F48C819D810396DC
:102450002ECFEC81FD813296E4912C813D812E0FAF
:10246000311D3D832C83E2CF9401240D311D47FCA7
:102470003A95BC01650D711D57FC7A958B01AC0135
:10248000B401C6010E94240B882399F1EF81F885DD
:10249000168217824701F3E78F0E911C24E7E20EA4
:1024A000F11CF40160818F8198850E944E0D082FE8
:1024B000F70160818F8198850E944E0D182F40E0B2
:1024C000602FC6010E94EE0C41E0612FC6010E9400
:1024D000EE0C61E08F8198850E944E0D8111EFCF47
:1024E000EF81F88587818515E4F28485EC81FD8193
:1024F0008083FE818F2FFF0F990B73CE0519110971
:1025000057FC139594012F5F3F4FBC01640D711D63
:1025100047FC7A95800E911EB1CFA801441951094C
:1025200047FC539594012F5F3F4F0519110957FC44
:102530001395BC016F5F7F4F800F911F840E951E16
:102540009DCF9401250D311D57FC3A9504191109B1
:1025500047FC1395BC016F5F7F4F800F911F8ECF9B
:10256000F50120813181820F931F9183808347CEB3
:10257000F301F7CFF50120813181281B390B31831D
:1025800020833DCEF301F7CF0F931F93CF93DF93BB
:102590008C01D0E0C0E0F801EC0FFD1F64916623D0
:1025A00041F085E695E00E947210892B11F021968A
:1025B000F2CFCE01DF91CF911F910F910895089531
:1025C00090E080E00895299A28982998000000005A
:1025D000299A289A08950F931F93299A05B10F7E7F
:1025E00018B11F7E90FD006191FD106105B918B909
:1025F0008BB929981F910F9108950F931F93CF9333
:10260000DF93EB010E94EB1205B10F7E18B11F7E24
:10261000D0FD0061D1FD106105B918B9CBB900003A
:10262000000028980000000086B1289A299A8F702F
:10263000DF91CF911F910F910895FF920F931F93F8
:10264000CF93DF93D62FF72EC42F0E94EB1205B144
:102650000F7E18B11F7EF0FC0061F1FC106105B91E
:1026600018B9DBB948B1407F4C2B48B90000289815
:102670000000289A299ADF91CF911F910F91FF9026
:1026800008958FE385B980E888B91BB88FE184B9D4
:1026900087B98FEF8AB908958F778BB90000000052
:1026A000289800000000289A86B1817008958F77DD
:1026B0008BB9662341F0419A000000002898000081
:1026C0000000289A08954198F7CF299A0000000049
:1026D0008F778BB9299808952B9A42982B980000F0
:1026E00000002B9A429A0895449A42984498000018
:1026F0000000449A429A08952B9A80FF1AC0449A87
:10270000FC01EF77FF27E658FB4F2491EBB1E8710E
:10271000E22BEBB9880F892F881F990B9195FC014B
:10272000EE58FB4FE49185B18A7EE82BE5B92B98F2
:1027300008954498E5CF282F30E0882309F435C068
:10274000449A26583B4FF90144919BB19871942BC0
:102750009BB942E754E0FA01749195B19A7E972BA8
:1027600095B92B98662319F1409A41984298000038
:10277000429A419A2B9A8823E1F0449AF9012491D4
:102780008BB18871282B2BB9FA014491E5B1EA7E0F
:10279000E42BE5B92B9842980000000086B1429ADC
:1027A0002B9A83FB882780F908954498CACF4098D4
:1027B000DCCF4498E3CF0F931F93449A05B10B7E6F
:1027C000182F1170110F110F012B182F1270110FEC
:1027D000110F110F012B05B90027182F1470129536
:1027E000110F012B182F187012951695012B182F09
:1027F000107816951695012B182F107212951F70D0
:10280000012B182F1074129516951695012B182F61
:10281000107116951695012B0BB944981F910F91C5
:10282000089584B1867F84B987B1857F87B985B1E2
:10283000896085B988B18A6088B9089584B1896052
:1028400084B987B18A6087B908950F931F93CF9396
:10285000C82F80E00E94DB130E941E1429988FE08D
:1028600005B1067F182F1270110F110F012B182FB1
:10287000147016951695012B05B948B1457F182F90
:102880001170110F412B182F1870412B48B905B149
:102890000B7E1C2F1170110F110F012B1C2F1270AA
:1028A000110F110F110F012B05B900271C2F1470E8
:1028B0001295110F012B1C2F187012951695012BD4
:1028C0001C2F107816951695012B1C2F107212953F
:1028D0001F70012B1C2F1074129516951695012B45
:1028E0001C2F107116951695012B0BB942980000FC
:1028F000429A80E005B10B7E182F1170110F110F55
:10290000012B182F1270110F110F110F012B05B988
:102910000027182F14701295110F012B182F187003
:1029200012951695012B182F107816951695012BD8
:10293000182F107212951F70012B182F10741295FA
:1029400016951695012B182F107116951695012BBB
:102950000BB9299A0E941114409842980000000077
:1029600006B113B12227302F32703695230F312F45
:10297000387036953695230F312F3170330F330F62
:10298000230F0870200F822F429A409A8F70CF91A8
:102990001F910F9108950F931F93CF93C62F0E94FD
:1029A000DB1305B10B7E1C2F1170110F110F012BC2
:1029B0001C2F1270110F110F110F012B05B90027D9
:1029C0001C2F14701295110F012B1C2F18701295CB
:1029D0001695012B1C2F107816951695012B1C2F80
:1029E000107212951F70012B1C2F107412951695E2
:1029F0001695012B1C2F107116951695012B0BB9EE
:102A000042980000000006B113B12227302F327027
:102A10003695230F312F387036953695230F312F89
:102A20003170330F330F230F0870200F822F429A1B
:102A3000449A8F70CF911F910F9108950F931F9318
:102A4000CF93DF93C62FD42F0E94DB1305B1067FEF
:102A50001D2F1270110F110F012B1D2F14701695C1
:102A60001695012B05B948B1457F1D2F1170110F27
:102A7000412B1D2F1870412B48B905B10B7E1C2F1F
:102A80001170110F110F012B1C2F1270110F110F4C
:102A9000110F012B05B900271C2F14701295110F6F
:102AA000012B1C2F187012951695012B1C2F1078D6
:102AB00016951695012B1C2F107212951F70012B65
:102AC0001C2F1074129516951695012B1C2F107142
:102AD00016951695012B0BB942980000429A449A1C
:102AE000DF91CF911F910F910895299A43982998CA
:102AF00000000000299A439A0895282F2F7130E092
:102B0000F901E356FC4F5491F901E354FC4F449111
:102B100023583C4FF901249135E0969587953A95D5
:102B2000E1F79927FC01E350FC4F6491FC01E3516C
:102B3000FC4F349183529C4FFC018491E5B1EA7EB5
:102B4000562BE52BE5B9E8B1EE7E432BE42BE8B933
:102B50009BB19C73E22FE82BE92BEBB90895CF933F
:102B6000C62F0E947D15CC2319F0419ACF9108956C
:102B70004198FCCFCF93DF93EB01419839980E94A5
:102B80007D15299860E0CE010E94AF1543980000A2
:102B9000000086B1439A299A82FB882780F9DF9149
:102BA000CF9108950F931F93CF938B01C42F399A20
:102BB0000E947D1529982B98C111C4E06C2FC80183
:102BC0000E94AF1543980000439A2B9A299ACF91FF
:102BD0001F910F9108958F929F92AF92BF920F9382
:102BE0001F93CF93DF93CDB7DEB7A1970FB6F894BD
:102BF000DEBF0FBECDBF19A2423008F44AE08E01FD
:102C00000F5D1F4F842E912CB12CA12CA501940196
:102C10000E943A3BE62FB901CA01EA3044F5E05D73
:102C2000D801EE938D01232B242B252B79F790E0EF
:102C300080E0109769F0FD0101900020E9F73197DD
:102C4000AF014A1B5B0BBD0185E695E00E94411078
:102C5000A1960FB6F894DEBF0FBECDBFDF91CF9126
:102C60001F910F91BF90AF909F908F900895E95C56
:102C7000D7CF0F931F93CF93DF93EC018881998176
:102C8000009759F02A813B812617370730F081E001
:102C9000DF91CF911F910F9108958B016F5F7F4F4F
:102CA0000E94873C009759F0998388831B830A838D
:102CB0002C813D81232B59F7FC011082E8CF80E065
:102CC000E7CFFC0180819181009711F00C94FE3BCD
:102CD0000895EF92FF920F931F93CF93DF93EC0130
:102CE0007B01198218821B821A821D821C82FB01C1
:102CF00001900020E9F731978F01061B170BB801EF
:102D00000E94391628813981811113C0211531059E
:102D100019F0C9010E94FE3B198218821D821C8293
:102D20001B821A82DF91CF911F910F91FF90EF903C
:102D300008951D830C83B701C901DF91CF911F91C5
:102D40000F91FF90EF900C94543D1F93CF93DF931E
:102D500085ED8093BC008091680390916903A091F8
:102D60006A03B0916B030796A11DB11D23E0B695D0
:102D7000A795979587952A95D1F72091BC0024FDBA
:102D800003C01092B00352C0409168035091690390
:102D900060916A0370916B03452B462B472B69F3B7
:102DA0000097A105B10541F02AE22A95F1F700C08C
:102DB0000197A109B109E1CF80916703C1E0C093F8
:102DC0006603882399F1D091B8001091BA008091E0
:102DD000BC008A7B8093BC0060E082E10E945507C2
:102DE00060E083E10E9455071092B003C093B203E4
:102DF0001092B10361E082E10E94550761E083E136
:102E00000E9455078091B9008E7F8093B900809110
:102E1000B9008D7F8093B90088E48093B80085E481
:102E20008093BC001093BA00D093B800DF91CF918B
:102E30001F910895FC01A081B18150962C9182AD23
:102E400038E0839FC0011124289FA001299F500DC5
:102E5000112470E060E080AD91AD0C944D3D1F9366
:102E6000CF93DF93EC010E944F0E1BAD8AAD180F7C
:102E7000E881F9818189181768F0EC81FD8130E0E3
:102E800020E040E060E1CE01099580E0DF91CF9144
:102E90001F910895FE01E557FF4F8081882319F0A7
:102EA000CE010E941A17612FCE010E943C0E81E0D4
:102EB000EDCFCF93DF93EC01FC01E557FF4F80810D
:102EC000882319F0CE010E941A1760E0CE01DF912D
:102ED000CF910C943C0E382E262E83E0861708F4F2
:102EE00061C082E0681708F0F1C081E0681709F45A
:102EF00095C089E695E00E945917F2E3CF2ED12CB8
:102F0000A1E2EA2EF12C04E010E0C6E3D0E087E075
:102F10009BE00E94850DD092F805C092F705F092D3
:102F2000FA05E092F9058DE495E00E94C41282EC66
:102F300096E00E94850D1093F8050093F705D09355
:102F4000FA05C093F9058BE395E00E94C41289E667
:102F500095E00E942F178111DACF0E94820F83E043
:102F6000821508F42FC182E0C1E0C30D281608F0D5
:102F700062C181E0CFEFC30D281609F443C181E09F
:102F800090E00E949F0F68EE73E080E090E00E9466
:102F9000EF070E947A0F68EE73E080E090E00E94F5
:102FA000EF07EDCF84E0681709F4CEC085E0681321
:102FB000A0CF89E695E00E94591782E3C82ED12C54
:102FC00091E2E92EF12C0FE010E0C6E3D0E088E1B9
:102FD00096E00E94850DD092F805C092F705F09218
:102FE000FA05E092F90588E095E00E94C41282ECAF
:102FF00096E00E94850D1093F8050093F705D09395
:10300000FA05C093F9058AEF94E00E94C41289E69C
:1030100095E00E942F178111DACF9FCF89E695E0C6
:103020000E945917C32CD12C64E0D594C7946A959B
:10303000E1F70D2C000CEE08FF0872E3872E912CAF
:10304000C1E2D0E00FE010E0E6E3AE2EB12C432C5D
:10305000512C712C612C88E196E00E94850D909294
:10306000F8058092F705D093FA05C093F90589E336
:1030700095E00E94C41282EC96E00E94850D1093A8
:10308000F8050093F705B092FA05A092F9058BE2D6
:1030900095E00E94C4128FE0831560F04AE0C301FE
:1030A000B2010E94EB1589E695E00E942F1781116D
:1030B000D2CF53CF80E2831520F04AE0C701B6019A
:1030C000F0CF89E295E00E94C412EDCF89E695E049
:1030D0000E94591742E3C42ED12C51E2E52EF12C67
:1030E00008E010E0C6E3D0E0832C912CB12CA12C99
:1030F00088E196E00E94850DD092F805C092F70510
:10310000F092FA05E092F90587E295E00E94C41278
:1031100082EC96E00E94850D1093F8050093F70568
:10312000D093FA05C093F90587E195E00E94C41297
:103130004AE0C501B4010E94EB1589E695E00E94C2
:103140002F178111D5CF09CF89E695E00E94591735
:1031500022E3C22ED12C31E2E32EF12C08E110E063
:10316000C6E3D0E0832C912CB12CA12C87E09BE00E
:103170000E94850DD092F805C092F705F092FA05ED
:10318000E092F90585E195E00E94C41282EC96E098
:103190000E94850D1093F8050093F705D093FA056A
:1031A000C093F9058AE095E00E94C4124AE0C50187
:1031B000B4010E94EB1589E695E00E942F1781115A
:1031C000D5CFCBCE84E0CFEFC30D281609F452C083
:1031D00085E02812D4CE62E081E090E00E94B20F38
:1031E0006CE271E080E090E00E94EF0768E083E02D
:1031F00090E00E94B20F6CED75E080E090E00E94DC
:10320000EF07E9CF61E081E090E00E94B20F6CE24D
:1032100071E080E090E00E94EF07C43128F4632D54
:1032200083E090E00E94B20F6CED75E080E090E0EA
:103230000E94EF07E7CF62E081E090E00E94B20FCA
:103240006CE271E080E090E00E94EF0783E067E0CD
:10325000281629F084E06C2F831508F466E083E0DB
:1032600090E00E94B20F6CED75E080E090E00E946B
:10327000EF07E1CF63E081E090E00E94B20F6CE2E3
:1032800071E080E090E00E94EF07C43128F4632DE4
:1032900083E090E00E94B20F6CED75E080E090E07A
:1032A0000E94EF07E7CFCF93DF93EC01FA01DB0138
:1032B00030E020E061E070E0AB01022E01C0440F7D
:1032C0000A94EAF7899192E0980F923030F093B126
:1032D000942319F464E00E946B178D9192E0980F8B
:1032E000923018F096B19423A9F3819192E0980F4F
:1032F000923018F099B1942369F32F5F3F4F283033
:103300003105D1F6DF91CF9108951F93CF93DF93CD
:10331000162FD42FC22F0E946513812F0E944C13A9
:103320008D1741F0289A299A0000000061E08C2F47
:103330000E946B17299A00000000DF91CF911F9126
:103340000895FF920F931F93CF93DF93C82FD62F2B
:10335000F22E162F00E0411104C0182FC62F0D2F9A
:10336000D0E02B98802F0E94651360E08D2F0E9483
:103370005713299A000000008C2F0E94651361E00A
:10338000812F0E945713299A000000002B9A2F2D9D
:1033900040E06D2F802F0E9485192F2D41E0612F75
:1033A0008C2FDF91CF911F910F91FF900C94851975
:1033B000FF920F931F93CF93DF93F82EC62F042F06
:1033C000E62FF0E0E950FE4FD081E0910001F0914E
:1033D000010134E0EE0FFF1F3A95E1F7E350FE4F95
:1033E00016810E946513F89420E1F29EC001112419
:1033F00070E060E0A62F611708F040C03D2F3170EB
:10340000C430D8F0AC01460F571FFA01F695E79586
:10341000F695E795FF27E652FC4F2081437055272C
:1034200042305105E9F043305105E1F0413051059A
:10343000A9F0247031E009F430E0AF77ABB90000B7
:10344000289800000000289A26B12170321779F0E0
:103450007894602F81E08C0F0E946B172695E9CF3E
:10346000220FE7CF44E0249F90011124E2CFC43023
:1034700010F4DD0FD11D6F5F7F4FBCCF299A789478
:10348000DF91CF911F910F91FF900895DF92EF92FE
:10349000FF920F931F93CF93DF93EC01162FF42E1F
:1034A000D22EE02E0E941114EF2DF0E0E950FE4FD5
:1034B00060814098F89483E08F1508F45BC081E048
:1034C00001C0880FDA94EAF790E050E040E06F70B6
:1034D0004C175D0709F4BAC005B10B7E192F1170A6
:1034E000110F110F012B192F1270110F110F110F46
:1034F000012B05B90027192F14701295110F012BFC
:10350000192F187012951695012B192F10781695F2
:103510001695012B192F107212951F70012B192F60
:103520001074129516951695012B192F107116957A
:103530001695012B0BB942980000429A06B113B1BF
:103540002227302F32703695230F312F3870369561
:103550003695230F312F3170330F330F230F08703F
:10356000200F722F980F671709F46DC06E2D8F2DE5
:103570000E946B17612F70E0CB0124E09695879530
:103580002A95E1F7680F791F41E001C0440FDA94F2
:10359000EAF750E0B0E0A0E0AC17BD0709F456C070
:1035A00005B10B7E152F1170110F110F012B152F67
:1035B0001270110F110F110F012B05B90027152FD4
:1035C00014701295110F012B152F18701295169566
:1035D000012B152F107816951695012B152F1072AB
:1035E00012951F70012B152F1074129516951695B4
:1035F000012B152F107116951695012B0BB94298BA
:10360000429A06B113B12227302F32703695230F1C
:10361000312F387036953695230F312F3170330F97
:10362000330F230F0870200FD22E540FCD018627A1
:1036300097278927E82FF0E0E652FC4F80818D1113
:1036400095CF1196A9CF4F5F5F4F42CF7894409AA4
:10365000449ADF91CF911F910F91FF90EF90DF90EF
:103660000895EC0189E695E00E94591782E3882EBF
:10367000912C91E2A92EB12C2AE0C22ED12C30E35C
:10368000E32EF12C00E410E088E196E00E94850D25
:103690009092F8058092F705B092FA05A092F9058C
:1036A0008EE393E00E94C41282EC96E00E94850DA6
:1036B000D092F805C092F705F092FA05E092F9056C
:1036C0008EE293E00E94C4126C817D8190E080E0E4
:1036D0000E943C3920E030E040E650E40E949D39F1
:1036E0009B01AC0160E070E080E892E40E94923AB5
:1036F0000E94FF3A7093F8056093F7051093FA055E
:103700000093F905CE010E94691089E695E00E94B8
:103710002F178111B9CF61E08DE00E94830761E02E
:103720008CE00E94830781E090E00E949F0FFFCF12
:103730003F924F925F926F927F928F929F92AF9241
:10374000BF92CF92DF92EF92FF920F931F93CF938E
:10375000DF9300D000D0CDB7DEB79A83898389E6A6
:1037600095E00E9459173FE3832E912C0DE310E062
:103770002DE730E043E050E063E470E089E695E057
:103780000E94240B882309F46AC02EE5A22E21E0B2
:10379000B22E83E090E09C838B834B805C809FEF14
:1037A000491A590A82012DE730E04B815C8163E4BC
:1037B00070E089E695E00E94240B882309F446C056
:1037C0003090F305750183E4682E712C9AE3C92EBD
:1037D000D12C11E0F7018491812330E020E0F70142
:1037E00081111FC09491912351F08091F2058111B4
:1037F00027C081E0311080E08093F30517C02F5F70
:103800003F4FFFEF6F1A7F0A110F21F49FEFE91A64
:10381000F90A11E0E1E0CE1AD10809F7882329F36B
:1038200003C09491912359F73092F305B301621BC1
:10383000730B00E04B815C8189E695E00E94110CDE
:10384000C114D10409F0C6CF3092F305F8E0AF0EF1
:10385000B11C5C824B82C201CD9709F09ECF87E0FC
:103860009BE00E94850DE2E1F0E0F093F805E09323
:10387000F70582E290E09093FA058093F9058CE5D4
:1038800091E00E94C41282EC96E00E94850D109295
:10389000F8051092F705E4E3F0E0F093FA05E09301
:1038A000F90589819A810E9469108FE495E00E9450
:1038B000850D1092F8051092F7059092FA05809206
:1038C000F90583E591E00E94C41288E290E09093AC
:1038D000F8058093F7059092FA058092F90583E147
:1038E00096E00E94691089E695E00E942F178111E9
:1038F0003DCF0F900F900F900F90DF91CF911F91C0
:103900000F91FF90EF90DF90CF90BF90AF909F907E
:103910008F907F906F905F904F903F900895AF92FF
:10392000BF92CF92DF92EF92FF920F931F93CF93AC
:10393000DF938C01FC016481758190E080E00E943E
:103940003C3920E030E040E650E40E949D399B0184
:10395000AC0160E070E080E892E40E94923A0E943C
:10396000FF3AEB0189E695E00E94591786E3A82EFD
:10397000B12C92E3C92ED12C21E2E22EF12C82EC63
:1039800096E00E94850DD093F805C093F705B0929C
:10399000FA05A092F905C8010E94691088E196E035
:1039A0000E94850DD092F805C092F705F092FA05B5
:1039B000E092F90581E591E00E94C41289E695E064
:1039C0000E942F178111DBCFDF91CF911F910F91B3
:1039D000FF90EF90DF90CF90BF90AF9008956F92DF
:1039E0007F928F929F92AF92BF92CF92DF92EF928F
:1039F000FF920F931F93CF93DF938C0189E695E09D
:103A00000E9459178EE1A82EB12C90E1C92ED12C1D
:103A1000C4E0D0E02FE1E22EF12C3EE2832E912C87
:103A20004DE3642E712C82EC96E00E94850DB092DD
:103A3000F805A092F705D092FA05C092F90586E440
:103A400091E00E94C412D093F805C093F705F0925C
:103A5000FA05E092F9058CE391E00E94C412D0933C
:103A6000F805C093F7059092FA058092F905C80110
:103A70000E94C412D093F805C093F7057092FA051E
:103A80006092F90580E391E00E94C41289E695E016
:103A90000E942F178111C7CFDF91CF911F910F91F6
:103AA000FF90EF90DF90CF90BF90AF909F908F905E
:103AB0007F906F900895CF93DF9300D000D000D017
:103AC000CDB7DEB7E0910001F091010194E0EE0F77
:103AD000FF1F9A95E1F7E350FE4F008111811A8292
:103AE00019821C821B821E821D8201151105C9F0DC
:103AF000C8010E942E397C01BC01CE0101960E94B2
:103B0000391629813A8181113CC02115310519F0FE
:103B1000C9010E94FE3B1A8219821E821D821C82EC
:103B20001B82CE0101960E948F1CCE0101960E943D
:103B300061160E94820F00910001109101010F3067
:103B4000110530F5000F111F0A5E1E4FF801F190AC
:103B50008F016F2D82E090E00E94B20F6CE271E065
:103B600080E090E00E94EF07F801608183E090E040
:103B70000E94B20F60ED77E080E090E00E94EF07D6
:103B8000E8CFFE82ED82B801C9010E942739C9CF72
:103B900082E090E00E949F0F68EE73E080E090E08A
:103BA0000E94EF070E947A0F68EE73E080E090E0D9
:103BB0000E94EF07EDCF4FE344B932E235B92FE170
:103BC00027B995E198B987EE8AB944B935B927B9CB
:103BD00098B98AB980E00E94DB130E941E142998CC
:103BE00085E005B1067F182F1270110F110F012B00
:103BF000182F147016951695012B05B948B1457FFD
:103C0000182F1170110F412B182F1870412B48B924
:103C1000C0E005B10B7E1C2F1170110F110F012B8D
:103C20001C2F1270110F110F110F012B05B9002756
:103C30001C2F14701295110F012B1C2F1870129548
:103C40001695012B1C2F107816951695012B1C2FFD
:103C5000107212951F70012B1C2F1074129516955F
:103C60001695012B1C2F107116951695012B0BB96B
:103C700042980000429A299A449A0E94111440984E
:103C800080E00E94DB1305B10B7E1C2F1170110F19
:103C9000110F012B1C2F1270110F110F110F012B7F
:103CA00005B900271C2F14701295110F012B1C2F22
:103CB000187012951695012B1C2F107816951695D5
:103CC000012B1C2F107212951F70012B1C2F1074CA
:103CD000129516951695012B1C2F10711695169599
:103CE000012B0BB942980000000006B113B1222746
:103CF000302F32703695230F312F38703695369528
:103D0000230F312F3170330F330F230F0870200F23
:103D1000D22F429A409A449ADF70D53009F0A1C060
:103D200080E00E94DB130E941E14299805B1067FD3
:103D30001D2F1270110F110F012B1D2F14701695CE
:103D40001695012B05B948B1457F1D2F1170110F34
:103D5000412B1D2F1870412B48B905B10B7E1C2F2C
:103D60001170110F110F012B1C2F1270110F110F59
:103D7000110F012B05B900271C2F14701295110F7C
:103D8000012B1C2F187012951695012B1C2F1078E3
:103D900016951695012B1C2F107212951F70012B72
:103DA0001C2F1074129516951695012B1C2F10714F
:103DB00016951695012B0BB942980000429A299A44
:103DC000449A0E941114409880E00E94DB1305B1D0
:103DD0000B7E1C2F1170110F110F012B1C2F127055
:103DE000110F110F110F012B05B900271C2F147093
:103DF0001295110F012B1C2F187012951695012B7F
:103E00001C2F107816951695012B1C2F10721295E9
:103E10001F70012B1C2F1074129516951695012BEF
:103E20001C2F107116951695012B0BB942980000A6
:103E3000000006B113B12227302F32703695230FC0
:103E4000312F387036953695230F312F3170330F5F
:103E5000330F230F0870200F822F8F708F3009F0DF
:103E6000C4C08FEF9FEF9093010180930001809178
:103E70000001909101018F3F980709F07EC084B145
:103E8000807E8D6184B987B1807E876187B98AB170
:103E9000876E8AB92B9A429A419A44980AE714E0AD
:103EA000F80194918BB18871892B8BB9C2E7D4E06A
:103EB000FE01949185B18A7E892B85B92B98409813
:103EC000419842980000429A419A2B9A4498F801EE
:103ED00094918BB18871892B8BB9FE01949185B136
:103EE0008A7E892B85B92B9842980000000086B104
:103EF000429A2B9A83FD37C084B1807E8D6184B94C
:103F000087B1807E876187B98AB1876E8AB92B9A1B
:103F1000429A419A60E080E00E949B13F82E61E093
:103F200081E00E949B134498F8010491EBB1E87181
:103F3000E02BEBB9FE01C491E5B1EA7EEC2BE5B9CB
:103F40002B9842980000000096B1429A2B9AF110EB
:103F50000AC0882341F093FD06C089E090E0909369
:103F6000010180930001809100019091010160E0C6
:103F70008F3F980711F40C94B12714E0880F991F14
:103F80001A95E1F7FC01E350FE4F808191810E9478
:103F9000EF1C8091000190910101099709F0B3C3D2
:103FA00084B1807E8D6184B987B1807E876187B955
:103FB0008AB1876E8AB9E0910001F0910101D4E0E5
:103FC000EE0FFF1FDA95E1F7E350FE4F86819781F0
:103FD000248135812150310910E02115310509F482
:103FE0006CC01F5F36952795F8CF429A409A80E0C3
:103FF0000E94DB130E941E14299805B1067F1C2F16
:104000001270110F110F012B1C2F1470169516959D
:10401000012B05B948B1457F1C2F1170110F412BA1
:104020001C2F1870412B48B905B10B7E1C2F117045
:10403000110F110F012B1C2F1270110F110F110FE7
:10404000012B05B900271C2F14701295110F012B9D
:104050001C2F187012951695012B1C2F1078169591
:104060001695012B1C2F107212951F70012B1C2FFF
:104070001074129516951695012B1C2F107116951C
:104080001695012B0BB942980000429A299A449A3E
:1040900081E00E942514882341F083E090E0909312
:1040A000010180930001449AE2CE80E80E94251429
:1040B0008111F3CF84E090E0F2CF0197F12C0097CB
:1040C00021F0F39496958795FACFD0E0C0E0AA242A
:1040D000A394B12C0C2FC11718F560E090E080E09C
:1040E0000E948D0665010C2E02C0CC0CDD1C0A94CA
:1040F000E2F761E0C6010E948D0690E080E00E9438
:10410000C506882321F061E08C2F0E946B17C60141
:104110000E94C50621968130E9F261E0802FF5CF3B
:1041200070E060E0CAE7D4E0A2E7B4E001E010E0AC
:10413000862F6F1508F456C0F7EFEF2EF1E0FF2E33
:1041400010E004E1D0E0C0E02B9AC0FFDDC0449A4B
:10415000FE01EF77FF27E658FB4F8491EBB1E87142
:10416000E82BEBB9FE01EE0FEF2FEE1FFF0BF195E1
:10417000EE58FB4F8491E5B1EA7EE82BE5B92B9828
:104180004198F7012081F894123008F0D5C123FF3F
:10419000BDC0409A90E080E080FFBAC0449AFC0124
:1041A000EF77FF27E658FB4F3491EBB1E871E32B33
:1041B000EBB9FC01EE0FEF2FEE1FFF0BF195EE5860
:1041C000FB4F3491E5B1EA7EE32BE5B94298429A80
:1041D000419A4298429A36B1322733FF9BC062E03F
:1041E000812F93CF4498FE0124919BB19871922B1B
:1041F0009BB9FD01249195B19A7E922B95B92B988C
:1042000040984498FE0124919BB19871922B9BB9E0
:10421000FD01249195B19A7E922B95B941984298CF
:104220000000429A409A9801062E02C0220F331FC6
:104230000A94E2F7611142C0449AA9014F775527C9
:1042400046585B4FFA01E4909BB198719E299BB947
:10425000220F232F221F330B31952E583B4FF9018C
:10426000E49095B19A7E9E2995B9419842980000B4
:10427000429A419A2B9A4498FE01E4909BB198711E
:104280009E299BB9FD01E49095B19A7E9E2995B92E
:104290002B984498FE01E4909BB198719E299BB99C
:1042A000FD01E49095B19A7E9E2995B9429800004F
:1042B0000000339B05C061E0805F27CF4498BDCFED
:1042C000429A811117C0449AFA0194914BB14871F6
:1042D000492B4BB9F901949125B12A7E292B25B997
:1042E0004298000000006F5F7F4F339BE4CF429AFB
:1042F0002B9A1ECF4498E8CF153011F40E94341049
:10430000FFEFEF1AFF0A1ECF449822CF409842CF0A
:10431000449845CF419801968115F4E09F0709F034
:104320003BCF2196C11534E0D30709F00DCF1F5FB5
:10433000163011F7809100019091010184309105B0
:1043400011F00C94F6260E941E14429AD0E0C0E0B0
:10435000FE01E652FC4F10811F708C2F0E94DB1370
:10436000299830E020E0812F90E0A901440F551FEB
:10437000BC0102C0759567954A95E2F7562F5370B8
:1043800005B1067F152F1270110F110F012B152F7C
:10439000147016951695012B05B948B1457F152F58
:1043A0001170110F412B152F1870412B48B905B111
:1043B0000B7E122F1170110F110F012B122F127083
:1043C000110F110F110F012B05B90027122F1470B7
:1043D0001295110F012B122F187012951695012BA3
:1043E000122F107816951695012B122F1072129518
:1043F0001F70012B122F1074129516951695012B14
:10440000122F107116951695012B0BB942980000CA
:10441000429A2130310511F00C94CD27299A0E943F
:1044200074132196C11571E0D70709F091CF299A2D
:10443000CAE0E7E3EE2EF12C00E011E00E947413D5
:10444000C7010197F1F70000000000000000000024
:10445000000000000000000000000150110971F789
:10446000C15051F70E941114D0E0C0E0FE01E652A5
:10447000FC4F10811F708C2F0E94DB13409850E07E
:1044800040E0812F90E005B10B7E142F1170110FC9
:10449000110F012B142F1270110F110F110F012B7F
:1044A00005B90027142F14701295110F012B142F2A
:1044B000187012951695012B142F107816951695D5
:1044C000012B142F107212951F70012B142F1074D2
:1044D000129516951695012B142F10711695169599
:1044E000012B0BB942980000000006B113B122273E
:1044F000302F32703695230F312F38703695369520
:10450000230F312F3170330F330F230F0870200F1B
:10451000622F429A63709A01220F331FFC0102C07E
:10452000F595E7952A95E2F79F012370621709F444
:104530003CC5449A409A14C5143008F038C090E045
:1045400080E023FF30C0409A80FF2FC0449AFC01D6
:10455000EF77FF27E658FB4F3491EBB1E871E32B7F
:10456000EBB9FC01EE0FEF2FEE1FFF0BF195EE58AC
:10457000FB4F3491E5B1EA7EE32BE5B94298220F77
:10458000211D429A0196811534E09307D1F6789463
:10459000419A2B9A143008F047C042E0612FCE01B7
:1045A0000E94D229BECE4098CFCF4498D0CFAE0142
:1045B00024E0569547952A95E1F74C0F5D1F30E0B2
:1045C00020E0CA01822793278927E82FF0E0E652EE
:1045D000FC4F808183FF24C0409A20FF23C0449A6F
:1045E000F901EF77FF27E658FB4F8491EBB1E871B3
:1045F000E82BEBB9F901EE0FEF2FEE1FFF0BF19552
:10460000EE58FB4F8491E5B1EA7EE82BE5B942987C
:10461000429A2F5F3F4F211564E0360791F6B7CFDE
:104620004098DBCF4498DCCFCE010E947C132B9ABC
:10463000E0910001F091010184E0EE0FFF1F8A95E7
:10464000E1F7E350FE4F73808481958101978C17C9
:104650009D07A9F5912C812C5E01A718B10877FC64
:10466000B394872D881987FD5CCE43E0612FC50187
:10467000880D991D0E94D229C0900001D09001019F
:10468000B4E0CC0CDD1CBA95E1F7C60183509E4F17
:104690006C01FC018785809FC00111240E94BF0727
:1046A000F6018381C80ED11CF6018185809FC0016F
:1046B00011240E94BF07FFEF8F1A9F0AD2CF872DC8
:1046C00090E0EC0FFD1FC817D907B0F043E0612F51
:1046D0009E01281B390BC9010E94D229E0910001DB
:1046E000F0910101A4E0EE0FFF1FAA95E1F7E3505E
:1046F000FE4F8381E80FF11D8185809FC001112449
:104700000E94BF070ECE8FE384B982E285B9409143
:10471000000150910101FA0174E0EE0FFF1F7A953C
:10472000E1F7E350FE4FC481D581868197819E01D8
:1047300021503109E12C2115310521F0E394369502
:104740002795F9CF0197D12C009721F0D394969516
:104750008795FACFC12CF12C4330510521F4CC249C
:10476000C39492E0F92E0E941E14299810E000E0F4
:10477000AA24A394B12C0E15B0F445E06F2D90E05F
:1047800080E00E941E1500004AE06F2DC501002E3A
:1047900002C0880F991F0A94E2F70E941E150000BC
:1047A0000F5F1F4FE8CF299A0E941114409810E024
:1047B00000E0AA24A394B12C902E0E15C8F46F2DFE
:1047C00090E080E00E94CB14853009F0A6CC6F2DDC
:1047D000C501002E02C0880F991F0A94E2F70E94BB
:1047E000CB140F5F1F4F8A3039F361E0892D8DCCD8
:1047F0005E01B694A794409A0E941E142998F12C49
:10480000E12CF5E07F2E812CAAE09A2EC1E0D0E0C9
:10481000ED1408F0A8C08A2D0E94DB1305B1067FB5
:10482000172D1270110F110F012B172D14701695E3
:104830001695012B05B948B1457F172D1170110F41
:10484000412B172D1870412B48B905B10B7E182D3F
:104850001170110F110F012B182D1270110F110F64
:10486000110F012B05B90027182D14701295110F87
:10487000012B182D187012951695012B182D1078F4
:1048800016951695012B182D107212951F70012B7D
:10489000182D1074129516951695012B182D107160
:1048A00016951695012B0BB942980000429A00000C
:1048B00005B1067F192D1270110F110F012B192D43
:1048C000147016951695012B05B948B1457F192D21
:1048D0001170110F412B192D1870412B48B9CE01C1
:1048E0000E2C02C0880F991F0A94E2F70C2C01C00D
:1048F000880F0A94EAF705B10B7E182F1170110F7B
:10490000110F012B182F1270110F110F110F012B06
:1049100005B90027182F14701295110F012B182FAD
:10492000187012951695012B182F1078169516955C
:10493000012B182F107212951F70012B182F107455
:10494000129516951695012B182F10711695169520
:10495000012B0BB942980000429A449A00006FEF75
:10496000E61AF60A55CF299A0E9411144098F12CA4
:10497000E12CC0E088248394912CDE2DED1408F006
:10498000AFC08A2D0E94DB1305B10B7E1C2F117066
:10499000110F110F012B1C2F1270110F110F110F7E
:1049A000012B05B900271C2F14701295110F012B34
:1049B0001C2F187012951695012B1C2F1078169528
:1049C0001695012B1C2F107212951F70012B1C2F96
:1049D0001074129516951695012B1C2F10711695B3
:1049E0001695012B0BB942980000000006B113B1D7
:1049F0002227302F32703695230F312F387036959D
:104A00003695230F312F3170330F330F230F08707A
:104A1000200F822F429A8F70853029F0449A61E0EE
:104A200080E18D0F72CB0000C4010E2C02C0880FF4
:104A3000991F0A94E2F70C2C01C0880F0A94EAF738
:104A400005B10B7E182F1170110F110F012B182FAC
:104A50001270110F110F110F012B05B90027182F1C
:104A600014701295110F012B182F187012951695AE
:104A7000012B182F107816951695012B182F1072F0
:104A800012951F70012B182F1074129516951695FC
:104A9000012B182F107116951695012B0BB9429802
:104AA0000000000006B113B12227302F3270369576
:104AB000230F312F387036953695230F312F3170F3
:104AC000330F330F230F0870200F822F429A7FEF8E
:104AD000E71AF70A8F70449A8A3009F44ECF9FCFB5
:104AE000409A67EFC62E61E0D62EC0E0772473941B
:104AF000D4E1F12CE12C8091000190910101FC01A5
:104B000054E0EE0FFF1F5A95E1F7E350FE4F24816A
:104B10003581E216F30608F05CC1A680B7806E2CE2
:104B200055245394039709F0512C862D0E94DB13D2
:104B300029980E941E14F601808105B1067F182F66
:104B40001270110F110F012B182F14701695169556
:104B5000012B05B948B1457F182F1170110F412B5A
:104B6000182F1870412B48B9F894C43008F044C08D
:104B7000472D052C01C0440F0A94EAF730E020E0ED
:104B800080E0942F980FA216B30609F4A3C0429AAE
:104B900005B10B7E182F1170110F110F012B182F5B
:104BA0001270110F110F110F012B05B90027182FCB
:104BB00014701295110F012B182F1870129516955D
:104BC000012B182F107816951695012B182F10729F
:104BD00012951F70012B182F1074129516951695AB
:104BE000012B182F107116951695012B0BB94298B1
:104BF0002F5F3F4F892FC5CF970144E0369527950A
:104C00004A95E1F72F7033272E0D311DB72D052C56
:104C100001C0BB0F0A94EAF770E060E050E0AB2FF0
:104C2000A50FA616B70609F455C0429ACB018227F4
:104C300093278927E82FF0E0E652FC4F808105B1E9
:104C4000067F182F1270110F110F012B182F1470DF
:104C500016951695012B05B948B1457F182F11708F
:104C6000110F412B182F1870412B48B905B10B7E3D
:104C7000152F1170110F110F012B152F1270110F1D
:104C8000110F110F012B05B90027152F1470129564
:104C9000110F012B152F187012951695012B152F3A
:104CA000107816951695012B152F107212951F70FE
:104CB000012B152F1074129516951695012B152F93
:104CC000107116951695012B0BB942986F5F7F4FA7
:104CD0005A2FA5CF7894299A429AC43058F402E00A
:104CE000252D4C2F662DC5010E94461AFFEFEF1AA5
:104CF000FF0A01CF862D0E94DB130000449A470172
:104D00009924E0910001F091010134E0EE0FFF1FC2
:104D10003A95E1F7E350FE4F84819581019788161B
:104D2000990671F5938097FCE1CF162D1919812F03
:104D30000E94DB1303E0252D4C2F612FC5010E943B
:104D4000461A009100011091010124E0000F111F8B
:104D50002A95E1F703501E4FF80187858D9FC0010A
:104D600011240E94BF07F8018381080F111DF8016B
:104D700081858D9FC00111240E94BF079A94D3CFD3
:104D80008381681660F0162D181B812F0E94DB139B
:104D900003E0252D4C2F612FC5010E94461AE0919A
:104DA0000001F091010194E0EE0FFF1F9A95E1F7E9
:104DB000E350FE4F8381681648F4E80DF91D8185A4
:104DC0008D9FC00111240E94BF0790CFE80FF11DF5
:104DD000F6CFCF5FC63011F40C949A21C53011F490
:104DE0000E9434108FEFC81AD80A83CE099709F0B1
:104DF000D2C0429AD0E0C0E002E714E0FE01FF27F3
:104E0000E652FC4F4081C0FFAFC0449AFE01EF77ED
:104E1000FF27E658FB4F8491EBB1E871E82BEBB923
:104E2000FE01EE0FEF2FEE1FFF0BF195EE58FB4F3B
:104E30008491E5B1EA7EE82BE5B92B98419890E0A2
:104E400080E050E0282FBA01082E02C075956795C2
:104E50000A94E2F760FF8AC0409A20FF89C0449A12
:104E6000FC01E658FB4F2491EBB1E871E22BEBB962
:104E7000F801349125B12A7E232B25B942980000F0
:104E8000429A019688309105E9F6419A0E946C1386
:104E90002196C115F4E0DF0709F0B0CF419ACAE0CE
:104EA000D7E3CD2ED12CE12CB2E0FB2E0E946C1367
:104EB000C6010197F1F700000000000000000000AB
:104EC000000021E0E21AF10889F7C15061F7D0E053
:104ED000C0E0FE01FF27E652FC4F4081C0FF4AC000
:104EE000449AFE01EF77FF27E658FB4F8491EBB120
:104EF000E871E82BEBB9FE01EE0FEF2FEE1FFF0B71
:104F0000F195EE58FB4F8491E5B1EA7EE82BE5B9C7
:104F10002B9890E080E050E080FF2EC0449AFC0186
:104F2000E658FB4F2491EBB1E871E22BEBB9F801A5
:104F3000349125B12A7E232B25B942980000000028
:104F400026B1429A23FB222720F9BA01082E02C07B
:104F5000759567950A94E2F76170621779F02B9A5C
:104F600065E080E00C948520449850CF409875CF40
:104F7000449876CF4498B5CF4498D1CF01968830E5
:104F8000910509F0C9CF0E946C132196C115F4E078
:104F9000DF0709F09ECF0E945B1D21E030E00C94FA
:104FA000B52141E050E00C94432241305105C9F74E
:104FB000409A0E9474132196C115F1E0DF0711F0A9
:104FC0000C943622E8CF1F920F920FB60F92112445
:104FD0002F933F938F939F93AF93BF938091DD0463
:104FE0009091DE04A091DF04B091E0043091DC04E4
:104FF00023E0230F2D3758F50196A11DB11D2093F5
:10500000DC048093DD049093DE04A093DF04B0936E
:10501000E0048091E1049091E204A091E304B09156
:10502000E4040196A11DB11D8093E1049093E20474
:10503000A093E304B093E404BF91AF919F918F914B
:105040003F912F910F900FBE0F901F90189526E85B
:10505000230F0296A11DB11DD2CF1F920F920FB642
:105060000F9211242F933F934F935F936F937F93EE
:105070008F939F93AF93BF93EF93FF938091B9006A
:10508000887F803609F44AC0F0F5883209F4A5C05B
:1050900018F5803109F499C0B8F4882309F4F5C0F3
:1050A000883009F492C0FF91EF91BF91AF919F9129
:1050B0008F917F916F915F914F913F912F910F90C1
:1050C0000FBE0F901F901895883109F486C080326A
:1050D00051F78093AF0314C0803409F49BC040F4AF
:1050E0008033B9F38833F9F68093AF0385ECAEC013
:1050F000803509F483C0883509F494C0883499F662
:105100000E94A516D0CF883909F48AC038F58837AF
:1051100029F050F4883611F0803729F683E0809327
:10512000B0031092AE0355C0883809F479C08039B5
:1051300019F0803809F0B7CF8091AE03803208F0C3
:105140006FC0E091AE0381E08E0F8093AE0380913B
:10515000BB00F0E0E257FC4F80833BC0803B39F05E
:10516000D0F4803A09F477C0883A09F09CCF84E003
:105170008093B00310928D0310928C03F0E0E0E076
:10518000099580918C0381110FC081E080938C037D
:1051900010926C0309C0803C09F4A8CF883C09F444
:1051A000A5CF883B09F07FCFE0918D0381E08E0F82
:1051B00080938D03F0E0E459FC4F80818093BB0025
:1051C00090918D0380918C0329C08091D5038093A9
:1051D000BB0085EC8093BC0066CF9091D403809196
:1051E000D303981758F5E091D40381E08E0F809394
:1051F000D403F0E0ED54FC4F8081E9CFE091D4037B
:1052000081E08E0F8093D4038091BB00F0E0ED54D9
:10521000FC4F80839091D4038091D3039817C8F2F8
:1052200085E8D8CFE091D40381E08E0F8093D4033A
:105230008091BB00F0E0ED54FC4F80838091B2037D
:1052400081115ECF81E08093B10384EA8093BC003A
:105250001092B00328CF85EC8093BC001092B0036D
:105260008091AE03803230F4E091AE03F0E0E2577B
:10527000FC4F10826091AE0370E08EE893E0F0E0A6
:10528000E0E009951092AE030ECF1092AF0338CF35
:105290000F931F93CF93E82FF0E0E950FE4F9081DA
:1052A0009F70E0910001F091010134E0EE0FFF1FCB
:1052B0003A95E1F7ED5FFD4F51812A98F894FB0193
:1052C000A4E0F695E795AA95E1F76E0F7F1F30E011
:1052D000351708F060C005B10F7E18B11F7E30FD94
:1052E000006131FD106105B918B9211137C0C0E85E
:1052F000A0E0ABB92898289AB6B1BF70843071F499
:1053000000000000FB01EA27EF27F0E0E652FC4F27
:10531000E081EB1729F0642F0E946B179B13FBCFE2
:10532000E1E0EA0FEBB92898289AB6B1BF70843053
:1053300091F4000000008B010E27F801EF27F0E048
:10534000E652FC4FE081EB13E6CFAE5FC15009F0AF
:10535000D0CF3F5FBDCF9B13DECFF7CF2898A0E023
:10536000ABB900000000B6B1BF70843089F4000012
:105370000000FB01EA27EF27F0E0E652FC4FE08156
:10538000EB13C9CFE1E0EA0FAF3F19F3AE2FE8CF3F
:105390009B13C1CFF7CF7894289A2A9ACF911F9167
:1053A0000F910895EF92FF921F93CF93DF937C01AB
:1053B000C62FD42FE62FF0E0E950FE4F10810E9457
:1053C0007C13F894C43008F038C090E080E080FF8F
:1053D00023C0449AFC01EF77FF27E658FB4F249146
:1053E000EBB1E871E22BEBB9FC01EE0FEF2FEE1FF2
:1053F000FF0BF195EE58FB4F2491E5B1EA7EE22BCD
:10540000E5B94298429A26B1212723FF07C06D2FA4
:1054100081E08C0F0E946B174498DCCF110F111D97
:105420000196811524E0920791F678942B9ADF91EA
:10543000CF911F91FF90EF900895C70134E09695AA
:1054400087953A95E1F78E0D9F1D50E040E040FFB3
:105450002EC0449AFA01EF77FF27E658FB4F2491BC
:10546000EBB1E871E22BEBB9FA01EE0FEF2FEE1F73
:10547000FF0BF195EE58FB4F2491E5B1EA7EE22B4C
:10548000E5B94298429A66B19C0124273527232723
:10549000E22FF0E0E652FC4F2081262723FDB7CF14
:1054A0004F5F5F4F411524E0520789F6BECF449805
:1054B000D1CFAF92BF92CF92DF92EF92FF920F9334
:1054C0001F93CF93DF937C01EB01142F022FE42F66
:1054D000F0E0E950FE4FD080299ACB010E947D1563
:1054E000299885E0F694E7948A95E1F79E2D4198F6
:1054F0003998F894BE0124E0769567952A95E1F7EE
:105500006C0F7D1FF12CE12CD0E0C0E0C91708F032
:1055100076C0FE01E350FC4F3491FE01E351FC4F95
:105520002491FE01E352FC4F8491E5B1EA7ECE2E38
:10553000C32AE8B1EC7EBE2EB22AEBB1EC73AE2EDC
:10554000A82A4FE150E0842FFA01E356FC4FE49182
:10555000EC29E5B9FA01E354FC4FE491EB29E8B9F1
:10556000FA01E358FC4FE491EA29EBB943983D2D49
:10557000143058F09A012E293F2926273727232750
:10558000A22FB0E0A652BC4F3C9126B1232722FFA8
:1055900028C0082E000C990B8E299F2921E0439AE0
:1055A0007894299A399A222389F020910001309128
:1055B000010121153105C9F52091DA04211125C019
:1055C0008038910500F18FEF8093DA04DF91CF915D
:1055D0001F910F91FF90EF90DF90CF90BF90AF9011
:1055E0000895439A143010F4DD0CD11C4150510938
:1055F00008F0A9CF219680E2E80EF11C87CF90E059
:1056000080E020E0CCCF81E0DFCF2F3F21F4803855
:10561000910530F0DBCF2130C9F680389105B0F22A
:10562000602F81E0810F0E946B172D30310579F3D7
:105630002E30310591F3F4CF8BEF95E00E94611687
:1056400081E096E00E94611687E096E00E94611674
:105650008DE096E00E94611683E196E00C9461165D
:10566000CF936FEF72E083E196E00E94691610928B
:1056700068051092670581E196E09093F6058093A6
:10568000F5051092F8051092F7051092FA051092A0
:10569000F9051092810581EF92E090936605809361
:1056A000650510926A051092690510927E051092A8
:1056B00075051092760510927705109278058FEF98
:1056C00080937F0580938305E7E8F5E08DE995E019
:1056D000CFEFC1938E179F07E1F781EF98E090938A
:1056E0006E0580936D0588E59AE090937005809330
:1056F0006F058BEA9EE0909372058093710584E1BB
:105700009FE0909374058093730530E020E040E0C3
:1057100069E089E695E00E94F1081092C4051092B4
:10572000C3058BE196E090939E0580939D0585EEE1
:1057300094E09093A2058093A10581E08093A30556
:105740001092A4051092D2051092F2051092EE0567
:105750008093F3058093F40589EF92E09093A00580
:1057600080939F0589E695E00E94D20A1092BC05BD
:105770001092BB051092C0051092BF058FEF9FEFEE
:105780009093BE058093BD059093C2058093C1059B
:10579000E0919F05F091A0050280F381E02D89E65C
:1057A00095E009958AE896E09093C6058093C50533
:1057B0001092D5058DE0809393058CE0809394053D
:1057C000C09392056FEF72E08DE096E00E9469163B
:1057D0006FEF72E087E096E00E9469166FEF72E06B
:1057E00081E096E00E9469166FEF72E08BEF95E022
:1057F000CF910C946916CF93DF93CDB7DEB72E9778
:105800000FB6F894DEBF0FBECDBF789484B582602A
:1058100084BD84B5816084BD85B5826085BD85B554
:10582000816085BD80916E00816080936E001092D2
:10583000810080918100826080938100809181004D
:1058400081608093810080918000816080938000DE
:105850008091B10084608093B1008091B00081603C
:105860008093B00080917A00846080937A00809168
:105870007A00826080937A0080917A0081608093C0
:105880007A0080917A00806880937A001092C1003B
:10589000E0916D05F0916E0530E020E040E06AE0B7
:1058A00089E695E0099589E695E00E94591789E611
:1058B00095E00E942F17182F8111F9CF60E089E63B
:1058C00095E00E943C0EE0916D05F0916E0530E090
:1058D00020E040E06BE089E695E0099580E89AE1F8
:1058E000A6E0B0E08093750590937605A0937705C8
:1058F000B0937805E0916D05F0916E0530E020E001
:1059000040E06BE089E695E0099584B1807E84B93A
:1059100087B1807C87B91AB883E10E942C07019770
:1059200029F48091DB048B5F8093DB0483E00E9489
:105930002C07019729F48091DB048C5F8093DB04B2
:1059400082E00E942C07019729F48091DB048E5F8E
:105950008093DB048091DB049EEF980F943008F471
:10596000F0C1823008F0DDC161E08DE00E94830764
:1059700061E08CE00E94830765E073E0CE01019650
:105980000E946916CE0101960E94981BCE010196D5
:105990000E94611681E090E010FF02C082E090E07A
:1059A0000E949F0F6AEF70E080E090E00E94EF0796
:1059B0001F5F1A3079F70E947A0F82EC96E00E94FE
:1059C000850D82E090E00E949F0FE9E9EE2EE1E074
:1059D000FE2EFCE9CF2EF1E0DF2E01E0A3E2AA2E9D
:1059E000B12CF70111917F0161E0812F0E948307A3
:1059F00061E0812F0E945507C5010197F1F760E032
:105A0000812F0E94830764EF71E080E090E00E94A4
:105A1000EF07812F0E942C07892B09F000E062E03C
:105A2000812F0E948307CE14DF04D9F66FE073E064
:105A3000002309F45DC089E695E00E94591756E1FC
:105A4000A52EB12C69E1C62ED12C7CE0E72EF12CDD
:105A50000AE210E0B092F805A092F705D092FA059C
:105A6000C092F90580E793E00E94C412F092F80515
:105A7000E092F7051093FA050093F90580E693E0AC
:105A80000E94C41289E695E00E942F178111E2CF8F
:105A9000F12CE12C61E083E10E945507FDE0EF1657
:105AA000F104D9F161E08E2D0E94830760E08E2D14
:105AB0000E94550768EC70E080E090E00E94EF07DC
:105AC00010E000E0E016F10619F161E0802F0E947D
:105AD000830761E0802F0E94550762E0802F0E94BB
