:100000000C94B5050C94DD050C94DD050C94DD0510
:100010000C94DD050C94DD050C94DD050C94DD05D8
:100020000C94DD050C94DD050C94DD050C94DD05C8
:100030000C94DD050C94DD050C94DD050C94DD05B8
:100040000C94FD1A0C94DD050C94DD050C94DD0573
:100050000C94DD050C94DD050C94DD050C94DD0598
:100060000C94DD050C94DD05526E6400436F6C004A
:10007000526F7700303000434200207061742900D5
:100080002028003E3D005265742E200020657272CB
:100090002040004C6173743A20007573004C61730A
:1000A000743A204F4B20206C61746520004C6173C2
:1000B000743A202D0062616420006F6B200054654B
:1000C0007374200052756E2000446F776E00426991
:1000D0007365637400536F616B00436F6E66697282
:1000E0006D0052616D7000343831362031364B78F6
:1000F000310034313235362F37203235364B7831B6
:1001000000343431362031364B78340035313434D4
:1001100030302F3220314D783400312E30004452AF
:10012000414D204465636179207600207061742E12
:1001300000636F6E6669726D65642077697468200C
:100140000063656C6C287329206661696C2061749A
:1001500020666C6F6F72003E3D206D6178007765A0
:10016000616B657374004641494C00526574656E5D
:1001700074696F6E00343136342036344B78310078
:10018000343436342036344B78340035313432351B
:10019000362F38203235364B7834006661696C73FF
:1001A0002077697468696E20312070617373005222
:1001B000414D2064656665637400207832203525E2
:1001C0000073746172742000546D696E2000757341
:1001D0000075732020522000572000202073706586
:1001E000632000636865636B20736F636B657400E5
:1001F0004E6F2052414D202F206465666563740068
:100200003136202F203138202F2032302D70696E6A
:1002100000536574206F6E65204449500077007468
:100220000070006C006800486F6C640052756E00CE
:10023000120003030405030505091300FF10FC1059
:100240000000000000010220050008352A1178BADC
:10025000F5841149E410221D22114950062B0B662A
:100260003CB584A2434928022C0732FC2C28012DDE
:1002700007265C350E052E06220C2D082F13080BC1
:10028000B5A553B1742A968A55C5D2A9583A0530F6
:100290000F080BB568965191FF589AD84800310B5A
:1002A000040FB544078A48FF033213080BB568965C
:1002B00051916D2A1D4EA553D5E9E1203311080B4C
:1002C000351EA453D555F2587369622301341208C0
:1002D0000BF5A462AD622D229D0E07A158090035D1
:1002E00013080B351EC8CAA6CBA828562696263654
:1002F00012003613080BB5689651912C365D4645B1
:100300008EA5898D043713080B351E88B4A958753E
:100310002A96AE8AA55321003814080BB568965169
:1003200091B13431594645C6D2C446023913080B3F
:10033000B568965191636972328B89A5898D043AAB
:1003400008922C2DE8300200000004FFFF00005F3F
:100350000003030304030504060E00FE0AFE0BFE61
:10036000017002DC0428200500F207210752C3C7F0
:1003700013012208A5DE87848B00230D56C20F8946
:10038000C542A258482C0024115EBE978C12D1128F
:1003900019CE24BA44682200251056C28F84521107
:1003A0004D83D191A4429100260E56C2D748A2A7F0
:1003B000918452D12411270722DFC72100280CED98
:1003C000BA9F484D24D3512654290DEDBA87504D7C
:1003D00028D3492652032A0D3ECE47444B8426A3F8
:1003E00044B4042B0A3EC69750C92454022C082357
:1003F000BBC74442012D060ED287012E0612C30749
:10040000012F0E6EBAA736A14CA82694091501300B
:100410000B56C20F45C49F241400310A56C2976C74
:1004200044D42703320D56C20F454412CA84328D7C
:1004300006330F56C20F4544128AA64212494201A2
:10044000340D56C267506D44D1C5269400350F5601
:10045000C2C72128AC88844212494201360E56C2D6
:10046000D748422256449C241400370C56C2C72158
:100470004411CA847A02380F56C20F45C424215150
:10048000444C120A00390E56C20F45C44952245139
:100490004423003A073AC70799003B0A4BBF8F3AFB
:1004A0006822A1003C084EC2A74C571D3D0726CA32
:1004B000871D6A3E094EC28754371D013F0E56C242
:1004C0000F45449229AAC3842200400C56C2D74843
:1004D00042B974599112410C56C20FE510E27418DA
:1004E0003109420D56C24745C414A988385D0043FE
:1004F0000C56C20F45C4A813494201440C56C2070A
:1005000049A2C42F121200450B56C2C721A8581188
:100510006A34460B56C2C721A85811EA08470D563F
:10052000C20F45C4A85262925000480B56C2878839
:10053000D361C49300490956C28749A89F0C4A0B4E
:1005400056C2A73E9228A211004B0F56C28788229E
:1005500021CD6624924489244C0856C287507F34AA
:100560004D0C56C24770443A1C443C094E0C56C2CE
:1005700087885469A17422094F0B56C20F45C49F46
:10058000241400500B56C24745C4E922D408510E2A
:1005900066BA0F45C45385529250A501520C56C2FB
:1005A0004745C474D1C44900531056C20F45449204
:1005B000488552898824A100540956C28749A83F1A
:1005C00001550A56C287887F925000560C56C28742
:1005D000889F24249A0800570C56C28788A7C343D3
:1005E000251401580F56C287882421D18432124520
:1005F0004412590C56C287884942A20975025A0E04
:1006000056C28751269409654299D0005B09EDBA1C
:10061000C74DFFAD005C0E6EBA8750552815AA0A6B
:10062000A542055D09EDBA474DFFED005E081EE6E7
:10063000978C22125F0716BAC7A10060079CE28759
:100640004C01610D3EC20F45249B4848244901627C
:100650000B56C28750B122E2E902630B3EC20F453E
:1006600044D424A100640A56C2A796134F9202658F
:100670000D3EC20F45443A0C45120A00660C56C2A4
:100680009F8C241499843A01670E4EBACF4A45D301
:100690002C5811492800680B56C28750B122E293AA
:1006A00000690752C307E9706A0CE5BA9F3A44A68D
:1006B000378A64026B0E56C2875053448544922891
:1006C000D1026C0752C3C783016D0A3EC2874472D0
:1006D000F840126E093EC24745C427016F0A3EC268
:1006E0000F45C4938402700B4EBA4745C4D34528C6
:1006F00004710A4EBACF8927495101720A3EC24796
:1007000045C4A81100730D3EC20F452491AA882448
:100710001400740B56C29750C924D4750075093E55
:10072000C287884F9202760C3EC287884942A2094E
:100730004500770C3EC287887478A8842200780D23
:100740003EC2878824A1C928229200790E4EBA871A
:100750008824D1693694288D007A093EC28751A633
:10076000A3017B0CEDBAD744A69350A6E3007C0707
:100770006ABBC787027D0DEDBAC750A6A348A6CBBA
:1007800008007E0A26DE4FAC22A9450000000004C6
:10079000FFFF00005F0003020304030504050A00D5
:1007A000FE07FE07000142028803B620050062072B
:1007B00021073943C7A00422079B52476209230E31
:1007C0003D424F294906A53228A52401240C3D426B
:1007D00057B6D4B624D92200250C3D424FA474ABA1
:1007E000B4480900260D3D424F9644495649A44855
:1007F0000927061953C7002808BB425752AA1529D2
:1008000009BB424756AA94002A0A2D464796540629
:10081000A52D2B0A2D4657180D5218012C079B3E6B
:100820008F52022D060D4EC7202E089B3E4FB2243C
:10083000002F083D4267AD6308300B3D425796D408
:100840006C492D02310A3D4257262561D320320CD6
:100850003D42CF92859194858300330C3D42C72061
:100860006699AA250B00340C3D425F2625A564D06D
:10087000C204350B3D42C73131855AB200360C3DBA
:100880004297948589494B1600370B3D42C7206635
:100890006156CC00380C3D42CF9269C99269C902B9
:1008A000390C3D42CF92498A126691043A0ABB3E06
:1008B0004FB2A4C992003B09BB3E4FB2A44A093CC7
:1008C00008BC425FD4D8003D081D4AC7A00E023EB6
:1008D00008BC4247D8D4063F0A3D42CF9235E65085
:1008E00004400C3D42CF92494B62491700410C3DF8
:1008F000425796D4B461C8B400420D3D42C710556A
:10090000A264AA448302430A3D42CF92896DC90280
:10091000440F3D42C71055A2244AA2241A14004590
:100920000B3D42C7311C92301C04460A3D42C73180
:100930001C92B008470B3D42CF9289A52D59004823
:100940000A3D4247661B86CC164908BB42C7127552
:10095000194A0A3D42D716B64491044B0D3D424711
:100960002625252D892A59004C083D4247D8E320E9
:100970004D0B3D4247A62D4BA2D9024E0C3D42479E
:10098000A64D4A226D5A004F0A3D42CF92794B162E
:1009900000500C3D42C79064DAA0844500510A45DE
:1009A0003ECF9279A9AC01520D3D42C79064DAA0C6
:1009B000942A5900530B3D42CF92A9AB962C005478
:1009C000093D42C720853D0155093D4247E65BB2DE
:1009D00000560D3D4247664B4A4994641100570A40
:1009E0003D4247E69228C92D580B3D4247A625B502
:1009F0004A4D0B590A3D4247A625B5B0095A0A3D52
:100A000042C720661D07015B08BB42C710751A5C10
:100A1000083D424798760C5D08BB42C7D469085E22
:100A2000081D525796D4025F060D3EC7206006127D
:100A30005B4714610A2D42CF9A0C5A3204620B3D77
:100A4000424758316993A200630A2D42CF928959D7
:100A5000B200640A3D4267C5B4498A12650A2D4254
:100A6000CF920D43BA00660B3D429754C98628AC1D
:100A700001670C3D3ACFA069C9106AC902680A3DF6
:100A80004247583169B6006908BB424F28B50C6A25
:100A90000BCC3A5FACD5242951006B0B3D42475833
:100AA0009392A992056C08BB4287D4CB006D0B2DA5
:100AB0004287D2A2244AA2056E092D424762D26C17
:100AC000016F092D42CF92D99205700C3D3A4762D1
:100AD000D22645094300710A3D3A8F699314252CAB
:100AE00072092D424762128B0073092D42CF921E6C
:100AF0001400740C3D424F980D51588A140075092A
:100B00002D4247E6A42801760B2D4247A625A524B1
:100B10008B00770A2D42476649942E00780A2D42B1
:100B20004796D42AB500790C3D3A47665294504B0B
:100B300016007A092D42C7A0B50D027B0ABC429768
:100B4000122662140A7C063943C7217D0BBC4287FA
:100B500018854A9848007E091D524FA4245202006D
:100B6000000004FFFF000000862511241FBECFEF08
:100B7000D8E0DEBFCDBF11E0A0E0B1E0ECE3FEE4E1
:100B800002C005900D92A838B107D9F726E0A8E871
:100B9000B1E001C01D92A631B207E1F715E0C5EB47
:100BA000D5E004C02197FE010E94E326C43BD10793
:100BB000C9F70E946B1F0C941C270C9400001F9314
:100BC000CF93DF9323E0569547952A95E1F7FC01F3
:100BD0008081382F3170319590E08E7F8230910581
:100BE000C9F10CF5892B71F1162F25E3269F202DD5
:100BF0001124FBE57F9F200D1124C0E0D4E080E0AC
:100C0000841750F5A12FA827B0E0A058BB4FE22FC2
:100C1000E80FF0E0E058FB4F9C9150819527932717
:100C200099938F5FEDCF8430910581F00697E1F6BF
:100C30006AEA6327E0E0F4E080E0841768F46193F7
:100C40008F5FFBCF60FFF4CF65E5F3CF617077274F
:100C50006195EFCF60E0EDCFDF91CF911F910895C7
:100C60009B01DC011896ED91FC9141E067E109944C
:100C7000880F991F880F991F05970197F1F708951D
:100C80003FB7F8948091FC039091FD03A091FE037F
:100C9000B091FF0326B5A89B05C02F3F19F0019620
:100CA000A11DB11D3FBFBA2FA92F982F8827BC01C6
:100CB000CD01620F711D811D911D42E0660F771FEE
:100CC000881F991F4A95D1F708958F929F92AF92EE
:100CD000BF92CF92DF92EF92FF926B017C010E9454
:100CE00040064B015C01C114D104E104F104B9F0E8
:100CF0000E944006681979098A099B09683E734079
:100D00008105910580F321E0C21AD108E108F108BC
:100D100088EE880E83E0981EA11CB11CE4CFFF90E2
:100D2000EF90DF90CF90BF90AF909F908F900895FD
:100D30008FE384B98FE085B98FE187B918B88FEF59
:100D40008AB91BB8089580E00895DC011A96ED91E8
:100D5000FC9130E020E00994DC011696ED91FC91C5
:100D600030E020E040E069E10994DC011696ED9165
:100D7000FC9130E020E040E068E109949A01DC0158
:100D80001696ED91FC91462F67E10994EF92FF9240
:100D90000F931F93CF93DF931F92CDB7DEB77C01E4
:100DA0008B01D8016C91673129F150F46531A0F4C1
:100DB0000F90DF91CF911F910F91FF90EF900895C9
:100DC0006A3118F16E3FA1F7F8014181498369E268
:100DD000C7010E94A5060BC0F80141814983D701D4
:100DE0001696ED91FC9130E020E0C70109950E5F69
:100DF0001F4FD7CFF80181818983AE014F5F5F4FCD
:100E000061E0C7010E94BE06F2CF0F5F1F4FD701FE
:100E10001696ED91FC9130E020E040E0C701099585
:100E2000C0CF462FDC011696ED91FC9130E020E01A
:100E300066E10994462FDC011696ED91FC9130E0B5
:100E400020E065E10994EF92FF920F931F93CF93F7
:100E5000DF93EC01042F79016D3009F446C050F4A2
:100E60006B30C9F1693009F49FC06A3009F465C07C
:100E700080E046C06E3009F452C06F3099F70E948E
:100E8000B506F7011381110F110F110F6C89160FA1
:100E900060E4CE010E941A07612F62956F70606155
:100EA000CE010E941A07612F6F70CE010E941107B8
:100EB000F7016481606BCE010E941107F701408148
:100EC00051816281660F660F660FCE010E94BE06D9
:100ED0000150A1F72EC065E271E0442311F060E2F9
:100EE00071E0CE010E94C6060AC0411110C069E13E
:100EF00071E00E94C606E881F98182898C8B81E0CD
:100F0000DF91CF911F910F91FF90EF90089562E1D3
:100F100071E00E94C606E881F9818389EFCF0E94C3
:100F2000B50661E8CE010E941A07602FCE010E942B
:100F30001107CE010E94AC06E2CFEA85FB8530E0C6
:100F400020E040E068E2CE010995EE81FF8130E0CB
:100F500020E040E064E1CE01099541E06BE4CE0180
:100F60000E94A506E881F981448169E2CE010E94D0
:100F7000A50640E06BE4CE010E94A506E881F98158
:100F8000448169E2CE010E94A50641E06BE4CE01F6
:100F90000E94A506E881F981458169E2CE010E949F
:100FA000A5066AE271E09DCF8FE591E09983888381
:100FB0001C8AA5CFDC011896ED91FC9130E020E071
:100FC00040E069E10994DC011896ED91FC9130E074
:100FD00020E040E068E10994CF93DF931F92CDB702
:100FE000DEB76983BE016F5F7F4F0E9430060F90AE
:100FF000DF91CF910895EF92FF921F93CF93DF93EC
:10100000EC01162F7A010E94E30760E4CE010E94F2
:10101000EC07E885F9859701412F67E1CE01099535
:10102000CE01DF91CF911F91FF90EF900C94DA07E2
:10103000EF92FF921F93CF93DF93EC01142F79016E
:10104000663181F138F4643109F44BC0653179F0CF
:1010500080E022C06831C9F150F16931C9F780914F
:101060009003882391F1CE010E94DA072EC080916F
:101070009003882319F0CE010E94DA07CE010E9466
:10108000E30760E0CE010E94EC07612FCE010E94D1
:10109000EC0781E080939003DF91CF911F91FF9047
:1010A000EF900895642F0E94EC0781E0F5CF8091C6
:1010B0009003882319F0CE010E94DA07A7011931A5
:1010C00038F4612FCE010E94FB0710929003EDCF00
:1010D00068E1CE010E94FB07185188E1E80EF11C7F
:1010E000EDCF8E898F3F11F488E78E8BE885F985E7
:1010F0009701412F64E1CE01DF91CF911F91FF90C5
:10110000EF900994662329F06A3019F0862F90E059
:1011100008958FEF9FEF08950F93FC01E05CFF4F60
:101120000190F081E02D4E1B5F0BDC01D496ED9118
:10113000FC9109950F910895CF93DF93FC01A08155
:10114000B18182AD90E09C0143E0220F331F4A95AC
:10115000E1F737AF26AF50962C91509748E0249F87
:101160009001112435AF24AF23AD30E0B90153E035
:10117000660F771F5A95E1F7EF01C05CDF4F798367
:10118000688351964C915197E901C80FD91F50E0DF
:101190004C175D0718F4CA01821B930BEF01CE5B5D
:1011A000DF4F79836883229623E0880F991F2A9561
:1011B000E1F7860F971F99838883229654968D9125
:1011C0009C91559799838883E85BFF4F56968D9144
:1011D0009C9191838083DF91CF910895AF92BF92CC
:1011E000CF92DF92EF92FF920F93CF93DF93EC01B8
:1011F000DA017901942F9770E1E0F0E09F01092E68
:1012000001C0220F0A94EAF7522F6E018AE8C80E35
:10121000D11CF601808140E0823018F4422F8130E9
:1012200049F15D01F8EFAF22E8ADF9AD28813981D0
:10123000D90150968C918A9D90018B9D300D11247F
:10124000620F731FDF01A60FB71F01111AC0EA0E4C
:10125000FB1E8C91842B85278D93AE15BF05C9F796
:10126000DF91CF910F91FF90EF90DF90CF90BF90E3
:10127000AF90089550E0D5CF440F550FE114F1041D
:1012800079F33C91342B35273C939F5F9770E1E0D5
:10129000EE1AF1089111F0CF2CAD3DADA20FB31FA6
:1012A000F6018081823028F4813009F051E041E07C
:1012B000E5CF51E0E3CF0F931F93FC01E25BFF4FBB
:1012C0000190F081E02DDC01A05BBF4F0D90BC913F
:1012D000A02D4A175B0740F4E017F10748F0041708
:1012E000150730F080E019C0E017F107C0F3FACF1E
:1012F000FC01E65BFF4F40815181845B9F4FFC0105
:10130000808191816817790758F481E0421753076B
:1013100020F081E02617370728F71F910F910895D5
:1013200042175307B0F3DECF2F923F924F925F9256
:101330006F927F928F929F92AF92BF92CF92DF92E5
:10134000EF92FF920F931F93CF93DF93CDB7DEB74A
:101350002A970FB6F894DEBF0FBECDBF9A87898754
:10136000865B9F4F9A838983FC0111821082E985F5
:10137000FA85EA5BFF4F4080518029853A85245BDE
:101380003F4F3C832B83F90151824082E985FA85E6
:10139000EE5BFF4F2080318029853A85225B3F4FED
:1013A0003E832D83F90131822082E985FA85EC5B49
:1013B000FF4F6080718029853A85205B3F4F3887D9
:1013C0002F83F90171826082E985FA85E85AFF4F1F
:1013D000E080F180E985FA85EC5AFF4FA080B1806A
:1013E000E985FA85EA5AFF4FC080D180E985FA8500
:1013F000EE5AFF4F8080918087019501A601B401CC
:1014000089859A850E945B0929853A852C573F4F2B
:101410003A87298781111BC0F90110822A960FB6DD
:10142000F894DEBF0FBECDBFDF91CF911F910F911A
:10143000FF90EF90DF90CF90BF90AF909F908F90F4
:101440007F906F905F904F903F902F90089581E034
:10145000E985FA8580838114910421F0E981FA817C
:1014600091828082A414B50420F4EB81FC81B182C6
:10147000A0822C143D0420F4ED81FE81D182C08233
:10148000E614F70458F6EF81F885F182E082C6CFC2
:101490000F93CF93DF93E02FDC01AC57BF4FFC914C
:1014A000FF2309F460C02115310509F45CC0223026
:1014B000310538F0023009F04AC06F5F7F4F621B80
:1014C000730B0E2F0170E0FD52C0FC01E25BFF4F79
:1014D0000190F081E02D4E175F0708F444C0FC0135
:1014E000E05BFF4F0190F081E02D4E175F07D8F5CC
:1014F000FC01E45BFF4F0190F081E02DDC01A65B75
:10150000BF4F0D90BC91A02D260F371F2617370710
:1015100038F56E177F0718F59F0121503109A21782
:10152000B30708F56A177B0708F4BD012E173F07BC
:1015300008F4F901E61BF70BEC01AEA9BFA914965C
:101540000D90BC91A02D9F01FD0109950CC00330A9
:1015500009F0B7CF4F5F5F4F421B530BB2CFBD01B6
:101560006E177F07E0F2DF91CF910F910895FC0194
:10157000E65BFF4F0190F081E02D6E177F0798F337
:10158000FC01E45BFF4F0190F081E02D6E177F07B7
:1015900050F7FC01E05BFF4F0190F081E02DDC0192
:1015A000A25BBF4F0D90BC91A02D240F351F2417B7
:1015B0003507A8F44E175F0788F49F0121503109C1
:1015C000A217B30780F64A175B0708F4AD012E1780
:1015D0003F0708F4F901E41BF50BAECFAD014E1740
:1015E0005F0708F6EDCF90E080E00895213069F0C4
:1015F00038F0223079F0840F911D47FD9A950895B7
:10160000860F911D67FD9A950895841B910947FDEA
:1016100093950895861B910967FD93950895213050
:1016200069F038F0223079F0861B910967FD9395B7
:101630000895840F911D47FD9A950895860F911D79
:1016400067FD9A950895841B910947FD9395089528
:101650003F924F925F926F927F928F929F92AF9242
:10166000BF92CF92DF92EF92FF920F931F93CF938F
:10167000DF937C01162F442EEC01C25ADF4F5E80AF
:101680006F806C018AE8C80ED11C78847518312EE1
:10169000711608F4372C8C809D800E85202F462DE6
:1016A000652D8A819B810E94F60A5C01202F462DC0
:1016B000652DC4010E940F0BAC01442079F08C858C
:1016C000F6018083232D30E0B501C7010E94480A4E
:1016D000171548F017196394512CD7CF8B858111BA
:1016E000F7CF8D85EDCF150D1E836F82DF91CF91E2
:1016F0001F910F91FF90EF90DF90CF90BF90AF9030
:101700009F908F907F906F905F904F903F90089543
:10171000DC011A964C911A97ED91FC911197249146
:1017200030E0042E02C0359527950A94E2F7842F05
:10173000860F883068F031961196FC93EE93E49111
:1017400098E0941B01C0EE0F9A95EAF72E2B885073
:101750001A968C938FEF9FEF01C0880F6A95EAF776
:101760008095822308950F931F93CF93DF938C016D
:10177000EC01C25ADF4F798368831A86FC01EF5867
:10178000FF4F6081CE010E94880B8887F801EE58D8
:10179000FF4F6081CE010E94880B8987F801E657D0
:1017A000FF4F90819C8781E0911180E08D87DF91D0
:1017B000CF911F910F910895CF93C62F0E94880B50
:1017C000C15021E030E001C0220FCA95EAF7821B28
:1017D000CF910895FC01E60FF11D849190E0982FC0
:1017E00088273196E4918E0F911D0895CF93DF9352
:1017F0002091DE053091DF052817390709F490C0E4
:10180000EC019093DF058093DE05FC0184918093C9
:10181000F1053196E491E093F205FE013296E491F0
:10182000E093F305FE013396E491E093F405FE01A5
:101830003496E491E093F505FE013596E491E0934A
:10184000F605FE013696E491E093F705FE01379622
:10185000E491E093F805FE013896E491E093F905F0
:10186000FE013996E491E093FA05FE013A96E4917F
:10187000E093FB05FE013B96E491E093FC05FE013D
:101880003C96E491E093FD05FE013D96E491E093E2
:10189000FE05FE013E96E491E093FF05FE013F96B2
:1018A000E491E0930006FE017096E491E093010656
:1018B00061E1CE010E94EA0B909303068093020639
:1018C00063E1CE010E94EA0B909305068093040623
:1018D00065E1CE010E94EA0B90930706809306060D
:1018E0008091DE059091DF05892BD1F08091FE0576
:1018F00080930A064091FF0540930B0690910906DC
:10190000992371F0913079F490910006891714F4BD
:1019100090930A0680910106841714F480930B06B5
:10192000DF91CF9108953091FB052091FD05082EA0
:10193000000C990B622F022E000C770B630F711DA8
:1019400037FD7A95861797071CF4320F30930A06F5
:10195000241734F720930B06E3CFEF92FF920F93F7
:101960001F93CF93DF93FC01E65AFF4F2081318113
:10197000295E3F4F6F3F710509F048F561367105EB
:10198000D8F080589F4FFC0180819181280F391F2A
:10199000C9010196FC014491442309F447C0F901AF
:1019A00044914617170671F40196DF91CF911F916C
:1019B0000F91FF90EF9008956134710548F38258BC
:1019C0009F4FE1CFFC018491280F311DE1CF8B01A6
:1019D000FC01EE57FF4FC081D181C20FD31F7E01A2
:1019E00060E0C7010E94EA0BC80FD91F62E0C7017F
:1019F0000E94EA0BF4E0EF0EF11C8017910780F3D0
:101A0000FE01849190E0982F88273196E4918E2BE7
:101A1000009761F00817190719F4CE010396C5CF96
:101A2000FE013296E491CE0FD11DEACF90E080E026
:101A3000BCCFCF92DF92FF920F931F93CF93DF9390
:101A40001092EA0510929C056C0180ECF82E10E0D3
:101A500000E0D0E0C0E0F60161916F01E091860501
:101A6000F091870584E895E009958F3F980789F103
:101A70008E3F2FEF920779F3BC0184E895E00E9436
:101A8000AD0C009721F1BC0184E895E00E94B30BF6
:101A90006091F70582EE95E00E94DC0B80930C06C6
:101AA0006091F80582EE95E00E94DC0B6091F905EB
:101AB00082EE95E00E94DC0B082F880F110B80EC62
:101AC000F81202C0F0900C06C00FD11FC4CF80E006
:101AD000F3CF2091EA05222399F080910C06022E83
:101AE000000C330B280F311D87FD3A95C20FD31F11
:101AF000C01BD10B1F1424F4CF0DD11DF7FCDA95B8
:101B0000CE01DF91CF911F910F91FF90DF90CF9089
:101B10000895CF93DF93EC016BAFEEA9FFA901907D
:101B2000F081E02D0995EEA9FFA90280F381E02D57
:101B3000CE01DF91CF910994AF92BF92CF92DF9205
:101B4000EF92FF920F931F93CF93DF9300D000D0BB
:101B50001F92CDB7DEB78C01DC01DA96AC90DA9734
:101B6000DB96EC90DB97ED91FC91B188FE2CD12CAB
:101B7000C12CD801ED91FC9111978089D8962D91B7
:101B80003C911C82FD828B83B8E08B9FC0011124A5
:101B90008C9DA0018D9D500D9C9D500D1124240FF6
:101BA000351F3A832983D8011496ED91FC919E014B
:101BB0002F5F3F4F41E06FE0C8010995F3948F2DEF
:101BC0008E198A1528F4BFEFCB1ADB0AFB1488F2B2
:101BD0000F900F900F900F900F90DF91CF911F916A
:101BE0000F91FF90EF90DF90CF90BF90AF9008954E
:101BF0006D32F1F030F4683269F0693291F081E0D1
:101C000008956C34E1F06D34D1F7442301F1249848
:101C10002C9AF5CF84B18F7C84B985B1806385B966
:101C2000EECF642F70E090E080E00E946506E7CF81
:101C3000433028F785E090E00E943806E0CF442347
:101C400019F025982D9ADBCF2D98259AD8CF2C986E
:101C5000249AD5CFFC014181528180918E039091CD
:101C60008F034817590719F1CA0120E0BC01769586
:101C7000762F66277795679586279727BC01672F6C
:101C80007727669586279727782F662786279727B1
:101C9000E22FF0E0E058FB4F392F3827308331E056
:101CA000320F2F3F29F450938F0340938E030895F2
:101CB000232FDCCFCF92DF92EF92FF920F931F93EF
:101CC000CF93DF936C01EB017B01E40EF51E10E076
:101CD00000E0CE15DF0561F06991D601ED91FC9130
:101CE0000190F081E02DC6010995080F191FF1CF71
:101CF000C801DF91CF911F910F91FF90EF90DF907E
:101D0000CF9008952F923F924F925F926F927F9261
:101D10008F929F92AF92BF92CF92DF92EF92FF92FB
:101D20000F931F93CF93DF9300D000D01F92CDB7B6
:101D3000DEB79D838C835C0124E0A20EB11CFC0104
:101D4000E057FF4F0190F081E02DC50109958C010E
:101D50000E3F8FEF180708F012C16C807D8094E968
:101D6000690E711CF301E080F1808C809D80F2E9A6
:101D70008F0E911CF401C080D1808C819D8180598F
:101D80009F4F9A838983FC018081813009F47AC056
:101D900008F46CC0823009F481C0833009F48AC031
:101DA000EC81FD81EC59FF4FD182C082EC81FD8135
:101DB000EA59FF4FF182E082B801C5010E94AD0CE3
:101DC000009709F42EC1EC80FD80F2E6EF0EF11CC5
:101DD000BC01C5010E94B30BEC81FD81E559FF4FA9
:101DE0005080EC81FD81E958FF4F6081C7010E945E
:101DF000DC0B382EEC81FD81E858FF4F6081C70174
:101E00000E94DC0B082FEC81FD81E758FF4F6081B9
:101E1000C7010E94DC0B8B83F701408414140CF083
:101E20009CC01685050D0195212F402F632D8281C1
:101E300093810E94F60A6C01F70193838283212F1C
:101E4000402F632D848195810E940F0BF7019583AC
:101E50008483113009F4ADC0C8F1123009F4BAC05E
:101E6000133009F4CDC08C0196013AC0EC81FD819C
:101E7000E05AFF4F0190F081E02DC5010995E80E71
:101E8000F91E8ECFEC81FD81E05AFF4F0190F08169
:101E9000E02DC5010995C81AD90A82CFEC81FD81D0
:101EA000E05AFF4F0190F081E02DC5010995E81A35
:101EB000F90A76CFEC81FD81E05AFF4F0190F08165
:101EC000E02DC5010995C80ED91E6ACF9601240DD3
:101ED000311D47FC3A958C01050D111D57FC1A95D3
:101EE000AC01B601C5010E945B098823B1F1F7017D
:101EF000168217822C803D80F3E72F0E311C0C8157
:101F00001D810C581F4FF1016081C7010E94880B91
:101F1000C82EF8016081C7010E94880BD82E40E0CE
:101F20006C2DC5010E94280B41E06D2DC5010E945A
:101F3000280B61E0C7010E94880B8111F0CFF701E7
:101F40008781851504F38C819D8182579F4F9D83E6
:101F50008C838485EC81FD818083FB818F2FFF0F33
:101F6000990BE981FA812081213009F465C008F4D8
:101F70005BC0223009F462C0233009F467C081E0FD
:101F800090E00F900F900F900F900F90DF91CF91F6
:101F90001F910F91FF90EF90DF90CF90BF90AF9087
:101FA0009F908F907F906F905F904F903F902F9079
:101FB000089541E050E04519510957FC53959601A9
:101FC0002F5F3F4F8C01040D111D47FC1A95C40E65
:101FD000D51E86CF41E050E0BA016419710947FC73
:101FE000739596012F5F3F4F4519510957FC539543
:101FF0008C010F5F1F4F840F951FC60ED71E70CF29
:102000009601250D311D57FC3A9541E050E04419E9
:10201000510947FC53958C010F5F1F4F840F951F8B
:102020005FCF90E080E09DCFF40120813181820F6D
:10203000931F91838083A3CFF301F7CFF401208115
:102040003181281B390B3183208399CFF301F7CFDE
:102050000F931F93CF93DF938C01D0E0C0E0F80182
:10206000EC0FFD1F6491662341F080E895E00E942B
:10207000820E892B11F02196F2CFCE01DF91CF9104
:102080001F910F9108958FE493E00E94F60B82E078
:1020900090E090931306809312068CE090E090936A
:1020A0001506809314068EE191E00E9428108AE1C3
:1020B00091E00C942810682F80E895E00C94820E33
:1020C000089590E080E008951BB82C9828B12F7EE9
:1020D00035E0969587953A95E1F7282B28B908952C
:1020E000CF939C01C62F97B19F6097B92A9AF89415
:1020F000C9010E94641029982B9890E080E00E940A
:10210000641068B1607F6C2B68B9289800000000EB
:10211000289A2B9A299A7894CF91089587B1807F35
:1021200087B988B18F6088B9F89490E080E00E9408
:102130006410299890E080E00E9464102A98289802
:10214000000000000000000086B1289A2A9A299A0F
:10215000789498B1907F98B98F7008958AEF90E045
:102160000E94380688E0299800000000299A0000A3
:1021700000008150C1F765E090E080E00E9470109F
:102180000E948E10853031F565E090E080E00E947D
:1021900070106AE080E092E00E9470100E948E1041
:1021A000853019F580E094E090939C0380939B0325
:1021B00090939A03809399038CE091E09093980315
:1021C0008093970380E89EE390939E0380939D0302
:1021D00081E008956AE090E080E00E9470100E9423
:1021E0008E108A3089F280E0089580E092E090932A
:1021F0009C0380939B0390939A03809399038BE8AD
:1022000091E0909398038093970380E49FE1DCCF63
:1022100025B190E02B7EAC01440F551F440F551F94
:10222000242B25B92BB12871959587959595879580
:10223000822B8BB90895CF93DF93D82FC62F84B10B
:10224000896084B987B18A6087B9409AF89480E040
:102250000E940811449829988D2F0E94081145B1B9
:102260008C2F90E09C01220F331F86958170922F56
:102270009870892B467F842B85B968B1657FC870BB
:102280006C2B2270622B68B9429800000000429AC1
:10229000299A449A7894DF91CF91089584B1867FEA
:1022A00084B987B1857F87B985B1896085B988B1DF
:1022B0008A6088B94098F89480E00E940811449898
:1022C00080E00E9408114298000000000000000019
:1022D00023B196B130E0429A449A7894409A85B1FD
:1022E000867F85B988B1857F88B991FB662760F9BB
:1022F000A901440F551F842F8270862B9870892B5B
:1023000093E0359527959A95E1F7220F331F220F19
:10231000331F2470822B0895CF92DF92EF92FF92A9
:102320000F931F93CF93DF9321E030E0082E02C07C
:10233000220F331F0A94E2F7022F000F000F122F13
:10234000110F110F110FEEE3F2E0B22FB295BB0F98
:10235000B07E50E040E070E060E0A0E09A2F947022
:10236000C62FC0719C2B9083972F9078C62FC07476
:102370009C2BEA01D695C795D695C795C4709C2B22
:10238000EA01D295C295CF70CD27DF70CD27C270FC
:102390009C2B9183A00F610F32967B0F420F531F2E
:1023A00092E0EE37F907D1F620E230E002C0220FCA
:1023B000331F8A95E2F7C22ECC0CCC0CD22EDD0C4A
:1023C000DD0CDD0CEEE7F2E0022F0295000F007E3F
:1023D000CEE8D2E050E040E070E060E010E0812F15
:1023E0008470962F9071892B8083DA01B695A7951A
:1023F000B695A795872F8078962F9074892B9A2F62
:102400009470892B7A0194E0F694E7949A95E1F719
:102410009E2D9270892B46FB992790F9892BA072EB
:102420008A2B81831C0D6D0D3296700F420F531F46
:10243000CE17DF07A1F6DF91CF911F910F91FF908B
:10244000EF90DF90CF9008958AEF90E00E943806D9
:1024500088E0449800000000449A00000000815089
:10246000C1F765E00E941B110E944E118530A9F54D
:1024700060E080E00E941B116FE081E00E941B1170
:102480000E944E1181110CC060E080E00E941B117F
:102490006FE080E80E941B110E944E11882339F1E1
:1024A00080E091E090939A038093990380E490E018
:1024B00090939C0380939B0381E091E09093980319
:1024C0008093970381E00E948C1180EA9FE09093B3
:1024D0009E0380939D0381E008956AE080E00E945E
:1024E0001B110E944E118A3019F280E0089580E09D
:1024F00091E090939A038093990390939C03809327
:102500009B0380E891E0909398038093970380E089
:10251000DACF8FE384B982E085B98FE187B985E1AD
:1025200088B98AB18071876E8AB98BB180718BB995
:10253000549A80913D02811105C00E948C1181E066
:1025400080933D02089535B1AC015695479586FBC1
:10255000222720F9542F5470252B3A7E232B25B99E
:1025600028B12E7E292B982F92959071292B28B96E
:102570002BB1982F990F990F90784074942B2C734E
:10258000922B82FB882780F9892B8BB90895CF93F2
:10259000DF93EB0141983998429AF8940E94A31274
:1025A0002998CE010E94A312439800000000000069
:1025B000439A86B1299A7894429882FB882780F9B9
:1025C000DF91CF9108950F931F93CF938B01C42F69
:1025D000399AF8940E94A31229982B98C8010E9456
:1025E000A312CC2361F0419A439800000000439A63
:1025F0002B9A299A7894CF911F910F910895419821
:10260000F3CF8AEF90E00E94380688E02998000016
:102610000000299A000000008150C1F740E070E0FE
:1026200060E090E080E00E94E31241E061E070E051
:1026300081E090E00E94E31270E060E090E080E0D2
:102640000E94C712882301F140E060E270E084E05C
:1026500090E00E94E31241E060E470E088E090E0E6
:102660000E94E31260E270E084E090E00E94C712F2
:10267000811108C060E470E088E090E00E94C71219
:10268000813051F080E0089561E070E081E090E0F9
:102690000E94C7128130C1F640E070E060E090E037
:1026A00080E00E94E31241E070E060E080E091E0B1
:1026B0000E94E31270E060E090E080E00E94C712A8
:1026C000882319F140E070E060E090E080E00E9433
:1026D000E31241E070E060E080E890E00E94E312E5
:1026E00070E060E090E080E00E94C712811125C098
:1026F00080E091E090939C0380939B0390939A03D6
:102700008093990385E791E00CC080E092E090937C
:102710009C0380939B0390939A038093990382EF89
:1027200090E0909398038093970380EA9FE09093C2
:102730009E0380939D0381E0089540E070E060E097
:1027400090E080E00E94E31241E060E870E090E0F9
:1027500080E00E94E31270E060E090E080E00E9480
:10276000C712882329F280E890E090939C0380931D
:102770009B0390939A038093990387EE90E0909344
:1027800098038093970380ED97E0D1CF8FE384B9CE
:102790008AE085B98BE187B988E088B98AB180730E
:1027A000836C8AB98BB180738BB98AB180638AB923
:1027B0008091AC01811137C0EDEAF1E040E090E09A
:1027C00080E09C01359527952470382F3071232B9C
:1027D0002083242F2071218382FB222720F9382F88
:1027E0003270232B228301963396405F803291050D
:1027F00041F7EDE0F2E040E090E080E086FB222748
:1028000020F9208391839C01369527952074242BF1
:102810002283809633964058811522E0920771F703
:1028200081E08093AC0108958091E2039091E303ED
:10283000A091E403B091E5038F3F2FEF9207A20729
:10284000B20709F063C08091EA039091EB03A09175
:10285000EC03B091ED038F3F2FEF9207A207B20771
:1028600089F48091DE039091DF03A091E003B091A1
:10287000E1030097A105B10509F443C0880F991F32
:10288000AA1FBB1F8093E6039093E703A093E8037E
:10289000B093E9038091A9039091AA03A091AB039F
:1028A000B091AC034091E6035091E7036091E803D7
:1028B0007091E903481759076A077B0740F4809332
:1028C000E6039093E703A093E803B093E9038091B4
:1028D000E6039091E703A091E803B091E90381300A
:1028E000924DA944BB4660F080E092EDA9E4BBE6BE
:1028F0008093E6039093E703A093E803B093E90382
:10290000089580ED97E0A0E0B0E0BCCF4091DE03F9
:102910005091DF036091E0037091E103411551058F
:102920006105710529F4B695A79597958795AACF66
:10293000841B950BA60BB70BB695A7959795879516
:10294000840F951FA61FB71F9DCF8F929F92AF92A6
:10295000BF920F931F93CF93DF93CDB7DEB7A197AD
:102960000FB6F894DEBF0FBECDBF19A2423008F4F7
:102970004AE08E010F5D1F4F842E912CB12CA12CAB
:10298000A50194010E949726E62FB901CA01EA30F9
:1029900044F5E05DD801EE938D01232B242B252BEC
:1029A00079F790E080E0109769F0FD010190002038
:1029B000E9F73197AF014A1B5B0BBD0180E895E059
:1029C0000E945A0EA1960FB6F894DEBF0FBECDBF7F
:1029D000DF91CF911F910F91BF90AF909F908F90FB
:1029E0000895E95CD7CF009769F0FC0101900020C1
:1029F000E9F73197AF01481B590BBC0180E895E01E
:102A00000C945A0E90E080E008950F931F93CF939B
:102A1000DF93C82F8B0182E898E09093870580931D
:102A20008605CB010E94190D20E830E0A901481B62
:102A3000590BCA0157FD01969595879597FF02C0DE
:102A400090E080E09093130680931206D0E0D0933C
:102A50001506C0931406C801DF91CF911F910F9105
:102A60000C94F3140F931F93CF93DF93C82F8B0114
:102A700082E898E09093870580938605CB010E94B9
:102A8000190D20E830E0281B390B309313062093F2
:102A90001206D0E0D0931506C0931406C801DF914A
:102AA000CF911F910F910C94F314BC0190E080E042
:102AB0004AE00C94A514FC01A081B18150962C91A0
:102AC00082AD38E0839FC0011124289FA001299F77
:102AD000500D112470E060E080AD91AD0C94F826AB
:102AE0001F93CF93DF93EC010E949C0D1BAD8AAD29
:102AF000180FE881F9818189181768F0EC81FD8150
:102B000030E020E040E060E1CE01099580E0DF9117
:102B1000CF911F910895FE01E557FF4F80818823D3
:102B200019F0CE010E945B15612FCE010E94890D24
:102B300081E0EDCFCF93DF93EC01FC01E557FF4F30
:102B40008081882319F0CE010E945B1560E0CE01E0
:102B5000DF91CF910C94890D882389F024982C9AC9
:102B60008AE08A95F1F700C025982D9A80E28A952F
:102B7000F1F72D98259A88E08A95F1F708952C9819
:102B8000249AEECF80E18A95F1F70895CF93C82F6C
:102B900080780E94AC158C2F80740E94AC158C2F0D
:102BA00080720E94AC158C2F80710E94AC158C2F06
:102BB00088700E94AC158C2F84700E94AC158C2FED
:102BC00082700E94AC158C2F81700E94AC152498E5
:102BD0002C9A0E94C21525982D9A80E28A95F1F7C9
:102BE00024982C9A0E94C2152D98259ACF91089569
:102BF000EF92FF921F93CF93DF93EC01142F790193
:102C0000683121F158F46431C1F0673169F080E036
:102C1000DF91CF911F91FF90EF900895693181F17D
:102C20006032A9F781E0F4CF1123E1F3F70181913C
:102C30007F010E94C6151150F7CF84B18F7C84B9F3
:102C400085B1806385B90E94C215ECCF8F89882336
:102C500049F024982C9A0E94C21525982D9AF0E2EA
:102C6000FA95F1F724982C9A2C98249A0E94C21570
:102C70002D98259A81E08F8B8E890E94C615D2CF20
:102C80002C98249A0E94C21525982D9A80E28A9544
:102C9000F1F724982C9A0E94C2151F8A84B1806390
:102CA00084B9C0CFCF93DF93CDB7DEB766970FB6A9
:102CB000F894DEBF0FBECDBF7C018B0184B18F7C49
:102CC00084B985B1806385B984E895E00E949A153E
:102CD0000E94431045E150E0B701CE0101960E94E9
:102CE0003C261E8ABE016F5F7F4F84E20E9405155D
:102CF00045E150E0B801CE0101960E943C261E8AB3
:102D0000BE016F5F7F4F88E30E94051584E895E060
:102D10000E9470158111DCCF2D98259A2D9AFFCF36
:102D20002F923F924F925F927F928F929F92AF929B
:102D3000BF92CF92DF92EF92FF920F931F93CF93A8
:102D4000DF93EC0148015901CB01BA01A9019801B7
:102D50000E94972619012A01762EF72E8C012AE06F
:102D6000AE01C201B1010E944B2609900020E9F793
:102D700021976E018FEFC81AD80A8EE288838AE005
:102D8000282E312C412C512CC501B401A2019101F6
:102D90000E94972649015A01672D7F2DC8010E9484
:102DA0009726205DF6012083762EF72E8C01C60132
:102DB00001966C0191E0E91214C0F6011082DF91D6
:102DC000CF911F910F91FF90EF90DF90CF90BF9028
:102DD000AF909F908F907F905F904F903F902F90FB
:102DE0000895EE24E394D0CFEF920F931F93CF93E7
:102DF000DF93EC0192E0E92E403187E2580761054C
:102E0000710548F0403A86E8580781E06807710587
:102E100098F4EE24E39408EE13E020E030E0CE01D5
:102E20000E94901667E771E0CE01DF91CF911F916C
:102E30000F91EF900C94FF26403482E458078FE006
:102E40006807710578F4CB01BA0128EE33E040E061
:102E500050E00E949726CA01B9012AE0AE010E9403
:102E60004B26E0CF82E0E82E403886E9580788E913
:102E70006807710550F0411581EE580785EF680726
:102E800085E0780760F4EE24E39400E412E42FE098
:102E900030E0CE010E94901668E771E0C5CFCB010B
:102EA000BA0120E432E44FE050E00E949726CA01C4
:102EB000B9012AE0AE010E944B26EECF2F923F923D
:102EC0004F925F926F927F928F929F92AF92BF923A
:102ED000CF92DF92EF92FF920F931F93CF93DF93E6
:102EE000CDB7DEB7A4970FB6F894DEBF0FBECDBF47
:102EF0002B013C01F42E122F84B18F7C84B985B153
:102F0000806385B984E895E00E949A1580E44816AC
:102F100082E458068FE06806710408F08CC0AEEFBA
:102F2000BFEFB8A3AF8F22E0222E312C5E01F7E174
:102F3000AF0EB11C3AE2832E912C8F2D90E0B0E0C1
:102F4000A0E089A39AA3ABA3BCA38FE493E00E9463
:102F5000F60B3092130620921206ACE0B0E0B0936C
:102F60001506A09314068BE691E00E94281066E6F1
:102F700071E0011106C06EE571E0112311F067E503
:102F800071E045E150E0CE0101960E943C261E8A88
:102F9000BE016F5F7F4F8CE00E943215002309F461
:102FA0004FC08FE493E00E94F60B6AE771E088E27D
:102FB0000E94051584E997E00E94F60B30921306F3
:102FC00020921206EEE3F0E0F0931506E09314066B
:102FD00081E491E001110DC081E391E00E9428108D
:102FE0004AE069A17AA18BA19CA10E94A5148BE261
:102FF00091E00E94281084E895E00E9470158111EC
:10300000A4CF2D98A4960FB6F894DEBF0FBECDBF07
:10301000DF91CF911F910F91FF90EF90DF90CF90B4
:10302000BF90AF909F908F907F906F905F904F90E8
:103030003F902F900895EFEFFFEFF8A3EF8F73CF3E
:10304000B301A201C5010E94F416F5010190002010
:10305000E9F73197EF8CF8A0EE0EFF1EB701CE0115
:1030600001960E941527F701108280E392E00E94EA
:10307000F60B82E898E09093870580938605C5015A
:103080000E94190D6C019CE6E92EF12CEC18FD084C
:10309000F7FE03C09FEFE91AF90AF594E794F7FEEB
:1030A00002C0F12CE12CF0921306E09212069092ED
:1030B000150680921406C5010E94F3148FE493E074
:1030C0000E94F60BA3E0CA0ED11CEC0CFD1CF09282
:1030D0001306E09212069092150680921406CE0115
:1030E00001960E94F31466CF2F923F924F925F9207
:1030F0006F927F928F929F92AF92BF92CF92DF9208
:10310000EF92FF920F931F93CF93DF93CDB7DEB76C
:103110006E970FB6F894DEBF0FBECDBFFB012091B6
:103120009703309198033093AE032093AD03209121
:10313000F3033091F4032F5F3F4F3093B00320939C
:10314000AF031092B4031092B3031092B503C09072
:10315000E203D090E303E090E403F090E5034091B4
:10316000EA035091EB036091EC037091ED038090C2
:10317000DE039090DF03A090E003B090E1032FEF17
:10318000C216D206E206F20609F0CCC14F3F2FEF7D
:1031900052076207720739F422EE30E03093B2032F
:1031A0002093B10317C02091EE033091EF032A3032
:1031B000310508F0AAC1AAEDB0E0B093B203A09324
:1031C000B1032F5F3F4F3093B4032093B3032AE042
:1031D0002093B50326ED33E03093B7032093B60375
:1031E0000091E6031091E7032091E8033091E90391
:1031F0000093B8031093B9032093BA033093BB0331
:103200009093BD038093BC03F093BF03E093BE0390
:103210008092C0039092C103A092C203B092C303F4
:10322000C092C403D092C503E092C603F092C703D4
:103230004093D0035093D1036093D2037093D30390
:103240008091F5038093D4038091F603817080937D
:10325000D50384B18F7C84B985B1806385B984E856
:1032600095E00E949A1588E0282E312C8E010F5F80
:103270001F4F93E1492E512C2EE1622E712C39E221
:10328000C32ED12C44E3A42EB12C5FE3852E912CC8
:1032900084E997E00E94F60B109213061092120632
:1032A00030921506209214066091AD037091AE0322
:1032B00045E150E0C8010E943C261E8A60E270E0B1
:1032C000C8010E940A27009711F0FC011082C80172
:1032D0000E94F31464EC70E0C8010E9435264AE0B5
:1032E000BE016B5F7F4F8091AF039091B0030E944E
:1032F0006D26B80188E00E943215109213061092D4
:10330000120650921506409214068091B1039091D6
:10331000B2030E9428108091B3039091B403892BCB
:10332000C1F080E20E945B108091B3039091B403DE
:103330000E9455158091B503882359F08FE20E94B1
:103340005B106091B50370E090E080E04AE00E947D
:10335000A5146091B6037091B70383E10E94321502
:1033600010921306109212067092150660921406BF
:103370004091B8035091B9036091BA037091BB03B7
:10338000CE0147960E94F4168EEB90E00E94281022
:10339000CE0147960E94F3146091BC037091BD0367
:1033A00048E050E0C8010E943C261986E090BE0328
:1033B000F090BF03E114F104A9F062E871E0C801E4
:1033C0000E94FF26F80101900020E9F7BF0161503B
:1033D00071094AE0C7010E946D2668E771E0C801E3
:1033E0000E94FF26B8018EE10E943215109213064A
:1033F00010921206D0921506C09214068AEB90E045
:103400000E9428104091C0035091C1036091C203F3
:103410007091C303411551056105710509F48DC013
:10342000CE0147960E94F416CE0147960E94F314EF
:1034300065EB70E0C8010E9435264091C4035091AD
:10344000C5036091C6037091C7034F3FFFEF5F074D
:103450006F077F0709F475C0CE0105960E94F41628
:10346000B80189E20E9432151092130610921206DA
:10347000B0921506A09214068091C8039091C903DA
:103480008F3F980709F063C08DEA90E00E942810F2
:10349000109213061092120690921506809214064E
:1034A00086E890E00E9428108091D0039091D1038B
:1034B000A091D203B091D3038F3F9F4FAF4FBF4F27
:1034C00009F072C08FE30E945B1084E895E00E94CF
:1034D00070158111DDCE2D986E960FB6F894DEBF73
:1034E0000FBECDBFDF91CF911F910F91FF90EF9055
:1034F000DF90CF90BF90AF909F908F907F906F9014
:103500005F904F903F902F900895A5EDB0E0B0935D
:10351000B203A093B103295031093093B40320932F
:10352000B30358CE29EC30E081149104A104B10416
:1035300009F434CE2EEC30E031CE8DE20E945B10E7
:1035400077CF64E871E0C8010E94FF2689CF892BFC
:1035500069F48DE990E00E9428108091CE0390914B
:10356000CF030E9455158AE990E090CF83E990E05F
:103570000E9428108091C8039091C9030E9455159C
:103580008CE890E00E9428108091CA039091CB03B0
:103590000E9455158CE20E945B108091CC039091A3
:1035A000CD030E94551574CF8091D503882321F057
:1035B00083E890E00E9428104091D0035091D103FD
:1035C0006091D2037091D303CE0147960E94F41606
:1035D000CE0147960E94F31480E890E00E942810E4
:1035E0006091D40370E090E080E04AE00E94A5146E
:1035F0008AE790E00E94281068CF1F920F920FB6C2
:103600000F9211242F933F938F939F93AF93BF9368
:103610008091F8039091F903A091FA03B091FB0314
:103620003091F70323E0230F2D3768F126E8230FAD
:103630000296A11DB11D2093F7038093F803909388
:10364000F903A093FA03B093FB038091FC039091DC
:10365000FD03A091FE03B091FF030196A11DB11DD2
:103660008093FC039093FD03A093FE03B093FF03AC
:10367000BF91AF919F918F913F912F910F900FBE6E
:103680000F901F9018950196A11DB11DD4CF6F9278
:103690007F928F929F92AF92BF92CF92DF92EF92E2
:1036A000FF920F931F93CF93DF9300D000D01F9210
:1036B000CDB7DEB7FA01C82E9C01B4E03695279548
:1036C000BA95E1F720712B60D22E15E0969587957B
:1036D0001A95E1F7282F2071B22EE0909B03F0900D
:1036E0009C0305E0F694E7940A95E1F787B1807FA3
:1036F00087B988B1807F88B9912C812C80E050E017
:1037000090E0F12C40E00FE0FE1408F041C094017D
:10371000A4E036952795AA95E1F720712960722ECD
:10372000182D382FDB016F2D6071662E24E0AD90CF
:1037300078E0CBB8D5B8B8B8299800001BB975B8EF
:1037400068B82898000000000000000066B1289AC0
:10375000299A6F70A0FC602739F0303011F4522F95
:10376000972F3F3F09F03395A69413957A9509F763
:103770002A95E9F6BD01811102C031114F2D7894CF
:103780000000F894F39480E2880E911C832FBCCF44
:103790002FE025B98823B9F0A0E24A9F90011124B7
:1037A000291B3109285F3F4F64E070E0DB01A51B56
:1037B000B109AD0193E0440F551F9A95E1F7240F2D
:1037C000351F3183208390E00F900F900F900F9062
:1037D0000F90DF91CF911F910F91FF90EF90DF90AD
:1037E000CF90BF90AF909F908F907F906F900895F3
:1037F0000F931F93CF93DF93E82F9C0144E03695FE
:1038000027954A95E1F72071F22FFF6055E09695D4
:1038100087955A95E1F7807120919B0330919C0325
:10382000A5E036952795AA95E1F7422F97B19F60BD
:1038300097B9D0E0C0E050E0541708F02FC09E01C7
:1038400094E0369527959A95E1F720712560352FFC
:1038500030719C2FDB0104E07D9118E0632F70FD37
:103860006F607695EBB9F5B988B929982B989BB913
:1038700025B968B9289800000000289A2B9A299A3F
:103880009395000000001A9549F70A9529F7BD01A4
:1038900078940000F8945F5FA096CECFDF91CF912F
:1038A0001F910F9108952F923F924F925F926F92C6
:1038B0007F928F929F92AF92BF92CF92DF92EF92C0
:1038C000FF920F931F93CF93DF93CDB7DEB72F9760
:1038D0000FB6F894DEBF0FBECDBFDB017A01382FE3
:1038E000330F330F330F582E550C550C252D2470E4
:1038F000522E232F2071522A689451F85E866BB1A4
:10390000AC015695479556954795282F2295220F3D
:1039100020783074232B6871262B342F3470232B9E
:10392000BC01E4E076956795EA95E1F76270262B95
:1039300086FB992790F9292B942F9072922B9E83C6
:1039400060909B0370909C03F5E076946794FA95E1
:10395000E1F76B8684B1867F84B987B1857F87B9AB
:1039600085B1867F85B988B1857F88B90EE712E079
:1039700080E020E030E060E01F8698719D879EE344
:10398000C92E92E0D92E4B85641708F04BC0F80180
:10399000508152605A8781802D8428282C86582F88
:1039A0002F83F601522E6E847E808A84922C24E12D
:1039B000A22E4BE0B42E44E04D9028E02190282820
:1039C0003190392865B87BB8A8B84498000025B86C
:1039D0003BB84298000000000000000076B193B1AF
:1039E000429A449A7A709970792B40FC7B2539F081
:1039F000503011F4542E322F5F3F09F05395469406
:103A00002A95E1F64A95C1F65F82252D811102C003
:103A100051116F8778940000F8946F5F0E5F1F4F0D
:103A2000852FB1CF95E198B98823C9F07F8560E2F1
:103A3000769FA0011124431B5109485F5F4F64E04A
:103A400070E0FB01E21BF1099F0193E0220F331F9D
:103A50009A95E1F7420F531FF7015183408390E09D
:103A60002F960FB6F894DEBF0FBECDBFDF91CF917A
:103A70001F910F91FF90EF90DF90CF90BF90AF908C
:103A80009F908F907F906F905F904F903F902F907E
:103A900008957F928F929F92AF92BF92CF92DF92C2
:103AA000EF92FF920F931F93CF93DF9300D000D03C
:103AB00000D0CDB7DEB7E82FEE0FEE0FEE0F382FA8
:103AC000330F330F34702E2F2071322B3260FBB145
:103AD000AC015695479556954795282F2295220F6C
:103AE0002078E0742E2BF8712F2B542F5470252B37
:103AF000FC0154E0F695E7955A95E1F79E2F9270F8
:103B0000922B86FB882780F9892B4072842B409169
:103B10009B0350919C03E5E056954795EA95E1F7A4
:103B2000E42E94B1996094B997B19A6097B9FEE781
:103B30008F2EF2E09F2EF12C282F2871D22E45E1F6
:103B400055E00EE312E0FE1408F031C0F401A0804D
:103B50009181792E7D28F801DB0194E0BD9078E019
:103B600021912A29C190C728652FB0FC2960B0FC9B
:103B70006A60B69435B98BB948B94498299825B983
:103B8000CBB868B9429800000000429A299A449A3A
:103B9000000000007A9521F79A9501F7BD0178940D
:103BA0000000F894F394E2E08E0E911CCCCF2696A0
:103BB0000FB6F894DEBF0FBECDBFDF91CF911F913E
:103BC0000F91FF90EF90DF90CF90BF90AF909F90BC
:103BD0008F907F9008952F923F924F925F926F92B5
:103BE0007F928F929F92AF92BF92CF92DF92EF928D
:103BF000FF920F931F93CF93DF93CDB7DEB76197FB
:103C00000FB6F894DEBF0FBECDBFDB017A019C0179
:103C100036952795482F40714A60442E322F3470D4
:103C2000432A86FB332730F9432A498A582E529477
:103C300050EF5522452D4071542E9170592A6894A9
:103C400053F8588A9BB19C73382F3270932B207491
:103C5000922B282F220F220F2078292B82FB9927C5
:103C600090F9922B9F8360909B0370909C0365E07A
:103C7000769467946A95E1F76E86419839980DE0DD
:103C800012E080E020E030E040E01C829C739987E5
:103C90007DEAC72E71E0D72E5E85451708F04EC02D
:103CA000F801708178607887518158605D877280F3
:103CB000298427282F86582FF601698878888F80D5
:103CC000972EAD84B22C74E05D9068E02190292895
:103CD00031903A2841904B2865B878B88BB829982C
:103CE000000025B84BB838B8439800000000000029
:103CF000439A96B1299A969596959525917069F073
:103D0000503011F4272F362F5F3F09F053954D9A0D
:103D100000000000000000004D9A56946A95B1F62C
:103D20007A9591F6811102C051114C83789400006C
:103D3000F8944F5F0D5F1F4F852FAECF8823E9F0BA
:103D40004C8160E2469FA0011124431B5109485F4A
:103D50005F4F5E834D8344E050E0BA01621B7109FE
:103D60009B0193E0220F331F9A95E1F72D803E804F
:103D7000220E331EF7013182208290E061960FB649
:103D8000F894DEBF0FBECDBFDF91CF911F910F9191
:103D9000FF90EF90DF90CF90BF90AF909F908F906B
:103DA0007F906F905F904F903F902F9008957F92FB
:103DB0008F929F92AF92BF92CF92DF92EF92FF923B
:103DC0000F931F93CF93DF9300D000D01F92CDB7F6
:103DD000DEB79C0136952795182F10711A60322F87
:103DE0003470132B86FB332730F9132B382F329581
:103DF00030719170392B38609BB19C73482F4270A1
:103E0000942B2074922B282F220F220F2078922B94
:103E100082FB882780F9892B40919B0350919C035A
:103E2000E5E056954795EA95E1F7E42E399AFDE0ED
:103E30008F2EF2E09F2EF12C482F4C73D42E4DEA9A
:103E400051E0FE1408F034C0F40100819181792E14
:103E5000689473F822812D29FA01DB0194E0BD906A
:103E600078E0A190A02A61916729C190C22AB0FC94
:103E70006260B69415B938B98BB929982B98A5B852
:103E8000CBB868B9439800000000439A2B9A299A4E
:103E90000000000000007A9521F79A9501F7BD0116
:103EA00078940000F894F394E3E08E0E911CC9CF4F
:103EB0000F900F900F900F900F90DF91CF911F9167
:103EC0000F91FF90EF90DF90CF90BF90AF909F90B9
:103ED0008F907F900895CF93DF93CDB7DEB7A597EE
:103EE0000FB6F894DEBF0FBECDBF789484B5836063
:103EF00084BD85B5836085BD80916E0081608093AF
:103F00006E0082E0809381008091810081608093C7
:103F10008100809180008160809380008091B10059
:103F200084608093B1008091B00081608093B00084
:103F300087E880937A001092C10084B1807E84B9B2
:103F400087B1807C87B91AB8359996C010E04B9933
:103F50001C5F4A991E5FE0918805F091890530E069
:103F600020E040E06AE084E895E0099584E895E087
:103F70000E949A1584E895E00E947015B82E811170
:103F8000F9CF60E084E895E00E94890DE091880512
:103F9000F091890530E020E040E06BE084E895E0B6
:103FA0000995E0918805F091890530E020E040E036
:103FB0006BE084E895E00995E0918805F09189052A
:103FC00030E020E04FEF6EE084E895E009952D9811
:103FD000143009F453C0153009F480C060E072E079
:103FE00081E192E0123009F045C085E791E09093BD
:103FF00098038093970380E091E090939A038093D5
:10400000990390939C0380939B0380EA9FE0909395
:104010009E0380939D0380E180939F0380E28093C1
:10402000A00386EC93E19093A2038093A10381E027
:1040300093E19093A4038093A30387ED9EE1909373
:10404000A6038093A5038BEE9DE19093A803809334
:10405000A703E091A103F091A2030995E091A303C6
:10406000F091A4030995898F811167C063EE71E017
:1040700080EF91E00E94521615E069CF80E891E050
:10408000909398038093970380E091E090939A0334
:104090008093990390939C0380939B0380EA9FE015
:1040A00090939E0380939D0380E180939F031092E1
:1040B000A00389E892E19093A2038093A10384E294
:1040C00092E19093A4038093A30389E49DE19093EC
:1040D000A6038093A50383E59CE1B7CF8BE891E02D
:1040E000909398038093970380E092E090939A03D3
:1040F0008093990390939C0380939B0380E49FE1BA
:1041000090939E0380939D0310929F031092A003AF
:1041100088E996E09093A2038093A1038EEA90E150
:104120009093A4038093A30388EF9BE19093A6034D
:104130008093A50387E49BE188CF88E0898381E0B1
:1041400090E09B838A83CE0101960E942A0EE09123
:10415000A103F091A2030995912C812C312C212CE3
:10416000F12CE12C10E000E0D12CC12C209199031E
:1041700030919A033C872B87C216D30608F047C0BC
:104180000E9440062B0140919B0350919C03B60175
:10419000CE0101960E94DF050E9440066419750950
:1041A0002616370608F41B010E9440062B01F894DE
:1041B000B1101AC0E091A503F091A60360E074E08D
:1041C000C601099578940E94400664197509B110DA
:1041D00019C00617170708F48B013FEFC31AD30A5B
:1041E000C5CFBB24B394C0CFE091A703F091A8033F
:1041F000AE01475F5F4F60E074E0C6010995882A11
:10420000992AE0CFE616F70640F77B01E6CF41E0BA
:10421000B412E7CF6BE971E08FEA91E0892809F0E9
:1042200029CF680154E0C50ED11CD0929603C092EC
:10423000950384E0E80EF11CF0929403E09293035E
:1042400090E5290E311C30929203209291032101B6
:10425000712C612C4C0C5D1C611C711C4092A903DB
:104260005092AA036092AB037092AC0380909D03BE
:1042700090909E0320909B0330909C03A091970305
:10428000B0919803B88BAF8784B18F7C84B985B126
:10429000806385B984E895E00E949A1502E010E0F9
:1042A000B12CA12C0E94431084E997E00E94F60BE8
:1042B0001093130600931206E7E1F0E0F093150661
:1042C000E09314068F8598890E9428101093130696
:1042D0000093120621E230E0309315062093140675
:1042E0008B859C850E94551588E70E945B10C10153
:1042F0000E945515B501A401CE0101960E94F41645
:104300008BED91E00E942810CE0101960E94F314DB
:1043100010931306009312064BE250E050931506DB
:104320004093140688ED91E00E942810C6010E9477
:10433000551581ED91E00E942810C7010E94551586
:104340008EEC91E00E942810109313060093120641
:1043500085E390E09093150680931406B301A201C3
:10436000CE0101960E94F41688EC91E00E9428107C
:10437000CE0101960E94F3141093130600931206C7
:10438000AFE3B0E0B0931506A0931406A201B30109
:10439000B0ED4B16B7E05B066104710420F440ED0C
:1043A00057E060E070E0CE0101960E94F41681ECC7
:1043B00091E00E942810CE0101960E94F3148AEB2E
:1043C00091E00E94281084E895E00E947015811108
:1043D00069CF2D9864EC79E080E090E00E9465065A
:1043E0001092DE031092DF031092E0031092E103BB
:1043F0008FEF9FEFDC018093E2039093E303A093A0
:10440000E403B093E5038093EA039093EB03A09356
:10441000EC03B093ED031092EF031092EE031092B1
:10442000F00381E090E09093F2038093F103109207
:10443000F4031092F3031092F5031092F6038FEF3A
:104440009FEF9093C9038093C8030E941414809136
:10445000F003883020F080EF93E00E942A0EE09174
:10446000F003F0E0EE7FFF27E35EFD4F659174916E
:1044700086ED93E00E9435268091F003883098F015
:104480008091F1039091F2038230910560F066ED26
:1044900073E0FB0101900020E9F7BF016150710951
:1044A0004AE00E946D268091F00380FF06C066E816
:1044B00071E086ED93E00E94FF2670E060E08CE200
:1044C00092E00E9474182091E6033091E703409136
:1044D000E8035091E9032F87388B498B5A8BC090A2
:1044E0009503D0909603F12CE12C8090910390904D
:1044F0009203B12CA12CD701C601880D991DAA1DCC
:10450000BB1D4091990350919A03588F4F8B2F8573
:10451000388949895A89281739074A075B0708F4F7
:1045200070C14090930350909403712C612CD7017B
:10453000C601C414D504E604F70410F4D301C20183
:104540009C01AD01280D391D4A1D5B1D2B873C8741
:104550004D875E87AF89B88D0E94D826680D791D7A
:104560008A1D9B1D2F85388949895A892617370747
:104570004807590708F06DC0DA01C9018C199D0977
:10458000AE09BF099C01AD01281939094A095B0927
:104590002B8B3C8B4D8B5E8BA7019601240D351D1B
:1045A000461D571D75016401CC0CDD1CEE1CFF1C63
:1045B0002C0D3D1D4E1D5F1D6B897C898D899E894B
:1045C0000E94972669017A01480C591C6A1C7B1CC1
:1045D0008F859889A989BA89480E591E6A1E7B1E43
:1045E0004B865C866D867E86C114D104E104F1049D
:1045F00081F16B897C898D899E89A70196010E9432
:10460000972649015A01C301B2016C0D7D1D8E1D13
:104610009F1DA70196012F5F3F4F4F4F5F4F0E9495
:10462000972682169306A406B50608F4E4C0821AFB
:10463000930AA40AB50AB694A79497948794D501CF
:10464000C401820F931FA41FB51F8B879C87AD8762
:10465000BE878FB7F8942091F8033091F903409109
:10466000FA035091FB032F8F38A349A35AA38FBF9E
:1046700030919F033B8B4091A0034A8FE091A103AF
:10468000F091A20309958BB15A8D852B8BB90E94AD
:1046900040069B01AC012053384F4F4F5F4F2B8F8B
:1046A0003C8F4D8F5E8F1CA21BA21DA2612C312C52
:1046B000212C10E000E0F12CE12C512C412C8F85B5
:1046C0009889A989BA89820F931FA41FB51F8F8764
:1046D000988BA98BBA8BAF89B88DEA16FB0608F0C8
:1046E000F5C0D7012B853C854D855E850E94D82677
:1046F0008F849888A988BA88860E971EA81EB91E2E
:10470000EF89F88D4E165F06A8F4D2010E94D826D4
:104710002B8D3C8D4D8D5E8D260F371F481F591FE9
:10472000DA01C901A901BD01481959096A097B09C2
:1047300077FD6CC06701712C40919B0350919C03E5
:10474000B60180EF93E00E94DF050E944006A501BC
:104750009401261B370B480B590BDA01C90181382C
:104760009A41A640B1050CF456C02FB7F894809139
:10477000F8039091F903A091FA03B091FB032FBFC6
:104780002F8D38A149A15AA1821B930BA40BB50B05
:10479000883E9340A105B105C0F28FB7F8942091EF
:1047A000F8033091F9034091FA035091FB032F8FE6
:1047B00038A349A35AA38FBF0E944006A5019401C4
:1047C000261B370B480B590BCA01B901615C7D4BA5
:1047D000804F9F4F20E432E44FE050E00E94B92622
:1047E000B90187E292E00E947418E091A103F09170
:1047F000A2030995AACF91E0C91AD108E108F108EE
:10480000EFCE1B861C861D861E8623CF4C015D01C4
:10481000798C620191CF0E944006681979098A0952
:104820009B0997FDF8CF0E944006DC01CB01881957
:104830009909AA09BB094101B12CA12C8816990636
:10484000AA06BB0640F41C010097A140B10518F070
:1048500022242A94322C4B89411149B9F8947720AB
:1048600069F0E091A503F091A60360E074E0C60151
:1048700009955FEF451A550A78942DCF1A8219824F
:10488000E091A703F091A803AE014F5F5F4F60E096
:1048900074E0C6010995009791F00115110531F4F6
:1048A000A981BA81BCA3ABA3CDA26D2C2EEF3FEFA3
:1048B000281B390B2017310730F0080F191FBFEFE5
:1048C000EB1AFB0AD9CF0EEF1FEFF9CF9BB18A8D00
:1048D000809589238BB91093C9030093C803EDA178
:1048E000E093CA036092CB032BA13CA13093CD038C
:1048F0002093CC033092CF032092CE038091F30318
:104900009091F40301969093F4038093F3038091C4
:10491000E6039091E703A091E803B091E903012B2E
:1049200009F0C8C08093DE039093DF03A093E003F7
:10493000B093E1038090EA039090EB03A090EC0326
:10494000B090ED03C090DE03D090DF03E090E00371
:10495000F090E1033FEF83169306A306B30631F010
:10496000C814D904EA04FB0408F04DC06091E203C6
:104970007091E3038091E4039091E5036F3F4FEF63
:1049800074078407940721F1C114D104E104F104F0
:1049900009F486C02B013C014C185D086E087F08A5
:1049A00024E630E040E050E00E949726A5E0B0E029
:1049B0000E94D826643671058105910520F464E6CD
:1049C00070E080E090E0641575058605970570F449
:1049D000C11452EDD50659E4E5065BE6F50608F488
:1049E0005FC08091F60381608093F603C814D904F8
:1049F000EA04FB0440F4C092EA03D092EB03E09295
:104A0000EC03F092ED034091F5034F5F4093F50303
:104A1000C814D904EA04FB0430F08091EE039091AD
:104A2000EF030997A1F42091F60321706091EA0346
:104A30007091EB038091EC039091ED0300E00E94F4
:104A40005E176CED75E080E090E00E9465061092C4
:104A5000DE031092DF031092E0031092E1038FEF68
:104A60009FEFDC018093E2039093E303A093E403C0
:104A7000B093E5038091EE039091EF039C012F5FCB
:104A80003F4F3093EF032093EE032A303105A0F51A
:104A90002093F00381E090E09093F2038093F10380
:104AA0000E94141480E090E0892B09F4D0CC0E947D
:104AB0000000CDCC8093E2039093E303A093E40342
:104AC000B093E5034091A9035091AA036091AB0311
:104AD0007091AC03481759076A077B0708F42ACF7F
:104AE00001E020E04091F50360E070E0CB010E941E
:104AF0005E17259A2D9AFFCF099729E080FF28E0BD
:104B00002093F003969587950296C6CFCF93109287
:104B100083051092820582E898E0909311068093B5
:104B2000100610921306109212061092150610929B
:104B3000140610929C0584E091E090938105809387
:104B400080051092850510928405109299051092A7
:104B500090051092910510929205109293058FEF97
:104B600080939A0580939E05E2EAF5E088EB95E054
:104B7000CFEFC1938E179F07E1F783E297E0909301
:104B800089058093880588E198E090938B05809350
:104B90008A0588EF95E190938D0580938C0588EFC9
:104BA0009DE090938F0580938E0530E020E040E0FB
:104BB00069E084E895E00E9423071092DF051092D7
:104BC000DE058EEE98E09093B9058093B8058EE8E7
:104BD00092E09093BD058093BC0582E08093BE0572
:104BE0001092BF051092ED0510920D061092090665
:104BF00081E080930E0680930F068CE091E0909305
:104C0000BB058093BA0584E895E00E949C08109249
:104C1000D7051092D6051092DB051092DA058FEFBA
:104C20009FEF9093D9058093D8059093DD058093ED
:104C3000DC05E091BA05F091BB050280F381E02D1F
:104C400084E895E0099583EF9AE09093E1058093DD
:104C5000E0051092F0058DE08093AE058CE0809326
:104C6000AF05C093AD05CF910895FB01DC01059020
:104C70000D920020E1F70895FB01DC014150504006
:104C800048F005900D920020C9F701C01D924150D7
:104C90005040E0F70895BB27FA01A62F621771056F
:104CA00081059105330B30FB66F0AA27660F771F4D
:104CB000881F991FAA1FA21710F0A21B63953850D6
:104CC000A9F7A05DAA3308F0A95DA19336F7B11149
:104CD000B1931082CA010C948726BB27FB0155278C
:104CE000AA27880F991FAA1FA41710F0A41B839549
:104CF0005051B9F7A05DAA3308F0A95DA1930097C0
:104D000079F7B111B1931192CB010C948726DC0194
:104D1000FC01672F71917723E1F7329704C07C91F2
:104D20006D9370836291AE17BF07C8F30895A1E237
:104D30001A2EAA1BBB1BFD010DC0AA1FBB1FEE1F15
:104D4000FF1FA217B307E407F50720F0A21BB30B60
:104D5000E40BF50B661F771F881F991F1A9469F7DC
:104D600060957095809590959B01AC01BD01CF0138
:104D70000895052E97FB1EF400940E94D02657FD3F
:104D800007D00E94972607FC03D04EF40C94D0263F
:104D900050954095309521953F4F4F4F5F4F089567
:104DA00090958095709561957F4F8F4F9F4F089597
:104DB0000E94E926A59F900DB49F900DA49F800DA1
:104DC000911D11240895EE0FFF1F0590F491E02D21
:104DD0000994A29FB001B39FC001A39F700D811DD4
:104DE0001124911DB29F700D811D1124911D0895F4
:104DF000DC0101C06D9341505040E0F70895FB0184
:104E0000DC010D900020E9F7119701900D92002030
:104E1000E1F70895FC018191861721F08823D9F7E5
:104E2000992708953197CF010895FB01DC01019086
:0C4E30000D920020E1F70895F894FFCFE8
:104E3C0000000000820E5A0E611060109C0894094C
:104E4C008C081815A015C019FF1815A115C819FF45
:104E5C001815AE19FF1815AF19FF1815AE15D51684
:104E6C008015A8163F15D316001540158D16141570
:104E7C0020160015A115C815DA1612158116CF15B6
:104E8C00D916F115DB1640152E15A415A619FF0021
:104E9C0001140A6464323200127A0000042896105D
:104EAC00080000800040006D73003C2054206D69A8
:084EBC006E0020002D007E00B5
:00000001FF
