:100000000C94E4010C940C020C940C020C940C0261
:100010000C940C020C940C020C940C020C940C0228
:100020000C940C020C940C020C940C020C940C0218
:100030000C940C020C940C020C940C020C940C0208
:100040000C94E0080C940C020C940C020C940C021E
:100050000C940C020C940C020C940C020C940C02E8
:100060000C942A090C940C02207F0101000000006E
:10007000000000000000005E00000000000006001C
:100080000006000000247E24247E240000246B2A25
:100090002A6B1200004626100864620000344A4AA7
:1000A0005420500000000000060000000000003C4A
:1000B00042000000000000423C000000002A1C3EFC
:1000C0001C2A00000008083E08080000000040301C
:1000D00000000000000808080808080000000040B0
:1000E000000000000040201008040200003C6252A2
:1000F0004A463C000040447E4040000000645252AA
:1001000052524C000024424A4A4A34000038242209
:10011000227E2000002E4A4A4A4A3200003C4A4AC7
:100120004A4A300000020262120A060000344A4ABB
:100130004A4A3400000C525252523C000000002443
:10014000000000000000402400000000000008142F
:1001500022000000001414141414140000000022E3
:1001600014080000000402520A0400000018245A77
:100170005A241800007C121212127C00007E4A4A97
:100180004A4A3400003C424242422400007E42423D
:1001900042423C00007E4A4A4A424200007E0A0A2D
:1001A0000A020200003C424252523400007E08081B
:1001B00008087E000000427E42000000002040400F
:1001C00040403E00007E080808146200007E404067
:1001D00040404000007E040808047E00007E0408C1
:1001E00010207E00003C424242423C00007E12123F
:1001F00012120C00003C425262423C00007E12127D
:1002000012324C0000244A4A4A4A30000002027E60
:1002100002020000003E404040403E00001E2040E0
:1002200040201E00007E201010207E000042241876
:1002300018244200000204780402000000426252C6
:100240004A46420000007E424200000000020408CC
:100250001020400000000042427E00000000000428
:100260000204000080808080808080800000000286
:10027000040000000020545454780000007E4848D8
:10028000483000000038444444280000003048480A
:10029000487E000000385454544800000000087C98
:1002A0000A0200000018A4A4A47C0000007E080834
:1002B000087000000000487A400000000040808084
:1002C000887A0000007E1010284400000000427E62
:1002D00040000000007C047804780000007C0404E6
:1002E00004780000003844444438000000FC4444D2
:1002F000443800000038444444FC0000007C0804FA
:100300000404000000485454542400000000043E3B
:1003100044000000003C4040207C0000001C2040C5
:10032000201C0000001C601C601C00000044281001
:1003300028440000001CA0A0A07C000000446454DD
:100340004C4400000000083641000000000000FF9F
:100350000000000000004136080000000804040806
:100360001010080000000000000000000000000065
:10037000240027002A0000000000250028002B0090
:1003800000000000230026002900040404040404E3
:100390000404020202020202030303030303010234
:1003A0000408102040800102040810200102040803
:1003B00010200000000800020100000304070000F4
:1003C000000000000000450A11241FBECFEFD8E056
:1003D000DEBFCDBF11E0A0E0B1E0E4E9F9E102C089
:1003E00005900D92AC38B107D9F722E0ACE8B1E046
:1003F00001C01D92A937B207E1F711E0C4EED1E0C8
:1004000004C02197FE010E94C20CC33ED107C9F768
:100410000E949C0A0C94C80C0C94000080E0089583
:100420001F93CF93DF9300D000D01F92CDB7DEB7DC
:100430001C8221E02B839A838983E0914302F0910F
:10044000440211891D82A0914302B0914402E091BF
:100450004702F09148029E012F5F3F4F50964C910A
:100460006FE083E492E009958D818F5F8D83811722
:1004700050F30F900F900F900F900F90DF91CF914E
:100480001F9108959B01DC011896ED91FC9141E0CC
:1004900067E10994833081F028F4813099F082304B
:1004A000A9F008958730A9F08830C9F08430B1F4FC
:1004B000809180008F7D03C0809180008F77809332
:1004C0008000089584B58F7784BD089584B58F7DAD
:1004D000FBCF8091B0008F778093B000089580911A
:1004E000B0008F7DF9CFCF93DF93282F30E0F90153
:1004F000EE54FC4F8491F901E256FC4FD491F9017E
:10050000E657FC4FC491CC23A1F081110E944A020E
:10051000EC2FF0E0EE0FFF1FE058FC4FA591B491D7
:10052000EC91ED2381E090E009F480E0DF91CF9140
:10053000089580E090E0FACF1F93CF93DF93282FA8
:1005400030E0F901EE54FC4F8491F901E256FC4F82
:10055000D491F901E657FC4FC491CC23A9F0162F92
:1005600081110E944A02EC2FF0E0EE0FFF1FEA58C3
:10057000FC4FA591B4918FB7F894EC91111108C07C
:10058000D095DE23DC938FBFDF91CF911F9108952B
:10059000DE2BF8CFCF93DF9390E0FC01E256FC4FC7
:1005A000249186579C4FFC0184918823C9F090E0E8
:1005B000880F991FFC01E459FC4FA591B491FC01EF
:1005C000EA58FC4FC591D49161110DC09FB7F894C2
:1005D0008C91209582238C938881282328839FBF28
:1005E000DF91CF910895623051F49FB7F8943C9118
:1005F000822F809583238C93E8812E2BEFCF8FB7AA
:10060000F894EC912E2B2C938FBFEACF3FB7F89440
:1006100080913B0290913C02A0913D02B0913E023C
:1006200026B5A89B05C02F3F19F00196A11DB11D4D
:100630003FBFBA2FA92F982F8827BC01CD01620F89
:10064000711D811D911D42E0660F771F881F991F44
:100650004A95D1F708958F929F92AF92BF92CF9211
:10066000DF92EF92FF926B017C010E9406034B0127
:100670005C01C114D104E104F104B9F00E94060345
:10068000681979098A099B09683E734081059105BB
:1006900080F321E0C21AD108E108F10888EE880E43
:1006A00083E0981EA11CB11CE4CFFF90EF90DF9077
:1006B000CF90BF90AF909F908F900895662329F0C0
:1006C0006A3019F0862F90E008958FEF9FEF08951C
:1006D0000F931F93CF93DF938C01C62F642FCC32DF
:1006E000E8F4CA3208F041C0C83271F1C93209F4E5
:1006F00042C080E0C034D0F1CF73F801EC0FF11D9F
:10070000868D8F3F91F1C031E0F00E94730221E0AD
:10071000892B09F420E0F801218F27C0CD3289F11F
:1007200040F384EB8C0F823020F7CF73C00FD12FB2
:10073000D11D8E8D411133C061E00E94CA0260E07C
:100740008E8D0E949C0211C0025E1F4FD0E0F80106
:1007500081918F018F3F31F061E0D03108F062E08C
:100760000E94CA02DF5FD63191F781E0DF91CF911D
:100770001F910F91089570E090E080E00E942B039C
:10078000F4CF85E090E0433010F082E090E0880FF5
:10079000991F880F991F05970197F1F7E6CF62E03F
:1007A0000E94CA02E2CF2091D801260F3327331FBF
:1007B00021323105ECF42091FC01FC0190E080E055
:1007C000243069F082E00895A091D8012191AC0114
:1007D00048545E4FA40FB52FB11D2C930196861778
:1007E00098F38091D801680F6093D80180E0089554
:1007F00081E0089508958FEF9FEF08958FEF9FEFA9
:1008000008958091B10190E09195819591090895A5
:10081000CF93DF93CB01EA01642F0E94D303CE0173
:10082000DF91CF910895CF93DF931F92CDB7DEB7BD
:10083000698361E0CE0101960E94D30381E090E0DC
:100840000F90DF91CF910895DC011A96ED91FC9104
:1008500030E020E00994DC011696ED91FC9130E047
:1008600020E040E069E10994DC011696ED91FC91ED
:1008700030E020E040E068E109949A01DC0116963E
:10088000ED91FC91462F67E10994EF92FF920F934F
:100890001F93CF93DF931F92CDB7DEB77C018B01FF
:1008A000D8016C91673129F150F46531A0F40F90B3
:1008B000DF91CF911F910F91FF90EF9008956A31D2
:1008C00018F16E3FA1F7F8014181498369E2C70140
:1008D0000E9424040BC0F80141814983D701169678
:1008E000ED91FC9130E020E0C70109950E5F1F4FAC
:1008F000D7CFF80181818983AE014F5F5F4F61E0FF
:10090000C7010E943D04F2CF0F5F1F4FD70116961B
:10091000ED91FC9130E020E040E0C7010995C0CFA7
:10092000462FDC011696ED91FC9130E020E066E167
:100930000994462FDC011696ED91FC9130E020E001
:1009400065E10994EF92FF920F931F93CF93DF938A
:10095000EC01042F79016D3009F446C050F46B307E
:10096000C9F1693009F49FC06A3009F465C080E0BC
:1009700046C06E3009F452C06F3099F70E943404BB
:10098000F7011381110F110F110F6C89160F60E41D
:10099000CE010E949904612F62956F706061CE0153
:1009A0000E949904612F6F70CE010E949004F7019C
:1009B0006481606BCE010E949004F70140815181F7
:1009C0006281660F660F660FCE010E943D040150E2
:1009D000A1F72EC063E171E0442311F06EE071E0F5
:1009E000CE010E9445040AC0411110C067E071E0C9
:1009F0000E944504E881F98182898C8B81E0DF9136
:100A0000CF911F910F91FF90EF90089560E071E0FA
:100A10000E944504E881F9818389EFCF0E94340464
:100A200061E8CE010E949904602FCE010E949004DB
:100A3000CE010E942B04E2CFEA85FB8530E020E066
:100A400040E068E2CE010995EE81FF8130E020E0D0
:100A500040E064E1CE01099541E06BE4CE010E94E3
:100A60002404E881F981448169E2CE010E942404D2
:100A700040E06BE4CE010E942404E881F9814481C6
:100A800069E2CE010E94240441E06BE4CE010E94A1
:100A90002404E881F981458169E2CE010E942404A1
:100AA00068E171E09DCF8DE491E0998388831C8A91
:100AB000A5CF41E06DE40C942404DC01ED91FC91A0
:100AC00045856DE20C942404CF93DF93EC0141E063
:100AD0006CE40E942404CE01DF91CF910C945D055B
:100AE000CF93DF93EC01662379F00E945905CE0184
:100AF0000E945D05CE010E94640540E06CE4CE01D9
:100B0000DF91CF910C94240440E06DE40E94240412
:100B1000EECF1F93CF93DF93EC01162F60780E94E6
:100B20007005612F6074CE010E947005612F6072A4
:100B3000CE010E947005612F6071CE010E94700588
:100B4000612F6870CE010E947005612F6470CE0124
:100B50000E947005612F6270CE010E947005612FA6
:100B60006170CE010E947005CE010E945905CE0130
:100B70000E945D05CE010E946405CE010E945905C8
:100B8000CE010E945D0540E06CE4CE01DF91CF9183
:100B90001F910C942404DC011896ED91FC9130E037
:100BA00020E040E069E10994DC011896ED91FC91A8
:100BB00030E020E040E068E10994CF93DF931F929A
:100BC000CDB7DEB76983BE016F5F7F4F0E944202DF
:100BD0000F90DF91CF910895EF92FF921F93CF93E3
:100BE000DF93EC01162F7A010E94D40560E4CE0158
:100BF0000E94DD05E885F9859701412F67E1CE0167
:100C00000995CE01DF91CF911F91FF90EF900C9449
:100C1000CB05EF92FF921F93CF93DF93EC01142F3C
:100C20007901663181F138F4643109F44BC06531E2
:100C300079F080E022C06831C9F150F16931C9F71B
:100C40008091B001882391F1CE010E94CB052EC086
:100C50008091B001882319F0CE010E94CB05CE010E
:100C60000E94D40560E0CE010E94DD05612FCE0117
:100C70000E94DD0581E08093B001DF91CF911F914B
:100C8000FF90EF900895642F0E94DD0581E0F5CF7D
:100C90008091B001882319F0CE010E94CB05A701F5
:100CA000193138F4612FCE010E94EC051092B00189
:100CB000EDCF68E1CE010E94EC05185188E1E80E05
:100CC000F11CEDCF8E898F3F11F488E78E8BE8857C
:100CD000F9859701412F64E1CE01DF91CF911F91FA
:100CE000FF90EF900994CF93DF93EC01A889B98925
:100CF000FD01349131969491319684911396FD01C2
:100D0000A4916317A8F1961798F1631B770B8A9F3C
:100D1000E02D1124E69FC001E79F900D1124280FBC
:100D2000392F311D83E0220F331F8A95E1F7C90166
:100D30000496DA01245F3F4FE889F989E80FF91F2B
:100D4000E491ED93019682179307B1F78D8988237B
:100D500061F0FA019A01285F3F4F8191DF011197FD
:100D600080958C932E173F07C1F7DF91CF9108959F
:100D7000FA01CA0108961192E817F907E1F7E6CFE0
:100D80004F925F926F927F928F929F92AF92BF929B
:100D9000CF92DF92EF92FF920F931F93CF93DF9347
:100DA000CDB7DEB72D970FB6F894DEBF0FBECDBF1F
:100DB0007C01C62ED42EB22EDC0150968D919C91D2
:100DC000FC013296149131960491512E560E040F67
:100DD00081E0860F581608F411E0712CFE0131965F
:100DE0004F0144244394672CAC2C262DA4016B2D79
:100DF000C7010E947306AC86DD864B869A8689867B
:100E0000D7011496ED91FC919E01275F3F4F41E081
:100E10006FE0C70109956394A394A51430F3D394AC
:100E2000710ED01600F32D960FB6F894DEBF0FBEEC
:100E3000CDBFDF91CF911F910F91FF90EF90DF9089
:100E4000CF90BF90AF909F908F907F906F905F906A
:100E50004F900895EF92FF921F93CF93DF93E0910D
:100E60005302F09154023296C49110925B0287E8CB
:100E7000E82E81E0F82ED0E016E0F70161917F01C5
:100E8000E0914502F091460283E492E009958F3F9C
:100E9000980771F08E3F2FEF920779F3282F43E0E8
:100EA000612F83E492E00E94C0061C0FDF5FE5CF54
:100EB0008D2FDF91CF911F91FF90EF900895EF92CA
:100EC000FF921F93CF93DF93EC01142F79016831C8
:100ED00051F130F46431D1F06731A9F080E006C0FF
:100EE000693109F443C06032C9F781E0DF91CF91E5
:100EF0001F91FF90EF900895F70161917F01CE015E
:100F00000E94890511501111F7CFEFCF41E06CE439
:100F10000E94240441E06DE4CE010E942404CE012D
:100F20000E945D05E2CF8F89882349F0CE010E949F
:100F30005905CE010E945D05CE010E946405CE01D7
:100F40000E94590540E06DE4CE010E942404CE01C8
:100F50000E945D0540E06CE4CE010E94240481E023
:100F60008F8B6E89CE010E948905BFCF40E06DE472
:100F70000E942404CE010E945D05CE010E946405FA
:100F8000CE010E945905CE010E945D051F8AADCF9A
:100F90001F93CF93DF93EC01EC89FD8949AD6A3053
:100FA00059F43396E491E40FE9AF18AE81E090E094
:100FB000DF91CF911F910895262F3296149168AD3D
:100FC00004960E94C006E8ADE10FE8AFEFCF60E005
:100FD0008DE00E949C0260E08CE00C949C028F9259
:100FE0009F92AF92BF92CF92DF92EF92FF922FB774
:100FF000F8948090370290903802A0903902B09017
:101000003A022FBF6C01F12CE12C2FB7F89480919C
:10101000370290913802A0913902B0913A022FBF65
:1010200088199909AA09BB098C159D05AE05BF054C
:10103000E8F461E08DE00E949C0260E08CE00E9498
:101040009C0268EC70E080E090E00E942B0360E07E
:101050008DE00E949C0261E08CE00E949C026CE2A8
:1010600071E080E090E00E942B03CFCFFF90EF90E3
:10107000DF90CF90BF90AF909F908F900895CF92C8
:10108000DF92EF92FF920F931F93CF93DF936C0148
:10109000EB017B01E40EF51E10E000E0CE15DF054C
:1010A00061F06991D601ED91FC910190F081E02D04
:1010B000C6010995080F191FF1CFC801DF91CF9123
:1010C0001F910F91FF90EF90DF90CF9008950895BA
:1010D00090E080E008951F93CF93DF9385ED809398
:1010E000BC008091B4019091B501A091B601B0917E
:1010F000B7010796A11DB11D23E0B695A795979559
:1011000087952A95D1F72091BC0024FD03C0109249
:10111000FC0152C04091B4015091B5016091B601FB
:101120007091B701452B462B472B69F30097A1051A
:10113000B10541F02AE22A95F1F700C00197A10913
:10114000B109E1CF8091B301C1E0C093B20188231E
:1011500099F1D091B8001091BA008091BC008A7BBF
:101160008093BC0060E082E10E949C0260E083E129
:101170000E949C021092FC01C093FE011092FD019E
:1011800061E082E10E949C0261E083E10E949C0296
:101190008091B9008E7F8093B9008091B9008D7FD6
:1011A0008093B90088E48093B80085E48093BC0004
:1011B0001093BA00D093B800DF91CF911F9108959A
:1011C0001F920F920FB60F9211242F933F938F937C
:1011D0009F93AF93BF938091370290913802A09173
:1011E0003902B0913A023091360223E0230F2D37B5
:1011F00058F50196A11DB11D209336028093370248
:1012000090933802A0933902B0933A0280913B0246
:1012100090913C02A0913D02B0913E020196A11D29
:10122000B11D80933B0290933C02A0933D02B0938A
:101230003E02BF91AF919F918F913F912F910F905F
:101240000FBE0F901F90189526E8230F0296A11D40
:10125000B11DD2CF1F920F920FB60F9211242F9370
:101260003F934F935F936F937F938F939F93AF932E
:10127000BF93EF93FF938091B900887F803609F484
:101280004AC0F0F5883209F4A5C018F5803109F498
:1012900099C0B8F4882309F4F5C0883009F492C0E5
:1012A000FF91EF91BF91AF919F918F917F916F913E
:1012B0005F914F913F912F910F900FBE0F901F9014
:1012C0001895883109F486C0803251F78093FB016C
:1012D00014C0803409F49BC040F48033B9F38833E0
:1012E000F9F68093FB0185ECAEC0803509F483C02C
:1012F000883509F494C0883499F60E946B08D0CFE1
:10130000883909F48AC038F5883729F050F48836CE
:1013100011F0803729F683E08093FC011092FA01E6
:1013200055C0883809F479C0803919F0803809F03F
:10133000B7CF8091FA01803208F06FC0E091FA01D6
:1013400081E08E0F8093FA018091BB00F0E0E652BD
:10135000FE4F80833BC0803B39F0D0F4803A09F4E3
:1013600077C0883A09F09CCF84E08093FC0110920A
:10137000D9011092D801F0E0E0E009958091D80100
:1013800081110FC081E08093D8011092B80109C08B
:10139000803C09F4A8CF883C09F4A5CF883B09F02C
:1013A0007FCFE091D90181E08E0F8093D901F0E0E9
:1013B000E854FE4F80818093BB009091D9018091C9
:1013C000D80129C0809121028093BB0085EC8093D5
:1013D000BC0066CF9091200280911F02981758F5AB
:1013E000E091200281E08E0F80932002F0E0E15036
:1013F000FE4F8081E9CFE091200281E08E0F809343
:1014000020028091BB00F0E0E150FE4F808390917C
:10141000200280911F029817C8F285E8D8CFE0918A
:10142000200281E08E0F809320028091BB00F0E0CB
:10143000E150FE4F80838091FE0181115ECF81E0FB
:101440008093FD0184EA8093BC001092FC0128CFB8
:1014500085EC8093BC001092FC018091FA018032EF
:1014600030F4E091FA01F0E0E652FE4F1082609114
:10147000FA0170E08AED91E0F0E0E0E00995109269
:10148000FA010ECF1092FB0138CFCF931092420297
:101490001092410210927702109278028FE791E049
:1014A0009093400280933F021092440210924302B4
:1014B0001092580210925B0210924F02109250024A
:1014C00010925102109252028FEF80935902809332
:1014D0005D02E1E6F2E087E792E0CFEFC1938E177D
:1014E0009F07E1F782EA94E09093480280934702D5
:1014F00089E096E090934A02809349028FE597E055
:1015000090934C0280934B0288E693E090934E02B6
:1015100080934D0230E020E040E069E083E492E017
:101520000E94A2048DE080936D028CE080936E0295
:10153000C0936C02CF910895CF93DF93CDB7DEB700
:1015400028970FB6F894DEBF0FBECDBF789484B550
:10155000826084BD84B5816084BD85B5826085BDAF
:1015600085B5816085BD80916E00816080936E003D
:10157000109281008091810082608093810080912F
:1015800081008160809381008091800081608093E0
:1015900080008091B10084608093B1008091B000A0
:1015A00081608093B00080917A00846080937A009B
:1015B00080917A00826080937A0080917A008160C5
:1015C00080937A0080917A00806880937A001092EC
:1015D000C10061E08DE00E94CA0261E08CE00E94DF
:1015E000CA0260E08DE00E949C0261E08CE00E94F3
:1015F0009C02F5E6EF2EF1E0FF2EA8E6CA2EA1E050
:10160000DA2E33243394B3E2AB2EB12CF7011191CF
:101610007F0161E0812F0E94CA0261E0812F0E9458
:101620009C02C5010197F1F760E0812F0E94CA0278
:1016300064EF71E080E090E00E942B03812F0E9414
:101640007302892B09F0312C62E0812F0E94CA02BB
:10165000CE14DF04D9F6311005C080E197E20E9474
:10166000EF07FFCFF12CE12C61E083E10E949C02A7
:10167000FDE0EF16F10409F470C061E08E2D0E94C8
:10168000CA0260E08E2D0E949C0268EC70E080E04F
:1016900090E00E942B0310E000E0E016F10609F450
:1016A00056C061E0802F0E94CA0261E0802F0E9434
:1016B0009C0262E0802F0E94CA02802F0E94730267
:1016C0000197E9F1D12CC12C61E08DE00E949C02D0
:1016D00060E08CE00E949C026AEF70E080E090E0A5
:1016E0000E942B030E94E70764EF71E080E090E026
:1016F0000E942B032FEFC21AD20AEC14FD0424F728
:10170000F12CE12C60E08DE00E949C0261E08CE015
:101710000E949C026AEF70E080E090E00E942B0340
:101720000E94E70764EF71E080E090E00E942B03E5
:101730003FEFE31AF30A0E151F0524F7FFCF61E010
:10174000802F0E94CA0260E0802F0E949C020F5FDF
:101750001F4F0431110509F0A0CF8FEFE81AF80AE6
:10176000E4E1EE16F10409F07FCF61E08DE00E9424
:101770009C0260E08CE00E949C026AEF70E080E0D6
:1017800090E00E942B0360E08DE00E949C0261E0EB
:101790008CE00E949C0261E083E10E949C0264E66E
:1017A00070E080E090E00E942B0378E6472E71E025
:1017B000572EEEE6EE2EE1E0FE2E820162E0F80109
:1017C00081918F010E94CA02E016F106B9F756E72F
:1017D000652E51E0752E6BE7E62E61E0F62E630173
:1017E00062E0F60181916F010E94CA02EC14FD04CF
:1017F000B9F73EE6A32E31E0B32E46E7842E41E052
:10180000942E750162E0F70181917F010E94CA0266
:101810008E149F04B9F7F30181913F010E94730276
:10182000892B09F4AAC0C614D704A9F7F501819140
:101830005F010E947302892B09F49FC0AE14BF049C
:10184000A9F7F20181912F010E947302892B09F4FB
:1018500094C040165106A9F781E080932F02EE2430
:10186000E394F32C10E000E0802F0E9473029801B3
:101870002E5D3D4F6901892BE1F4F901E08261E0C1
:101880008CE00E94CA0260E08CE00E949C0261E051
:101890008DE00E949C0268EC70E080E090E00E9485
:1018A0002B0360E08DE00E949C0262E08CE00E94CD
:1018B000CA02F6018081811101C0F12C0F5F1F4F18
:1018C0000431110509F052C0FF2059F20E94E707C8
:1018D00088E0F82E8E010F5F1F4F98E6A92E90E04A
:1018E000B92E2EE5C22E23E0D22EE0914702F091D0
:1018F000480230E020E040E06AE083E492E00995AD
:10190000F8012F2D11922A95E9F7C8010E941002C3
:10191000E0914702F091480230E020E040E06BE0C7
:1019200083E492E00995B0925402A0925302F80128
:101930002F2D11922A95E9F7C8010E9410021092EA
:1019400077021092780264EF71E080E090E00E94EC
:101950002B03D0924602C09245020E942A0768EEED
:1019600073E080E090E00E942B03BFCF0D301105A3
:1019700009F07ACF0EE010E077CF88E893E10E947B
:10198000EF07FFCFEE0FFF1F0590F491E02D0994B4
:04199000F894FFCFF9
:101994001815A015C019FF1815A115C819FF181599
:1019A400AE19FF1815AF19FF1815AE15D516801509
:1019B400A8163F15D316001540158D1614152016BC
:1019C4000015A115C815DA1612158116CF15D916EA
:1019D400F115DB1640152E15A415A619FF000114E8
:1019E4000A6464323200127A000004289610080057
:1019F40000800040000203130E0F101112130001A7
:101A040002030405060708090A0B0C00000000C8BD
:0C1A1400073F0868086708544553540059
:00000001FF
